{
	"Complete.sol": {
		"BMPS": {
			"abi": [
				{
					"inputs": [],
					"name": "admin_read",
					"outputs": [
						{
							"components": [
								{
									"internalType": "string",
									"name": "bug_name",
									"type": "string"
								},
								{
									"internalType": "string",
									"name": "bug_description",
									"type": "string"
								},
								{
									"internalType": "string",
									"name": "bug_priority",
									"type": "string"
								}
							],
							"internalType": "struct Bugs[]",
							"name": "",
							"type": "tuple[]"
						},
						{
							"components": [
								{
									"internalType": "string",
									"name": "feature_name",
									"type": "string"
								},
								{
									"internalType": "string",
									"name": "feature_description",
									"type": "string"
								},
								{
									"internalType": "string",
									"name": "feature_priority",
									"type": "string"
								}
							],
							"internalType": "struct Features[]",
							"name": "",
							"type": "tuple[]"
						}
					],
					"stateMutability": "view",
					"type": "function"
				},
				{
					"inputs": [
						{
							"internalType": "string",
							"name": "time",
							"type": "string"
						},
						{
							"internalType": "string",
							"name": "pname",
							"type": "string"
						},
						{
							"internalType": "string",
							"name": "pdec",
							"type": "string"
						},
						{
							"internalType": "string[][]",
							"name": "bugs",
							"type": "string[][]"
						},
						{
							"internalType": "string[][]",
							"name": "features",
							"type": "string[][]"
						}
					],
					"name": "patch_request",
					"outputs": [],
					"stateMutability": "nonpayable",
					"type": "function"
				},
				{
					"inputs": [
						{
							"internalType": "string[][]",
							"name": "bugs",
							"type": "string[][]"
						},
						{
							"internalType": "string[][]",
							"name": "features",
							"type": "string[][]"
						}
					],
					"name": "reporting",
					"outputs": [],
					"stateMutability": "nonpayable",
					"type": "function"
				}
			],
			"devdoc": {
				"kind": "dev",
				"methods": {},
				"version": 1
			},
			"evm": {
				"assembly": "    /* \"Complete.sol\":493:1324  contract BMPS{... */\n  mstore(0x40, 0x80)\n  callvalue\n  dup1\n  iszero\n  tag_1\n  jumpi\n  0x00\n  dup1\n  revert\ntag_1:\n  pop\n  dataSize(sub_0)\n  dup1\n  dataOffset(sub_0)\n  0x00\n  codecopy\n  0x00\n  return\nstop\n\nsub_0: assembly {\n        /* \"Complete.sol\":493:1324  contract BMPS{... */\n      mstore(0x40, 0x80)\n      callvalue\n      dup1\n      iszero\n      tag_1\n      jumpi\n      0x00\n      dup1\n      revert\n    tag_1:\n      pop\n      jumpi(tag_2, lt(calldatasize, 0x04))\n      shr(0xe0, calldataload(0x00))\n      dup1\n      0x652bc308\n      eq\n      tag_3\n      jumpi\n      dup1\n      0x7576a979\n      eq\n      tag_4\n      jumpi\n      dup1\n      0x81634317\n      eq\n      tag_5\n      jumpi\n    tag_2:\n      0x00\n      dup1\n      revert\n        /* \"Complete.sol\":1162:1321  function patch_request(string memory time,string memory pname, string memory pdec, string[][] memory bugs, string[][] memory features) public{... */\n    tag_3:\n      tag_6\n      0x04\n      dup1\n      calldatasize\n      sub\n      dup2\n      add\n      swap1\n      tag_7\n      swap2\n      swap1\n      tag_8\n      jump\t// in\n    tag_7:\n      tag_9\n      jump\t// in\n    tag_6:\n      stop\n        /* \"Complete.sol\":591:1027  function reporting(string[][] memory bugs, string[][] memory features) public{... */\n    tag_4:\n      tag_10\n      0x04\n      dup1\n      calldatasize\n      sub\n      dup2\n      add\n      swap1\n      tag_11\n      swap2\n      swap1\n      tag_12\n      jump\t// in\n    tag_11:\n      tag_13\n      jump\t// in\n    tag_10:\n      stop\n        /* \"Complete.sol\":1035:1154  function admin_read() public view returns(Bugs[] memory , Features[] memory){... */\n    tag_5:\n      tag_14\n      tag_15\n      jump\t// in\n    tag_14:\n      mload(0x40)\n      tag_16\n      swap3\n      swap2\n      swap1\n      tag_17\n      jump\t// in\n    tag_16:\n      mload(0x40)\n      dup1\n      swap2\n      sub\n      swap1\n      return\n        /* \"Complete.sol\":1162:1321  function patch_request(string memory time,string memory pname, string memory pdec, string[][] memory bugs, string[][] memory features) public{... */\n    tag_9:\n      pop\n      pop\n      pop\n      pop\n      pop\n      jump\t// out\n        /* \"Complete.sol\":591:1027  function reporting(string[][] memory bugs, string[][] memory features) public{... */\n    tag_13:\n        /* \"Complete.sol\":684:690  uint i */\n      0x00\n        /* \"Complete.sol\":680:832  for(uint i=0;i<=bugs.length;i++){... */\n    tag_20:\n        /* \"Complete.sol\":696:700  bugs */\n      dup3\n        /* \"Complete.sol\":696:707  bugs.length */\n      mload\n        /* \"Complete.sol\":693:694  i */\n      dup2\n        /* \"Complete.sol\":693:707  i<=bugs.length */\n      gt\n        /* \"Complete.sol\":680:832  for(uint i=0;i<=bugs.length;i++){... */\n      tag_21\n      jumpi\n        /* \"Complete.sol\":728:744  Bugs memory temp */\n      0x00\n        /* \"Complete.sol\":747:785  Bugs(bugs[i][0],bugs[i][1],bugs[i][2]) */\n      mload(0x40)\n      dup1\n      0x60\n      add\n      0x40\n      mstore\n      dup1\n        /* \"Complete.sol\":752:756  bugs */\n      dup6\n        /* \"Complete.sol\":757:758  i */\n      dup5\n        /* \"Complete.sol\":752:759  bugs[i] */\n      dup2\n      mload\n      dup2\n      lt\n      tag_23\n      jumpi\n      tag_24\n      tag_25\n      jump\t// in\n    tag_24:\n    tag_23:\n      0x20\n      mul\n      0x20\n      add\n      add\n      mload\n        /* \"Complete.sol\":760:761  0 */\n      0x00\n        /* \"Complete.sol\":752:762  bugs[i][0] */\n      dup2\n      mload\n      dup2\n      lt\n      tag_26\n      jumpi\n      tag_27\n      tag_25\n      jump\t// in\n    tag_27:\n    tag_26:\n      0x20\n      mul\n      0x20\n      add\n      add\n      mload\n        /* \"Complete.sol\":747:785  Bugs(bugs[i][0],bugs[i][1],bugs[i][2]) */\n      dup2\n      mstore\n      0x20\n      add\n        /* \"Complete.sol\":763:767  bugs */\n      dup6\n        /* \"Complete.sol\":768:769  i */\n      dup5\n        /* \"Complete.sol\":763:770  bugs[i] */\n      dup2\n      mload\n      dup2\n      lt\n      tag_28\n      jumpi\n      tag_29\n      tag_25\n      jump\t// in\n    tag_29:\n    tag_28:\n      0x20\n      mul\n      0x20\n      add\n      add\n      mload\n        /* \"Complete.sol\":771:772  1 */\n      0x01\n        /* \"Complete.sol\":763:773  bugs[i][1] */\n      dup2\n      mload\n      dup2\n      lt\n      tag_30\n      jumpi\n      tag_31\n      tag_25\n      jump\t// in\n    tag_31:\n    tag_30:\n      0x20\n      mul\n      0x20\n      add\n      add\n      mload\n        /* \"Complete.sol\":747:785  Bugs(bugs[i][0],bugs[i][1],bugs[i][2]) */\n      dup2\n      mstore\n      0x20\n      add\n        /* \"Complete.sol\":774:778  bugs */\n      dup6\n        /* \"Complete.sol\":779:780  i */\n      dup5\n        /* \"Complete.sol\":774:781  bugs[i] */\n      dup2\n      mload\n      dup2\n      lt\n      tag_32\n      jumpi\n      tag_33\n      tag_25\n      jump\t// in\n    tag_33:\n    tag_32:\n      0x20\n      mul\n      0x20\n      add\n      add\n      mload\n        /* \"Complete.sol\":782:783  2 */\n      0x02\n        /* \"Complete.sol\":774:784  bugs[i][2] */\n      dup2\n      mload\n      dup2\n      lt\n      tag_34\n      jumpi\n      tag_35\n      tag_25\n      jump\t// in\n    tag_35:\n    tag_34:\n      0x20\n      mul\n      0x20\n      add\n      add\n      mload\n        /* \"Complete.sol\":747:785  Bugs(bugs[i][0],bugs[i][1],bugs[i][2]) */\n      dup2\n      mstore\n      pop\n        /* \"Complete.sol\":728:785  Bugs memory temp = Bugs(bugs[i][0],bugs[i][1],bugs[i][2]) */\n      swap1\n      pop\n        /* \"Complete.sol\":801:808  bug_arr */\n      0x00\n        /* \"Complete.sol\":814:818  temp */\n      dup2\n        /* \"Complete.sol\":801:819  bug_arr.push(temp) */\n      swap1\n      dup1\n      0x01\n      dup2\n      sload\n      add\n      dup1\n      dup3\n      sstore\n      dup1\n      swap2\n      pop\n      pop\n      0x01\n      swap1\n      sub\n      swap1\n      0x00\n      mstore\n      keccak256(0x00, 0x20)\n      swap1\n      0x03\n      mul\n      add\n      0x00\n      swap1\n      swap2\n      swap1\n      swap2\n      swap1\n      swap2\n      pop\n      0x00\n      dup3\n      add\n      mload\n      dup2\n      0x00\n      add\n      swap1\n      dup2\n      tag_37\n      swap2\n      swap1\n      tag_38\n      jump\t// in\n    tag_37:\n      pop\n      0x20\n      dup3\n      add\n      mload\n      dup2\n      0x01\n      add\n      swap1\n      dup2\n      tag_39\n      swap2\n      swap1\n      tag_38\n      jump\t// in\n    tag_39:\n      pop\n      0x40\n      dup3\n      add\n      mload\n      dup2\n      0x02\n      add\n      swap1\n      dup2\n      tag_40\n      swap2\n      swap1\n      tag_38\n      jump\t// in\n    tag_40:\n      pop\n      pop\n      pop\n        /* \"Complete.sol\":712:832  {... */\n      pop\n        /* \"Complete.sol\":708:711  i++ */\n      dup1\n      dup1\n      tag_41\n      swap1\n      tag_42\n      jump\t// in\n    tag_41:\n      swap2\n      pop\n      pop\n        /* \"Complete.sol\":680:832  for(uint i=0;i<=bugs.length;i++){... */\n      jump(tag_20)\n    tag_21:\n      pop\n        /* \"Complete.sol\":847:853  uint i */\n      0x00\n        /* \"Complete.sol\":843:1020  for(uint i=0;i<=features.length;i++){... */\n    tag_43:\n        /* \"Complete.sol\":859:867  features */\n      dup2\n        /* \"Complete.sol\":859:874  features.length */\n      mload\n        /* \"Complete.sol\":856:857  i */\n      dup2\n        /* \"Complete.sol\":856:874  i<=features.length */\n      gt\n        /* \"Complete.sol\":843:1020  for(uint i=0;i<=features.length;i++){... */\n      tag_44\n      jumpi\n        /* \"Complete.sol\":895:915  Features memory temp */\n      0x00\n        /* \"Complete.sol\":918:972  Features(features[i][0],features[i][1],features[i][2]) */\n      mload(0x40)\n      dup1\n      0x60\n      add\n      0x40\n      mstore\n      dup1\n        /* \"Complete.sol\":927:935  features */\n      dup5\n        /* \"Complete.sol\":936:937  i */\n      dup5\n        /* \"Complete.sol\":927:938  features[i] */\n      dup2\n      mload\n      dup2\n      lt\n      tag_46\n      jumpi\n      tag_47\n      tag_25\n      jump\t// in\n    tag_47:\n    tag_46:\n      0x20\n      mul\n      0x20\n      add\n      add\n      mload\n        /* \"Complete.sol\":939:940  0 */\n      0x00\n        /* \"Complete.sol\":927:941  features[i][0] */\n      dup2\n      mload\n      dup2\n      lt\n      tag_48\n      jumpi\n      tag_49\n      tag_25\n      jump\t// in\n    tag_49:\n    tag_48:\n      0x20\n      mul\n      0x20\n      add\n      add\n      mload\n        /* \"Complete.sol\":918:972  Features(features[i][0],features[i][1],features[i][2]) */\n      dup2\n      mstore\n      0x20\n      add\n        /* \"Complete.sol\":942:950  features */\n      dup5\n        /* \"Complete.sol\":951:952  i */\n      dup5\n        /* \"Complete.sol\":942:953  features[i] */\n      dup2\n      mload\n      dup2\n      lt\n      tag_50\n      jumpi\n      tag_51\n      tag_25\n      jump\t// in\n    tag_51:\n    tag_50:\n      0x20\n      mul\n      0x20\n      add\n      add\n      mload\n        /* \"Complete.sol\":954:955  1 */\n      0x01\n        /* \"Complete.sol\":942:956  features[i][1] */\n      dup2\n      mload\n      dup2\n      lt\n      tag_52\n      jumpi\n      tag_53\n      tag_25\n      jump\t// in\n    tag_53:\n    tag_52:\n      0x20\n      mul\n      0x20\n      add\n      add\n      mload\n        /* \"Complete.sol\":918:972  Features(features[i][0],features[i][1],features[i][2]) */\n      dup2\n      mstore\n      0x20\n      add\n        /* \"Complete.sol\":957:965  features */\n      dup5\n        /* \"Complete.sol\":966:967  i */\n      dup5\n        /* \"Complete.sol\":957:968  features[i] */\n      dup2\n      mload\n      dup2\n      lt\n      tag_54\n      jumpi\n      tag_55\n      tag_25\n      jump\t// in\n    tag_55:\n    tag_54:\n      0x20\n      mul\n      0x20\n      add\n      add\n      mload\n        /* \"Complete.sol\":969:970  2 */\n      0x02\n        /* \"Complete.sol\":957:971  features[i][2] */\n      dup2\n      mload\n      dup2\n      lt\n      tag_56\n      jumpi\n      tag_57\n      tag_25\n      jump\t// in\n    tag_57:\n    tag_56:\n      0x20\n      mul\n      0x20\n      add\n      add\n      mload\n        /* \"Complete.sol\":918:972  Features(features[i][0],features[i][1],features[i][2]) */\n      dup2\n      mstore\n      pop\n        /* \"Complete.sol\":895:972  Features memory temp = Features(features[i][0],features[i][1],features[i][2]) */\n      swap1\n      pop\n        /* \"Complete.sol\":988:996  feat_arr */\n      0x01\n        /* \"Complete.sol\":1002:1006  temp */\n      dup2\n        /* \"Complete.sol\":988:1007  feat_arr.push(temp) */\n      swap1\n      dup1\n      0x01\n      dup2\n      sload\n      add\n      dup1\n      dup3\n      sstore\n      dup1\n      swap2\n      pop\n      pop\n      0x01\n      swap1\n      sub\n      swap1\n      0x00\n      mstore\n      keccak256(0x00, 0x20)\n      swap1\n      0x03\n      mul\n      add\n      0x00\n      swap1\n      swap2\n      swap1\n      swap2\n      swap1\n      swap2\n      pop\n      0x00\n      dup3\n      add\n      mload\n      dup2\n      0x00\n      add\n      swap1\n      dup2\n      tag_59\n      swap2\n      swap1\n      tag_38\n      jump\t// in\n    tag_59:\n      pop\n      0x20\n      dup3\n      add\n      mload\n      dup2\n      0x01\n      add\n      swap1\n      dup2\n      tag_60\n      swap2\n      swap1\n      tag_38\n      jump\t// in\n    tag_60:\n      pop\n      0x40\n      dup3\n      add\n      mload\n      dup2\n      0x02\n      add\n      swap1\n      dup2\n      tag_61\n      swap2\n      swap1\n      tag_38\n      jump\t// in\n    tag_61:\n      pop\n      pop\n      pop\n        /* \"Complete.sol\":879:1020  {... */\n      pop\n        /* \"Complete.sol\":875:878  i++ */\n      dup1\n      dup1\n      tag_62\n      swap1\n      tag_42\n      jump\t// in\n    tag_62:\n      swap2\n      pop\n      pop\n        /* \"Complete.sol\":843:1020  for(uint i=0;i<=features.length;i++){... */\n      jump(tag_43)\n    tag_44:\n      pop\n        /* \"Complete.sol\":591:1027  function reporting(string[][] memory bugs, string[][] memory features) public{... */\n      pop\n      pop\n      jump\t// out\n        /* \"Complete.sol\":1035:1154  function admin_read() public view returns(Bugs[] memory , Features[] memory){... */\n    tag_15:\n        /* \"Complete.sol\":1077:1090  Bugs[] memory */\n      0x60\n        /* \"Complete.sol\":1093:1110  Features[] memory */\n      dup1\n        /* \"Complete.sol\":1129:1136  bug_arr */\n      0x00\n        /* \"Complete.sol\":1137:1145  feat_arr */\n      0x01\n        /* \"Complete.sol\":1122:1146  return(bug_arr,feat_arr) */\n      dup2\n      dup1\n      sload\n      dup1\n      0x20\n      mul\n      0x20\n      add\n      mload(0x40)\n      swap1\n      dup2\n      add\n      0x40\n      mstore\n      dup1\n      swap3\n      swap2\n      swap1\n      dup2\n      dup2\n      mstore\n      0x20\n      add\n      0x00\n      swap1\n    tag_64:\n      dup3\n      dup3\n      lt\n      iszero\n      tag_65\n      jumpi\n      dup4\n      dup3\n      swap1\n      0x00\n      mstore\n      keccak256(0x00, 0x20)\n      swap1\n      0x03\n      mul\n      add\n      mload(0x40)\n      dup1\n      0x60\n      add\n      0x40\n      mstore\n      swap1\n      dup2\n      0x00\n      dup3\n      add\n      dup1\n      sload\n      tag_67\n      swap1\n      tag_68\n      jump\t// in\n    tag_67:\n      dup1\n      0x1f\n      add\n      0x20\n      dup1\n      swap2\n      div\n      mul\n      0x20\n      add\n      mload(0x40)\n      swap1\n      dup2\n      add\n      0x40\n      mstore\n      dup1\n      swap3\n      swap2\n      swap1\n      dup2\n      dup2\n      mstore\n      0x20\n      add\n      dup3\n      dup1\n      sload\n      tag_69\n      swap1\n      tag_68\n      jump\t// in\n    tag_69:\n      dup1\n      iszero\n      tag_70\n      jumpi\n      dup1\n      0x1f\n      lt\n      tag_71\n      jumpi\n      0x0100\n      dup1\n      dup4\n      sload\n      div\n      mul\n      dup4\n      mstore\n      swap2\n      0x20\n      add\n      swap2\n      jump(tag_70)\n    tag_71:\n      dup3\n      add\n      swap2\n      swap1\n      0x00\n      mstore\n      keccak256(0x00, 0x20)\n      swap1\n    tag_72:\n      dup2\n      sload\n      dup2\n      mstore\n      swap1\n      0x01\n      add\n      swap1\n      0x20\n      add\n      dup1\n      dup4\n      gt\n      tag_72\n      jumpi\n      dup3\n      swap1\n      sub\n      0x1f\n      and\n      dup3\n      add\n      swap2\n    tag_70:\n      pop\n      pop\n      pop\n      pop\n      pop\n      dup2\n      mstore\n      0x20\n      add\n      0x01\n      dup3\n      add\n      dup1\n      sload\n      tag_73\n      swap1\n      tag_68\n      jump\t// in\n    tag_73:\n      dup1\n      0x1f\n      add\n      0x20\n      dup1\n      swap2\n      div\n      mul\n      0x20\n      add\n      mload(0x40)\n      swap1\n      dup2\n      add\n      0x40\n      mstore\n      dup1\n      swap3\n      swap2\n      swap1\n      dup2\n      dup2\n      mstore\n      0x20\n      add\n      dup3\n      dup1\n      sload\n      tag_74\n      swap1\n      tag_68\n      jump\t// in\n    tag_74:\n      dup1\n      iszero\n      tag_75\n      jumpi\n      dup1\n      0x1f\n      lt\n      tag_76\n      jumpi\n      0x0100\n      dup1\n      dup4\n      sload\n      div\n      mul\n      dup4\n      mstore\n      swap2\n      0x20\n      add\n      swap2\n      jump(tag_75)\n    tag_76:\n      dup3\n      add\n      swap2\n      swap1\n      0x00\n      mstore\n      keccak256(0x00, 0x20)\n      swap1\n    tag_77:\n      dup2\n      sload\n      dup2\n      mstore\n      swap1\n      0x01\n      add\n      swap1\n      0x20\n      add\n      dup1\n      dup4\n      gt\n      tag_77\n      jumpi\n      dup3\n      swap1\n      sub\n      0x1f\n      and\n      dup3\n      add\n      swap2\n    tag_75:\n      pop\n      pop\n      pop\n      pop\n      pop\n      dup2\n      mstore\n      0x20\n      add\n      0x02\n      dup3\n      add\n      dup1\n      sload\n      tag_78\n      swap1\n      tag_68\n      jump\t// in\n    tag_78:\n      dup1\n      0x1f\n      add\n      0x20\n      dup1\n      swap2\n      div\n      mul\n      0x20\n      add\n      mload(0x40)\n      swap1\n      dup2\n      add\n      0x40\n      mstore\n      dup1\n      swap3\n      swap2\n      swap1\n      dup2\n      dup2\n      mstore\n      0x20\n      add\n      dup3\n      dup1\n      sload\n      tag_79\n      swap1\n      tag_68\n      jump\t// in\n    tag_79:\n      dup1\n      iszero\n      tag_80\n      jumpi\n      dup1\n      0x1f\n      lt\n      tag_81\n      jumpi\n      0x0100\n      dup1\n      dup4\n      sload\n      div\n      mul\n      dup4\n      mstore\n      swap2\n      0x20\n      add\n      swap2\n      jump(tag_80)\n    tag_81:\n      dup3\n      add\n      swap2\n      swap1\n      0x00\n      mstore\n      keccak256(0x00, 0x20)\n      swap1\n    tag_82:\n      dup2\n      sload\n      dup2\n      mstore\n      swap1\n      0x01\n      add\n      swap1\n      0x20\n      add\n      dup1\n      dup4\n      gt\n      tag_82\n      jumpi\n      dup3\n      swap1\n      sub\n      0x1f\n      and\n      dup3\n      add\n      swap2\n    tag_80:\n      pop\n      pop\n      pop\n      pop\n      pop\n      dup2\n      mstore\n      pop\n      pop\n      dup2\n      mstore\n      0x20\n      add\n      swap1\n      0x01\n      add\n      swap1\n      jump(tag_64)\n    tag_65:\n      pop\n      pop\n      pop\n      pop\n      swap2\n      pop\n      dup1\n      dup1\n      sload\n      dup1\n      0x20\n      mul\n      0x20\n      add\n      mload(0x40)\n      swap1\n      dup2\n      add\n      0x40\n      mstore\n      dup1\n      swap3\n      swap2\n      swap1\n      dup2\n      dup2\n      mstore\n      0x20\n      add\n      0x00\n      swap1\n    tag_83:\n      dup3\n      dup3\n      lt\n      iszero\n      tag_84\n      jumpi\n      dup4\n      dup3\n      swap1\n      0x00\n      mstore\n      keccak256(0x00, 0x20)\n      swap1\n      0x03\n      mul\n      add\n      mload(0x40)\n      dup1\n      0x60\n      add\n      0x40\n      mstore\n      swap1\n      dup2\n      0x00\n      dup3\n      add\n      dup1\n      sload\n      tag_86\n      swap1\n      tag_68\n      jump\t// in\n    tag_86:\n      dup1\n      0x1f\n      add\n      0x20\n      dup1\n      swap2\n      div\n      mul\n      0x20\n      add\n      mload(0x40)\n      swap1\n      dup2\n      add\n      0x40\n      mstore\n      dup1\n      swap3\n      swap2\n      swap1\n      dup2\n      dup2\n      mstore\n      0x20\n      add\n      dup3\n      dup1\n      sload\n      tag_87\n      swap1\n      tag_68\n      jump\t// in\n    tag_87:\n      dup1\n      iszero\n      tag_88\n      jumpi\n      dup1\n      0x1f\n      lt\n      tag_89\n      jumpi\n      0x0100\n      dup1\n      dup4\n      sload\n      div\n      mul\n      dup4\n      mstore\n      swap2\n      0x20\n      add\n      swap2\n      jump(tag_88)\n    tag_89:\n      dup3\n      add\n      swap2\n      swap1\n      0x00\n      mstore\n      keccak256(0x00, 0x20)\n      swap1\n    tag_90:\n      dup2\n      sload\n      dup2\n      mstore\n      swap1\n      0x01\n      add\n      swap1\n      0x20\n      add\n      dup1\n      dup4\n      gt\n      tag_90\n      jumpi\n      dup3\n      swap1\n      sub\n      0x1f\n      and\n      dup3\n      add\n      swap2\n    tag_88:\n      pop\n      pop\n      pop\n      pop\n      pop\n      dup2\n      mstore\n      0x20\n      add\n      0x01\n      dup3\n      add\n      dup1\n      sload\n      tag_91\n      swap1\n      tag_68\n      jump\t// in\n    tag_91:\n      dup1\n      0x1f\n      add\n      0x20\n      dup1\n      swap2\n      div\n      mul\n      0x20\n      add\n      mload(0x40)\n      swap1\n      dup2\n      add\n      0x40\n      mstore\n      dup1\n      swap3\n      swap2\n      swap1\n      dup2\n      dup2\n      mstore\n      0x20\n      add\n      dup3\n      dup1\n      sload\n      tag_92\n      swap1\n      tag_68\n      jump\t// in\n    tag_92:\n      dup1\n      iszero\n      tag_93\n      jumpi\n      dup1\n      0x1f\n      lt\n      tag_94\n      jumpi\n      0x0100\n      dup1\n      dup4\n      sload\n      div\n      mul\n      dup4\n      mstore\n      swap2\n      0x20\n      add\n      swap2\n      jump(tag_93)\n    tag_94:\n      dup3\n      add\n      swap2\n      swap1\n      0x00\n      mstore\n      keccak256(0x00, 0x20)\n      swap1\n    tag_95:\n      dup2\n      sload\n      dup2\n      mstore\n      swap1\n      0x01\n      add\n      swap1\n      0x20\n      add\n      dup1\n      dup4\n      gt\n      tag_95\n      jumpi\n      dup3\n      swap1\n      sub\n      0x1f\n      and\n      dup3\n      add\n      swap2\n    tag_93:\n      pop\n      pop\n      pop\n      pop\n      pop\n      dup2\n      mstore\n      0x20\n      add\n      0x02\n      dup3\n      add\n      dup1\n      sload\n      tag_96\n      swap1\n      tag_68\n      jump\t// in\n    tag_96:\n      dup1\n      0x1f\n      add\n      0x20\n      dup1\n      swap2\n      div\n      mul\n      0x20\n      add\n      mload(0x40)\n      swap1\n      dup2\n      add\n      0x40\n      mstore\n      dup1\n      swap3\n      swap2\n      swap1\n      dup2\n      dup2\n      mstore\n      0x20\n      add\n      dup3\n      dup1\n      sload\n      tag_97\n      swap1\n      tag_68\n      jump\t// in\n    tag_97:\n      dup1\n      iszero\n      tag_98\n      jumpi\n      dup1\n      0x1f\n      lt\n      tag_99\n      jumpi\n      0x0100\n      dup1\n      dup4\n      sload\n      div\n      mul\n      dup4\n      mstore\n      swap2\n      0x20\n      add\n      swap2\n      jump(tag_98)\n    tag_99:\n      dup3\n      add\n      swap2\n      swap1\n      0x00\n      mstore\n      keccak256(0x00, 0x20)\n      swap1\n    tag_100:\n      dup2\n      sload\n      dup2\n      mstore\n      swap1\n      0x01\n      add\n      swap1\n      0x20\n      add\n      dup1\n      dup4\n      gt\n      tag_100\n      jumpi\n      dup3\n      swap1\n      sub\n      0x1f\n      and\n      dup3\n      add\n      swap2\n    tag_98:\n      pop\n      pop\n      pop\n      pop\n      pop\n      dup2\n      mstore\n      pop\n      pop\n      dup2\n      mstore\n      0x20\n      add\n      swap1\n      0x01\n      add\n      swap1\n      jump(tag_83)\n    tag_84:\n      pop\n      pop\n      pop\n      pop\n      swap1\n      pop\n      swap2\n      pop\n      swap2\n      pop\n        /* \"Complete.sol\":1035:1154  function admin_read() public view returns(Bugs[] memory , Features[] memory){... */\n      swap1\n      swap2\n      jump\t// out\n        /* \"#utility.yul\":7:82   */\n    tag_101:\n        /* \"#utility.yul\":40:46   */\n      0x00\n        /* \"#utility.yul\":73:75   */\n      0x40\n        /* \"#utility.yul\":67:76   */\n      mload\n        /* \"#utility.yul\":57:76   */\n      swap1\n      pop\n        /* \"#utility.yul\":7:82   */\n      swap1\n      jump\t// out\n        /* \"#utility.yul\":88:205   */\n    tag_102:\n        /* \"#utility.yul\":197:198   */\n      0x00\n        /* \"#utility.yul\":194:195   */\n      dup1\n        /* \"#utility.yul\":187:199   */\n      revert\n        /* \"#utility.yul\":211:328   */\n    tag_103:\n        /* \"#utility.yul\":320:321   */\n      0x00\n        /* \"#utility.yul\":317:318   */\n      dup1\n        /* \"#utility.yul\":310:322   */\n      revert\n        /* \"#utility.yul\":334:451   */\n    tag_104:\n        /* \"#utility.yul\":443:444   */\n      0x00\n        /* \"#utility.yul\":440:441   */\n      dup1\n        /* \"#utility.yul\":433:445   */\n      revert\n        /* \"#utility.yul\":457:574   */\n    tag_105:\n        /* \"#utility.yul\":566:567   */\n      0x00\n        /* \"#utility.yul\":563:564   */\n      dup1\n        /* \"#utility.yul\":556:568   */\n      revert\n        /* \"#utility.yul\":580:682   */\n    tag_106:\n        /* \"#utility.yul\":621:627   */\n      0x00\n        /* \"#utility.yul\":672:674   */\n      0x1f\n        /* \"#utility.yul\":668:675   */\n      not\n        /* \"#utility.yul\":663:665   */\n      0x1f\n        /* \"#utility.yul\":656:661   */\n      dup4\n        /* \"#utility.yul\":652:666   */\n      add\n        /* \"#utility.yul\":648:676   */\n      and\n        /* \"#utility.yul\":638:676   */\n      swap1\n      pop\n        /* \"#utility.yul\":580:682   */\n      swap2\n      swap1\n      pop\n      jump\t// out\n        /* \"#utility.yul\":688:868   */\n    tag_107:\n        /* \"#utility.yul\":736:813   */\n      0x4e487b7100000000000000000000000000000000000000000000000000000000\n        /* \"#utility.yul\":733:734   */\n      0x00\n        /* \"#utility.yul\":726:814   */\n      mstore\n        /* \"#utility.yul\":833:837   */\n      0x41\n        /* \"#utility.yul\":830:831   */\n      0x04\n        /* \"#utility.yul\":823:838   */\n      mstore\n        /* \"#utility.yul\":857:861   */\n      0x24\n        /* \"#utility.yul\":854:855   */\n      0x00\n        /* \"#utility.yul\":847:862   */\n      revert\n        /* \"#utility.yul\":874:1155   */\n    tag_108:\n        /* \"#utility.yul\":957:984   */\n      tag_166\n        /* \"#utility.yul\":979:983   */\n      dup3\n        /* \"#utility.yul\":957:984   */\n      tag_106\n      jump\t// in\n    tag_166:\n        /* \"#utility.yul\":949:955   */\n      dup2\n        /* \"#utility.yul\":945:985   */\n      add\n        /* \"#utility.yul\":1087:1093   */\n      dup2\n        /* \"#utility.yul\":1075:1085   */\n      dup2\n        /* \"#utility.yul\":1072:1094   */\n      lt\n        /* \"#utility.yul\":1051:1069   */\n      0xffffffffffffffff\n        /* \"#utility.yul\":1039:1049   */\n      dup3\n        /* \"#utility.yul\":1036:1070   */\n      gt\n        /* \"#utility.yul\":1033:1095   */\n      or\n        /* \"#utility.yul\":1030:1118   */\n      iszero\n      tag_167\n      jumpi\n        /* \"#utility.yul\":1098:1116   */\n      tag_168\n      tag_107\n      jump\t// in\n    tag_168:\n        /* \"#utility.yul\":1030:1118   */\n    tag_167:\n        /* \"#utility.yul\":1138:1148   */\n      dup1\n        /* \"#utility.yul\":1134:1136   */\n      0x40\n        /* \"#utility.yul\":1127:1149   */\n      mstore\n        /* \"#utility.yul\":917:1155   */\n      pop\n        /* \"#utility.yul\":874:1155   */\n      pop\n      pop\n      jump\t// out\n        /* \"#utility.yul\":1161:1290   */\n    tag_109:\n        /* \"#utility.yul\":1195:1201   */\n      0x00\n        /* \"#utility.yul\":1222:1242   */\n      tag_170\n      tag_101\n      jump\t// in\n    tag_170:\n        /* \"#utility.yul\":1212:1242   */\n      swap1\n      pop\n        /* \"#utility.yul\":1251:1284   */\n      tag_171\n        /* \"#utility.yul\":1279:1283   */\n      dup3\n        /* \"#utility.yul\":1271:1277   */\n      dup3\n        /* \"#utility.yul\":1251:1284   */\n      tag_108\n      jump\t// in\n    tag_171:\n        /* \"#utility.yul\":1161:1290   */\n      swap2\n      swap1\n      pop\n      jump\t// out\n        /* \"#utility.yul\":1296:1604   */\n    tag_110:\n        /* \"#utility.yul\":1358:1362   */\n      0x00\n        /* \"#utility.yul\":1448:1466   */\n      0xffffffffffffffff\n        /* \"#utility.yul\":1440:1446   */\n      dup3\n        /* \"#utility.yul\":1437:1467   */\n      gt\n        /* \"#utility.yul\":1434:1490   */\n      iszero\n      tag_173\n      jumpi\n        /* \"#utility.yul\":1470:1488   */\n      tag_174\n      tag_107\n      jump\t// in\n    tag_174:\n        /* \"#utility.yul\":1434:1490   */\n    tag_173:\n        /* \"#utility.yul\":1508:1537   */\n      tag_175\n        /* \"#utility.yul\":1530:1536   */\n      dup3\n        /* \"#utility.yul\":1508:1537   */\n      tag_106\n      jump\t// in\n    tag_175:\n        /* \"#utility.yul\":1500:1537   */\n      swap1\n      pop\n        /* \"#utility.yul\":1592:1596   */\n      0x20\n        /* \"#utility.yul\":1586:1590   */\n      dup2\n        /* \"#utility.yul\":1582:1597   */\n      add\n        /* \"#utility.yul\":1574:1597   */\n      swap1\n      pop\n        /* \"#utility.yul\":1296:1604   */\n      swap2\n      swap1\n      pop\n      jump\t// out\n        /* \"#utility.yul\":1610:1756   */\n    tag_111:\n        /* \"#utility.yul\":1707:1713   */\n      dup3\n        /* \"#utility.yul\":1702:1705   */\n      dup2\n        /* \"#utility.yul\":1697:1700   */\n      dup4\n        /* \"#utility.yul\":1684:1714   */\n      calldatacopy\n        /* \"#utility.yul\":1748:1749   */\n      0x00\n        /* \"#utility.yul\":1739:1745   */\n      dup4\n        /* \"#utility.yul\":1734:1737   */\n      dup4\n        /* \"#utility.yul\":1730:1746   */\n      add\n        /* \"#utility.yul\":1723:1750   */\n      mstore\n        /* \"#utility.yul\":1610:1756   */\n      pop\n      pop\n      pop\n      jump\t// out\n        /* \"#utility.yul\":1762:2187   */\n    tag_112:\n        /* \"#utility.yul\":1840:1845   */\n      0x00\n        /* \"#utility.yul\":1865:1931   */\n      tag_178\n        /* \"#utility.yul\":1881:1930   */\n      tag_179\n        /* \"#utility.yul\":1923:1929   */\n      dup5\n        /* \"#utility.yul\":1881:1930   */\n      tag_110\n      jump\t// in\n    tag_179:\n        /* \"#utility.yul\":1865:1931   */\n      tag_109\n      jump\t// in\n    tag_178:\n        /* \"#utility.yul\":1856:1931   */\n      swap1\n      pop\n        /* \"#utility.yul\":1954:1960   */\n      dup3\n        /* \"#utility.yul\":1947:1952   */\n      dup2\n        /* \"#utility.yul\":1940:1961   */\n      mstore\n        /* \"#utility.yul\":1992:1996   */\n      0x20\n        /* \"#utility.yul\":1985:1990   */\n      dup2\n        /* \"#utility.yul\":1981:1997   */\n      add\n        /* \"#utility.yul\":2030:2033   */\n      dup5\n        /* \"#utility.yul\":2021:2027   */\n      dup5\n        /* \"#utility.yul\":2016:2019   */\n      dup5\n        /* \"#utility.yul\":2012:2028   */\n      add\n        /* \"#utility.yul\":2009:2034   */\n      gt\n        /* \"#utility.yul\":2006:2118   */\n      iszero\n      tag_180\n      jumpi\n        /* \"#utility.yul\":2037:2116   */\n      tag_181\n      tag_105\n      jump\t// in\n    tag_181:\n        /* \"#utility.yul\":2006:2118   */\n    tag_180:\n        /* \"#utility.yul\":2127:2181   */\n      tag_182\n        /* \"#utility.yul\":2174:2180   */\n      dup5\n        /* \"#utility.yul\":2169:2172   */\n      dup3\n        /* \"#utility.yul\":2164:2167   */\n      dup6\n        /* \"#utility.yul\":2127:2181   */\n      tag_111\n      jump\t// in\n    tag_182:\n        /* \"#utility.yul\":1846:2187   */\n      pop\n        /* \"#utility.yul\":1762:2187   */\n      swap4\n      swap3\n      pop\n      pop\n      pop\n      jump\t// out\n        /* \"#utility.yul\":2207:2547   */\n    tag_113:\n        /* \"#utility.yul\":2263:2268   */\n      0x00\n        /* \"#utility.yul\":2312:2315   */\n      dup3\n        /* \"#utility.yul\":2305:2309   */\n      0x1f\n        /* \"#utility.yul\":2297:2303   */\n      dup4\n        /* \"#utility.yul\":2293:2310   */\n      add\n        /* \"#utility.yul\":2289:2316   */\n      slt\n        /* \"#utility.yul\":2279:2401   */\n      tag_184\n      jumpi\n        /* \"#utility.yul\":2320:2399   */\n      tag_185\n      tag_104\n      jump\t// in\n    tag_185:\n        /* \"#utility.yul\":2279:2401   */\n    tag_184:\n        /* \"#utility.yul\":2437:2443   */\n      dup2\n        /* \"#utility.yul\":2424:2444   */\n      calldataload\n        /* \"#utility.yul\":2462:2541   */\n      tag_186\n        /* \"#utility.yul\":2537:2540   */\n      dup5\n        /* \"#utility.yul\":2529:2535   */\n      dup3\n        /* \"#utility.yul\":2522:2526   */\n      0x20\n        /* \"#utility.yul\":2514:2520   */\n      dup7\n        /* \"#utility.yul\":2510:2527   */\n      add\n        /* \"#utility.yul\":2462:2541   */\n      tag_112\n      jump\t// in\n    tag_186:\n        /* \"#utility.yul\":2453:2541   */\n      swap2\n      pop\n        /* \"#utility.yul\":2269:2547   */\n      pop\n        /* \"#utility.yul\":2207:2547   */\n      swap3\n      swap2\n      pop\n      pop\n      jump\t// out\n        /* \"#utility.yul\":2553:2899   */\n    tag_114:\n        /* \"#utility.yul\":2665:2669   */\n      0x00\n        /* \"#utility.yul\":2755:2773   */\n      0xffffffffffffffff\n        /* \"#utility.yul\":2747:2753   */\n      dup3\n        /* \"#utility.yul\":2744:2774   */\n      gt\n        /* \"#utility.yul\":2741:2797   */\n      iszero\n      tag_188\n      jumpi\n        /* \"#utility.yul\":2777:2795   */\n      tag_189\n      tag_107\n      jump\t// in\n    tag_189:\n        /* \"#utility.yul\":2741:2797   */\n    tag_188:\n        /* \"#utility.yul\":2827:2831   */\n      0x20\n        /* \"#utility.yul\":2819:2825   */\n      dup3\n        /* \"#utility.yul\":2815:2832   */\n      mul\n        /* \"#utility.yul\":2807:2832   */\n      swap1\n      pop\n        /* \"#utility.yul\":2887:2891   */\n      0x20\n        /* \"#utility.yul\":2881:2885   */\n      dup2\n        /* \"#utility.yul\":2877:2892   */\n      add\n        /* \"#utility.yul\":2869:2892   */\n      swap1\n      pop\n        /* \"#utility.yul\":2553:2899   */\n      swap2\n      swap1\n      pop\n      jump\t// out\n        /* \"#utility.yul\":2905:3022   */\n    tag_115:\n        /* \"#utility.yul\":3014:3015   */\n      0x00\n        /* \"#utility.yul\":3011:3012   */\n      dup1\n        /* \"#utility.yul\":3004:3016   */\n      revert\n        /* \"#utility.yul\":3028:3349   */\n    tag_116:\n        /* \"#utility.yul\":3115:3119   */\n      0x00\n        /* \"#utility.yul\":3205:3223   */\n      0xffffffffffffffff\n        /* \"#utility.yul\":3197:3203   */\n      dup3\n        /* \"#utility.yul\":3194:3224   */\n      gt\n        /* \"#utility.yul\":3191:3247   */\n      iszero\n      tag_192\n      jumpi\n        /* \"#utility.yul\":3227:3245   */\n      tag_193\n      tag_107\n      jump\t// in\n    tag_193:\n        /* \"#utility.yul\":3191:3247   */\n    tag_192:\n        /* \"#utility.yul\":3277:3281   */\n      0x20\n        /* \"#utility.yul\":3269:3275   */\n      dup3\n        /* \"#utility.yul\":3265:3282   */\n      mul\n        /* \"#utility.yul\":3257:3282   */\n      swap1\n      pop\n        /* \"#utility.yul\":3337:3341   */\n      0x20\n        /* \"#utility.yul\":3331:3335   */\n      dup2\n        /* \"#utility.yul\":3327:3342   */\n      add\n        /* \"#utility.yul\":3319:3342   */\n      swap1\n      pop\n        /* \"#utility.yul\":3028:3349   */\n      swap2\n      swap1\n      pop\n      jump\t// out\n        /* \"#utility.yul\":3371:4316   */\n    tag_117:\n        /* \"#utility.yul\":3477:3482   */\n      0x00\n        /* \"#utility.yul\":3502:3593   */\n      tag_195\n        /* \"#utility.yul\":3518:3592   */\n      tag_196\n        /* \"#utility.yul\":3585:3591   */\n      dup5\n        /* \"#utility.yul\":3518:3592   */\n      tag_116\n      jump\t// in\n    tag_196:\n        /* \"#utility.yul\":3502:3593   */\n      tag_109\n      jump\t// in\n    tag_195:\n        /* \"#utility.yul\":3493:3593   */\n      swap1\n      pop\n        /* \"#utility.yul\":3613:3618   */\n      dup1\n        /* \"#utility.yul\":3642:3648   */\n      dup4\n        /* \"#utility.yul\":3635:3640   */\n      dup3\n        /* \"#utility.yul\":3628:3649   */\n      mstore\n        /* \"#utility.yul\":3676:3680   */\n      0x20\n        /* \"#utility.yul\":3669:3674   */\n      dup3\n        /* \"#utility.yul\":3665:3681   */\n      add\n        /* \"#utility.yul\":3658:3681   */\n      swap1\n      pop\n        /* \"#utility.yul\":3729:3733   */\n      0x20\n        /* \"#utility.yul\":3721:3727   */\n      dup5\n        /* \"#utility.yul\":3717:3734   */\n      mul\n        /* \"#utility.yul\":3709:3715   */\n      dup4\n        /* \"#utility.yul\":3705:3735   */\n      add\n        /* \"#utility.yul\":3758:3761   */\n      dup6\n        /* \"#utility.yul\":3750:3756   */\n      dup2\n        /* \"#utility.yul\":3747:3762   */\n      gt\n        /* \"#utility.yul\":3744:3866   */\n      iszero\n      tag_197\n      jumpi\n        /* \"#utility.yul\":3777:3856   */\n      tag_198\n      tag_115\n      jump\t// in\n    tag_198:\n        /* \"#utility.yul\":3744:3866   */\n    tag_197:\n        /* \"#utility.yul\":3892:3898   */\n      dup4\n        /* \"#utility.yul\":3875:4310   */\n    tag_199:\n        /* \"#utility.yul\":3909:3915   */\n      dup2\n        /* \"#utility.yul\":3904:3907   */\n      dup2\n        /* \"#utility.yul\":3901:3916   */\n      lt\n        /* \"#utility.yul\":3875:4310   */\n      iszero\n      tag_201\n      jumpi\n        /* \"#utility.yul\":3998:4001   */\n      dup1\n        /* \"#utility.yul\":3985:4002   */\n      calldataload\n        /* \"#utility.yul\":4034:4052   */\n      0xffffffffffffffff\n        /* \"#utility.yul\":4021:4032   */\n      dup2\n        /* \"#utility.yul\":4018:4053   */\n      gt\n        /* \"#utility.yul\":4015:4137   */\n      iszero\n      tag_202\n      jumpi\n        /* \"#utility.yul\":4056:4135   */\n      tag_203\n      tag_104\n      jump\t// in\n    tag_203:\n        /* \"#utility.yul\":4015:4137   */\n    tag_202:\n        /* \"#utility.yul\":4180:4191   */\n      dup1\n        /* \"#utility.yul\":4172:4178   */\n      dup7\n        /* \"#utility.yul\":4168:4192   */\n      add\n        /* \"#utility.yul\":4218:4265   */\n      tag_204\n        /* \"#utility.yul\":4261:4264   */\n      dup10\n        /* \"#utility.yul\":4249:4259   */\n      dup3\n        /* \"#utility.yul\":4218:4265   */\n      tag_113\n      jump\t// in\n    tag_204:\n        /* \"#utility.yul\":4213:4216   */\n      dup6\n        /* \"#utility.yul\":4206:4266   */\n      mstore\n        /* \"#utility.yul\":4295:4299   */\n      0x20\n        /* \"#utility.yul\":4290:4293   */\n      dup6\n        /* \"#utility.yul\":4286:4300   */\n      add\n        /* \"#utility.yul\":4279:4300   */\n      swap5\n      pop\n        /* \"#utility.yul\":3951:4310   */\n      pop\n      pop\n        /* \"#utility.yul\":3935:3939   */\n      0x20\n        /* \"#utility.yul\":3930:3933   */\n      dup2\n        /* \"#utility.yul\":3926:3940   */\n      add\n        /* \"#utility.yul\":3919:3940   */\n      swap1\n      pop\n        /* \"#utility.yul\":3875:4310   */\n      jump(tag_199)\n    tag_201:\n        /* \"#utility.yul\":3879:3900   */\n      pop\n        /* \"#utility.yul\":3483:4316   */\n      pop\n      pop\n        /* \"#utility.yul\":3371:4316   */\n      swap4\n      swap3\n      pop\n      pop\n      pop\n      jump\t// out\n        /* \"#utility.yul\":4338:4728   */\n    tag_118:\n        /* \"#utility.yul\":4419:4424   */\n      0x00\n        /* \"#utility.yul\":4468:4471   */\n      dup3\n        /* \"#utility.yul\":4461:4465   */\n      0x1f\n        /* \"#utility.yul\":4453:4459   */\n      dup4\n        /* \"#utility.yul\":4449:4466   */\n      add\n        /* \"#utility.yul\":4445:4472   */\n      slt\n        /* \"#utility.yul\":4435:4557   */\n      tag_206\n      jumpi\n        /* \"#utility.yul\":4476:4555   */\n      tag_207\n      tag_104\n      jump\t// in\n    tag_207:\n        /* \"#utility.yul\":4435:4557   */\n    tag_206:\n        /* \"#utility.yul\":4593:4599   */\n      dup2\n        /* \"#utility.yul\":4580:4600   */\n      calldataload\n        /* \"#utility.yul\":4618:4722   */\n      tag_208\n        /* \"#utility.yul\":4718:4721   */\n      dup5\n        /* \"#utility.yul\":4710:4716   */\n      dup3\n        /* \"#utility.yul\":4703:4707   */\n      0x20\n        /* \"#utility.yul\":4695:4701   */\n      dup7\n        /* \"#utility.yul\":4691:4708   */\n      add\n        /* \"#utility.yul\":4618:4722   */\n      tag_117\n      jump\t// in\n    tag_208:\n        /* \"#utility.yul\":4609:4722   */\n      swap2\n      pop\n        /* \"#utility.yul\":4425:4728   */\n      pop\n        /* \"#utility.yul\":4338:4728   */\n      swap3\n      swap2\n      pop\n      pop\n      jump\t// out\n        /* \"#utility.yul\":4752:5772   */\n    tag_119:\n        /* \"#utility.yul\":4883:4888   */\n      0x00\n        /* \"#utility.yul\":4908:5024   */\n      tag_210\n        /* \"#utility.yul\":4924:5023   */\n      tag_211\n        /* \"#utility.yul\":5016:5022   */\n      dup5\n        /* \"#utility.yul\":4924:5023   */\n      tag_114\n      jump\t// in\n    tag_211:\n        /* \"#utility.yul\":4908:5024   */\n      tag_109\n      jump\t// in\n    tag_210:\n        /* \"#utility.yul\":4899:5024   */\n      swap1\n      pop\n        /* \"#utility.yul\":5044:5049   */\n      dup1\n        /* \"#utility.yul\":5073:5079   */\n      dup4\n        /* \"#utility.yul\":5066:5071   */\n      dup3\n        /* \"#utility.yul\":5059:5080   */\n      mstore\n        /* \"#utility.yul\":5107:5111   */\n      0x20\n        /* \"#utility.yul\":5100:5105   */\n      dup3\n        /* \"#utility.yul\":5096:5112   */\n      add\n        /* \"#utility.yul\":5089:5112   */\n      swap1\n      pop\n        /* \"#utility.yul\":5160:5164   */\n      0x20\n        /* \"#utility.yul\":5152:5158   */\n      dup5\n        /* \"#utility.yul\":5148:5165   */\n      mul\n        /* \"#utility.yul\":5140:5146   */\n      dup4\n        /* \"#utility.yul\":5136:5166   */\n      add\n        /* \"#utility.yul\":5189:5192   */\n      dup6\n        /* \"#utility.yul\":5181:5187   */\n      dup2\n        /* \"#utility.yul\":5178:5193   */\n      gt\n        /* \"#utility.yul\":5175:5297   */\n      iszero\n      tag_212\n      jumpi\n        /* \"#utility.yul\":5208:5287   */\n      tag_213\n      tag_115\n      jump\t// in\n    tag_213:\n        /* \"#utility.yul\":5175:5297   */\n    tag_212:\n        /* \"#utility.yul\":5323:5329   */\n      dup4\n        /* \"#utility.yul\":5306:5766   */\n    tag_214:\n        /* \"#utility.yul\":5340:5346   */\n      dup2\n        /* \"#utility.yul\":5335:5338   */\n      dup2\n        /* \"#utility.yul\":5332:5347   */\n      lt\n        /* \"#utility.yul\":5306:5766   */\n      iszero\n      tag_216\n      jumpi\n        /* \"#utility.yul\":5429:5432   */\n      dup1\n        /* \"#utility.yul\":5416:5433   */\n      calldataload\n        /* \"#utility.yul\":5465:5483   */\n      0xffffffffffffffff\n        /* \"#utility.yul\":5452:5463   */\n      dup2\n        /* \"#utility.yul\":5449:5484   */\n      gt\n        /* \"#utility.yul\":5446:5568   */\n      iszero\n      tag_217\n      jumpi\n        /* \"#utility.yul\":5487:5566   */\n      tag_218\n      tag_104\n      jump\t// in\n    tag_218:\n        /* \"#utility.yul\":5446:5568   */\n    tag_217:\n        /* \"#utility.yul\":5611:5622   */\n      dup1\n        /* \"#utility.yul\":5603:5609   */\n      dup7\n        /* \"#utility.yul\":5599:5623   */\n      add\n        /* \"#utility.yul\":5649:5721   */\n      tag_219\n        /* \"#utility.yul\":5717:5720   */\n      dup10\n        /* \"#utility.yul\":5705:5715   */\n      dup3\n        /* \"#utility.yul\":5649:5721   */\n      tag_118\n      jump\t// in\n    tag_219:\n        /* \"#utility.yul\":5644:5647   */\n      dup6\n        /* \"#utility.yul\":5637:5722   */\n      mstore\n        /* \"#utility.yul\":5751:5755   */\n      0x20\n        /* \"#utility.yul\":5746:5749   */\n      dup6\n        /* \"#utility.yul\":5742:5756   */\n      add\n        /* \"#utility.yul\":5735:5756   */\n      swap5\n      pop\n        /* \"#utility.yul\":5382:5766   */\n      pop\n      pop\n        /* \"#utility.yul\":5366:5370   */\n      0x20\n        /* \"#utility.yul\":5361:5364   */\n      dup2\n        /* \"#utility.yul\":5357:5371   */\n      add\n        /* \"#utility.yul\":5350:5371   */\n      swap1\n      pop\n        /* \"#utility.yul\":5306:5766   */\n      jump(tag_214)\n    tag_216:\n        /* \"#utility.yul\":5310:5331   */\n      pop\n        /* \"#utility.yul\":4889:5772   */\n      pop\n      pop\n        /* \"#utility.yul\":4752:5772   */\n      swap4\n      swap3\n      pop\n      pop\n      pop\n      jump\t// out\n        /* \"#utility.yul\":5796:6236   */\n    tag_120:\n        /* \"#utility.yul\":5902:5907   */\n      0x00\n        /* \"#utility.yul\":5951:5954   */\n      dup3\n        /* \"#utility.yul\":5944:5948   */\n      0x1f\n        /* \"#utility.yul\":5936:5942   */\n      dup4\n        /* \"#utility.yul\":5932:5949   */\n      add\n        /* \"#utility.yul\":5928:5955   */\n      slt\n        /* \"#utility.yul\":5918:6040   */\n      tag_221\n      jumpi\n        /* \"#utility.yul\":5959:6038   */\n      tag_222\n      tag_104\n      jump\t// in\n    tag_222:\n        /* \"#utility.yul\":5918:6040   */\n    tag_221:\n        /* \"#utility.yul\":6076:6082   */\n      dup2\n        /* \"#utility.yul\":6063:6083   */\n      calldataload\n        /* \"#utility.yul\":6101:6230   */\n      tag_223\n        /* \"#utility.yul\":6226:6229   */\n      dup5\n        /* \"#utility.yul\":6218:6224   */\n      dup3\n        /* \"#utility.yul\":6211:6215   */\n      0x20\n        /* \"#utility.yul\":6203:6209   */\n      dup7\n        /* \"#utility.yul\":6199:6216   */\n      add\n        /* \"#utility.yul\":6101:6230   */\n      tag_119\n      jump\t// in\n    tag_223:\n        /* \"#utility.yul\":6092:6230   */\n      swap2\n      pop\n        /* \"#utility.yul\":5908:6236   */\n      pop\n        /* \"#utility.yul\":5796:6236   */\n      swap3\n      swap2\n      pop\n      pop\n      jump\t// out\n        /* \"#utility.yul\":6242:8253   */\n    tag_8:\n        /* \"#utility.yul\":6487:6493   */\n      0x00\n        /* \"#utility.yul\":6495:6501   */\n      dup1\n        /* \"#utility.yul\":6503:6509   */\n      0x00\n        /* \"#utility.yul\":6511:6517   */\n      dup1\n        /* \"#utility.yul\":6519:6525   */\n      0x00\n        /* \"#utility.yul\":6568:6571   */\n      0xa0\n        /* \"#utility.yul\":6556:6565   */\n      dup7\n        /* \"#utility.yul\":6547:6554   */\n      dup9\n        /* \"#utility.yul\":6543:6566   */\n      sub\n        /* \"#utility.yul\":6539:6572   */\n      slt\n        /* \"#utility.yul\":6536:6656   */\n      iszero\n      tag_225\n      jumpi\n        /* \"#utility.yul\":6575:6654   */\n      tag_226\n      tag_102\n      jump\t// in\n    tag_226:\n        /* \"#utility.yul\":6536:6656   */\n    tag_225:\n        /* \"#utility.yul\":6723:6724   */\n      0x00\n        /* \"#utility.yul\":6712:6721   */\n      dup7\n        /* \"#utility.yul\":6708:6725   */\n      add\n        /* \"#utility.yul\":6695:6726   */\n      calldataload\n        /* \"#utility.yul\":6753:6771   */\n      0xffffffffffffffff\n        /* \"#utility.yul\":6745:6751   */\n      dup2\n        /* \"#utility.yul\":6742:6772   */\n      gt\n        /* \"#utility.yul\":6739:6856   */\n      iszero\n      tag_227\n      jumpi\n        /* \"#utility.yul\":6775:6854   */\n      tag_228\n      tag_103\n      jump\t// in\n    tag_228:\n        /* \"#utility.yul\":6739:6856   */\n    tag_227:\n        /* \"#utility.yul\":6880:6943   */\n      tag_229\n        /* \"#utility.yul\":6935:6942   */\n      dup9\n        /* \"#utility.yul\":6926:6932   */\n      dup3\n        /* \"#utility.yul\":6915:6924   */\n      dup10\n        /* \"#utility.yul\":6911:6933   */\n      add\n        /* \"#utility.yul\":6880:6943   */\n      tag_113\n      jump\t// in\n    tag_229:\n        /* \"#utility.yul\":6870:6943   */\n      swap6\n      pop\n        /* \"#utility.yul\":6666:6953   */\n      pop\n        /* \"#utility.yul\":7020:7022   */\n      0x20\n        /* \"#utility.yul\":7009:7018   */\n      dup7\n        /* \"#utility.yul\":7005:7023   */\n      add\n        /* \"#utility.yul\":6992:7024   */\n      calldataload\n        /* \"#utility.yul\":7051:7069   */\n      0xffffffffffffffff\n        /* \"#utility.yul\":7043:7049   */\n      dup2\n        /* \"#utility.yul\":7040:7070   */\n      gt\n        /* \"#utility.yul\":7037:7154   */\n      iszero\n      tag_230\n      jumpi\n        /* \"#utility.yul\":7073:7152   */\n      tag_231\n      tag_103\n      jump\t// in\n    tag_231:\n        /* \"#utility.yul\":7037:7154   */\n    tag_230:\n        /* \"#utility.yul\":7178:7241   */\n      tag_232\n        /* \"#utility.yul\":7233:7240   */\n      dup9\n        /* \"#utility.yul\":7224:7230   */\n      dup3\n        /* \"#utility.yul\":7213:7222   */\n      dup10\n        /* \"#utility.yul\":7209:7231   */\n      add\n        /* \"#utility.yul\":7178:7241   */\n      tag_113\n      jump\t// in\n    tag_232:\n        /* \"#utility.yul\":7168:7241   */\n      swap5\n      pop\n        /* \"#utility.yul\":6963:7251   */\n      pop\n        /* \"#utility.yul\":7318:7320   */\n      0x40\n        /* \"#utility.yul\":7307:7316   */\n      dup7\n        /* \"#utility.yul\":7303:7321   */\n      add\n        /* \"#utility.yul\":7290:7322   */\n      calldataload\n        /* \"#utility.yul\":7349:7367   */\n      0xffffffffffffffff\n        /* \"#utility.yul\":7341:7347   */\n      dup2\n        /* \"#utility.yul\":7338:7368   */\n      gt\n        /* \"#utility.yul\":7335:7452   */\n      iszero\n      tag_233\n      jumpi\n        /* \"#utility.yul\":7371:7450   */\n      tag_234\n      tag_103\n      jump\t// in\n    tag_234:\n        /* \"#utility.yul\":7335:7452   */\n    tag_233:\n        /* \"#utility.yul\":7476:7539   */\n      tag_235\n        /* \"#utility.yul\":7531:7538   */\n      dup9\n        /* \"#utility.yul\":7522:7528   */\n      dup3\n        /* \"#utility.yul\":7511:7520   */\n      dup10\n        /* \"#utility.yul\":7507:7529   */\n      add\n        /* \"#utility.yul\":7476:7539   */\n      tag_113\n      jump\t// in\n    tag_235:\n        /* \"#utility.yul\":7466:7539   */\n      swap4\n      pop\n        /* \"#utility.yul\":7261:7549   */\n      pop\n        /* \"#utility.yul\":7616:7618   */\n      0x60\n        /* \"#utility.yul\":7605:7614   */\n      dup7\n        /* \"#utility.yul\":7601:7619   */\n      add\n        /* \"#utility.yul\":7588:7620   */\n      calldataload\n        /* \"#utility.yul\":7647:7665   */\n      0xffffffffffffffff\n        /* \"#utility.yul\":7639:7645   */\n      dup2\n        /* \"#utility.yul\":7636:7666   */\n      gt\n        /* \"#utility.yul\":7633:7750   */\n      iszero\n      tag_236\n      jumpi\n        /* \"#utility.yul\":7669:7748   */\n      tag_237\n      tag_103\n      jump\t// in\n    tag_237:\n        /* \"#utility.yul\":7633:7750   */\n    tag_236:\n        /* \"#utility.yul\":7774:7887   */\n      tag_238\n        /* \"#utility.yul\":7879:7886   */\n      dup9\n        /* \"#utility.yul\":7870:7876   */\n      dup3\n        /* \"#utility.yul\":7859:7868   */\n      dup10\n        /* \"#utility.yul\":7855:7877   */\n      add\n        /* \"#utility.yul\":7774:7887   */\n      tag_120\n      jump\t// in\n    tag_238:\n        /* \"#utility.yul\":7764:7887   */\n      swap3\n      pop\n        /* \"#utility.yul\":7559:7897   */\n      pop\n        /* \"#utility.yul\":7964:7967   */\n      0x80\n        /* \"#utility.yul\":7953:7962   */\n      dup7\n        /* \"#utility.yul\":7949:7968   */\n      add\n        /* \"#utility.yul\":7936:7969   */\n      calldataload\n        /* \"#utility.yul\":7996:8014   */\n      0xffffffffffffffff\n        /* \"#utility.yul\":7988:7994   */\n      dup2\n        /* \"#utility.yul\":7985:8015   */\n      gt\n        /* \"#utility.yul\":7982:8099   */\n      iszero\n      tag_239\n      jumpi\n        /* \"#utility.yul\":8018:8097   */\n      tag_240\n      tag_103\n      jump\t// in\n    tag_240:\n        /* \"#utility.yul\":7982:8099   */\n    tag_239:\n        /* \"#utility.yul\":8123:8236   */\n      tag_241\n        /* \"#utility.yul\":8228:8235   */\n      dup9\n        /* \"#utility.yul\":8219:8225   */\n      dup3\n        /* \"#utility.yul\":8208:8217   */\n      dup10\n        /* \"#utility.yul\":8204:8226   */\n      add\n        /* \"#utility.yul\":8123:8236   */\n      tag_120\n      jump\t// in\n    tag_241:\n        /* \"#utility.yul\":8113:8236   */\n      swap2\n      pop\n        /* \"#utility.yul\":7907:8246   */\n      pop\n        /* \"#utility.yul\":6242:8253   */\n      swap3\n      swap6\n      pop\n      swap3\n      swap6\n      swap1\n      swap4\n      pop\n      jump\t// out\n        /* \"#utility.yul\":8259:9293   */\n    tag_12:\n        /* \"#utility.yul\":8447:8453   */\n      0x00\n        /* \"#utility.yul\":8455:8461   */\n      dup1\n        /* \"#utility.yul\":8504:8506   */\n      0x40\n        /* \"#utility.yul\":8492:8501   */\n      dup4\n        /* \"#utility.yul\":8483:8490   */\n      dup6\n        /* \"#utility.yul\":8479:8502   */\n      sub\n        /* \"#utility.yul\":8475:8507   */\n      slt\n        /* \"#utility.yul\":8472:8591   */\n      iszero\n      tag_243\n      jumpi\n        /* \"#utility.yul\":8510:8589   */\n      tag_244\n      tag_102\n      jump\t// in\n    tag_244:\n        /* \"#utility.yul\":8472:8591   */\n    tag_243:\n        /* \"#utility.yul\":8658:8659   */\n      0x00\n        /* \"#utility.yul\":8647:8656   */\n      dup4\n        /* \"#utility.yul\":8643:8660   */\n      add\n        /* \"#utility.yul\":8630:8661   */\n      calldataload\n        /* \"#utility.yul\":8688:8706   */\n      0xffffffffffffffff\n        /* \"#utility.yul\":8680:8686   */\n      dup2\n        /* \"#utility.yul\":8677:8707   */\n      gt\n        /* \"#utility.yul\":8674:8791   */\n      iszero\n      tag_245\n      jumpi\n        /* \"#utility.yul\":8710:8789   */\n      tag_246\n      tag_103\n      jump\t// in\n    tag_246:\n        /* \"#utility.yul\":8674:8791   */\n    tag_245:\n        /* \"#utility.yul\":8815:8928   */\n      tag_247\n        /* \"#utility.yul\":8920:8927   */\n      dup6\n        /* \"#utility.yul\":8911:8917   */\n      dup3\n        /* \"#utility.yul\":8900:8909   */\n      dup7\n        /* \"#utility.yul\":8896:8918   */\n      add\n        /* \"#utility.yul\":8815:8928   */\n      tag_120\n      jump\t// in\n    tag_247:\n        /* \"#utility.yul\":8805:8928   */\n      swap3\n      pop\n        /* \"#utility.yul\":8601:8938   */\n      pop\n        /* \"#utility.yul\":9005:9007   */\n      0x20\n        /* \"#utility.yul\":8994:9003   */\n      dup4\n        /* \"#utility.yul\":8990:9008   */\n      add\n        /* \"#utility.yul\":8977:9009   */\n      calldataload\n        /* \"#utility.yul\":9036:9054   */\n      0xffffffffffffffff\n        /* \"#utility.yul\":9028:9034   */\n      dup2\n        /* \"#utility.yul\":9025:9055   */\n      gt\n        /* \"#utility.yul\":9022:9139   */\n      iszero\n      tag_248\n      jumpi\n        /* \"#utility.yul\":9058:9137   */\n      tag_249\n      tag_103\n      jump\t// in\n    tag_249:\n        /* \"#utility.yul\":9022:9139   */\n    tag_248:\n        /* \"#utility.yul\":9163:9276   */\n      tag_250\n        /* \"#utility.yul\":9268:9275   */\n      dup6\n        /* \"#utility.yul\":9259:9265   */\n      dup3\n        /* \"#utility.yul\":9248:9257   */\n      dup7\n        /* \"#utility.yul\":9244:9266   */\n      add\n        /* \"#utility.yul\":9163:9276   */\n      tag_120\n      jump\t// in\n    tag_250:\n        /* \"#utility.yul\":9153:9276   */\n      swap2\n      pop\n        /* \"#utility.yul\":8948:9286   */\n      pop\n        /* \"#utility.yul\":8259:9293   */\n      swap3\n      pop\n      swap3\n      swap1\n      pop\n      jump\t// out\n        /* \"#utility.yul\":9299:9432   */\n    tag_121:\n        /* \"#utility.yul\":9385:9391   */\n      0x00\n        /* \"#utility.yul\":9419:9424   */\n      dup2\n        /* \"#utility.yul\":9413:9425   */\n      mload\n        /* \"#utility.yul\":9403:9425   */\n      swap1\n      pop\n        /* \"#utility.yul\":9299:9432   */\n      swap2\n      swap1\n      pop\n      jump\t// out\n        /* \"#utility.yul\":9438:9641   */\n    tag_122:\n        /* \"#utility.yul\":9556:9567   */\n      0x00\n        /* \"#utility.yul\":9590:9596   */\n      dup3\n        /* \"#utility.yul\":9585:9588   */\n      dup3\n        /* \"#utility.yul\":9578:9597   */\n      mstore\n        /* \"#utility.yul\":9630:9634   */\n      0x20\n        /* \"#utility.yul\":9625:9628   */\n      dup3\n        /* \"#utility.yul\":9621:9635   */\n      add\n        /* \"#utility.yul\":9606:9635   */\n      swap1\n      pop\n        /* \"#utility.yul\":9438:9641   */\n      swap3\n      swap2\n      pop\n      pop\n      jump\t// out\n        /* \"#utility.yul\":9647:9798   */\n    tag_123:\n        /* \"#utility.yul\":9733:9737   */\n      0x00\n        /* \"#utility.yul\":9756:9759   */\n      dup2\n        /* \"#utility.yul\":9748:9759   */\n      swap1\n      pop\n        /* \"#utility.yul\":9786:9790   */\n      0x20\n        /* \"#utility.yul\":9781:9784   */\n      dup3\n        /* \"#utility.yul\":9777:9791   */\n      add\n        /* \"#utility.yul\":9769:9791   */\n      swap1\n      pop\n        /* \"#utility.yul\":9647:9798   */\n      swap2\n      swap1\n      pop\n      jump\t// out\n        /* \"#utility.yul\":9804:9903   */\n    tag_124:\n        /* \"#utility.yul\":9856:9862   */\n      0x00\n        /* \"#utility.yul\":9890:9895   */\n      dup2\n        /* \"#utility.yul\":9884:9896   */\n      mload\n        /* \"#utility.yul\":9874:9896   */\n      swap1\n      pop\n        /* \"#utility.yul\":9804:9903   */\n      swap2\n      swap1\n      pop\n      jump\t// out\n        /* \"#utility.yul\":9909:10068   */\n    tag_125:\n        /* \"#utility.yul\":9983:9994   */\n      0x00\n        /* \"#utility.yul\":10017:10023   */\n      dup3\n        /* \"#utility.yul\":10012:10015   */\n      dup3\n        /* \"#utility.yul\":10005:10024   */\n      mstore\n        /* \"#utility.yul\":10057:10061   */\n      0x20\n        /* \"#utility.yul\":10052:10055   */\n      dup3\n        /* \"#utility.yul\":10048:10062   */\n      add\n        /* \"#utility.yul\":10033:10062   */\n      swap1\n      pop\n        /* \"#utility.yul\":9909:10068   */\n      swap3\n      swap2\n      pop\n      pop\n      jump\t// out\n        /* \"#utility.yul\":10074:10320   */\n    tag_126:\n        /* \"#utility.yul\":10155:10156   */\n      0x00\n        /* \"#utility.yul\":10165:10278   */\n    tag_257:\n        /* \"#utility.yul\":10179:10185   */\n      dup4\n        /* \"#utility.yul\":10176:10177   */\n      dup2\n        /* \"#utility.yul\":10173:10186   */\n      lt\n        /* \"#utility.yul\":10165:10278   */\n      iszero\n      tag_259\n      jumpi\n        /* \"#utility.yul\":10264:10265   */\n      dup1\n        /* \"#utility.yul\":10259:10262   */\n      dup3\n        /* \"#utility.yul\":10255:10266   */\n      add\n        /* \"#utility.yul\":10249:10267   */\n      mload\n        /* \"#utility.yul\":10245:10246   */\n      dup2\n        /* \"#utility.yul\":10240:10243   */\n      dup5\n        /* \"#utility.yul\":10236:10247   */\n      add\n        /* \"#utility.yul\":10229:10268   */\n      mstore\n        /* \"#utility.yul\":10201:10203   */\n      0x20\n        /* \"#utility.yul\":10198:10199   */\n      dup2\n        /* \"#utility.yul\":10194:10204   */\n      add\n        /* \"#utility.yul\":10189:10204   */\n      swap1\n      pop\n        /* \"#utility.yul\":10165:10278   */\n      jump(tag_257)\n    tag_259:\n        /* \"#utility.yul\":10312:10313   */\n      0x00\n        /* \"#utility.yul\":10303:10309   */\n      dup5\n        /* \"#utility.yul\":10298:10301   */\n      dup5\n        /* \"#utility.yul\":10294:10310   */\n      add\n        /* \"#utility.yul\":10287:10314   */\n      mstore\n        /* \"#utility.yul\":10136:10320   */\n      pop\n        /* \"#utility.yul\":10074:10320   */\n      pop\n      pop\n      pop\n      jump\t// out\n        /* \"#utility.yul\":10326:10683   */\n    tag_127:\n        /* \"#utility.yul\":10404:10407   */\n      0x00\n        /* \"#utility.yul\":10432:10471   */\n      tag_261\n        /* \"#utility.yul\":10465:10470   */\n      dup3\n        /* \"#utility.yul\":10432:10471   */\n      tag_124\n      jump\t// in\n    tag_261:\n        /* \"#utility.yul\":10487:10548   */\n      tag_262\n        /* \"#utility.yul\":10541:10547   */\n      dup2\n        /* \"#utility.yul\":10536:10539   */\n      dup6\n        /* \"#utility.yul\":10487:10548   */\n      tag_125\n      jump\t// in\n    tag_262:\n        /* \"#utility.yul\":10480:10548   */\n      swap4\n      pop\n        /* \"#utility.yul\":10557:10622   */\n      tag_263\n        /* \"#utility.yul\":10615:10621   */\n      dup2\n        /* \"#utility.yul\":10610:10613   */\n      dup6\n        /* \"#utility.yul\":10603:10607   */\n      0x20\n        /* \"#utility.yul\":10596:10601   */\n      dup7\n        /* \"#utility.yul\":10592:10608   */\n      add\n        /* \"#utility.yul\":10557:10622   */\n      tag_126\n      jump\t// in\n    tag_263:\n        /* \"#utility.yul\":10647:10676   */\n      tag_264\n        /* \"#utility.yul\":10669:10675   */\n      dup2\n        /* \"#utility.yul\":10647:10676   */\n      tag_106\n      jump\t// in\n    tag_264:\n        /* \"#utility.yul\":10642:10645   */\n      dup5\n        /* \"#utility.yul\":10638:10677   */\n      add\n        /* \"#utility.yul\":10631:10677   */\n      swap2\n      pop\n        /* \"#utility.yul\":10408:10683   */\n      pop\n        /* \"#utility.yul\":10326:10683   */\n      swap3\n      swap2\n      pop\n      pop\n      jump\t// out\n        /* \"#utility.yul\":10723:11646   */\n    tag_128:\n        /* \"#utility.yul\":10820:10823   */\n      0x00\n        /* \"#utility.yul\":10856:10860   */\n      0x60\n        /* \"#utility.yul\":10851:10854   */\n      dup4\n        /* \"#utility.yul\":10847:10861   */\n      add\n        /* \"#utility.yul\":10947:10951   */\n      0x00\n        /* \"#utility.yul\":10940:10945   */\n      dup4\n        /* \"#utility.yul\":10936:10952   */\n      add\n        /* \"#utility.yul\":10930:10953   */\n      mload\n        /* \"#utility.yul\":11000:11003   */\n      dup5\n        /* \"#utility.yul\":10994:10998   */\n      dup3\n        /* \"#utility.yul\":10990:11004   */\n      sub\n        /* \"#utility.yul\":10983:10987   */\n      0x00\n        /* \"#utility.yul\":10978:10981   */\n      dup7\n        /* \"#utility.yul\":10974:10988   */\n      add\n        /* \"#utility.yul\":10967:11005   */\n      mstore\n        /* \"#utility.yul\":11026:11099   */\n      tag_266\n        /* \"#utility.yul\":11094:11098   */\n      dup3\n        /* \"#utility.yul\":11080:11092   */\n      dup3\n        /* \"#utility.yul\":11026:11099   */\n      tag_127\n      jump\t// in\n    tag_266:\n        /* \"#utility.yul\":11018:11099   */\n      swap2\n      pop\n        /* \"#utility.yul\":10871:11110   */\n      pop\n        /* \"#utility.yul\":11203:11207   */\n      0x20\n        /* \"#utility.yul\":11196:11201   */\n      dup4\n        /* \"#utility.yul\":11192:11208   */\n      add\n        /* \"#utility.yul\":11186:11209   */\n      mload\n        /* \"#utility.yul\":11256:11259   */\n      dup5\n        /* \"#utility.yul\":11250:11254   */\n      dup3\n        /* \"#utility.yul\":11246:11260   */\n      sub\n        /* \"#utility.yul\":11239:11243   */\n      0x20\n        /* \"#utility.yul\":11234:11237   */\n      dup7\n        /* \"#utility.yul\":11230:11244   */\n      add\n        /* \"#utility.yul\":11223:11261   */\n      mstore\n        /* \"#utility.yul\":11282:11355   */\n      tag_267\n        /* \"#utility.yul\":11350:11354   */\n      dup3\n        /* \"#utility.yul\":11336:11348   */\n      dup3\n        /* \"#utility.yul\":11282:11355   */\n      tag_127\n      jump\t// in\n    tag_267:\n        /* \"#utility.yul\":11274:11355   */\n      swap2\n      pop\n        /* \"#utility.yul\":11120:11366   */\n      pop\n        /* \"#utility.yul\":11456:11460   */\n      0x40\n        /* \"#utility.yul\":11449:11454   */\n      dup4\n        /* \"#utility.yul\":11445:11461   */\n      add\n        /* \"#utility.yul\":11439:11462   */\n      mload\n        /* \"#utility.yul\":11509:11512   */\n      dup5\n        /* \"#utility.yul\":11503:11507   */\n      dup3\n        /* \"#utility.yul\":11499:11513   */\n      sub\n        /* \"#utility.yul\":11492:11496   */\n      0x40\n        /* \"#utility.yul\":11487:11490   */\n      dup7\n        /* \"#utility.yul\":11483:11497   */\n      add\n        /* \"#utility.yul\":11476:11514   */\n      mstore\n        /* \"#utility.yul\":11535:11608   */\n      tag_268\n        /* \"#utility.yul\":11603:11607   */\n      dup3\n        /* \"#utility.yul\":11589:11601   */\n      dup3\n        /* \"#utility.yul\":11535:11608   */\n      tag_127\n      jump\t// in\n    tag_268:\n        /* \"#utility.yul\":11527:11608   */\n      swap2\n      pop\n        /* \"#utility.yul\":11376:11619   */\n      pop\n        /* \"#utility.yul\":11636:11640   */\n      dup1\n        /* \"#utility.yul\":11629:11640   */\n      swap2\n      pop\n        /* \"#utility.yul\":10825:11646   */\n      pop\n        /* \"#utility.yul\":10723:11646   */\n      swap3\n      swap2\n      pop\n      pop\n      jump\t// out\n        /* \"#utility.yul\":11652:11884   */\n    tag_129:\n        /* \"#utility.yul\":11759:11769   */\n      0x00\n        /* \"#utility.yul\":11794:11878   */\n      tag_270\n        /* \"#utility.yul\":11874:11877   */\n      dup4\n        /* \"#utility.yul\":11866:11872   */\n      dup4\n        /* \"#utility.yul\":11794:11878   */\n      tag_128\n      jump\t// in\n    tag_270:\n        /* \"#utility.yul\":11780:11878   */\n      swap1\n      pop\n        /* \"#utility.yul\":11652:11884   */\n      swap3\n      swap2\n      pop\n      pop\n      jump\t// out\n        /* \"#utility.yul\":11890:12022   */\n    tag_130:\n        /* \"#utility.yul\":11979:11983   */\n      0x00\n        /* \"#utility.yul\":12011:12015   */\n      0x20\n        /* \"#utility.yul\":12006:12009   */\n      dup3\n        /* \"#utility.yul\":12002:12016   */\n      add\n        /* \"#utility.yul\":11994:12016   */\n      swap1\n      pop\n        /* \"#utility.yul\":11890:12022   */\n      swap2\n      swap1\n      pop\n      jump\t// out\n        /* \"#utility.yul\":12066:13129   */\n    tag_131:\n        /* \"#utility.yul\":12223:12226   */\n      0x00\n        /* \"#utility.yul\":12252:12325   */\n      tag_273\n        /* \"#utility.yul\":12319:12324   */\n      dup3\n        /* \"#utility.yul\":12252:12325   */\n      tag_121\n      jump\t// in\n    tag_273:\n        /* \"#utility.yul\":12341:12446   */\n      tag_274\n        /* \"#utility.yul\":12439:12445   */\n      dup2\n        /* \"#utility.yul\":12434:12437   */\n      dup6\n        /* \"#utility.yul\":12341:12446   */\n      tag_122\n      jump\t// in\n    tag_274:\n        /* \"#utility.yul\":12334:12446   */\n      swap4\n      pop\n        /* \"#utility.yul\":12472:12475   */\n      dup4\n        /* \"#utility.yul\":12517:12521   */\n      0x20\n        /* \"#utility.yul\":12509:12515   */\n      dup3\n        /* \"#utility.yul\":12505:12522   */\n      mul\n        /* \"#utility.yul\":12500:12503   */\n      dup6\n        /* \"#utility.yul\":12496:12523   */\n      add\n        /* \"#utility.yul\":12547:12622   */\n      tag_275\n        /* \"#utility.yul\":12616:12621   */\n      dup6\n        /* \"#utility.yul\":12547:12622   */\n      tag_123\n      jump\t// in\n    tag_275:\n        /* \"#utility.yul\":12645:12652   */\n      dup1\n        /* \"#utility.yul\":12676:12677   */\n      0x00\n        /* \"#utility.yul\":12661:13084   */\n    tag_276:\n        /* \"#utility.yul\":12686:12692   */\n      dup6\n        /* \"#utility.yul\":12683:12684   */\n      dup2\n        /* \"#utility.yul\":12680:12693   */\n      lt\n        /* \"#utility.yul\":12661:13084   */\n      iszero\n      tag_278\n      jumpi\n        /* \"#utility.yul\":12757:12766   */\n      dup5\n        /* \"#utility.yul\":12751:12755   */\n      dup5\n        /* \"#utility.yul\":12747:12767   */\n      sub\n        /* \"#utility.yul\":12742:12745   */\n      dup10\n        /* \"#utility.yul\":12735:12768   */\n      mstore\n        /* \"#utility.yul\":12808:12814   */\n      dup2\n        /* \"#utility.yul\":12802:12815   */\n      mload\n        /* \"#utility.yul\":12836:12938   */\n      tag_279\n        /* \"#utility.yul\":12933:12937   */\n      dup6\n        /* \"#utility.yul\":12918:12931   */\n      dup3\n        /* \"#utility.yul\":12836:12938   */\n      tag_129\n      jump\t// in\n    tag_279:\n        /* \"#utility.yul\":12828:12938   */\n      swap5\n      pop\n        /* \"#utility.yul\":12961:13040   */\n      tag_280\n        /* \"#utility.yul\":13033:13039   */\n      dup4\n        /* \"#utility.yul\":12961:13040   */\n      tag_130\n      jump\t// in\n    tag_280:\n        /* \"#utility.yul\":12951:13040   */\n      swap3\n      pop\n        /* \"#utility.yul\":13069:13073   */\n      0x20\n        /* \"#utility.yul\":13064:13067   */\n      dup11\n        /* \"#utility.yul\":13060:13074   */\n      add\n        /* \"#utility.yul\":13053:13074   */\n      swap10\n      pop\n        /* \"#utility.yul\":12721:13084   */\n      pop\n        /* \"#utility.yul\":12708:12709   */\n      0x01\n        /* \"#utility.yul\":12705:12706   */\n      dup2\n        /* \"#utility.yul\":12701:12710   */\n      add\n        /* \"#utility.yul\":12696:12710   */\n      swap1\n      pop\n        /* \"#utility.yul\":12661:13084   */\n      jump(tag_276)\n    tag_278:\n        /* \"#utility.yul\":12665:12679   */\n      pop\n        /* \"#utility.yul\":13100:13104   */\n      dup3\n        /* \"#utility.yul\":13093:13104   */\n      swap8\n      pop\n        /* \"#utility.yul\":13120:13123   */\n      dup8\n        /* \"#utility.yul\":13113:13123   */\n      swap6\n      pop\n        /* \"#utility.yul\":12228:13129   */\n      pop\n      pop\n      pop\n      pop\n      pop\n        /* \"#utility.yul\":12066:13129   */\n      swap3\n      swap2\n      pop\n      pop\n      jump\t// out\n        /* \"#utility.yul\":13135:13273   */\n    tag_132:\n        /* \"#utility.yul\":13226:13232   */\n      0x00\n        /* \"#utility.yul\":13260:13265   */\n      dup2\n        /* \"#utility.yul\":13254:13266   */\n      mload\n        /* \"#utility.yul\":13244:13266   */\n      swap1\n      pop\n        /* \"#utility.yul\":13135:13273   */\n      swap2\n      swap1\n      pop\n      jump\t// out\n        /* \"#utility.yul\":13279:13487   */\n    tag_133:\n        /* \"#utility.yul\":13402:13413   */\n      0x00\n        /* \"#utility.yul\":13436:13442   */\n      dup3\n        /* \"#utility.yul\":13431:13434   */\n      dup3\n        /* \"#utility.yul\":13424:13443   */\n      mstore\n        /* \"#utility.yul\":13476:13480   */\n      0x20\n        /* \"#utility.yul\":13471:13474   */\n      dup3\n        /* \"#utility.yul\":13467:13481   */\n      add\n        /* \"#utility.yul\":13452:13481   */\n      swap1\n      pop\n        /* \"#utility.yul\":13279:13487   */\n      swap3\n      swap2\n      pop\n      pop\n      jump\t// out\n        /* \"#utility.yul\":13493:13649   */\n    tag_134:\n        /* \"#utility.yul\":13584:13588   */\n      0x00\n        /* \"#utility.yul\":13607:13610   */\n      dup2\n        /* \"#utility.yul\":13599:13610   */\n      swap1\n      pop\n        /* \"#utility.yul\":13637:13641   */\n      0x20\n        /* \"#utility.yul\":13632:13635   */\n      dup3\n        /* \"#utility.yul\":13628:13642   */\n      add\n        /* \"#utility.yul\":13620:13642   */\n      swap1\n      pop\n        /* \"#utility.yul\":13493:13649   */\n      swap2\n      swap1\n      pop\n      jump\t// out\n        /* \"#utility.yul\":13697:14642   */\n    tag_135:\n        /* \"#utility.yul\":13804:13807   */\n      0x00\n        /* \"#utility.yul\":13840:13844   */\n      0x60\n        /* \"#utility.yul\":13835:13838   */\n      dup4\n        /* \"#utility.yul\":13831:13845   */\n      add\n        /* \"#utility.yul\":13935:13939   */\n      0x00\n        /* \"#utility.yul\":13928:13933   */\n      dup4\n        /* \"#utility.yul\":13924:13940   */\n      add\n        /* \"#utility.yul\":13918:13941   */\n      mload\n        /* \"#utility.yul\":13988:13991   */\n      dup5\n        /* \"#utility.yul\":13982:13986   */\n      dup3\n        /* \"#utility.yul\":13978:13992   */\n      sub\n        /* \"#utility.yul\":13971:13975   */\n      0x00\n        /* \"#utility.yul\":13966:13969   */\n      dup7\n        /* \"#utility.yul\":13962:13976   */\n      add\n        /* \"#utility.yul\":13955:13993   */\n      mstore\n        /* \"#utility.yul\":14014:14087   */\n      tag_285\n        /* \"#utility.yul\":14082:14086   */\n      dup3\n        /* \"#utility.yul\":14068:14080   */\n      dup3\n        /* \"#utility.yul\":14014:14087   */\n      tag_127\n      jump\t// in\n    tag_285:\n        /* \"#utility.yul\":14006:14087   */\n      swap2\n      pop\n        /* \"#utility.yul\":13855:14098   */\n      pop\n        /* \"#utility.yul\":14195:14199   */\n      0x20\n        /* \"#utility.yul\":14188:14193   */\n      dup4\n        /* \"#utility.yul\":14184:14200   */\n      add\n        /* \"#utility.yul\":14178:14201   */\n      mload\n        /* \"#utility.yul\":14248:14251   */\n      dup5\n        /* \"#utility.yul\":14242:14246   */\n      dup3\n        /* \"#utility.yul\":14238:14252   */\n      sub\n        /* \"#utility.yul\":14231:14235   */\n      0x20\n        /* \"#utility.yul\":14226:14229   */\n      dup7\n        /* \"#utility.yul\":14222:14236   */\n      add\n        /* \"#utility.yul\":14215:14253   */\n      mstore\n        /* \"#utility.yul\":14274:14347   */\n      tag_286\n        /* \"#utility.yul\":14342:14346   */\n      dup3\n        /* \"#utility.yul\":14328:14340   */\n      dup3\n        /* \"#utility.yul\":14274:14347   */\n      tag_127\n      jump\t// in\n    tag_286:\n        /* \"#utility.yul\":14266:14347   */\n      swap2\n      pop\n        /* \"#utility.yul\":14108:14358   */\n      pop\n        /* \"#utility.yul\":14452:14456   */\n      0x40\n        /* \"#utility.yul\":14445:14450   */\n      dup4\n        /* \"#utility.yul\":14441:14457   */\n      add\n        /* \"#utility.yul\":14435:14458   */\n      mload\n        /* \"#utility.yul\":14505:14508   */\n      dup5\n        /* \"#utility.yul\":14499:14503   */\n      dup3\n        /* \"#utility.yul\":14495:14509   */\n      sub\n        /* \"#utility.yul\":14488:14492   */\n      0x40\n        /* \"#utility.yul\":14483:14486   */\n      dup7\n        /* \"#utility.yul\":14479:14493   */\n      add\n        /* \"#utility.yul\":14472:14510   */\n      mstore\n        /* \"#utility.yul\":14531:14604   */\n      tag_287\n        /* \"#utility.yul\":14599:14603   */\n      dup3\n        /* \"#utility.yul\":14585:14597   */\n      dup3\n        /* \"#utility.yul\":14531:14604   */\n      tag_127\n      jump\t// in\n    tag_287:\n        /* \"#utility.yul\":14523:14604   */\n      swap2\n      pop\n        /* \"#utility.yul\":14368:14615   */\n      pop\n        /* \"#utility.yul\":14632:14636   */\n      dup1\n        /* \"#utility.yul\":14625:14636   */\n      swap2\n      pop\n        /* \"#utility.yul\":13809:14642   */\n      pop\n        /* \"#utility.yul\":13697:14642   */\n      swap3\n      swap2\n      pop\n      pop\n      jump\t// out\n        /* \"#utility.yul\":14648:14900   */\n    tag_136:\n        /* \"#utility.yul\":14765:14775   */\n      0x00\n        /* \"#utility.yul\":14800:14894   */\n      tag_289\n        /* \"#utility.yul\":14890:14893   */\n      dup4\n        /* \"#utility.yul\":14882:14888   */\n      dup4\n        /* \"#utility.yul\":14800:14894   */\n      tag_135\n      jump\t// in\n    tag_289:\n        /* \"#utility.yul\":14786:14894   */\n      swap1\n      pop\n        /* \"#utility.yul\":14648:14900   */\n      swap3\n      swap2\n      pop\n      pop\n      jump\t// out\n        /* \"#utility.yul\":14906:15043   */\n    tag_137:\n        /* \"#utility.yul\":15000:15004   */\n      0x00\n        /* \"#utility.yul\":15032:15036   */\n      0x20\n        /* \"#utility.yul\":15027:15030   */\n      dup3\n        /* \"#utility.yul\":15023:15037   */\n      add\n        /* \"#utility.yul\":15015:15037   */\n      swap1\n      pop\n        /* \"#utility.yul\":14906:15043   */\n      swap2\n      swap1\n      pop\n      jump\t// out\n        /* \"#utility.yul\":15095:16198   */\n    tag_138:\n        /* \"#utility.yul\":15262:15265   */\n      0x00\n        /* \"#utility.yul\":15291:15369   */\n      tag_292\n        /* \"#utility.yul\":15363:15368   */\n      dup3\n        /* \"#utility.yul\":15291:15369   */\n      tag_132\n      jump\t// in\n    tag_292:\n        /* \"#utility.yul\":15385:15495   */\n      tag_293\n        /* \"#utility.yul\":15488:15494   */\n      dup2\n        /* \"#utility.yul\":15483:15486   */\n      dup6\n        /* \"#utility.yul\":15385:15495   */\n      tag_133\n      jump\t// in\n    tag_293:\n        /* \"#utility.yul\":15378:15495   */\n      swap4\n      pop\n        /* \"#utility.yul\":15521:15524   */\n      dup4\n        /* \"#utility.yul\":15566:15570   */\n      0x20\n        /* \"#utility.yul\":15558:15564   */\n      dup3\n        /* \"#utility.yul\":15554:15571   */\n      mul\n        /* \"#utility.yul\":15549:15552   */\n      dup6\n        /* \"#utility.yul\":15545:15572   */\n      add\n        /* \"#utility.yul\":15596:15676   */\n      tag_294\n        /* \"#utility.yul\":15670:15675   */\n      dup6\n        /* \"#utility.yul\":15596:15676   */\n      tag_134\n      jump\t// in\n    tag_294:\n        /* \"#utility.yul\":15699:15706   */\n      dup1\n        /* \"#utility.yul\":15730:15731   */\n      0x00\n        /* \"#utility.yul\":15715:16153   */\n    tag_295:\n        /* \"#utility.yul\":15740:15746   */\n      dup6\n        /* \"#utility.yul\":15737:15738   */\n      dup2\n        /* \"#utility.yul\":15734:15747   */\n      lt\n        /* \"#utility.yul\":15715:16153   */\n      iszero\n      tag_297\n      jumpi\n        /* \"#utility.yul\":15811:15820   */\n      dup5\n        /* \"#utility.yul\":15805:15809   */\n      dup5\n        /* \"#utility.yul\":15801:15821   */\n      sub\n        /* \"#utility.yul\":15796:15799   */\n      dup10\n        /* \"#utility.yul\":15789:15822   */\n      mstore\n        /* \"#utility.yul\":15862:15868   */\n      dup2\n        /* \"#utility.yul\":15856:15869   */\n      mload\n        /* \"#utility.yul\":15890:16002   */\n      tag_298\n        /* \"#utility.yul\":15997:16001   */\n      dup6\n        /* \"#utility.yul\":15982:15995   */\n      dup3\n        /* \"#utility.yul\":15890:16002   */\n      tag_136\n      jump\t// in\n    tag_298:\n        /* \"#utility.yul\":15882:16002   */\n      swap5\n      pop\n        /* \"#utility.yul\":16025:16109   */\n      tag_299\n        /* \"#utility.yul\":16102:16108   */\n      dup4\n        /* \"#utility.yul\":16025:16109   */\n      tag_137\n      jump\t// in\n    tag_299:\n        /* \"#utility.yul\":16015:16109   */\n      swap3\n      pop\n        /* \"#utility.yul\":16138:16142   */\n      0x20\n        /* \"#utility.yul\":16133:16136   */\n      dup11\n        /* \"#utility.yul\":16129:16143   */\n      add\n        /* \"#utility.yul\":16122:16143   */\n      swap10\n      pop\n        /* \"#utility.yul\":15775:16153   */\n      pop\n        /* \"#utility.yul\":15762:15763   */\n      0x01\n        /* \"#utility.yul\":15759:15760   */\n      dup2\n        /* \"#utility.yul\":15755:15764   */\n      add\n        /* \"#utility.yul\":15750:15764   */\n      swap1\n      pop\n        /* \"#utility.yul\":15715:16153   */\n      jump(tag_295)\n    tag_297:\n        /* \"#utility.yul\":15719:15733   */\n      pop\n        /* \"#utility.yul\":16169:16173   */\n      dup3\n        /* \"#utility.yul\":16162:16173   */\n      swap8\n      pop\n        /* \"#utility.yul\":16189:16192   */\n      dup8\n        /* \"#utility.yul\":16182:16192   */\n      swap6\n      pop\n        /* \"#utility.yul\":15267:16198   */\n      pop\n      pop\n      pop\n      pop\n      pop\n        /* \"#utility.yul\":15095:16198   */\n      swap3\n      swap2\n      pop\n      pop\n      jump\t// out\n        /* \"#utility.yul\":16204:17010   */\n    tag_17:\n        /* \"#utility.yul\":16511:16515   */\n      0x00\n        /* \"#utility.yul\":16549:16551   */\n      0x40\n        /* \"#utility.yul\":16538:16547   */\n      dup3\n        /* \"#utility.yul\":16534:16552   */\n      add\n        /* \"#utility.yul\":16526:16552   */\n      swap1\n      pop\n        /* \"#utility.yul\":16598:16607   */\n      dup2\n        /* \"#utility.yul\":16592:16596   */\n      dup2\n        /* \"#utility.yul\":16588:16608   */\n      sub\n        /* \"#utility.yul\":16584:16585   */\n      0x00\n        /* \"#utility.yul\":16573:16582   */\n      dup4\n        /* \"#utility.yul\":16569:16586   */\n      add\n        /* \"#utility.yul\":16562:16609   */\n      mstore\n        /* \"#utility.yul\":16626:16772   */\n      tag_301\n        /* \"#utility.yul\":16767:16771   */\n      dup2\n        /* \"#utility.yul\":16758:16764   */\n      dup6\n        /* \"#utility.yul\":16626:16772   */\n      tag_131\n      jump\t// in\n    tag_301:\n        /* \"#utility.yul\":16618:16772   */\n      swap1\n      pop\n        /* \"#utility.yul\":16819:16828   */\n      dup2\n        /* \"#utility.yul\":16813:16817   */\n      dup2\n        /* \"#utility.yul\":16809:16829   */\n      sub\n        /* \"#utility.yul\":16804:16806   */\n      0x20\n        /* \"#utility.yul\":16793:16802   */\n      dup4\n        /* \"#utility.yul\":16789:16807   */\n      add\n        /* \"#utility.yul\":16782:16830   */\n      mstore\n        /* \"#utility.yul\":16847:17003   */\n      tag_302\n        /* \"#utility.yul\":16998:17002   */\n      dup2\n        /* \"#utility.yul\":16989:16995   */\n      dup5\n        /* \"#utility.yul\":16847:17003   */\n      tag_138\n      jump\t// in\n    tag_302:\n        /* \"#utility.yul\":16839:17003   */\n      swap1\n      pop\n        /* \"#utility.yul\":16204:17010   */\n      swap4\n      swap3\n      pop\n      pop\n      pop\n      jump\t// out\n        /* \"#utility.yul\":17016:17196   */\n    tag_25:\n        /* \"#utility.yul\":17064:17141   */\n      0x4e487b7100000000000000000000000000000000000000000000000000000000\n        /* \"#utility.yul\":17061:17062   */\n      0x00\n        /* \"#utility.yul\":17054:17142   */\n      mstore\n        /* \"#utility.yul\":17161:17165   */\n      0x32\n        /* \"#utility.yul\":17158:17159   */\n      0x04\n        /* \"#utility.yul\":17151:17166   */\n      mstore\n        /* \"#utility.yul\":17185:17189   */\n      0x24\n        /* \"#utility.yul\":17182:17183   */\n      0x00\n        /* \"#utility.yul\":17175:17190   */\n      revert\n        /* \"#utility.yul\":17202:17382   */\n    tag_139:\n        /* \"#utility.yul\":17250:17327   */\n      0x4e487b7100000000000000000000000000000000000000000000000000000000\n        /* \"#utility.yul\":17247:17248   */\n      0x00\n        /* \"#utility.yul\":17240:17328   */\n      mstore\n        /* \"#utility.yul\":17347:17351   */\n      0x22\n        /* \"#utility.yul\":17344:17345   */\n      0x04\n        /* \"#utility.yul\":17337:17352   */\n      mstore\n        /* \"#utility.yul\":17371:17375   */\n      0x24\n        /* \"#utility.yul\":17368:17369   */\n      0x00\n        /* \"#utility.yul\":17361:17376   */\n      revert\n        /* \"#utility.yul\":17388:17708   */\n    tag_68:\n        /* \"#utility.yul\":17432:17438   */\n      0x00\n        /* \"#utility.yul\":17469:17470   */\n      0x02\n        /* \"#utility.yul\":17463:17467   */\n      dup3\n        /* \"#utility.yul\":17459:17471   */\n      div\n        /* \"#utility.yul\":17449:17471   */\n      swap1\n      pop\n        /* \"#utility.yul\":17516:17517   */\n      0x01\n        /* \"#utility.yul\":17510:17514   */\n      dup3\n        /* \"#utility.yul\":17506:17518   */\n      and\n        /* \"#utility.yul\":17537:17555   */\n      dup1\n        /* \"#utility.yul\":17527:17608   */\n      tag_306\n      jumpi\n        /* \"#utility.yul\":17593:17597   */\n      0x7f\n        /* \"#utility.yul\":17585:17591   */\n      dup3\n        /* \"#utility.yul\":17581:17598   */\n      and\n        /* \"#utility.yul\":17571:17598   */\n      swap2\n      pop\n        /* \"#utility.yul\":17527:17608   */\n    tag_306:\n        /* \"#utility.yul\":17655:17657   */\n      0x20\n        /* \"#utility.yul\":17647:17653   */\n      dup3\n        /* \"#utility.yul\":17644:17658   */\n      lt\n        /* \"#utility.yul\":17624:17642   */\n      dup2\n        /* \"#utility.yul\":17621:17659   */\n      sub\n        /* \"#utility.yul\":17618:17702   */\n      tag_307\n      jumpi\n        /* \"#utility.yul\":17674:17692   */\n      tag_308\n      tag_139\n      jump\t// in\n    tag_308:\n        /* \"#utility.yul\":17618:17702   */\n    tag_307:\n        /* \"#utility.yul\":17439:17708   */\n      pop\n        /* \"#utility.yul\":17388:17708   */\n      swap2\n      swap1\n      pop\n      jump\t// out\n        /* \"#utility.yul\":17714:17855   */\n    tag_140:\n        /* \"#utility.yul\":17763:17767   */\n      0x00\n        /* \"#utility.yul\":17786:17789   */\n      dup2\n        /* \"#utility.yul\":17778:17789   */\n      swap1\n      pop\n        /* \"#utility.yul\":17809:17812   */\n      dup2\n        /* \"#utility.yul\":17806:17807   */\n      0x00\n        /* \"#utility.yul\":17799:17813   */\n      mstore\n        /* \"#utility.yul\":17843:17847   */\n      0x20\n        /* \"#utility.yul\":17840:17841   */\n      0x00\n        /* \"#utility.yul\":17830:17848   */\n      keccak256\n        /* \"#utility.yul\":17822:17848   */\n      swap1\n      pop\n        /* \"#utility.yul\":17714:17855   */\n      swap2\n      swap1\n      pop\n      jump\t// out\n        /* \"#utility.yul\":17861:17954   */\n    tag_141:\n        /* \"#utility.yul\":17898:17904   */\n      0x00\n        /* \"#utility.yul\":17945:17947   */\n      0x20\n        /* \"#utility.yul\":17940:17942   */\n      0x1f\n        /* \"#utility.yul\":17933:17938   */\n      dup4\n        /* \"#utility.yul\":17929:17943   */\n      add\n        /* \"#utility.yul\":17925:17948   */\n      div\n        /* \"#utility.yul\":17915:17948   */\n      swap1\n      pop\n        /* \"#utility.yul\":17861:17954   */\n      swap2\n      swap1\n      pop\n      jump\t// out\n        /* \"#utility.yul\":17960:18067   */\n    tag_142:\n        /* \"#utility.yul\":18004:18012   */\n      0x00\n        /* \"#utility.yul\":18054:18059   */\n      dup3\n        /* \"#utility.yul\":18048:18052   */\n      dup3\n        /* \"#utility.yul\":18044:18060   */\n      shl\n        /* \"#utility.yul\":18023:18060   */\n      swap1\n      pop\n        /* \"#utility.yul\":17960:18067   */\n      swap3\n      swap2\n      pop\n      pop\n      jump\t// out\n        /* \"#utility.yul\":18073:18466   */\n    tag_143:\n        /* \"#utility.yul\":18142:18148   */\n      0x00\n        /* \"#utility.yul\":18192:18193   */\n      0x08\n        /* \"#utility.yul\":18180:18190   */\n      dup4\n        /* \"#utility.yul\":18176:18194   */\n      mul\n        /* \"#utility.yul\":18215:18312   */\n      tag_313\n        /* \"#utility.yul\":18245:18311   */\n      0xffffffffffffffffffffffffffffffffffffffffffffffffffffffffffffffff\n        /* \"#utility.yul\":18234:18243   */\n      dup3\n        /* \"#utility.yul\":18215:18312   */\n      tag_142\n      jump\t// in\n    tag_313:\n        /* \"#utility.yul\":18333:18372   */\n      tag_314\n        /* \"#utility.yul\":18363:18371   */\n      dup7\n        /* \"#utility.yul\":18352:18361   */\n      dup4\n        /* \"#utility.yul\":18333:18372   */\n      tag_142\n      jump\t// in\n    tag_314:\n        /* \"#utility.yul\":18321:18372   */\n      swap6\n      pop\n        /* \"#utility.yul\":18405:18409   */\n      dup1\n        /* \"#utility.yul\":18401:18410   */\n      not\n        /* \"#utility.yul\":18394:18399   */\n      dup5\n        /* \"#utility.yul\":18390:18411   */\n      and\n        /* \"#utility.yul\":18381:18411   */\n      swap4\n      pop\n        /* \"#utility.yul\":18454:18458   */\n      dup1\n        /* \"#utility.yul\":18444:18452   */\n      dup7\n        /* \"#utility.yul\":18440:18459   */\n      and\n        /* \"#utility.yul\":18433:18438   */\n      dup5\n        /* \"#utility.yul\":18430:18460   */\n      or\n        /* \"#utility.yul\":18420:18460   */\n      swap3\n      pop\n        /* \"#utility.yul\":18149:18466   */\n      pop\n      pop\n        /* \"#utility.yul\":18073:18466   */\n      swap4\n      swap3\n      pop\n      pop\n      pop\n      jump\t// out\n        /* \"#utility.yul\":18472:18549   */\n    tag_144:\n        /* \"#utility.yul\":18509:18516   */\n      0x00\n        /* \"#utility.yul\":18538:18543   */\n      dup2\n        /* \"#utility.yul\":18527:18543   */\n      swap1\n      pop\n        /* \"#utility.yul\":18472:18549   */\n      swap2\n      swap1\n      pop\n      jump\t// out\n        /* \"#utility.yul\":18555:18615   */\n    tag_145:\n        /* \"#utility.yul\":18583:18586   */\n      0x00\n        /* \"#utility.yul\":18604:18609   */\n      dup2\n        /* \"#utility.yul\":18597:18609   */\n      swap1\n      pop\n        /* \"#utility.yul\":18555:18615   */\n      swap2\n      swap1\n      pop\n      jump\t// out\n        /* \"#utility.yul\":18621:18763   */\n    tag_146:\n        /* \"#utility.yul\":18671:18680   */\n      0x00\n        /* \"#utility.yul\":18704:18757   */\n      tag_318\n        /* \"#utility.yul\":18722:18756   */\n      tag_319\n        /* \"#utility.yul\":18731:18755   */\n      tag_320\n        /* \"#utility.yul\":18749:18754   */\n      dup5\n        /* \"#utility.yul\":18731:18755   */\n      tag_144\n      jump\t// in\n    tag_320:\n        /* \"#utility.yul\":18722:18756   */\n      tag_145\n      jump\t// in\n    tag_319:\n        /* \"#utility.yul\":18704:18757   */\n      tag_144\n      jump\t// in\n    tag_318:\n        /* \"#utility.yul\":18691:18757   */\n      swap1\n      pop\n        /* \"#utility.yul\":18621:18763   */\n      swap2\n      swap1\n      pop\n      jump\t// out\n        /* \"#utility.yul\":18769:18844   */\n    tag_147:\n        /* \"#utility.yul\":18812:18815   */\n      0x00\n        /* \"#utility.yul\":18833:18838   */\n      dup2\n        /* \"#utility.yul\":18826:18838   */\n      swap1\n      pop\n        /* \"#utility.yul\":18769:18844   */\n      swap2\n      swap1\n      pop\n      jump\t// out\n        /* \"#utility.yul\":18850:19119   */\n    tag_148:\n        /* \"#utility.yul\":18960:18999   */\n      tag_323\n        /* \"#utility.yul\":18991:18998   */\n      dup4\n        /* \"#utility.yul\":18960:18999   */\n      tag_146\n      jump\t// in\n    tag_323:\n        /* \"#utility.yul\":19021:19112   */\n      tag_324\n        /* \"#utility.yul\":19070:19111   */\n      tag_325\n        /* \"#utility.yul\":19094:19110   */\n      dup3\n        /* \"#utility.yul\":19070:19111   */\n      tag_147\n      jump\t// in\n    tag_325:\n        /* \"#utility.yul\":19062:19068   */\n      dup5\n        /* \"#utility.yul\":19055:19059   */\n      dup5\n        /* \"#utility.yul\":19049:19060   */\n      sload\n        /* \"#utility.yul\":19021:19112   */\n      tag_143\n      jump\t// in\n    tag_324:\n        /* \"#utility.yul\":19015:19019   */\n      dup3\n        /* \"#utility.yul\":19008:19113   */\n      sstore\n        /* \"#utility.yul\":18926:19119   */\n      pop\n        /* \"#utility.yul\":18850:19119   */\n      pop\n      pop\n      pop\n      jump\t// out\n        /* \"#utility.yul\":19125:19198   */\n    tag_149:\n        /* \"#utility.yul\":19170:19173   */\n      0x00\n        /* \"#utility.yul\":19125:19198   */\n      swap1\n      jump\t// out\n        /* \"#utility.yul\":19204:19393   */\n    tag_150:\n        /* \"#utility.yul\":19281:19313   */\n      tag_328\n      tag_149\n      jump\t// in\n    tag_328:\n        /* \"#utility.yul\":19322:19387   */\n      tag_329\n        /* \"#utility.yul\":19380:19386   */\n      dup2\n        /* \"#utility.yul\":19372:19378   */\n      dup5\n        /* \"#utility.yul\":19366:19370   */\n      dup5\n        /* \"#utility.yul\":19322:19387   */\n      tag_148\n      jump\t// in\n    tag_329:\n        /* \"#utility.yul\":19257:19393   */\n      pop\n        /* \"#utility.yul\":19204:19393   */\n      pop\n      pop\n      jump\t// out\n        /* \"#utility.yul\":19399:19585   */\n    tag_151:\n        /* \"#utility.yul\":19459:19579   */\n    tag_331:\n        /* \"#utility.yul\":19476:19479   */\n      dup2\n        /* \"#utility.yul\":19469:19474   */\n      dup2\n        /* \"#utility.yul\":19466:19480   */\n      lt\n        /* \"#utility.yul\":19459:19579   */\n      iszero\n      tag_333\n      jumpi\n        /* \"#utility.yul\":19530:19569   */\n      tag_334\n        /* \"#utility.yul\":19567:19568   */\n      0x00\n        /* \"#utility.yul\":19560:19565   */\n      dup3\n        /* \"#utility.yul\":19530:19569   */\n      tag_150\n      jump\t// in\n    tag_334:\n        /* \"#utility.yul\":19503:19504   */\n      0x01\n        /* \"#utility.yul\":19496:19501   */\n      dup2\n        /* \"#utility.yul\":19492:19505   */\n      add\n        /* \"#utility.yul\":19483:19505   */\n      swap1\n      pop\n        /* \"#utility.yul\":19459:19579   */\n      jump(tag_331)\n    tag_333:\n        /* \"#utility.yul\":19399:19585   */\n      pop\n      pop\n      jump\t// out\n        /* \"#utility.yul\":19591:20134   */\n    tag_152:\n        /* \"#utility.yul\":19692:19694   */\n      0x1f\n        /* \"#utility.yul\":19687:19690   */\n      dup3\n        /* \"#utility.yul\":19684:19695   */\n      gt\n        /* \"#utility.yul\":19681:20127   */\n      iszero\n      tag_336\n      jumpi\n        /* \"#utility.yul\":19726:19764   */\n      tag_337\n        /* \"#utility.yul\":19758:19763   */\n      dup2\n        /* \"#utility.yul\":19726:19764   */\n      tag_140\n      jump\t// in\n    tag_337:\n        /* \"#utility.yul\":19810:19839   */\n      tag_338\n        /* \"#utility.yul\":19828:19838   */\n      dup5\n        /* \"#utility.yul\":19810:19839   */\n      tag_141\n      jump\t// in\n    tag_338:\n        /* \"#utility.yul\":19800:19808   */\n      dup2\n        /* \"#utility.yul\":19796:19840   */\n      add\n        /* \"#utility.yul\":19993:19995   */\n      0x20\n        /* \"#utility.yul\":19981:19991   */\n      dup6\n        /* \"#utility.yul\":19978:19996   */\n      lt\n        /* \"#utility.yul\":19975:20024   */\n      iszero\n      tag_339\n      jumpi\n        /* \"#utility.yul\":20014:20022   */\n      dup2\n        /* \"#utility.yul\":19999:20022   */\n      swap1\n      pop\n        /* \"#utility.yul\":19975:20024   */\n    tag_339:\n        /* \"#utility.yul\":20037:20117   */\n      tag_340\n        /* \"#utility.yul\":20093:20115   */\n      tag_341\n        /* \"#utility.yul\":20111:20114   */\n      dup6\n        /* \"#utility.yul\":20093:20115   */\n      tag_141\n      jump\t// in\n    tag_341:\n        /* \"#utility.yul\":20083:20091   */\n      dup4\n        /* \"#utility.yul\":20079:20116   */\n      add\n        /* \"#utility.yul\":20066:20077   */\n      dup3\n        /* \"#utility.yul\":20037:20117   */\n      tag_151\n      jump\t// in\n    tag_340:\n        /* \"#utility.yul\":19696:20127   */\n      pop\n      pop\n        /* \"#utility.yul\":19681:20127   */\n    tag_336:\n        /* \"#utility.yul\":19591:20134   */\n      pop\n      pop\n      pop\n      jump\t// out\n        /* \"#utility.yul\":20140:20257   */\n    tag_153:\n        /* \"#utility.yul\":20194:20202   */\n      0x00\n        /* \"#utility.yul\":20244:20249   */\n      dup3\n        /* \"#utility.yul\":20238:20242   */\n      dup3\n        /* \"#utility.yul\":20234:20250   */\n      shr\n        /* \"#utility.yul\":20213:20250   */\n      swap1\n      pop\n        /* \"#utility.yul\":20140:20257   */\n      swap3\n      swap2\n      pop\n      pop\n      jump\t// out\n        /* \"#utility.yul\":20263:20432   */\n    tag_154:\n        /* \"#utility.yul\":20307:20313   */\n      0x00\n        /* \"#utility.yul\":20340:20391   */\n      tag_344\n        /* \"#utility.yul\":20388:20389   */\n      0x00\n        /* \"#utility.yul\":20384:20390   */\n      not\n        /* \"#utility.yul\":20376:20381   */\n      dup5\n        /* \"#utility.yul\":20373:20374   */\n      0x08\n        /* \"#utility.yul\":20369:20382   */\n      mul\n        /* \"#utility.yul\":20340:20391   */\n      tag_153\n      jump\t// in\n    tag_344:\n        /* \"#utility.yul\":20336:20392   */\n      not\n        /* \"#utility.yul\":20421:20425   */\n      dup1\n        /* \"#utility.yul\":20415:20419   */\n      dup4\n        /* \"#utility.yul\":20411:20426   */\n      and\n        /* \"#utility.yul\":20401:20426   */\n      swap2\n      pop\n        /* \"#utility.yul\":20314:20432   */\n      pop\n        /* \"#utility.yul\":20263:20432   */\n      swap3\n      swap2\n      pop\n      pop\n      jump\t// out\n        /* \"#utility.yul\":20437:20732   */\n    tag_155:\n        /* \"#utility.yul\":20513:20517   */\n      0x00\n        /* \"#utility.yul\":20659:20688   */\n      tag_346\n        /* \"#utility.yul\":20684:20687   */\n      dup4\n        /* \"#utility.yul\":20678:20682   */\n      dup4\n        /* \"#utility.yul\":20659:20688   */\n      tag_154\n      jump\t// in\n    tag_346:\n        /* \"#utility.yul\":20651:20688   */\n      swap2\n      pop\n        /* \"#utility.yul\":20721:20724   */\n      dup3\n        /* \"#utility.yul\":20718:20719   */\n      0x02\n        /* \"#utility.yul\":20714:20725   */\n      mul\n        /* \"#utility.yul\":20708:20712   */\n      dup3\n        /* \"#utility.yul\":20705:20726   */\n      or\n        /* \"#utility.yul\":20697:20726   */\n      swap1\n      pop\n        /* \"#utility.yul\":20437:20732   */\n      swap3\n      swap2\n      pop\n      pop\n      jump\t// out\n        /* \"#utility.yul\":20737:22132   */\n    tag_38:\n        /* \"#utility.yul\":20854:20891   */\n      tag_348\n        /* \"#utility.yul\":20887:20890   */\n      dup3\n        /* \"#utility.yul\":20854:20891   */\n      tag_124\n      jump\t// in\n    tag_348:\n        /* \"#utility.yul\":20956:20974   */\n      0xffffffffffffffff\n        /* \"#utility.yul\":20948:20954   */\n      dup2\n        /* \"#utility.yul\":20945:20975   */\n      gt\n        /* \"#utility.yul\":20942:20998   */\n      iszero\n      tag_349\n      jumpi\n        /* \"#utility.yul\":20978:20996   */\n      tag_350\n      tag_107\n      jump\t// in\n    tag_350:\n        /* \"#utility.yul\":20942:20998   */\n    tag_349:\n        /* \"#utility.yul\":21022:21060   */\n      tag_351\n        /* \"#utility.yul\":21054:21058   */\n      dup3\n        /* \"#utility.yul\":21048:21059   */\n      sload\n        /* \"#utility.yul\":21022:21060   */\n      tag_68\n      jump\t// in\n    tag_351:\n        /* \"#utility.yul\":21107:21174   */\n      tag_352\n        /* \"#utility.yul\":21167:21173   */\n      dup3\n        /* \"#utility.yul\":21159:21165   */\n      dup3\n        /* \"#utility.yul\":21153:21157   */\n      dup6\n        /* \"#utility.yul\":21107:21174   */\n      tag_152\n      jump\t// in\n    tag_352:\n        /* \"#utility.yul\":21201:21202   */\n      0x00\n        /* \"#utility.yul\":21225:21229   */\n      0x20\n        /* \"#utility.yul\":21212:21229   */\n      swap1\n      pop\n        /* \"#utility.yul\":21257:21259   */\n      0x1f\n        /* \"#utility.yul\":21249:21255   */\n      dup4\n        /* \"#utility.yul\":21246:21260   */\n      gt\n        /* \"#utility.yul\":21274:21275   */\n      0x01\n        /* \"#utility.yul\":21269:21887   */\n      dup2\n      eq\n      tag_354\n      jumpi\n        /* \"#utility.yul\":21931:21932   */\n      0x00\n        /* \"#utility.yul\":21948:21954   */\n      dup5\n        /* \"#utility.yul\":21945:22022   */\n      iszero\n      tag_355\n      jumpi\n        /* \"#utility.yul\":21997:22006   */\n      dup3\n        /* \"#utility.yul\":21992:21995   */\n      dup8\n        /* \"#utility.yul\":21988:22007   */\n      add\n        /* \"#utility.yul\":21982:22008   */\n      mload\n        /* \"#utility.yul\":21973:22008   */\n      swap1\n      pop\n        /* \"#utility.yul\":21945:22022   */\n    tag_355:\n        /* \"#utility.yul\":22048:22115   */\n      tag_356\n        /* \"#utility.yul\":22108:22114   */\n      dup6\n        /* \"#utility.yul\":22101:22106   */\n      dup3\n        /* \"#utility.yul\":22048:22115   */\n      tag_155\n      jump\t// in\n    tag_356:\n        /* \"#utility.yul\":22042:22046   */\n      dup7\n        /* \"#utility.yul\":22035:22116   */\n      sstore\n        /* \"#utility.yul\":21904:22126   */\n      pop\n        /* \"#utility.yul\":21239:22126   */\n      jump(tag_353)\n        /* \"#utility.yul\":21269:21887   */\n    tag_354:\n        /* \"#utility.yul\":21321:21325   */\n      0x1f\n        /* \"#utility.yul\":21317:21326   */\n      not\n        /* \"#utility.yul\":21309:21315   */\n      dup5\n        /* \"#utility.yul\":21305:21327   */\n      and\n        /* \"#utility.yul\":21355:21392   */\n      tag_357\n        /* \"#utility.yul\":21387:21391   */\n      dup7\n        /* \"#utility.yul\":21355:21392   */\n      tag_140\n      jump\t// in\n    tag_357:\n        /* \"#utility.yul\":21414:21415   */\n      0x00\n        /* \"#utility.yul\":21428:21636   */\n    tag_358:\n        /* \"#utility.yul\":21442:21449   */\n      dup3\n        /* \"#utility.yul\":21439:21440   */\n      dup2\n        /* \"#utility.yul\":21436:21450   */\n      lt\n        /* \"#utility.yul\":21428:21636   */\n      iszero\n      tag_360\n      jumpi\n        /* \"#utility.yul\":21521:21530   */\n      dup5\n        /* \"#utility.yul\":21516:21519   */\n      dup10\n        /* \"#utility.yul\":21512:21531   */\n      add\n        /* \"#utility.yul\":21506:21532   */\n      mload\n        /* \"#utility.yul\":21498:21504   */\n      dup3\n        /* \"#utility.yul\":21491:21533   */\n      sstore\n        /* \"#utility.yul\":21572:21573   */\n      0x01\n        /* \"#utility.yul\":21564:21570   */\n      dup3\n        /* \"#utility.yul\":21560:21574   */\n      add\n        /* \"#utility.yul\":21550:21574   */\n      swap2\n      pop\n        /* \"#utility.yul\":21619:21621   */\n      0x20\n        /* \"#utility.yul\":21608:21617   */\n      dup6\n        /* \"#utility.yul\":21604:21622   */\n      add\n        /* \"#utility.yul\":21591:21622   */\n      swap5\n      pop\n        /* \"#utility.yul\":21465:21469   */\n      0x20\n        /* \"#utility.yul\":21462:21463   */\n      dup2\n        /* \"#utility.yul\":21458:21470   */\n      add\n        /* \"#utility.yul\":21453:21470   */\n      swap1\n      pop\n        /* \"#utility.yul\":21428:21636   */\n      jump(tag_358)\n    tag_360:\n        /* \"#utility.yul\":21664:21670   */\n      dup7\n        /* \"#utility.yul\":21655:21662   */\n      dup4\n        /* \"#utility.yul\":21652:21671   */\n      lt\n        /* \"#utility.yul\":21649:21828   */\n      iszero\n      tag_361\n      jumpi\n        /* \"#utility.yul\":21722:21731   */\n      dup5\n        /* \"#utility.yul\":21717:21720   */\n      dup10\n        /* \"#utility.yul\":21713:21732   */\n      add\n        /* \"#utility.yul\":21707:21733   */\n      mload\n        /* \"#utility.yul\":21765:21813   */\n      tag_362\n        /* \"#utility.yul\":21807:21811   */\n      0x1f\n        /* \"#utility.yul\":21799:21805   */\n      dup10\n        /* \"#utility.yul\":21795:21812   */\n      and\n        /* \"#utility.yul\":21784:21793   */\n      dup3\n        /* \"#utility.yul\":21765:21813   */\n      tag_154\n      jump\t// in\n    tag_362:\n        /* \"#utility.yul\":21757:21763   */\n      dup4\n        /* \"#utility.yul\":21750:21814   */\n      sstore\n        /* \"#utility.yul\":21672:21828   */\n      pop\n        /* \"#utility.yul\":21649:21828   */\n    tag_361:\n        /* \"#utility.yul\":21874:21875   */\n      0x01\n        /* \"#utility.yul\":21870:21871   */\n      0x02\n        /* \"#utility.yul\":21862:21868   */\n      dup9\n        /* \"#utility.yul\":21858:21872   */\n      mul\n        /* \"#utility.yul\":21854:21876   */\n      add\n        /* \"#utility.yul\":21848:21852   */\n      dup9\n        /* \"#utility.yul\":21841:21877   */\n      sstore\n        /* \"#utility.yul\":21276:21887   */\n      pop\n      pop\n      pop\n        /* \"#utility.yul\":21239:22126   */\n    tag_353:\n      pop\n        /* \"#utility.yul\":20829:22132   */\n      pop\n      pop\n      pop\n        /* \"#utility.yul\":20737:22132   */\n      pop\n      pop\n      jump\t// out\n        /* \"#utility.yul\":22138:22318   */\n    tag_156:\n        /* \"#utility.yul\":22186:22263   */\n      0x4e487b7100000000000000000000000000000000000000000000000000000000\n        /* \"#utility.yul\":22183:22184   */\n      0x00\n        /* \"#utility.yul\":22176:22264   */\n      mstore\n        /* \"#utility.yul\":22283:22287   */\n      0x11\n        /* \"#utility.yul\":22280:22281   */\n      0x04\n        /* \"#utility.yul\":22273:22288   */\n      mstore\n        /* \"#utility.yul\":22307:22311   */\n      0x24\n        /* \"#utility.yul\":22304:22305   */\n      0x00\n        /* \"#utility.yul\":22297:22312   */\n      revert\n        /* \"#utility.yul\":22324:22557   */\n    tag_42:\n        /* \"#utility.yul\":22363:22366   */\n      0x00\n        /* \"#utility.yul\":22386:22410   */\n      tag_365\n        /* \"#utility.yul\":22404:22409   */\n      dup3\n        /* \"#utility.yul\":22386:22410   */\n      tag_144\n      jump\t// in\n    tag_365:\n        /* \"#utility.yul\":22377:22410   */\n      swap2\n      pop\n        /* \"#utility.yul\":22432:22498   */\n      0xffffffffffffffffffffffffffffffffffffffffffffffffffffffffffffffff\n        /* \"#utility.yul\":22425:22430   */\n      dup3\n        /* \"#utility.yul\":22422:22499   */\n      sub\n        /* \"#utility.yul\":22419:22522   */\n      tag_366\n      jumpi\n        /* \"#utility.yul\":22502:22520   */\n      tag_367\n      tag_156\n      jump\t// in\n    tag_367:\n        /* \"#utility.yul\":22419:22522   */\n    tag_366:\n        /* \"#utility.yul\":22549:22550   */\n      0x01\n        /* \"#utility.yul\":22542:22547   */\n      dup3\n        /* \"#utility.yul\":22538:22551   */\n      add\n        /* \"#utility.yul\":22531:22551   */\n      swap1\n      pop\n        /* \"#utility.yul\":22324:22557   */\n      swap2\n      swap1\n      pop\n      jump\t// out\n\n    auxdata: 0xa2646970667358221220825496c7b12500c3e9692e305a7388e9d903bef4df19dbccd6f5fa797893128264736f6c63430008120033\n}\n",
				"bytecode": {
					"linkReferences": {},
					"object": "608060405234801561001057600080fd5b506112cb806100206000396000f3fe608060405234801561001057600080fd5b50600436106100415760003560e01c8063652bc308146100465780637576a97914610062578063816343171461007e575b600080fd5b610060600480360381019061005b9190610a92565b61009d565b005b61007c60048036038101906100779190610b99565b6100a4565b005b610086610344565b604051610094929190610ed0565b60405180910390f35b5050505050565b60005b825181116101f157600060405180606001604052808584815181106100cf576100ce610f07565b5b60200260200101516000815181106100ea576100e9610f07565b5b6020026020010151815260200185848151811061010a57610109610f07565b5b602002602001015160018151811061012557610124610f07565b5b6020026020010151815260200185848151811061014557610144610f07565b5b60200260200101516002815181106101605761015f610f07565b5b60200260200101518152509050600081908060018154018082558091505060019003906000526020600020906003020160009091909190915060008201518160000190816101ae919061114c565b5060208201518160010190816101c4919061114c565b5060408201518160020190816101da919061114c565b5050505080806101e99061124d565b9150506100a7565b5060005b8151811161033f576000604051806060016040528084848151811061021d5761021c610f07565b5b602002602001015160008151811061023857610237610f07565b5b6020026020010151815260200184848151811061025857610257610f07565b5b602002602001015160018151811061027357610272610f07565b5b6020026020010151815260200184848151811061029357610292610f07565b5b60200260200101516002815181106102ae576102ad610f07565b5b60200260200101518152509050600181908060018154018082558091505060019003906000526020600020906003020160009091909190915060008201518160000190816102fc919061114c565b506020820151816001019081610312919061114c565b506040820151816002019081610328919061114c565b5050505080806103379061124d565b9150506101f5565b505050565b6060806000600181805480602002602001604051908101604052809291908181526020016000905b82821015610554578382906000526020600020906003020160405180606001604052908160008201805461039f90610f65565b80601f01602080910402602001604051908101604052809291908181526020018280546103cb90610f65565b80156104185780601f106103ed57610100808354040283529160200191610418565b820191906000526020600020905b8154815290600101906020018083116103fb57829003601f168201915b5050505050815260200160018201805461043190610f65565b80601f016020809104026020016040519081016040528092919081815260200182805461045d90610f65565b80156104aa5780601f1061047f576101008083540402835291602001916104aa565b820191906000526020600020905b81548152906001019060200180831161048d57829003601f168201915b505050505081526020016002820180546104c390610f65565b80601f01602080910402602001604051908101604052809291908181526020018280546104ef90610f65565b801561053c5780601f106105115761010080835404028352916020019161053c565b820191906000526020600020905b81548152906001019060200180831161051f57829003601f168201915b5050505050815250508152602001906001019061036c565b50505050915080805480602002602001604051908101604052809291908181526020016000905b8282101561076357838290600052602060002090600302016040518060600160405290816000820180546105ae90610f65565b80601f01602080910402602001604051908101604052809291908181526020018280546105da90610f65565b80156106275780601f106105fc57610100808354040283529160200191610627565b820191906000526020600020905b81548152906001019060200180831161060a57829003601f168201915b5050505050815260200160018201805461064090610f65565b80601f016020809104026020016040519081016040528092919081815260200182805461066c90610f65565b80156106b95780601f1061068e576101008083540402835291602001916106b9565b820191906000526020600020905b81548152906001019060200180831161069c57829003601f168201915b505050505081526020016002820180546106d290610f65565b80601f01602080910402602001604051908101604052809291908181526020018280546106fe90610f65565b801561074b5780601f106107205761010080835404028352916020019161074b565b820191906000526020600020905b81548152906001019060200180831161072e57829003601f168201915b5050505050815250508152602001906001019061057b565b505050509050915091509091565b6000604051905090565b600080fd5b600080fd5b600080fd5b600080fd5b6000601f19601f8301169050919050565b7f4e487b7100000000000000000000000000000000000000000000000000000000600052604160045260246000fd5b6107d88261078f565b810181811067ffffffffffffffff821117156107f7576107f66107a0565b5b80604052505050565b600061080a610771565b905061081682826107cf565b919050565b600067ffffffffffffffff821115610836576108356107a0565b5b61083f8261078f565b9050602081019050919050565b82818337600083830152505050565b600061086e6108698461081b565b610800565b90508281526020810184848401111561088a5761088961078a565b5b61089584828561084c565b509392505050565b600082601f8301126108b2576108b1610785565b5b81356108c284826020860161085b565b91505092915050565b600067ffffffffffffffff8211156108e6576108e56107a0565b5b602082029050602081019050919050565b600080fd5b600067ffffffffffffffff821115610917576109166107a0565b5b602082029050602081019050919050565b600061093b610936846108fc565b610800565b9050808382526020820190506020840283018581111561095e5761095d6108f7565b5b835b818110156109a557803567ffffffffffffffff81111561098357610982610785565b5b808601610990898261089d565b85526020850194505050602081019050610960565b5050509392505050565b600082601f8301126109c4576109c3610785565b5b81356109d4848260208601610928565b91505092915050565b60006109f06109eb846108cb565b610800565b90508083825260208201905060208402830185811115610a1357610a126108f7565b5b835b81811015610a5a57803567ffffffffffffffff811115610a3857610a37610785565b5b808601610a4589826109af565b85526020850194505050602081019050610a15565b5050509392505050565b600082601f830112610a7957610a78610785565b5b8135610a898482602086016109dd565b91505092915050565b600080600080600060a08688031215610aae57610aad61077b565b5b600086013567ffffffffffffffff811115610acc57610acb610780565b5b610ad88882890161089d565b955050602086013567ffffffffffffffff811115610af957610af8610780565b5b610b058882890161089d565b945050604086013567ffffffffffffffff811115610b2657610b25610780565b5b610b328882890161089d565b935050606086013567ffffffffffffffff811115610b5357610b52610780565b5b610b5f88828901610a64565b925050608086013567ffffffffffffffff811115610b8057610b7f610780565b5b610b8c88828901610a64565b9150509295509295909350565b60008060408385031215610bb057610baf61077b565b5b600083013567ffffffffffffffff811115610bce57610bcd610780565b5b610bda85828601610a64565b925050602083013567ffffffffffffffff811115610bfb57610bfa610780565b5b610c0785828601610a64565b9150509250929050565b600081519050919050565b600082825260208201905092915050565b6000819050602082019050919050565b600081519050919050565b600082825260208201905092915050565b60005b83811015610c77578082015181840152602081019050610c5c565b60008484015250505050565b6000610c8e82610c3d565b610c988185610c48565b9350610ca8818560208601610c59565b610cb18161078f565b840191505092915050565b60006060830160008301518482036000860152610cd98282610c83565b91505060208301518482036020860152610cf38282610c83565b91505060408301518482036040860152610d0d8282610c83565b9150508091505092915050565b6000610d268383610cbc565b905092915050565b6000602082019050919050565b6000610d4682610c11565b610d508185610c1c565b935083602082028501610d6285610c2d565b8060005b85811015610d9e5784840389528151610d7f8582610d1a565b9450610d8a83610d2e565b925060208a01995050600181019050610d66565b50829750879550505050505092915050565b600081519050919050565b600082825260208201905092915050565b6000819050602082019050919050565b60006060830160008301518482036000860152610df98282610c83565b91505060208301518482036020860152610e138282610c83565b91505060408301518482036040860152610e2d8282610c83565b9150508091505092915050565b6000610e468383610ddc565b905092915050565b6000602082019050919050565b6000610e6682610db0565b610e708185610dbb565b935083602082028501610e8285610dcc565b8060005b85811015610ebe5784840389528151610e9f8582610e3a565b9450610eaa83610e4e565b925060208a01995050600181019050610e86565b50829750879550505050505092915050565b60006040820190508181036000830152610eea8185610d3b565b90508181036020830152610efe8184610e5b565b90509392505050565b7f4e487b7100000000000000000000000000000000000000000000000000000000600052603260045260246000fd5b7f4e487b7100000000000000000000000000000000000000000000000000000000600052602260045260246000fd5b60006002820490506001821680610f7d57607f821691505b602082108103610f9057610f8f610f36565b5b50919050565b60008190508160005260206000209050919050565b60006020601f8301049050919050565b600082821b905092915050565b600060088302610ff87fffffffffffffffffffffffffffffffffffffffffffffffffffffffffffffffff82610fbb565b6110028683610fbb565b95508019841693508086168417925050509392505050565b6000819050919050565b6000819050919050565b600061104961104461103f8461101a565b611024565b61101a565b9050919050565b6000819050919050565b6110638361102e565b61107761106f82611050565b848454610fc8565b825550505050565b600090565b61108c61107f565b61109781848461105a565b505050565b5b818110156110bb576110b0600082611084565b60018101905061109d565b5050565b601f821115611100576110d181610f96565b6110da84610fab565b810160208510156110e9578190505b6110fd6110f585610fab565b83018261109c565b50505b505050565b600082821c905092915050565b600061112360001984600802611105565b1980831691505092915050565b600061113c8383611112565b9150826002028217905092915050565b61115582610c3d565b67ffffffffffffffff81111561116e5761116d6107a0565b5b6111788254610f65565b6111838282856110bf565b600060209050601f8311600181146111b657600084156111a4578287015190505b6111ae8582611130565b865550611216565b601f1984166111c486610f96565b60005b828110156111ec578489015182556001820191506020850194506020810190506111c7565b868310156112095784890151611205601f891682611112565b8355505b6001600288020188555050505b505050505050565b7f4e487b7100000000000000000000000000000000000000000000000000000000600052601160045260246000fd5b60006112588261101a565b91507fffffffffffffffffffffffffffffffffffffffffffffffffffffffffffffffff820361128a5761128961121e565b5b60018201905091905056fea2646970667358221220825496c7b12500c3e9692e305a7388e9d903bef4df19dbccd6f5fa797893128264736f6c63430008120033",
					"opcodes": "PUSH1 0x80 PUSH1 0x40 MSTORE CALLVALUE DUP1 ISZERO PUSH2 0x10 JUMPI PUSH1 0x0 DUP1 REVERT JUMPDEST POP PUSH2 0x12CB DUP1 PUSH2 0x20 PUSH1 0x0 CODECOPY PUSH1 0x0 RETURN INVALID PUSH1 0x80 PUSH1 0x40 MSTORE CALLVALUE DUP1 ISZERO PUSH2 0x10 JUMPI PUSH1 0x0 DUP1 REVERT JUMPDEST POP PUSH1 0x4 CALLDATASIZE LT PUSH2 0x41 JUMPI PUSH1 0x0 CALLDATALOAD PUSH1 0xE0 SHR DUP1 PUSH4 0x652BC308 EQ PUSH2 0x46 JUMPI DUP1 PUSH4 0x7576A979 EQ PUSH2 0x62 JUMPI DUP1 PUSH4 0x81634317 EQ PUSH2 0x7E JUMPI JUMPDEST PUSH1 0x0 DUP1 REVERT JUMPDEST PUSH2 0x60 PUSH1 0x4 DUP1 CALLDATASIZE SUB DUP2 ADD SWAP1 PUSH2 0x5B SWAP2 SWAP1 PUSH2 0xA92 JUMP JUMPDEST PUSH2 0x9D JUMP JUMPDEST STOP JUMPDEST PUSH2 0x7C PUSH1 0x4 DUP1 CALLDATASIZE SUB DUP2 ADD SWAP1 PUSH2 0x77 SWAP2 SWAP1 PUSH2 0xB99 JUMP JUMPDEST PUSH2 0xA4 JUMP JUMPDEST STOP JUMPDEST PUSH2 0x86 PUSH2 0x344 JUMP JUMPDEST PUSH1 0x40 MLOAD PUSH2 0x94 SWAP3 SWAP2 SWAP1 PUSH2 0xED0 JUMP JUMPDEST PUSH1 0x40 MLOAD DUP1 SWAP2 SUB SWAP1 RETURN JUMPDEST POP POP POP POP POP JUMP JUMPDEST PUSH1 0x0 JUMPDEST DUP3 MLOAD DUP2 GT PUSH2 0x1F1 JUMPI PUSH1 0x0 PUSH1 0x40 MLOAD DUP1 PUSH1 0x60 ADD PUSH1 0x40 MSTORE DUP1 DUP6 DUP5 DUP2 MLOAD DUP2 LT PUSH2 0xCF JUMPI PUSH2 0xCE PUSH2 0xF07 JUMP JUMPDEST JUMPDEST PUSH1 0x20 MUL PUSH1 0x20 ADD ADD MLOAD PUSH1 0x0 DUP2 MLOAD DUP2 LT PUSH2 0xEA JUMPI PUSH2 0xE9 PUSH2 0xF07 JUMP JUMPDEST JUMPDEST PUSH1 0x20 MUL PUSH1 0x20 ADD ADD MLOAD DUP2 MSTORE PUSH1 0x20 ADD DUP6 DUP5 DUP2 MLOAD DUP2 LT PUSH2 0x10A JUMPI PUSH2 0x109 PUSH2 0xF07 JUMP JUMPDEST JUMPDEST PUSH1 0x20 MUL PUSH1 0x20 ADD ADD MLOAD PUSH1 0x1 DUP2 MLOAD DUP2 LT PUSH2 0x125 JUMPI PUSH2 0x124 PUSH2 0xF07 JUMP JUMPDEST JUMPDEST PUSH1 0x20 MUL PUSH1 0x20 ADD ADD MLOAD DUP2 MSTORE PUSH1 0x20 ADD DUP6 DUP5 DUP2 MLOAD DUP2 LT PUSH2 0x145 JUMPI PUSH2 0x144 PUSH2 0xF07 JUMP JUMPDEST JUMPDEST PUSH1 0x20 MUL PUSH1 0x20 ADD ADD MLOAD PUSH1 0x2 DUP2 MLOAD DUP2 LT PUSH2 0x160 JUMPI PUSH2 0x15F PUSH2 0xF07 JUMP JUMPDEST JUMPDEST PUSH1 0x20 MUL PUSH1 0x20 ADD ADD MLOAD DUP2 MSTORE POP SWAP1 POP PUSH1 0x0 DUP2 SWAP1 DUP1 PUSH1 0x1 DUP2 SLOAD ADD DUP1 DUP3 SSTORE DUP1 SWAP2 POP POP PUSH1 0x1 SWAP1 SUB SWAP1 PUSH1 0x0 MSTORE PUSH1 0x20 PUSH1 0x0 KECCAK256 SWAP1 PUSH1 0x3 MUL ADD PUSH1 0x0 SWAP1 SWAP2 SWAP1 SWAP2 SWAP1 SWAP2 POP PUSH1 0x0 DUP3 ADD MLOAD DUP2 PUSH1 0x0 ADD SWAP1 DUP2 PUSH2 0x1AE SWAP2 SWAP1 PUSH2 0x114C JUMP JUMPDEST POP PUSH1 0x20 DUP3 ADD MLOAD DUP2 PUSH1 0x1 ADD SWAP1 DUP2 PUSH2 0x1C4 SWAP2 SWAP1 PUSH2 0x114C JUMP JUMPDEST POP PUSH1 0x40 DUP3 ADD MLOAD DUP2 PUSH1 0x2 ADD SWAP1 DUP2 PUSH2 0x1DA SWAP2 SWAP1 PUSH2 0x114C JUMP JUMPDEST POP POP POP POP DUP1 DUP1 PUSH2 0x1E9 SWAP1 PUSH2 0x124D JUMP JUMPDEST SWAP2 POP POP PUSH2 0xA7 JUMP JUMPDEST POP PUSH1 0x0 JUMPDEST DUP2 MLOAD DUP2 GT PUSH2 0x33F JUMPI PUSH1 0x0 PUSH1 0x40 MLOAD DUP1 PUSH1 0x60 ADD PUSH1 0x40 MSTORE DUP1 DUP5 DUP5 DUP2 MLOAD DUP2 LT PUSH2 0x21D JUMPI PUSH2 0x21C PUSH2 0xF07 JUMP JUMPDEST JUMPDEST PUSH1 0x20 MUL PUSH1 0x20 ADD ADD MLOAD PUSH1 0x0 DUP2 MLOAD DUP2 LT PUSH2 0x238 JUMPI PUSH2 0x237 PUSH2 0xF07 JUMP JUMPDEST JUMPDEST PUSH1 0x20 MUL PUSH1 0x20 ADD ADD MLOAD DUP2 MSTORE PUSH1 0x20 ADD DUP5 DUP5 DUP2 MLOAD DUP2 LT PUSH2 0x258 JUMPI PUSH2 0x257 PUSH2 0xF07 JUMP JUMPDEST JUMPDEST PUSH1 0x20 MUL PUSH1 0x20 ADD ADD MLOAD PUSH1 0x1 DUP2 MLOAD DUP2 LT PUSH2 0x273 JUMPI PUSH2 0x272 PUSH2 0xF07 JUMP JUMPDEST JUMPDEST PUSH1 0x20 MUL PUSH1 0x20 ADD ADD MLOAD DUP2 MSTORE PUSH1 0x20 ADD DUP5 DUP5 DUP2 MLOAD DUP2 LT PUSH2 0x293 JUMPI PUSH2 0x292 PUSH2 0xF07 JUMP JUMPDEST JUMPDEST PUSH1 0x20 MUL PUSH1 0x20 ADD ADD MLOAD PUSH1 0x2 DUP2 MLOAD DUP2 LT PUSH2 0x2AE JUMPI PUSH2 0x2AD PUSH2 0xF07 JUMP JUMPDEST JUMPDEST PUSH1 0x20 MUL PUSH1 0x20 ADD ADD MLOAD DUP2 MSTORE POP SWAP1 POP PUSH1 0x1 DUP2 SWAP1 DUP1 PUSH1 0x1 DUP2 SLOAD ADD DUP1 DUP3 SSTORE DUP1 SWAP2 POP POP PUSH1 0x1 SWAP1 SUB SWAP1 PUSH1 0x0 MSTORE PUSH1 0x20 PUSH1 0x0 KECCAK256 SWAP1 PUSH1 0x3 MUL ADD PUSH1 0x0 SWAP1 SWAP2 SWAP1 SWAP2 SWAP1 SWAP2 POP PUSH1 0x0 DUP3 ADD MLOAD DUP2 PUSH1 0x0 ADD SWAP1 DUP2 PUSH2 0x2FC SWAP2 SWAP1 PUSH2 0x114C JUMP JUMPDEST POP PUSH1 0x20 DUP3 ADD MLOAD DUP2 PUSH1 0x1 ADD SWAP1 DUP2 PUSH2 0x312 SWAP2 SWAP1 PUSH2 0x114C JUMP JUMPDEST POP PUSH1 0x40 DUP3 ADD MLOAD DUP2 PUSH1 0x2 ADD SWAP1 DUP2 PUSH2 0x328 SWAP2 SWAP1 PUSH2 0x114C JUMP JUMPDEST POP POP POP POP DUP1 DUP1 PUSH2 0x337 SWAP1 PUSH2 0x124D JUMP JUMPDEST SWAP2 POP POP PUSH2 0x1F5 JUMP JUMPDEST POP POP POP JUMP JUMPDEST PUSH1 0x60 DUP1 PUSH1 0x0 PUSH1 0x1 DUP2 DUP1 SLOAD DUP1 PUSH1 0x20 MUL PUSH1 0x20 ADD PUSH1 0x40 MLOAD SWAP1 DUP2 ADD PUSH1 0x40 MSTORE DUP1 SWAP3 SWAP2 SWAP1 DUP2 DUP2 MSTORE PUSH1 0x20 ADD PUSH1 0x0 SWAP1 JUMPDEST DUP3 DUP3 LT ISZERO PUSH2 0x554 JUMPI DUP4 DUP3 SWAP1 PUSH1 0x0 MSTORE PUSH1 0x20 PUSH1 0x0 KECCAK256 SWAP1 PUSH1 0x3 MUL ADD PUSH1 0x40 MLOAD DUP1 PUSH1 0x60 ADD PUSH1 0x40 MSTORE SWAP1 DUP2 PUSH1 0x0 DUP3 ADD DUP1 SLOAD PUSH2 0x39F SWAP1 PUSH2 0xF65 JUMP JUMPDEST DUP1 PUSH1 0x1F ADD PUSH1 0x20 DUP1 SWAP2 DIV MUL PUSH1 0x20 ADD PUSH1 0x40 MLOAD SWAP1 DUP2 ADD PUSH1 0x40 MSTORE DUP1 SWAP3 SWAP2 SWAP1 DUP2 DUP2 MSTORE PUSH1 0x20 ADD DUP3 DUP1 SLOAD PUSH2 0x3CB SWAP1 PUSH2 0xF65 JUMP JUMPDEST DUP1 ISZERO PUSH2 0x418 JUMPI DUP1 PUSH1 0x1F LT PUSH2 0x3ED JUMPI PUSH2 0x100 DUP1 DUP4 SLOAD DIV MUL DUP4 MSTORE SWAP2 PUSH1 0x20 ADD SWAP2 PUSH2 0x418 JUMP JUMPDEST DUP3 ADD SWAP2 SWAP1 PUSH1 0x0 MSTORE PUSH1 0x20 PUSH1 0x0 KECCAK256 SWAP1 JUMPDEST DUP2 SLOAD DUP2 MSTORE SWAP1 PUSH1 0x1 ADD SWAP1 PUSH1 0x20 ADD DUP1 DUP4 GT PUSH2 0x3FB JUMPI DUP3 SWAP1 SUB PUSH1 0x1F AND DUP3 ADD SWAP2 JUMPDEST POP POP POP POP POP DUP2 MSTORE PUSH1 0x20 ADD PUSH1 0x1 DUP3 ADD DUP1 SLOAD PUSH2 0x431 SWAP1 PUSH2 0xF65 JUMP JUMPDEST DUP1 PUSH1 0x1F ADD PUSH1 0x20 DUP1 SWAP2 DIV MUL PUSH1 0x20 ADD PUSH1 0x40 MLOAD SWAP1 DUP2 ADD PUSH1 0x40 MSTORE DUP1 SWAP3 SWAP2 SWAP1 DUP2 DUP2 MSTORE PUSH1 0x20 ADD DUP3 DUP1 SLOAD PUSH2 0x45D SWAP1 PUSH2 0xF65 JUMP JUMPDEST DUP1 ISZERO PUSH2 0x4AA JUMPI DUP1 PUSH1 0x1F LT PUSH2 0x47F JUMPI PUSH2 0x100 DUP1 DUP4 SLOAD DIV MUL DUP4 MSTORE SWAP2 PUSH1 0x20 ADD SWAP2 PUSH2 0x4AA JUMP JUMPDEST DUP3 ADD SWAP2 SWAP1 PUSH1 0x0 MSTORE PUSH1 0x20 PUSH1 0x0 KECCAK256 SWAP1 JUMPDEST DUP2 SLOAD DUP2 MSTORE SWAP1 PUSH1 0x1 ADD SWAP1 PUSH1 0x20 ADD DUP1 DUP4 GT PUSH2 0x48D JUMPI DUP3 SWAP1 SUB PUSH1 0x1F AND DUP3 ADD SWAP2 JUMPDEST POP POP POP POP POP DUP2 MSTORE PUSH1 0x20 ADD PUSH1 0x2 DUP3 ADD DUP1 SLOAD PUSH2 0x4C3 SWAP1 PUSH2 0xF65 JUMP JUMPDEST DUP1 PUSH1 0x1F ADD PUSH1 0x20 DUP1 SWAP2 DIV MUL PUSH1 0x20 ADD PUSH1 0x40 MLOAD SWAP1 DUP2 ADD PUSH1 0x40 MSTORE DUP1 SWAP3 SWAP2 SWAP1 DUP2 DUP2 MSTORE PUSH1 0x20 ADD DUP3 DUP1 SLOAD PUSH2 0x4EF SWAP1 PUSH2 0xF65 JUMP JUMPDEST DUP1 ISZERO PUSH2 0x53C JUMPI DUP1 PUSH1 0x1F LT PUSH2 0x511 JUMPI PUSH2 0x100 DUP1 DUP4 SLOAD DIV MUL DUP4 MSTORE SWAP2 PUSH1 0x20 ADD SWAP2 PUSH2 0x53C JUMP JUMPDEST DUP3 ADD SWAP2 SWAP1 PUSH1 0x0 MSTORE PUSH1 0x20 PUSH1 0x0 KECCAK256 SWAP1 JUMPDEST DUP2 SLOAD DUP2 MSTORE SWAP1 PUSH1 0x1 ADD SWAP1 PUSH1 0x20 ADD DUP1 DUP4 GT PUSH2 0x51F JUMPI DUP3 SWAP1 SUB PUSH1 0x1F AND DUP3 ADD SWAP2 JUMPDEST POP POP POP POP POP DUP2 MSTORE POP POP DUP2 MSTORE PUSH1 0x20 ADD SWAP1 PUSH1 0x1 ADD SWAP1 PUSH2 0x36C JUMP JUMPDEST POP POP POP POP SWAP2 POP DUP1 DUP1 SLOAD DUP1 PUSH1 0x20 MUL PUSH1 0x20 ADD PUSH1 0x40 MLOAD SWAP1 DUP2 ADD PUSH1 0x40 MSTORE DUP1 SWAP3 SWAP2 SWAP1 DUP2 DUP2 MSTORE PUSH1 0x20 ADD PUSH1 0x0 SWAP1 JUMPDEST DUP3 DUP3 LT ISZERO PUSH2 0x763 JUMPI DUP4 DUP3 SWAP1 PUSH1 0x0 MSTORE PUSH1 0x20 PUSH1 0x0 KECCAK256 SWAP1 PUSH1 0x3 MUL ADD PUSH1 0x40 MLOAD DUP1 PUSH1 0x60 ADD PUSH1 0x40 MSTORE SWAP1 DUP2 PUSH1 0x0 DUP3 ADD DUP1 SLOAD PUSH2 0x5AE SWAP1 PUSH2 0xF65 JUMP JUMPDEST DUP1 PUSH1 0x1F ADD PUSH1 0x20 DUP1 SWAP2 DIV MUL PUSH1 0x20 ADD PUSH1 0x40 MLOAD SWAP1 DUP2 ADD PUSH1 0x40 MSTORE DUP1 SWAP3 SWAP2 SWAP1 DUP2 DUP2 MSTORE PUSH1 0x20 ADD DUP3 DUP1 SLOAD PUSH2 0x5DA SWAP1 PUSH2 0xF65 JUMP JUMPDEST DUP1 ISZERO PUSH2 0x627 JUMPI DUP1 PUSH1 0x1F LT PUSH2 0x5FC JUMPI PUSH2 0x100 DUP1 DUP4 SLOAD DIV MUL DUP4 MSTORE SWAP2 PUSH1 0x20 ADD SWAP2 PUSH2 0x627 JUMP JUMPDEST DUP3 ADD SWAP2 SWAP1 PUSH1 0x0 MSTORE PUSH1 0x20 PUSH1 0x0 KECCAK256 SWAP1 JUMPDEST DUP2 SLOAD DUP2 MSTORE SWAP1 PUSH1 0x1 ADD SWAP1 PUSH1 0x20 ADD DUP1 DUP4 GT PUSH2 0x60A JUMPI DUP3 SWAP1 SUB PUSH1 0x1F AND DUP3 ADD SWAP2 JUMPDEST POP POP POP POP POP DUP2 MSTORE PUSH1 0x20 ADD PUSH1 0x1 DUP3 ADD DUP1 SLOAD PUSH2 0x640 SWAP1 PUSH2 0xF65 JUMP JUMPDEST DUP1 PUSH1 0x1F ADD PUSH1 0x20 DUP1 SWAP2 DIV MUL PUSH1 0x20 ADD PUSH1 0x40 MLOAD SWAP1 DUP2 ADD PUSH1 0x40 MSTORE DUP1 SWAP3 SWAP2 SWAP1 DUP2 DUP2 MSTORE PUSH1 0x20 ADD DUP3 DUP1 SLOAD PUSH2 0x66C SWAP1 PUSH2 0xF65 JUMP JUMPDEST DUP1 ISZERO PUSH2 0x6B9 JUMPI DUP1 PUSH1 0x1F LT PUSH2 0x68E JUMPI PUSH2 0x100 DUP1 DUP4 SLOAD DIV MUL DUP4 MSTORE SWAP2 PUSH1 0x20 ADD SWAP2 PUSH2 0x6B9 JUMP JUMPDEST DUP3 ADD SWAP2 SWAP1 PUSH1 0x0 MSTORE PUSH1 0x20 PUSH1 0x0 KECCAK256 SWAP1 JUMPDEST DUP2 SLOAD DUP2 MSTORE SWAP1 PUSH1 0x1 ADD SWAP1 PUSH1 0x20 ADD DUP1 DUP4 GT PUSH2 0x69C JUMPI DUP3 SWAP1 SUB PUSH1 0x1F AND DUP3 ADD SWAP2 JUMPDEST POP POP POP POP POP DUP2 MSTORE PUSH1 0x20 ADD PUSH1 0x2 DUP3 ADD DUP1 SLOAD PUSH2 0x6D2 SWAP1 PUSH2 0xF65 JUMP JUMPDEST DUP1 PUSH1 0x1F ADD PUSH1 0x20 DUP1 SWAP2 DIV MUL PUSH1 0x20 ADD PUSH1 0x40 MLOAD SWAP1 DUP2 ADD PUSH1 0x40 MSTORE DUP1 SWAP3 SWAP2 SWAP1 DUP2 DUP2 MSTORE PUSH1 0x20 ADD DUP3 DUP1 SLOAD PUSH2 0x6FE SWAP1 PUSH2 0xF65 JUMP JUMPDEST DUP1 ISZERO PUSH2 0x74B JUMPI DUP1 PUSH1 0x1F LT PUSH2 0x720 JUMPI PUSH2 0x100 DUP1 DUP4 SLOAD DIV MUL DUP4 MSTORE SWAP2 PUSH1 0x20 ADD SWAP2 PUSH2 0x74B JUMP JUMPDEST DUP3 ADD SWAP2 SWAP1 PUSH1 0x0 MSTORE PUSH1 0x20 PUSH1 0x0 KECCAK256 SWAP1 JUMPDEST DUP2 SLOAD DUP2 MSTORE SWAP1 PUSH1 0x1 ADD SWAP1 PUSH1 0x20 ADD DUP1 DUP4 GT PUSH2 0x72E JUMPI DUP3 SWAP1 SUB PUSH1 0x1F AND DUP3 ADD SWAP2 JUMPDEST POP POP POP POP POP DUP2 MSTORE POP POP DUP2 MSTORE PUSH1 0x20 ADD SWAP1 PUSH1 0x1 ADD SWAP1 PUSH2 0x57B JUMP JUMPDEST POP POP POP POP SWAP1 POP SWAP2 POP SWAP2 POP SWAP1 SWAP2 JUMP JUMPDEST PUSH1 0x0 PUSH1 0x40 MLOAD SWAP1 POP SWAP1 JUMP JUMPDEST PUSH1 0x0 DUP1 REVERT JUMPDEST PUSH1 0x0 DUP1 REVERT JUMPDEST PUSH1 0x0 DUP1 REVERT JUMPDEST PUSH1 0x0 DUP1 REVERT JUMPDEST PUSH1 0x0 PUSH1 0x1F NOT PUSH1 0x1F DUP4 ADD AND SWAP1 POP SWAP2 SWAP1 POP JUMP JUMPDEST PUSH32 0x4E487B7100000000000000000000000000000000000000000000000000000000 PUSH1 0x0 MSTORE PUSH1 0x41 PUSH1 0x4 MSTORE PUSH1 0x24 PUSH1 0x0 REVERT JUMPDEST PUSH2 0x7D8 DUP3 PUSH2 0x78F JUMP JUMPDEST DUP2 ADD DUP2 DUP2 LT PUSH8 0xFFFFFFFFFFFFFFFF DUP3 GT OR ISZERO PUSH2 0x7F7 JUMPI PUSH2 0x7F6 PUSH2 0x7A0 JUMP JUMPDEST JUMPDEST DUP1 PUSH1 0x40 MSTORE POP POP POP JUMP JUMPDEST PUSH1 0x0 PUSH2 0x80A PUSH2 0x771 JUMP JUMPDEST SWAP1 POP PUSH2 0x816 DUP3 DUP3 PUSH2 0x7CF JUMP JUMPDEST SWAP2 SWAP1 POP JUMP JUMPDEST PUSH1 0x0 PUSH8 0xFFFFFFFFFFFFFFFF DUP3 GT ISZERO PUSH2 0x836 JUMPI PUSH2 0x835 PUSH2 0x7A0 JUMP JUMPDEST JUMPDEST PUSH2 0x83F DUP3 PUSH2 0x78F JUMP JUMPDEST SWAP1 POP PUSH1 0x20 DUP2 ADD SWAP1 POP SWAP2 SWAP1 POP JUMP JUMPDEST DUP3 DUP2 DUP4 CALLDATACOPY PUSH1 0x0 DUP4 DUP4 ADD MSTORE POP POP POP JUMP JUMPDEST PUSH1 0x0 PUSH2 0x86E PUSH2 0x869 DUP5 PUSH2 0x81B JUMP JUMPDEST PUSH2 0x800 JUMP JUMPDEST SWAP1 POP DUP3 DUP2 MSTORE PUSH1 0x20 DUP2 ADD DUP5 DUP5 DUP5 ADD GT ISZERO PUSH2 0x88A JUMPI PUSH2 0x889 PUSH2 0x78A JUMP JUMPDEST JUMPDEST PUSH2 0x895 DUP5 DUP3 DUP6 PUSH2 0x84C JUMP JUMPDEST POP SWAP4 SWAP3 POP POP POP JUMP JUMPDEST PUSH1 0x0 DUP3 PUSH1 0x1F DUP4 ADD SLT PUSH2 0x8B2 JUMPI PUSH2 0x8B1 PUSH2 0x785 JUMP JUMPDEST JUMPDEST DUP2 CALLDATALOAD PUSH2 0x8C2 DUP5 DUP3 PUSH1 0x20 DUP7 ADD PUSH2 0x85B JUMP JUMPDEST SWAP2 POP POP SWAP3 SWAP2 POP POP JUMP JUMPDEST PUSH1 0x0 PUSH8 0xFFFFFFFFFFFFFFFF DUP3 GT ISZERO PUSH2 0x8E6 JUMPI PUSH2 0x8E5 PUSH2 0x7A0 JUMP JUMPDEST JUMPDEST PUSH1 0x20 DUP3 MUL SWAP1 POP PUSH1 0x20 DUP2 ADD SWAP1 POP SWAP2 SWAP1 POP JUMP JUMPDEST PUSH1 0x0 DUP1 REVERT JUMPDEST PUSH1 0x0 PUSH8 0xFFFFFFFFFFFFFFFF DUP3 GT ISZERO PUSH2 0x917 JUMPI PUSH2 0x916 PUSH2 0x7A0 JUMP JUMPDEST JUMPDEST PUSH1 0x20 DUP3 MUL SWAP1 POP PUSH1 0x20 DUP2 ADD SWAP1 POP SWAP2 SWAP1 POP JUMP JUMPDEST PUSH1 0x0 PUSH2 0x93B PUSH2 0x936 DUP5 PUSH2 0x8FC JUMP JUMPDEST PUSH2 0x800 JUMP JUMPDEST SWAP1 POP DUP1 DUP4 DUP3 MSTORE PUSH1 0x20 DUP3 ADD SWAP1 POP PUSH1 0x20 DUP5 MUL DUP4 ADD DUP6 DUP2 GT ISZERO PUSH2 0x95E JUMPI PUSH2 0x95D PUSH2 0x8F7 JUMP JUMPDEST JUMPDEST DUP4 JUMPDEST DUP2 DUP2 LT ISZERO PUSH2 0x9A5 JUMPI DUP1 CALLDATALOAD PUSH8 0xFFFFFFFFFFFFFFFF DUP2 GT ISZERO PUSH2 0x983 JUMPI PUSH2 0x982 PUSH2 0x785 JUMP JUMPDEST JUMPDEST DUP1 DUP7 ADD PUSH2 0x990 DUP10 DUP3 PUSH2 0x89D JUMP JUMPDEST DUP6 MSTORE PUSH1 0x20 DUP6 ADD SWAP5 POP POP POP PUSH1 0x20 DUP2 ADD SWAP1 POP PUSH2 0x960 JUMP JUMPDEST POP POP POP SWAP4 SWAP3 POP POP POP JUMP JUMPDEST PUSH1 0x0 DUP3 PUSH1 0x1F DUP4 ADD SLT PUSH2 0x9C4 JUMPI PUSH2 0x9C3 PUSH2 0x785 JUMP JUMPDEST JUMPDEST DUP2 CALLDATALOAD PUSH2 0x9D4 DUP5 DUP3 PUSH1 0x20 DUP7 ADD PUSH2 0x928 JUMP JUMPDEST SWAP2 POP POP SWAP3 SWAP2 POP POP JUMP JUMPDEST PUSH1 0x0 PUSH2 0x9F0 PUSH2 0x9EB DUP5 PUSH2 0x8CB JUMP JUMPDEST PUSH2 0x800 JUMP JUMPDEST SWAP1 POP DUP1 DUP4 DUP3 MSTORE PUSH1 0x20 DUP3 ADD SWAP1 POP PUSH1 0x20 DUP5 MUL DUP4 ADD DUP6 DUP2 GT ISZERO PUSH2 0xA13 JUMPI PUSH2 0xA12 PUSH2 0x8F7 JUMP JUMPDEST JUMPDEST DUP4 JUMPDEST DUP2 DUP2 LT ISZERO PUSH2 0xA5A JUMPI DUP1 CALLDATALOAD PUSH8 0xFFFFFFFFFFFFFFFF DUP2 GT ISZERO PUSH2 0xA38 JUMPI PUSH2 0xA37 PUSH2 0x785 JUMP JUMPDEST JUMPDEST DUP1 DUP7 ADD PUSH2 0xA45 DUP10 DUP3 PUSH2 0x9AF JUMP JUMPDEST DUP6 MSTORE PUSH1 0x20 DUP6 ADD SWAP5 POP POP POP PUSH1 0x20 DUP2 ADD SWAP1 POP PUSH2 0xA15 JUMP JUMPDEST POP POP POP SWAP4 SWAP3 POP POP POP JUMP JUMPDEST PUSH1 0x0 DUP3 PUSH1 0x1F DUP4 ADD SLT PUSH2 0xA79 JUMPI PUSH2 0xA78 PUSH2 0x785 JUMP JUMPDEST JUMPDEST DUP2 CALLDATALOAD PUSH2 0xA89 DUP5 DUP3 PUSH1 0x20 DUP7 ADD PUSH2 0x9DD JUMP JUMPDEST SWAP2 POP POP SWAP3 SWAP2 POP POP JUMP JUMPDEST PUSH1 0x0 DUP1 PUSH1 0x0 DUP1 PUSH1 0x0 PUSH1 0xA0 DUP7 DUP9 SUB SLT ISZERO PUSH2 0xAAE JUMPI PUSH2 0xAAD PUSH2 0x77B JUMP JUMPDEST JUMPDEST PUSH1 0x0 DUP7 ADD CALLDATALOAD PUSH8 0xFFFFFFFFFFFFFFFF DUP2 GT ISZERO PUSH2 0xACC JUMPI PUSH2 0xACB PUSH2 0x780 JUMP JUMPDEST JUMPDEST PUSH2 0xAD8 DUP9 DUP3 DUP10 ADD PUSH2 0x89D JUMP JUMPDEST SWAP6 POP POP PUSH1 0x20 DUP7 ADD CALLDATALOAD PUSH8 0xFFFFFFFFFFFFFFFF DUP2 GT ISZERO PUSH2 0xAF9 JUMPI PUSH2 0xAF8 PUSH2 0x780 JUMP JUMPDEST JUMPDEST PUSH2 0xB05 DUP9 DUP3 DUP10 ADD PUSH2 0x89D JUMP JUMPDEST SWAP5 POP POP PUSH1 0x40 DUP7 ADD CALLDATALOAD PUSH8 0xFFFFFFFFFFFFFFFF DUP2 GT ISZERO PUSH2 0xB26 JUMPI PUSH2 0xB25 PUSH2 0x780 JUMP JUMPDEST JUMPDEST PUSH2 0xB32 DUP9 DUP3 DUP10 ADD PUSH2 0x89D JUMP JUMPDEST SWAP4 POP POP PUSH1 0x60 DUP7 ADD CALLDATALOAD PUSH8 0xFFFFFFFFFFFFFFFF DUP2 GT ISZERO PUSH2 0xB53 JUMPI PUSH2 0xB52 PUSH2 0x780 JUMP JUMPDEST JUMPDEST PUSH2 0xB5F DUP9 DUP3 DUP10 ADD PUSH2 0xA64 JUMP JUMPDEST SWAP3 POP POP PUSH1 0x80 DUP7 ADD CALLDATALOAD PUSH8 0xFFFFFFFFFFFFFFFF DUP2 GT ISZERO PUSH2 0xB80 JUMPI PUSH2 0xB7F PUSH2 0x780 JUMP JUMPDEST JUMPDEST PUSH2 0xB8C DUP9 DUP3 DUP10 ADD PUSH2 0xA64 JUMP JUMPDEST SWAP2 POP POP SWAP3 SWAP6 POP SWAP3 SWAP6 SWAP1 SWAP4 POP JUMP JUMPDEST PUSH1 0x0 DUP1 PUSH1 0x40 DUP4 DUP6 SUB SLT ISZERO PUSH2 0xBB0 JUMPI PUSH2 0xBAF PUSH2 0x77B JUMP JUMPDEST JUMPDEST PUSH1 0x0 DUP4 ADD CALLDATALOAD PUSH8 0xFFFFFFFFFFFFFFFF DUP2 GT ISZERO PUSH2 0xBCE JUMPI PUSH2 0xBCD PUSH2 0x780 JUMP JUMPDEST JUMPDEST PUSH2 0xBDA DUP6 DUP3 DUP7 ADD PUSH2 0xA64 JUMP JUMPDEST SWAP3 POP POP PUSH1 0x20 DUP4 ADD CALLDATALOAD PUSH8 0xFFFFFFFFFFFFFFFF DUP2 GT ISZERO PUSH2 0xBFB JUMPI PUSH2 0xBFA PUSH2 0x780 JUMP JUMPDEST JUMPDEST PUSH2 0xC07 DUP6 DUP3 DUP7 ADD PUSH2 0xA64 JUMP JUMPDEST SWAP2 POP POP SWAP3 POP SWAP3 SWAP1 POP JUMP JUMPDEST PUSH1 0x0 DUP2 MLOAD SWAP1 POP SWAP2 SWAP1 POP JUMP JUMPDEST PUSH1 0x0 DUP3 DUP3 MSTORE PUSH1 0x20 DUP3 ADD SWAP1 POP SWAP3 SWAP2 POP POP JUMP JUMPDEST PUSH1 0x0 DUP2 SWAP1 POP PUSH1 0x20 DUP3 ADD SWAP1 POP SWAP2 SWAP1 POP JUMP JUMPDEST PUSH1 0x0 DUP2 MLOAD SWAP1 POP SWAP2 SWAP1 POP JUMP JUMPDEST PUSH1 0x0 DUP3 DUP3 MSTORE PUSH1 0x20 DUP3 ADD SWAP1 POP SWAP3 SWAP2 POP POP JUMP JUMPDEST PUSH1 0x0 JUMPDEST DUP4 DUP2 LT ISZERO PUSH2 0xC77 JUMPI DUP1 DUP3 ADD MLOAD DUP2 DUP5 ADD MSTORE PUSH1 0x20 DUP2 ADD SWAP1 POP PUSH2 0xC5C JUMP JUMPDEST PUSH1 0x0 DUP5 DUP5 ADD MSTORE POP POP POP POP JUMP JUMPDEST PUSH1 0x0 PUSH2 0xC8E DUP3 PUSH2 0xC3D JUMP JUMPDEST PUSH2 0xC98 DUP2 DUP6 PUSH2 0xC48 JUMP JUMPDEST SWAP4 POP PUSH2 0xCA8 DUP2 DUP6 PUSH1 0x20 DUP7 ADD PUSH2 0xC59 JUMP JUMPDEST PUSH2 0xCB1 DUP2 PUSH2 0x78F JUMP JUMPDEST DUP5 ADD SWAP2 POP POP SWAP3 SWAP2 POP POP JUMP JUMPDEST PUSH1 0x0 PUSH1 0x60 DUP4 ADD PUSH1 0x0 DUP4 ADD MLOAD DUP5 DUP3 SUB PUSH1 0x0 DUP7 ADD MSTORE PUSH2 0xCD9 DUP3 DUP3 PUSH2 0xC83 JUMP JUMPDEST SWAP2 POP POP PUSH1 0x20 DUP4 ADD MLOAD DUP5 DUP3 SUB PUSH1 0x20 DUP7 ADD MSTORE PUSH2 0xCF3 DUP3 DUP3 PUSH2 0xC83 JUMP JUMPDEST SWAP2 POP POP PUSH1 0x40 DUP4 ADD MLOAD DUP5 DUP3 SUB PUSH1 0x40 DUP7 ADD MSTORE PUSH2 0xD0D DUP3 DUP3 PUSH2 0xC83 JUMP JUMPDEST SWAP2 POP POP DUP1 SWAP2 POP POP SWAP3 SWAP2 POP POP JUMP JUMPDEST PUSH1 0x0 PUSH2 0xD26 DUP4 DUP4 PUSH2 0xCBC JUMP JUMPDEST SWAP1 POP SWAP3 SWAP2 POP POP JUMP JUMPDEST PUSH1 0x0 PUSH1 0x20 DUP3 ADD SWAP1 POP SWAP2 SWAP1 POP JUMP JUMPDEST PUSH1 0x0 PUSH2 0xD46 DUP3 PUSH2 0xC11 JUMP JUMPDEST PUSH2 0xD50 DUP2 DUP6 PUSH2 0xC1C JUMP JUMPDEST SWAP4 POP DUP4 PUSH1 0x20 DUP3 MUL DUP6 ADD PUSH2 0xD62 DUP6 PUSH2 0xC2D JUMP JUMPDEST DUP1 PUSH1 0x0 JUMPDEST DUP6 DUP2 LT ISZERO PUSH2 0xD9E JUMPI DUP5 DUP5 SUB DUP10 MSTORE DUP2 MLOAD PUSH2 0xD7F DUP6 DUP3 PUSH2 0xD1A JUMP JUMPDEST SWAP5 POP PUSH2 0xD8A DUP4 PUSH2 0xD2E JUMP JUMPDEST SWAP3 POP PUSH1 0x20 DUP11 ADD SWAP10 POP POP PUSH1 0x1 DUP2 ADD SWAP1 POP PUSH2 0xD66 JUMP JUMPDEST POP DUP3 SWAP8 POP DUP8 SWAP6 POP POP POP POP POP POP SWAP3 SWAP2 POP POP JUMP JUMPDEST PUSH1 0x0 DUP2 MLOAD SWAP1 POP SWAP2 SWAP1 POP JUMP JUMPDEST PUSH1 0x0 DUP3 DUP3 MSTORE PUSH1 0x20 DUP3 ADD SWAP1 POP SWAP3 SWAP2 POP POP JUMP JUMPDEST PUSH1 0x0 DUP2 SWAP1 POP PUSH1 0x20 DUP3 ADD SWAP1 POP SWAP2 SWAP1 POP JUMP JUMPDEST PUSH1 0x0 PUSH1 0x60 DUP4 ADD PUSH1 0x0 DUP4 ADD MLOAD DUP5 DUP3 SUB PUSH1 0x0 DUP7 ADD MSTORE PUSH2 0xDF9 DUP3 DUP3 PUSH2 0xC83 JUMP JUMPDEST SWAP2 POP POP PUSH1 0x20 DUP4 ADD MLOAD DUP5 DUP3 SUB PUSH1 0x20 DUP7 ADD MSTORE PUSH2 0xE13 DUP3 DUP3 PUSH2 0xC83 JUMP JUMPDEST SWAP2 POP POP PUSH1 0x40 DUP4 ADD MLOAD DUP5 DUP3 SUB PUSH1 0x40 DUP7 ADD MSTORE PUSH2 0xE2D DUP3 DUP3 PUSH2 0xC83 JUMP JUMPDEST SWAP2 POP POP DUP1 SWAP2 POP POP SWAP3 SWAP2 POP POP JUMP JUMPDEST PUSH1 0x0 PUSH2 0xE46 DUP4 DUP4 PUSH2 0xDDC JUMP JUMPDEST SWAP1 POP SWAP3 SWAP2 POP POP JUMP JUMPDEST PUSH1 0x0 PUSH1 0x20 DUP3 ADD SWAP1 POP SWAP2 SWAP1 POP JUMP JUMPDEST PUSH1 0x0 PUSH2 0xE66 DUP3 PUSH2 0xDB0 JUMP JUMPDEST PUSH2 0xE70 DUP2 DUP6 PUSH2 0xDBB JUMP JUMPDEST SWAP4 POP DUP4 PUSH1 0x20 DUP3 MUL DUP6 ADD PUSH2 0xE82 DUP6 PUSH2 0xDCC JUMP JUMPDEST DUP1 PUSH1 0x0 JUMPDEST DUP6 DUP2 LT ISZERO PUSH2 0xEBE JUMPI DUP5 DUP5 SUB DUP10 MSTORE DUP2 MLOAD PUSH2 0xE9F DUP6 DUP3 PUSH2 0xE3A JUMP JUMPDEST SWAP5 POP PUSH2 0xEAA DUP4 PUSH2 0xE4E JUMP JUMPDEST SWAP3 POP PUSH1 0x20 DUP11 ADD SWAP10 POP POP PUSH1 0x1 DUP2 ADD SWAP1 POP PUSH2 0xE86 JUMP JUMPDEST POP DUP3 SWAP8 POP DUP8 SWAP6 POP POP POP POP POP POP SWAP3 SWAP2 POP POP JUMP JUMPDEST PUSH1 0x0 PUSH1 0x40 DUP3 ADD SWAP1 POP DUP2 DUP2 SUB PUSH1 0x0 DUP4 ADD MSTORE PUSH2 0xEEA DUP2 DUP6 PUSH2 0xD3B JUMP JUMPDEST SWAP1 POP DUP2 DUP2 SUB PUSH1 0x20 DUP4 ADD MSTORE PUSH2 0xEFE DUP2 DUP5 PUSH2 0xE5B JUMP JUMPDEST SWAP1 POP SWAP4 SWAP3 POP POP POP JUMP JUMPDEST PUSH32 0x4E487B7100000000000000000000000000000000000000000000000000000000 PUSH1 0x0 MSTORE PUSH1 0x32 PUSH1 0x4 MSTORE PUSH1 0x24 PUSH1 0x0 REVERT JUMPDEST PUSH32 0x4E487B7100000000000000000000000000000000000000000000000000000000 PUSH1 0x0 MSTORE PUSH1 0x22 PUSH1 0x4 MSTORE PUSH1 0x24 PUSH1 0x0 REVERT JUMPDEST PUSH1 0x0 PUSH1 0x2 DUP3 DIV SWAP1 POP PUSH1 0x1 DUP3 AND DUP1 PUSH2 0xF7D JUMPI PUSH1 0x7F DUP3 AND SWAP2 POP JUMPDEST PUSH1 0x20 DUP3 LT DUP2 SUB PUSH2 0xF90 JUMPI PUSH2 0xF8F PUSH2 0xF36 JUMP JUMPDEST JUMPDEST POP SWAP2 SWAP1 POP JUMP JUMPDEST PUSH1 0x0 DUP2 SWAP1 POP DUP2 PUSH1 0x0 MSTORE PUSH1 0x20 PUSH1 0x0 KECCAK256 SWAP1 POP SWAP2 SWAP1 POP JUMP JUMPDEST PUSH1 0x0 PUSH1 0x20 PUSH1 0x1F DUP4 ADD DIV SWAP1 POP SWAP2 SWAP1 POP JUMP JUMPDEST PUSH1 0x0 DUP3 DUP3 SHL SWAP1 POP SWAP3 SWAP2 POP POP JUMP JUMPDEST PUSH1 0x0 PUSH1 0x8 DUP4 MUL PUSH2 0xFF8 PUSH32 0xFFFFFFFFFFFFFFFFFFFFFFFFFFFFFFFFFFFFFFFFFFFFFFFFFFFFFFFFFFFFFFFF DUP3 PUSH2 0xFBB JUMP JUMPDEST PUSH2 0x1002 DUP7 DUP4 PUSH2 0xFBB JUMP JUMPDEST SWAP6 POP DUP1 NOT DUP5 AND SWAP4 POP DUP1 DUP7 AND DUP5 OR SWAP3 POP POP POP SWAP4 SWAP3 POP POP POP JUMP JUMPDEST PUSH1 0x0 DUP2 SWAP1 POP SWAP2 SWAP1 POP JUMP JUMPDEST PUSH1 0x0 DUP2 SWAP1 POP SWAP2 SWAP1 POP JUMP JUMPDEST PUSH1 0x0 PUSH2 0x1049 PUSH2 0x1044 PUSH2 0x103F DUP5 PUSH2 0x101A JUMP JUMPDEST PUSH2 0x1024 JUMP JUMPDEST PUSH2 0x101A JUMP JUMPDEST SWAP1 POP SWAP2 SWAP1 POP JUMP JUMPDEST PUSH1 0x0 DUP2 SWAP1 POP SWAP2 SWAP1 POP JUMP JUMPDEST PUSH2 0x1063 DUP4 PUSH2 0x102E JUMP JUMPDEST PUSH2 0x1077 PUSH2 0x106F DUP3 PUSH2 0x1050 JUMP JUMPDEST DUP5 DUP5 SLOAD PUSH2 0xFC8 JUMP JUMPDEST DUP3 SSTORE POP POP POP POP JUMP JUMPDEST PUSH1 0x0 SWAP1 JUMP JUMPDEST PUSH2 0x108C PUSH2 0x107F JUMP JUMPDEST PUSH2 0x1097 DUP2 DUP5 DUP5 PUSH2 0x105A JUMP JUMPDEST POP POP POP JUMP JUMPDEST JUMPDEST DUP2 DUP2 LT ISZERO PUSH2 0x10BB JUMPI PUSH2 0x10B0 PUSH1 0x0 DUP3 PUSH2 0x1084 JUMP JUMPDEST PUSH1 0x1 DUP2 ADD SWAP1 POP PUSH2 0x109D JUMP JUMPDEST POP POP JUMP JUMPDEST PUSH1 0x1F DUP3 GT ISZERO PUSH2 0x1100 JUMPI PUSH2 0x10D1 DUP2 PUSH2 0xF96 JUMP JUMPDEST PUSH2 0x10DA DUP5 PUSH2 0xFAB JUMP JUMPDEST DUP2 ADD PUSH1 0x20 DUP6 LT ISZERO PUSH2 0x10E9 JUMPI DUP2 SWAP1 POP JUMPDEST PUSH2 0x10FD PUSH2 0x10F5 DUP6 PUSH2 0xFAB JUMP JUMPDEST DUP4 ADD DUP3 PUSH2 0x109C JUMP JUMPDEST POP POP JUMPDEST POP POP POP JUMP JUMPDEST PUSH1 0x0 DUP3 DUP3 SHR SWAP1 POP SWAP3 SWAP2 POP POP JUMP JUMPDEST PUSH1 0x0 PUSH2 0x1123 PUSH1 0x0 NOT DUP5 PUSH1 0x8 MUL PUSH2 0x1105 JUMP JUMPDEST NOT DUP1 DUP4 AND SWAP2 POP POP SWAP3 SWAP2 POP POP JUMP JUMPDEST PUSH1 0x0 PUSH2 0x113C DUP4 DUP4 PUSH2 0x1112 JUMP JUMPDEST SWAP2 POP DUP3 PUSH1 0x2 MUL DUP3 OR SWAP1 POP SWAP3 SWAP2 POP POP JUMP JUMPDEST PUSH2 0x1155 DUP3 PUSH2 0xC3D JUMP JUMPDEST PUSH8 0xFFFFFFFFFFFFFFFF DUP2 GT ISZERO PUSH2 0x116E JUMPI PUSH2 0x116D PUSH2 0x7A0 JUMP JUMPDEST JUMPDEST PUSH2 0x1178 DUP3 SLOAD PUSH2 0xF65 JUMP JUMPDEST PUSH2 0x1183 DUP3 DUP3 DUP6 PUSH2 0x10BF JUMP JUMPDEST PUSH1 0x0 PUSH1 0x20 SWAP1 POP PUSH1 0x1F DUP4 GT PUSH1 0x1 DUP2 EQ PUSH2 0x11B6 JUMPI PUSH1 0x0 DUP5 ISZERO PUSH2 0x11A4 JUMPI DUP3 DUP8 ADD MLOAD SWAP1 POP JUMPDEST PUSH2 0x11AE DUP6 DUP3 PUSH2 0x1130 JUMP JUMPDEST DUP7 SSTORE POP PUSH2 0x1216 JUMP JUMPDEST PUSH1 0x1F NOT DUP5 AND PUSH2 0x11C4 DUP7 PUSH2 0xF96 JUMP JUMPDEST PUSH1 0x0 JUMPDEST DUP3 DUP2 LT ISZERO PUSH2 0x11EC JUMPI DUP5 DUP10 ADD MLOAD DUP3 SSTORE PUSH1 0x1 DUP3 ADD SWAP2 POP PUSH1 0x20 DUP6 ADD SWAP5 POP PUSH1 0x20 DUP2 ADD SWAP1 POP PUSH2 0x11C7 JUMP JUMPDEST DUP7 DUP4 LT ISZERO PUSH2 0x1209 JUMPI DUP5 DUP10 ADD MLOAD PUSH2 0x1205 PUSH1 0x1F DUP10 AND DUP3 PUSH2 0x1112 JUMP JUMPDEST DUP4 SSTORE POP JUMPDEST PUSH1 0x1 PUSH1 0x2 DUP9 MUL ADD DUP9 SSTORE POP POP POP JUMPDEST POP POP POP POP POP POP JUMP JUMPDEST PUSH32 0x4E487B7100000000000000000000000000000000000000000000000000000000 PUSH1 0x0 MSTORE PUSH1 0x11 PUSH1 0x4 MSTORE PUSH1 0x24 PUSH1 0x0 REVERT JUMPDEST PUSH1 0x0 PUSH2 0x1258 DUP3 PUSH2 0x101A JUMP JUMPDEST SWAP2 POP PUSH32 0xFFFFFFFFFFFFFFFFFFFFFFFFFFFFFFFFFFFFFFFFFFFFFFFFFFFFFFFFFFFFFFFF DUP3 SUB PUSH2 0x128A JUMPI PUSH2 0x1289 PUSH2 0x121E JUMP JUMPDEST JUMPDEST PUSH1 0x1 DUP3 ADD SWAP1 POP SWAP2 SWAP1 POP JUMP INVALID LOG2 PUSH5 0x6970667358 0x22 SLT KECCAK256 DUP3 SLOAD SWAP7 0xC7 0xB1 0x25 STOP 0xC3 0xE9 PUSH10 0x2E305A7388E9D903BEF4 0xDF NOT 0xDB 0xCC 0xD6 CREATE2 STATICCALL PUSH26 0x7893128264736F6C634300081200330000000000000000000000 "
				},
				"gasEstimates": {
					"creation": {
						"codeDepositCost": "962200",
						"executionCost": "1001",
						"totalCost": "963201"
					},
					"external": {
						"admin_read()": "infinite",
						"patch_request(string,string,string,string[][],string[][])": "infinite",
						"reporting(string[][],string[][])": "infinite"
					}
				},
				"methodIdentifiers": {
					"admin_read()": "81634317",
					"patch_request(string,string,string,string[][],string[][])": "652bc308",
					"reporting(string[][],string[][])": "7576a979"
				}
			},
			"storageLayout": {
				"storage": [
					{
						"astId": 40,
						"contract": "Complete.sol:BMPS",
						"label": "bug_arr",
						"offset": 0,
						"slot": "0",
						"type": "t_array(t_struct(Bugs)8_storage)dyn_storage"
					},
					{
						"astId": 44,
						"contract": "Complete.sol:BMPS",
						"label": "feat_arr",
						"offset": 0,
						"slot": "1",
						"type": "t_array(t_struct(Features)15_storage)dyn_storage"
					},
					{
						"astId": 48,
						"contract": "Complete.sol:BMPS",
						"label": "patch_arr",
						"offset": 0,
						"slot": "2",
						"type": "t_array(t_struct(PatchDev)36_storage)dyn_storage"
					}
				],
				"types": {
					"t_array(t_struct(Bugs)8_storage)dyn_storage": {
						"base": "t_struct(Bugs)8_storage",
						"encoding": "dynamic_array",
						"label": "struct Bugs[]",
						"numberOfBytes": "32"
					},
					"t_array(t_struct(Features)15_storage)dyn_storage": {
						"base": "t_struct(Features)15_storage",
						"encoding": "dynamic_array",
						"label": "struct Features[]",
						"numberOfBytes": "32"
					},
					"t_array(t_struct(PatchDev)36_storage)dyn_storage": {
						"base": "t_struct(PatchDev)36_storage",
						"encoding": "dynamic_array",
						"label": "struct PatchDev[]",
						"numberOfBytes": "32"
					},
					"t_bytes_storage": {
						"encoding": "bytes",
						"label": "bytes",
						"numberOfBytes": "32"
					},
					"t_string_storage": {
						"encoding": "bytes",
						"label": "string",
						"numberOfBytes": "32"
					},
					"t_struct(Bugs)8_storage": {
						"encoding": "inplace",
						"label": "struct Bugs",
						"members": [
							{
								"astId": 3,
								"contract": "Complete.sol:BMPS",
								"label": "bug_name",
								"offset": 0,
								"slot": "0",
								"type": "t_string_storage"
							},
							{
								"astId": 5,
								"contract": "Complete.sol:BMPS",
								"label": "bug_description",
								"offset": 0,
								"slot": "1",
								"type": "t_string_storage"
							},
							{
								"astId": 7,
								"contract": "Complete.sol:BMPS",
								"label": "bug_priority",
								"offset": 0,
								"slot": "2",
								"type": "t_string_storage"
							}
						],
						"numberOfBytes": "96"
					},
					"t_struct(Features)15_storage": {
						"encoding": "inplace",
						"label": "struct Features",
						"members": [
							{
								"astId": 10,
								"contract": "Complete.sol:BMPS",
								"label": "feature_name",
								"offset": 0,
								"slot": "0",
								"type": "t_string_storage"
							},
							{
								"astId": 12,
								"contract": "Complete.sol:BMPS",
								"label": "feature_description",
								"offset": 0,
								"slot": "1",
								"type": "t_string_storage"
							},
							{
								"astId": 14,
								"contract": "Complete.sol:BMPS",
								"label": "feature_priority",
								"offset": 0,
								"slot": "2",
								"type": "t_string_storage"
							}
						],
						"numberOfBytes": "96"
					},
					"t_struct(PatchDev)36_storage": {
						"encoding": "inplace",
						"label": "struct PatchDev",
						"members": [
							{
								"astId": 17,
								"contract": "Complete.sol:BMPS",
								"label": "time",
								"offset": 0,
								"slot": "0",
								"type": "t_string_storage"
							},
							{
								"astId": 19,
								"contract": "Complete.sol:BMPS",
								"label": "patch_name",
								"offset": 0,
								"slot": "1",
								"type": "t_string_storage"
							},
							{
								"astId": 21,
								"contract": "Complete.sol:BMPS",
								"label": "patch_description",
								"offset": 0,
								"slot": "2",
								"type": "t_string_storage"
							},
							{
								"astId": 25,
								"contract": "Complete.sol:BMPS",
								"label": "selected_bugs",
								"offset": 0,
								"slot": "3",
								"type": "t_array(t_struct(Bugs)8_storage)dyn_storage"
							},
							{
								"astId": 29,
								"contract": "Complete.sol:BMPS",
								"label": "selected_features",
								"offset": 0,
								"slot": "4",
								"type": "t_array(t_struct(Features)15_storage)dyn_storage"
							},
							{
								"astId": 31,
								"contract": "Complete.sol:BMPS",
								"label": "ver",
								"offset": 0,
								"slot": "5",
								"type": "t_string_storage"
							},
							{
								"astId": 33,
								"contract": "Complete.sol:BMPS",
								"label": "file_name",
								"offset": 0,
								"slot": "6",
								"type": "t_string_storage"
							},
							{
								"astId": 35,
								"contract": "Complete.sol:BMPS",
								"label": "file",
								"offset": 0,
								"slot": "7",
								"type": "t_bytes_storage"
							}
						],
						"numberOfBytes": "256"
					}
				}
			},
			"userdoc": {
				"kind": "user",
				"methods": {},
				"version": 1
			}
		}
	}
}