{
	"blc.sol": {
		"PatchManagement": {
			"abi": [
				{
					"inputs": [
						{
							"internalType": "string[][]",
							"name": "_bugs",
							"type": "string[][]"
						},
						{
							"internalType": "string[][]",
							"name": "_features",
							"type": "string[][]"
						}
					],
					"name": "addBugandFeature",
					"outputs": [],
					"stateMutability": "nonpayable",
					"type": "function"
				},
				{
					"inputs": [
						{
							"internalType": "string",
							"name": "_name",
							"type": "string"
						},
						{
							"internalType": "string",
							"name": "_desc",
							"type": "string"
						},
						{
							"internalType": "string[][]",
							"name": "_bugs",
							"type": "string[][]"
						},
						{
							"internalType": "string[][]",
							"name": "_features",
							"type": "string[][]"
						},
						{
							"internalType": "string",
							"name": "_version",
							"type": "string"
						}
					],
					"name": "approvePatch",
					"outputs": [],
					"stateMutability": "nonpayable",
					"type": "function"
				},
				{
					"inputs": [],
					"name": "approvedPatches",
					"outputs": [
						{
							"components": [
								{
									"internalType": "string",
									"name": "name",
									"type": "string"
								},
								{
									"internalType": "string",
									"name": "description",
									"type": "string"
								},
								{
									"internalType": "string[][]",
									"name": "bugs",
									"type": "string[][]"
								},
								{
									"internalType": "string[][]",
									"name": "features",
									"type": "string[][]"
								},
								{
									"internalType": "string",
									"name": "version",
									"type": "string"
								},
								{
									"internalType": "bool",
									"name": "approved",
									"type": "bool"
								},
								{
									"internalType": "bool",
									"name": "deployed",
									"type": "bool"
								}
							],
							"internalType": "struct PatchFile[]",
							"name": "",
							"type": "tuple[]"
						}
					],
					"stateMutability": "view",
					"type": "function"
				},
				{
					"inputs": [],
					"name": "deployedPatches",
					"outputs": [
						{
							"components": [
								{
									"internalType": "string",
									"name": "name",
									"type": "string"
								},
								{
									"internalType": "string",
									"name": "description",
									"type": "string"
								},
								{
									"internalType": "string[][]",
									"name": "bugs",
									"type": "string[][]"
								},
								{
									"internalType": "string[][]",
									"name": "features",
									"type": "string[][]"
								},
								{
									"internalType": "string",
									"name": "version",
									"type": "string"
								},
								{
									"internalType": "bool",
									"name": "approved",
									"type": "bool"
								},
								{
									"internalType": "bool",
									"name": "deployed",
									"type": "bool"
								}
							],
							"internalType": "struct PatchFile[]",
							"name": "",
							"type": "tuple[]"
						}
					],
					"stateMutability": "view",
					"type": "function"
				},
				{
					"inputs": [],
					"name": "getBugs",
					"outputs": [
						{
							"components": [
								{
									"internalType": "string",
									"name": "name",
									"type": "string"
								},
								{
									"internalType": "string",
									"name": "description",
									"type": "string"
								},
								{
									"internalType": "string",
									"name": "priority",
									"type": "string"
								}
							],
							"internalType": "struct Bug[]",
							"name": "",
							"type": "tuple[]"
						}
					],
					"stateMutability": "view",
					"type": "function"
				},
				{
					"inputs": [],
					"name": "getFeatures",
					"outputs": [
						{
							"components": [
								{
									"internalType": "string",
									"name": "name",
									"type": "string"
								},
								{
									"internalType": "string",
									"name": "description",
									"type": "string"
								},
								{
									"internalType": "string",
									"name": "priority",
									"type": "string"
								}
							],
							"internalType": "struct Feature[]",
							"name": "",
							"type": "tuple[]"
						}
					],
					"stateMutability": "view",
					"type": "function"
				},
				{
					"inputs": [],
					"name": "patchDetails",
					"outputs": [
						{
							"components": [
								{
									"internalType": "string",
									"name": "name",
									"type": "string"
								},
								{
									"internalType": "string",
									"name": "description",
									"type": "string"
								},
								{
									"internalType": "string[][]",
									"name": "bugs",
									"type": "string[][]"
								},
								{
									"internalType": "string[][]",
									"name": "features",
									"type": "string[][]"
								}
							],
							"internalType": "struct Patch[]",
							"name": "",
							"type": "tuple[]"
						}
					],
					"stateMutability": "view",
					"type": "function"
				},
				{
					"inputs": [
						{
							"internalType": "string",
							"name": "_name",
							"type": "string"
						},
						{
							"internalType": "string",
							"name": "_desc",
							"type": "string"
						},
						{
							"internalType": "string[][]",
							"name": "_bugs",
							"type": "string[][]"
						},
						{
							"internalType": "string[][]",
							"name": "_features",
							"type": "string[][]"
						},
						{
							"internalType": "string",
							"name": "_version",
							"type": "string"
						}
					],
					"name": "rejectPatch",
					"outputs": [],
					"stateMutability": "nonpayable",
					"type": "function"
				},
				{
					"inputs": [],
					"name": "rejectedPatches",
					"outputs": [
						{
							"components": [
								{
									"internalType": "string",
									"name": "name",
									"type": "string"
								},
								{
									"internalType": "string",
									"name": "description",
									"type": "string"
								},
								{
									"internalType": "string[][]",
									"name": "bugs",
									"type": "string[][]"
								},
								{
									"internalType": "string[][]",
									"name": "features",
									"type": "string[][]"
								},
								{
									"internalType": "string",
									"name": "version",
									"type": "string"
								},
								{
									"internalType": "bool",
									"name": "approved",
									"type": "bool"
								},
								{
									"internalType": "bool",
									"name": "deployed",
									"type": "bool"
								}
							],
							"internalType": "struct PatchFile[]",
							"name": "",
							"type": "tuple[]"
						}
					],
					"stateMutability": "view",
					"type": "function"
				},
				{
					"inputs": [
						{
							"internalType": "string",
							"name": "_name",
							"type": "string"
						},
						{
							"internalType": "string",
							"name": "_desc",
							"type": "string"
						},
						{
							"internalType": "string[][]",
							"name": "_bugs",
							"type": "string[][]"
						},
						{
							"internalType": "string[][]",
							"name": "_features",
							"type": "string[][]"
						},
						{
							"internalType": "string",
							"name": "_version",
							"type": "string"
						}
					],
					"name": "requestDeploy",
					"outputs": [],
					"stateMutability": "nonpayable",
					"type": "function"
				},
				{
					"inputs": [
						{
							"internalType": "string",
							"name": "_name",
							"type": "string"
						},
						{
							"internalType": "string",
							"name": "_desc",
							"type": "string"
						},
						{
							"internalType": "string[][]",
							"name": "_bugs",
							"type": "string[][]"
						},
						{
							"internalType": "string[][]",
							"name": "_features",
							"type": "string[][]"
						}
					],
					"name": "requestPatch",
					"outputs": [],
					"stateMutability": "nonpayable",
					"type": "function"
				},
				{
					"inputs": [
						{
							"internalType": "string",
							"name": "_name",
							"type": "string"
						},
						{
							"internalType": "string",
							"name": "_desc",
							"type": "string"
						},
						{
							"internalType": "string[][]",
							"name": "_bugs",
							"type": "string[][]"
						},
						{
							"internalType": "string[][]",
							"name": "_features",
							"type": "string[][]"
						},
						{
							"internalType": "string",
							"name": "_version",
							"type": "string"
						}
					],
					"name": "requestQA",
					"outputs": [],
					"stateMutability": "nonpayable",
					"type": "function"
				},
				{
					"inputs": [],
					"name": "requestedPatches",
					"outputs": [
						{
							"components": [
								{
									"internalType": "string",
									"name": "name",
									"type": "string"
								},
								{
									"internalType": "string",
									"name": "description",
									"type": "string"
								},
								{
									"internalType": "string[][]",
									"name": "bugs",
									"type": "string[][]"
								},
								{
									"internalType": "string[][]",
									"name": "features",
									"type": "string[][]"
								},
								{
									"internalType": "string",
									"name": "version",
									"type": "string"
								},
								{
									"internalType": "bool",
									"name": "approved",
									"type": "bool"
								},
								{
									"internalType": "bool",
									"name": "deployed",
									"type": "bool"
								}
							],
							"internalType": "struct PatchFile[]",
							"name": "",
							"type": "tuple[]"
						}
					],
					"stateMutability": "view",
					"type": "function"
				}
			],
			"devdoc": {
				"kind": "dev",
				"methods": {},
				"version": 1
			},
			"evm": {
				"assembly": "    /* \"blc.sol\":500:6375  contract PatchManagement {... */\n  mstore(0x40, 0x80)\n  callvalue\n  dup1\n  iszero\n  tag_1\n  jumpi\n  0x00\n  dup1\n  revert\ntag_1:\n  pop\n  dataSize(sub_0)\n  dup1\n  dataOffset(sub_0)\n  0x00\n  codecopy\n  0x00\n  return\nstop\n\nsub_0: assembly {\n        /* \"blc.sol\":500:6375  contract PatchManagement {... */\n      mstore(0x40, 0x80)\n      callvalue\n      dup1\n      iszero\n      tag_1\n      jumpi\n      0x00\n      dup1\n      revert\n    tag_1:\n      pop\n      jumpi(tag_2, lt(calldatasize, 0x04))\n      shr(0xe0, calldataload(0x00))\n      dup1\n      0x4f0d4dc4\n      gt\n      tag_16\n      jumpi\n      dup1\n      0x893acf2d\n      gt\n      tag_17\n      jumpi\n      dup1\n      0x893acf2d\n      eq\n      tag_12\n      jumpi\n      dup1\n      0xa093271e\n      eq\n      tag_13\n      jumpi\n      dup1\n      0xa28486b6\n      eq\n      tag_14\n      jumpi\n      dup1\n      0xff49a764\n      eq\n      tag_15\n      jumpi\n      jump(tag_2)\n    tag_17:\n      dup1\n      0x4f0d4dc4\n      eq\n      tag_9\n      jumpi\n      dup1\n      0x633083f7\n      eq\n      tag_10\n      jumpi\n      dup1\n      0x7dfcc71a\n      eq\n      tag_11\n      jumpi\n      jump(tag_2)\n    tag_16:\n      dup1\n      0x038ddbb3\n      eq\n      tag_3\n      jumpi\n      dup1\n      0x09c650ba\n      eq\n      tag_4\n      jumpi\n      dup1\n      0x09f899b9\n      eq\n      tag_5\n      jumpi\n      dup1\n      0x1ec407cc\n      eq\n      tag_6\n      jumpi\n      dup1\n      0x27dfb8fa\n      eq\n      tag_7\n      jumpi\n      dup1\n      0x366982ca\n      eq\n      tag_8\n      jumpi\n    tag_2:\n      0x00\n      dup1\n      revert\n        /* \"blc.sol\":806:1200  function addBugandFeature(string[][] memory _bugs, string[][] memory _features) public {... */\n    tag_3:\n      tag_18\n      0x04\n      dup1\n      calldatasize\n      sub\n      dup2\n      add\n      swap1\n      tag_19\n      swap2\n      swap1\n      tag_20\n      jump\t// in\n    tag_19:\n      tag_21\n      jump\t// in\n    tag_18:\n      stop\n        /* \"blc.sol\":5942:6049  function approvedPatches() public view returns (PatchFile[] memory){... */\n    tag_4:\n      tag_22\n      tag_23\n      jump\t// in\n    tag_22:\n      mload(0x40)\n      tag_24\n      swap2\n      swap1\n      tag_25\n      jump\t// in\n    tag_24:\n      mload(0x40)\n      dup1\n      swap2\n      sub\n      swap1\n      return\n        /* \"blc.sol\":6281:6373  function patchDetails() public view returns (Patch[] memory) {... */\n    tag_5:\n      tag_26\n      tag_27\n      jump\t// in\n    tag_26:\n      mload(0x40)\n      tag_28\n      swap2\n      swap1\n      tag_29\n      jump\t// in\n    tag_28:\n      mload(0x40)\n      dup1\n      swap2\n      sub\n      swap1\n      return\n        /* \"blc.sol\":2399:3230  function requestPatch(string memory _name,string memory _desc,string[][] memory _bugs,string[][] memory _features) public {... */\n    tag_6:\n      tag_30\n      0x04\n      dup1\n      calldatasize\n      sub\n      dup2\n      add\n      swap1\n      tag_31\n      swap2\n      swap1\n      tag_32\n      jump\t// in\n    tag_31:\n      tag_33\n      jump\t// in\n    tag_30:\n      stop\n        /* \"blc.sol\":5832:5936  function requestedPatches()public view returns (PatchFile[] memory){... */\n    tag_7:\n      tag_34\n      tag_35\n      jump\t// in\n    tag_34:\n      mload(0x40)\n      tag_36\n      swap2\n      swap1\n      tag_25\n      jump\t// in\n    tag_36:\n      mload(0x40)\n      dup1\n      swap2\n      sub\n      swap1\n      return\n        /* \"blc.sol\":6055:6162  function rejectedPatches() public view returns (PatchFile[] memory){... */\n    tag_8:\n      tag_37\n      tag_38\n      jump\t// in\n    tag_37:\n      mload(0x40)\n      tag_39\n      swap2\n      swap1\n      tag_25\n      jump\t// in\n    tag_39:\n      mload(0x40)\n      dup1\n      swap2\n      sub\n      swap1\n      return\n        /* \"blc.sol\":3747:4281  function approvePatch(string memory _name,string memory _desc,string[][] memory _bugs,string[][] memory _features,string memory _version)public{... */\n    tag_9:\n      tag_40\n      0x04\n      dup1\n      calldatasize\n      sub\n      dup2\n      add\n      swap1\n      tag_41\n      swap2\n      swap1\n      tag_42\n      jump\t// in\n    tag_41:\n      tag_43\n      jump\t// in\n    tag_40:\n      stop\n        /* \"blc.sol\":3236:3741  function requestQA(string memory _name,string memory _desc,string[][] memory _bugs,string[][] memory _features,string memory _version)public{... */\n    tag_10:\n      tag_44\n      0x04\n      dup1\n      calldatasize\n      sub\n      dup2\n      add\n      swap1\n      tag_45\n      swap2\n      swap1\n      tag_42\n      jump\t// in\n    tag_45:\n      tag_46\n      jump\t// in\n    tag_44:\n      stop\n        /* \"blc.sol\":1304:1409  function getFeatures() public view returns (Feature[] memory) {... */\n    tag_11:\n      tag_47\n      tag_48\n      jump\t// in\n    tag_47:\n      mload(0x40)\n      tag_49\n      swap2\n      swap1\n      tag_50\n      jump\t// in\n    tag_49:\n      mload(0x40)\n      dup1\n      swap2\n      sub\n      swap1\n      return\n        /* \"blc.sol\":1205:1298  function getBugs() public view returns (Bug[] memory) {... */\n    tag_12:\n      tag_51\n      tag_52\n      jump\t// in\n    tag_51:\n      mload(0x40)\n      tag_53\n      swap2\n      swap1\n      tag_54\n      jump\t// in\n    tag_53:\n      mload(0x40)\n      dup1\n      swap2\n      sub\n      swap1\n      return\n        /* \"blc.sol\":5131:5826  function requestDeploy(string memory _name,string memory _desc,string[][] memory _bugs,string[][] memory _features,string memory _version)public {... */\n    tag_13:\n      tag_55\n      0x04\n      dup1\n      calldatasize\n      sub\n      dup2\n      add\n      swap1\n      tag_56\n      swap2\n      swap1\n      tag_42\n      jump\t// in\n    tag_56:\n      tag_57\n      jump\t// in\n    tag_55:\n      stop\n        /* \"blc.sol\":6168:6275  function deployedPatches() public view returns (PatchFile[] memory){... */\n    tag_14:\n      tag_58\n      tag_59\n      jump\t// in\n    tag_58:\n      mload(0x40)\n      tag_60\n      swap2\n      swap1\n      tag_25\n      jump\t// in\n    tag_60:\n      mload(0x40)\n      dup1\n      swap2\n      sub\n      swap1\n      return\n        /* \"blc.sol\":4287:5121  function rejectPatch(string memory _name,string memory _desc,string[][] memory _bugs,string[][] memory _features,string memory _version)public{... */\n    tag_15:\n      tag_61\n      0x04\n      dup1\n      calldatasize\n      sub\n      dup2\n      add\n      swap1\n      tag_62\n      swap2\n      swap1\n      tag_42\n      jump\t// in\n    tag_62:\n      tag_63\n      jump\t// in\n    tag_61:\n      stop\n        /* \"blc.sol\":806:1200  function addBugandFeature(string[][] memory _bugs, string[][] memory _features) public {... */\n    tag_21:\n        /* \"blc.sol\":908:914  uint i */\n      0x00\n        /* \"blc.sol\":903:1032  for (uint i = 0; i < _bugs.length; i++) {... */\n    tag_65:\n        /* \"blc.sol\":924:929  _bugs */\n      dup3\n        /* \"blc.sol\":924:936  _bugs.length */\n      mload\n        /* \"blc.sol\":920:921  i */\n      dup2\n        /* \"blc.sol\":920:936  i < _bugs.length */\n      lt\n        /* \"blc.sol\":903:1032  for (uint i = 0; i < _bugs.length; i++) {... */\n      iszero\n      tag_66\n      jumpi\n        /* \"blc.sol\":957:972  Unassigned_bugs */\n      0x01\n        /* \"blc.sol\":978:1020  Bug(_bugs[i][0], _bugs[i][1], _bugs[i][2]) */\n      mload(0x40)\n      dup1\n      0x60\n      add\n      0x40\n      mstore\n      dup1\n        /* \"blc.sol\":982:987  _bugs */\n      dup6\n        /* \"blc.sol\":988:989  i */\n      dup5\n        /* \"blc.sol\":982:990  _bugs[i] */\n      dup2\n      mload\n      dup2\n      lt\n      tag_68\n      jumpi\n      tag_69\n      tag_70\n      jump\t// in\n    tag_69:\n    tag_68:\n      0x20\n      mul\n      0x20\n      add\n      add\n      mload\n        /* \"blc.sol\":991:992  0 */\n      0x00\n        /* \"blc.sol\":982:993  _bugs[i][0] */\n      dup2\n      mload\n      dup2\n      lt\n      tag_71\n      jumpi\n      tag_72\n      tag_70\n      jump\t// in\n    tag_72:\n    tag_71:\n      0x20\n      mul\n      0x20\n      add\n      add\n      mload\n        /* \"blc.sol\":978:1020  Bug(_bugs[i][0], _bugs[i][1], _bugs[i][2]) */\n      dup2\n      mstore\n      0x20\n      add\n        /* \"blc.sol\":995:1000  _bugs */\n      dup6\n        /* \"blc.sol\":1001:1002  i */\n      dup5\n        /* \"blc.sol\":995:1003  _bugs[i] */\n      dup2\n      mload\n      dup2\n      lt\n      tag_73\n      jumpi\n      tag_74\n      tag_70\n      jump\t// in\n    tag_74:\n    tag_73:\n      0x20\n      mul\n      0x20\n      add\n      add\n      mload\n        /* \"blc.sol\":1004:1005  1 */\n      0x01\n        /* \"blc.sol\":995:1006  _bugs[i][1] */\n      dup2\n      mload\n      dup2\n      lt\n      tag_75\n      jumpi\n      tag_76\n      tag_70\n      jump\t// in\n    tag_76:\n    tag_75:\n      0x20\n      mul\n      0x20\n      add\n      add\n      mload\n        /* \"blc.sol\":978:1020  Bug(_bugs[i][0], _bugs[i][1], _bugs[i][2]) */\n      dup2\n      mstore\n      0x20\n      add\n        /* \"blc.sol\":1008:1013  _bugs */\n      dup6\n        /* \"blc.sol\":1014:1015  i */\n      dup5\n        /* \"blc.sol\":1008:1016  _bugs[i] */\n      dup2\n      mload\n      dup2\n      lt\n      tag_77\n      jumpi\n      tag_78\n      tag_70\n      jump\t// in\n    tag_78:\n    tag_77:\n      0x20\n      mul\n      0x20\n      add\n      add\n      mload\n        /* \"blc.sol\":1017:1018  2 */\n      0x02\n        /* \"blc.sol\":1008:1019  _bugs[i][2] */\n      dup2\n      mload\n      dup2\n      lt\n      tag_79\n      jumpi\n      tag_80\n      tag_70\n      jump\t// in\n    tag_80:\n    tag_79:\n      0x20\n      mul\n      0x20\n      add\n      add\n      mload\n        /* \"blc.sol\":978:1020  Bug(_bugs[i][0], _bugs[i][1], _bugs[i][2]) */\n      dup2\n      mstore\n      pop\n        /* \"blc.sol\":957:1021  Unassigned_bugs.push(Bug(_bugs[i][0], _bugs[i][1], _bugs[i][2])) */\n      swap1\n      dup1\n      0x01\n      dup2\n      sload\n      add\n      dup1\n      dup3\n      sstore\n      dup1\n      swap2\n      pop\n      pop\n      0x01\n      swap1\n      sub\n      swap1\n      0x00\n      mstore\n      keccak256(0x00, 0x20)\n      swap1\n      0x03\n      mul\n      add\n      0x00\n      swap1\n      swap2\n      swap1\n      swap2\n      swap1\n      swap2\n      pop\n      0x00\n      dup3\n      add\n      mload\n      dup2\n      0x00\n      add\n      swap1\n      dup2\n      tag_82\n      swap2\n      swap1\n      tag_83\n      jump\t// in\n    tag_82:\n      pop\n      0x20\n      dup3\n      add\n      mload\n      dup2\n      0x01\n      add\n      swap1\n      dup2\n      tag_84\n      swap2\n      swap1\n      tag_83\n      jump\t// in\n    tag_84:\n      pop\n      0x40\n      dup3\n      add\n      mload\n      dup2\n      0x02\n      add\n      swap1\n      dup2\n      tag_85\n      swap2\n      swap1\n      tag_83\n      jump\t// in\n    tag_85:\n      pop\n      pop\n      pop\n        /* \"blc.sol\":938:941  i++ */\n      dup1\n      dup1\n      tag_86\n      swap1\n      tag_87\n      jump\t// in\n    tag_86:\n      swap2\n      pop\n      pop\n        /* \"blc.sol\":903:1032  for (uint i = 0; i < _bugs.length; i++) {... */\n      jump(tag_65)\n    tag_66:\n      pop\n        /* \"blc.sol\":1046:1052  uint i */\n      0x00\n        /* \"blc.sol\":1041:1194  for (uint i = 0; i < _features.length; i++) {... */\n    tag_88:\n        /* \"blc.sol\":1062:1071  _features */\n      dup2\n        /* \"blc.sol\":1062:1078  _features.length */\n      mload\n        /* \"blc.sol\":1058:1059  i */\n      dup2\n        /* \"blc.sol\":1058:1078  i < _features.length */\n      lt\n        /* \"blc.sol\":1041:1194  for (uint i = 0; i < _features.length; i++) {... */\n      iszero\n      tag_89\n      jumpi\n        /* \"blc.sol\":1099:1118  Unassigned_features */\n      0x03\n        /* \"blc.sol\":1124:1182  Feature(_features[i][0], _features[i][1], _features[i][2]) */\n      mload(0x40)\n      dup1\n      0x60\n      add\n      0x40\n      mstore\n      dup1\n        /* \"blc.sol\":1132:1141  _features */\n      dup5\n        /* \"blc.sol\":1142:1143  i */\n      dup5\n        /* \"blc.sol\":1132:1144  _features[i] */\n      dup2\n      mload\n      dup2\n      lt\n      tag_91\n      jumpi\n      tag_92\n      tag_70\n      jump\t// in\n    tag_92:\n    tag_91:\n      0x20\n      mul\n      0x20\n      add\n      add\n      mload\n        /* \"blc.sol\":1145:1146  0 */\n      0x00\n        /* \"blc.sol\":1132:1147  _features[i][0] */\n      dup2\n      mload\n      dup2\n      lt\n      tag_93\n      jumpi\n      tag_94\n      tag_70\n      jump\t// in\n    tag_94:\n    tag_93:\n      0x20\n      mul\n      0x20\n      add\n      add\n      mload\n        /* \"blc.sol\":1124:1182  Feature(_features[i][0], _features[i][1], _features[i][2]) */\n      dup2\n      mstore\n      0x20\n      add\n        /* \"blc.sol\":1149:1158  _features */\n      dup5\n        /* \"blc.sol\":1159:1160  i */\n      dup5\n        /* \"blc.sol\":1149:1161  _features[i] */\n      dup2\n      mload\n      dup2\n      lt\n      tag_95\n      jumpi\n      tag_96\n      tag_70\n      jump\t// in\n    tag_96:\n    tag_95:\n      0x20\n      mul\n      0x20\n      add\n      add\n      mload\n        /* \"blc.sol\":1162:1163  1 */\n      0x01\n        /* \"blc.sol\":1149:1164  _features[i][1] */\n      dup2\n      mload\n      dup2\n      lt\n      tag_97\n      jumpi\n      tag_98\n      tag_70\n      jump\t// in\n    tag_98:\n    tag_97:\n      0x20\n      mul\n      0x20\n      add\n      add\n      mload\n        /* \"blc.sol\":1124:1182  Feature(_features[i][0], _features[i][1], _features[i][2]) */\n      dup2\n      mstore\n      0x20\n      add\n        /* \"blc.sol\":1166:1175  _features */\n      dup5\n        /* \"blc.sol\":1176:1177  i */\n      dup5\n        /* \"blc.sol\":1166:1178  _features[i] */\n      dup2\n      mload\n      dup2\n      lt\n      tag_99\n      jumpi\n      tag_100\n      tag_70\n      jump\t// in\n    tag_100:\n    tag_99:\n      0x20\n      mul\n      0x20\n      add\n      add\n      mload\n        /* \"blc.sol\":1179:1180  2 */\n      0x02\n        /* \"blc.sol\":1166:1181  _features[i][2] */\n      dup2\n      mload\n      dup2\n      lt\n      tag_101\n      jumpi\n      tag_102\n      tag_70\n      jump\t// in\n    tag_102:\n    tag_101:\n      0x20\n      mul\n      0x20\n      add\n      add\n      mload\n        /* \"blc.sol\":1124:1182  Feature(_features[i][0], _features[i][1], _features[i][2]) */\n      dup2\n      mstore\n      pop\n        /* \"blc.sol\":1099:1183  Unassigned_features.push(Feature(_features[i][0], _features[i][1], _features[i][2])) */\n      swap1\n      dup1\n      0x01\n      dup2\n      sload\n      add\n      dup1\n      dup3\n      sstore\n      dup1\n      swap2\n      pop\n      pop\n      0x01\n      swap1\n      sub\n      swap1\n      0x00\n      mstore\n      keccak256(0x00, 0x20)\n      swap1\n      0x03\n      mul\n      add\n      0x00\n      swap1\n      swap2\n      swap1\n      swap2\n      swap1\n      swap2\n      pop\n      0x00\n      dup3\n      add\n      mload\n      dup2\n      0x00\n      add\n      swap1\n      dup2\n      tag_104\n      swap2\n      swap1\n      tag_83\n      jump\t// in\n    tag_104:\n      pop\n      0x20\n      dup3\n      add\n      mload\n      dup2\n      0x01\n      add\n      swap1\n      dup2\n      tag_105\n      swap2\n      swap1\n      tag_83\n      jump\t// in\n    tag_105:\n      pop\n      0x40\n      dup3\n      add\n      mload\n      dup2\n      0x02\n      add\n      swap1\n      dup2\n      tag_106\n      swap2\n      swap1\n      tag_83\n      jump\t// in\n    tag_106:\n      pop\n      pop\n      pop\n        /* \"blc.sol\":1080:1083  i++ */\n      dup1\n      dup1\n      tag_107\n      swap1\n      tag_87\n      jump\t// in\n    tag_107:\n      swap2\n      pop\n      pop\n        /* \"blc.sol\":1041:1194  for (uint i = 0; i < _features.length; i++) {... */\n      jump(tag_88)\n    tag_89:\n      pop\n        /* \"blc.sol\":806:1200  function addBugandFeature(string[][] memory _bugs, string[][] memory _features) public {... */\n      pop\n      pop\n      jump\t// out\n        /* \"blc.sol\":5942:6049  function approvedPatches() public view returns (PatchFile[] memory){... */\n    tag_23:\n        /* \"blc.sol\":5990:6008  PatchFile[] memory */\n      0x60\n        /* \"blc.sol\":6026:6042  approved_patches */\n      0x06\n        /* \"blc.sol\":6019:6042  return approved_patches */\n      dup1\n      sload\n      dup1\n      0x20\n      mul\n      0x20\n      add\n      mload(0x40)\n      swap1\n      dup2\n      add\n      0x40\n      mstore\n      dup1\n      swap3\n      swap2\n      swap1\n      dup2\n      dup2\n      mstore\n      0x20\n      add\n      0x00\n      swap1\n    tag_109:\n      dup3\n      dup3\n      lt\n      iszero\n      tag_110\n      jumpi\n      dup4\n      dup3\n      swap1\n      0x00\n      mstore\n      keccak256(0x00, 0x20)\n      swap1\n      0x06\n      mul\n      add\n      mload(0x40)\n      dup1\n      0xe0\n      add\n      0x40\n      mstore\n      swap1\n      dup2\n      0x00\n      dup3\n      add\n      dup1\n      sload\n      tag_112\n      swap1\n      tag_113\n      jump\t// in\n    tag_112:\n      dup1\n      0x1f\n      add\n      0x20\n      dup1\n      swap2\n      div\n      mul\n      0x20\n      add\n      mload(0x40)\n      swap1\n      dup2\n      add\n      0x40\n      mstore\n      dup1\n      swap3\n      swap2\n      swap1\n      dup2\n      dup2\n      mstore\n      0x20\n      add\n      dup3\n      dup1\n      sload\n      tag_114\n      swap1\n      tag_113\n      jump\t// in\n    tag_114:\n      dup1\n      iszero\n      tag_115\n      jumpi\n      dup1\n      0x1f\n      lt\n      tag_116\n      jumpi\n      0x0100\n      dup1\n      dup4\n      sload\n      div\n      mul\n      dup4\n      mstore\n      swap2\n      0x20\n      add\n      swap2\n      jump(tag_115)\n    tag_116:\n      dup3\n      add\n      swap2\n      swap1\n      0x00\n      mstore\n      keccak256(0x00, 0x20)\n      swap1\n    tag_117:\n      dup2\n      sload\n      dup2\n      mstore\n      swap1\n      0x01\n      add\n      swap1\n      0x20\n      add\n      dup1\n      dup4\n      gt\n      tag_117\n      jumpi\n      dup3\n      swap1\n      sub\n      0x1f\n      and\n      dup3\n      add\n      swap2\n    tag_115:\n      pop\n      pop\n      pop\n      pop\n      pop\n      dup2\n      mstore\n      0x20\n      add\n      0x01\n      dup3\n      add\n      dup1\n      sload\n      tag_118\n      swap1\n      tag_113\n      jump\t// in\n    tag_118:\n      dup1\n      0x1f\n      add\n      0x20\n      dup1\n      swap2\n      div\n      mul\n      0x20\n      add\n      mload(0x40)\n      swap1\n      dup2\n      add\n      0x40\n      mstore\n      dup1\n      swap3\n      swap2\n      swap1\n      dup2\n      dup2\n      mstore\n      0x20\n      add\n      dup3\n      dup1\n      sload\n      tag_119\n      swap1\n      tag_113\n      jump\t// in\n    tag_119:\n      dup1\n      iszero\n      tag_120\n      jumpi\n      dup1\n      0x1f\n      lt\n      tag_121\n      jumpi\n      0x0100\n      dup1\n      dup4\n      sload\n      div\n      mul\n      dup4\n      mstore\n      swap2\n      0x20\n      add\n      swap2\n      jump(tag_120)\n    tag_121:\n      dup3\n      add\n      swap2\n      swap1\n      0x00\n      mstore\n      keccak256(0x00, 0x20)\n      swap1\n    tag_122:\n      dup2\n      sload\n      dup2\n      mstore\n      swap1\n      0x01\n      add\n      swap1\n      0x20\n      add\n      dup1\n      dup4\n      gt\n      tag_122\n      jumpi\n      dup3\n      swap1\n      sub\n      0x1f\n      and\n      dup3\n      add\n      swap2\n    tag_120:\n      pop\n      pop\n      pop\n      pop\n      pop\n      dup2\n      mstore\n      0x20\n      add\n      0x02\n      dup3\n      add\n      dup1\n      sload\n      dup1\n      0x20\n      mul\n      0x20\n      add\n      mload(0x40)\n      swap1\n      dup2\n      add\n      0x40\n      mstore\n      dup1\n      swap3\n      swap2\n      swap1\n      dup2\n      dup2\n      mstore\n      0x20\n      add\n      0x00\n      swap1\n    tag_123:\n      dup3\n      dup3\n      lt\n      iszero\n      tag_124\n      jumpi\n      dup4\n      dup3\n      swap1\n      0x00\n      mstore\n      keccak256(0x00, 0x20)\n      add\n      dup1\n      sload\n      dup1\n      0x20\n      mul\n      0x20\n      add\n      mload(0x40)\n      swap1\n      dup2\n      add\n      0x40\n      mstore\n      dup1\n      swap3\n      swap2\n      swap1\n      dup2\n      dup2\n      mstore\n      0x20\n      add\n      0x00\n      swap1\n    tag_126:\n      dup3\n      dup3\n      lt\n      iszero\n      tag_127\n      jumpi\n      dup4\n      dup3\n      swap1\n      0x00\n      mstore\n      keccak256(0x00, 0x20)\n      add\n      dup1\n      sload\n      tag_129\n      swap1\n      tag_113\n      jump\t// in\n    tag_129:\n      dup1\n      0x1f\n      add\n      0x20\n      dup1\n      swap2\n      div\n      mul\n      0x20\n      add\n      mload(0x40)\n      swap1\n      dup2\n      add\n      0x40\n      mstore\n      dup1\n      swap3\n      swap2\n      swap1\n      dup2\n      dup2\n      mstore\n      0x20\n      add\n      dup3\n      dup1\n      sload\n      tag_130\n      swap1\n      tag_113\n      jump\t// in\n    tag_130:\n      dup1\n      iszero\n      tag_131\n      jumpi\n      dup1\n      0x1f\n      lt\n      tag_132\n      jumpi\n      0x0100\n      dup1\n      dup4\n      sload\n      div\n      mul\n      dup4\n      mstore\n      swap2\n      0x20\n      add\n      swap2\n      jump(tag_131)\n    tag_132:\n      dup3\n      add\n      swap2\n      swap1\n      0x00\n      mstore\n      keccak256(0x00, 0x20)\n      swap1\n    tag_133:\n      dup2\n      sload\n      dup2\n      mstore\n      swap1\n      0x01\n      add\n      swap1\n      0x20\n      add\n      dup1\n      dup4\n      gt\n      tag_133\n      jumpi\n      dup3\n      swap1\n      sub\n      0x1f\n      and\n      dup3\n      add\n      swap2\n    tag_131:\n      pop\n      pop\n      pop\n      pop\n      pop\n      dup2\n      mstore\n      0x20\n      add\n      swap1\n      0x01\n      add\n      swap1\n      jump(tag_126)\n    tag_127:\n      pop\n      pop\n      pop\n      pop\n      dup2\n      mstore\n      0x20\n      add\n      swap1\n      0x01\n      add\n      swap1\n      jump(tag_123)\n    tag_124:\n      pop\n      pop\n      pop\n      pop\n      dup2\n      mstore\n      0x20\n      add\n      0x03\n      dup3\n      add\n      dup1\n      sload\n      dup1\n      0x20\n      mul\n      0x20\n      add\n      mload(0x40)\n      swap1\n      dup2\n      add\n      0x40\n      mstore\n      dup1\n      swap3\n      swap2\n      swap1\n      dup2\n      dup2\n      mstore\n      0x20\n      add\n      0x00\n      swap1\n    tag_134:\n      dup3\n      dup3\n      lt\n      iszero\n      tag_135\n      jumpi\n      dup4\n      dup3\n      swap1\n      0x00\n      mstore\n      keccak256(0x00, 0x20)\n      add\n      dup1\n      sload\n      dup1\n      0x20\n      mul\n      0x20\n      add\n      mload(0x40)\n      swap1\n      dup2\n      add\n      0x40\n      mstore\n      dup1\n      swap3\n      swap2\n      swap1\n      dup2\n      dup2\n      mstore\n      0x20\n      add\n      0x00\n      swap1\n    tag_137:\n      dup3\n      dup3\n      lt\n      iszero\n      tag_138\n      jumpi\n      dup4\n      dup3\n      swap1\n      0x00\n      mstore\n      keccak256(0x00, 0x20)\n      add\n      dup1\n      sload\n      tag_140\n      swap1\n      tag_113\n      jump\t// in\n    tag_140:\n      dup1\n      0x1f\n      add\n      0x20\n      dup1\n      swap2\n      div\n      mul\n      0x20\n      add\n      mload(0x40)\n      swap1\n      dup2\n      add\n      0x40\n      mstore\n      dup1\n      swap3\n      swap2\n      swap1\n      dup2\n      dup2\n      mstore\n      0x20\n      add\n      dup3\n      dup1\n      sload\n      tag_141\n      swap1\n      tag_113\n      jump\t// in\n    tag_141:\n      dup1\n      iszero\n      tag_142\n      jumpi\n      dup1\n      0x1f\n      lt\n      tag_143\n      jumpi\n      0x0100\n      dup1\n      dup4\n      sload\n      div\n      mul\n      dup4\n      mstore\n      swap2\n      0x20\n      add\n      swap2\n      jump(tag_142)\n    tag_143:\n      dup3\n      add\n      swap2\n      swap1\n      0x00\n      mstore\n      keccak256(0x00, 0x20)\n      swap1\n    tag_144:\n      dup2\n      sload\n      dup2\n      mstore\n      swap1\n      0x01\n      add\n      swap1\n      0x20\n      add\n      dup1\n      dup4\n      gt\n      tag_144\n      jumpi\n      dup3\n      swap1\n      sub\n      0x1f\n      and\n      dup3\n      add\n      swap2\n    tag_142:\n      pop\n      pop\n      pop\n      pop\n      pop\n      dup2\n      mstore\n      0x20\n      add\n      swap1\n      0x01\n      add\n      swap1\n      jump(tag_137)\n    tag_138:\n      pop\n      pop\n      pop\n      pop\n      dup2\n      mstore\n      0x20\n      add\n      swap1\n      0x01\n      add\n      swap1\n      jump(tag_134)\n    tag_135:\n      pop\n      pop\n      pop\n      pop\n      dup2\n      mstore\n      0x20\n      add\n      0x04\n      dup3\n      add\n      dup1\n      sload\n      tag_145\n      swap1\n      tag_113\n      jump\t// in\n    tag_145:\n      dup1\n      0x1f\n      add\n      0x20\n      dup1\n      swap2\n      div\n      mul\n      0x20\n      add\n      mload(0x40)\n      swap1\n      dup2\n      add\n      0x40\n      mstore\n      dup1\n      swap3\n      swap2\n      swap1\n      dup2\n      dup2\n      mstore\n      0x20\n      add\n      dup3\n      dup1\n      sload\n      tag_146\n      swap1\n      tag_113\n      jump\t// in\n    tag_146:\n      dup1\n      iszero\n      tag_147\n      jumpi\n      dup1\n      0x1f\n      lt\n      tag_148\n      jumpi\n      0x0100\n      dup1\n      dup4\n      sload\n      div\n      mul\n      dup4\n      mstore\n      swap2\n      0x20\n      add\n      swap2\n      jump(tag_147)\n    tag_148:\n      dup3\n      add\n      swap2\n      swap1\n      0x00\n      mstore\n      keccak256(0x00, 0x20)\n      swap1\n    tag_149:\n      dup2\n      sload\n      dup2\n      mstore\n      swap1\n      0x01\n      add\n      swap1\n      0x20\n      add\n      dup1\n      dup4\n      gt\n      tag_149\n      jumpi\n      dup3\n      swap1\n      sub\n      0x1f\n      and\n      dup3\n      add\n      swap2\n    tag_147:\n      pop\n      pop\n      pop\n      pop\n      pop\n      dup2\n      mstore\n      0x20\n      add\n      0x05\n      dup3\n      add\n      0x00\n      swap1\n      sload\n      swap1\n      0x0100\n      exp\n      swap1\n      div\n      0xff\n      and\n      iszero\n      iszero\n      iszero\n      iszero\n      dup2\n      mstore\n      0x20\n      add\n      0x05\n      dup3\n      add\n      0x01\n      swap1\n      sload\n      swap1\n      0x0100\n      exp\n      swap1\n      div\n      0xff\n      and\n      iszero\n      iszero\n      iszero\n      iszero\n      dup2\n      mstore\n      pop\n      pop\n      dup2\n      mstore\n      0x20\n      add\n      swap1\n      0x01\n      add\n      swap1\n      jump(tag_109)\n    tag_110:\n      pop\n      pop\n      pop\n      pop\n      swap1\n      pop\n        /* \"blc.sol\":5942:6049  function approvedPatches() public view returns (PatchFile[] memory){... */\n      swap1\n      jump\t// out\n        /* \"blc.sol\":6281:6373  function patchDetails() public view returns (Patch[] memory) {... */\n    tag_27:\n        /* \"blc.sol\":6326:6340  Patch[] memory */\n      0x60\n        /* \"blc.sol\":6359:6366  patches */\n      0x04\n        /* \"blc.sol\":6352:6366  return patches */\n      dup1\n      sload\n      dup1\n      0x20\n      mul\n      0x20\n      add\n      mload(0x40)\n      swap1\n      dup2\n      add\n      0x40\n      mstore\n      dup1\n      swap3\n      swap2\n      swap1\n      dup2\n      dup2\n      mstore\n      0x20\n      add\n      0x00\n      swap1\n    tag_151:\n      dup3\n      dup3\n      lt\n      iszero\n      tag_152\n      jumpi\n      dup4\n      dup3\n      swap1\n      0x00\n      mstore\n      keccak256(0x00, 0x20)\n      swap1\n      0x04\n      mul\n      add\n      mload(0x40)\n      dup1\n      0x80\n      add\n      0x40\n      mstore\n      swap1\n      dup2\n      0x00\n      dup3\n      add\n      dup1\n      sload\n      tag_154\n      swap1\n      tag_113\n      jump\t// in\n    tag_154:\n      dup1\n      0x1f\n      add\n      0x20\n      dup1\n      swap2\n      div\n      mul\n      0x20\n      add\n      mload(0x40)\n      swap1\n      dup2\n      add\n      0x40\n      mstore\n      dup1\n      swap3\n      swap2\n      swap1\n      dup2\n      dup2\n      mstore\n      0x20\n      add\n      dup3\n      dup1\n      sload\n      tag_155\n      swap1\n      tag_113\n      jump\t// in\n    tag_155:\n      dup1\n      iszero\n      tag_156\n      jumpi\n      dup1\n      0x1f\n      lt\n      tag_157\n      jumpi\n      0x0100\n      dup1\n      dup4\n      sload\n      div\n      mul\n      dup4\n      mstore\n      swap2\n      0x20\n      add\n      swap2\n      jump(tag_156)\n    tag_157:\n      dup3\n      add\n      swap2\n      swap1\n      0x00\n      mstore\n      keccak256(0x00, 0x20)\n      swap1\n    tag_158:\n      dup2\n      sload\n      dup2\n      mstore\n      swap1\n      0x01\n      add\n      swap1\n      0x20\n      add\n      dup1\n      dup4\n      gt\n      tag_158\n      jumpi\n      dup3\n      swap1\n      sub\n      0x1f\n      and\n      dup3\n      add\n      swap2\n    tag_156:\n      pop\n      pop\n      pop\n      pop\n      pop\n      dup2\n      mstore\n      0x20\n      add\n      0x01\n      dup3\n      add\n      dup1\n      sload\n      tag_159\n      swap1\n      tag_113\n      jump\t// in\n    tag_159:\n      dup1\n      0x1f\n      add\n      0x20\n      dup1\n      swap2\n      div\n      mul\n      0x20\n      add\n      mload(0x40)\n      swap1\n      dup2\n      add\n      0x40\n      mstore\n      dup1\n      swap3\n      swap2\n      swap1\n      dup2\n      dup2\n      mstore\n      0x20\n      add\n      dup3\n      dup1\n      sload\n      tag_160\n      swap1\n      tag_113\n      jump\t// in\n    tag_160:\n      dup1\n      iszero\n      tag_161\n      jumpi\n      dup1\n      0x1f\n      lt\n      tag_162\n      jumpi\n      0x0100\n      dup1\n      dup4\n      sload\n      div\n      mul\n      dup4\n      mstore\n      swap2\n      0x20\n      add\n      swap2\n      jump(tag_161)\n    tag_162:\n      dup3\n      add\n      swap2\n      swap1\n      0x00\n      mstore\n      keccak256(0x00, 0x20)\n      swap1\n    tag_163:\n      dup2\n      sload\n      dup2\n      mstore\n      swap1\n      0x01\n      add\n      swap1\n      0x20\n      add\n      dup1\n      dup4\n      gt\n      tag_163\n      jumpi\n      dup3\n      swap1\n      sub\n      0x1f\n      and\n      dup3\n      add\n      swap2\n    tag_161:\n      pop\n      pop\n      pop\n      pop\n      pop\n      dup2\n      mstore\n      0x20\n      add\n      0x02\n      dup3\n      add\n      dup1\n      sload\n      dup1\n      0x20\n      mul\n      0x20\n      add\n      mload(0x40)\n      swap1\n      dup2\n      add\n      0x40\n      mstore\n      dup1\n      swap3\n      swap2\n      swap1\n      dup2\n      dup2\n      mstore\n      0x20\n      add\n      0x00\n      swap1\n    tag_164:\n      dup3\n      dup3\n      lt\n      iszero\n      tag_165\n      jumpi\n      dup4\n      dup3\n      swap1\n      0x00\n      mstore\n      keccak256(0x00, 0x20)\n      add\n      dup1\n      sload\n      dup1\n      0x20\n      mul\n      0x20\n      add\n      mload(0x40)\n      swap1\n      dup2\n      add\n      0x40\n      mstore\n      dup1\n      swap3\n      swap2\n      swap1\n      dup2\n      dup2\n      mstore\n      0x20\n      add\n      0x00\n      swap1\n    tag_167:\n      dup3\n      dup3\n      lt\n      iszero\n      tag_168\n      jumpi\n      dup4\n      dup3\n      swap1\n      0x00\n      mstore\n      keccak256(0x00, 0x20)\n      add\n      dup1\n      sload\n      tag_170\n      swap1\n      tag_113\n      jump\t// in\n    tag_170:\n      dup1\n      0x1f\n      add\n      0x20\n      dup1\n      swap2\n      div\n      mul\n      0x20\n      add\n      mload(0x40)\n      swap1\n      dup2\n      add\n      0x40\n      mstore\n      dup1\n      swap3\n      swap2\n      swap1\n      dup2\n      dup2\n      mstore\n      0x20\n      add\n      dup3\n      dup1\n      sload\n      tag_171\n      swap1\n      tag_113\n      jump\t// in\n    tag_171:\n      dup1\n      iszero\n      tag_172\n      jumpi\n      dup1\n      0x1f\n      lt\n      tag_173\n      jumpi\n      0x0100\n      dup1\n      dup4\n      sload\n      div\n      mul\n      dup4\n      mstore\n      swap2\n      0x20\n      add\n      swap2\n      jump(tag_172)\n    tag_173:\n      dup3\n      add\n      swap2\n      swap1\n      0x00\n      mstore\n      keccak256(0x00, 0x20)\n      swap1\n    tag_174:\n      dup2\n      sload\n      dup2\n      mstore\n      swap1\n      0x01\n      add\n      swap1\n      0x20\n      add\n      dup1\n      dup4\n      gt\n      tag_174\n      jumpi\n      dup3\n      swap1\n      sub\n      0x1f\n      and\n      dup3\n      add\n      swap2\n    tag_172:\n      pop\n      pop\n      pop\n      pop\n      pop\n      dup2\n      mstore\n      0x20\n      add\n      swap1\n      0x01\n      add\n      swap1\n      jump(tag_167)\n    tag_168:\n      pop\n      pop\n      pop\n      pop\n      dup2\n      mstore\n      0x20\n      add\n      swap1\n      0x01\n      add\n      swap1\n      jump(tag_164)\n    tag_165:\n      pop\n      pop\n      pop\n      pop\n      dup2\n      mstore\n      0x20\n      add\n      0x03\n      dup3\n      add\n      dup1\n      sload\n      dup1\n      0x20\n      mul\n      0x20\n      add\n      mload(0x40)\n      swap1\n      dup2\n      add\n      0x40\n      mstore\n      dup1\n      swap3\n      swap2\n      swap1\n      dup2\n      dup2\n      mstore\n      0x20\n      add\n      0x00\n      swap1\n    tag_175:\n      dup3\n      dup3\n      lt\n      iszero\n      tag_176\n      jumpi\n      dup4\n      dup3\n      swap1\n      0x00\n      mstore\n      keccak256(0x00, 0x20)\n      add\n      dup1\n      sload\n      dup1\n      0x20\n      mul\n      0x20\n      add\n      mload(0x40)\n      swap1\n      dup2\n      add\n      0x40\n      mstore\n      dup1\n      swap3\n      swap2\n      swap1\n      dup2\n      dup2\n      mstore\n      0x20\n      add\n      0x00\n      swap1\n    tag_178:\n      dup3\n      dup3\n      lt\n      iszero\n      tag_179\n      jumpi\n      dup4\n      dup3\n      swap1\n      0x00\n      mstore\n      keccak256(0x00, 0x20)\n      add\n      dup1\n      sload\n      tag_181\n      swap1\n      tag_113\n      jump\t// in\n    tag_181:\n      dup1\n      0x1f\n      add\n      0x20\n      dup1\n      swap2\n      div\n      mul\n      0x20\n      add\n      mload(0x40)\n      swap1\n      dup2\n      add\n      0x40\n      mstore\n      dup1\n      swap3\n      swap2\n      swap1\n      dup2\n      dup2\n      mstore\n      0x20\n      add\n      dup3\n      dup1\n      sload\n      tag_182\n      swap1\n      tag_113\n      jump\t// in\n    tag_182:\n      dup1\n      iszero\n      tag_183\n      jumpi\n      dup1\n      0x1f\n      lt\n      tag_184\n      jumpi\n      0x0100\n      dup1\n      dup4\n      sload\n      div\n      mul\n      dup4\n      mstore\n      swap2\n      0x20\n      add\n      swap2\n      jump(tag_183)\n    tag_184:\n      dup3\n      add\n      swap2\n      swap1\n      0x00\n      mstore\n      keccak256(0x00, 0x20)\n      swap1\n    tag_185:\n      dup2\n      sload\n      dup2\n      mstore\n      swap1\n      0x01\n      add\n      swap1\n      0x20\n      add\n      dup1\n      dup4\n      gt\n      tag_185\n      jumpi\n      dup3\n      swap1\n      sub\n      0x1f\n      and\n      dup3\n      add\n      swap2\n    tag_183:\n      pop\n      pop\n      pop\n      pop\n      pop\n      dup2\n      mstore\n      0x20\n      add\n      swap1\n      0x01\n      add\n      swap1\n      jump(tag_178)\n    tag_179:\n      pop\n      pop\n      pop\n      pop\n      dup2\n      mstore\n      0x20\n      add\n      swap1\n      0x01\n      add\n      swap1\n      jump(tag_175)\n    tag_176:\n      pop\n      pop\n      pop\n      pop\n      dup2\n      mstore\n      pop\n      pop\n      dup2\n      mstore\n      0x20\n      add\n      swap1\n      0x01\n      add\n      swap1\n      jump(tag_151)\n    tag_152:\n      pop\n      pop\n      pop\n      pop\n      swap1\n      pop\n        /* \"blc.sol\":6281:6373  function patchDetails() public view returns (Patch[] memory) {... */\n      swap1\n      jump\t// out\n        /* \"blc.sol\":2399:3230  function requestPatch(string memory _name,string memory _desc,string[][] memory _bugs,string[][] memory _features) public {... */\n    tag_33:\n        /* \"blc.sol\":2531:2538  patches */\n      0x04\n        /* \"blc.sol\":2544:2578  Patch(_name,_desc,_bugs,_features) */\n      mload(0x40)\n      dup1\n      0x80\n      add\n      0x40\n      mstore\n      dup1\n        /* \"blc.sol\":2550:2555  _name */\n      dup7\n        /* \"blc.sol\":2544:2578  Patch(_name,_desc,_bugs,_features) */\n      dup2\n      mstore\n      0x20\n      add\n        /* \"blc.sol\":2556:2561  _desc */\n      dup6\n        /* \"blc.sol\":2544:2578  Patch(_name,_desc,_bugs,_features) */\n      dup2\n      mstore\n      0x20\n      add\n        /* \"blc.sol\":2562:2567  _bugs */\n      dup5\n        /* \"blc.sol\":2544:2578  Patch(_name,_desc,_bugs,_features) */\n      dup2\n      mstore\n      0x20\n      add\n        /* \"blc.sol\":2568:2577  _features */\n      dup4\n        /* \"blc.sol\":2544:2578  Patch(_name,_desc,_bugs,_features) */\n      dup2\n      mstore\n      pop\n        /* \"blc.sol\":2531:2579  patches.push(Patch(_name,_desc,_bugs,_features)) */\n      swap1\n      dup1\n      0x01\n      dup2\n      sload\n      add\n      dup1\n      dup3\n      sstore\n      dup1\n      swap2\n      pop\n      pop\n      0x01\n      swap1\n      sub\n      swap1\n      0x00\n      mstore\n      keccak256(0x00, 0x20)\n      swap1\n      0x04\n      mul\n      add\n      0x00\n      swap1\n      swap2\n      swap1\n      swap2\n      swap1\n      swap2\n      pop\n      0x00\n      dup3\n      add\n      mload\n      dup2\n      0x00\n      add\n      swap1\n      dup2\n      tag_188\n      swap2\n      swap1\n      tag_83\n      jump\t// in\n    tag_188:\n      pop\n      0x20\n      dup3\n      add\n      mload\n      dup2\n      0x01\n      add\n      swap1\n      dup2\n      tag_189\n      swap2\n      swap1\n      tag_83\n      jump\t// in\n    tag_189:\n      pop\n      0x40\n      dup3\n      add\n      mload\n      dup2\n      0x02\n      add\n      swap1\n      dup1\n      mload\n      swap1\n      0x20\n      add\n      swap1\n      tag_190\n      swap3\n      swap2\n      swap1\n      tag_191\n      jump\t// in\n    tag_190:\n      pop\n      0x60\n      dup3\n      add\n      mload\n      dup2\n      0x03\n      add\n      swap1\n      dup1\n      mload\n      swap1\n      0x20\n      add\n      swap1\n      tag_192\n      swap3\n      swap2\n      swap1\n      tag_191\n      jump\t// in\n    tag_192:\n      pop\n      pop\n      pop\n        /* \"blc.sol\":2594:2600  uint i */\n      0x00\n        /* \"blc.sol\":2589:2890  for (uint i=0;i<Unassigned_bugs.length;i++){... */\n    tag_193:\n        /* \"blc.sol\":2605:2620  Unassigned_bugs */\n      0x01\n        /* \"blc.sol\":2605:2627  Unassigned_bugs.length */\n      dup1\n      sload\n      swap1\n      pop\n        /* \"blc.sol\":2603:2604  i */\n      dup2\n        /* \"blc.sol\":2603:2627  i<Unassigned_bugs.length */\n      lt\n        /* \"blc.sol\":2589:2890  for (uint i=0;i<Unassigned_bugs.length;i++){... */\n      iszero\n      tag_194\n      jumpi\n        /* \"blc.sol\":2650:2656  uint j */\n      0x00\n        /* \"blc.sol\":2646:2880  for(uint j=0;j<_bugs.length;j++){... */\n    tag_196:\n        /* \"blc.sol\":2661:2666  _bugs */\n      dup4\n        /* \"blc.sol\":2661:2673  _bugs.length */\n      mload\n        /* \"blc.sol\":2659:2660  j */\n      dup2\n        /* \"blc.sol\":2659:2673  j<_bugs.length */\n      lt\n        /* \"blc.sol\":2646:2880  for(uint j=0;j<_bugs.length;j++){... */\n      iszero\n      tag_197\n      jumpi\n        /* \"blc.sol\":2782:2787  _bugs */\n      dup4\n        /* \"blc.sol\":2788:2789  j */\n      dup2\n        /* \"blc.sol\":2782:2790  _bugs[j] */\n      dup2\n      mload\n      dup2\n      lt\n      tag_199\n      jumpi\n      tag_200\n      tag_70\n      jump\t// in\n    tag_200:\n    tag_199:\n      0x20\n      mul\n      0x20\n      add\n      add\n      mload\n        /* \"blc.sol\":2791:2792  0 */\n      0x00\n        /* \"blc.sol\":2782:2793  _bugs[j][0] */\n      dup2\n      mload\n      dup2\n      lt\n      tag_201\n      jumpi\n      tag_202\n      tag_70\n      jump\t// in\n    tag_202:\n    tag_201:\n      0x20\n      mul\n      0x20\n      add\n      add\n      mload\n        /* \"blc.sol\":2765:2794  abi.encodePacked(_bugs[j][0]) */\n      add(0x20, mload(0x40))\n      tag_203\n      swap2\n      swap1\n      tag_204\n      jump\t// in\n    tag_203:\n      mload(0x40)\n      0x20\n      dup2\n      dup4\n      sub\n      sub\n      dup2\n      mstore\n      swap1\n      0x40\n      mstore\n        /* \"blc.sol\":2755:2795  keccak256(abi.encodePacked(_bugs[j][0])) */\n      dup1\n      mload\n      swap1\n      0x20\n      add\n      keccak256\n        /* \"blc.sol\":2726:2741  Unassigned_bugs */\n      0x01\n        /* \"blc.sol\":2742:2743  i */\n      dup4\n        /* \"blc.sol\":2726:2744  Unassigned_bugs[i] */\n      dup2\n      sload\n      dup2\n      lt\n      tag_205\n      jumpi\n      tag_206\n      tag_70\n      jump\t// in\n    tag_206:\n    tag_205:\n      swap1\n      0x00\n      mstore\n      keccak256(0x00, 0x20)\n      swap1\n      0x03\n      mul\n      add\n        /* \"blc.sol\":2726:2749  Unassigned_bugs[i].name */\n      0x00\n      add\n        /* \"blc.sol\":2709:2750  abi.encodePacked(Unassigned_bugs[i].name) */\n      add(0x20, mload(0x40))\n      tag_208\n      swap2\n      swap1\n      tag_209\n      jump\t// in\n    tag_208:\n      mload(0x40)\n      0x20\n      dup2\n      dup4\n      sub\n      sub\n      dup2\n      mstore\n      swap1\n      0x40\n      mstore\n        /* \"blc.sol\":2699:2751  keccak256(abi.encodePacked(Unassigned_bugs[i].name)) */\n      dup1\n      mload\n      swap1\n      0x20\n      add\n      keccak256\n        /* \"blc.sol\":2699:2795  keccak256(abi.encodePacked(Unassigned_bugs[i].name)) == keccak256(abi.encodePacked(_bugs[j][0])) */\n      sub\n        /* \"blc.sol\":2696:2866  if(keccak256(abi.encodePacked(Unassigned_bugs[i].name)) == keccak256(abi.encodePacked(_bugs[j][0]))){... */\n      tag_210\n      jumpi\n        /* \"blc.sol\":2818:2847  removeBug(i, Unassigned_bugs) */\n      tag_211\n        /* \"blc.sol\":2828:2829  i */\n      dup3\n        /* \"blc.sol\":2831:2846  Unassigned_bugs */\n      0x01\n        /* \"blc.sol\":2818:2827  removeBug */\n      tag_212\n        /* \"blc.sol\":2818:2847  removeBug(i, Unassigned_bugs) */\n      jump\t// in\n    tag_211:\n        /* \"blc.sol\":2696:2866  if(keccak256(abi.encodePacked(Unassigned_bugs[i].name)) == keccak256(abi.encodePacked(_bugs[j][0]))){... */\n    tag_210:\n        /* \"blc.sol\":2674:2677  j++ */\n      dup1\n      dup1\n      tag_213\n      swap1\n      tag_87\n      jump\t// in\n    tag_213:\n      swap2\n      pop\n      pop\n        /* \"blc.sol\":2646:2880  for(uint j=0;j<_bugs.length;j++){... */\n      jump(tag_196)\n    tag_197:\n      pop\n        /* \"blc.sol\":2628:2631  i++ */\n      dup1\n      dup1\n      tag_214\n      swap1\n      tag_87\n      jump\t// in\n    tag_214:\n      swap2\n      pop\n      pop\n        /* \"blc.sol\":2589:2890  for (uint i=0;i<Unassigned_bugs.length;i++){... */\n      jump(tag_193)\n    tag_194:\n      pop\n        /* \"blc.sol\":2904:2910  uint i */\n      0x00\n        /* \"blc.sol\":2899:3224  for (uint i=0;i<Unassigned_features.length;i++){... */\n    tag_215:\n        /* \"blc.sol\":2915:2934  Unassigned_features */\n      0x03\n        /* \"blc.sol\":2915:2941  Unassigned_features.length */\n      dup1\n      sload\n      swap1\n      pop\n        /* \"blc.sol\":2913:2914  i */\n      dup2\n        /* \"blc.sol\":2913:2941  i<Unassigned_features.length */\n      lt\n        /* \"blc.sol\":2899:3224  for (uint i=0;i<Unassigned_features.length;i++){... */\n      iszero\n      tag_216\n      jumpi\n        /* \"blc.sol\":2964:2970  uint j */\n      0x00\n        /* \"blc.sol\":2960:3214  for(uint j=0;j<_features.length;j++){... */\n    tag_218:\n        /* \"blc.sol\":2975:2984  _features */\n      dup3\n        /* \"blc.sol\":2975:2991  _features.length */\n      mload\n        /* \"blc.sol\":2973:2974  j */\n      dup2\n        /* \"blc.sol\":2973:2991  j<_features.length */\n      lt\n        /* \"blc.sol\":2960:3214  for(uint j=0;j<_features.length;j++){... */\n      iszero\n      tag_219\n      jumpi\n        /* \"blc.sol\":3104:3113  _features */\n      dup3\n        /* \"blc.sol\":3114:3115  j */\n      dup2\n        /* \"blc.sol\":3104:3116  _features[j] */\n      dup2\n      mload\n      dup2\n      lt\n      tag_221\n      jumpi\n      tag_222\n      tag_70\n      jump\t// in\n    tag_222:\n    tag_221:\n      0x20\n      mul\n      0x20\n      add\n      add\n      mload\n        /* \"blc.sol\":3117:3118  0 */\n      0x00\n        /* \"blc.sol\":3104:3119  _features[j][0] */\n      dup2\n      mload\n      dup2\n      lt\n      tag_223\n      jumpi\n      tag_224\n      tag_70\n      jump\t// in\n    tag_224:\n    tag_223:\n      0x20\n      mul\n      0x20\n      add\n      add\n      mload\n        /* \"blc.sol\":3087:3120  abi.encodePacked(_features[j][0]) */\n      add(0x20, mload(0x40))\n      tag_225\n      swap2\n      swap1\n      tag_204\n      jump\t// in\n    tag_225:\n      mload(0x40)\n      0x20\n      dup2\n      dup4\n      sub\n      sub\n      dup2\n      mstore\n      swap1\n      0x40\n      mstore\n        /* \"blc.sol\":3077:3121  keccak256(abi.encodePacked(_features[j][0])) */\n      dup1\n      mload\n      swap1\n      0x20\n      add\n      keccak256\n        /* \"blc.sol\":3044:3063  Unassigned_features */\n      0x03\n        /* \"blc.sol\":3064:3065  i */\n      dup4\n        /* \"blc.sol\":3044:3066  Unassigned_features[i] */\n      dup2\n      sload\n      dup2\n      lt\n      tag_226\n      jumpi\n      tag_227\n      tag_70\n      jump\t// in\n    tag_227:\n    tag_226:\n      swap1\n      0x00\n      mstore\n      keccak256(0x00, 0x20)\n      swap1\n      0x03\n      mul\n      add\n        /* \"blc.sol\":3044:3071  Unassigned_features[i].name */\n      0x00\n      add\n        /* \"blc.sol\":3027:3072  abi.encodePacked(Unassigned_features[i].name) */\n      add(0x20, mload(0x40))\n      tag_229\n      swap2\n      swap1\n      tag_209\n      jump\t// in\n    tag_229:\n      mload(0x40)\n      0x20\n      dup2\n      dup4\n      sub\n      sub\n      dup2\n      mstore\n      swap1\n      0x40\n      mstore\n        /* \"blc.sol\":3017:3073  keccak256(abi.encodePacked(Unassigned_features[i].name)) */\n      dup1\n      mload\n      swap1\n      0x20\n      add\n      keccak256\n        /* \"blc.sol\":3017:3121  keccak256(abi.encodePacked(Unassigned_features[i].name)) == keccak256(abi.encodePacked(_features[j][0])) */\n      sub\n        /* \"blc.sol\":3014:3200  if(keccak256(abi.encodePacked(Unassigned_features[i].name)) == keccak256(abi.encodePacked(_features[j][0]))){... */\n      tag_230\n      jumpi\n        /* \"blc.sol\":3144:3181  removeFeature(i, Unassigned_features) */\n      tag_231\n        /* \"blc.sol\":3158:3159  i */\n      dup3\n        /* \"blc.sol\":3161:3180  Unassigned_features */\n      0x03\n        /* \"blc.sol\":3144:3157  removeFeature */\n      tag_232\n        /* \"blc.sol\":3144:3181  removeFeature(i, Unassigned_features) */\n      jump\t// in\n    tag_231:\n        /* \"blc.sol\":3014:3200  if(keccak256(abi.encodePacked(Unassigned_features[i].name)) == keccak256(abi.encodePacked(_features[j][0]))){... */\n    tag_230:\n        /* \"blc.sol\":2992:2995  j++ */\n      dup1\n      dup1\n      tag_233\n      swap1\n      tag_87\n      jump\t// in\n    tag_233:\n      swap2\n      pop\n      pop\n        /* \"blc.sol\":2960:3214  for(uint j=0;j<_features.length;j++){... */\n      jump(tag_218)\n    tag_219:\n      pop\n        /* \"blc.sol\":2942:2945  i++ */\n      dup1\n      dup1\n      tag_234\n      swap1\n      tag_87\n      jump\t// in\n    tag_234:\n      swap2\n      pop\n      pop\n        /* \"blc.sol\":2899:3224  for (uint i=0;i<Unassigned_features.length;i++){... */\n      jump(tag_215)\n    tag_216:\n      pop\n        /* \"blc.sol\":2399:3230  function requestPatch(string memory _name,string memory _desc,string[][] memory _bugs,string[][] memory _features) public {... */\n      pop\n      pop\n      pop\n      pop\n      jump\t// out\n        /* \"blc.sol\":5832:5936  function requestedPatches()public view returns (PatchFile[] memory){... */\n    tag_35:\n        /* \"blc.sol\":5880:5898  PatchFile[] memory */\n      0x60\n        /* \"blc.sol\":5916:5929  check_patches */\n      0x05\n        /* \"blc.sol\":5909:5929  return check_patches */\n      dup1\n      sload\n      dup1\n      0x20\n      mul\n      0x20\n      add\n      mload(0x40)\n      swap1\n      dup2\n      add\n      0x40\n      mstore\n      dup1\n      swap3\n      swap2\n      swap1\n      dup2\n      dup2\n      mstore\n      0x20\n      add\n      0x00\n      swap1\n    tag_236:\n      dup3\n      dup3\n      lt\n      iszero\n      tag_237\n      jumpi\n      dup4\n      dup3\n      swap1\n      0x00\n      mstore\n      keccak256(0x00, 0x20)\n      swap1\n      0x06\n      mul\n      add\n      mload(0x40)\n      dup1\n      0xe0\n      add\n      0x40\n      mstore\n      swap1\n      dup2\n      0x00\n      dup3\n      add\n      dup1\n      sload\n      tag_239\n      swap1\n      tag_113\n      jump\t// in\n    tag_239:\n      dup1\n      0x1f\n      add\n      0x20\n      dup1\n      swap2\n      div\n      mul\n      0x20\n      add\n      mload(0x40)\n      swap1\n      dup2\n      add\n      0x40\n      mstore\n      dup1\n      swap3\n      swap2\n      swap1\n      dup2\n      dup2\n      mstore\n      0x20\n      add\n      dup3\n      dup1\n      sload\n      tag_240\n      swap1\n      tag_113\n      jump\t// in\n    tag_240:\n      dup1\n      iszero\n      tag_241\n      jumpi\n      dup1\n      0x1f\n      lt\n      tag_242\n      jumpi\n      0x0100\n      dup1\n      dup4\n      sload\n      div\n      mul\n      dup4\n      mstore\n      swap2\n      0x20\n      add\n      swap2\n      jump(tag_241)\n    tag_242:\n      dup3\n      add\n      swap2\n      swap1\n      0x00\n      mstore\n      keccak256(0x00, 0x20)\n      swap1\n    tag_243:\n      dup2\n      sload\n      dup2\n      mstore\n      swap1\n      0x01\n      add\n      swap1\n      0x20\n      add\n      dup1\n      dup4\n      gt\n      tag_243\n      jumpi\n      dup3\n      swap1\n      sub\n      0x1f\n      and\n      dup3\n      add\n      swap2\n    tag_241:\n      pop\n      pop\n      pop\n      pop\n      pop\n      dup2\n      mstore\n      0x20\n      add\n      0x01\n      dup3\n      add\n      dup1\n      sload\n      tag_244\n      swap1\n      tag_113\n      jump\t// in\n    tag_244:\n      dup1\n      0x1f\n      add\n      0x20\n      dup1\n      swap2\n      div\n      mul\n      0x20\n      add\n      mload(0x40)\n      swap1\n      dup2\n      add\n      0x40\n      mstore\n      dup1\n      swap3\n      swap2\n      swap1\n      dup2\n      dup2\n      mstore\n      0x20\n      add\n      dup3\n      dup1\n      sload\n      tag_245\n      swap1\n      tag_113\n      jump\t// in\n    tag_245:\n      dup1\n      iszero\n      tag_246\n      jumpi\n      dup1\n      0x1f\n      lt\n      tag_247\n      jumpi\n      0x0100\n      dup1\n      dup4\n      sload\n      div\n      mul\n      dup4\n      mstore\n      swap2\n      0x20\n      add\n      swap2\n      jump(tag_246)\n    tag_247:\n      dup3\n      add\n      swap2\n      swap1\n      0x00\n      mstore\n      keccak256(0x00, 0x20)\n      swap1\n    tag_248:\n      dup2\n      sload\n      dup2\n      mstore\n      swap1\n      0x01\n      add\n      swap1\n      0x20\n      add\n      dup1\n      dup4\n      gt\n      tag_248\n      jumpi\n      dup3\n      swap1\n      sub\n      0x1f\n      and\n      dup3\n      add\n      swap2\n    tag_246:\n      pop\n      pop\n      pop\n      pop\n      pop\n      dup2\n      mstore\n      0x20\n      add\n      0x02\n      dup3\n      add\n      dup1\n      sload\n      dup1\n      0x20\n      mul\n      0x20\n      add\n      mload(0x40)\n      swap1\n      dup2\n      add\n      0x40\n      mstore\n      dup1\n      swap3\n      swap2\n      swap1\n      dup2\n      dup2\n      mstore\n      0x20\n      add\n      0x00\n      swap1\n    tag_249:\n      dup3\n      dup3\n      lt\n      iszero\n      tag_250\n      jumpi\n      dup4\n      dup3\n      swap1\n      0x00\n      mstore\n      keccak256(0x00, 0x20)\n      add\n      dup1\n      sload\n      dup1\n      0x20\n      mul\n      0x20\n      add\n      mload(0x40)\n      swap1\n      dup2\n      add\n      0x40\n      mstore\n      dup1\n      swap3\n      swap2\n      swap1\n      dup2\n      dup2\n      mstore\n      0x20\n      add\n      0x00\n      swap1\n    tag_252:\n      dup3\n      dup3\n      lt\n      iszero\n      tag_253\n      jumpi\n      dup4\n      dup3\n      swap1\n      0x00\n      mstore\n      keccak256(0x00, 0x20)\n      add\n      dup1\n      sload\n      tag_255\n      swap1\n      tag_113\n      jump\t// in\n    tag_255:\n      dup1\n      0x1f\n      add\n      0x20\n      dup1\n      swap2\n      div\n      mul\n      0x20\n      add\n      mload(0x40)\n      swap1\n      dup2\n      add\n      0x40\n      mstore\n      dup1\n      swap3\n      swap2\n      swap1\n      dup2\n      dup2\n      mstore\n      0x20\n      add\n      dup3\n      dup1\n      sload\n      tag_256\n      swap1\n      tag_113\n      jump\t// in\n    tag_256:\n      dup1\n      iszero\n      tag_257\n      jumpi\n      dup1\n      0x1f\n      lt\n      tag_258\n      jumpi\n      0x0100\n      dup1\n      dup4\n      sload\n      div\n      mul\n      dup4\n      mstore\n      swap2\n      0x20\n      add\n      swap2\n      jump(tag_257)\n    tag_258:\n      dup3\n      add\n      swap2\n      swap1\n      0x00\n      mstore\n      keccak256(0x00, 0x20)\n      swap1\n    tag_259:\n      dup2\n      sload\n      dup2\n      mstore\n      swap1\n      0x01\n      add\n      swap1\n      0x20\n      add\n      dup1\n      dup4\n      gt\n      tag_259\n      jumpi\n      dup3\n      swap1\n      sub\n      0x1f\n      and\n      dup3\n      add\n      swap2\n    tag_257:\n      pop\n      pop\n      pop\n      pop\n      pop\n      dup2\n      mstore\n      0x20\n      add\n      swap1\n      0x01\n      add\n      swap1\n      jump(tag_252)\n    tag_253:\n      pop\n      pop\n      pop\n      pop\n      dup2\n      mstore\n      0x20\n      add\n      swap1\n      0x01\n      add\n      swap1\n      jump(tag_249)\n    tag_250:\n      pop\n      pop\n      pop\n      pop\n      dup2\n      mstore\n      0x20\n      add\n      0x03\n      dup3\n      add\n      dup1\n      sload\n      dup1\n      0x20\n      mul\n      0x20\n      add\n      mload(0x40)\n      swap1\n      dup2\n      add\n      0x40\n      mstore\n      dup1\n      swap3\n      swap2\n      swap1\n      dup2\n      dup2\n      mstore\n      0x20\n      add\n      0x00\n      swap1\n    tag_260:\n      dup3\n      dup3\n      lt\n      iszero\n      tag_261\n      jumpi\n      dup4\n      dup3\n      swap1\n      0x00\n      mstore\n      keccak256(0x00, 0x20)\n      add\n      dup1\n      sload\n      dup1\n      0x20\n      mul\n      0x20\n      add\n      mload(0x40)\n      swap1\n      dup2\n      add\n      0x40\n      mstore\n      dup1\n      swap3\n      swap2\n      swap1\n      dup2\n      dup2\n      mstore\n      0x20\n      add\n      0x00\n      swap1\n    tag_263:\n      dup3\n      dup3\n      lt\n      iszero\n      tag_264\n      jumpi\n      dup4\n      dup3\n      swap1\n      0x00\n      mstore\n      keccak256(0x00, 0x20)\n      add\n      dup1\n      sload\n      tag_266\n      swap1\n      tag_113\n      jump\t// in\n    tag_266:\n      dup1\n      0x1f\n      add\n      0x20\n      dup1\n      swap2\n      div\n      mul\n      0x20\n      add\n      mload(0x40)\n      swap1\n      dup2\n      add\n      0x40\n      mstore\n      dup1\n      swap3\n      swap2\n      swap1\n      dup2\n      dup2\n      mstore\n      0x20\n      add\n      dup3\n      dup1\n      sload\n      tag_267\n      swap1\n      tag_113\n      jump\t// in\n    tag_267:\n      dup1\n      iszero\n      tag_268\n      jumpi\n      dup1\n      0x1f\n      lt\n      tag_269\n      jumpi\n      0x0100\n      dup1\n      dup4\n      sload\n      div\n      mul\n      dup4\n      mstore\n      swap2\n      0x20\n      add\n      swap2\n      jump(tag_268)\n    tag_269:\n      dup3\n      add\n      swap2\n      swap1\n      0x00\n      mstore\n      keccak256(0x00, 0x20)\n      swap1\n    tag_270:\n      dup2\n      sload\n      dup2\n      mstore\n      swap1\n      0x01\n      add\n      swap1\n      0x20\n      add\n      dup1\n      dup4\n      gt\n      tag_270\n      jumpi\n      dup3\n      swap1\n      sub\n      0x1f\n      and\n      dup3\n      add\n      swap2\n    tag_268:\n      pop\n      pop\n      pop\n      pop\n      pop\n      dup2\n      mstore\n      0x20\n      add\n      swap1\n      0x01\n      add\n      swap1\n      jump(tag_263)\n    tag_264:\n      pop\n      pop\n      pop\n      pop\n      dup2\n      mstore\n      0x20\n      add\n      swap1\n      0x01\n      add\n      swap1\n      jump(tag_260)\n    tag_261:\n      pop\n      pop\n      pop\n      pop\n      dup2\n      mstore\n      0x20\n      add\n      0x04\n      dup3\n      add\n      dup1\n      sload\n      tag_271\n      swap1\n      tag_113\n      jump\t// in\n    tag_271:\n      dup1\n      0x1f\n      add\n      0x20\n      dup1\n      swap2\n      div\n      mul\n      0x20\n      add\n      mload(0x40)\n      swap1\n      dup2\n      add\n      0x40\n      mstore\n      dup1\n      swap3\n      swap2\n      swap1\n      dup2\n      dup2\n      mstore\n      0x20\n      add\n      dup3\n      dup1\n      sload\n      tag_272\n      swap1\n      tag_113\n      jump\t// in\n    tag_272:\n      dup1\n      iszero\n      tag_273\n      jumpi\n      dup1\n      0x1f\n      lt\n      tag_274\n      jumpi\n      0x0100\n      dup1\n      dup4\n      sload\n      div\n      mul\n      dup4\n      mstore\n      swap2\n      0x20\n      add\n      swap2\n      jump(tag_273)\n    tag_274:\n      dup3\n      add\n      swap2\n      swap1\n      0x00\n      mstore\n      keccak256(0x00, 0x20)\n      swap1\n    tag_275:\n      dup2\n      sload\n      dup2\n      mstore\n      swap1\n      0x01\n      add\n      swap1\n      0x20\n      add\n      dup1\n      dup4\n      gt\n      tag_275\n      jumpi\n      dup3\n      swap1\n      sub\n      0x1f\n      and\n      dup3\n      add\n      swap2\n    tag_273:\n      pop\n      pop\n      pop\n      pop\n      pop\n      dup2\n      mstore\n      0x20\n      add\n      0x05\n      dup3\n      add\n      0x00\n      swap1\n      sload\n      swap1\n      0x0100\n      exp\n      swap1\n      div\n      0xff\n      and\n      iszero\n      iszero\n      iszero\n      iszero\n      dup2\n      mstore\n      0x20\n      add\n      0x05\n      dup3\n      add\n      0x01\n      swap1\n      sload\n      swap1\n      0x0100\n      exp\n      swap1\n      div\n      0xff\n      and\n      iszero\n      iszero\n      iszero\n      iszero\n      dup2\n      mstore\n      pop\n      pop\n      dup2\n      mstore\n      0x20\n      add\n      swap1\n      0x01\n      add\n      swap1\n      jump(tag_236)\n    tag_237:\n      pop\n      pop\n      pop\n      pop\n      swap1\n      pop\n        /* \"blc.sol\":5832:5936  function requestedPatches()public view returns (PatchFile[] memory){... */\n      swap1\n      jump\t// out\n        /* \"blc.sol\":6055:6162  function rejectedPatches() public view returns (PatchFile[] memory){... */\n    tag_38:\n        /* \"blc.sol\":6103:6121  PatchFile[] memory */\n      0x60\n        /* \"blc.sol\":6139:6155  rejected_patches */\n      0x07\n        /* \"blc.sol\":6132:6155  return rejected_patches */\n      dup1\n      sload\n      dup1\n      0x20\n      mul\n      0x20\n      add\n      mload(0x40)\n      swap1\n      dup2\n      add\n      0x40\n      mstore\n      dup1\n      swap3\n      swap2\n      swap1\n      dup2\n      dup2\n      mstore\n      0x20\n      add\n      0x00\n      swap1\n    tag_277:\n      dup3\n      dup3\n      lt\n      iszero\n      tag_278\n      jumpi\n      dup4\n      dup3\n      swap1\n      0x00\n      mstore\n      keccak256(0x00, 0x20)\n      swap1\n      0x06\n      mul\n      add\n      mload(0x40)\n      dup1\n      0xe0\n      add\n      0x40\n      mstore\n      swap1\n      dup2\n      0x00\n      dup3\n      add\n      dup1\n      sload\n      tag_280\n      swap1\n      tag_113\n      jump\t// in\n    tag_280:\n      dup1\n      0x1f\n      add\n      0x20\n      dup1\n      swap2\n      div\n      mul\n      0x20\n      add\n      mload(0x40)\n      swap1\n      dup2\n      add\n      0x40\n      mstore\n      dup1\n      swap3\n      swap2\n      swap1\n      dup2\n      dup2\n      mstore\n      0x20\n      add\n      dup3\n      dup1\n      sload\n      tag_281\n      swap1\n      tag_113\n      jump\t// in\n    tag_281:\n      dup1\n      iszero\n      tag_282\n      jumpi\n      dup1\n      0x1f\n      lt\n      tag_283\n      jumpi\n      0x0100\n      dup1\n      dup4\n      sload\n      div\n      mul\n      dup4\n      mstore\n      swap2\n      0x20\n      add\n      swap2\n      jump(tag_282)\n    tag_283:\n      dup3\n      add\n      swap2\n      swap1\n      0x00\n      mstore\n      keccak256(0x00, 0x20)\n      swap1\n    tag_284:\n      dup2\n      sload\n      dup2\n      mstore\n      swap1\n      0x01\n      add\n      swap1\n      0x20\n      add\n      dup1\n      dup4\n      gt\n      tag_284\n      jumpi\n      dup3\n      swap1\n      sub\n      0x1f\n      and\n      dup3\n      add\n      swap2\n    tag_282:\n      pop\n      pop\n      pop\n      pop\n      pop\n      dup2\n      mstore\n      0x20\n      add\n      0x01\n      dup3\n      add\n      dup1\n      sload\n      tag_285\n      swap1\n      tag_113\n      jump\t// in\n    tag_285:\n      dup1\n      0x1f\n      add\n      0x20\n      dup1\n      swap2\n      div\n      mul\n      0x20\n      add\n      mload(0x40)\n      swap1\n      dup2\n      add\n      0x40\n      mstore\n      dup1\n      swap3\n      swap2\n      swap1\n      dup2\n      dup2\n      mstore\n      0x20\n      add\n      dup3\n      dup1\n      sload\n      tag_286\n      swap1\n      tag_113\n      jump\t// in\n    tag_286:\n      dup1\n      iszero\n      tag_287\n      jumpi\n      dup1\n      0x1f\n      lt\n      tag_288\n      jumpi\n      0x0100\n      dup1\n      dup4\n      sload\n      div\n      mul\n      dup4\n      mstore\n      swap2\n      0x20\n      add\n      swap2\n      jump(tag_287)\n    tag_288:\n      dup3\n      add\n      swap2\n      swap1\n      0x00\n      mstore\n      keccak256(0x00, 0x20)\n      swap1\n    tag_289:\n      dup2\n      sload\n      dup2\n      mstore\n      swap1\n      0x01\n      add\n      swap1\n      0x20\n      add\n      dup1\n      dup4\n      gt\n      tag_289\n      jumpi\n      dup3\n      swap1\n      sub\n      0x1f\n      and\n      dup3\n      add\n      swap2\n    tag_287:\n      pop\n      pop\n      pop\n      pop\n      pop\n      dup2\n      mstore\n      0x20\n      add\n      0x02\n      dup3\n      add\n      dup1\n      sload\n      dup1\n      0x20\n      mul\n      0x20\n      add\n      mload(0x40)\n      swap1\n      dup2\n      add\n      0x40\n      mstore\n      dup1\n      swap3\n      swap2\n      swap1\n      dup2\n      dup2\n      mstore\n      0x20\n      add\n      0x00\n      swap1\n    tag_290:\n      dup3\n      dup3\n      lt\n      iszero\n      tag_291\n      jumpi\n      dup4\n      dup3\n      swap1\n      0x00\n      mstore\n      keccak256(0x00, 0x20)\n      add\n      dup1\n      sload\n      dup1\n      0x20\n      mul\n      0x20\n      add\n      mload(0x40)\n      swap1\n      dup2\n      add\n      0x40\n      mstore\n      dup1\n      swap3\n      swap2\n      swap1\n      dup2\n      dup2\n      mstore\n      0x20\n      add\n      0x00\n      swap1\n    tag_293:\n      dup3\n      dup3\n      lt\n      iszero\n      tag_294\n      jumpi\n      dup4\n      dup3\n      swap1\n      0x00\n      mstore\n      keccak256(0x00, 0x20)\n      add\n      dup1\n      sload\n      tag_296\n      swap1\n      tag_113\n      jump\t// in\n    tag_296:\n      dup1\n      0x1f\n      add\n      0x20\n      dup1\n      swap2\n      div\n      mul\n      0x20\n      add\n      mload(0x40)\n      swap1\n      dup2\n      add\n      0x40\n      mstore\n      dup1\n      swap3\n      swap2\n      swap1\n      dup2\n      dup2\n      mstore\n      0x20\n      add\n      dup3\n      dup1\n      sload\n      tag_297\n      swap1\n      tag_113\n      jump\t// in\n    tag_297:\n      dup1\n      iszero\n      tag_298\n      jumpi\n      dup1\n      0x1f\n      lt\n      tag_299\n      jumpi\n      0x0100\n      dup1\n      dup4\n      sload\n      div\n      mul\n      dup4\n      mstore\n      swap2\n      0x20\n      add\n      swap2\n      jump(tag_298)\n    tag_299:\n      dup3\n      add\n      swap2\n      swap1\n      0x00\n      mstore\n      keccak256(0x00, 0x20)\n      swap1\n    tag_300:\n      dup2\n      sload\n      dup2\n      mstore\n      swap1\n      0x01\n      add\n      swap1\n      0x20\n      add\n      dup1\n      dup4\n      gt\n      tag_300\n      jumpi\n      dup3\n      swap1\n      sub\n      0x1f\n      and\n      dup3\n      add\n      swap2\n    tag_298:\n      pop\n      pop\n      pop\n      pop\n      pop\n      dup2\n      mstore\n      0x20\n      add\n      swap1\n      0x01\n      add\n      swap1\n      jump(tag_293)\n    tag_294:\n      pop\n      pop\n      pop\n      pop\n      dup2\n      mstore\n      0x20\n      add\n      swap1\n      0x01\n      add\n      swap1\n      jump(tag_290)\n    tag_291:\n      pop\n      pop\n      pop\n      pop\n      dup2\n      mstore\n      0x20\n      add\n      0x03\n      dup3\n      add\n      dup1\n      sload\n      dup1\n      0x20\n      mul\n      0x20\n      add\n      mload(0x40)\n      swap1\n      dup2\n      add\n      0x40\n      mstore\n      dup1\n      swap3\n      swap2\n      swap1\n      dup2\n      dup2\n      mstore\n      0x20\n      add\n      0x00\n      swap1\n    tag_301:\n      dup3\n      dup3\n      lt\n      iszero\n      tag_302\n      jumpi\n      dup4\n      dup3\n      swap1\n      0x00\n      mstore\n      keccak256(0x00, 0x20)\n      add\n      dup1\n      sload\n      dup1\n      0x20\n      mul\n      0x20\n      add\n      mload(0x40)\n      swap1\n      dup2\n      add\n      0x40\n      mstore\n      dup1\n      swap3\n      swap2\n      swap1\n      dup2\n      dup2\n      mstore\n      0x20\n      add\n      0x00\n      swap1\n    tag_304:\n      dup3\n      dup3\n      lt\n      iszero\n      tag_305\n      jumpi\n      dup4\n      dup3\n      swap1\n      0x00\n      mstore\n      keccak256(0x00, 0x20)\n      add\n      dup1\n      sload\n      tag_307\n      swap1\n      tag_113\n      jump\t// in\n    tag_307:\n      dup1\n      0x1f\n      add\n      0x20\n      dup1\n      swap2\n      div\n      mul\n      0x20\n      add\n      mload(0x40)\n      swap1\n      dup2\n      add\n      0x40\n      mstore\n      dup1\n      swap3\n      swap2\n      swap1\n      dup2\n      dup2\n      mstore\n      0x20\n      add\n      dup3\n      dup1\n      sload\n      tag_308\n      swap1\n      tag_113\n      jump\t// in\n    tag_308:\n      dup1\n      iszero\n      tag_309\n      jumpi\n      dup1\n      0x1f\n      lt\n      tag_310\n      jumpi\n      0x0100\n      dup1\n      dup4\n      sload\n      div\n      mul\n      dup4\n      mstore\n      swap2\n      0x20\n      add\n      swap2\n      jump(tag_309)\n    tag_310:\n      dup3\n      add\n      swap2\n      swap1\n      0x00\n      mstore\n      keccak256(0x00, 0x20)\n      swap1\n    tag_311:\n      dup2\n      sload\n      dup2\n      mstore\n      swap1\n      0x01\n      add\n      swap1\n      0x20\n      add\n      dup1\n      dup4\n      gt\n      tag_311\n      jumpi\n      dup3\n      swap1\n      sub\n      0x1f\n      and\n      dup3\n      add\n      swap2\n    tag_309:\n      pop\n      pop\n      pop\n      pop\n      pop\n      dup2\n      mstore\n      0x20\n      add\n      swap1\n      0x01\n      add\n      swap1\n      jump(tag_304)\n    tag_305:\n      pop\n      pop\n      pop\n      pop\n      dup2\n      mstore\n      0x20\n      add\n      swap1\n      0x01\n      add\n      swap1\n      jump(tag_301)\n    tag_302:\n      pop\n      pop\n      pop\n      pop\n      dup2\n      mstore\n      0x20\n      add\n      0x04\n      dup3\n      add\n      dup1\n      sload\n      tag_312\n      swap1\n      tag_113\n      jump\t// in\n    tag_312:\n      dup1\n      0x1f\n      add\n      0x20\n      dup1\n      swap2\n      div\n      mul\n      0x20\n      add\n      mload(0x40)\n      swap1\n      dup2\n      add\n      0x40\n      mstore\n      dup1\n      swap3\n      swap2\n      swap1\n      dup2\n      dup2\n      mstore\n      0x20\n      add\n      dup3\n      dup1\n      sload\n      tag_313\n      swap1\n      tag_113\n      jump\t// in\n    tag_313:\n      dup1\n      iszero\n      tag_314\n      jumpi\n      dup1\n      0x1f\n      lt\n      tag_315\n      jumpi\n      0x0100\n      dup1\n      dup4\n      sload\n      div\n      mul\n      dup4\n      mstore\n      swap2\n      0x20\n      add\n      swap2\n      jump(tag_314)\n    tag_315:\n      dup3\n      add\n      swap2\n      swap1\n      0x00\n      mstore\n      keccak256(0x00, 0x20)\n      swap1\n    tag_316:\n      dup2\n      sload\n      dup2\n      mstore\n      swap1\n      0x01\n      add\n      swap1\n      0x20\n      add\n      dup1\n      dup4\n      gt\n      tag_316\n      jumpi\n      dup3\n      swap1\n      sub\n      0x1f\n      and\n      dup3\n      add\n      swap2\n    tag_314:\n      pop\n      pop\n      pop\n      pop\n      pop\n      dup2\n      mstore\n      0x20\n      add\n      0x05\n      dup3\n      add\n      0x00\n      swap1\n      sload\n      swap1\n      0x0100\n      exp\n      swap1\n      div\n      0xff\n      and\n      iszero\n      iszero\n      iszero\n      iszero\n      dup2\n      mstore\n      0x20\n      add\n      0x05\n      dup3\n      add\n      0x01\n      swap1\n      sload\n      swap1\n      0x0100\n      exp\n      swap1\n      div\n      0xff\n      and\n      iszero\n      iszero\n      iszero\n      iszero\n      dup2\n      mstore\n      pop\n      pop\n      dup2\n      mstore\n      0x20\n      add\n      swap1\n      0x01\n      add\n      swap1\n      jump(tag_277)\n    tag_278:\n      pop\n      pop\n      pop\n      pop\n      swap1\n      pop\n        /* \"blc.sol\":6055:6162  function rejectedPatches() public view returns (PatchFile[] memory){... */\n      swap1\n      jump\t// out\n        /* \"blc.sol\":3747:4281  function approvePatch(string memory _name,string memory _desc,string[][] memory _bugs,string[][] memory _features,string memory _version)public{... */\n    tag_43:\n        /* \"blc.sol\":3900:3916  approved_patches */\n      0x06\n        /* \"blc.sol\":3923:4040  PatchFile({name:_name,description:_desc,bugs:_bugs,features:_features,version:_version,approved:true,deployed:false}) */\n      mload(0x40)\n      dup1\n      0xe0\n      add\n      0x40\n      mstore\n      dup1\n        /* \"blc.sol\":3939:3944  _name */\n      dup8\n        /* \"blc.sol\":3923:4040  PatchFile({name:_name,description:_desc,bugs:_bugs,features:_features,version:_version,approved:true,deployed:false}) */\n      dup2\n      mstore\n      0x20\n      add\n        /* \"blc.sol\":3957:3962  _desc */\n      dup7\n        /* \"blc.sol\":3923:4040  PatchFile({name:_name,description:_desc,bugs:_bugs,features:_features,version:_version,approved:true,deployed:false}) */\n      dup2\n      mstore\n      0x20\n      add\n        /* \"blc.sol\":3968:3973  _bugs */\n      dup6\n        /* \"blc.sol\":3923:4040  PatchFile({name:_name,description:_desc,bugs:_bugs,features:_features,version:_version,approved:true,deployed:false}) */\n      dup2\n      mstore\n      0x20\n      add\n        /* \"blc.sol\":3983:3992  _features */\n      dup5\n        /* \"blc.sol\":3923:4040  PatchFile({name:_name,description:_desc,bugs:_bugs,features:_features,version:_version,approved:true,deployed:false}) */\n      dup2\n      mstore\n      0x20\n      add\n        /* \"blc.sol\":4001:4009  _version */\n      dup4\n        /* \"blc.sol\":3923:4040  PatchFile({name:_name,description:_desc,bugs:_bugs,features:_features,version:_version,approved:true,deployed:false}) */\n      dup2\n      mstore\n      0x20\n      add\n        /* \"blc.sol\":4019:4023  true */\n      0x01\n        /* \"blc.sol\":3923:4040  PatchFile({name:_name,description:_desc,bugs:_bugs,features:_features,version:_version,approved:true,deployed:false}) */\n      iszero\n      iszero\n      dup2\n      mstore\n      0x20\n      add\n        /* \"blc.sol\":4033:4038  false */\n      0x00\n        /* \"blc.sol\":3923:4040  PatchFile({name:_name,description:_desc,bugs:_bugs,features:_features,version:_version,approved:true,deployed:false}) */\n      iszero\n      iszero\n      dup2\n      mstore\n      pop\n        /* \"blc.sol\":3900:4042  approved_patches.push((PatchFile({name:_name,description:_desc,bugs:_bugs,features:_features,version:_version,approved:true,deployed:false}))) */\n      swap1\n      dup1\n      0x01\n      dup2\n      sload\n      add\n      dup1\n      dup3\n      sstore\n      dup1\n      swap2\n      pop\n      pop\n      0x01\n      swap1\n      sub\n      swap1\n      0x00\n      mstore\n      keccak256(0x00, 0x20)\n      swap1\n      0x06\n      mul\n      add\n      0x00\n      swap1\n      swap2\n      swap1\n      swap2\n      swap1\n      swap2\n      pop\n      0x00\n      dup3\n      add\n      mload\n      dup2\n      0x00\n      add\n      swap1\n      dup2\n      tag_319\n      swap2\n      swap1\n      tag_83\n      jump\t// in\n    tag_319:\n      pop\n      0x20\n      dup3\n      add\n      mload\n      dup2\n      0x01\n      add\n      swap1\n      dup2\n      tag_320\n      swap2\n      swap1\n      tag_83\n      jump\t// in\n    tag_320:\n      pop\n      0x40\n      dup3\n      add\n      mload\n      dup2\n      0x02\n      add\n      swap1\n      dup1\n      mload\n      swap1\n      0x20\n      add\n      swap1\n      tag_321\n      swap3\n      swap2\n      swap1\n      tag_191\n      jump\t// in\n    tag_321:\n      pop\n      0x60\n      dup3\n      add\n      mload\n      dup2\n      0x03\n      add\n      swap1\n      dup1\n      mload\n      swap1\n      0x20\n      add\n      swap1\n      tag_322\n      swap3\n      swap2\n      swap1\n      tag_191\n      jump\t// in\n    tag_322:\n      pop\n      0x80\n      dup3\n      add\n      mload\n      dup2\n      0x04\n      add\n      swap1\n      dup2\n      tag_323\n      swap2\n      swap1\n      tag_83\n      jump\t// in\n    tag_323:\n      pop\n      0xa0\n      dup3\n      add\n      mload\n      dup2\n      0x05\n      add\n      exp(0x0100, 0x00)\n      dup2\n      sload\n      dup2\n      0xff\n      mul\n      not\n      and\n      swap1\n      dup4\n      iszero\n      iszero\n      mul\n      or\n      swap1\n      sstore\n      pop\n      0xc0\n      dup3\n      add\n      mload\n      dup2\n      0x05\n      add\n      exp(0x0100, 0x01)\n      dup2\n      sload\n      dup2\n      0xff\n      mul\n      not\n      and\n      swap1\n      dup4\n      iszero\n      iszero\n      mul\n      or\n      swap1\n      sstore\n      pop\n      pop\n      pop\n        /* \"blc.sol\":4057:4063  uint i */\n      0x00\n        /* \"blc.sol\":4052:4275  for (uint i=0;i<check_patches.length;i++){... */\n    tag_324:\n        /* \"blc.sol\":4068:4081  check_patches */\n      0x05\n        /* \"blc.sol\":4068:4088  check_patches.length */\n      dup1\n      sload\n      swap1\n      pop\n        /* \"blc.sol\":4066:4067  i */\n      dup2\n        /* \"blc.sol\":4066:4088  i<check_patches.length */\n      lt\n        /* \"blc.sol\":4052:4275  for (uint i=0;i<check_patches.length;i++){... */\n      iszero\n      tag_325\n      jumpi\n        /* \"blc.sol\":4175:4188  check_patches */\n      0x05\n        /* \"blc.sol\":4189:4190  i */\n      dup2\n        /* \"blc.sol\":4175:4191  check_patches[i] */\n      dup2\n      sload\n      dup2\n      lt\n      tag_327\n      jumpi\n      tag_328\n      tag_70\n      jump\t// in\n    tag_328:\n    tag_327:\n      swap1\n      0x00\n      mstore\n      keccak256(0x00, 0x20)\n      swap1\n      0x06\n      mul\n      add\n        /* \"blc.sol\":4175:4196  check_patches[i].name */\n      0x00\n      add\n        /* \"blc.sol\":4158:4197  abi.encodePacked(check_patches[i].name) */\n      add(0x20, mload(0x40))\n      tag_330\n      swap2\n      swap1\n      tag_209\n      jump\t// in\n    tag_330:\n      mload(0x40)\n      0x20\n      dup2\n      dup4\n      sub\n      sub\n      dup2\n      mstore\n      swap1\n      0x40\n      mstore\n        /* \"blc.sol\":4148:4198  keccak256(abi.encodePacked(check_patches[i].name)) */\n      dup1\n      mload\n      swap1\n      0x20\n      add\n      keccak256\n        /* \"blc.sol\":4137:4142  _name */\n      dup7\n        /* \"blc.sol\":4120:4143  abi.encodePacked(_name) */\n      add(0x20, mload(0x40))\n      tag_331\n      swap2\n      swap1\n      tag_204\n      jump\t// in\n    tag_331:\n      mload(0x40)\n      0x20\n      dup2\n      dup4\n      sub\n      sub\n      dup2\n      mstore\n      swap1\n      0x40\n      mstore\n        /* \"blc.sol\":4110:4144  keccak256(abi.encodePacked(_name)) */\n      dup1\n      mload\n      swap1\n      0x20\n      add\n      keccak256\n        /* \"blc.sol\":4110:4198  keccak256(abi.encodePacked(_name)) == keccak256(abi.encodePacked(check_patches[i].name)) */\n      sub\n        /* \"blc.sol\":4107:4265  if(keccak256(abi.encodePacked(_name)) == keccak256(abi.encodePacked(check_patches[i].name))){... */\n      tag_332\n      jumpi\n        /* \"blc.sol\":4217:4250  removePatchFile(i, check_patches) */\n      tag_333\n        /* \"blc.sol\":4233:4234  i */\n      dup2\n        /* \"blc.sol\":4236:4249  check_patches */\n      0x05\n        /* \"blc.sol\":4217:4232  removePatchFile */\n      tag_334\n        /* \"blc.sol\":4217:4250  removePatchFile(i, check_patches) */\n      jump\t// in\n    tag_333:\n        /* \"blc.sol\":4107:4265  if(keccak256(abi.encodePacked(_name)) == keccak256(abi.encodePacked(check_patches[i].name))){... */\n    tag_332:\n        /* \"blc.sol\":4089:4092  i++ */\n      dup1\n      dup1\n      tag_335\n      swap1\n      tag_87\n      jump\t// in\n    tag_335:\n      swap2\n      pop\n      pop\n        /* \"blc.sol\":4052:4275  for (uint i=0;i<check_patches.length;i++){... */\n      jump(tag_324)\n    tag_325:\n      pop\n        /* \"blc.sol\":3747:4281  function approvePatch(string memory _name,string memory _desc,string[][] memory _bugs,string[][] memory _features,string memory _version)public{... */\n      pop\n      pop\n      pop\n      pop\n      pop\n      jump\t// out\n        /* \"blc.sol\":3236:3741  function requestQA(string memory _name,string memory _desc,string[][] memory _bugs,string[][] memory _features,string memory _version)public{... */\n    tag_46:\n        /* \"blc.sol\":3386:3399  check_patches */\n      0x05\n        /* \"blc.sol\":3405:3523  PatchFile({name:_name,description:_desc,bugs:_bugs,features:_features,version:_version,approved:false,deployed:false}) */\n      mload(0x40)\n      dup1\n      0xe0\n      add\n      0x40\n      mstore\n      dup1\n        /* \"blc.sol\":3421:3426  _name */\n      dup8\n        /* \"blc.sol\":3405:3523  PatchFile({name:_name,description:_desc,bugs:_bugs,features:_features,version:_version,approved:false,deployed:false}) */\n      dup2\n      mstore\n      0x20\n      add\n        /* \"blc.sol\":3439:3444  _desc */\n      dup7\n        /* \"blc.sol\":3405:3523  PatchFile({name:_name,description:_desc,bugs:_bugs,features:_features,version:_version,approved:false,deployed:false}) */\n      dup2\n      mstore\n      0x20\n      add\n        /* \"blc.sol\":3450:3455  _bugs */\n      dup6\n        /* \"blc.sol\":3405:3523  PatchFile({name:_name,description:_desc,bugs:_bugs,features:_features,version:_version,approved:false,deployed:false}) */\n      dup2\n      mstore\n      0x20\n      add\n        /* \"blc.sol\":3465:3474  _features */\n      dup5\n        /* \"blc.sol\":3405:3523  PatchFile({name:_name,description:_desc,bugs:_bugs,features:_features,version:_version,approved:false,deployed:false}) */\n      dup2\n      mstore\n      0x20\n      add\n        /* \"blc.sol\":3483:3491  _version */\n      dup4\n        /* \"blc.sol\":3405:3523  PatchFile({name:_name,description:_desc,bugs:_bugs,features:_features,version:_version,approved:false,deployed:false}) */\n      dup2\n      mstore\n      0x20\n      add\n        /* \"blc.sol\":3501:3506  false */\n      0x00\n        /* \"blc.sol\":3405:3523  PatchFile({name:_name,description:_desc,bugs:_bugs,features:_features,version:_version,approved:false,deployed:false}) */\n      iszero\n      iszero\n      dup2\n      mstore\n      0x20\n      add\n        /* \"blc.sol\":3516:3521  false */\n      0x00\n        /* \"blc.sol\":3405:3523  PatchFile({name:_name,description:_desc,bugs:_bugs,features:_features,version:_version,approved:false,deployed:false}) */\n      iszero\n      iszero\n      dup2\n      mstore\n      pop\n        /* \"blc.sol\":3386:3524  check_patches.push(PatchFile({name:_name,description:_desc,bugs:_bugs,features:_features,version:_version,approved:false,deployed:false})) */\n      swap1\n      dup1\n      0x01\n      dup2\n      sload\n      add\n      dup1\n      dup3\n      sstore\n      dup1\n      swap2\n      pop\n      pop\n      0x01\n      swap1\n      sub\n      swap1\n      0x00\n      mstore\n      keccak256(0x00, 0x20)\n      swap1\n      0x06\n      mul\n      add\n      0x00\n      swap1\n      swap2\n      swap1\n      swap2\n      swap1\n      swap2\n      pop\n      0x00\n      dup3\n      add\n      mload\n      dup2\n      0x00\n      add\n      swap1\n      dup2\n      tag_338\n      swap2\n      swap1\n      tag_83\n      jump\t// in\n    tag_338:\n      pop\n      0x20\n      dup3\n      add\n      mload\n      dup2\n      0x01\n      add\n      swap1\n      dup2\n      tag_339\n      swap2\n      swap1\n      tag_83\n      jump\t// in\n    tag_339:\n      pop\n      0x40\n      dup3\n      add\n      mload\n      dup2\n      0x02\n      add\n      swap1\n      dup1\n      mload\n      swap1\n      0x20\n      add\n      swap1\n      tag_340\n      swap3\n      swap2\n      swap1\n      tag_191\n      jump\t// in\n    tag_340:\n      pop\n      0x60\n      dup3\n      add\n      mload\n      dup2\n      0x03\n      add\n      swap1\n      dup1\n      mload\n      swap1\n      0x20\n      add\n      swap1\n      tag_341\n      swap3\n      swap2\n      swap1\n      tag_191\n      jump\t// in\n    tag_341:\n      pop\n      0x80\n      dup3\n      add\n      mload\n      dup2\n      0x04\n      add\n      swap1\n      dup2\n      tag_342\n      swap2\n      swap1\n      tag_83\n      jump\t// in\n    tag_342:\n      pop\n      0xa0\n      dup3\n      add\n      mload\n      dup2\n      0x05\n      add\n      exp(0x0100, 0x00)\n      dup2\n      sload\n      dup2\n      0xff\n      mul\n      not\n      and\n      swap1\n      dup4\n      iszero\n      iszero\n      mul\n      or\n      swap1\n      sstore\n      pop\n      0xc0\n      dup3\n      add\n      mload\n      dup2\n      0x05\n      add\n      exp(0x0100, 0x01)\n      dup2\n      sload\n      dup2\n      0xff\n      mul\n      not\n      and\n      swap1\n      dup4\n      iszero\n      iszero\n      mul\n      or\n      swap1\n      sstore\n      pop\n      pop\n      pop\n        /* \"blc.sol\":3539:3545  uint i */\n      0x00\n        /* \"blc.sol\":3534:3735  for (uint i=0;i<patches.length;i++){... */\n    tag_343:\n        /* \"blc.sol\":3550:3557  patches */\n      0x04\n        /* \"blc.sol\":3550:3564  patches.length */\n      dup1\n      sload\n      swap1\n      pop\n        /* \"blc.sol\":3548:3549  i */\n      dup2\n        /* \"blc.sol\":3548:3564  i<patches.length */\n      lt\n        /* \"blc.sol\":3534:3735  for (uint i=0;i<patches.length;i++){... */\n      iszero\n      tag_344\n      jumpi\n        /* \"blc.sol\":3651:3658  patches */\n      0x04\n        /* \"blc.sol\":3659:3660  i */\n      dup2\n        /* \"blc.sol\":3651:3661  patches[i] */\n      dup2\n      sload\n      dup2\n      lt\n      tag_346\n      jumpi\n      tag_347\n      tag_70\n      jump\t// in\n    tag_347:\n    tag_346:\n      swap1\n      0x00\n      mstore\n      keccak256(0x00, 0x20)\n      swap1\n      0x04\n      mul\n      add\n        /* \"blc.sol\":3651:3666  patches[i].name */\n      0x00\n      add\n        /* \"blc.sol\":3634:3667  abi.encodePacked(patches[i].name) */\n      add(0x20, mload(0x40))\n      tag_349\n      swap2\n      swap1\n      tag_209\n      jump\t// in\n    tag_349:\n      mload(0x40)\n      0x20\n      dup2\n      dup4\n      sub\n      sub\n      dup2\n      mstore\n      swap1\n      0x40\n      mstore\n        /* \"blc.sol\":3624:3668  keccak256(abi.encodePacked(patches[i].name)) */\n      dup1\n      mload\n      swap1\n      0x20\n      add\n      keccak256\n        /* \"blc.sol\":3613:3618  _name */\n      dup7\n        /* \"blc.sol\":3596:3619  abi.encodePacked(_name) */\n      add(0x20, mload(0x40))\n      tag_350\n      swap2\n      swap1\n      tag_204\n      jump\t// in\n    tag_350:\n      mload(0x40)\n      0x20\n      dup2\n      dup4\n      sub\n      sub\n      dup2\n      mstore\n      swap1\n      0x40\n      mstore\n        /* \"blc.sol\":3586:3620  keccak256(abi.encodePacked(_name)) */\n      dup1\n      mload\n      swap1\n      0x20\n      add\n      keccak256\n        /* \"blc.sol\":3586:3668  keccak256(abi.encodePacked(_name)) == keccak256(abi.encodePacked(patches[i].name)) */\n      sub\n        /* \"blc.sol\":3583:3725  if(keccak256(abi.encodePacked(_name)) == keccak256(abi.encodePacked(patches[i].name))){... */\n      tag_351\n      jumpi\n        /* \"blc.sol\":3687:3710  removePatch(i, patches) */\n      tag_352\n        /* \"blc.sol\":3699:3700  i */\n      dup2\n        /* \"blc.sol\":3702:3709  patches */\n      0x04\n        /* \"blc.sol\":3687:3698  removePatch */\n      tag_353\n        /* \"blc.sol\":3687:3710  removePatch(i, patches) */\n      jump\t// in\n    tag_352:\n        /* \"blc.sol\":3583:3725  if(keccak256(abi.encodePacked(_name)) == keccak256(abi.encodePacked(patches[i].name))){... */\n    tag_351:\n        /* \"blc.sol\":3565:3568  i++ */\n      dup1\n      dup1\n      tag_354\n      swap1\n      tag_87\n      jump\t// in\n    tag_354:\n      swap2\n      pop\n      pop\n        /* \"blc.sol\":3534:3735  for (uint i=0;i<patches.length;i++){... */\n      jump(tag_343)\n    tag_344:\n      pop\n        /* \"blc.sol\":3236:3741  function requestQA(string memory _name,string memory _desc,string[][] memory _bugs,string[][] memory _features,string memory _version)public{... */\n      pop\n      pop\n      pop\n      pop\n      pop\n      jump\t// out\n        /* \"blc.sol\":1304:1409  function getFeatures() public view returns (Feature[] memory) {... */\n    tag_48:\n        /* \"blc.sol\":1348:1364  Feature[] memory */\n      0x60\n        /* \"blc.sol\":1383:1402  Unassigned_features */\n      0x03\n        /* \"blc.sol\":1376:1402  return Unassigned_features */\n      dup1\n      sload\n      dup1\n      0x20\n      mul\n      0x20\n      add\n      mload(0x40)\n      swap1\n      dup2\n      add\n      0x40\n      mstore\n      dup1\n      swap3\n      swap2\n      swap1\n      dup2\n      dup2\n      mstore\n      0x20\n      add\n      0x00\n      swap1\n    tag_356:\n      dup3\n      dup3\n      lt\n      iszero\n      tag_357\n      jumpi\n      dup4\n      dup3\n      swap1\n      0x00\n      mstore\n      keccak256(0x00, 0x20)\n      swap1\n      0x03\n      mul\n      add\n      mload(0x40)\n      dup1\n      0x60\n      add\n      0x40\n      mstore\n      swap1\n      dup2\n      0x00\n      dup3\n      add\n      dup1\n      sload\n      tag_359\n      swap1\n      tag_113\n      jump\t// in\n    tag_359:\n      dup1\n      0x1f\n      add\n      0x20\n      dup1\n      swap2\n      div\n      mul\n      0x20\n      add\n      mload(0x40)\n      swap1\n      dup2\n      add\n      0x40\n      mstore\n      dup1\n      swap3\n      swap2\n      swap1\n      dup2\n      dup2\n      mstore\n      0x20\n      add\n      dup3\n      dup1\n      sload\n      tag_360\n      swap1\n      tag_113\n      jump\t// in\n    tag_360:\n      dup1\n      iszero\n      tag_361\n      jumpi\n      dup1\n      0x1f\n      lt\n      tag_362\n      jumpi\n      0x0100\n      dup1\n      dup4\n      sload\n      div\n      mul\n      dup4\n      mstore\n      swap2\n      0x20\n      add\n      swap2\n      jump(tag_361)\n    tag_362:\n      dup3\n      add\n      swap2\n      swap1\n      0x00\n      mstore\n      keccak256(0x00, 0x20)\n      swap1\n    tag_363:\n      dup2\n      sload\n      dup2\n      mstore\n      swap1\n      0x01\n      add\n      swap1\n      0x20\n      add\n      dup1\n      dup4\n      gt\n      tag_363\n      jumpi\n      dup3\n      swap1\n      sub\n      0x1f\n      and\n      dup3\n      add\n      swap2\n    tag_361:\n      pop\n      pop\n      pop\n      pop\n      pop\n      dup2\n      mstore\n      0x20\n      add\n      0x01\n      dup3\n      add\n      dup1\n      sload\n      tag_364\n      swap1\n      tag_113\n      jump\t// in\n    tag_364:\n      dup1\n      0x1f\n      add\n      0x20\n      dup1\n      swap2\n      div\n      mul\n      0x20\n      add\n      mload(0x40)\n      swap1\n      dup2\n      add\n      0x40\n      mstore\n      dup1\n      swap3\n      swap2\n      swap1\n      dup2\n      dup2\n      mstore\n      0x20\n      add\n      dup3\n      dup1\n      sload\n      tag_365\n      swap1\n      tag_113\n      jump\t// in\n    tag_365:\n      dup1\n      iszero\n      tag_366\n      jumpi\n      dup1\n      0x1f\n      lt\n      tag_367\n      jumpi\n      0x0100\n      dup1\n      dup4\n      sload\n      div\n      mul\n      dup4\n      mstore\n      swap2\n      0x20\n      add\n      swap2\n      jump(tag_366)\n    tag_367:\n      dup3\n      add\n      swap2\n      swap1\n      0x00\n      mstore\n      keccak256(0x00, 0x20)\n      swap1\n    tag_368:\n      dup2\n      sload\n      dup2\n      mstore\n      swap1\n      0x01\n      add\n      swap1\n      0x20\n      add\n      dup1\n      dup4\n      gt\n      tag_368\n      jumpi\n      dup3\n      swap1\n      sub\n      0x1f\n      and\n      dup3\n      add\n      swap2\n    tag_366:\n      pop\n      pop\n      pop\n      pop\n      pop\n      dup2\n      mstore\n      0x20\n      add\n      0x02\n      dup3\n      add\n      dup1\n      sload\n      tag_369\n      swap1\n      tag_113\n      jump\t// in\n    tag_369:\n      dup1\n      0x1f\n      add\n      0x20\n      dup1\n      swap2\n      div\n      mul\n      0x20\n      add\n      mload(0x40)\n      swap1\n      dup2\n      add\n      0x40\n      mstore\n      dup1\n      swap3\n      swap2\n      swap1\n      dup2\n      dup2\n      mstore\n      0x20\n      add\n      dup3\n      dup1\n      sload\n      tag_370\n      swap1\n      tag_113\n      jump\t// in\n    tag_370:\n      dup1\n      iszero\n      tag_371\n      jumpi\n      dup1\n      0x1f\n      lt\n      tag_372\n      jumpi\n      0x0100\n      dup1\n      dup4\n      sload\n      div\n      mul\n      dup4\n      mstore\n      swap2\n      0x20\n      add\n      swap2\n      jump(tag_371)\n    tag_372:\n      dup3\n      add\n      swap2\n      swap1\n      0x00\n      mstore\n      keccak256(0x00, 0x20)\n      swap1\n    tag_373:\n      dup2\n      sload\n      dup2\n      mstore\n      swap1\n      0x01\n      add\n      swap1\n      0x20\n      add\n      dup1\n      dup4\n      gt\n      tag_373\n      jumpi\n      dup3\n      swap1\n      sub\n      0x1f\n      and\n      dup3\n      add\n      swap2\n    tag_371:\n      pop\n      pop\n      pop\n      pop\n      pop\n      dup2\n      mstore\n      pop\n      pop\n      dup2\n      mstore\n      0x20\n      add\n      swap1\n      0x01\n      add\n      swap1\n      jump(tag_356)\n    tag_357:\n      pop\n      pop\n      pop\n      pop\n      swap1\n      pop\n        /* \"blc.sol\":1304:1409  function getFeatures() public view returns (Feature[] memory) {... */\n      swap1\n      jump\t// out\n        /* \"blc.sol\":1205:1298  function getBugs() public view returns (Bug[] memory) {... */\n    tag_52:\n        /* \"blc.sol\":1245:1257  Bug[] memory */\n      0x60\n        /* \"blc.sol\":1276:1291  Unassigned_bugs */\n      0x01\n        /* \"blc.sol\":1269:1291  return Unassigned_bugs */\n      dup1\n      sload\n      dup1\n      0x20\n      mul\n      0x20\n      add\n      mload(0x40)\n      swap1\n      dup2\n      add\n      0x40\n      mstore\n      dup1\n      swap3\n      swap2\n      swap1\n      dup2\n      dup2\n      mstore\n      0x20\n      add\n      0x00\n      swap1\n    tag_375:\n      dup3\n      dup3\n      lt\n      iszero\n      tag_376\n      jumpi\n      dup4\n      dup3\n      swap1\n      0x00\n      mstore\n      keccak256(0x00, 0x20)\n      swap1\n      0x03\n      mul\n      add\n      mload(0x40)\n      dup1\n      0x60\n      add\n      0x40\n      mstore\n      swap1\n      dup2\n      0x00\n      dup3\n      add\n      dup1\n      sload\n      tag_378\n      swap1\n      tag_113\n      jump\t// in\n    tag_378:\n      dup1\n      0x1f\n      add\n      0x20\n      dup1\n      swap2\n      div\n      mul\n      0x20\n      add\n      mload(0x40)\n      swap1\n      dup2\n      add\n      0x40\n      mstore\n      dup1\n      swap3\n      swap2\n      swap1\n      dup2\n      dup2\n      mstore\n      0x20\n      add\n      dup3\n      dup1\n      sload\n      tag_379\n      swap1\n      tag_113\n      jump\t// in\n    tag_379:\n      dup1\n      iszero\n      tag_380\n      jumpi\n      dup1\n      0x1f\n      lt\n      tag_381\n      jumpi\n      0x0100\n      dup1\n      dup4\n      sload\n      div\n      mul\n      dup4\n      mstore\n      swap2\n      0x20\n      add\n      swap2\n      jump(tag_380)\n    tag_381:\n      dup3\n      add\n      swap2\n      swap1\n      0x00\n      mstore\n      keccak256(0x00, 0x20)\n      swap1\n    tag_382:\n      dup2\n      sload\n      dup2\n      mstore\n      swap1\n      0x01\n      add\n      swap1\n      0x20\n      add\n      dup1\n      dup4\n      gt\n      tag_382\n      jumpi\n      dup3\n      swap1\n      sub\n      0x1f\n      and\n      dup3\n      add\n      swap2\n    tag_380:\n      pop\n      pop\n      pop\n      pop\n      pop\n      dup2\n      mstore\n      0x20\n      add\n      0x01\n      dup3\n      add\n      dup1\n      sload\n      tag_383\n      swap1\n      tag_113\n      jump\t// in\n    tag_383:\n      dup1\n      0x1f\n      add\n      0x20\n      dup1\n      swap2\n      div\n      mul\n      0x20\n      add\n      mload(0x40)\n      swap1\n      dup2\n      add\n      0x40\n      mstore\n      dup1\n      swap3\n      swap2\n      swap1\n      dup2\n      dup2\n      mstore\n      0x20\n      add\n      dup3\n      dup1\n      sload\n      tag_384\n      swap1\n      tag_113\n      jump\t// in\n    tag_384:\n      dup1\n      iszero\n      tag_385\n      jumpi\n      dup1\n      0x1f\n      lt\n      tag_386\n      jumpi\n      0x0100\n      dup1\n      dup4\n      sload\n      div\n      mul\n      dup4\n      mstore\n      swap2\n      0x20\n      add\n      swap2\n      jump(tag_385)\n    tag_386:\n      dup3\n      add\n      swap2\n      swap1\n      0x00\n      mstore\n      keccak256(0x00, 0x20)\n      swap1\n    tag_387:\n      dup2\n      sload\n      dup2\n      mstore\n      swap1\n      0x01\n      add\n      swap1\n      0x20\n      add\n      dup1\n      dup4\n      gt\n      tag_387\n      jumpi\n      dup3\n      swap1\n      sub\n      0x1f\n      and\n      dup3\n      add\n      swap2\n    tag_385:\n      pop\n      pop\n      pop\n      pop\n      pop\n      dup2\n      mstore\n      0x20\n      add\n      0x02\n      dup3\n      add\n      dup1\n      sload\n      tag_388\n      swap1\n      tag_113\n      jump\t// in\n    tag_388:\n      dup1\n      0x1f\n      add\n      0x20\n      dup1\n      swap2\n      div\n      mul\n      0x20\n      add\n      mload(0x40)\n      swap1\n      dup2\n      add\n      0x40\n      mstore\n      dup1\n      swap3\n      swap2\n      swap1\n      dup2\n      dup2\n      mstore\n      0x20\n      add\n      dup3\n      dup1\n      sload\n      tag_389\n      swap1\n      tag_113\n      jump\t// in\n    tag_389:\n      dup1\n      iszero\n      tag_390\n      jumpi\n      dup1\n      0x1f\n      lt\n      tag_391\n      jumpi\n      0x0100\n      dup1\n      dup4\n      sload\n      div\n      mul\n      dup4\n      mstore\n      swap2\n      0x20\n      add\n      swap2\n      jump(tag_390)\n    tag_391:\n      dup3\n      add\n      swap2\n      swap1\n      0x00\n      mstore\n      keccak256(0x00, 0x20)\n      swap1\n    tag_392:\n      dup2\n      sload\n      dup2\n      mstore\n      swap1\n      0x01\n      add\n      swap1\n      0x20\n      add\n      dup1\n      dup4\n      gt\n      tag_392\n      jumpi\n      dup3\n      swap1\n      sub\n      0x1f\n      and\n      dup3\n      add\n      swap2\n    tag_390:\n      pop\n      pop\n      pop\n      pop\n      pop\n      dup2\n      mstore\n      pop\n      pop\n      dup2\n      mstore\n      0x20\n      add\n      swap1\n      0x01\n      add\n      swap1\n      jump(tag_375)\n    tag_376:\n      pop\n      pop\n      pop\n      pop\n      swap1\n      pop\n        /* \"blc.sol\":1205:1298  function getBugs() public view returns (Bug[] memory) {... */\n      swap1\n      jump\t// out\n        /* \"blc.sol\":5131:5826  function requestDeploy(string memory _name,string memory _desc,string[][] memory _bugs,string[][] memory _features,string memory _version)public {... */\n    tag_57:\n        /* \"blc.sol\":5286:5302  deployed_patches */\n      0x08\n        /* \"blc.sol\":5309:5425  PatchFile({name:_name,description:_desc,bugs:_bugs,features:_features,version:_version,approved:true,deployed:true}) */\n      mload(0x40)\n      dup1\n      0xe0\n      add\n      0x40\n      mstore\n      dup1\n        /* \"blc.sol\":5325:5330  _name */\n      dup8\n        /* \"blc.sol\":5309:5425  PatchFile({name:_name,description:_desc,bugs:_bugs,features:_features,version:_version,approved:true,deployed:true}) */\n      dup2\n      mstore\n      0x20\n      add\n        /* \"blc.sol\":5343:5348  _desc */\n      dup7\n        /* \"blc.sol\":5309:5425  PatchFile({name:_name,description:_desc,bugs:_bugs,features:_features,version:_version,approved:true,deployed:true}) */\n      dup2\n      mstore\n      0x20\n      add\n        /* \"blc.sol\":5354:5359  _bugs */\n      dup6\n        /* \"blc.sol\":5309:5425  PatchFile({name:_name,description:_desc,bugs:_bugs,features:_features,version:_version,approved:true,deployed:true}) */\n      dup2\n      mstore\n      0x20\n      add\n        /* \"blc.sol\":5369:5378  _features */\n      dup5\n        /* \"blc.sol\":5309:5425  PatchFile({name:_name,description:_desc,bugs:_bugs,features:_features,version:_version,approved:true,deployed:true}) */\n      dup2\n      mstore\n      0x20\n      add\n        /* \"blc.sol\":5387:5395  _version */\n      dup4\n        /* \"blc.sol\":5309:5425  PatchFile({name:_name,description:_desc,bugs:_bugs,features:_features,version:_version,approved:true,deployed:true}) */\n      dup2\n      mstore\n      0x20\n      add\n        /* \"blc.sol\":5405:5409  true */\n      0x01\n        /* \"blc.sol\":5309:5425  PatchFile({name:_name,description:_desc,bugs:_bugs,features:_features,version:_version,approved:true,deployed:true}) */\n      iszero\n      iszero\n      dup2\n      mstore\n      0x20\n      add\n        /* \"blc.sol\":5419:5423  true */\n      0x01\n        /* \"blc.sol\":5309:5425  PatchFile({name:_name,description:_desc,bugs:_bugs,features:_features,version:_version,approved:true,deployed:true}) */\n      iszero\n      iszero\n      dup2\n      mstore\n      pop\n        /* \"blc.sol\":5286:5427  deployed_patches.push((PatchFile({name:_name,description:_desc,bugs:_bugs,features:_features,version:_version,approved:true,deployed:true}))) */\n      swap1\n      dup1\n      0x01\n      dup2\n      sload\n      add\n      dup1\n      dup3\n      sstore\n      dup1\n      swap2\n      pop\n      pop\n      0x01\n      swap1\n      sub\n      swap1\n      0x00\n      mstore\n      keccak256(0x00, 0x20)\n      swap1\n      0x06\n      mul\n      add\n      0x00\n      swap1\n      swap2\n      swap1\n      swap2\n      swap1\n      swap2\n      pop\n      0x00\n      dup3\n      add\n      mload\n      dup2\n      0x00\n      add\n      swap1\n      dup2\n      tag_395\n      swap2\n      swap1\n      tag_83\n      jump\t// in\n    tag_395:\n      pop\n      0x20\n      dup3\n      add\n      mload\n      dup2\n      0x01\n      add\n      swap1\n      dup2\n      tag_396\n      swap2\n      swap1\n      tag_83\n      jump\t// in\n    tag_396:\n      pop\n      0x40\n      dup3\n      add\n      mload\n      dup2\n      0x02\n      add\n      swap1\n      dup1\n      mload\n      swap1\n      0x20\n      add\n      swap1\n      tag_397\n      swap3\n      swap2\n      swap1\n      tag_191\n      jump\t// in\n    tag_397:\n      pop\n      0x60\n      dup3\n      add\n      mload\n      dup2\n      0x03\n      add\n      swap1\n      dup1\n      mload\n      swap1\n      0x20\n      add\n      swap1\n      tag_398\n      swap3\n      swap2\n      swap1\n      tag_191\n      jump\t// in\n    tag_398:\n      pop\n      0x80\n      dup3\n      add\n      mload\n      dup2\n      0x04\n      add\n      swap1\n      dup2\n      tag_399\n      swap2\n      swap1\n      tag_83\n      jump\t// in\n    tag_399:\n      pop\n      0xa0\n      dup3\n      add\n      mload\n      dup2\n      0x05\n      add\n      exp(0x0100, 0x00)\n      dup2\n      sload\n      dup2\n      0xff\n      mul\n      not\n      and\n      swap1\n      dup4\n      iszero\n      iszero\n      mul\n      or\n      swap1\n      sstore\n      pop\n      0xc0\n      dup3\n      add\n      mload\n      dup2\n      0x05\n      add\n      exp(0x0100, 0x01)\n      dup2\n      sload\n      dup2\n      0xff\n      mul\n      not\n      and\n      swap1\n      dup4\n      iszero\n      iszero\n      mul\n      or\n      swap1\n      sstore\n      pop\n      pop\n      pop\n        /* \"blc.sol\":5442:5448  uint i */\n      0x00\n        /* \"blc.sol\":5437:5669  for (uint i=0;i<approved_patches.length;i++){... */\n    tag_400:\n        /* \"blc.sol\":5453:5469  approved_patches */\n      0x06\n        /* \"blc.sol\":5453:5476  approved_patches.length */\n      dup1\n      sload\n      swap1\n      pop\n        /* \"blc.sol\":5451:5452  i */\n      dup2\n        /* \"blc.sol\":5451:5476  i<approved_patches.length */\n      lt\n        /* \"blc.sol\":5437:5669  for (uint i=0;i<approved_patches.length;i++){... */\n      iszero\n      tag_401\n      jumpi\n        /* \"blc.sol\":5563:5579  approved_patches */\n      0x06\n        /* \"blc.sol\":5580:5581  i */\n      dup2\n        /* \"blc.sol\":5563:5582  approved_patches[i] */\n      dup2\n      sload\n      dup2\n      lt\n      tag_403\n      jumpi\n      tag_404\n      tag_70\n      jump\t// in\n    tag_404:\n    tag_403:\n      swap1\n      0x00\n      mstore\n      keccak256(0x00, 0x20)\n      swap1\n      0x06\n      mul\n      add\n        /* \"blc.sol\":5563:5587  approved_patches[i].name */\n      0x00\n      add\n        /* \"blc.sol\":5546:5588  abi.encodePacked(approved_patches[i].name) */\n      add(0x20, mload(0x40))\n      tag_406\n      swap2\n      swap1\n      tag_209\n      jump\t// in\n    tag_406:\n      mload(0x40)\n      0x20\n      dup2\n      dup4\n      sub\n      sub\n      dup2\n      mstore\n      swap1\n      0x40\n      mstore\n        /* \"blc.sol\":5536:5589  keccak256(abi.encodePacked(approved_patches[i].name)) */\n      dup1\n      mload\n      swap1\n      0x20\n      add\n      keccak256\n        /* \"blc.sol\":5525:5530  _name */\n      dup7\n        /* \"blc.sol\":5508:5531  abi.encodePacked(_name) */\n      add(0x20, mload(0x40))\n      tag_407\n      swap2\n      swap1\n      tag_204\n      jump\t// in\n    tag_407:\n      mload(0x40)\n      0x20\n      dup2\n      dup4\n      sub\n      sub\n      dup2\n      mstore\n      swap1\n      0x40\n      mstore\n        /* \"blc.sol\":5498:5532  keccak256(abi.encodePacked(_name)) */\n      dup1\n      mload\n      swap1\n      0x20\n      add\n      keccak256\n        /* \"blc.sol\":5498:5589  keccak256(abi.encodePacked(_name)) == keccak256(abi.encodePacked(approved_patches[i].name)) */\n      sub\n        /* \"blc.sol\":5495:5659  if(keccak256(abi.encodePacked(_name)) == keccak256(abi.encodePacked(approved_patches[i].name))){... */\n      tag_408\n      jumpi\n        /* \"blc.sol\":5608:5644  removePatchFile(i, approved_patches) */\n      tag_409\n        /* \"blc.sol\":5624:5625  i */\n      dup2\n        /* \"blc.sol\":5627:5643  approved_patches */\n      0x06\n        /* \"blc.sol\":5608:5623  removePatchFile */\n      tag_334\n        /* \"blc.sol\":5608:5644  removePatchFile(i, approved_patches) */\n      jump\t// in\n    tag_409:\n        /* \"blc.sol\":5495:5659  if(keccak256(abi.encodePacked(_name)) == keccak256(abi.encodePacked(approved_patches[i].name))){... */\n    tag_408:\n        /* \"blc.sol\":5477:5480  i++ */\n      dup1\n      dup1\n      tag_410\n      swap1\n      tag_87\n      jump\t// in\n    tag_410:\n      swap2\n      pop\n      pop\n        /* \"blc.sol\":5437:5669  for (uint i=0;i<approved_patches.length;i++){... */\n      jump(tag_400)\n    tag_401:\n      pop\n        /* \"blc.sol\":5678:5694  approved_patches */\n      0x06\n        /* \"blc.sol\":5701:5817  PatchFile({name:_name,description:_desc,bugs:_bugs,features:_features,version:_version,approved:true,deployed:true}) */\n      mload(0x40)\n      dup1\n      0xe0\n      add\n      0x40\n      mstore\n      dup1\n        /* \"blc.sol\":5717:5722  _name */\n      dup8\n        /* \"blc.sol\":5701:5817  PatchFile({name:_name,description:_desc,bugs:_bugs,features:_features,version:_version,approved:true,deployed:true}) */\n      dup2\n      mstore\n      0x20\n      add\n        /* \"blc.sol\":5735:5740  _desc */\n      dup7\n        /* \"blc.sol\":5701:5817  PatchFile({name:_name,description:_desc,bugs:_bugs,features:_features,version:_version,approved:true,deployed:true}) */\n      dup2\n      mstore\n      0x20\n      add\n        /* \"blc.sol\":5746:5751  _bugs */\n      dup6\n        /* \"blc.sol\":5701:5817  PatchFile({name:_name,description:_desc,bugs:_bugs,features:_features,version:_version,approved:true,deployed:true}) */\n      dup2\n      mstore\n      0x20\n      add\n        /* \"blc.sol\":5761:5770  _features */\n      dup5\n        /* \"blc.sol\":5701:5817  PatchFile({name:_name,description:_desc,bugs:_bugs,features:_features,version:_version,approved:true,deployed:true}) */\n      dup2\n      mstore\n      0x20\n      add\n        /* \"blc.sol\":5779:5787  _version */\n      dup4\n        /* \"blc.sol\":5701:5817  PatchFile({name:_name,description:_desc,bugs:_bugs,features:_features,version:_version,approved:true,deployed:true}) */\n      dup2\n      mstore\n      0x20\n      add\n        /* \"blc.sol\":5797:5801  true */\n      0x01\n        /* \"blc.sol\":5701:5817  PatchFile({name:_name,description:_desc,bugs:_bugs,features:_features,version:_version,approved:true,deployed:true}) */\n      iszero\n      iszero\n      dup2\n      mstore\n      0x20\n      add\n        /* \"blc.sol\":5811:5815  true */\n      0x01\n        /* \"blc.sol\":5701:5817  PatchFile({name:_name,description:_desc,bugs:_bugs,features:_features,version:_version,approved:true,deployed:true}) */\n      iszero\n      iszero\n      dup2\n      mstore\n      pop\n        /* \"blc.sol\":5678:5819  approved_patches.push((PatchFile({name:_name,description:_desc,bugs:_bugs,features:_features,version:_version,approved:true,deployed:true}))) */\n      swap1\n      dup1\n      0x01\n      dup2\n      sload\n      add\n      dup1\n      dup3\n      sstore\n      dup1\n      swap2\n      pop\n      pop\n      0x01\n      swap1\n      sub\n      swap1\n      0x00\n      mstore\n      keccak256(0x00, 0x20)\n      swap1\n      0x06\n      mul\n      add\n      0x00\n      swap1\n      swap2\n      swap1\n      swap2\n      swap1\n      swap2\n      pop\n      0x00\n      dup3\n      add\n      mload\n      dup2\n      0x00\n      add\n      swap1\n      dup2\n      tag_412\n      swap2\n      swap1\n      tag_83\n      jump\t// in\n    tag_412:\n      pop\n      0x20\n      dup3\n      add\n      mload\n      dup2\n      0x01\n      add\n      swap1\n      dup2\n      tag_413\n      swap2\n      swap1\n      tag_83\n      jump\t// in\n    tag_413:\n      pop\n      0x40\n      dup3\n      add\n      mload\n      dup2\n      0x02\n      add\n      swap1\n      dup1\n      mload\n      swap1\n      0x20\n      add\n      swap1\n      tag_414\n      swap3\n      swap2\n      swap1\n      tag_191\n      jump\t// in\n    tag_414:\n      pop\n      0x60\n      dup3\n      add\n      mload\n      dup2\n      0x03\n      add\n      swap1\n      dup1\n      mload\n      swap1\n      0x20\n      add\n      swap1\n      tag_415\n      swap3\n      swap2\n      swap1\n      tag_191\n      jump\t// in\n    tag_415:\n      pop\n      0x80\n      dup3\n      add\n      mload\n      dup2\n      0x04\n      add\n      swap1\n      dup2\n      tag_416\n      swap2\n      swap1\n      tag_83\n      jump\t// in\n    tag_416:\n      pop\n      0xa0\n      dup3\n      add\n      mload\n      dup2\n      0x05\n      add\n      exp(0x0100, 0x00)\n      dup2\n      sload\n      dup2\n      0xff\n      mul\n      not\n      and\n      swap1\n      dup4\n      iszero\n      iszero\n      mul\n      or\n      swap1\n      sstore\n      pop\n      0xc0\n      dup3\n      add\n      mload\n      dup2\n      0x05\n      add\n      exp(0x0100, 0x01)\n      dup2\n      sload\n      dup2\n      0xff\n      mul\n      not\n      and\n      swap1\n      dup4\n      iszero\n      iszero\n      mul\n      or\n      swap1\n      sstore\n      pop\n      pop\n      pop\n        /* \"blc.sol\":5131:5826  function requestDeploy(string memory _name,string memory _desc,string[][] memory _bugs,string[][] memory _features,string memory _version)public {... */\n      pop\n      pop\n      pop\n      pop\n      pop\n      jump\t// out\n        /* \"blc.sol\":6168:6275  function deployedPatches() public view returns (PatchFile[] memory){... */\n    tag_59:\n        /* \"blc.sol\":6216:6234  PatchFile[] memory */\n      0x60\n        /* \"blc.sol\":6252:6268  deployed_patches */\n      0x08\n        /* \"blc.sol\":6245:6268  return deployed_patches */\n      dup1\n      sload\n      dup1\n      0x20\n      mul\n      0x20\n      add\n      mload(0x40)\n      swap1\n      dup2\n      add\n      0x40\n      mstore\n      dup1\n      swap3\n      swap2\n      swap1\n      dup2\n      dup2\n      mstore\n      0x20\n      add\n      0x00\n      swap1\n    tag_418:\n      dup3\n      dup3\n      lt\n      iszero\n      tag_419\n      jumpi\n      dup4\n      dup3\n      swap1\n      0x00\n      mstore\n      keccak256(0x00, 0x20)\n      swap1\n      0x06\n      mul\n      add\n      mload(0x40)\n      dup1\n      0xe0\n      add\n      0x40\n      mstore\n      swap1\n      dup2\n      0x00\n      dup3\n      add\n      dup1\n      sload\n      tag_421\n      swap1\n      tag_113\n      jump\t// in\n    tag_421:\n      dup1\n      0x1f\n      add\n      0x20\n      dup1\n      swap2\n      div\n      mul\n      0x20\n      add\n      mload(0x40)\n      swap1\n      dup2\n      add\n      0x40\n      mstore\n      dup1\n      swap3\n      swap2\n      swap1\n      dup2\n      dup2\n      mstore\n      0x20\n      add\n      dup3\n      dup1\n      sload\n      tag_422\n      swap1\n      tag_113\n      jump\t// in\n    tag_422:\n      dup1\n      iszero\n      tag_423\n      jumpi\n      dup1\n      0x1f\n      lt\n      tag_424\n      jumpi\n      0x0100\n      dup1\n      dup4\n      sload\n      div\n      mul\n      dup4\n      mstore\n      swap2\n      0x20\n      add\n      swap2\n      jump(tag_423)\n    tag_424:\n      dup3\n      add\n      swap2\n      swap1\n      0x00\n      mstore\n      keccak256(0x00, 0x20)\n      swap1\n    tag_425:\n      dup2\n      sload\n      dup2\n      mstore\n      swap1\n      0x01\n      add\n      swap1\n      0x20\n      add\n      dup1\n      dup4\n      gt\n      tag_425\n      jumpi\n      dup3\n      swap1\n      sub\n      0x1f\n      and\n      dup3\n      add\n      swap2\n    tag_423:\n      pop\n      pop\n      pop\n      pop\n      pop\n      dup2\n      mstore\n      0x20\n      add\n      0x01\n      dup3\n      add\n      dup1\n      sload\n      tag_426\n      swap1\n      tag_113\n      jump\t// in\n    tag_426:\n      dup1\n      0x1f\n      add\n      0x20\n      dup1\n      swap2\n      div\n      mul\n      0x20\n      add\n      mload(0x40)\n      swap1\n      dup2\n      add\n      0x40\n      mstore\n      dup1\n      swap3\n      swap2\n      swap1\n      dup2\n      dup2\n      mstore\n      0x20\n      add\n      dup3\n      dup1\n      sload\n      tag_427\n      swap1\n      tag_113\n      jump\t// in\n    tag_427:\n      dup1\n      iszero\n      tag_428\n      jumpi\n      dup1\n      0x1f\n      lt\n      tag_429\n      jumpi\n      0x0100\n      dup1\n      dup4\n      sload\n      div\n      mul\n      dup4\n      mstore\n      swap2\n      0x20\n      add\n      swap2\n      jump(tag_428)\n    tag_429:\n      dup3\n      add\n      swap2\n      swap1\n      0x00\n      mstore\n      keccak256(0x00, 0x20)\n      swap1\n    tag_430:\n      dup2\n      sload\n      dup2\n      mstore\n      swap1\n      0x01\n      add\n      swap1\n      0x20\n      add\n      dup1\n      dup4\n      gt\n      tag_430\n      jumpi\n      dup3\n      swap1\n      sub\n      0x1f\n      and\n      dup3\n      add\n      swap2\n    tag_428:\n      pop\n      pop\n      pop\n      pop\n      pop\n      dup2\n      mstore\n      0x20\n      add\n      0x02\n      dup3\n      add\n      dup1\n      sload\n      dup1\n      0x20\n      mul\n      0x20\n      add\n      mload(0x40)\n      swap1\n      dup2\n      add\n      0x40\n      mstore\n      dup1\n      swap3\n      swap2\n      swap1\n      dup2\n      dup2\n      mstore\n      0x20\n      add\n      0x00\n      swap1\n    tag_431:\n      dup3\n      dup3\n      lt\n      iszero\n      tag_432\n      jumpi\n      dup4\n      dup3\n      swap1\n      0x00\n      mstore\n      keccak256(0x00, 0x20)\n      add\n      dup1\n      sload\n      dup1\n      0x20\n      mul\n      0x20\n      add\n      mload(0x40)\n      swap1\n      dup2\n      add\n      0x40\n      mstore\n      dup1\n      swap3\n      swap2\n      swap1\n      dup2\n      dup2\n      mstore\n      0x20\n      add\n      0x00\n      swap1\n    tag_434:\n      dup3\n      dup3\n      lt\n      iszero\n      tag_435\n      jumpi\n      dup4\n      dup3\n      swap1\n      0x00\n      mstore\n      keccak256(0x00, 0x20)\n      add\n      dup1\n      sload\n      tag_437\n      swap1\n      tag_113\n      jump\t// in\n    tag_437:\n      dup1\n      0x1f\n      add\n      0x20\n      dup1\n      swap2\n      div\n      mul\n      0x20\n      add\n      mload(0x40)\n      swap1\n      dup2\n      add\n      0x40\n      mstore\n      dup1\n      swap3\n      swap2\n      swap1\n      dup2\n      dup2\n      mstore\n      0x20\n      add\n      dup3\n      dup1\n      sload\n      tag_438\n      swap1\n      tag_113\n      jump\t// in\n    tag_438:\n      dup1\n      iszero\n      tag_439\n      jumpi\n      dup1\n      0x1f\n      lt\n      tag_440\n      jumpi\n      0x0100\n      dup1\n      dup4\n      sload\n      div\n      mul\n      dup4\n      mstore\n      swap2\n      0x20\n      add\n      swap2\n      jump(tag_439)\n    tag_440:\n      dup3\n      add\n      swap2\n      swap1\n      0x00\n      mstore\n      keccak256(0x00, 0x20)\n      swap1\n    tag_441:\n      dup2\n      sload\n      dup2\n      mstore\n      swap1\n      0x01\n      add\n      swap1\n      0x20\n      add\n      dup1\n      dup4\n      gt\n      tag_441\n      jumpi\n      dup3\n      swap1\n      sub\n      0x1f\n      and\n      dup3\n      add\n      swap2\n    tag_439:\n      pop\n      pop\n      pop\n      pop\n      pop\n      dup2\n      mstore\n      0x20\n      add\n      swap1\n      0x01\n      add\n      swap1\n      jump(tag_434)\n    tag_435:\n      pop\n      pop\n      pop\n      pop\n      dup2\n      mstore\n      0x20\n      add\n      swap1\n      0x01\n      add\n      swap1\n      jump(tag_431)\n    tag_432:\n      pop\n      pop\n      pop\n      pop\n      dup2\n      mstore\n      0x20\n      add\n      0x03\n      dup3\n      add\n      dup1\n      sload\n      dup1\n      0x20\n      mul\n      0x20\n      add\n      mload(0x40)\n      swap1\n      dup2\n      add\n      0x40\n      mstore\n      dup1\n      swap3\n      swap2\n      swap1\n      dup2\n      dup2\n      mstore\n      0x20\n      add\n      0x00\n      swap1\n    tag_442:\n      dup3\n      dup3\n      lt\n      iszero\n      tag_443\n      jumpi\n      dup4\n      dup3\n      swap1\n      0x00\n      mstore\n      keccak256(0x00, 0x20)\n      add\n      dup1\n      sload\n      dup1\n      0x20\n      mul\n      0x20\n      add\n      mload(0x40)\n      swap1\n      dup2\n      add\n      0x40\n      mstore\n      dup1\n      swap3\n      swap2\n      swap1\n      dup2\n      dup2\n      mstore\n      0x20\n      add\n      0x00\n      swap1\n    tag_445:\n      dup3\n      dup3\n      lt\n      iszero\n      tag_446\n      jumpi\n      dup4\n      dup3\n      swap1\n      0x00\n      mstore\n      keccak256(0x00, 0x20)\n      add\n      dup1\n      sload\n      tag_448\n      swap1\n      tag_113\n      jump\t// in\n    tag_448:\n      dup1\n      0x1f\n      add\n      0x20\n      dup1\n      swap2\n      div\n      mul\n      0x20\n      add\n      mload(0x40)\n      swap1\n      dup2\n      add\n      0x40\n      mstore\n      dup1\n      swap3\n      swap2\n      swap1\n      dup2\n      dup2\n      mstore\n      0x20\n      add\n      dup3\n      dup1\n      sload\n      tag_449\n      swap1\n      tag_113\n      jump\t// in\n    tag_449:\n      dup1\n      iszero\n      tag_450\n      jumpi\n      dup1\n      0x1f\n      lt\n      tag_451\n      jumpi\n      0x0100\n      dup1\n      dup4\n      sload\n      div\n      mul\n      dup4\n      mstore\n      swap2\n      0x20\n      add\n      swap2\n      jump(tag_450)\n    tag_451:\n      dup3\n      add\n      swap2\n      swap1\n      0x00\n      mstore\n      keccak256(0x00, 0x20)\n      swap1\n    tag_452:\n      dup2\n      sload\n      dup2\n      mstore\n      swap1\n      0x01\n      add\n      swap1\n      0x20\n      add\n      dup1\n      dup4\n      gt\n      tag_452\n      jumpi\n      dup3\n      swap1\n      sub\n      0x1f\n      and\n      dup3\n      add\n      swap2\n    tag_450:\n      pop\n      pop\n      pop\n      pop\n      pop\n      dup2\n      mstore\n      0x20\n      add\n      swap1\n      0x01\n      add\n      swap1\n      jump(tag_445)\n    tag_446:\n      pop\n      pop\n      pop\n      pop\n      dup2\n      mstore\n      0x20\n      add\n      swap1\n      0x01\n      add\n      swap1\n      jump(tag_442)\n    tag_443:\n      pop\n      pop\n      pop\n      pop\n      dup2\n      mstore\n      0x20\n      add\n      0x04\n      dup3\n      add\n      dup1\n      sload\n      tag_453\n      swap1\n      tag_113\n      jump\t// in\n    tag_453:\n      dup1\n      0x1f\n      add\n      0x20\n      dup1\n      swap2\n      div\n      mul\n      0x20\n      add\n      mload(0x40)\n      swap1\n      dup2\n      add\n      0x40\n      mstore\n      dup1\n      swap3\n      swap2\n      swap1\n      dup2\n      dup2\n      mstore\n      0x20\n      add\n      dup3\n      dup1\n      sload\n      tag_454\n      swap1\n      tag_113\n      jump\t// in\n    tag_454:\n      dup1\n      iszero\n      tag_455\n      jumpi\n      dup1\n      0x1f\n      lt\n      tag_456\n      jumpi\n      0x0100\n      dup1\n      dup4\n      sload\n      div\n      mul\n      dup4\n      mstore\n      swap2\n      0x20\n      add\n      swap2\n      jump(tag_455)\n    tag_456:\n      dup3\n      add\n      swap2\n      swap1\n      0x00\n      mstore\n      keccak256(0x00, 0x20)\n      swap1\n    tag_457:\n      dup2\n      sload\n      dup2\n      mstore\n      swap1\n      0x01\n      add\n      swap1\n      0x20\n      add\n      dup1\n      dup4\n      gt\n      tag_457\n      jumpi\n      dup3\n      swap1\n      sub\n      0x1f\n      and\n      dup3\n      add\n      swap2\n    tag_455:\n      pop\n      pop\n      pop\n      pop\n      pop\n      dup2\n      mstore\n      0x20\n      add\n      0x05\n      dup3\n      add\n      0x00\n      swap1\n      sload\n      swap1\n      0x0100\n      exp\n      swap1\n      div\n      0xff\n      and\n      iszero\n      iszero\n      iszero\n      iszero\n      dup2\n      mstore\n      0x20\n      add\n      0x05\n      dup3\n      add\n      0x01\n      swap1\n      sload\n      swap1\n      0x0100\n      exp\n      swap1\n      div\n      0xff\n      and\n      iszero\n      iszero\n      iszero\n      iszero\n      dup2\n      mstore\n      pop\n      pop\n      dup2\n      mstore\n      0x20\n      add\n      swap1\n      0x01\n      add\n      swap1\n      jump(tag_418)\n    tag_419:\n      pop\n      pop\n      pop\n      pop\n      swap1\n      pop\n        /* \"blc.sol\":6168:6275  function deployedPatches() public view returns (PatchFile[] memory){... */\n      swap1\n      jump\t// out\n        /* \"blc.sol\":4287:5121  function rejectPatch(string memory _name,string memory _desc,string[][] memory _bugs,string[][] memory _features,string memory _version)public{... */\n    tag_63:\n        /* \"blc.sol\":4439:4455  rejected_patches */\n      0x07\n        /* \"blc.sol\":4462:4580  PatchFile({name:_name,description:_desc,bugs:_bugs,features:_features,version:_version,approved:false,deployed:false}) */\n      mload(0x40)\n      dup1\n      0xe0\n      add\n      0x40\n      mstore\n      dup1\n        /* \"blc.sol\":4478:4483  _name */\n      dup8\n        /* \"blc.sol\":4462:4580  PatchFile({name:_name,description:_desc,bugs:_bugs,features:_features,version:_version,approved:false,deployed:false}) */\n      dup2\n      mstore\n      0x20\n      add\n        /* \"blc.sol\":4496:4501  _desc */\n      dup7\n        /* \"blc.sol\":4462:4580  PatchFile({name:_name,description:_desc,bugs:_bugs,features:_features,version:_version,approved:false,deployed:false}) */\n      dup2\n      mstore\n      0x20\n      add\n        /* \"blc.sol\":4507:4512  _bugs */\n      dup6\n        /* \"blc.sol\":4462:4580  PatchFile({name:_name,description:_desc,bugs:_bugs,features:_features,version:_version,approved:false,deployed:false}) */\n      dup2\n      mstore\n      0x20\n      add\n        /* \"blc.sol\":4522:4531  _features */\n      dup5\n        /* \"blc.sol\":4462:4580  PatchFile({name:_name,description:_desc,bugs:_bugs,features:_features,version:_version,approved:false,deployed:false}) */\n      dup2\n      mstore\n      0x20\n      add\n        /* \"blc.sol\":4540:4548  _version */\n      dup4\n        /* \"blc.sol\":4462:4580  PatchFile({name:_name,description:_desc,bugs:_bugs,features:_features,version:_version,approved:false,deployed:false}) */\n      dup2\n      mstore\n      0x20\n      add\n        /* \"blc.sol\":4558:4563  false */\n      0x00\n        /* \"blc.sol\":4462:4580  PatchFile({name:_name,description:_desc,bugs:_bugs,features:_features,version:_version,approved:false,deployed:false}) */\n      iszero\n      iszero\n      dup2\n      mstore\n      0x20\n      add\n        /* \"blc.sol\":4573:4578  false */\n      0x00\n        /* \"blc.sol\":4462:4580  PatchFile({name:_name,description:_desc,bugs:_bugs,features:_features,version:_version,approved:false,deployed:false}) */\n      iszero\n      iszero\n      dup2\n      mstore\n      pop\n        /* \"blc.sol\":4439:4582  rejected_patches.push((PatchFile({name:_name,description:_desc,bugs:_bugs,features:_features,version:_version,approved:false,deployed:false}))) */\n      swap1\n      dup1\n      0x01\n      dup2\n      sload\n      add\n      dup1\n      dup3\n      sstore\n      dup1\n      swap2\n      pop\n      pop\n      0x01\n      swap1\n      sub\n      swap1\n      0x00\n      mstore\n      keccak256(0x00, 0x20)\n      swap1\n      0x06\n      mul\n      add\n      0x00\n      swap1\n      swap2\n      swap1\n      swap2\n      swap1\n      swap2\n      pop\n      0x00\n      dup3\n      add\n      mload\n      dup2\n      0x00\n      add\n      swap1\n      dup2\n      tag_460\n      swap2\n      swap1\n      tag_83\n      jump\t// in\n    tag_460:\n      pop\n      0x20\n      dup3\n      add\n      mload\n      dup2\n      0x01\n      add\n      swap1\n      dup2\n      tag_461\n      swap2\n      swap1\n      tag_83\n      jump\t// in\n    tag_461:\n      pop\n      0x40\n      dup3\n      add\n      mload\n      dup2\n      0x02\n      add\n      swap1\n      dup1\n      mload\n      swap1\n      0x20\n      add\n      swap1\n      tag_462\n      swap3\n      swap2\n      swap1\n      tag_191\n      jump\t// in\n    tag_462:\n      pop\n      0x60\n      dup3\n      add\n      mload\n      dup2\n      0x03\n      add\n      swap1\n      dup1\n      mload\n      swap1\n      0x20\n      add\n      swap1\n      tag_463\n      swap3\n      swap2\n      swap1\n      tag_191\n      jump\t// in\n    tag_463:\n      pop\n      0x80\n      dup3\n      add\n      mload\n      dup2\n      0x04\n      add\n      swap1\n      dup2\n      tag_464\n      swap2\n      swap1\n      tag_83\n      jump\t// in\n    tag_464:\n      pop\n      0xa0\n      dup3\n      add\n      mload\n      dup2\n      0x05\n      add\n      exp(0x0100, 0x00)\n      dup2\n      sload\n      dup2\n      0xff\n      mul\n      not\n      and\n      swap1\n      dup4\n      iszero\n      iszero\n      mul\n      or\n      swap1\n      sstore\n      pop\n      0xc0\n      dup3\n      add\n      mload\n      dup2\n      0x05\n      add\n      exp(0x0100, 0x01)\n      dup2\n      sload\n      dup2\n      0xff\n      mul\n      not\n      and\n      swap1\n      dup4\n      iszero\n      iszero\n      mul\n      or\n      swap1\n      sstore\n      pop\n      pop\n      pop\n        /* \"blc.sol\":4597:4603  uint i */\n      0x00\n        /* \"blc.sol\":4592:4815  for (uint i=0;i<check_patches.length;i++){... */\n    tag_465:\n        /* \"blc.sol\":4608:4621  check_patches */\n      0x05\n        /* \"blc.sol\":4608:4628  check_patches.length */\n      dup1\n      sload\n      swap1\n      pop\n        /* \"blc.sol\":4606:4607  i */\n      dup2\n        /* \"blc.sol\":4606:4628  i<check_patches.length */\n      lt\n        /* \"blc.sol\":4592:4815  for (uint i=0;i<check_patches.length;i++){... */\n      iszero\n      tag_466\n      jumpi\n        /* \"blc.sol\":4715:4728  check_patches */\n      0x05\n        /* \"blc.sol\":4729:4730  i */\n      dup2\n        /* \"blc.sol\":4715:4731  check_patches[i] */\n      dup2\n      sload\n      dup2\n      lt\n      tag_468\n      jumpi\n      tag_469\n      tag_70\n      jump\t// in\n    tag_469:\n    tag_468:\n      swap1\n      0x00\n      mstore\n      keccak256(0x00, 0x20)\n      swap1\n      0x06\n      mul\n      add\n        /* \"blc.sol\":4715:4736  check_patches[i].name */\n      0x00\n      add\n        /* \"blc.sol\":4698:4737  abi.encodePacked(check_patches[i].name) */\n      add(0x20, mload(0x40))\n      tag_471\n      swap2\n      swap1\n      tag_209\n      jump\t// in\n    tag_471:\n      mload(0x40)\n      0x20\n      dup2\n      dup4\n      sub\n      sub\n      dup2\n      mstore\n      swap1\n      0x40\n      mstore\n        /* \"blc.sol\":4688:4738  keccak256(abi.encodePacked(check_patches[i].name)) */\n      dup1\n      mload\n      swap1\n      0x20\n      add\n      keccak256\n        /* \"blc.sol\":4677:4682  _name */\n      dup7\n        /* \"blc.sol\":4660:4683  abi.encodePacked(_name) */\n      add(0x20, mload(0x40))\n      tag_472\n      swap2\n      swap1\n      tag_204\n      jump\t// in\n    tag_472:\n      mload(0x40)\n      0x20\n      dup2\n      dup4\n      sub\n      sub\n      dup2\n      mstore\n      swap1\n      0x40\n      mstore\n        /* \"blc.sol\":4650:4684  keccak256(abi.encodePacked(_name)) */\n      dup1\n      mload\n      swap1\n      0x20\n      add\n      keccak256\n        /* \"blc.sol\":4650:4738  keccak256(abi.encodePacked(_name)) == keccak256(abi.encodePacked(check_patches[i].name)) */\n      sub\n        /* \"blc.sol\":4647:4805  if(keccak256(abi.encodePacked(_name)) == keccak256(abi.encodePacked(check_patches[i].name))){... */\n      tag_473\n      jumpi\n        /* \"blc.sol\":4757:4790  removePatchFile(i, check_patches) */\n      tag_474\n        /* \"blc.sol\":4773:4774  i */\n      dup2\n        /* \"blc.sol\":4776:4789  check_patches */\n      0x05\n        /* \"blc.sol\":4757:4772  removePatchFile */\n      tag_334\n        /* \"blc.sol\":4757:4790  removePatchFile(i, check_patches) */\n      jump\t// in\n    tag_474:\n        /* \"blc.sol\":4647:4805  if(keccak256(abi.encodePacked(_name)) == keccak256(abi.encodePacked(check_patches[i].name))){... */\n    tag_473:\n        /* \"blc.sol\":4629:4632  i++ */\n      dup1\n      dup1\n      tag_475\n      swap1\n      tag_87\n      jump\t// in\n    tag_475:\n      swap2\n      pop\n      pop\n        /* \"blc.sol\":4592:4815  for (uint i=0;i<check_patches.length;i++){... */\n      jump(tag_465)\n    tag_466:\n      pop\n        /* \"blc.sol\":4829:4835  uint i */\n      0x00\n        /* \"blc.sol\":4824:4953  for (uint i = 0; i < _bugs.length; i++) {... */\n    tag_476:\n        /* \"blc.sol\":4845:4850  _bugs */\n      dup4\n        /* \"blc.sol\":4845:4857  _bugs.length */\n      mload\n        /* \"blc.sol\":4841:4842  i */\n      dup2\n        /* \"blc.sol\":4841:4857  i < _bugs.length */\n      lt\n        /* \"blc.sol\":4824:4953  for (uint i = 0; i < _bugs.length; i++) {... */\n      iszero\n      tag_477\n      jumpi\n        /* \"blc.sol\":4878:4893  Unassigned_bugs */\n      0x01\n        /* \"blc.sol\":4899:4941  Bug(_bugs[i][0], _bugs[i][1], _bugs[i][2]) */\n      mload(0x40)\n      dup1\n      0x60\n      add\n      0x40\n      mstore\n      dup1\n        /* \"blc.sol\":4903:4908  _bugs */\n      dup7\n        /* \"blc.sol\":4909:4910  i */\n      dup5\n        /* \"blc.sol\":4903:4911  _bugs[i] */\n      dup2\n      mload\n      dup2\n      lt\n      tag_479\n      jumpi\n      tag_480\n      tag_70\n      jump\t// in\n    tag_480:\n    tag_479:\n      0x20\n      mul\n      0x20\n      add\n      add\n      mload\n        /* \"blc.sol\":4912:4913  0 */\n      0x00\n        /* \"blc.sol\":4903:4914  _bugs[i][0] */\n      dup2\n      mload\n      dup2\n      lt\n      tag_481\n      jumpi\n      tag_482\n      tag_70\n      jump\t// in\n    tag_482:\n    tag_481:\n      0x20\n      mul\n      0x20\n      add\n      add\n      mload\n        /* \"blc.sol\":4899:4941  Bug(_bugs[i][0], _bugs[i][1], _bugs[i][2]) */\n      dup2\n      mstore\n      0x20\n      add\n        /* \"blc.sol\":4916:4921  _bugs */\n      dup7\n        /* \"blc.sol\":4922:4923  i */\n      dup5\n        /* \"blc.sol\":4916:4924  _bugs[i] */\n      dup2\n      mload\n      dup2\n      lt\n      tag_483\n      jumpi\n      tag_484\n      tag_70\n      jump\t// in\n    tag_484:\n    tag_483:\n      0x20\n      mul\n      0x20\n      add\n      add\n      mload\n        /* \"blc.sol\":4925:4926  1 */\n      0x01\n        /* \"blc.sol\":4916:4927  _bugs[i][1] */\n      dup2\n      mload\n      dup2\n      lt\n      tag_485\n      jumpi\n      tag_486\n      tag_70\n      jump\t// in\n    tag_486:\n    tag_485:\n      0x20\n      mul\n      0x20\n      add\n      add\n      mload\n        /* \"blc.sol\":4899:4941  Bug(_bugs[i][0], _bugs[i][1], _bugs[i][2]) */\n      dup2\n      mstore\n      0x20\n      add\n        /* \"blc.sol\":4929:4934  _bugs */\n      dup7\n        /* \"blc.sol\":4935:4936  i */\n      dup5\n        /* \"blc.sol\":4929:4937  _bugs[i] */\n      dup2\n      mload\n      dup2\n      lt\n      tag_487\n      jumpi\n      tag_488\n      tag_70\n      jump\t// in\n    tag_488:\n    tag_487:\n      0x20\n      mul\n      0x20\n      add\n      add\n      mload\n        /* \"blc.sol\":4938:4939  2 */\n      0x02\n        /* \"blc.sol\":4929:4940  _bugs[i][2] */\n      dup2\n      mload\n      dup2\n      lt\n      tag_489\n      jumpi\n      tag_490\n      tag_70\n      jump\t// in\n    tag_490:\n    tag_489:\n      0x20\n      mul\n      0x20\n      add\n      add\n      mload\n        /* \"blc.sol\":4899:4941  Bug(_bugs[i][0], _bugs[i][1], _bugs[i][2]) */\n      dup2\n      mstore\n      pop\n        /* \"blc.sol\":4878:4942  Unassigned_bugs.push(Bug(_bugs[i][0], _bugs[i][1], _bugs[i][2])) */\n      swap1\n      dup1\n      0x01\n      dup2\n      sload\n      add\n      dup1\n      dup3\n      sstore\n      dup1\n      swap2\n      pop\n      pop\n      0x01\n      swap1\n      sub\n      swap1\n      0x00\n      mstore\n      keccak256(0x00, 0x20)\n      swap1\n      0x03\n      mul\n      add\n      0x00\n      swap1\n      swap2\n      swap1\n      swap2\n      swap1\n      swap2\n      pop\n      0x00\n      dup3\n      add\n      mload\n      dup2\n      0x00\n      add\n      swap1\n      dup2\n      tag_492\n      swap2\n      swap1\n      tag_83\n      jump\t// in\n    tag_492:\n      pop\n      0x20\n      dup3\n      add\n      mload\n      dup2\n      0x01\n      add\n      swap1\n      dup2\n      tag_493\n      swap2\n      swap1\n      tag_83\n      jump\t// in\n    tag_493:\n      pop\n      0x40\n      dup3\n      add\n      mload\n      dup2\n      0x02\n      add\n      swap1\n      dup2\n      tag_494\n      swap2\n      swap1\n      tag_83\n      jump\t// in\n    tag_494:\n      pop\n      pop\n      pop\n        /* \"blc.sol\":4859:4862  i++ */\n      dup1\n      dup1\n      tag_495\n      swap1\n      tag_87\n      jump\t// in\n    tag_495:\n      swap2\n      pop\n      pop\n        /* \"blc.sol\":4824:4953  for (uint i = 0; i < _bugs.length; i++) {... */\n      jump(tag_476)\n    tag_477:\n      pop\n        /* \"blc.sol\":4967:4973  uint i */\n      0x00\n        /* \"blc.sol\":4962:5115  for (uint i = 0; i < _features.length; i++) {... */\n    tag_496:\n        /* \"blc.sol\":4983:4992  _features */\n      dup3\n        /* \"blc.sol\":4983:4999  _features.length */\n      mload\n        /* \"blc.sol\":4979:4980  i */\n      dup2\n        /* \"blc.sol\":4979:4999  i < _features.length */\n      lt\n        /* \"blc.sol\":4962:5115  for (uint i = 0; i < _features.length; i++) {... */\n      iszero\n      tag_497\n      jumpi\n        /* \"blc.sol\":5020:5039  Unassigned_features */\n      0x03\n        /* \"blc.sol\":5045:5103  Feature(_features[i][0], _features[i][1], _features[i][2]) */\n      mload(0x40)\n      dup1\n      0x60\n      add\n      0x40\n      mstore\n      dup1\n        /* \"blc.sol\":5053:5062  _features */\n      dup6\n        /* \"blc.sol\":5063:5064  i */\n      dup5\n        /* \"blc.sol\":5053:5065  _features[i] */\n      dup2\n      mload\n      dup2\n      lt\n      tag_499\n      jumpi\n      tag_500\n      tag_70\n      jump\t// in\n    tag_500:\n    tag_499:\n      0x20\n      mul\n      0x20\n      add\n      add\n      mload\n        /* \"blc.sol\":5066:5067  0 */\n      0x00\n        /* \"blc.sol\":5053:5068  _features[i][0] */\n      dup2\n      mload\n      dup2\n      lt\n      tag_501\n      jumpi\n      tag_502\n      tag_70\n      jump\t// in\n    tag_502:\n    tag_501:\n      0x20\n      mul\n      0x20\n      add\n      add\n      mload\n        /* \"blc.sol\":5045:5103  Feature(_features[i][0], _features[i][1], _features[i][2]) */\n      dup2\n      mstore\n      0x20\n      add\n        /* \"blc.sol\":5070:5079  _features */\n      dup6\n        /* \"blc.sol\":5080:5081  i */\n      dup5\n        /* \"blc.sol\":5070:5082  _features[i] */\n      dup2\n      mload\n      dup2\n      lt\n      tag_503\n      jumpi\n      tag_504\n      tag_70\n      jump\t// in\n    tag_504:\n    tag_503:\n      0x20\n      mul\n      0x20\n      add\n      add\n      mload\n        /* \"blc.sol\":5083:5084  1 */\n      0x01\n        /* \"blc.sol\":5070:5085  _features[i][1] */\n      dup2\n      mload\n      dup2\n      lt\n      tag_505\n      jumpi\n      tag_506\n      tag_70\n      jump\t// in\n    tag_506:\n    tag_505:\n      0x20\n      mul\n      0x20\n      add\n      add\n      mload\n        /* \"blc.sol\":5045:5103  Feature(_features[i][0], _features[i][1], _features[i][2]) */\n      dup2\n      mstore\n      0x20\n      add\n        /* \"blc.sol\":5087:5096  _features */\n      dup6\n        /* \"blc.sol\":5097:5098  i */\n      dup5\n        /* \"blc.sol\":5087:5099  _features[i] */\n      dup2\n      mload\n      dup2\n      lt\n      tag_507\n      jumpi\n      tag_508\n      tag_70\n      jump\t// in\n    tag_508:\n    tag_507:\n      0x20\n      mul\n      0x20\n      add\n      add\n      mload\n        /* \"blc.sol\":5100:5101  2 */\n      0x02\n        /* \"blc.sol\":5087:5102  _features[i][2] */\n      dup2\n      mload\n      dup2\n      lt\n      tag_509\n      jumpi\n      tag_510\n      tag_70\n      jump\t// in\n    tag_510:\n    tag_509:\n      0x20\n      mul\n      0x20\n      add\n      add\n      mload\n        /* \"blc.sol\":5045:5103  Feature(_features[i][0], _features[i][1], _features[i][2]) */\n      dup2\n      mstore\n      pop\n        /* \"blc.sol\":5020:5104  Unassigned_features.push(Feature(_features[i][0], _features[i][1], _features[i][2])) */\n      swap1\n      dup1\n      0x01\n      dup2\n      sload\n      add\n      dup1\n      dup3\n      sstore\n      dup1\n      swap2\n      pop\n      pop\n      0x01\n      swap1\n      sub\n      swap1\n      0x00\n      mstore\n      keccak256(0x00, 0x20)\n      swap1\n      0x03\n      mul\n      add\n      0x00\n      swap1\n      swap2\n      swap1\n      swap2\n      swap1\n      swap2\n      pop\n      0x00\n      dup3\n      add\n      mload\n      dup2\n      0x00\n      add\n      swap1\n      dup2\n      tag_512\n      swap2\n      swap1\n      tag_83\n      jump\t// in\n    tag_512:\n      pop\n      0x20\n      dup3\n      add\n      mload\n      dup2\n      0x01\n      add\n      swap1\n      dup2\n      tag_513\n      swap2\n      swap1\n      tag_83\n      jump\t// in\n    tag_513:\n      pop\n      0x40\n      dup3\n      add\n      mload\n      dup2\n      0x02\n      add\n      swap1\n      dup2\n      tag_514\n      swap2\n      swap1\n      tag_83\n      jump\t// in\n    tag_514:\n      pop\n      pop\n      pop\n        /* \"blc.sol\":5001:5004  i++ */\n      dup1\n      dup1\n      tag_515\n      swap1\n      tag_87\n      jump\t// in\n    tag_515:\n      swap2\n      pop\n      pop\n        /* \"blc.sol\":4962:5115  for (uint i = 0; i < _features.length; i++) {... */\n      jump(tag_496)\n    tag_497:\n      pop\n        /* \"blc.sol\":4287:5121  function rejectPatch(string memory _name,string memory _desc,string[][] memory _bugs,string[][] memory _features,string memory _version)public{... */\n      pop\n      pop\n      pop\n      pop\n      pop\n      jump\t// out\n        /* \"blc.sol\":1415:1648  function removeBug(uint index, Bug[] storage array) internal {... */\n    tag_212:\n        /* \"blc.sol\":1499:1504  array */\n      dup1\n        /* \"blc.sol\":1499:1511  array.length */\n      dup1\n      sload\n      swap1\n      pop\n        /* \"blc.sol\":1490:1495  index */\n      dup3\n        /* \"blc.sol\":1490:1511  index >= array.length */\n      lt\n        /* \"blc.sol\":1486:1520  if (index >= array.length) return; */\n      iszero\n        /* \"blc.sol\":1513:1520  return; */\n      tag_516\n        /* \"blc.sol\":1486:1520  if (index >= array.length) return; */\n      jumpi\n        /* \"blc.sol\":1535:1541  uint i */\n      0x00\n        /* \"blc.sol\":1544:1549  index */\n      dup3\n        /* \"blc.sol\":1535:1549  uint i = index */\n      swap1\n      pop\n        /* \"blc.sol\":1530:1621  for (uint i = index; i < array.length-1; i++){... */\n    tag_518:\n        /* \"blc.sol\":1568:1569  1 */\n      0x01\n        /* \"blc.sol\":1555:1560  array */\n      dup3\n        /* \"blc.sol\":1555:1567  array.length */\n      dup1\n      sload\n      swap1\n      pop\n        /* \"blc.sol\":1555:1569  array.length-1 */\n      tag_521\n      swap2\n      swap1\n      tag_522\n      jump\t// in\n    tag_521:\n        /* \"blc.sol\":1551:1552  i */\n      dup2\n        /* \"blc.sol\":1551:1569  i < array.length-1 */\n      lt\n        /* \"blc.sol\":1530:1621  for (uint i = index; i < array.length-1; i++){... */\n      iszero\n      tag_519\n      jumpi\n        /* \"blc.sol\":1600:1605  array */\n      dup2\n        /* \"blc.sol\":1608:1609  1 */\n      0x01\n        /* \"blc.sol\":1606:1607  i */\n      dup3\n        /* \"blc.sol\":1606:1609  i+1 */\n      tag_523\n      swap2\n      swap1\n      tag_524\n      jump\t// in\n    tag_523:\n        /* \"blc.sol\":1600:1610  array[i+1] */\n      dup2\n      sload\n      dup2\n      lt\n      tag_525\n      jumpi\n      tag_526\n      tag_70\n      jump\t// in\n    tag_526:\n    tag_525:\n      swap1\n      0x00\n      mstore\n      keccak256(0x00, 0x20)\n      swap1\n      0x03\n      mul\n      add\n        /* \"blc.sol\":1589:1594  array */\n      dup3\n        /* \"blc.sol\":1595:1596  i */\n      dup3\n        /* \"blc.sol\":1589:1597  array[i] */\n      dup2\n      sload\n      dup2\n      lt\n      tag_528\n      jumpi\n      tag_529\n      tag_70\n      jump\t// in\n    tag_529:\n    tag_528:\n      swap1\n      0x00\n      mstore\n      keccak256(0x00, 0x20)\n      swap1\n      0x03\n      mul\n      add\n        /* \"blc.sol\":1589:1610  array[i] = array[i+1] */\n      0x00\n      dup3\n      add\n      dup2\n      0x00\n      add\n      swap1\n      dup2\n      tag_531\n      swap2\n      swap1\n      tag_532\n      jump\t// in\n    tag_531:\n      pop\n      0x01\n      dup3\n      add\n      dup2\n      0x01\n      add\n      swap1\n      dup2\n      tag_533\n      swap2\n      swap1\n      tag_532\n      jump\t// in\n    tag_533:\n      pop\n      0x02\n      dup3\n      add\n      dup2\n      0x02\n      add\n      swap1\n      dup2\n      tag_534\n      swap2\n      swap1\n      tag_532\n      jump\t// in\n    tag_534:\n      pop\n      swap1\n      pop\n      pop\n        /* \"blc.sol\":1571:1574  i++ */\n      dup1\n      dup1\n      tag_535\n      swap1\n      tag_87\n      jump\t// in\n    tag_535:\n      swap2\n      pop\n      pop\n        /* \"blc.sol\":1530:1621  for (uint i = index; i < array.length-1; i++){... */\n      jump(tag_518)\n    tag_519:\n      pop\n        /* \"blc.sol\":1630:1635  array */\n      dup1\n        /* \"blc.sol\":1630:1641  array.pop() */\n      dup1\n      sload\n      dup1\n      tag_536\n      jumpi\n      tag_537\n      tag_538\n      jump\t// in\n    tag_537:\n    tag_536:\n      0x01\n      swap1\n      sub\n      dup2\n      dup2\n      swap1\n      0x00\n      mstore\n      keccak256(0x00, 0x20)\n      swap1\n      0x03\n      mul\n      add\n      0x00\n      dup1\n      dup3\n      add\n      0x00\n      tag_540\n      swap2\n      swap1\n      tag_541\n      jump\t// in\n    tag_540:\n      0x01\n      dup3\n      add\n      0x00\n      tag_542\n      swap2\n      swap1\n      tag_541\n      jump\t// in\n    tag_542:\n      0x02\n      dup3\n      add\n      0x00\n      tag_543\n      swap2\n      swap1\n      tag_541\n      jump\t// in\n    tag_543:\n      pop\n      pop\n      swap1\n      sstore\n        /* \"blc.sol\":1415:1648  function removeBug(uint index, Bug[] storage array) internal {... */\n    tag_516:\n      pop\n      pop\n      jump\t// out\n        /* \"blc.sol\":1654:1895  function removeFeature(uint index, Feature[] storage array) internal {... */\n    tag_232:\n        /* \"blc.sol\":1746:1751  array */\n      dup1\n        /* \"blc.sol\":1746:1758  array.length */\n      dup1\n      sload\n      swap1\n      pop\n        /* \"blc.sol\":1737:1742  index */\n      dup3\n        /* \"blc.sol\":1737:1758  index >= array.length */\n      lt\n        /* \"blc.sol\":1733:1767  if (index >= array.length) return; */\n      iszero\n        /* \"blc.sol\":1760:1767  return; */\n      tag_544\n        /* \"blc.sol\":1733:1767  if (index >= array.length) return; */\n      jumpi\n        /* \"blc.sol\":1782:1788  uint i */\n      0x00\n        /* \"blc.sol\":1791:1796  index */\n      dup3\n        /* \"blc.sol\":1782:1796  uint i = index */\n      swap1\n      pop\n        /* \"blc.sol\":1777:1868  for (uint i = index; i < array.length-1; i++){... */\n    tag_546:\n        /* \"blc.sol\":1815:1816  1 */\n      0x01\n        /* \"blc.sol\":1802:1807  array */\n      dup3\n        /* \"blc.sol\":1802:1814  array.length */\n      dup1\n      sload\n      swap1\n      pop\n        /* \"blc.sol\":1802:1816  array.length-1 */\n      tag_549\n      swap2\n      swap1\n      tag_522\n      jump\t// in\n    tag_549:\n        /* \"blc.sol\":1798:1799  i */\n      dup2\n        /* \"blc.sol\":1798:1816  i < array.length-1 */\n      lt\n        /* \"blc.sol\":1777:1868  for (uint i = index; i < array.length-1; i++){... */\n      iszero\n      tag_547\n      jumpi\n        /* \"blc.sol\":1847:1852  array */\n      dup2\n        /* \"blc.sol\":1855:1856  1 */\n      0x01\n        /* \"blc.sol\":1853:1854  i */\n      dup3\n        /* \"blc.sol\":1853:1856  i+1 */\n      tag_550\n      swap2\n      swap1\n      tag_524\n      jump\t// in\n    tag_550:\n        /* \"blc.sol\":1847:1857  array[i+1] */\n      dup2\n      sload\n      dup2\n      lt\n      tag_551\n      jumpi\n      tag_552\n      tag_70\n      jump\t// in\n    tag_552:\n    tag_551:\n      swap1\n      0x00\n      mstore\n      keccak256(0x00, 0x20)\n      swap1\n      0x03\n      mul\n      add\n        /* \"blc.sol\":1836:1841  array */\n      dup3\n        /* \"blc.sol\":1842:1843  i */\n      dup3\n        /* \"blc.sol\":1836:1844  array[i] */\n      dup2\n      sload\n      dup2\n      lt\n      tag_554\n      jumpi\n      tag_555\n      tag_70\n      jump\t// in\n    tag_555:\n    tag_554:\n      swap1\n      0x00\n      mstore\n      keccak256(0x00, 0x20)\n      swap1\n      0x03\n      mul\n      add\n        /* \"blc.sol\":1836:1857  array[i] = array[i+1] */\n      0x00\n      dup3\n      add\n      dup2\n      0x00\n      add\n      swap1\n      dup2\n      tag_557\n      swap2\n      swap1\n      tag_532\n      jump\t// in\n    tag_557:\n      pop\n      0x01\n      dup3\n      add\n      dup2\n      0x01\n      add\n      swap1\n      dup2\n      tag_558\n      swap2\n      swap1\n      tag_532\n      jump\t// in\n    tag_558:\n      pop\n      0x02\n      dup3\n      add\n      dup2\n      0x02\n      add\n      swap1\n      dup2\n      tag_559\n      swap2\n      swap1\n      tag_532\n      jump\t// in\n    tag_559:\n      pop\n      swap1\n      pop\n      pop\n        /* \"blc.sol\":1818:1821  i++ */\n      dup1\n      dup1\n      tag_560\n      swap1\n      tag_87\n      jump\t// in\n    tag_560:\n      swap2\n      pop\n      pop\n        /* \"blc.sol\":1777:1868  for (uint i = index; i < array.length-1; i++){... */\n      jump(tag_546)\n    tag_547:\n      pop\n        /* \"blc.sol\":1877:1882  array */\n      dup1\n        /* \"blc.sol\":1877:1888  array.pop() */\n      dup1\n      sload\n      dup1\n      tag_561\n      jumpi\n      tag_562\n      tag_538\n      jump\t// in\n    tag_562:\n    tag_561:\n      0x01\n      swap1\n      sub\n      dup2\n      dup2\n      swap1\n      0x00\n      mstore\n      keccak256(0x00, 0x20)\n      swap1\n      0x03\n      mul\n      add\n      0x00\n      dup1\n      dup3\n      add\n      0x00\n      tag_564\n      swap2\n      swap1\n      tag_541\n      jump\t// in\n    tag_564:\n      0x01\n      dup3\n      add\n      0x00\n      tag_565\n      swap2\n      swap1\n      tag_541\n      jump\t// in\n    tag_565:\n      0x02\n      dup3\n      add\n      0x00\n      tag_566\n      swap2\n      swap1\n      tag_541\n      jump\t// in\n    tag_566:\n      pop\n      pop\n      swap1\n      sstore\n        /* \"blc.sol\":1654:1895  function removeFeature(uint index, Feature[] storage array) internal {... */\n    tag_544:\n      pop\n      pop\n      jump\t// out\n        /* \"blc.sol\":2148:2393  function removePatchFile(uint index, PatchFile[] storage array) internal {... */\n    tag_334:\n        /* \"blc.sol\":2244:2249  array */\n      dup1\n        /* \"blc.sol\":2244:2256  array.length */\n      dup1\n      sload\n      swap1\n      pop\n        /* \"blc.sol\":2235:2240  index */\n      dup3\n        /* \"blc.sol\":2235:2256  index >= array.length */\n      lt\n        /* \"blc.sol\":2231:2265  if (index >= array.length) return; */\n      iszero\n        /* \"blc.sol\":2258:2265  return; */\n      tag_567\n        /* \"blc.sol\":2231:2265  if (index >= array.length) return; */\n      jumpi\n        /* \"blc.sol\":2280:2286  uint i */\n      0x00\n        /* \"blc.sol\":2289:2294  index */\n      dup3\n        /* \"blc.sol\":2280:2294  uint i = index */\n      swap1\n      pop\n        /* \"blc.sol\":2275:2366  for (uint i = index; i < array.length-1; i++){... */\n    tag_569:\n        /* \"blc.sol\":2313:2314  1 */\n      0x01\n        /* \"blc.sol\":2300:2305  array */\n      dup3\n        /* \"blc.sol\":2300:2312  array.length */\n      dup1\n      sload\n      swap1\n      pop\n        /* \"blc.sol\":2300:2314  array.length-1 */\n      tag_572\n      swap2\n      swap1\n      tag_522\n      jump\t// in\n    tag_572:\n        /* \"blc.sol\":2296:2297  i */\n      dup2\n        /* \"blc.sol\":2296:2314  i < array.length-1 */\n      lt\n        /* \"blc.sol\":2275:2366  for (uint i = index; i < array.length-1; i++){... */\n      iszero\n      tag_570\n      jumpi\n        /* \"blc.sol\":2345:2350  array */\n      dup2\n        /* \"blc.sol\":2353:2354  1 */\n      0x01\n        /* \"blc.sol\":2351:2352  i */\n      dup3\n        /* \"blc.sol\":2351:2354  i+1 */\n      tag_573\n      swap2\n      swap1\n      tag_524\n      jump\t// in\n    tag_573:\n        /* \"blc.sol\":2345:2355  array[i+1] */\n      dup2\n      sload\n      dup2\n      lt\n      tag_574\n      jumpi\n      tag_575\n      tag_70\n      jump\t// in\n    tag_575:\n    tag_574:\n      swap1\n      0x00\n      mstore\n      keccak256(0x00, 0x20)\n      swap1\n      0x06\n      mul\n      add\n        /* \"blc.sol\":2334:2339  array */\n      dup3\n        /* \"blc.sol\":2340:2341  i */\n      dup3\n        /* \"blc.sol\":2334:2342  array[i] */\n      dup2\n      sload\n      dup2\n      lt\n      tag_577\n      jumpi\n      tag_578\n      tag_70\n      jump\t// in\n    tag_578:\n    tag_577:\n      swap1\n      0x00\n      mstore\n      keccak256(0x00, 0x20)\n      swap1\n      0x06\n      mul\n      add\n        /* \"blc.sol\":2334:2355  array[i] = array[i+1] */\n      0x00\n      dup3\n      add\n      dup2\n      0x00\n      add\n      swap1\n      dup2\n      tag_580\n      swap2\n      swap1\n      tag_532\n      jump\t// in\n    tag_580:\n      pop\n      0x01\n      dup3\n      add\n      dup2\n      0x01\n      add\n      swap1\n      dup2\n      tag_581\n      swap2\n      swap1\n      tag_532\n      jump\t// in\n    tag_581:\n      pop\n      0x02\n      dup3\n      add\n      dup2\n      0x02\n      add\n      swap1\n      dup1\n      sload\n      tag_582\n      swap3\n      swap2\n      swap1\n      tag_583\n      jump\t// in\n    tag_582:\n      pop\n      0x03\n      dup3\n      add\n      dup2\n      0x03\n      add\n      swap1\n      dup1\n      sload\n      tag_584\n      swap3\n      swap2\n      swap1\n      tag_583\n      jump\t// in\n    tag_584:\n      pop\n      0x04\n      dup3\n      add\n      dup2\n      0x04\n      add\n      swap1\n      dup2\n      tag_585\n      swap2\n      swap1\n      tag_532\n      jump\t// in\n    tag_585:\n      pop\n      0x05\n      dup3\n      add\n      0x00\n      swap1\n      sload\n      swap1\n      0x0100\n      exp\n      swap1\n      div\n      0xff\n      and\n      dup2\n      0x05\n      add\n      exp(0x0100, 0x00)\n      dup2\n      sload\n      dup2\n      0xff\n      mul\n      not\n      and\n      swap1\n      dup4\n      iszero\n      iszero\n      mul\n      or\n      swap1\n      sstore\n      pop\n      0x05\n      dup3\n      add\n      0x01\n      swap1\n      sload\n      swap1\n      0x0100\n      exp\n      swap1\n      div\n      0xff\n      and\n      dup2\n      0x05\n      add\n      exp(0x0100, 0x01)\n      dup2\n      sload\n      dup2\n      0xff\n      mul\n      not\n      and\n      swap1\n      dup4\n      iszero\n      iszero\n      mul\n      or\n      swap1\n      sstore\n      pop\n      swap1\n      pop\n      pop\n        /* \"blc.sol\":2316:2319  i++ */\n      dup1\n      dup1\n      tag_586\n      swap1\n      tag_87\n      jump\t// in\n    tag_586:\n      swap2\n      pop\n      pop\n        /* \"blc.sol\":2275:2366  for (uint i = index; i < array.length-1; i++){... */\n      jump(tag_569)\n    tag_570:\n      pop\n        /* \"blc.sol\":2375:2380  array */\n      dup1\n        /* \"blc.sol\":2375:2386  array.pop() */\n      dup1\n      sload\n      dup1\n      tag_587\n      jumpi\n      tag_588\n      tag_538\n      jump\t// in\n    tag_588:\n    tag_587:\n      0x01\n      swap1\n      sub\n      dup2\n      dup2\n      swap1\n      0x00\n      mstore\n      keccak256(0x00, 0x20)\n      swap1\n      0x06\n      mul\n      add\n      0x00\n      dup1\n      dup3\n      add\n      0x00\n      tag_590\n      swap2\n      swap1\n      tag_541\n      jump\t// in\n    tag_590:\n      0x01\n      dup3\n      add\n      0x00\n      tag_591\n      swap2\n      swap1\n      tag_541\n      jump\t// in\n    tag_591:\n      0x02\n      dup3\n      add\n      0x00\n      tag_592\n      swap2\n      swap1\n      tag_593\n      jump\t// in\n    tag_592:\n      0x03\n      dup3\n      add\n      0x00\n      tag_594\n      swap2\n      swap1\n      tag_593\n      jump\t// in\n    tag_594:\n      0x04\n      dup3\n      add\n      0x00\n      tag_595\n      swap2\n      swap1\n      tag_541\n      jump\t// in\n    tag_595:\n      0x05\n      dup3\n      add\n      exp(0x0100, 0x00)\n      dup2\n      sload\n      swap1\n      0xff\n      mul\n      not\n      and\n      swap1\n      sstore\n      0x05\n      dup3\n      add\n      exp(0x0100, 0x01)\n      dup2\n      sload\n      swap1\n      0xff\n      mul\n      not\n      and\n      swap1\n      sstore\n      pop\n      pop\n      swap1\n      sstore\n        /* \"blc.sol\":2148:2393  function removePatchFile(uint index, PatchFile[] storage array) internal {... */\n    tag_567:\n      pop\n      pop\n      jump\t// out\n        /* \"blc.sol\":1901:2138  function removePatch(uint index, Patch[] storage array) internal {... */\n    tag_353:\n        /* \"blc.sol\":1989:1994  array */\n      dup1\n        /* \"blc.sol\":1989:2001  array.length */\n      dup1\n      sload\n      swap1\n      pop\n        /* \"blc.sol\":1980:1985  index */\n      dup3\n        /* \"blc.sol\":1980:2001  index >= array.length */\n      lt\n        /* \"blc.sol\":1976:2010  if (index >= array.length) return; */\n      iszero\n        /* \"blc.sol\":2003:2010  return; */\n      tag_596\n        /* \"blc.sol\":1976:2010  if (index >= array.length) return; */\n      jumpi\n        /* \"blc.sol\":2025:2031  uint i */\n      0x00\n        /* \"blc.sol\":2034:2039  index */\n      dup3\n        /* \"blc.sol\":2025:2039  uint i = index */\n      swap1\n      pop\n        /* \"blc.sol\":2020:2111  for (uint i = index; i < array.length-1; i++){... */\n    tag_598:\n        /* \"blc.sol\":2058:2059  1 */\n      0x01\n        /* \"blc.sol\":2045:2050  array */\n      dup3\n        /* \"blc.sol\":2045:2057  array.length */\n      dup1\n      sload\n      swap1\n      pop\n        /* \"blc.sol\":2045:2059  array.length-1 */\n      tag_601\n      swap2\n      swap1\n      tag_522\n      jump\t// in\n    tag_601:\n        /* \"blc.sol\":2041:2042  i */\n      dup2\n        /* \"blc.sol\":2041:2059  i < array.length-1 */\n      lt\n        /* \"blc.sol\":2020:2111  for (uint i = index; i < array.length-1; i++){... */\n      iszero\n      tag_599\n      jumpi\n        /* \"blc.sol\":2090:2095  array */\n      dup2\n        /* \"blc.sol\":2098:2099  1 */\n      0x01\n        /* \"blc.sol\":2096:2097  i */\n      dup3\n        /* \"blc.sol\":2096:2099  i+1 */\n      tag_602\n      swap2\n      swap1\n      tag_524\n      jump\t// in\n    tag_602:\n        /* \"blc.sol\":2090:2100  array[i+1] */\n      dup2\n      sload\n      dup2\n      lt\n      tag_603\n      jumpi\n      tag_604\n      tag_70\n      jump\t// in\n    tag_604:\n    tag_603:\n      swap1\n      0x00\n      mstore\n      keccak256(0x00, 0x20)\n      swap1\n      0x04\n      mul\n      add\n        /* \"blc.sol\":2079:2084  array */\n      dup3\n        /* \"blc.sol\":2085:2086  i */\n      dup3\n        /* \"blc.sol\":2079:2087  array[i] */\n      dup2\n      sload\n      dup2\n      lt\n      tag_606\n      jumpi\n      tag_607\n      tag_70\n      jump\t// in\n    tag_607:\n    tag_606:\n      swap1\n      0x00\n      mstore\n      keccak256(0x00, 0x20)\n      swap1\n      0x04\n      mul\n      add\n        /* \"blc.sol\":2079:2100  array[i] = array[i+1] */\n      0x00\n      dup3\n      add\n      dup2\n      0x00\n      add\n      swap1\n      dup2\n      tag_609\n      swap2\n      swap1\n      tag_532\n      jump\t// in\n    tag_609:\n      pop\n      0x01\n      dup3\n      add\n      dup2\n      0x01\n      add\n      swap1\n      dup2\n      tag_610\n      swap2\n      swap1\n      tag_532\n      jump\t// in\n    tag_610:\n      pop\n      0x02\n      dup3\n      add\n      dup2\n      0x02\n      add\n      swap1\n      dup1\n      sload\n      tag_611\n      swap3\n      swap2\n      swap1\n      tag_583\n      jump\t// in\n    tag_611:\n      pop\n      0x03\n      dup3\n      add\n      dup2\n      0x03\n      add\n      swap1\n      dup1\n      sload\n      tag_612\n      swap3\n      swap2\n      swap1\n      tag_583\n      jump\t// in\n    tag_612:\n      pop\n      swap1\n      pop\n      pop\n        /* \"blc.sol\":2061:2064  i++ */\n      dup1\n      dup1\n      tag_613\n      swap1\n      tag_87\n      jump\t// in\n    tag_613:\n      swap2\n      pop\n      pop\n        /* \"blc.sol\":2020:2111  for (uint i = index; i < array.length-1; i++){... */\n      jump(tag_598)\n    tag_599:\n      pop\n        /* \"blc.sol\":2120:2125  array */\n      dup1\n        /* \"blc.sol\":2120:2131  array.pop() */\n      dup1\n      sload\n      dup1\n      tag_614\n      jumpi\n      tag_615\n      tag_538\n      jump\t// in\n    tag_615:\n    tag_614:\n      0x01\n      swap1\n      sub\n      dup2\n      dup2\n      swap1\n      0x00\n      mstore\n      keccak256(0x00, 0x20)\n      swap1\n      0x04\n      mul\n      add\n      0x00\n      dup1\n      dup3\n      add\n      0x00\n      tag_617\n      swap2\n      swap1\n      tag_541\n      jump\t// in\n    tag_617:\n      0x01\n      dup3\n      add\n      0x00\n      tag_618\n      swap2\n      swap1\n      tag_541\n      jump\t// in\n    tag_618:\n      0x02\n      dup3\n      add\n      0x00\n      tag_619\n      swap2\n      swap1\n      tag_593\n      jump\t// in\n    tag_619:\n      0x03\n      dup3\n      add\n      0x00\n      tag_620\n      swap2\n      swap1\n      tag_593\n      jump\t// in\n    tag_620:\n      pop\n      pop\n      swap1\n      sstore\n        /* \"blc.sol\":1901:2138  function removePatch(uint index, Patch[] storage array) internal {... */\n    tag_596:\n      pop\n      pop\n      jump\t// out\n    tag_191:\n      dup3\n      dup1\n      sload\n      dup3\n      dup3\n      sstore\n      swap1\n      0x00\n      mstore\n      keccak256(0x00, 0x20)\n      swap1\n      dup2\n      add\n      swap3\n      dup3\n      iszero\n      tag_621\n      jumpi\n      swap2\n      0x20\n      mul\n      dup3\n      add\n    tag_622:\n      dup3\n      dup2\n      gt\n      iszero\n      tag_623\n      jumpi\n      dup3\n      mload\n      dup3\n      swap1\n      dup1\n      mload\n      swap1\n      0x20\n      add\n      swap1\n      tag_624\n      swap3\n      swap2\n      swap1\n      tag_625\n      jump\t// in\n    tag_624:\n      pop\n      swap2\n      0x20\n      add\n      swap2\n      swap1\n      0x01\n      add\n      swap1\n      jump(tag_622)\n    tag_623:\n    tag_621:\n      pop\n      swap1\n      pop\n      tag_626\n      swap2\n      swap1\n      tag_627\n      jump\t// in\n    tag_626:\n      pop\n      swap1\n      jump\t// out\n    tag_541:\n      pop\n      dup1\n      sload\n      tag_628\n      swap1\n      tag_113\n      jump\t// in\n    tag_628:\n      0x00\n      dup3\n      sstore\n      dup1\n      0x1f\n      lt\n      tag_630\n      jumpi\n      pop\n      jump(tag_629)\n    tag_630:\n      0x1f\n      add\n      0x20\n      swap1\n      div\n      swap1\n      0x00\n      mstore\n      keccak256(0x00, 0x20)\n      swap1\n      dup2\n      add\n      swap1\n      tag_631\n      swap2\n      swap1\n      tag_632\n      jump\t// in\n    tag_631:\n    tag_629:\n      pop\n      jump\t// out\n    tag_583:\n      dup3\n      dup1\n      sload\n      dup3\n      dup3\n      sstore\n      swap1\n      0x00\n      mstore\n      keccak256(0x00, 0x20)\n      swap1\n      dup2\n      add\n      swap3\n      dup3\n      iszero\n      tag_633\n      jumpi\n      0x00\n      mstore\n      keccak256(0x00, 0x20)\n      swap2\n      dup3\n      add\n    tag_634:\n      dup3\n      dup2\n      gt\n      iszero\n      tag_635\n      jumpi\n      dup3\n      dup3\n      swap1\n      dup1\n      sload\n      tag_636\n      swap3\n      swap2\n      swap1\n      tag_637\n      jump\t// in\n    tag_636:\n      pop\n      swap2\n      0x01\n      add\n      swap2\n      swap1\n      0x01\n      add\n      swap1\n      jump(tag_634)\n    tag_635:\n    tag_633:\n      pop\n      swap1\n      pop\n      tag_638\n      swap2\n      swap1\n      tag_627\n      jump\t// in\n    tag_638:\n      pop\n      swap1\n      jump\t// out\n    tag_593:\n      pop\n      dup1\n      sload\n      0x00\n      dup3\n      sstore\n      swap1\n      0x00\n      mstore\n      keccak256(0x00, 0x20)\n      swap1\n      dup2\n      add\n      swap1\n      tag_640\n      swap2\n      swap1\n      tag_627\n      jump\t// in\n    tag_640:\n      pop\n      jump\t// out\n    tag_625:\n      dup3\n      dup1\n      sload\n      dup3\n      dup3\n      sstore\n      swap1\n      0x00\n      mstore\n      keccak256(0x00, 0x20)\n      swap1\n      dup2\n      add\n      swap3\n      dup3\n      iszero\n      tag_641\n      jumpi\n      swap2\n      0x20\n      mul\n      dup3\n      add\n    tag_642:\n      dup3\n      dup2\n      gt\n      iszero\n      tag_643\n      jumpi\n      dup3\n      mload\n      dup3\n      swap1\n      dup2\n      tag_644\n      swap2\n      swap1\n      tag_83\n      jump\t// in\n    tag_644:\n      pop\n      swap2\n      0x20\n      add\n      swap2\n      swap1\n      0x01\n      add\n      swap1\n      jump(tag_642)\n    tag_643:\n    tag_641:\n      pop\n      swap1\n      pop\n      tag_645\n      swap2\n      swap1\n      tag_646\n      jump\t// in\n    tag_645:\n      pop\n      swap1\n      jump\t// out\n    tag_627:\n    tag_647:\n      dup1\n      dup3\n      gt\n      iszero\n      tag_648\n      jumpi\n      0x00\n      dup2\n      dup2\n      tag_649\n      swap2\n      swap1\n      tag_650\n      jump\t// in\n    tag_649:\n      pop\n      0x01\n      add\n      jump(tag_647)\n    tag_648:\n      pop\n      swap1\n      jump\t// out\n    tag_632:\n    tag_651:\n      dup1\n      dup3\n      gt\n      iszero\n      tag_652\n      jumpi\n      0x00\n      dup2\n      0x00\n      swap1\n      sstore\n      pop\n      0x01\n      add\n      jump(tag_651)\n    tag_652:\n      pop\n      swap1\n      jump\t// out\n    tag_637:\n      dup3\n      dup1\n      sload\n      dup3\n      dup3\n      sstore\n      swap1\n      0x00\n      mstore\n      keccak256(0x00, 0x20)\n      swap1\n      dup2\n      add\n      swap3\n      dup3\n      iszero\n      tag_653\n      jumpi\n      0x00\n      mstore\n      keccak256(0x00, 0x20)\n      swap2\n      dup3\n      add\n    tag_654:\n      dup3\n      dup2\n      gt\n      iszero\n      tag_655\n      jumpi\n      dup3\n      dup3\n      swap1\n      dup2\n      tag_656\n      swap2\n      swap1\n      tag_532\n      jump\t// in\n    tag_656:\n      pop\n      swap2\n      0x01\n      add\n      swap2\n      swap1\n      0x01\n      add\n      swap1\n      jump(tag_654)\n    tag_655:\n    tag_653:\n      pop\n      swap1\n      pop\n      tag_657\n      swap2\n      swap1\n      tag_646\n      jump\t// in\n    tag_657:\n      pop\n      swap1\n      jump\t// out\n    tag_646:\n    tag_658:\n      dup1\n      dup3\n      gt\n      iszero\n      tag_659\n      jumpi\n      0x00\n      dup2\n      dup2\n      tag_660\n      swap2\n      swap1\n      tag_541\n      jump\t// in\n    tag_660:\n      pop\n      0x01\n      add\n      jump(tag_658)\n    tag_659:\n      pop\n      swap1\n      jump\t// out\n    tag_650:\n      pop\n      dup1\n      sload\n      0x00\n      dup3\n      sstore\n      swap1\n      0x00\n      mstore\n      keccak256(0x00, 0x20)\n      swap1\n      dup2\n      add\n      swap1\n      tag_662\n      swap2\n      swap1\n      tag_646\n      jump\t// in\n    tag_662:\n      pop\n      jump\t// out\n        /* \"#utility.yul\":7:82   */\n    tag_663:\n        /* \"#utility.yul\":40:46   */\n      0x00\n        /* \"#utility.yul\":73:75   */\n      0x40\n        /* \"#utility.yul\":67:76   */\n      mload\n        /* \"#utility.yul\":57:76   */\n      swap1\n      pop\n        /* \"#utility.yul\":7:82   */\n      swap1\n      jump\t// out\n        /* \"#utility.yul\":88:205   */\n    tag_664:\n        /* \"#utility.yul\":197:198   */\n      0x00\n        /* \"#utility.yul\":194:195   */\n      dup1\n        /* \"#utility.yul\":187:199   */\n      revert\n        /* \"#utility.yul\":211:328   */\n    tag_665:\n        /* \"#utility.yul\":320:321   */\n      0x00\n        /* \"#utility.yul\":317:318   */\n      dup1\n        /* \"#utility.yul\":310:322   */\n      revert\n        /* \"#utility.yul\":334:451   */\n    tag_666:\n        /* \"#utility.yul\":443:444   */\n      0x00\n        /* \"#utility.yul\":440:441   */\n      dup1\n        /* \"#utility.yul\":433:445   */\n      revert\n        /* \"#utility.yul\":457:559   */\n    tag_667:\n        /* \"#utility.yul\":498:504   */\n      0x00\n        /* \"#utility.yul\":549:551   */\n      0x1f\n        /* \"#utility.yul\":545:552   */\n      not\n        /* \"#utility.yul\":540:542   */\n      0x1f\n        /* \"#utility.yul\":533:538   */\n      dup4\n        /* \"#utility.yul\":529:543   */\n      add\n        /* \"#utility.yul\":525:553   */\n      and\n        /* \"#utility.yul\":515:553   */\n      swap1\n      pop\n        /* \"#utility.yul\":457:559   */\n      swap2\n      swap1\n      pop\n      jump\t// out\n        /* \"#utility.yul\":565:745   */\n    tag_668:\n        /* \"#utility.yul\":613:690   */\n      0x4e487b7100000000000000000000000000000000000000000000000000000000\n        /* \"#utility.yul\":610:611   */\n      0x00\n        /* \"#utility.yul\":603:691   */\n      mstore\n        /* \"#utility.yul\":710:714   */\n      0x41\n        /* \"#utility.yul\":707:708   */\n      0x04\n        /* \"#utility.yul\":700:715   */\n      mstore\n        /* \"#utility.yul\":734:738   */\n      0x24\n        /* \"#utility.yul\":731:732   */\n      0x00\n        /* \"#utility.yul\":724:739   */\n      revert\n        /* \"#utility.yul\":751:1032   */\n    tag_669:\n        /* \"#utility.yul\":834:861   */\n      tag_759\n        /* \"#utility.yul\":856:860   */\n      dup3\n        /* \"#utility.yul\":834:861   */\n      tag_667\n      jump\t// in\n    tag_759:\n        /* \"#utility.yul\":826:832   */\n      dup2\n        /* \"#utility.yul\":822:862   */\n      add\n        /* \"#utility.yul\":964:970   */\n      dup2\n        /* \"#utility.yul\":952:962   */\n      dup2\n        /* \"#utility.yul\":949:971   */\n      lt\n        /* \"#utility.yul\":928:946   */\n      0xffffffffffffffff\n        /* \"#utility.yul\":916:926   */\n      dup3\n        /* \"#utility.yul\":913:947   */\n      gt\n        /* \"#utility.yul\":910:972   */\n      or\n        /* \"#utility.yul\":907:995   */\n      iszero\n      tag_760\n      jumpi\n        /* \"#utility.yul\":975:993   */\n      tag_761\n      tag_668\n      jump\t// in\n    tag_761:\n        /* \"#utility.yul\":907:995   */\n    tag_760:\n        /* \"#utility.yul\":1015:1025   */\n      dup1\n        /* \"#utility.yul\":1011:1013   */\n      0x40\n        /* \"#utility.yul\":1004:1026   */\n      mstore\n        /* \"#utility.yul\":794:1032   */\n      pop\n        /* \"#utility.yul\":751:1032   */\n      pop\n      pop\n      jump\t// out\n        /* \"#utility.yul\":1038:1167   */\n    tag_670:\n        /* \"#utility.yul\":1072:1078   */\n      0x00\n        /* \"#utility.yul\":1099:1119   */\n      tag_763\n      tag_663\n      jump\t// in\n    tag_763:\n        /* \"#utility.yul\":1089:1119   */\n      swap1\n      pop\n        /* \"#utility.yul\":1128:1161   */\n      tag_764\n        /* \"#utility.yul\":1156:1160   */\n      dup3\n        /* \"#utility.yul\":1148:1154   */\n      dup3\n        /* \"#utility.yul\":1128:1161   */\n      tag_669\n      jump\t// in\n    tag_764:\n        /* \"#utility.yul\":1038:1167   */\n      swap2\n      swap1\n      pop\n      jump\t// out\n        /* \"#utility.yul\":1173:1519   */\n    tag_671:\n        /* \"#utility.yul\":1285:1289   */\n      0x00\n        /* \"#utility.yul\":1375:1393   */\n      0xffffffffffffffff\n        /* \"#utility.yul\":1367:1373   */\n      dup3\n        /* \"#utility.yul\":1364:1394   */\n      gt\n        /* \"#utility.yul\":1361:1417   */\n      iszero\n      tag_766\n      jumpi\n        /* \"#utility.yul\":1397:1415   */\n      tag_767\n      tag_668\n      jump\t// in\n    tag_767:\n        /* \"#utility.yul\":1361:1417   */\n    tag_766:\n        /* \"#utility.yul\":1447:1451   */\n      0x20\n        /* \"#utility.yul\":1439:1445   */\n      dup3\n        /* \"#utility.yul\":1435:1452   */\n      mul\n        /* \"#utility.yul\":1427:1452   */\n      swap1\n      pop\n        /* \"#utility.yul\":1507:1511   */\n      0x20\n        /* \"#utility.yul\":1501:1505   */\n      dup2\n        /* \"#utility.yul\":1497:1512   */\n      add\n        /* \"#utility.yul\":1489:1512   */\n      swap1\n      pop\n        /* \"#utility.yul\":1173:1519   */\n      swap2\n      swap1\n      pop\n      jump\t// out\n        /* \"#utility.yul\":1525:1642   */\n    tag_672:\n        /* \"#utility.yul\":1634:1635   */\n      0x00\n        /* \"#utility.yul\":1631:1632   */\n      dup1\n        /* \"#utility.yul\":1624:1636   */\n      revert\n        /* \"#utility.yul\":1648:1969   */\n    tag_673:\n        /* \"#utility.yul\":1735:1739   */\n      0x00\n        /* \"#utility.yul\":1825:1843   */\n      0xffffffffffffffff\n        /* \"#utility.yul\":1817:1823   */\n      dup3\n        /* \"#utility.yul\":1814:1844   */\n      gt\n        /* \"#utility.yul\":1811:1867   */\n      iszero\n      tag_770\n      jumpi\n        /* \"#utility.yul\":1847:1865   */\n      tag_771\n      tag_668\n      jump\t// in\n    tag_771:\n        /* \"#utility.yul\":1811:1867   */\n    tag_770:\n        /* \"#utility.yul\":1897:1901   */\n      0x20\n        /* \"#utility.yul\":1889:1895   */\n      dup3\n        /* \"#utility.yul\":1885:1902   */\n      mul\n        /* \"#utility.yul\":1877:1902   */\n      swap1\n      pop\n        /* \"#utility.yul\":1957:1961   */\n      0x20\n        /* \"#utility.yul\":1951:1955   */\n      dup2\n        /* \"#utility.yul\":1947:1962   */\n      add\n        /* \"#utility.yul\":1939:1962   */\n      swap1\n      pop\n        /* \"#utility.yul\":1648:1969   */\n      swap2\n      swap1\n      pop\n      jump\t// out\n        /* \"#utility.yul\":1975:2092   */\n    tag_674:\n        /* \"#utility.yul\":2084:2085   */\n      0x00\n        /* \"#utility.yul\":2081:2082   */\n      dup1\n        /* \"#utility.yul\":2074:2086   */\n      revert\n        /* \"#utility.yul\":2098:2406   */\n    tag_675:\n        /* \"#utility.yul\":2160:2164   */\n      0x00\n        /* \"#utility.yul\":2250:2268   */\n      0xffffffffffffffff\n        /* \"#utility.yul\":2242:2248   */\n      dup3\n        /* \"#utility.yul\":2239:2269   */\n      gt\n        /* \"#utility.yul\":2236:2292   */\n      iszero\n      tag_774\n      jumpi\n        /* \"#utility.yul\":2272:2290   */\n      tag_775\n      tag_668\n      jump\t// in\n    tag_775:\n        /* \"#utility.yul\":2236:2292   */\n    tag_774:\n        /* \"#utility.yul\":2310:2339   */\n      tag_776\n        /* \"#utility.yul\":2332:2338   */\n      dup3\n        /* \"#utility.yul\":2310:2339   */\n      tag_667\n      jump\t// in\n    tag_776:\n        /* \"#utility.yul\":2302:2339   */\n      swap1\n      pop\n        /* \"#utility.yul\":2394:2398   */\n      0x20\n        /* \"#utility.yul\":2388:2392   */\n      dup2\n        /* \"#utility.yul\":2384:2399   */\n      add\n        /* \"#utility.yul\":2376:2399   */\n      swap1\n      pop\n        /* \"#utility.yul\":2098:2406   */\n      swap2\n      swap1\n      pop\n      jump\t// out\n        /* \"#utility.yul\":2412:2558   */\n    tag_676:\n        /* \"#utility.yul\":2509:2515   */\n      dup3\n        /* \"#utility.yul\":2504:2507   */\n      dup2\n        /* \"#utility.yul\":2499:2502   */\n      dup4\n        /* \"#utility.yul\":2486:2516   */\n      calldatacopy\n        /* \"#utility.yul\":2550:2551   */\n      0x00\n        /* \"#utility.yul\":2541:2547   */\n      dup4\n        /* \"#utility.yul\":2536:2539   */\n      dup4\n        /* \"#utility.yul\":2532:2548   */\n      add\n        /* \"#utility.yul\":2525:2552   */\n      mstore\n        /* \"#utility.yul\":2412:2558   */\n      pop\n      pop\n      pop\n      jump\t// out\n        /* \"#utility.yul\":2564:2989   */\n    tag_677:\n        /* \"#utility.yul\":2642:2647   */\n      0x00\n        /* \"#utility.yul\":2667:2733   */\n      tag_779\n        /* \"#utility.yul\":2683:2732   */\n      tag_780\n        /* \"#utility.yul\":2725:2731   */\n      dup5\n        /* \"#utility.yul\":2683:2732   */\n      tag_675\n      jump\t// in\n    tag_780:\n        /* \"#utility.yul\":2667:2733   */\n      tag_670\n      jump\t// in\n    tag_779:\n        /* \"#utility.yul\":2658:2733   */\n      swap1\n      pop\n        /* \"#utility.yul\":2756:2762   */\n      dup3\n        /* \"#utility.yul\":2749:2754   */\n      dup2\n        /* \"#utility.yul\":2742:2763   */\n      mstore\n        /* \"#utility.yul\":2794:2798   */\n      0x20\n        /* \"#utility.yul\":2787:2792   */\n      dup2\n        /* \"#utility.yul\":2783:2799   */\n      add\n        /* \"#utility.yul\":2832:2835   */\n      dup5\n        /* \"#utility.yul\":2823:2829   */\n      dup5\n        /* \"#utility.yul\":2818:2821   */\n      dup5\n        /* \"#utility.yul\":2814:2830   */\n      add\n        /* \"#utility.yul\":2811:2836   */\n      gt\n        /* \"#utility.yul\":2808:2920   */\n      iszero\n      tag_781\n      jumpi\n        /* \"#utility.yul\":2839:2918   */\n      tag_782\n      tag_674\n      jump\t// in\n    tag_782:\n        /* \"#utility.yul\":2808:2920   */\n    tag_781:\n        /* \"#utility.yul\":2929:2983   */\n      tag_783\n        /* \"#utility.yul\":2976:2982   */\n      dup5\n        /* \"#utility.yul\":2971:2974   */\n      dup3\n        /* \"#utility.yul\":2966:2969   */\n      dup6\n        /* \"#utility.yul\":2929:2983   */\n      tag_676\n      jump\t// in\n    tag_783:\n        /* \"#utility.yul\":2648:2989   */\n      pop\n        /* \"#utility.yul\":2564:2989   */\n      swap4\n      swap3\n      pop\n      pop\n      pop\n      jump\t// out\n        /* \"#utility.yul\":3009:3349   */\n    tag_678:\n        /* \"#utility.yul\":3065:3070   */\n      0x00\n        /* \"#utility.yul\":3114:3117   */\n      dup3\n        /* \"#utility.yul\":3107:3111   */\n      0x1f\n        /* \"#utility.yul\":3099:3105   */\n      dup4\n        /* \"#utility.yul\":3095:3112   */\n      add\n        /* \"#utility.yul\":3091:3118   */\n      slt\n        /* \"#utility.yul\":3081:3203   */\n      tag_785\n      jumpi\n        /* \"#utility.yul\":3122:3201   */\n      tag_786\n      tag_666\n      jump\t// in\n    tag_786:\n        /* \"#utility.yul\":3081:3203   */\n    tag_785:\n        /* \"#utility.yul\":3239:3245   */\n      dup2\n        /* \"#utility.yul\":3226:3246   */\n      calldataload\n        /* \"#utility.yul\":3264:3343   */\n      tag_787\n        /* \"#utility.yul\":3339:3342   */\n      dup5\n        /* \"#utility.yul\":3331:3337   */\n      dup3\n        /* \"#utility.yul\":3324:3328   */\n      0x20\n        /* \"#utility.yul\":3316:3322   */\n      dup7\n        /* \"#utility.yul\":3312:3329   */\n      add\n        /* \"#utility.yul\":3264:3343   */\n      tag_677\n      jump\t// in\n    tag_787:\n        /* \"#utility.yul\":3255:3343   */\n      swap2\n      pop\n        /* \"#utility.yul\":3071:3349   */\n      pop\n        /* \"#utility.yul\":3009:3349   */\n      swap3\n      swap2\n      pop\n      pop\n      jump\t// out\n        /* \"#utility.yul\":3371:4316   */\n    tag_679:\n        /* \"#utility.yul\":3477:3482   */\n      0x00\n        /* \"#utility.yul\":3502:3593   */\n      tag_789\n        /* \"#utility.yul\":3518:3592   */\n      tag_790\n        /* \"#utility.yul\":3585:3591   */\n      dup5\n        /* \"#utility.yul\":3518:3592   */\n      tag_673\n      jump\t// in\n    tag_790:\n        /* \"#utility.yul\":3502:3593   */\n      tag_670\n      jump\t// in\n    tag_789:\n        /* \"#utility.yul\":3493:3593   */\n      swap1\n      pop\n        /* \"#utility.yul\":3613:3618   */\n      dup1\n        /* \"#utility.yul\":3642:3648   */\n      dup4\n        /* \"#utility.yul\":3635:3640   */\n      dup3\n        /* \"#utility.yul\":3628:3649   */\n      mstore\n        /* \"#utility.yul\":3676:3680   */\n      0x20\n        /* \"#utility.yul\":3669:3674   */\n      dup3\n        /* \"#utility.yul\":3665:3681   */\n      add\n        /* \"#utility.yul\":3658:3681   */\n      swap1\n      pop\n        /* \"#utility.yul\":3729:3733   */\n      0x20\n        /* \"#utility.yul\":3721:3727   */\n      dup5\n        /* \"#utility.yul\":3717:3734   */\n      mul\n        /* \"#utility.yul\":3709:3715   */\n      dup4\n        /* \"#utility.yul\":3705:3735   */\n      add\n        /* \"#utility.yul\":3758:3761   */\n      dup6\n        /* \"#utility.yul\":3750:3756   */\n      dup2\n        /* \"#utility.yul\":3747:3762   */\n      gt\n        /* \"#utility.yul\":3744:3866   */\n      iszero\n      tag_791\n      jumpi\n        /* \"#utility.yul\":3777:3856   */\n      tag_792\n      tag_672\n      jump\t// in\n    tag_792:\n        /* \"#utility.yul\":3744:3866   */\n    tag_791:\n        /* \"#utility.yul\":3892:3898   */\n      dup4\n        /* \"#utility.yul\":3875:4310   */\n    tag_793:\n        /* \"#utility.yul\":3909:3915   */\n      dup2\n        /* \"#utility.yul\":3904:3907   */\n      dup2\n        /* \"#utility.yul\":3901:3916   */\n      lt\n        /* \"#utility.yul\":3875:4310   */\n      iszero\n      tag_795\n      jumpi\n        /* \"#utility.yul\":3998:4001   */\n      dup1\n        /* \"#utility.yul\":3985:4002   */\n      calldataload\n        /* \"#utility.yul\":4034:4052   */\n      0xffffffffffffffff\n        /* \"#utility.yul\":4021:4032   */\n      dup2\n        /* \"#utility.yul\":4018:4053   */\n      gt\n        /* \"#utility.yul\":4015:4137   */\n      iszero\n      tag_796\n      jumpi\n        /* \"#utility.yul\":4056:4135   */\n      tag_797\n      tag_666\n      jump\t// in\n    tag_797:\n        /* \"#utility.yul\":4015:4137   */\n    tag_796:\n        /* \"#utility.yul\":4180:4191   */\n      dup1\n        /* \"#utility.yul\":4172:4178   */\n      dup7\n        /* \"#utility.yul\":4168:4192   */\n      add\n        /* \"#utility.yul\":4218:4265   */\n      tag_798\n        /* \"#utility.yul\":4261:4264   */\n      dup10\n        /* \"#utility.yul\":4249:4259   */\n      dup3\n        /* \"#utility.yul\":4218:4265   */\n      tag_678\n      jump\t// in\n    tag_798:\n        /* \"#utility.yul\":4213:4216   */\n      dup6\n        /* \"#utility.yul\":4206:4266   */\n      mstore\n        /* \"#utility.yul\":4295:4299   */\n      0x20\n        /* \"#utility.yul\":4290:4293   */\n      dup6\n        /* \"#utility.yul\":4286:4300   */\n      add\n        /* \"#utility.yul\":4279:4300   */\n      swap5\n      pop\n        /* \"#utility.yul\":3951:4310   */\n      pop\n      pop\n        /* \"#utility.yul\":3935:3939   */\n      0x20\n        /* \"#utility.yul\":3930:3933   */\n      dup2\n        /* \"#utility.yul\":3926:3940   */\n      add\n        /* \"#utility.yul\":3919:3940   */\n      swap1\n      pop\n        /* \"#utility.yul\":3875:4310   */\n      jump(tag_793)\n    tag_795:\n        /* \"#utility.yul\":3879:3900   */\n      pop\n        /* \"#utility.yul\":3483:4316   */\n      pop\n      pop\n        /* \"#utility.yul\":3371:4316   */\n      swap4\n      swap3\n      pop\n      pop\n      pop\n      jump\t// out\n        /* \"#utility.yul\":4338:4728   */\n    tag_680:\n        /* \"#utility.yul\":4419:4424   */\n      0x00\n        /* \"#utility.yul\":4468:4471   */\n      dup3\n        /* \"#utility.yul\":4461:4465   */\n      0x1f\n        /* \"#utility.yul\":4453:4459   */\n      dup4\n        /* \"#utility.yul\":4449:4466   */\n      add\n        /* \"#utility.yul\":4445:4472   */\n      slt\n        /* \"#utility.yul\":4435:4557   */\n      tag_800\n      jumpi\n        /* \"#utility.yul\":4476:4555   */\n      tag_801\n      tag_666\n      jump\t// in\n    tag_801:\n        /* \"#utility.yul\":4435:4557   */\n    tag_800:\n        /* \"#utility.yul\":4593:4599   */\n      dup2\n        /* \"#utility.yul\":4580:4600   */\n      calldataload\n        /* \"#utility.yul\":4618:4722   */\n      tag_802\n        /* \"#utility.yul\":4718:4721   */\n      dup5\n        /* \"#utility.yul\":4710:4716   */\n      dup3\n        /* \"#utility.yul\":4703:4707   */\n      0x20\n        /* \"#utility.yul\":4695:4701   */\n      dup7\n        /* \"#utility.yul\":4691:4708   */\n      add\n        /* \"#utility.yul\":4618:4722   */\n      tag_679\n      jump\t// in\n    tag_802:\n        /* \"#utility.yul\":4609:4722   */\n      swap2\n      pop\n        /* \"#utility.yul\":4425:4728   */\n      pop\n        /* \"#utility.yul\":4338:4728   */\n      swap3\n      swap2\n      pop\n      pop\n      jump\t// out\n        /* \"#utility.yul\":4752:5772   */\n    tag_681:\n        /* \"#utility.yul\":4883:4888   */\n      0x00\n        /* \"#utility.yul\":4908:5024   */\n      tag_804\n        /* \"#utility.yul\":4924:5023   */\n      tag_805\n        /* \"#utility.yul\":5016:5022   */\n      dup5\n        /* \"#utility.yul\":4924:5023   */\n      tag_671\n      jump\t// in\n    tag_805:\n        /* \"#utility.yul\":4908:5024   */\n      tag_670\n      jump\t// in\n    tag_804:\n        /* \"#utility.yul\":4899:5024   */\n      swap1\n      pop\n        /* \"#utility.yul\":5044:5049   */\n      dup1\n        /* \"#utility.yul\":5073:5079   */\n      dup4\n        /* \"#utility.yul\":5066:5071   */\n      dup3\n        /* \"#utility.yul\":5059:5080   */\n      mstore\n        /* \"#utility.yul\":5107:5111   */\n      0x20\n        /* \"#utility.yul\":5100:5105   */\n      dup3\n        /* \"#utility.yul\":5096:5112   */\n      add\n        /* \"#utility.yul\":5089:5112   */\n      swap1\n      pop\n        /* \"#utility.yul\":5160:5164   */\n      0x20\n        /* \"#utility.yul\":5152:5158   */\n      dup5\n        /* \"#utility.yul\":5148:5165   */\n      mul\n        /* \"#utility.yul\":5140:5146   */\n      dup4\n        /* \"#utility.yul\":5136:5166   */\n      add\n        /* \"#utility.yul\":5189:5192   */\n      dup6\n        /* \"#utility.yul\":5181:5187   */\n      dup2\n        /* \"#utility.yul\":5178:5193   */\n      gt\n        /* \"#utility.yul\":5175:5297   */\n      iszero\n      tag_806\n      jumpi\n        /* \"#utility.yul\":5208:5287   */\n      tag_807\n      tag_672\n      jump\t// in\n    tag_807:\n        /* \"#utility.yul\":5175:5297   */\n    tag_806:\n        /* \"#utility.yul\":5323:5329   */\n      dup4\n        /* \"#utility.yul\":5306:5766   */\n    tag_808:\n        /* \"#utility.yul\":5340:5346   */\n      dup2\n        /* \"#utility.yul\":5335:5338   */\n      dup2\n        /* \"#utility.yul\":5332:5347   */\n      lt\n        /* \"#utility.yul\":5306:5766   */\n      iszero\n      tag_810\n      jumpi\n        /* \"#utility.yul\":5429:5432   */\n      dup1\n        /* \"#utility.yul\":5416:5433   */\n      calldataload\n        /* \"#utility.yul\":5465:5483   */\n      0xffffffffffffffff\n        /* \"#utility.yul\":5452:5463   */\n      dup2\n        /* \"#utility.yul\":5449:5484   */\n      gt\n        /* \"#utility.yul\":5446:5568   */\n      iszero\n      tag_811\n      jumpi\n        /* \"#utility.yul\":5487:5566   */\n      tag_812\n      tag_666\n      jump\t// in\n    tag_812:\n        /* \"#utility.yul\":5446:5568   */\n    tag_811:\n        /* \"#utility.yul\":5611:5622   */\n      dup1\n        /* \"#utility.yul\":5603:5609   */\n      dup7\n        /* \"#utility.yul\":5599:5623   */\n      add\n        /* \"#utility.yul\":5649:5721   */\n      tag_813\n        /* \"#utility.yul\":5717:5720   */\n      dup10\n        /* \"#utility.yul\":5705:5715   */\n      dup3\n        /* \"#utility.yul\":5649:5721   */\n      tag_680\n      jump\t// in\n    tag_813:\n        /* \"#utility.yul\":5644:5647   */\n      dup6\n        /* \"#utility.yul\":5637:5722   */\n      mstore\n        /* \"#utility.yul\":5751:5755   */\n      0x20\n        /* \"#utility.yul\":5746:5749   */\n      dup6\n        /* \"#utility.yul\":5742:5756   */\n      add\n        /* \"#utility.yul\":5735:5756   */\n      swap5\n      pop\n        /* \"#utility.yul\":5382:5766   */\n      pop\n      pop\n        /* \"#utility.yul\":5366:5370   */\n      0x20\n        /* \"#utility.yul\":5361:5364   */\n      dup2\n        /* \"#utility.yul\":5357:5371   */\n      add\n        /* \"#utility.yul\":5350:5371   */\n      swap1\n      pop\n        /* \"#utility.yul\":5306:5766   */\n      jump(tag_808)\n    tag_810:\n        /* \"#utility.yul\":5310:5331   */\n      pop\n        /* \"#utility.yul\":4889:5772   */\n      pop\n      pop\n        /* \"#utility.yul\":4752:5772   */\n      swap4\n      swap3\n      pop\n      pop\n      pop\n      jump\t// out\n        /* \"#utility.yul\":5796:6236   */\n    tag_682:\n        /* \"#utility.yul\":5902:5907   */\n      0x00\n        /* \"#utility.yul\":5951:5954   */\n      dup3\n        /* \"#utility.yul\":5944:5948   */\n      0x1f\n        /* \"#utility.yul\":5936:5942   */\n      dup4\n        /* \"#utility.yul\":5932:5949   */\n      add\n        /* \"#utility.yul\":5928:5955   */\n      slt\n        /* \"#utility.yul\":5918:6040   */\n      tag_815\n      jumpi\n        /* \"#utility.yul\":5959:6038   */\n      tag_816\n      tag_666\n      jump\t// in\n    tag_816:\n        /* \"#utility.yul\":5918:6040   */\n    tag_815:\n        /* \"#utility.yul\":6076:6082   */\n      dup2\n        /* \"#utility.yul\":6063:6083   */\n      calldataload\n        /* \"#utility.yul\":6101:6230   */\n      tag_817\n        /* \"#utility.yul\":6226:6229   */\n      dup5\n        /* \"#utility.yul\":6218:6224   */\n      dup3\n        /* \"#utility.yul\":6211:6215   */\n      0x20\n        /* \"#utility.yul\":6203:6209   */\n      dup7\n        /* \"#utility.yul\":6199:6216   */\n      add\n        /* \"#utility.yul\":6101:6230   */\n      tag_681\n      jump\t// in\n    tag_817:\n        /* \"#utility.yul\":6092:6230   */\n      swap2\n      pop\n        /* \"#utility.yul\":5908:6236   */\n      pop\n        /* \"#utility.yul\":5796:6236   */\n      swap3\n      swap2\n      pop\n      pop\n      jump\t// out\n        /* \"#utility.yul\":6242:7276   */\n    tag_20:\n        /* \"#utility.yul\":6430:6436   */\n      0x00\n        /* \"#utility.yul\":6438:6444   */\n      dup1\n        /* \"#utility.yul\":6487:6489   */\n      0x40\n        /* \"#utility.yul\":6475:6484   */\n      dup4\n        /* \"#utility.yul\":6466:6473   */\n      dup6\n        /* \"#utility.yul\":6462:6485   */\n      sub\n        /* \"#utility.yul\":6458:6490   */\n      slt\n        /* \"#utility.yul\":6455:6574   */\n      iszero\n      tag_819\n      jumpi\n        /* \"#utility.yul\":6493:6572   */\n      tag_820\n      tag_664\n      jump\t// in\n    tag_820:\n        /* \"#utility.yul\":6455:6574   */\n    tag_819:\n        /* \"#utility.yul\":6641:6642   */\n      0x00\n        /* \"#utility.yul\":6630:6639   */\n      dup4\n        /* \"#utility.yul\":6626:6643   */\n      add\n        /* \"#utility.yul\":6613:6644   */\n      calldataload\n        /* \"#utility.yul\":6671:6689   */\n      0xffffffffffffffff\n        /* \"#utility.yul\":6663:6669   */\n      dup2\n        /* \"#utility.yul\":6660:6690   */\n      gt\n        /* \"#utility.yul\":6657:6774   */\n      iszero\n      tag_821\n      jumpi\n        /* \"#utility.yul\":6693:6772   */\n      tag_822\n      tag_665\n      jump\t// in\n    tag_822:\n        /* \"#utility.yul\":6657:6774   */\n    tag_821:\n        /* \"#utility.yul\":6798:6911   */\n      tag_823\n        /* \"#utility.yul\":6903:6910   */\n      dup6\n        /* \"#utility.yul\":6894:6900   */\n      dup3\n        /* \"#utility.yul\":6883:6892   */\n      dup7\n        /* \"#utility.yul\":6879:6901   */\n      add\n        /* \"#utility.yul\":6798:6911   */\n      tag_682\n      jump\t// in\n    tag_823:\n        /* \"#utility.yul\":6788:6911   */\n      swap3\n      pop\n        /* \"#utility.yul\":6584:6921   */\n      pop\n        /* \"#utility.yul\":6988:6990   */\n      0x20\n        /* \"#utility.yul\":6977:6986   */\n      dup4\n        /* \"#utility.yul\":6973:6991   */\n      add\n        /* \"#utility.yul\":6960:6992   */\n      calldataload\n        /* \"#utility.yul\":7019:7037   */\n      0xffffffffffffffff\n        /* \"#utility.yul\":7011:7017   */\n      dup2\n        /* \"#utility.yul\":7008:7038   */\n      gt\n        /* \"#utility.yul\":7005:7122   */\n      iszero\n      tag_824\n      jumpi\n        /* \"#utility.yul\":7041:7120   */\n      tag_825\n      tag_665\n      jump\t// in\n    tag_825:\n        /* \"#utility.yul\":7005:7122   */\n    tag_824:\n        /* \"#utility.yul\":7146:7259   */\n      tag_826\n        /* \"#utility.yul\":7251:7258   */\n      dup6\n        /* \"#utility.yul\":7242:7248   */\n      dup3\n        /* \"#utility.yul\":7231:7240   */\n      dup7\n        /* \"#utility.yul\":7227:7249   */\n      add\n        /* \"#utility.yul\":7146:7259   */\n      tag_682\n      jump\t// in\n    tag_826:\n        /* \"#utility.yul\":7136:7259   */\n      swap2\n      pop\n        /* \"#utility.yul\":6931:7269   */\n      pop\n        /* \"#utility.yul\":6242:7276   */\n      swap3\n      pop\n      swap3\n      swap1\n      pop\n      jump\t// out\n        /* \"#utility.yul\":7282:7421   */\n    tag_683:\n        /* \"#utility.yul\":7374:7380   */\n      0x00\n        /* \"#utility.yul\":7408:7413   */\n      dup2\n        /* \"#utility.yul\":7402:7414   */\n      mload\n        /* \"#utility.yul\":7392:7414   */\n      swap1\n      pop\n        /* \"#utility.yul\":7282:7421   */\n      swap2\n      swap1\n      pop\n      jump\t// out\n        /* \"#utility.yul\":7427:7636   */\n    tag_684:\n        /* \"#utility.yul\":7551:7562   */\n      0x00\n        /* \"#utility.yul\":7585:7591   */\n      dup3\n        /* \"#utility.yul\":7580:7583   */\n      dup3\n        /* \"#utility.yul\":7573:7592   */\n      mstore\n        /* \"#utility.yul\":7625:7629   */\n      0x20\n        /* \"#utility.yul\":7620:7623   */\n      dup3\n        /* \"#utility.yul\":7616:7630   */\n      add\n        /* \"#utility.yul\":7601:7630   */\n      swap1\n      pop\n        /* \"#utility.yul\":7427:7636   */\n      swap3\n      swap2\n      pop\n      pop\n      jump\t// out\n        /* \"#utility.yul\":7642:7799   */\n    tag_685:\n        /* \"#utility.yul\":7734:7738   */\n      0x00\n        /* \"#utility.yul\":7757:7760   */\n      dup2\n        /* \"#utility.yul\":7749:7760   */\n      swap1\n      pop\n        /* \"#utility.yul\":7787:7791   */\n      0x20\n        /* \"#utility.yul\":7782:7785   */\n      dup3\n        /* \"#utility.yul\":7778:7792   */\n      add\n        /* \"#utility.yul\":7770:7792   */\n      swap1\n      pop\n        /* \"#utility.yul\":7642:7799   */\n      swap2\n      swap1\n      pop\n      jump\t// out\n        /* \"#utility.yul\":7805:7904   */\n    tag_686:\n        /* \"#utility.yul\":7857:7863   */\n      0x00\n        /* \"#utility.yul\":7891:7896   */\n      dup2\n        /* \"#utility.yul\":7885:7897   */\n      mload\n        /* \"#utility.yul\":7875:7897   */\n      swap1\n      pop\n        /* \"#utility.yul\":7805:7904   */\n      swap2\n      swap1\n      pop\n      jump\t// out\n        /* \"#utility.yul\":7910:8069   */\n    tag_687:\n        /* \"#utility.yul\":7984:7995   */\n      0x00\n        /* \"#utility.yul\":8018:8024   */\n      dup3\n        /* \"#utility.yul\":8013:8016   */\n      dup3\n        /* \"#utility.yul\":8006:8025   */\n      mstore\n        /* \"#utility.yul\":8058:8062   */\n      0x20\n        /* \"#utility.yul\":8053:8056   */\n      dup3\n        /* \"#utility.yul\":8049:8063   */\n      add\n        /* \"#utility.yul\":8034:8063   */\n      swap1\n      pop\n        /* \"#utility.yul\":7910:8069   */\n      swap3\n      swap2\n      pop\n      pop\n      jump\t// out\n        /* \"#utility.yul\":8075:8321   */\n    tag_688:\n        /* \"#utility.yul\":8156:8157   */\n      0x00\n        /* \"#utility.yul\":8166:8279   */\n    tag_833:\n        /* \"#utility.yul\":8180:8186   */\n      dup4\n        /* \"#utility.yul\":8177:8178   */\n      dup2\n        /* \"#utility.yul\":8174:8187   */\n      lt\n        /* \"#utility.yul\":8166:8279   */\n      iszero\n      tag_835\n      jumpi\n        /* \"#utility.yul\":8265:8266   */\n      dup1\n        /* \"#utility.yul\":8260:8263   */\n      dup3\n        /* \"#utility.yul\":8256:8267   */\n      add\n        /* \"#utility.yul\":8250:8268   */\n      mload\n        /* \"#utility.yul\":8246:8247   */\n      dup2\n        /* \"#utility.yul\":8241:8244   */\n      dup5\n        /* \"#utility.yul\":8237:8248   */\n      add\n        /* \"#utility.yul\":8230:8269   */\n      mstore\n        /* \"#utility.yul\":8202:8204   */\n      0x20\n        /* \"#utility.yul\":8199:8200   */\n      dup2\n        /* \"#utility.yul\":8195:8205   */\n      add\n        /* \"#utility.yul\":8190:8205   */\n      swap1\n      pop\n        /* \"#utility.yul\":8166:8279   */\n      jump(tag_833)\n    tag_835:\n        /* \"#utility.yul\":8313:8314   */\n      0x00\n        /* \"#utility.yul\":8304:8310   */\n      dup5\n        /* \"#utility.yul\":8299:8302   */\n      dup5\n        /* \"#utility.yul\":8295:8311   */\n      add\n        /* \"#utility.yul\":8288:8315   */\n      mstore\n        /* \"#utility.yul\":8137:8321   */\n      pop\n        /* \"#utility.yul\":8075:8321   */\n      pop\n      pop\n      pop\n      jump\t// out\n        /* \"#utility.yul\":8327:8684   */\n    tag_689:\n        /* \"#utility.yul\":8405:8408   */\n      0x00\n        /* \"#utility.yul\":8433:8472   */\n      tag_837\n        /* \"#utility.yul\":8466:8471   */\n      dup3\n        /* \"#utility.yul\":8433:8472   */\n      tag_686\n      jump\t// in\n    tag_837:\n        /* \"#utility.yul\":8488:8549   */\n      tag_838\n        /* \"#utility.yul\":8542:8548   */\n      dup2\n        /* \"#utility.yul\":8537:8540   */\n      dup6\n        /* \"#utility.yul\":8488:8549   */\n      tag_687\n      jump\t// in\n    tag_838:\n        /* \"#utility.yul\":8481:8549   */\n      swap4\n      pop\n        /* \"#utility.yul\":8558:8623   */\n      tag_839\n        /* \"#utility.yul\":8616:8622   */\n      dup2\n        /* \"#utility.yul\":8611:8614   */\n      dup6\n        /* \"#utility.yul\":8604:8608   */\n      0x20\n        /* \"#utility.yul\":8597:8602   */\n      dup7\n        /* \"#utility.yul\":8593:8609   */\n      add\n        /* \"#utility.yul\":8558:8623   */\n      tag_688\n      jump\t// in\n    tag_839:\n        /* \"#utility.yul\":8648:8677   */\n      tag_840\n        /* \"#utility.yul\":8670:8676   */\n      dup2\n        /* \"#utility.yul\":8648:8677   */\n      tag_667\n      jump\t// in\n    tag_840:\n        /* \"#utility.yul\":8643:8646   */\n      dup5\n        /* \"#utility.yul\":8639:8678   */\n      add\n        /* \"#utility.yul\":8632:8678   */\n      swap2\n      pop\n        /* \"#utility.yul\":8409:8684   */\n      pop\n        /* \"#utility.yul\":8327:8684   */\n      swap3\n      swap2\n      pop\n      pop\n      jump\t// out\n        /* \"#utility.yul\":8690:8839   */\n    tag_690:\n        /* \"#utility.yul\":8792:8798   */\n      0x00\n        /* \"#utility.yul\":8826:8831   */\n      dup2\n        /* \"#utility.yul\":8820:8832   */\n      mload\n        /* \"#utility.yul\":8810:8832   */\n      swap1\n      pop\n        /* \"#utility.yul\":8690:8839   */\n      swap2\n      swap1\n      pop\n      jump\t// out\n        /* \"#utility.yul\":8845:9054   */\n    tag_691:\n        /* \"#utility.yul\":8969:8980   */\n      0x00\n        /* \"#utility.yul\":9003:9009   */\n      dup3\n        /* \"#utility.yul\":8998:9001   */\n      dup3\n        /* \"#utility.yul\":8991:9010   */\n      mstore\n        /* \"#utility.yul\":9043:9047   */\n      0x20\n        /* \"#utility.yul\":9038:9041   */\n      dup3\n        /* \"#utility.yul\":9034:9048   */\n      add\n        /* \"#utility.yul\":9019:9048   */\n      swap1\n      pop\n        /* \"#utility.yul\":8845:9054   */\n      swap3\n      swap2\n      pop\n      pop\n      jump\t// out\n        /* \"#utility.yul\":9060:9227   */\n    tag_692:\n        /* \"#utility.yul\":9162:9166   */\n      0x00\n        /* \"#utility.yul\":9185:9188   */\n      dup2\n        /* \"#utility.yul\":9177:9188   */\n      swap1\n      pop\n        /* \"#utility.yul\":9215:9219   */\n      0x20\n        /* \"#utility.yul\":9210:9213   */\n      dup3\n        /* \"#utility.yul\":9206:9220   */\n      add\n        /* \"#utility.yul\":9198:9220   */\n      swap1\n      pop\n        /* \"#utility.yul\":9060:9227   */\n      swap2\n      swap1\n      pop\n      jump\t// out\n        /* \"#utility.yul\":9233:9357   */\n    tag_693:\n        /* \"#utility.yul\":9310:9316   */\n      0x00\n        /* \"#utility.yul\":9344:9349   */\n      dup2\n        /* \"#utility.yul\":9338:9350   */\n      mload\n        /* \"#utility.yul\":9328:9350   */\n      swap1\n      pop\n        /* \"#utility.yul\":9233:9357   */\n      swap2\n      swap1\n      pop\n      jump\t// out\n        /* \"#utility.yul\":9363:9547   */\n    tag_694:\n        /* \"#utility.yul\":9462:9473   */\n      0x00\n        /* \"#utility.yul\":9496:9502   */\n      dup3\n        /* \"#utility.yul\":9491:9494   */\n      dup3\n        /* \"#utility.yul\":9484:9503   */\n      mstore\n        /* \"#utility.yul\":9536:9540   */\n      0x20\n        /* \"#utility.yul\":9531:9534   */\n      dup3\n        /* \"#utility.yul\":9527:9541   */\n      add\n        /* \"#utility.yul\":9512:9541   */\n      swap1\n      pop\n        /* \"#utility.yul\":9363:9547   */\n      swap3\n      swap2\n      pop\n      pop\n      jump\t// out\n        /* \"#utility.yul\":9553:9695   */\n    tag_695:\n        /* \"#utility.yul\":9630:9634   */\n      0x00\n        /* \"#utility.yul\":9653:9656   */\n      dup2\n        /* \"#utility.yul\":9645:9656   */\n      swap1\n      pop\n        /* \"#utility.yul\":9683:9687   */\n      0x20\n        /* \"#utility.yul\":9678:9681   */\n      dup3\n        /* \"#utility.yul\":9674:9688   */\n      add\n        /* \"#utility.yul\":9666:9688   */\n      swap1\n      pop\n        /* \"#utility.yul\":9553:9695   */\n      swap2\n      swap1\n      pop\n      jump\t// out\n        /* \"#utility.yul\":9701:9897   */\n    tag_696:\n        /* \"#utility.yul\":9790:9800   */\n      0x00\n        /* \"#utility.yul\":9825:9891   */\n      tag_848\n        /* \"#utility.yul\":9887:9890   */\n      dup4\n        /* \"#utility.yul\":9879:9885   */\n      dup4\n        /* \"#utility.yul\":9825:9891   */\n      tag_689\n      jump\t// in\n    tag_848:\n        /* \"#utility.yul\":9811:9891   */\n      swap1\n      pop\n        /* \"#utility.yul\":9701:9897   */\n      swap3\n      swap2\n      pop\n      pop\n      jump\t// out\n        /* \"#utility.yul\":9903:10026   */\n    tag_697:\n        /* \"#utility.yul\":9983:9987   */\n      0x00\n        /* \"#utility.yul\":10015:10019   */\n      0x20\n        /* \"#utility.yul\":10010:10013   */\n      dup3\n        /* \"#utility.yul\":10006:10020   */\n      add\n        /* \"#utility.yul\":9998:10020   */\n      swap1\n      pop\n        /* \"#utility.yul\":9903:10026   */\n      swap2\n      swap1\n      pop\n      jump\t// out\n        /* \"#utility.yul\":10060:11031   */\n    tag_698:\n        /* \"#utility.yul\":10189:10192   */\n      0x00\n        /* \"#utility.yul\":10218:10282   */\n      tag_851\n        /* \"#utility.yul\":10276:10281   */\n      dup3\n        /* \"#utility.yul\":10218:10282   */\n      tag_693\n      jump\t// in\n    tag_851:\n        /* \"#utility.yul\":10298:10384   */\n      tag_852\n        /* \"#utility.yul\":10377:10383   */\n      dup2\n        /* \"#utility.yul\":10372:10375   */\n      dup6\n        /* \"#utility.yul\":10298:10384   */\n      tag_694\n      jump\t// in\n    tag_852:\n        /* \"#utility.yul\":10291:10384   */\n      swap4\n      pop\n        /* \"#utility.yul\":10410:10413   */\n      dup4\n        /* \"#utility.yul\":10455:10459   */\n      0x20\n        /* \"#utility.yul\":10447:10453   */\n      dup3\n        /* \"#utility.yul\":10443:10460   */\n      mul\n        /* \"#utility.yul\":10438:10441   */\n      dup6\n        /* \"#utility.yul\":10434:10461   */\n      add\n        /* \"#utility.yul\":10485:10551   */\n      tag_853\n        /* \"#utility.yul\":10545:10550   */\n      dup6\n        /* \"#utility.yul\":10485:10551   */\n      tag_695\n      jump\t// in\n    tag_853:\n        /* \"#utility.yul\":10574:10581   */\n      dup1\n        /* \"#utility.yul\":10605:10606   */\n      0x00\n        /* \"#utility.yul\":10590:10986   */\n    tag_854:\n        /* \"#utility.yul\":10615:10621   */\n      dup6\n        /* \"#utility.yul\":10612:10613   */\n      dup2\n        /* \"#utility.yul\":10609:10622   */\n      lt\n        /* \"#utility.yul\":10590:10986   */\n      iszero\n      tag_856\n      jumpi\n        /* \"#utility.yul\":10686:10695   */\n      dup5\n        /* \"#utility.yul\":10680:10684   */\n      dup5\n        /* \"#utility.yul\":10676:10696   */\n      sub\n        /* \"#utility.yul\":10671:10674   */\n      dup10\n        /* \"#utility.yul\":10664:10697   */\n      mstore\n        /* \"#utility.yul\":10737:10743   */\n      dup2\n        /* \"#utility.yul\":10731:10744   */\n      mload\n        /* \"#utility.yul\":10765:10849   */\n      tag_857\n        /* \"#utility.yul\":10844:10848   */\n      dup6\n        /* \"#utility.yul\":10829:10842   */\n      dup3\n        /* \"#utility.yul\":10765:10849   */\n      tag_696\n      jump\t// in\n    tag_857:\n        /* \"#utility.yul\":10757:10849   */\n      swap5\n      pop\n        /* \"#utility.yul\":10872:10942   */\n      tag_858\n        /* \"#utility.yul\":10935:10941   */\n      dup4\n        /* \"#utility.yul\":10872:10942   */\n      tag_697\n      jump\t// in\n    tag_858:\n        /* \"#utility.yul\":10862:10942   */\n      swap3\n      pop\n        /* \"#utility.yul\":10971:10975   */\n      0x20\n        /* \"#utility.yul\":10966:10969   */\n      dup11\n        /* \"#utility.yul\":10962:10976   */\n      add\n        /* \"#utility.yul\":10955:10976   */\n      swap10\n      pop\n        /* \"#utility.yul\":10650:10986   */\n      pop\n        /* \"#utility.yul\":10637:10638   */\n      0x01\n        /* \"#utility.yul\":10634:10635   */\n      dup2\n        /* \"#utility.yul\":10630:10639   */\n      add\n        /* \"#utility.yul\":10625:10639   */\n      swap1\n      pop\n        /* \"#utility.yul\":10590:10986   */\n      jump(tag_854)\n    tag_856:\n        /* \"#utility.yul\":10594:10608   */\n      pop\n        /* \"#utility.yul\":11002:11006   */\n      dup3\n        /* \"#utility.yul\":10995:11006   */\n      swap8\n      pop\n        /* \"#utility.yul\":11022:11025   */\n      dup8\n        /* \"#utility.yul\":11015:11025   */\n      swap6\n      pop\n        /* \"#utility.yul\":10194:11031   */\n      pop\n      pop\n      pop\n      pop\n      pop\n        /* \"#utility.yul\":10060:11031   */\n      swap3\n      swap2\n      pop\n      pop\n      jump\t// out\n        /* \"#utility.yul\":11037:11333   */\n    tag_699:\n        /* \"#utility.yul\":11176:11186   */\n      0x00\n        /* \"#utility.yul\":11211:11327   */\n      tag_860\n        /* \"#utility.yul\":11323:11326   */\n      dup4\n        /* \"#utility.yul\":11315:11321   */\n      dup4\n        /* \"#utility.yul\":11211:11327   */\n      tag_698\n      jump\t// in\n    tag_860:\n        /* \"#utility.yul\":11197:11327   */\n      swap1\n      pop\n        /* \"#utility.yul\":11037:11333   */\n      swap3\n      swap2\n      pop\n      pop\n      jump\t// out\n        /* \"#utility.yul\":11339:11487   */\n    tag_700:\n        /* \"#utility.yul\":11444:11448   */\n      0x00\n        /* \"#utility.yul\":11476:11480   */\n      0x20\n        /* \"#utility.yul\":11471:11474   */\n      dup3\n        /* \"#utility.yul\":11467:11481   */\n      add\n        /* \"#utility.yul\":11459:11481   */\n      swap1\n      pop\n        /* \"#utility.yul\":11339:11487   */\n      swap2\n      swap1\n      pop\n      jump\t// out\n        /* \"#utility.yul\":11525:12696   */\n    tag_701:\n        /* \"#utility.yul\":11704:11707   */\n      0x00\n        /* \"#utility.yul\":11733:11822   */\n      tag_863\n        /* \"#utility.yul\":11816:11821   */\n      dup3\n        /* \"#utility.yul\":11733:11822   */\n      tag_690\n      jump\t// in\n    tag_863:\n        /* \"#utility.yul\":11838:11949   */\n      tag_864\n        /* \"#utility.yul\":11942:11948   */\n      dup2\n        /* \"#utility.yul\":11937:11940   */\n      dup6\n        /* \"#utility.yul\":11838:11949   */\n      tag_691\n      jump\t// in\n    tag_864:\n        /* \"#utility.yul\":11831:11949   */\n      swap4\n      pop\n        /* \"#utility.yul\":11975:11978   */\n      dup4\n        /* \"#utility.yul\":12020:12024   */\n      0x20\n        /* \"#utility.yul\":12012:12018   */\n      dup3\n        /* \"#utility.yul\":12008:12025   */\n      mul\n        /* \"#utility.yul\":12003:12006   */\n      dup6\n        /* \"#utility.yul\":11999:12026   */\n      add\n        /* \"#utility.yul\":12050:12141   */\n      tag_865\n        /* \"#utility.yul\":12135:12140   */\n      dup6\n        /* \"#utility.yul\":12050:12141   */\n      tag_692\n      jump\t// in\n    tag_865:\n        /* \"#utility.yul\":12164:12171   */\n      dup1\n        /* \"#utility.yul\":12195:12196   */\n      0x00\n        /* \"#utility.yul\":12180:12651   */\n    tag_866:\n        /* \"#utility.yul\":12205:12211   */\n      dup6\n        /* \"#utility.yul\":12202:12203   */\n      dup2\n        /* \"#utility.yul\":12199:12212   */\n      lt\n        /* \"#utility.yul\":12180:12651   */\n      iszero\n      tag_868\n      jumpi\n        /* \"#utility.yul\":12276:12285   */\n      dup5\n        /* \"#utility.yul\":12270:12274   */\n      dup5\n        /* \"#utility.yul\":12266:12286   */\n      sub\n        /* \"#utility.yul\":12261:12264   */\n      dup10\n        /* \"#utility.yul\":12254:12287   */\n      mstore\n        /* \"#utility.yul\":12327:12333   */\n      dup2\n        /* \"#utility.yul\":12321:12334   */\n      mload\n        /* \"#utility.yul\":12355:12489   */\n      tag_869\n        /* \"#utility.yul\":12484:12488   */\n      dup6\n        /* \"#utility.yul\":12469:12482   */\n      dup3\n        /* \"#utility.yul\":12355:12489   */\n      tag_699\n      jump\t// in\n    tag_869:\n        /* \"#utility.yul\":12347:12489   */\n      swap5\n      pop\n        /* \"#utility.yul\":12512:12607   */\n      tag_870\n        /* \"#utility.yul\":12600:12606   */\n      dup4\n        /* \"#utility.yul\":12512:12607   */\n      tag_700\n      jump\t// in\n    tag_870:\n        /* \"#utility.yul\":12502:12607   */\n      swap3\n      pop\n        /* \"#utility.yul\":12636:12640   */\n      0x20\n        /* \"#utility.yul\":12631:12634   */\n      dup11\n        /* \"#utility.yul\":12627:12641   */\n      add\n        /* \"#utility.yul\":12620:12641   */\n      swap10\n      pop\n        /* \"#utility.yul\":12240:12651   */\n      pop\n        /* \"#utility.yul\":12227:12228   */\n      0x01\n        /* \"#utility.yul\":12224:12225   */\n      dup2\n        /* \"#utility.yul\":12220:12229   */\n      add\n        /* \"#utility.yul\":12215:12229   */\n      swap1\n      pop\n        /* \"#utility.yul\":12180:12651   */\n      jump(tag_866)\n    tag_868:\n        /* \"#utility.yul\":12184:12198   */\n      pop\n        /* \"#utility.yul\":12667:12671   */\n      dup3\n        /* \"#utility.yul\":12660:12671   */\n      swap8\n      pop\n        /* \"#utility.yul\":12687:12690   */\n      dup8\n        /* \"#utility.yul\":12680:12690   */\n      swap6\n      pop\n        /* \"#utility.yul\":11709:12696   */\n      pop\n      pop\n      pop\n      pop\n      pop\n        /* \"#utility.yul\":11525:12696   */\n      swap3\n      swap2\n      pop\n      pop\n      jump\t// out\n        /* \"#utility.yul\":12702:12792   */\n    tag_702:\n        /* \"#utility.yul\":12736:12743   */\n      0x00\n        /* \"#utility.yul\":12779:12784   */\n      dup2\n        /* \"#utility.yul\":12772:12785   */\n      iszero\n        /* \"#utility.yul\":12765:12786   */\n      iszero\n        /* \"#utility.yul\":12754:12786   */\n      swap1\n      pop\n        /* \"#utility.yul\":12702:12792   */\n      swap2\n      swap1\n      pop\n      jump\t// out\n        /* \"#utility.yul\":12798:12897   */\n    tag_703:\n        /* \"#utility.yul\":12869:12890   */\n      tag_873\n        /* \"#utility.yul\":12884:12889   */\n      dup2\n        /* \"#utility.yul\":12869:12890   */\n      tag_702\n      jump\t// in\n    tag_873:\n        /* \"#utility.yul\":12864:12867   */\n      dup3\n        /* \"#utility.yul\":12857:12891   */\n      mstore\n        /* \"#utility.yul\":12798:12897   */\n      pop\n      pop\n      jump\t// out\n        /* \"#utility.yul\":12947:14907   */\n    tag_704:\n        /* \"#utility.yul\":13056:13059   */\n      0x00\n        /* \"#utility.yul\":13092:13096   */\n      0xe0\n        /* \"#utility.yul\":13087:13090   */\n      dup4\n        /* \"#utility.yul\":13083:13097   */\n      add\n        /* \"#utility.yul\":13179:13183   */\n      0x00\n        /* \"#utility.yul\":13172:13177   */\n      dup4\n        /* \"#utility.yul\":13168:13184   */\n      add\n        /* \"#utility.yul\":13162:13185   */\n      mload\n        /* \"#utility.yul\":13232:13235   */\n      dup5\n        /* \"#utility.yul\":13226:13230   */\n      dup3\n        /* \"#utility.yul\":13222:13236   */\n      sub\n        /* \"#utility.yul\":13215:13219   */\n      0x00\n        /* \"#utility.yul\":13210:13213   */\n      dup7\n        /* \"#utility.yul\":13206:13220   */\n      add\n        /* \"#utility.yul\":13199:13237   */\n      mstore\n        /* \"#utility.yul\":13258:13331   */\n      tag_875\n        /* \"#utility.yul\":13326:13330   */\n      dup3\n        /* \"#utility.yul\":13312:13324   */\n      dup3\n        /* \"#utility.yul\":13258:13331   */\n      tag_689\n      jump\t// in\n    tag_875:\n        /* \"#utility.yul\":13250:13331   */\n      swap2\n      pop\n        /* \"#utility.yul\":13107:13342   */\n      pop\n        /* \"#utility.yul\":13431:13435   */\n      0x20\n        /* \"#utility.yul\":13424:13429   */\n      dup4\n        /* \"#utility.yul\":13420:13436   */\n      add\n        /* \"#utility.yul\":13414:13437   */\n      mload\n        /* \"#utility.yul\":13484:13487   */\n      dup5\n        /* \"#utility.yul\":13478:13482   */\n      dup3\n        /* \"#utility.yul\":13474:13488   */\n      sub\n        /* \"#utility.yul\":13467:13471   */\n      0x20\n        /* \"#utility.yul\":13462:13465   */\n      dup7\n        /* \"#utility.yul\":13458:13472   */\n      add\n        /* \"#utility.yul\":13451:13489   */\n      mstore\n        /* \"#utility.yul\":13510:13583   */\n      tag_876\n        /* \"#utility.yul\":13578:13582   */\n      dup3\n        /* \"#utility.yul\":13564:13576   */\n      dup3\n        /* \"#utility.yul\":13510:13583   */\n      tag_689\n      jump\t// in\n    tag_876:\n        /* \"#utility.yul\":13502:13583   */\n      swap2\n      pop\n        /* \"#utility.yul\":13352:13594   */\n      pop\n        /* \"#utility.yul\":13676:13680   */\n      0x40\n        /* \"#utility.yul\":13669:13674   */\n      dup4\n        /* \"#utility.yul\":13665:13681   */\n      add\n        /* \"#utility.yul\":13659:13682   */\n      mload\n        /* \"#utility.yul\":13729:13732   */\n      dup5\n        /* \"#utility.yul\":13723:13727   */\n      dup3\n        /* \"#utility.yul\":13719:13733   */\n      sub\n        /* \"#utility.yul\":13712:13716   */\n      0x40\n        /* \"#utility.yul\":13707:13710   */\n      dup7\n        /* \"#utility.yul\":13703:13717   */\n      add\n        /* \"#utility.yul\":13696:13734   */\n      mstore\n        /* \"#utility.yul\":13755:13928   */\n      tag_877\n        /* \"#utility.yul\":13923:13927   */\n      dup3\n        /* \"#utility.yul\":13909:13921   */\n      dup3\n        /* \"#utility.yul\":13755:13928   */\n      tag_701\n      jump\t// in\n    tag_877:\n        /* \"#utility.yul\":13747:13928   */\n      swap2\n      pop\n        /* \"#utility.yul\":13604:13939   */\n      pop\n        /* \"#utility.yul\":14025:14029   */\n      0x60\n        /* \"#utility.yul\":14018:14023   */\n      dup4\n        /* \"#utility.yul\":14014:14030   */\n      add\n        /* \"#utility.yul\":14008:14031   */\n      mload\n        /* \"#utility.yul\":14078:14081   */\n      dup5\n        /* \"#utility.yul\":14072:14076   */\n      dup3\n        /* \"#utility.yul\":14068:14082   */\n      sub\n        /* \"#utility.yul\":14061:14065   */\n      0x60\n        /* \"#utility.yul\":14056:14059   */\n      dup7\n        /* \"#utility.yul\":14052:14066   */\n      add\n        /* \"#utility.yul\":14045:14083   */\n      mstore\n        /* \"#utility.yul\":14104:14277   */\n      tag_878\n        /* \"#utility.yul\":14272:14276   */\n      dup3\n        /* \"#utility.yul\":14258:14270   */\n      dup3\n        /* \"#utility.yul\":14104:14277   */\n      tag_701\n      jump\t// in\n    tag_878:\n        /* \"#utility.yul\":14096:14277   */\n      swap2\n      pop\n        /* \"#utility.yul\":13949:14288   */\n      pop\n        /* \"#utility.yul\":14373:14377   */\n      0x80\n        /* \"#utility.yul\":14366:14371   */\n      dup4\n        /* \"#utility.yul\":14362:14378   */\n      add\n        /* \"#utility.yul\":14356:14379   */\n      mload\n        /* \"#utility.yul\":14426:14429   */\n      dup5\n        /* \"#utility.yul\":14420:14424   */\n      dup3\n        /* \"#utility.yul\":14416:14430   */\n      sub\n        /* \"#utility.yul\":14409:14413   */\n      0x80\n        /* \"#utility.yul\":14404:14407   */\n      dup7\n        /* \"#utility.yul\":14400:14414   */\n      add\n        /* \"#utility.yul\":14393:14431   */\n      mstore\n        /* \"#utility.yul\":14452:14525   */\n      tag_879\n        /* \"#utility.yul\":14520:14524   */\n      dup3\n        /* \"#utility.yul\":14506:14518   */\n      dup3\n        /* \"#utility.yul\":14452:14525   */\n      tag_689\n      jump\t// in\n    tag_879:\n        /* \"#utility.yul\":14444:14525   */\n      swap2\n      pop\n        /* \"#utility.yul\":14298:14536   */\n      pop\n        /* \"#utility.yul\":14622:14626   */\n      0xa0\n        /* \"#utility.yul\":14615:14620   */\n      dup4\n        /* \"#utility.yul\":14611:14627   */\n      add\n        /* \"#utility.yul\":14605:14628   */\n      mload\n        /* \"#utility.yul\":14641:14698   */\n      tag_880\n        /* \"#utility.yul\":14692:14696   */\n      0xa0\n        /* \"#utility.yul\":14687:14690   */\n      dup7\n        /* \"#utility.yul\":14683:14697   */\n      add\n        /* \"#utility.yul\":14669:14681   */\n      dup3\n        /* \"#utility.yul\":14641:14698   */\n      tag_703\n      jump\t// in\n    tag_880:\n        /* \"#utility.yul\":14546:14708   */\n      pop\n        /* \"#utility.yul\":14794:14798   */\n      0xc0\n        /* \"#utility.yul\":14787:14792   */\n      dup4\n        /* \"#utility.yul\":14783:14799   */\n      add\n        /* \"#utility.yul\":14777:14800   */\n      mload\n        /* \"#utility.yul\":14813:14870   */\n      tag_881\n        /* \"#utility.yul\":14864:14868   */\n      0xc0\n        /* \"#utility.yul\":14859:14862   */\n      dup7\n        /* \"#utility.yul\":14855:14869   */\n      add\n        /* \"#utility.yul\":14841:14853   */\n      dup3\n        /* \"#utility.yul\":14813:14870   */\n      tag_703\n      jump\t// in\n    tag_881:\n        /* \"#utility.yul\":14718:14880   */\n      pop\n        /* \"#utility.yul\":14897:14901   */\n      dup1\n        /* \"#utility.yul\":14890:14901   */\n      swap2\n      pop\n        /* \"#utility.yul\":13061:14907   */\n      pop\n        /* \"#utility.yul\":12947:14907   */\n      swap3\n      swap2\n      pop\n      pop\n      jump\t// out\n        /* \"#utility.yul\":14913:15169   */\n    tag_705:\n        /* \"#utility.yul\":15032:15042   */\n      0x00\n        /* \"#utility.yul\":15067:15163   */\n      tag_883\n        /* \"#utility.yul\":15159:15162   */\n      dup4\n        /* \"#utility.yul\":15151:15157   */\n      dup4\n        /* \"#utility.yul\":15067:15163   */\n      tag_704\n      jump\t// in\n    tag_883:\n        /* \"#utility.yul\":15053:15163   */\n      swap1\n      pop\n        /* \"#utility.yul\":14913:15169   */\n      swap3\n      swap2\n      pop\n      pop\n      jump\t// out\n        /* \"#utility.yul\":15175:15313   */\n    tag_706:\n        /* \"#utility.yul\":15270:15274   */\n      0x00\n        /* \"#utility.yul\":15302:15306   */\n      0x20\n        /* \"#utility.yul\":15297:15300   */\n      dup3\n        /* \"#utility.yul\":15293:15307   */\n      add\n        /* \"#utility.yul\":15285:15307   */\n      swap1\n      pop\n        /* \"#utility.yul\":15175:15313   */\n      swap2\n      swap1\n      pop\n      jump\t// out\n        /* \"#utility.yul\":15367:16478   */\n    tag_707:\n        /* \"#utility.yul\":15536:15539   */\n      0x00\n        /* \"#utility.yul\":15565:15644   */\n      tag_886\n        /* \"#utility.yul\":15638:15643   */\n      dup3\n        /* \"#utility.yul\":15565:15644   */\n      tag_683\n      jump\t// in\n    tag_886:\n        /* \"#utility.yul\":15660:15771   */\n      tag_887\n        /* \"#utility.yul\":15764:15770   */\n      dup2\n        /* \"#utility.yul\":15759:15762   */\n      dup6\n        /* \"#utility.yul\":15660:15771   */\n      tag_684\n      jump\t// in\n    tag_887:\n        /* \"#utility.yul\":15653:15771   */\n      swap4\n      pop\n        /* \"#utility.yul\":15797:15800   */\n      dup4\n        /* \"#utility.yul\":15842:15846   */\n      0x20\n        /* \"#utility.yul\":15834:15840   */\n      dup3\n        /* \"#utility.yul\":15830:15847   */\n      mul\n        /* \"#utility.yul\":15825:15828   */\n      dup6\n        /* \"#utility.yul\":15821:15848   */\n      add\n        /* \"#utility.yul\":15872:15953   */\n      tag_888\n        /* \"#utility.yul\":15947:15952   */\n      dup6\n        /* \"#utility.yul\":15872:15953   */\n      tag_685\n      jump\t// in\n    tag_888:\n        /* \"#utility.yul\":15976:15983   */\n      dup1\n        /* \"#utility.yul\":16007:16008   */\n      0x00\n        /* \"#utility.yul\":15992:16433   */\n    tag_889:\n        /* \"#utility.yul\":16017:16023   */\n      dup6\n        /* \"#utility.yul\":16014:16015   */\n      dup2\n        /* \"#utility.yul\":16011:16024   */\n      lt\n        /* \"#utility.yul\":15992:16433   */\n      iszero\n      tag_891\n      jumpi\n        /* \"#utility.yul\":16088:16097   */\n      dup5\n        /* \"#utility.yul\":16082:16086   */\n      dup5\n        /* \"#utility.yul\":16078:16098   */\n      sub\n        /* \"#utility.yul\":16073:16076   */\n      dup10\n        /* \"#utility.yul\":16066:16099   */\n      mstore\n        /* \"#utility.yul\":16139:16145   */\n      dup2\n        /* \"#utility.yul\":16133:16146   */\n      mload\n        /* \"#utility.yul\":16167:16281   */\n      tag_892\n        /* \"#utility.yul\":16276:16280   */\n      dup6\n        /* \"#utility.yul\":16261:16274   */\n      dup3\n        /* \"#utility.yul\":16167:16281   */\n      tag_705\n      jump\t// in\n    tag_892:\n        /* \"#utility.yul\":16159:16281   */\n      swap5\n      pop\n        /* \"#utility.yul\":16304:16389   */\n      tag_893\n        /* \"#utility.yul\":16382:16388   */\n      dup4\n        /* \"#utility.yul\":16304:16389   */\n      tag_706\n      jump\t// in\n    tag_893:\n        /* \"#utility.yul\":16294:16389   */\n      swap3\n      pop\n        /* \"#utility.yul\":16418:16422   */\n      0x20\n        /* \"#utility.yul\":16413:16416   */\n      dup11\n        /* \"#utility.yul\":16409:16423   */\n      add\n        /* \"#utility.yul\":16402:16423   */\n      swap10\n      pop\n        /* \"#utility.yul\":16052:16433   */\n      pop\n        /* \"#utility.yul\":16039:16040   */\n      0x01\n        /* \"#utility.yul\":16036:16037   */\n      dup2\n        /* \"#utility.yul\":16032:16041   */\n      add\n        /* \"#utility.yul\":16027:16041   */\n      swap1\n      pop\n        /* \"#utility.yul\":15992:16433   */\n      jump(tag_889)\n    tag_891:\n        /* \"#utility.yul\":15996:16010   */\n      pop\n        /* \"#utility.yul\":16449:16453   */\n      dup3\n        /* \"#utility.yul\":16442:16453   */\n      swap8\n      pop\n        /* \"#utility.yul\":16469:16472   */\n      dup8\n        /* \"#utility.yul\":16462:16472   */\n      swap6\n      pop\n        /* \"#utility.yul\":15541:16478   */\n      pop\n      pop\n      pop\n      pop\n      pop\n        /* \"#utility.yul\":15367:16478   */\n      swap3\n      swap2\n      pop\n      pop\n      jump\t// out\n        /* \"#utility.yul\":16484:16957   */\n    tag_25:\n        /* \"#utility.yul\":16677:16681   */\n      0x00\n        /* \"#utility.yul\":16715:16717   */\n      0x20\n        /* \"#utility.yul\":16704:16713   */\n      dup3\n        /* \"#utility.yul\":16700:16718   */\n      add\n        /* \"#utility.yul\":16692:16718   */\n      swap1\n      pop\n        /* \"#utility.yul\":16764:16773   */\n      dup2\n        /* \"#utility.yul\":16758:16762   */\n      dup2\n        /* \"#utility.yul\":16754:16774   */\n      sub\n        /* \"#utility.yul\":16750:16751   */\n      0x00\n        /* \"#utility.yul\":16739:16748   */\n      dup4\n        /* \"#utility.yul\":16735:16752   */\n      add\n        /* \"#utility.yul\":16728:16775   */\n      mstore\n        /* \"#utility.yul\":16792:16950   */\n      tag_895\n        /* \"#utility.yul\":16945:16949   */\n      dup2\n        /* \"#utility.yul\":16936:16942   */\n      dup5\n        /* \"#utility.yul\":16792:16950   */\n      tag_707\n      jump\t// in\n    tag_895:\n        /* \"#utility.yul\":16784:16950   */\n      swap1\n      pop\n        /* \"#utility.yul\":16484:16957   */\n      swap3\n      swap2\n      pop\n      pop\n      jump\t// out\n        /* \"#utility.yul\":16963:17098   */\n    tag_708:\n        /* \"#utility.yul\":17051:17057   */\n      0x00\n        /* \"#utility.yul\":17085:17090   */\n      dup2\n        /* \"#utility.yul\":17079:17091   */\n      mload\n        /* \"#utility.yul\":17069:17091   */\n      swap1\n      pop\n        /* \"#utility.yul\":16963:17098   */\n      swap2\n      swap1\n      pop\n      jump\t// out\n        /* \"#utility.yul\":17104:17309   */\n    tag_709:\n        /* \"#utility.yul\":17224:17235   */\n      0x00\n        /* \"#utility.yul\":17258:17264   */\n      dup3\n        /* \"#utility.yul\":17253:17256   */\n      dup3\n        /* \"#utility.yul\":17246:17265   */\n      mstore\n        /* \"#utility.yul\":17298:17302   */\n      0x20\n        /* \"#utility.yul\":17293:17296   */\n      dup3\n        /* \"#utility.yul\":17289:17303   */\n      add\n        /* \"#utility.yul\":17274:17303   */\n      swap1\n      pop\n        /* \"#utility.yul\":17104:17309   */\n      swap3\n      swap2\n      pop\n      pop\n      jump\t// out\n        /* \"#utility.yul\":17315:17468   */\n    tag_710:\n        /* \"#utility.yul\":17403:17407   */\n      0x00\n        /* \"#utility.yul\":17426:17429   */\n      dup2\n        /* \"#utility.yul\":17418:17429   */\n      swap1\n      pop\n        /* \"#utility.yul\":17456:17460   */\n      0x20\n        /* \"#utility.yul\":17451:17454   */\n      dup3\n        /* \"#utility.yul\":17447:17461   */\n      add\n        /* \"#utility.yul\":17439:17461   */\n      swap1\n      pop\n        /* \"#utility.yul\":17315:17468   */\n      swap2\n      swap1\n      pop\n      jump\t// out\n        /* \"#utility.yul\":17510:18870   */\n    tag_711:\n        /* \"#utility.yul\":17611:17614   */\n      0x00\n        /* \"#utility.yul\":17647:17651   */\n      0x80\n        /* \"#utility.yul\":17642:17645   */\n      dup4\n        /* \"#utility.yul\":17638:17652   */\n      add\n        /* \"#utility.yul\":17734:17738   */\n      0x00\n        /* \"#utility.yul\":17727:17732   */\n      dup4\n        /* \"#utility.yul\":17723:17739   */\n      add\n        /* \"#utility.yul\":17717:17740   */\n      mload\n        /* \"#utility.yul\":17787:17790   */\n      dup5\n        /* \"#utility.yul\":17781:17785   */\n      dup3\n        /* \"#utility.yul\":17777:17791   */\n      sub\n        /* \"#utility.yul\":17770:17774   */\n      0x00\n        /* \"#utility.yul\":17765:17768   */\n      dup7\n        /* \"#utility.yul\":17761:17775   */\n      add\n        /* \"#utility.yul\":17754:17792   */\n      mstore\n        /* \"#utility.yul\":17813:17886   */\n      tag_900\n        /* \"#utility.yul\":17881:17885   */\n      dup3\n        /* \"#utility.yul\":17867:17879   */\n      dup3\n        /* \"#utility.yul\":17813:17886   */\n      tag_689\n      jump\t// in\n    tag_900:\n        /* \"#utility.yul\":17805:17886   */\n      swap2\n      pop\n        /* \"#utility.yul\":17662:17897   */\n      pop\n        /* \"#utility.yul\":17986:17990   */\n      0x20\n        /* \"#utility.yul\":17979:17984   */\n      dup4\n        /* \"#utility.yul\":17975:17991   */\n      add\n        /* \"#utility.yul\":17969:17992   */\n      mload\n        /* \"#utility.yul\":18039:18042   */\n      dup5\n        /* \"#utility.yul\":18033:18037   */\n      dup3\n        /* \"#utility.yul\":18029:18043   */\n      sub\n        /* \"#utility.yul\":18022:18026   */\n      0x20\n        /* \"#utility.yul\":18017:18020   */\n      dup7\n        /* \"#utility.yul\":18013:18027   */\n      add\n        /* \"#utility.yul\":18006:18044   */\n      mstore\n        /* \"#utility.yul\":18065:18138   */\n      tag_901\n        /* \"#utility.yul\":18133:18137   */\n      dup3\n        /* \"#utility.yul\":18119:18131   */\n      dup3\n        /* \"#utility.yul\":18065:18138   */\n      tag_689\n      jump\t// in\n    tag_901:\n        /* \"#utility.yul\":18057:18138   */\n      swap2\n      pop\n        /* \"#utility.yul\":17907:18149   */\n      pop\n        /* \"#utility.yul\":18231:18235   */\n      0x40\n        /* \"#utility.yul\":18224:18229   */\n      dup4\n        /* \"#utility.yul\":18220:18236   */\n      add\n        /* \"#utility.yul\":18214:18237   */\n      mload\n        /* \"#utility.yul\":18284:18287   */\n      dup5\n        /* \"#utility.yul\":18278:18282   */\n      dup3\n        /* \"#utility.yul\":18274:18288   */\n      sub\n        /* \"#utility.yul\":18267:18271   */\n      0x40\n        /* \"#utility.yul\":18262:18265   */\n      dup7\n        /* \"#utility.yul\":18258:18272   */\n      add\n        /* \"#utility.yul\":18251:18289   */\n      mstore\n        /* \"#utility.yul\":18310:18483   */\n      tag_902\n        /* \"#utility.yul\":18478:18482   */\n      dup3\n        /* \"#utility.yul\":18464:18476   */\n      dup3\n        /* \"#utility.yul\":18310:18483   */\n      tag_701\n      jump\t// in\n    tag_902:\n        /* \"#utility.yul\":18302:18483   */\n      swap2\n      pop\n        /* \"#utility.yul\":18159:18494   */\n      pop\n        /* \"#utility.yul\":18580:18584   */\n      0x60\n        /* \"#utility.yul\":18573:18578   */\n      dup4\n        /* \"#utility.yul\":18569:18585   */\n      add\n        /* \"#utility.yul\":18563:18586   */\n      mload\n        /* \"#utility.yul\":18633:18636   */\n      dup5\n        /* \"#utility.yul\":18627:18631   */\n      dup3\n        /* \"#utility.yul\":18623:18637   */\n      sub\n        /* \"#utility.yul\":18616:18620   */\n      0x60\n        /* \"#utility.yul\":18611:18614   */\n      dup7\n        /* \"#utility.yul\":18607:18621   */\n      add\n        /* \"#utility.yul\":18600:18638   */\n      mstore\n        /* \"#utility.yul\":18659:18832   */\n      tag_903\n        /* \"#utility.yul\":18827:18831   */\n      dup3\n        /* \"#utility.yul\":18813:18825   */\n      dup3\n        /* \"#utility.yul\":18659:18832   */\n      tag_701\n      jump\t// in\n    tag_903:\n        /* \"#utility.yul\":18651:18832   */\n      swap2\n      pop\n        /* \"#utility.yul\":18504:18843   */\n      pop\n        /* \"#utility.yul\":18860:18864   */\n      dup1\n        /* \"#utility.yul\":18853:18864   */\n      swap2\n      pop\n        /* \"#utility.yul\":17616:18870   */\n      pop\n        /* \"#utility.yul\":17510:18870   */\n      swap3\n      swap2\n      pop\n      pop\n      jump\t// out\n        /* \"#utility.yul\":18876:19116   */\n    tag_712:\n        /* \"#utility.yul\":18987:18997   */\n      0x00\n        /* \"#utility.yul\":19022:19110   */\n      tag_905\n        /* \"#utility.yul\":19106:19109   */\n      dup4\n        /* \"#utility.yul\":19098:19104   */\n      dup4\n        /* \"#utility.yul\":19022:19110   */\n      tag_711\n      jump\t// in\n    tag_905:\n        /* \"#utility.yul\":19008:19110   */\n      swap1\n      pop\n        /* \"#utility.yul\":18876:19116   */\n      swap3\n      swap2\n      pop\n      pop\n      jump\t// out\n        /* \"#utility.yul\":19122:19256   */\n    tag_713:\n        /* \"#utility.yul\":19213:19217   */\n      0x00\n        /* \"#utility.yul\":19245:19249   */\n      0x20\n        /* \"#utility.yul\":19240:19243   */\n      dup3\n        /* \"#utility.yul\":19236:19250   */\n      add\n        /* \"#utility.yul\":19228:19250   */\n      swap1\n      pop\n        /* \"#utility.yul\":19122:19256   */\n      swap2\n      swap1\n      pop\n      jump\t// out\n        /* \"#utility.yul\":19302:20381   */\n    tag_714:\n        /* \"#utility.yul\":19463:19466   */\n      0x00\n        /* \"#utility.yul\":19492:19567   */\n      tag_908\n        /* \"#utility.yul\":19561:19566   */\n      dup3\n        /* \"#utility.yul\":19492:19567   */\n      tag_708\n      jump\t// in\n    tag_908:\n        /* \"#utility.yul\":19583:19690   */\n      tag_909\n        /* \"#utility.yul\":19683:19689   */\n      dup2\n        /* \"#utility.yul\":19678:19681   */\n      dup6\n        /* \"#utility.yul\":19583:19690   */\n      tag_709\n      jump\t// in\n    tag_909:\n        /* \"#utility.yul\":19576:19690   */\n      swap4\n      pop\n        /* \"#utility.yul\":19716:19719   */\n      dup4\n        /* \"#utility.yul\":19761:19765   */\n      0x20\n        /* \"#utility.yul\":19753:19759   */\n      dup3\n        /* \"#utility.yul\":19749:19766   */\n      mul\n        /* \"#utility.yul\":19744:19747   */\n      dup6\n        /* \"#utility.yul\":19740:19767   */\n      add\n        /* \"#utility.yul\":19791:19868   */\n      tag_910\n        /* \"#utility.yul\":19862:19867   */\n      dup6\n        /* \"#utility.yul\":19791:19868   */\n      tag_710\n      jump\t// in\n    tag_910:\n        /* \"#utility.yul\":19891:19898   */\n      dup1\n        /* \"#utility.yul\":19922:19923   */\n      0x00\n        /* \"#utility.yul\":19907:20336   */\n    tag_911:\n        /* \"#utility.yul\":19932:19938   */\n      dup6\n        /* \"#utility.yul\":19929:19930   */\n      dup2\n        /* \"#utility.yul\":19926:19939   */\n      lt\n        /* \"#utility.yul\":19907:20336   */\n      iszero\n      tag_913\n      jumpi\n        /* \"#utility.yul\":20003:20012   */\n      dup5\n        /* \"#utility.yul\":19997:20001   */\n      dup5\n        /* \"#utility.yul\":19993:20013   */\n      sub\n        /* \"#utility.yul\":19988:19991   */\n      dup10\n        /* \"#utility.yul\":19981:20014   */\n      mstore\n        /* \"#utility.yul\":20054:20060   */\n      dup2\n        /* \"#utility.yul\":20048:20061   */\n      mload\n        /* \"#utility.yul\":20082:20188   */\n      tag_914\n        /* \"#utility.yul\":20183:20187   */\n      dup6\n        /* \"#utility.yul\":20168:20181   */\n      dup3\n        /* \"#utility.yul\":20082:20188   */\n      tag_712\n      jump\t// in\n    tag_914:\n        /* \"#utility.yul\":20074:20188   */\n      swap5\n      pop\n        /* \"#utility.yul\":20211:20292   */\n      tag_915\n        /* \"#utility.yul\":20285:20291   */\n      dup4\n        /* \"#utility.yul\":20211:20292   */\n      tag_713\n      jump\t// in\n    tag_915:\n        /* \"#utility.yul\":20201:20292   */\n      swap3\n      pop\n        /* \"#utility.yul\":20321:20325   */\n      0x20\n        /* \"#utility.yul\":20316:20319   */\n      dup11\n        /* \"#utility.yul\":20312:20326   */\n      add\n        /* \"#utility.yul\":20305:20326   */\n      swap10\n      pop\n        /* \"#utility.yul\":19967:20336   */\n      pop\n        /* \"#utility.yul\":19954:19955   */\n      0x01\n        /* \"#utility.yul\":19951:19952   */\n      dup2\n        /* \"#utility.yul\":19947:19956   */\n      add\n        /* \"#utility.yul\":19942:19956   */\n      swap1\n      pop\n        /* \"#utility.yul\":19907:20336   */\n      jump(tag_911)\n    tag_913:\n        /* \"#utility.yul\":19911:19925   */\n      pop\n        /* \"#utility.yul\":20352:20356   */\n      dup3\n        /* \"#utility.yul\":20345:20356   */\n      swap8\n      pop\n        /* \"#utility.yul\":20372:20375   */\n      dup8\n        /* \"#utility.yul\":20365:20375   */\n      swap6\n      pop\n        /* \"#utility.yul\":19468:20381   */\n      pop\n      pop\n      pop\n      pop\n      pop\n        /* \"#utility.yul\":19302:20381   */\n      swap3\n      swap2\n      pop\n      pop\n      jump\t// out\n        /* \"#utility.yul\":20387:20844   */\n    tag_29:\n        /* \"#utility.yul\":20572:20576   */\n      0x00\n        /* \"#utility.yul\":20610:20612   */\n      0x20\n        /* \"#utility.yul\":20599:20608   */\n      dup3\n        /* \"#utility.yul\":20595:20613   */\n      add\n        /* \"#utility.yul\":20587:20613   */\n      swap1\n      pop\n        /* \"#utility.yul\":20659:20668   */\n      dup2\n        /* \"#utility.yul\":20653:20657   */\n      dup2\n        /* \"#utility.yul\":20649:20669   */\n      sub\n        /* \"#utility.yul\":20645:20646   */\n      0x00\n        /* \"#utility.yul\":20634:20643   */\n      dup4\n        /* \"#utility.yul\":20630:20647   */\n      add\n        /* \"#utility.yul\":20623:20670   */\n      mstore\n        /* \"#utility.yul\":20687:20837   */\n      tag_917\n        /* \"#utility.yul\":20832:20836   */\n      dup2\n        /* \"#utility.yul\":20823:20829   */\n      dup5\n        /* \"#utility.yul\":20687:20837   */\n      tag_714\n      jump\t// in\n    tag_917:\n        /* \"#utility.yul\":20679:20837   */\n      swap1\n      pop\n        /* \"#utility.yul\":20387:20844   */\n      swap3\n      swap2\n      pop\n      pop\n      jump\t// out\n        /* \"#utility.yul\":20850:22535   */\n    tag_32:\n        /* \"#utility.yul\":21076:21082   */\n      0x00\n        /* \"#utility.yul\":21084:21090   */\n      dup1\n        /* \"#utility.yul\":21092:21098   */\n      0x00\n        /* \"#utility.yul\":21100:21106   */\n      dup1\n        /* \"#utility.yul\":21149:21152   */\n      0x80\n        /* \"#utility.yul\":21137:21146   */\n      dup6\n        /* \"#utility.yul\":21128:21135   */\n      dup8\n        /* \"#utility.yul\":21124:21147   */\n      sub\n        /* \"#utility.yul\":21120:21153   */\n      slt\n        /* \"#utility.yul\":21117:21237   */\n      iszero\n      tag_919\n      jumpi\n        /* \"#utility.yul\":21156:21235   */\n      tag_920\n      tag_664\n      jump\t// in\n    tag_920:\n        /* \"#utility.yul\":21117:21237   */\n    tag_919:\n        /* \"#utility.yul\":21304:21305   */\n      0x00\n        /* \"#utility.yul\":21293:21302   */\n      dup6\n        /* \"#utility.yul\":21289:21306   */\n      add\n        /* \"#utility.yul\":21276:21307   */\n      calldataload\n        /* \"#utility.yul\":21334:21352   */\n      0xffffffffffffffff\n        /* \"#utility.yul\":21326:21332   */\n      dup2\n        /* \"#utility.yul\":21323:21353   */\n      gt\n        /* \"#utility.yul\":21320:21437   */\n      iszero\n      tag_921\n      jumpi\n        /* \"#utility.yul\":21356:21435   */\n      tag_922\n      tag_665\n      jump\t// in\n    tag_922:\n        /* \"#utility.yul\":21320:21437   */\n    tag_921:\n        /* \"#utility.yul\":21461:21524   */\n      tag_923\n        /* \"#utility.yul\":21516:21523   */\n      dup8\n        /* \"#utility.yul\":21507:21513   */\n      dup3\n        /* \"#utility.yul\":21496:21505   */\n      dup9\n        /* \"#utility.yul\":21492:21514   */\n      add\n        /* \"#utility.yul\":21461:21524   */\n      tag_678\n      jump\t// in\n    tag_923:\n        /* \"#utility.yul\":21451:21524   */\n      swap5\n      pop\n        /* \"#utility.yul\":21247:21534   */\n      pop\n        /* \"#utility.yul\":21601:21603   */\n      0x20\n        /* \"#utility.yul\":21590:21599   */\n      dup6\n        /* \"#utility.yul\":21586:21604   */\n      add\n        /* \"#utility.yul\":21573:21605   */\n      calldataload\n        /* \"#utility.yul\":21632:21650   */\n      0xffffffffffffffff\n        /* \"#utility.yul\":21624:21630   */\n      dup2\n        /* \"#utility.yul\":21621:21651   */\n      gt\n        /* \"#utility.yul\":21618:21735   */\n      iszero\n      tag_924\n      jumpi\n        /* \"#utility.yul\":21654:21733   */\n      tag_925\n      tag_665\n      jump\t// in\n    tag_925:\n        /* \"#utility.yul\":21618:21735   */\n    tag_924:\n        /* \"#utility.yul\":21759:21822   */\n      tag_926\n        /* \"#utility.yul\":21814:21821   */\n      dup8\n        /* \"#utility.yul\":21805:21811   */\n      dup3\n        /* \"#utility.yul\":21794:21803   */\n      dup9\n        /* \"#utility.yul\":21790:21812   */\n      add\n        /* \"#utility.yul\":21759:21822   */\n      tag_678\n      jump\t// in\n    tag_926:\n        /* \"#utility.yul\":21749:21822   */\n      swap4\n      pop\n        /* \"#utility.yul\":21544:21832   */\n      pop\n        /* \"#utility.yul\":21899:21901   */\n      0x40\n        /* \"#utility.yul\":21888:21897   */\n      dup6\n        /* \"#utility.yul\":21884:21902   */\n      add\n        /* \"#utility.yul\":21871:21903   */\n      calldataload\n        /* \"#utility.yul\":21930:21948   */\n      0xffffffffffffffff\n        /* \"#utility.yul\":21922:21928   */\n      dup2\n        /* \"#utility.yul\":21919:21949   */\n      gt\n        /* \"#utility.yul\":21916:22033   */\n      iszero\n      tag_927\n      jumpi\n        /* \"#utility.yul\":21952:22031   */\n      tag_928\n      tag_665\n      jump\t// in\n    tag_928:\n        /* \"#utility.yul\":21916:22033   */\n    tag_927:\n        /* \"#utility.yul\":22057:22170   */\n      tag_929\n        /* \"#utility.yul\":22162:22169   */\n      dup8\n        /* \"#utility.yul\":22153:22159   */\n      dup3\n        /* \"#utility.yul\":22142:22151   */\n      dup9\n        /* \"#utility.yul\":22138:22160   */\n      add\n        /* \"#utility.yul\":22057:22170   */\n      tag_682\n      jump\t// in\n    tag_929:\n        /* \"#utility.yul\":22047:22170   */\n      swap3\n      pop\n        /* \"#utility.yul\":21842:22180   */\n      pop\n        /* \"#utility.yul\":22247:22249   */\n      0x60\n        /* \"#utility.yul\":22236:22245   */\n      dup6\n        /* \"#utility.yul\":22232:22250   */\n      add\n        /* \"#utility.yul\":22219:22251   */\n      calldataload\n        /* \"#utility.yul\":22278:22296   */\n      0xffffffffffffffff\n        /* \"#utility.yul\":22270:22276   */\n      dup2\n        /* \"#utility.yul\":22267:22297   */\n      gt\n        /* \"#utility.yul\":22264:22381   */\n      iszero\n      tag_930\n      jumpi\n        /* \"#utility.yul\":22300:22379   */\n      tag_931\n      tag_665\n      jump\t// in\n    tag_931:\n        /* \"#utility.yul\":22264:22381   */\n    tag_930:\n        /* \"#utility.yul\":22405:22518   */\n      tag_932\n        /* \"#utility.yul\":22510:22517   */\n      dup8\n        /* \"#utility.yul\":22501:22507   */\n      dup3\n        /* \"#utility.yul\":22490:22499   */\n      dup9\n        /* \"#utility.yul\":22486:22508   */\n      add\n        /* \"#utility.yul\":22405:22518   */\n      tag_682\n      jump\t// in\n    tag_932:\n        /* \"#utility.yul\":22395:22518   */\n      swap2\n      pop\n        /* \"#utility.yul\":22190:22528   */\n      pop\n        /* \"#utility.yul\":20850:22535   */\n      swap3\n      swap6\n      swap2\n      swap5\n      pop\n      swap3\n      pop\n      jump\t// out\n        /* \"#utility.yul\":22541:24552   */\n    tag_42:\n        /* \"#utility.yul\":22786:22792   */\n      0x00\n        /* \"#utility.yul\":22794:22800   */\n      dup1\n        /* \"#utility.yul\":22802:22808   */\n      0x00\n        /* \"#utility.yul\":22810:22816   */\n      dup1\n        /* \"#utility.yul\":22818:22824   */\n      0x00\n        /* \"#utility.yul\":22867:22870   */\n      0xa0\n        /* \"#utility.yul\":22855:22864   */\n      dup7\n        /* \"#utility.yul\":22846:22853   */\n      dup9\n        /* \"#utility.yul\":22842:22865   */\n      sub\n        /* \"#utility.yul\":22838:22871   */\n      slt\n        /* \"#utility.yul\":22835:22955   */\n      iszero\n      tag_934\n      jumpi\n        /* \"#utility.yul\":22874:22953   */\n      tag_935\n      tag_664\n      jump\t// in\n    tag_935:\n        /* \"#utility.yul\":22835:22955   */\n    tag_934:\n        /* \"#utility.yul\":23022:23023   */\n      0x00\n        /* \"#utility.yul\":23011:23020   */\n      dup7\n        /* \"#utility.yul\":23007:23024   */\n      add\n        /* \"#utility.yul\":22994:23025   */\n      calldataload\n        /* \"#utility.yul\":23052:23070   */\n      0xffffffffffffffff\n        /* \"#utility.yul\":23044:23050   */\n      dup2\n        /* \"#utility.yul\":23041:23071   */\n      gt\n        /* \"#utility.yul\":23038:23155   */\n      iszero\n      tag_936\n      jumpi\n        /* \"#utility.yul\":23074:23153   */\n      tag_937\n      tag_665\n      jump\t// in\n    tag_937:\n        /* \"#utility.yul\":23038:23155   */\n    tag_936:\n        /* \"#utility.yul\":23179:23242   */\n      tag_938\n        /* \"#utility.yul\":23234:23241   */\n      dup9\n        /* \"#utility.yul\":23225:23231   */\n      dup3\n        /* \"#utility.yul\":23214:23223   */\n      dup10\n        /* \"#utility.yul\":23210:23232   */\n      add\n        /* \"#utility.yul\":23179:23242   */\n      tag_678\n      jump\t// in\n    tag_938:\n        /* \"#utility.yul\":23169:23242   */\n      swap6\n      pop\n        /* \"#utility.yul\":22965:23252   */\n      pop\n        /* \"#utility.yul\":23319:23321   */\n      0x20\n        /* \"#utility.yul\":23308:23317   */\n      dup7\n        /* \"#utility.yul\":23304:23322   */\n      add\n        /* \"#utility.yul\":23291:23323   */\n      calldataload\n        /* \"#utility.yul\":23350:23368   */\n      0xffffffffffffffff\n        /* \"#utility.yul\":23342:23348   */\n      dup2\n        /* \"#utility.yul\":23339:23369   */\n      gt\n        /* \"#utility.yul\":23336:23453   */\n      iszero\n      tag_939\n      jumpi\n        /* \"#utility.yul\":23372:23451   */\n      tag_940\n      tag_665\n      jump\t// in\n    tag_940:\n        /* \"#utility.yul\":23336:23453   */\n    tag_939:\n        /* \"#utility.yul\":23477:23540   */\n      tag_941\n        /* \"#utility.yul\":23532:23539   */\n      dup9\n        /* \"#utility.yul\":23523:23529   */\n      dup3\n        /* \"#utility.yul\":23512:23521   */\n      dup10\n        /* \"#utility.yul\":23508:23530   */\n      add\n        /* \"#utility.yul\":23477:23540   */\n      tag_678\n      jump\t// in\n    tag_941:\n        /* \"#utility.yul\":23467:23540   */\n      swap5\n      pop\n        /* \"#utility.yul\":23262:23550   */\n      pop\n        /* \"#utility.yul\":23617:23619   */\n      0x40\n        /* \"#utility.yul\":23606:23615   */\n      dup7\n        /* \"#utility.yul\":23602:23620   */\n      add\n        /* \"#utility.yul\":23589:23621   */\n      calldataload\n        /* \"#utility.yul\":23648:23666   */\n      0xffffffffffffffff\n        /* \"#utility.yul\":23640:23646   */\n      dup2\n        /* \"#utility.yul\":23637:23667   */\n      gt\n        /* \"#utility.yul\":23634:23751   */\n      iszero\n      tag_942\n      jumpi\n        /* \"#utility.yul\":23670:23749   */\n      tag_943\n      tag_665\n      jump\t// in\n    tag_943:\n        /* \"#utility.yul\":23634:23751   */\n    tag_942:\n        /* \"#utility.yul\":23775:23888   */\n      tag_944\n        /* \"#utility.yul\":23880:23887   */\n      dup9\n        /* \"#utility.yul\":23871:23877   */\n      dup3\n        /* \"#utility.yul\":23860:23869   */\n      dup10\n        /* \"#utility.yul\":23856:23878   */\n      add\n        /* \"#utility.yul\":23775:23888   */\n      tag_682\n      jump\t// in\n    tag_944:\n        /* \"#utility.yul\":23765:23888   */\n      swap4\n      pop\n        /* \"#utility.yul\":23560:23898   */\n      pop\n        /* \"#utility.yul\":23965:23967   */\n      0x60\n        /* \"#utility.yul\":23954:23963   */\n      dup7\n        /* \"#utility.yul\":23950:23968   */\n      add\n        /* \"#utility.yul\":23937:23969   */\n      calldataload\n        /* \"#utility.yul\":23996:24014   */\n      0xffffffffffffffff\n        /* \"#utility.yul\":23988:23994   */\n      dup2\n        /* \"#utility.yul\":23985:24015   */\n      gt\n        /* \"#utility.yul\":23982:24099   */\n      iszero\n      tag_945\n      jumpi\n        /* \"#utility.yul\":24018:24097   */\n      tag_946\n      tag_665\n      jump\t// in\n    tag_946:\n        /* \"#utility.yul\":23982:24099   */\n    tag_945:\n        /* \"#utility.yul\":24123:24236   */\n      tag_947\n        /* \"#utility.yul\":24228:24235   */\n      dup9\n        /* \"#utility.yul\":24219:24225   */\n      dup3\n        /* \"#utility.yul\":24208:24217   */\n      dup10\n        /* \"#utility.yul\":24204:24226   */\n      add\n        /* \"#utility.yul\":24123:24236   */\n      tag_682\n      jump\t// in\n    tag_947:\n        /* \"#utility.yul\":24113:24236   */\n      swap3\n      pop\n        /* \"#utility.yul\":23908:24246   */\n      pop\n        /* \"#utility.yul\":24313:24316   */\n      0x80\n        /* \"#utility.yul\":24302:24311   */\n      dup7\n        /* \"#utility.yul\":24298:24317   */\n      add\n        /* \"#utility.yul\":24285:24318   */\n      calldataload\n        /* \"#utility.yul\":24345:24363   */\n      0xffffffffffffffff\n        /* \"#utility.yul\":24337:24343   */\n      dup2\n        /* \"#utility.yul\":24334:24364   */\n      gt\n        /* \"#utility.yul\":24331:24448   */\n      iszero\n      tag_948\n      jumpi\n        /* \"#utility.yul\":24367:24446   */\n      tag_949\n      tag_665\n      jump\t// in\n    tag_949:\n        /* \"#utility.yul\":24331:24448   */\n    tag_948:\n        /* \"#utility.yul\":24472:24535   */\n      tag_950\n        /* \"#utility.yul\":24527:24534   */\n      dup9\n        /* \"#utility.yul\":24518:24524   */\n      dup3\n        /* \"#utility.yul\":24507:24516   */\n      dup10\n        /* \"#utility.yul\":24503:24525   */\n      add\n        /* \"#utility.yul\":24472:24535   */\n      tag_678\n      jump\t// in\n    tag_950:\n        /* \"#utility.yul\":24462:24535   */\n      swap2\n      pop\n        /* \"#utility.yul\":24256:24545   */\n      pop\n        /* \"#utility.yul\":22541:24552   */\n      swap3\n      swap6\n      pop\n      swap3\n      swap6\n      swap1\n      swap4\n      pop\n      jump\t// out\n        /* \"#utility.yul\":24558:24695   */\n    tag_715:\n        /* \"#utility.yul\":24648:24654   */\n      0x00\n        /* \"#utility.yul\":24682:24687   */\n      dup2\n        /* \"#utility.yul\":24676:24688   */\n      mload\n        /* \"#utility.yul\":24666:24688   */\n      swap1\n      pop\n        /* \"#utility.yul\":24558:24695   */\n      swap2\n      swap1\n      pop\n      jump\t// out\n        /* \"#utility.yul\":24701:24908   */\n    tag_716:\n        /* \"#utility.yul\":24823:24834   */\n      0x00\n        /* \"#utility.yul\":24857:24863   */\n      dup3\n        /* \"#utility.yul\":24852:24855   */\n      dup3\n        /* \"#utility.yul\":24845:24864   */\n      mstore\n        /* \"#utility.yul\":24897:24901   */\n      0x20\n        /* \"#utility.yul\":24892:24895   */\n      dup3\n        /* \"#utility.yul\":24888:24902   */\n      add\n        /* \"#utility.yul\":24873:24902   */\n      swap1\n      pop\n        /* \"#utility.yul\":24701:24908   */\n      swap3\n      swap2\n      pop\n      pop\n      jump\t// out\n        /* \"#utility.yul\":24914:25069   */\n    tag_717:\n        /* \"#utility.yul\":25004:25008   */\n      0x00\n        /* \"#utility.yul\":25027:25030   */\n      dup2\n        /* \"#utility.yul\":25019:25030   */\n      swap1\n      pop\n        /* \"#utility.yul\":25057:25061   */\n      0x20\n        /* \"#utility.yul\":25052:25055   */\n      dup3\n        /* \"#utility.yul\":25048:25062   */\n      add\n        /* \"#utility.yul\":25040:25062   */\n      swap1\n      pop\n        /* \"#utility.yul\":24914:25069   */\n      swap2\n      swap1\n      pop\n      jump\t// out\n        /* \"#utility.yul\":25115:26034   */\n    tag_718:\n        /* \"#utility.yul\":25220:25223   */\n      0x00\n        /* \"#utility.yul\":25256:25260   */\n      0x60\n        /* \"#utility.yul\":25251:25254   */\n      dup4\n        /* \"#utility.yul\":25247:25261   */\n      add\n        /* \"#utility.yul\":25343:25347   */\n      0x00\n        /* \"#utility.yul\":25336:25341   */\n      dup4\n        /* \"#utility.yul\":25332:25348   */\n      add\n        /* \"#utility.yul\":25326:25349   */\n      mload\n        /* \"#utility.yul\":25396:25399   */\n      dup5\n        /* \"#utility.yul\":25390:25394   */\n      dup3\n        /* \"#utility.yul\":25386:25400   */\n      sub\n        /* \"#utility.yul\":25379:25383   */\n      0x00\n        /* \"#utility.yul\":25374:25377   */\n      dup7\n        /* \"#utility.yul\":25370:25384   */\n      add\n        /* \"#utility.yul\":25363:25401   */\n      mstore\n        /* \"#utility.yul\":25422:25495   */\n      tag_955\n        /* \"#utility.yul\":25490:25494   */\n      dup3\n        /* \"#utility.yul\":25476:25488   */\n      dup3\n        /* \"#utility.yul\":25422:25495   */\n      tag_689\n      jump\t// in\n    tag_955:\n        /* \"#utility.yul\":25414:25495   */\n      swap2\n      pop\n        /* \"#utility.yul\":25271:25506   */\n      pop\n        /* \"#utility.yul\":25595:25599   */\n      0x20\n        /* \"#utility.yul\":25588:25593   */\n      dup4\n        /* \"#utility.yul\":25584:25600   */\n      add\n        /* \"#utility.yul\":25578:25601   */\n      mload\n        /* \"#utility.yul\":25648:25651   */\n      dup5\n        /* \"#utility.yul\":25642:25646   */\n      dup3\n        /* \"#utility.yul\":25638:25652   */\n      sub\n        /* \"#utility.yul\":25631:25635   */\n      0x20\n        /* \"#utility.yul\":25626:25629   */\n      dup7\n        /* \"#utility.yul\":25622:25636   */\n      add\n        /* \"#utility.yul\":25615:25653   */\n      mstore\n        /* \"#utility.yul\":25674:25747   */\n      tag_956\n        /* \"#utility.yul\":25742:25746   */\n      dup3\n        /* \"#utility.yul\":25728:25740   */\n      dup3\n        /* \"#utility.yul\":25674:25747   */\n      tag_689\n      jump\t// in\n    tag_956:\n        /* \"#utility.yul\":25666:25747   */\n      swap2\n      pop\n        /* \"#utility.yul\":25516:25758   */\n      pop\n        /* \"#utility.yul\":25844:25848   */\n      0x40\n        /* \"#utility.yul\":25837:25842   */\n      dup4\n        /* \"#utility.yul\":25833:25849   */\n      add\n        /* \"#utility.yul\":25827:25850   */\n      mload\n        /* \"#utility.yul\":25897:25900   */\n      dup5\n        /* \"#utility.yul\":25891:25895   */\n      dup3\n        /* \"#utility.yul\":25887:25901   */\n      sub\n        /* \"#utility.yul\":25880:25884   */\n      0x40\n        /* \"#utility.yul\":25875:25878   */\n      dup7\n        /* \"#utility.yul\":25871:25885   */\n      add\n        /* \"#utility.yul\":25864:25902   */\n      mstore\n        /* \"#utility.yul\":25923:25996   */\n      tag_957\n        /* \"#utility.yul\":25991:25995   */\n      dup3\n        /* \"#utility.yul\":25977:25989   */\n      dup3\n        /* \"#utility.yul\":25923:25996   */\n      tag_689\n      jump\t// in\n    tag_957:\n        /* \"#utility.yul\":25915:25996   */\n      swap2\n      pop\n        /* \"#utility.yul\":25768:26007   */\n      pop\n        /* \"#utility.yul\":26024:26028   */\n      dup1\n        /* \"#utility.yul\":26017:26028   */\n      swap2\n      pop\n        /* \"#utility.yul\":25225:26034   */\n      pop\n        /* \"#utility.yul\":25115:26034   */\n      swap3\n      swap2\n      pop\n      pop\n      jump\t// out\n        /* \"#utility.yul\":26040:26288   */\n    tag_719:\n        /* \"#utility.yul\":26155:26165   */\n      0x00\n        /* \"#utility.yul\":26190:26282   */\n      tag_959\n        /* \"#utility.yul\":26278:26281   */\n      dup4\n        /* \"#utility.yul\":26270:26276   */\n      dup4\n        /* \"#utility.yul\":26190:26282   */\n      tag_718\n      jump\t// in\n    tag_959:\n        /* \"#utility.yul\":26176:26282   */\n      swap1\n      pop\n        /* \"#utility.yul\":26040:26288   */\n      swap3\n      swap2\n      pop\n      pop\n      jump\t// out\n        /* \"#utility.yul\":26294:26430   */\n    tag_720:\n        /* \"#utility.yul\":26387:26391   */\n      0x00\n        /* \"#utility.yul\":26419:26423   */\n      0x20\n        /* \"#utility.yul\":26414:26417   */\n      dup3\n        /* \"#utility.yul\":26410:26424   */\n      add\n        /* \"#utility.yul\":26402:26424   */\n      swap1\n      pop\n        /* \"#utility.yul\":26294:26430   */\n      swap2\n      swap1\n      pop\n      jump\t// out\n        /* \"#utility.yul\":26480:27575   */\n    tag_721:\n        /* \"#utility.yul\":26645:26648   */\n      0x00\n        /* \"#utility.yul\":26674:26751   */\n      tag_962\n        /* \"#utility.yul\":26745:26750   */\n      dup3\n        /* \"#utility.yul\":26674:26751   */\n      tag_715\n      jump\t// in\n    tag_962:\n        /* \"#utility.yul\":26767:26876   */\n      tag_963\n        /* \"#utility.yul\":26869:26875   */\n      dup2\n        /* \"#utility.yul\":26864:26867   */\n      dup6\n        /* \"#utility.yul\":26767:26876   */\n      tag_716\n      jump\t// in\n    tag_963:\n        /* \"#utility.yul\":26760:26876   */\n      swap4\n      pop\n        /* \"#utility.yul\":26902:26905   */\n      dup4\n        /* \"#utility.yul\":26947:26951   */\n      0x20\n        /* \"#utility.yul\":26939:26945   */\n      dup3\n        /* \"#utility.yul\":26935:26952   */\n      mul\n        /* \"#utility.yul\":26930:26933   */\n      dup6\n        /* \"#utility.yul\":26926:26953   */\n      add\n        /* \"#utility.yul\":26977:27056   */\n      tag_964\n        /* \"#utility.yul\":27050:27055   */\n      dup6\n        /* \"#utility.yul\":26977:27056   */\n      tag_717\n      jump\t// in\n    tag_964:\n        /* \"#utility.yul\":27079:27086   */\n      dup1\n        /* \"#utility.yul\":27110:27111   */\n      0x00\n        /* \"#utility.yul\":27095:27530   */\n    tag_965:\n        /* \"#utility.yul\":27120:27126   */\n      dup6\n        /* \"#utility.yul\":27117:27118   */\n      dup2\n        /* \"#utility.yul\":27114:27127   */\n      lt\n        /* \"#utility.yul\":27095:27530   */\n      iszero\n      tag_967\n      jumpi\n        /* \"#utility.yul\":27191:27200   */\n      dup5\n        /* \"#utility.yul\":27185:27189   */\n      dup5\n        /* \"#utility.yul\":27181:27201   */\n      sub\n        /* \"#utility.yul\":27176:27179   */\n      dup10\n        /* \"#utility.yul\":27169:27202   */\n      mstore\n        /* \"#utility.yul\":27242:27248   */\n      dup2\n        /* \"#utility.yul\":27236:27249   */\n      mload\n        /* \"#utility.yul\":27270:27380   */\n      tag_968\n        /* \"#utility.yul\":27375:27379   */\n      dup6\n        /* \"#utility.yul\":27360:27373   */\n      dup3\n        /* \"#utility.yul\":27270:27380   */\n      tag_719\n      jump\t// in\n    tag_968:\n        /* \"#utility.yul\":27262:27380   */\n      swap5\n      pop\n        /* \"#utility.yul\":27403:27486   */\n      tag_969\n        /* \"#utility.yul\":27479:27485   */\n      dup4\n        /* \"#utility.yul\":27403:27486   */\n      tag_720\n      jump\t// in\n    tag_969:\n        /* \"#utility.yul\":27393:27486   */\n      swap3\n      pop\n        /* \"#utility.yul\":27515:27519   */\n      0x20\n        /* \"#utility.yul\":27510:27513   */\n      dup11\n        /* \"#utility.yul\":27506:27520   */\n      add\n        /* \"#utility.yul\":27499:27520   */\n      swap10\n      pop\n        /* \"#utility.yul\":27155:27530   */\n      pop\n        /* \"#utility.yul\":27142:27143   */\n      0x01\n        /* \"#utility.yul\":27139:27140   */\n      dup2\n        /* \"#utility.yul\":27135:27144   */\n      add\n        /* \"#utility.yul\":27130:27144   */\n      swap1\n      pop\n        /* \"#utility.yul\":27095:27530   */\n      jump(tag_965)\n    tag_967:\n        /* \"#utility.yul\":27099:27113   */\n      pop\n        /* \"#utility.yul\":27546:27550   */\n      dup3\n        /* \"#utility.yul\":27539:27550   */\n      swap8\n      pop\n        /* \"#utility.yul\":27566:27569   */\n      dup8\n        /* \"#utility.yul\":27559:27569   */\n      swap6\n      pop\n        /* \"#utility.yul\":26650:27575   */\n      pop\n      pop\n      pop\n      pop\n      pop\n        /* \"#utility.yul\":26480:27575   */\n      swap3\n      swap2\n      pop\n      pop\n      jump\t// out\n        /* \"#utility.yul\":27581:28046   */\n    tag_50:\n        /* \"#utility.yul\":27770:27774   */\n      0x00\n        /* \"#utility.yul\":27808:27810   */\n      0x20\n        /* \"#utility.yul\":27797:27806   */\n      dup3\n        /* \"#utility.yul\":27793:27811   */\n      add\n        /* \"#utility.yul\":27785:27811   */\n      swap1\n      pop\n        /* \"#utility.yul\":27857:27866   */\n      dup2\n        /* \"#utility.yul\":27851:27855   */\n      dup2\n        /* \"#utility.yul\":27847:27867   */\n      sub\n        /* \"#utility.yul\":27843:27844   */\n      0x00\n        /* \"#utility.yul\":27832:27841   */\n      dup4\n        /* \"#utility.yul\":27828:27845   */\n      add\n        /* \"#utility.yul\":27821:27868   */\n      mstore\n        /* \"#utility.yul\":27885:28039   */\n      tag_971\n        /* \"#utility.yul\":28034:28038   */\n      dup2\n        /* \"#utility.yul\":28025:28031   */\n      dup5\n        /* \"#utility.yul\":27885:28039   */\n      tag_721\n      jump\t// in\n    tag_971:\n        /* \"#utility.yul\":27877:28039   */\n      swap1\n      pop\n        /* \"#utility.yul\":27581:28046   */\n      swap3\n      swap2\n      pop\n      pop\n      jump\t// out\n        /* \"#utility.yul\":28052:28184   */\n    tag_722:\n        /* \"#utility.yul\":28137:28143   */\n      0x00\n        /* \"#utility.yul\":28171:28176   */\n      dup2\n        /* \"#utility.yul\":28165:28177   */\n      mload\n        /* \"#utility.yul\":28155:28177   */\n      swap1\n      pop\n        /* \"#utility.yul\":28052:28184   */\n      swap2\n      swap1\n      pop\n      jump\t// out\n        /* \"#utility.yul\":28190:28392   */\n    tag_723:\n        /* \"#utility.yul\":28307:28318   */\n      0x00\n        /* \"#utility.yul\":28341:28347   */\n      dup3\n        /* \"#utility.yul\":28336:28339   */\n      dup3\n        /* \"#utility.yul\":28329:28348   */\n      mstore\n        /* \"#utility.yul\":28381:28385   */\n      0x20\n        /* \"#utility.yul\":28376:28379   */\n      dup3\n        /* \"#utility.yul\":28372:28386   */\n      add\n        /* \"#utility.yul\":28357:28386   */\n      swap1\n      pop\n        /* \"#utility.yul\":28190:28392   */\n      swap3\n      swap2\n      pop\n      pop\n      jump\t// out\n        /* \"#utility.yul\":28398:28548   */\n    tag_724:\n        /* \"#utility.yul\":28483:28487   */\n      0x00\n        /* \"#utility.yul\":28506:28509   */\n      dup2\n        /* \"#utility.yul\":28498:28509   */\n      swap1\n      pop\n        /* \"#utility.yul\":28536:28540   */\n      0x20\n        /* \"#utility.yul\":28531:28534   */\n      dup3\n        /* \"#utility.yul\":28527:28541   */\n      add\n        /* \"#utility.yul\":28519:28541   */\n      swap1\n      pop\n        /* \"#utility.yul\":28398:28548   */\n      swap2\n      swap1\n      pop\n      jump\t// out\n        /* \"#utility.yul\":28586:29495   */\n    tag_725:\n        /* \"#utility.yul\":28681:28684   */\n      0x00\n        /* \"#utility.yul\":28717:28721   */\n      0x60\n        /* \"#utility.yul\":28712:28715   */\n      dup4\n        /* \"#utility.yul\":28708:28722   */\n      add\n        /* \"#utility.yul\":28804:28808   */\n      0x00\n        /* \"#utility.yul\":28797:28802   */\n      dup4\n        /* \"#utility.yul\":28793:28809   */\n      add\n        /* \"#utility.yul\":28787:28810   */\n      mload\n        /* \"#utility.yul\":28857:28860   */\n      dup5\n        /* \"#utility.yul\":28851:28855   */\n      dup3\n        /* \"#utility.yul\":28847:28861   */\n      sub\n        /* \"#utility.yul\":28840:28844   */\n      0x00\n        /* \"#utility.yul\":28835:28838   */\n      dup7\n        /* \"#utility.yul\":28831:28845   */\n      add\n        /* \"#utility.yul\":28824:28862   */\n      mstore\n        /* \"#utility.yul\":28883:28956   */\n      tag_976\n        /* \"#utility.yul\":28951:28955   */\n      dup3\n        /* \"#utility.yul\":28937:28949   */\n      dup3\n        /* \"#utility.yul\":28883:28956   */\n      tag_689\n      jump\t// in\n    tag_976:\n        /* \"#utility.yul\":28875:28956   */\n      swap2\n      pop\n        /* \"#utility.yul\":28732:28967   */\n      pop\n        /* \"#utility.yul\":29056:29060   */\n      0x20\n        /* \"#utility.yul\":29049:29054   */\n      dup4\n        /* \"#utility.yul\":29045:29061   */\n      add\n        /* \"#utility.yul\":29039:29062   */\n      mload\n        /* \"#utility.yul\":29109:29112   */\n      dup5\n        /* \"#utility.yul\":29103:29107   */\n      dup3\n        /* \"#utility.yul\":29099:29113   */\n      sub\n        /* \"#utility.yul\":29092:29096   */\n      0x20\n        /* \"#utility.yul\":29087:29090   */\n      dup7\n        /* \"#utility.yul\":29083:29097   */\n      add\n        /* \"#utility.yul\":29076:29114   */\n      mstore\n        /* \"#utility.yul\":29135:29208   */\n      tag_977\n        /* \"#utility.yul\":29203:29207   */\n      dup3\n        /* \"#utility.yul\":29189:29201   */\n      dup3\n        /* \"#utility.yul\":29135:29208   */\n      tag_689\n      jump\t// in\n    tag_977:\n        /* \"#utility.yul\":29127:29208   */\n      swap2\n      pop\n        /* \"#utility.yul\":28977:29219   */\n      pop\n        /* \"#utility.yul\":29305:29309   */\n      0x40\n        /* \"#utility.yul\":29298:29303   */\n      dup4\n        /* \"#utility.yul\":29294:29310   */\n      add\n        /* \"#utility.yul\":29288:29311   */\n      mload\n        /* \"#utility.yul\":29358:29361   */\n      dup5\n        /* \"#utility.yul\":29352:29356   */\n      dup3\n        /* \"#utility.yul\":29348:29362   */\n      sub\n        /* \"#utility.yul\":29341:29345   */\n      0x40\n        /* \"#utility.yul\":29336:29339   */\n      dup7\n        /* \"#utility.yul\":29332:29346   */\n      add\n        /* \"#utility.yul\":29325:29363   */\n      mstore\n        /* \"#utility.yul\":29384:29457   */\n      tag_978\n        /* \"#utility.yul\":29452:29456   */\n      dup3\n        /* \"#utility.yul\":29438:29450   */\n      dup3\n        /* \"#utility.yul\":29384:29457   */\n      tag_689\n      jump\t// in\n    tag_978:\n        /* \"#utility.yul\":29376:29457   */\n      swap2\n      pop\n        /* \"#utility.yul\":29229:29468   */\n      pop\n        /* \"#utility.yul\":29485:29489   */\n      dup1\n        /* \"#utility.yul\":29478:29489   */\n      swap2\n      pop\n        /* \"#utility.yul\":28686:29495   */\n      pop\n        /* \"#utility.yul\":28586:29495   */\n      swap3\n      swap2\n      pop\n      pop\n      jump\t// out\n        /* \"#utility.yul\":29501:29729   */\n    tag_726:\n        /* \"#utility.yul\":29606:29616   */\n      0x00\n        /* \"#utility.yul\":29641:29723   */\n      tag_980\n        /* \"#utility.yul\":29719:29722   */\n      dup4\n        /* \"#utility.yul\":29711:29717   */\n      dup4\n        /* \"#utility.yul\":29641:29723   */\n      tag_725\n      jump\t// in\n    tag_980:\n        /* \"#utility.yul\":29627:29723   */\n      swap1\n      pop\n        /* \"#utility.yul\":29501:29729   */\n      swap3\n      swap2\n      pop\n      pop\n      jump\t// out\n        /* \"#utility.yul\":29735:29866   */\n    tag_727:\n        /* \"#utility.yul\":29823:29827   */\n      0x00\n        /* \"#utility.yul\":29855:29859   */\n      0x20\n        /* \"#utility.yul\":29850:29853   */\n      dup3\n        /* \"#utility.yul\":29846:29860   */\n      add\n        /* \"#utility.yul\":29838:29860   */\n      swap1\n      pop\n        /* \"#utility.yul\":29735:29866   */\n      swap2\n      swap1\n      pop\n      jump\t// out\n        /* \"#utility.yul\":29908:30963   */\n    tag_728:\n        /* \"#utility.yul\":30063:30066   */\n      0x00\n        /* \"#utility.yul\":30092:30164   */\n      tag_983\n        /* \"#utility.yul\":30158:30163   */\n      dup3\n        /* \"#utility.yul\":30092:30164   */\n      tag_722\n      jump\t// in\n    tag_983:\n        /* \"#utility.yul\":30180:30284   */\n      tag_984\n        /* \"#utility.yul\":30277:30283   */\n      dup2\n        /* \"#utility.yul\":30272:30275   */\n      dup6\n        /* \"#utility.yul\":30180:30284   */\n      tag_723\n      jump\t// in\n    tag_984:\n        /* \"#utility.yul\":30173:30284   */\n      swap4\n      pop\n        /* \"#utility.yul\":30310:30313   */\n      dup4\n        /* \"#utility.yul\":30355:30359   */\n      0x20\n        /* \"#utility.yul\":30347:30353   */\n      dup3\n        /* \"#utility.yul\":30343:30360   */\n      mul\n        /* \"#utility.yul\":30338:30341   */\n      dup6\n        /* \"#utility.yul\":30334:30361   */\n      add\n        /* \"#utility.yul\":30385:30459   */\n      tag_985\n        /* \"#utility.yul\":30453:30458   */\n      dup6\n        /* \"#utility.yul\":30385:30459   */\n      tag_724\n      jump\t// in\n    tag_985:\n        /* \"#utility.yul\":30482:30489   */\n      dup1\n        /* \"#utility.yul\":30513:30514   */\n      0x00\n        /* \"#utility.yul\":30498:30918   */\n    tag_986:\n        /* \"#utility.yul\":30523:30529   */\n      dup6\n        /* \"#utility.yul\":30520:30521   */\n      dup2\n        /* \"#utility.yul\":30517:30530   */\n      lt\n        /* \"#utility.yul\":30498:30918   */\n      iszero\n      tag_988\n      jumpi\n        /* \"#utility.yul\":30594:30603   */\n      dup5\n        /* \"#utility.yul\":30588:30592   */\n      dup5\n        /* \"#utility.yul\":30584:30604   */\n      sub\n        /* \"#utility.yul\":30579:30582   */\n      dup10\n        /* \"#utility.yul\":30572:30605   */\n      mstore\n        /* \"#utility.yul\":30645:30651   */\n      dup2\n        /* \"#utility.yul\":30639:30652   */\n      mload\n        /* \"#utility.yul\":30673:30773   */\n      tag_989\n        /* \"#utility.yul\":30768:30772   */\n      dup6\n        /* \"#utility.yul\":30753:30766   */\n      dup3\n        /* \"#utility.yul\":30673:30773   */\n      tag_726\n      jump\t// in\n    tag_989:\n        /* \"#utility.yul\":30665:30773   */\n      swap5\n      pop\n        /* \"#utility.yul\":30796:30874   */\n      tag_990\n        /* \"#utility.yul\":30867:30873   */\n      dup4\n        /* \"#utility.yul\":30796:30874   */\n      tag_727\n      jump\t// in\n    tag_990:\n        /* \"#utility.yul\":30786:30874   */\n      swap3\n      pop\n        /* \"#utility.yul\":30903:30907   */\n      0x20\n        /* \"#utility.yul\":30898:30901   */\n      dup11\n        /* \"#utility.yul\":30894:30908   */\n      add\n        /* \"#utility.yul\":30887:30908   */\n      swap10\n      pop\n        /* \"#utility.yul\":30558:30918   */\n      pop\n        /* \"#utility.yul\":30545:30546   */\n      0x01\n        /* \"#utility.yul\":30542:30543   */\n      dup2\n        /* \"#utility.yul\":30538:30547   */\n      add\n        /* \"#utility.yul\":30533:30547   */\n      swap1\n      pop\n        /* \"#utility.yul\":30498:30918   */\n      jump(tag_986)\n    tag_988:\n        /* \"#utility.yul\":30502:30516   */\n      pop\n        /* \"#utility.yul\":30934:30938   */\n      dup3\n        /* \"#utility.yul\":30927:30938   */\n      swap8\n      pop\n        /* \"#utility.yul\":30954:30957   */\n      dup8\n        /* \"#utility.yul\":30947:30957   */\n      swap6\n      pop\n        /* \"#utility.yul\":30068:30963   */\n      pop\n      pop\n      pop\n      pop\n      pop\n        /* \"#utility.yul\":29908:30963   */\n      swap3\n      swap2\n      pop\n      pop\n      jump\t// out\n        /* \"#utility.yul\":30969:31414   */\n    tag_54:\n        /* \"#utility.yul\":31148:31152   */\n      0x00\n        /* \"#utility.yul\":31186:31188   */\n      0x20\n        /* \"#utility.yul\":31175:31184   */\n      dup3\n        /* \"#utility.yul\":31171:31189   */\n      add\n        /* \"#utility.yul\":31163:31189   */\n      swap1\n      pop\n        /* \"#utility.yul\":31235:31244   */\n      dup2\n        /* \"#utility.yul\":31229:31233   */\n      dup2\n        /* \"#utility.yul\":31225:31245   */\n      sub\n        /* \"#utility.yul\":31221:31222   */\n      0x00\n        /* \"#utility.yul\":31210:31219   */\n      dup4\n        /* \"#utility.yul\":31206:31223   */\n      add\n        /* \"#utility.yul\":31199:31246   */\n      mstore\n        /* \"#utility.yul\":31263:31407   */\n      tag_992\n        /* \"#utility.yul\":31402:31406   */\n      dup2\n        /* \"#utility.yul\":31393:31399   */\n      dup5\n        /* \"#utility.yul\":31263:31407   */\n      tag_728\n      jump\t// in\n    tag_992:\n        /* \"#utility.yul\":31255:31407   */\n      swap1\n      pop\n        /* \"#utility.yul\":30969:31414   */\n      swap3\n      swap2\n      pop\n      pop\n      jump\t// out\n        /* \"#utility.yul\":31420:31600   */\n    tag_70:\n        /* \"#utility.yul\":31468:31545   */\n      0x4e487b7100000000000000000000000000000000000000000000000000000000\n        /* \"#utility.yul\":31465:31466   */\n      0x00\n        /* \"#utility.yul\":31458:31546   */\n      mstore\n        /* \"#utility.yul\":31565:31569   */\n      0x32\n        /* \"#utility.yul\":31562:31563   */\n      0x04\n        /* \"#utility.yul\":31555:31570   */\n      mstore\n        /* \"#utility.yul\":31589:31593   */\n      0x24\n        /* \"#utility.yul\":31586:31587   */\n      0x00\n        /* \"#utility.yul\":31579:31594   */\n      revert\n        /* \"#utility.yul\":31606:31786   */\n    tag_729:\n        /* \"#utility.yul\":31654:31731   */\n      0x4e487b7100000000000000000000000000000000000000000000000000000000\n        /* \"#utility.yul\":31651:31652   */\n      0x00\n        /* \"#utility.yul\":31644:31732   */\n      mstore\n        /* \"#utility.yul\":31751:31755   */\n      0x22\n        /* \"#utility.yul\":31748:31749   */\n      0x04\n        /* \"#utility.yul\":31741:31756   */\n      mstore\n        /* \"#utility.yul\":31775:31779   */\n      0x24\n        /* \"#utility.yul\":31772:31773   */\n      0x00\n        /* \"#utility.yul\":31765:31780   */\n      revert\n        /* \"#utility.yul\":31792:32112   */\n    tag_113:\n        /* \"#utility.yul\":31836:31842   */\n      0x00\n        /* \"#utility.yul\":31873:31874   */\n      0x02\n        /* \"#utility.yul\":31867:31871   */\n      dup3\n        /* \"#utility.yul\":31863:31875   */\n      div\n        /* \"#utility.yul\":31853:31875   */\n      swap1\n      pop\n        /* \"#utility.yul\":31920:31921   */\n      0x01\n        /* \"#utility.yul\":31914:31918   */\n      dup3\n        /* \"#utility.yul\":31910:31922   */\n      and\n        /* \"#utility.yul\":31941:31959   */\n      dup1\n        /* \"#utility.yul\":31931:32012   */\n      tag_996\n      jumpi\n        /* \"#utility.yul\":31997:32001   */\n      0x7f\n        /* \"#utility.yul\":31989:31995   */\n      dup3\n        /* \"#utility.yul\":31985:32002   */\n      and\n        /* \"#utility.yul\":31975:32002   */\n      swap2\n      pop\n        /* \"#utility.yul\":31931:32012   */\n    tag_996:\n        /* \"#utility.yul\":32059:32061   */\n      0x20\n        /* \"#utility.yul\":32051:32057   */\n      dup3\n        /* \"#utility.yul\":32048:32062   */\n      lt\n        /* \"#utility.yul\":32028:32046   */\n      dup2\n        /* \"#utility.yul\":32025:32063   */\n      sub\n        /* \"#utility.yul\":32022:32106   */\n      tag_997\n      jumpi\n        /* \"#utility.yul\":32078:32096   */\n      tag_998\n      tag_729\n      jump\t// in\n    tag_998:\n        /* \"#utility.yul\":32022:32106   */\n    tag_997:\n        /* \"#utility.yul\":31843:32112   */\n      pop\n        /* \"#utility.yul\":31792:32112   */\n      swap2\n      swap1\n      pop\n      jump\t// out\n        /* \"#utility.yul\":32118:32259   */\n    tag_730:\n        /* \"#utility.yul\":32167:32171   */\n      0x00\n        /* \"#utility.yul\":32190:32193   */\n      dup2\n        /* \"#utility.yul\":32182:32193   */\n      swap1\n      pop\n        /* \"#utility.yul\":32213:32216   */\n      dup2\n        /* \"#utility.yul\":32210:32211   */\n      0x00\n        /* \"#utility.yul\":32203:32217   */\n      mstore\n        /* \"#utility.yul\":32247:32251   */\n      0x20\n        /* \"#utility.yul\":32244:32245   */\n      0x00\n        /* \"#utility.yul\":32234:32252   */\n      keccak256\n        /* \"#utility.yul\":32226:32252   */\n      swap1\n      pop\n        /* \"#utility.yul\":32118:32259   */\n      swap2\n      swap1\n      pop\n      jump\t// out\n        /* \"#utility.yul\":32265:32358   */\n    tag_731:\n        /* \"#utility.yul\":32302:32308   */\n      0x00\n        /* \"#utility.yul\":32349:32351   */\n      0x20\n        /* \"#utility.yul\":32344:32346   */\n      0x1f\n        /* \"#utility.yul\":32337:32342   */\n      dup4\n        /* \"#utility.yul\":32333:32347   */\n      add\n        /* \"#utility.yul\":32329:32352   */\n      div\n        /* \"#utility.yul\":32319:32352   */\n      swap1\n      pop\n        /* \"#utility.yul\":32265:32358   */\n      swap2\n      swap1\n      pop\n      jump\t// out\n        /* \"#utility.yul\":32364:32471   */\n    tag_732:\n        /* \"#utility.yul\":32408:32416   */\n      0x00\n        /* \"#utility.yul\":32458:32463   */\n      dup3\n        /* \"#utility.yul\":32452:32456   */\n      dup3\n        /* \"#utility.yul\":32448:32464   */\n      shl\n        /* \"#utility.yul\":32427:32464   */\n      swap1\n      pop\n        /* \"#utility.yul\":32364:32471   */\n      swap3\n      swap2\n      pop\n      pop\n      jump\t// out\n        /* \"#utility.yul\":32477:32870   */\n    tag_733:\n        /* \"#utility.yul\":32546:32552   */\n      0x00\n        /* \"#utility.yul\":32596:32597   */\n      0x08\n        /* \"#utility.yul\":32584:32594   */\n      dup4\n        /* \"#utility.yul\":32580:32598   */\n      mul\n        /* \"#utility.yul\":32619:32716   */\n      tag_1003\n        /* \"#utility.yul\":32649:32715   */\n      0xffffffffffffffffffffffffffffffffffffffffffffffffffffffffffffffff\n        /* \"#utility.yul\":32638:32647   */\n      dup3\n        /* \"#utility.yul\":32619:32716   */\n      tag_732\n      jump\t// in\n    tag_1003:\n        /* \"#utility.yul\":32737:32776   */\n      tag_1004\n        /* \"#utility.yul\":32767:32775   */\n      dup7\n        /* \"#utility.yul\":32756:32765   */\n      dup4\n        /* \"#utility.yul\":32737:32776   */\n      tag_732\n      jump\t// in\n    tag_1004:\n        /* \"#utility.yul\":32725:32776   */\n      swap6\n      pop\n        /* \"#utility.yul\":32809:32813   */\n      dup1\n        /* \"#utility.yul\":32805:32814   */\n      not\n        /* \"#utility.yul\":32798:32803   */\n      dup5\n        /* \"#utility.yul\":32794:32815   */\n      and\n        /* \"#utility.yul\":32785:32815   */\n      swap4\n      pop\n        /* \"#utility.yul\":32858:32862   */\n      dup1\n        /* \"#utility.yul\":32848:32856   */\n      dup7\n        /* \"#utility.yul\":32844:32863   */\n      and\n        /* \"#utility.yul\":32837:32842   */\n      dup5\n        /* \"#utility.yul\":32834:32864   */\n      or\n        /* \"#utility.yul\":32824:32864   */\n      swap3\n      pop\n        /* \"#utility.yul\":32553:32870   */\n      pop\n      pop\n        /* \"#utility.yul\":32477:32870   */\n      swap4\n      swap3\n      pop\n      pop\n      pop\n      jump\t// out\n        /* \"#utility.yul\":32876:32953   */\n    tag_734:\n        /* \"#utility.yul\":32913:32920   */\n      0x00\n        /* \"#utility.yul\":32942:32947   */\n      dup2\n        /* \"#utility.yul\":32931:32947   */\n      swap1\n      pop\n        /* \"#utility.yul\":32876:32953   */\n      swap2\n      swap1\n      pop\n      jump\t// out\n        /* \"#utility.yul\":32959:33019   */\n    tag_735:\n        /* \"#utility.yul\":32987:32990   */\n      0x00\n        /* \"#utility.yul\":33008:33013   */\n      dup2\n        /* \"#utility.yul\":33001:33013   */\n      swap1\n      pop\n        /* \"#utility.yul\":32959:33019   */\n      swap2\n      swap1\n      pop\n      jump\t// out\n        /* \"#utility.yul\":33025:33167   */\n    tag_736:\n        /* \"#utility.yul\":33075:33084   */\n      0x00\n        /* \"#utility.yul\":33108:33161   */\n      tag_1008\n        /* \"#utility.yul\":33126:33160   */\n      tag_1009\n        /* \"#utility.yul\":33135:33159   */\n      tag_1010\n        /* \"#utility.yul\":33153:33158   */\n      dup5\n        /* \"#utility.yul\":33135:33159   */\n      tag_734\n      jump\t// in\n    tag_1010:\n        /* \"#utility.yul\":33126:33160   */\n      tag_735\n      jump\t// in\n    tag_1009:\n        /* \"#utility.yul\":33108:33161   */\n      tag_734\n      jump\t// in\n    tag_1008:\n        /* \"#utility.yul\":33095:33161   */\n      swap1\n      pop\n        /* \"#utility.yul\":33025:33167   */\n      swap2\n      swap1\n      pop\n      jump\t// out\n        /* \"#utility.yul\":33173:33248   */\n    tag_737:\n        /* \"#utility.yul\":33216:33219   */\n      0x00\n        /* \"#utility.yul\":33237:33242   */\n      dup2\n        /* \"#utility.yul\":33230:33242   */\n      swap1\n      pop\n        /* \"#utility.yul\":33173:33248   */\n      swap2\n      swap1\n      pop\n      jump\t// out\n        /* \"#utility.yul\":33254:33523   */\n    tag_738:\n        /* \"#utility.yul\":33364:33403   */\n      tag_1013\n        /* \"#utility.yul\":33395:33402   */\n      dup4\n        /* \"#utility.yul\":33364:33403   */\n      tag_736\n      jump\t// in\n    tag_1013:\n        /* \"#utility.yul\":33425:33516   */\n      tag_1014\n        /* \"#utility.yul\":33474:33515   */\n      tag_1015\n        /* \"#utility.yul\":33498:33514   */\n      dup3\n        /* \"#utility.yul\":33474:33515   */\n      tag_737\n      jump\t// in\n    tag_1015:\n        /* \"#utility.yul\":33466:33472   */\n      dup5\n        /* \"#utility.yul\":33459:33463   */\n      dup5\n        /* \"#utility.yul\":33453:33464   */\n      sload\n        /* \"#utility.yul\":33425:33516   */\n      tag_733\n      jump\t// in\n    tag_1014:\n        /* \"#utility.yul\":33419:33423   */\n      dup3\n        /* \"#utility.yul\":33412:33517   */\n      sstore\n        /* \"#utility.yul\":33330:33523   */\n      pop\n        /* \"#utility.yul\":33254:33523   */\n      pop\n      pop\n      pop\n      jump\t// out\n        /* \"#utility.yul\":33529:33602   */\n    tag_739:\n        /* \"#utility.yul\":33574:33577   */\n      0x00\n        /* \"#utility.yul\":33529:33602   */\n      swap1\n      jump\t// out\n        /* \"#utility.yul\":33608:33797   */\n    tag_740:\n        /* \"#utility.yul\":33685:33717   */\n      tag_1018\n      tag_739\n      jump\t// in\n    tag_1018:\n        /* \"#utility.yul\":33726:33791   */\n      tag_1019\n        /* \"#utility.yul\":33784:33790   */\n      dup2\n        /* \"#utility.yul\":33776:33782   */\n      dup5\n        /* \"#utility.yul\":33770:33774   */\n      dup5\n        /* \"#utility.yul\":33726:33791   */\n      tag_738\n      jump\t// in\n    tag_1019:\n        /* \"#utility.yul\":33661:33797   */\n      pop\n        /* \"#utility.yul\":33608:33797   */\n      pop\n      pop\n      jump\t// out\n        /* \"#utility.yul\":33803:33989   */\n    tag_741:\n        /* \"#utility.yul\":33863:33983   */\n    tag_1021:\n        /* \"#utility.yul\":33880:33883   */\n      dup2\n        /* \"#utility.yul\":33873:33878   */\n      dup2\n        /* \"#utility.yul\":33870:33884   */\n      lt\n        /* \"#utility.yul\":33863:33983   */\n      iszero\n      tag_1023\n      jumpi\n        /* \"#utility.yul\":33934:33973   */\n      tag_1024\n        /* \"#utility.yul\":33971:33972   */\n      0x00\n        /* \"#utility.yul\":33964:33969   */\n      dup3\n        /* \"#utility.yul\":33934:33973   */\n      tag_740\n      jump\t// in\n    tag_1024:\n        /* \"#utility.yul\":33907:33908   */\n      0x01\n        /* \"#utility.yul\":33900:33905   */\n      dup2\n        /* \"#utility.yul\":33896:33909   */\n      add\n        /* \"#utility.yul\":33887:33909   */\n      swap1\n      pop\n        /* \"#utility.yul\":33863:33983   */\n      jump(tag_1021)\n    tag_1023:\n        /* \"#utility.yul\":33803:33989   */\n      pop\n      pop\n      jump\t// out\n        /* \"#utility.yul\":33995:34538   */\n    tag_742:\n        /* \"#utility.yul\":34096:34098   */\n      0x1f\n        /* \"#utility.yul\":34091:34094   */\n      dup3\n        /* \"#utility.yul\":34088:34099   */\n      gt\n        /* \"#utility.yul\":34085:34531   */\n      iszero\n      tag_1026\n      jumpi\n        /* \"#utility.yul\":34130:34168   */\n      tag_1027\n        /* \"#utility.yul\":34162:34167   */\n      dup2\n        /* \"#utility.yul\":34130:34168   */\n      tag_730\n      jump\t// in\n    tag_1027:\n        /* \"#utility.yul\":34214:34243   */\n      tag_1028\n        /* \"#utility.yul\":34232:34242   */\n      dup5\n        /* \"#utility.yul\":34214:34243   */\n      tag_731\n      jump\t// in\n    tag_1028:\n        /* \"#utility.yul\":34204:34212   */\n      dup2\n        /* \"#utility.yul\":34200:34244   */\n      add\n        /* \"#utility.yul\":34397:34399   */\n      0x20\n        /* \"#utility.yul\":34385:34395   */\n      dup6\n        /* \"#utility.yul\":34382:34400   */\n      lt\n        /* \"#utility.yul\":34379:34428   */\n      iszero\n      tag_1029\n      jumpi\n        /* \"#utility.yul\":34418:34426   */\n      dup2\n        /* \"#utility.yul\":34403:34426   */\n      swap1\n      pop\n        /* \"#utility.yul\":34379:34428   */\n    tag_1029:\n        /* \"#utility.yul\":34441:34521   */\n      tag_1030\n        /* \"#utility.yul\":34497:34519   */\n      tag_1031\n        /* \"#utility.yul\":34515:34518   */\n      dup6\n        /* \"#utility.yul\":34497:34519   */\n      tag_731\n      jump\t// in\n    tag_1031:\n        /* \"#utility.yul\":34487:34495   */\n      dup4\n        /* \"#utility.yul\":34483:34520   */\n      add\n        /* \"#utility.yul\":34470:34481   */\n      dup3\n        /* \"#utility.yul\":34441:34521   */\n      tag_741\n      jump\t// in\n    tag_1030:\n        /* \"#utility.yul\":34100:34531   */\n      pop\n      pop\n        /* \"#utility.yul\":34085:34531   */\n    tag_1026:\n        /* \"#utility.yul\":33995:34538   */\n      pop\n      pop\n      pop\n      jump\t// out\n        /* \"#utility.yul\":34544:34661   */\n    tag_743:\n        /* \"#utility.yul\":34598:34606   */\n      0x00\n        /* \"#utility.yul\":34648:34653   */\n      dup3\n        /* \"#utility.yul\":34642:34646   */\n      dup3\n        /* \"#utility.yul\":34638:34654   */\n      shr\n        /* \"#utility.yul\":34617:34654   */\n      swap1\n      pop\n        /* \"#utility.yul\":34544:34661   */\n      swap3\n      swap2\n      pop\n      pop\n      jump\t// out\n        /* \"#utility.yul\":34667:34836   */\n    tag_744:\n        /* \"#utility.yul\":34711:34717   */\n      0x00\n        /* \"#utility.yul\":34744:34795   */\n      tag_1034\n        /* \"#utility.yul\":34792:34793   */\n      0x00\n        /* \"#utility.yul\":34788:34794   */\n      not\n        /* \"#utility.yul\":34780:34785   */\n      dup5\n        /* \"#utility.yul\":34777:34778   */\n      0x08\n        /* \"#utility.yul\":34773:34786   */\n      mul\n        /* \"#utility.yul\":34744:34795   */\n      tag_743\n      jump\t// in\n    tag_1034:\n        /* \"#utility.yul\":34740:34796   */\n      not\n        /* \"#utility.yul\":34825:34829   */\n      dup1\n        /* \"#utility.yul\":34819:34823   */\n      dup4\n        /* \"#utility.yul\":34815:34830   */\n      and\n        /* \"#utility.yul\":34805:34830   */\n      swap2\n      pop\n        /* \"#utility.yul\":34718:34836   */\n      pop\n        /* \"#utility.yul\":34667:34836   */\n      swap3\n      swap2\n      pop\n      pop\n      jump\t// out\n        /* \"#utility.yul\":34841:35136   */\n    tag_745:\n        /* \"#utility.yul\":34917:34921   */\n      0x00\n        /* \"#utility.yul\":35063:35092   */\n      tag_1036\n        /* \"#utility.yul\":35088:35091   */\n      dup4\n        /* \"#utility.yul\":35082:35086   */\n      dup4\n        /* \"#utility.yul\":35063:35092   */\n      tag_744\n      jump\t// in\n    tag_1036:\n        /* \"#utility.yul\":35055:35092   */\n      swap2\n      pop\n        /* \"#utility.yul\":35125:35128   */\n      dup3\n        /* \"#utility.yul\":35122:35123   */\n      0x02\n        /* \"#utility.yul\":35118:35129   */\n      mul\n        /* \"#utility.yul\":35112:35116   */\n      dup3\n        /* \"#utility.yul\":35109:35130   */\n      or\n        /* \"#utility.yul\":35101:35130   */\n      swap1\n      pop\n        /* \"#utility.yul\":34841:35136   */\n      swap3\n      swap2\n      pop\n      pop\n      jump\t// out\n        /* \"#utility.yul\":35141:36536   */\n    tag_83:\n        /* \"#utility.yul\":35258:35295   */\n      tag_1038\n        /* \"#utility.yul\":35291:35294   */\n      dup3\n        /* \"#utility.yul\":35258:35295   */\n      tag_686\n      jump\t// in\n    tag_1038:\n        /* \"#utility.yul\":35360:35378   */\n      0xffffffffffffffff\n        /* \"#utility.yul\":35352:35358   */\n      dup2\n        /* \"#utility.yul\":35349:35379   */\n      gt\n        /* \"#utility.yul\":35346:35402   */\n      iszero\n      tag_1039\n      jumpi\n        /* \"#utility.yul\":35382:35400   */\n      tag_1040\n      tag_668\n      jump\t// in\n    tag_1040:\n        /* \"#utility.yul\":35346:35402   */\n    tag_1039:\n        /* \"#utility.yul\":35426:35464   */\n      tag_1041\n        /* \"#utility.yul\":35458:35462   */\n      dup3\n        /* \"#utility.yul\":35452:35463   */\n      sload\n        /* \"#utility.yul\":35426:35464   */\n      tag_113\n      jump\t// in\n    tag_1041:\n        /* \"#utility.yul\":35511:35578   */\n      tag_1042\n        /* \"#utility.yul\":35571:35577   */\n      dup3\n        /* \"#utility.yul\":35563:35569   */\n      dup3\n        /* \"#utility.yul\":35557:35561   */\n      dup6\n        /* \"#utility.yul\":35511:35578   */\n      tag_742\n      jump\t// in\n    tag_1042:\n        /* \"#utility.yul\":35605:35606   */\n      0x00\n        /* \"#utility.yul\":35629:35633   */\n      0x20\n        /* \"#utility.yul\":35616:35633   */\n      swap1\n      pop\n        /* \"#utility.yul\":35661:35663   */\n      0x1f\n        /* \"#utility.yul\":35653:35659   */\n      dup4\n        /* \"#utility.yul\":35650:35664   */\n      gt\n        /* \"#utility.yul\":35678:35679   */\n      0x01\n        /* \"#utility.yul\":35673:36291   */\n      dup2\n      eq\n      tag_1044\n      jumpi\n        /* \"#utility.yul\":36335:36336   */\n      0x00\n        /* \"#utility.yul\":36352:36358   */\n      dup5\n        /* \"#utility.yul\":36349:36426   */\n      iszero\n      tag_1045\n      jumpi\n        /* \"#utility.yul\":36401:36410   */\n      dup3\n        /* \"#utility.yul\":36396:36399   */\n      dup8\n        /* \"#utility.yul\":36392:36411   */\n      add\n        /* \"#utility.yul\":36386:36412   */\n      mload\n        /* \"#utility.yul\":36377:36412   */\n      swap1\n      pop\n        /* \"#utility.yul\":36349:36426   */\n    tag_1045:\n        /* \"#utility.yul\":36452:36519   */\n      tag_1046\n        /* \"#utility.yul\":36512:36518   */\n      dup6\n        /* \"#utility.yul\":36505:36510   */\n      dup3\n        /* \"#utility.yul\":36452:36519   */\n      tag_745\n      jump\t// in\n    tag_1046:\n        /* \"#utility.yul\":36446:36450   */\n      dup7\n        /* \"#utility.yul\":36439:36520   */\n      sstore\n        /* \"#utility.yul\":36308:36530   */\n      pop\n        /* \"#utility.yul\":35643:36530   */\n      jump(tag_1043)\n        /* \"#utility.yul\":35673:36291   */\n    tag_1044:\n        /* \"#utility.yul\":35725:35729   */\n      0x1f\n        /* \"#utility.yul\":35721:35730   */\n      not\n        /* \"#utility.yul\":35713:35719   */\n      dup5\n        /* \"#utility.yul\":35709:35731   */\n      and\n        /* \"#utility.yul\":35759:35796   */\n      tag_1047\n        /* \"#utility.yul\":35791:35795   */\n      dup7\n        /* \"#utility.yul\":35759:35796   */\n      tag_730\n      jump\t// in\n    tag_1047:\n        /* \"#utility.yul\":35818:35819   */\n      0x00\n        /* \"#utility.yul\":35832:36040   */\n    tag_1048:\n        /* \"#utility.yul\":35846:35853   */\n      dup3\n        /* \"#utility.yul\":35843:35844   */\n      dup2\n        /* \"#utility.yul\":35840:35854   */\n      lt\n        /* \"#utility.yul\":35832:36040   */\n      iszero\n      tag_1050\n      jumpi\n        /* \"#utility.yul\":35925:35934   */\n      dup5\n        /* \"#utility.yul\":35920:35923   */\n      dup10\n        /* \"#utility.yul\":35916:35935   */\n      add\n        /* \"#utility.yul\":35910:35936   */\n      mload\n        /* \"#utility.yul\":35902:35908   */\n      dup3\n        /* \"#utility.yul\":35895:35937   */\n      sstore\n        /* \"#utility.yul\":35976:35977   */\n      0x01\n        /* \"#utility.yul\":35968:35974   */\n      dup3\n        /* \"#utility.yul\":35964:35978   */\n      add\n        /* \"#utility.yul\":35954:35978   */\n      swap2\n      pop\n        /* \"#utility.yul\":36023:36025   */\n      0x20\n        /* \"#utility.yul\":36012:36021   */\n      dup6\n        /* \"#utility.yul\":36008:36026   */\n      add\n        /* \"#utility.yul\":35995:36026   */\n      swap5\n      pop\n        /* \"#utility.yul\":35869:35873   */\n      0x20\n        /* \"#utility.yul\":35866:35867   */\n      dup2\n        /* \"#utility.yul\":35862:35874   */\n      add\n        /* \"#utility.yul\":35857:35874   */\n      swap1\n      pop\n        /* \"#utility.yul\":35832:36040   */\n      jump(tag_1048)\n    tag_1050:\n        /* \"#utility.yul\":36068:36074   */\n      dup7\n        /* \"#utility.yul\":36059:36066   */\n      dup4\n        /* \"#utility.yul\":36056:36075   */\n      lt\n        /* \"#utility.yul\":36053:36232   */\n      iszero\n      tag_1051\n      jumpi\n        /* \"#utility.yul\":36126:36135   */\n      dup5\n        /* \"#utility.yul\":36121:36124   */\n      dup10\n        /* \"#utility.yul\":36117:36136   */\n      add\n        /* \"#utility.yul\":36111:36137   */\n      mload\n        /* \"#utility.yul\":36169:36217   */\n      tag_1052\n        /* \"#utility.yul\":36211:36215   */\n      0x1f\n        /* \"#utility.yul\":36203:36209   */\n      dup10\n        /* \"#utility.yul\":36199:36216   */\n      and\n        /* \"#utility.yul\":36188:36197   */\n      dup3\n        /* \"#utility.yul\":36169:36217   */\n      tag_744\n      jump\t// in\n    tag_1052:\n        /* \"#utility.yul\":36161:36167   */\n      dup4\n        /* \"#utility.yul\":36154:36218   */\n      sstore\n        /* \"#utility.yul\":36076:36232   */\n      pop\n        /* \"#utility.yul\":36053:36232   */\n    tag_1051:\n        /* \"#utility.yul\":36278:36279   */\n      0x01\n        /* \"#utility.yul\":36274:36275   */\n      0x02\n        /* \"#utility.yul\":36266:36272   */\n      dup9\n        /* \"#utility.yul\":36262:36276   */\n      mul\n        /* \"#utility.yul\":36258:36280   */\n      add\n        /* \"#utility.yul\":36252:36256   */\n      dup9\n        /* \"#utility.yul\":36245:36281   */\n      sstore\n        /* \"#utility.yul\":35680:36291   */\n      pop\n      pop\n      pop\n        /* \"#utility.yul\":35643:36530   */\n    tag_1043:\n      pop\n        /* \"#utility.yul\":35233:36536   */\n      pop\n      pop\n      pop\n        /* \"#utility.yul\":35141:36536   */\n      pop\n      pop\n      jump\t// out\n        /* \"#utility.yul\":36542:36722   */\n    tag_746:\n        /* \"#utility.yul\":36590:36667   */\n      0x4e487b7100000000000000000000000000000000000000000000000000000000\n        /* \"#utility.yul\":36587:36588   */\n      0x00\n        /* \"#utility.yul\":36580:36668   */\n      mstore\n        /* \"#utility.yul\":36687:36691   */\n      0x11\n        /* \"#utility.yul\":36684:36685   */\n      0x04\n        /* \"#utility.yul\":36677:36692   */\n      mstore\n        /* \"#utility.yul\":36711:36715   */\n      0x24\n        /* \"#utility.yul\":36708:36709   */\n      0x00\n        /* \"#utility.yul\":36701:36716   */\n      revert\n        /* \"#utility.yul\":36728:36961   */\n    tag_87:\n        /* \"#utility.yul\":36767:36770   */\n      0x00\n        /* \"#utility.yul\":36790:36814   */\n      tag_1055\n        /* \"#utility.yul\":36808:36813   */\n      dup3\n        /* \"#utility.yul\":36790:36814   */\n      tag_734\n      jump\t// in\n    tag_1055:\n        /* \"#utility.yul\":36781:36814   */\n      swap2\n      pop\n        /* \"#utility.yul\":36836:36902   */\n      0xffffffffffffffffffffffffffffffffffffffffffffffffffffffffffffffff\n        /* \"#utility.yul\":36829:36834   */\n      dup3\n        /* \"#utility.yul\":36826:36903   */\n      sub\n        /* \"#utility.yul\":36823:36926   */\n      tag_1056\n      jumpi\n        /* \"#utility.yul\":36906:36924   */\n      tag_1057\n      tag_746\n      jump\t// in\n    tag_1057:\n        /* \"#utility.yul\":36823:36926   */\n    tag_1056:\n        /* \"#utility.yul\":36953:36954   */\n      0x01\n        /* \"#utility.yul\":36946:36951   */\n      dup3\n        /* \"#utility.yul\":36942:36955   */\n      add\n        /* \"#utility.yul\":36935:36955   */\n      swap1\n      pop\n        /* \"#utility.yul\":36728:36961   */\n      swap2\n      swap1\n      pop\n      jump\t// out\n        /* \"#utility.yul\":36967:37115   */\n    tag_747:\n        /* \"#utility.yul\":37069:37080   */\n      0x00\n        /* \"#utility.yul\":37106:37109   */\n      dup2\n        /* \"#utility.yul\":37091:37109   */\n      swap1\n      pop\n        /* \"#utility.yul\":36967:37115   */\n      swap3\n      swap2\n      pop\n      pop\n      jump\t// out\n        /* \"#utility.yul\":37121:37511   */\n    tag_748:\n        /* \"#utility.yul\":37227:37230   */\n      0x00\n        /* \"#utility.yul\":37255:37294   */\n      tag_1060\n        /* \"#utility.yul\":37288:37293   */\n      dup3\n        /* \"#utility.yul\":37255:37294   */\n      tag_686\n      jump\t// in\n    tag_1060:\n        /* \"#utility.yul\":37310:37399   */\n      tag_1061\n        /* \"#utility.yul\":37392:37398   */\n      dup2\n        /* \"#utility.yul\":37387:37390   */\n      dup6\n        /* \"#utility.yul\":37310:37399   */\n      tag_747\n      jump\t// in\n    tag_1061:\n        /* \"#utility.yul\":37303:37399   */\n      swap4\n      pop\n        /* \"#utility.yul\":37408:37473   */\n      tag_1062\n        /* \"#utility.yul\":37466:37472   */\n      dup2\n        /* \"#utility.yul\":37461:37464   */\n      dup6\n        /* \"#utility.yul\":37454:37458   */\n      0x20\n        /* \"#utility.yul\":37447:37452   */\n      dup7\n        /* \"#utility.yul\":37443:37459   */\n      add\n        /* \"#utility.yul\":37408:37473   */\n      tag_688\n      jump\t// in\n    tag_1062:\n        /* \"#utility.yul\":37498:37504   */\n      dup1\n        /* \"#utility.yul\":37493:37496   */\n      dup5\n        /* \"#utility.yul\":37489:37505   */\n      add\n        /* \"#utility.yul\":37482:37505   */\n      swap2\n      pop\n        /* \"#utility.yul\":37231:37511   */\n      pop\n        /* \"#utility.yul\":37121:37511   */\n      swap3\n      swap2\n      pop\n      pop\n      jump\t// out\n        /* \"#utility.yul\":37517:37792   */\n    tag_204:\n        /* \"#utility.yul\":37649:37652   */\n      0x00\n        /* \"#utility.yul\":37671:37766   */\n      tag_1064\n        /* \"#utility.yul\":37762:37765   */\n      dup3\n        /* \"#utility.yul\":37753:37759   */\n      dup5\n        /* \"#utility.yul\":37671:37766   */\n      tag_748\n      jump\t// in\n    tag_1064:\n        /* \"#utility.yul\":37664:37766   */\n      swap2\n      pop\n        /* \"#utility.yul\":37783:37786   */\n      dup2\n        /* \"#utility.yul\":37776:37786   */\n      swap1\n      pop\n        /* \"#utility.yul\":37517:37792   */\n      swap3\n      swap2\n      pop\n      pop\n      jump\t// out\n        /* \"#utility.yul\":37822:38696   */\n    tag_749:\n        /* \"#utility.yul\":37925:37928   */\n      0x00\n        /* \"#utility.yul\":37962:37967   */\n      dup2\n        /* \"#utility.yul\":37956:37968   */\n      sload\n        /* \"#utility.yul\":37991:38027   */\n      tag_1066\n        /* \"#utility.yul\":38017:38026   */\n      dup2\n        /* \"#utility.yul\":37991:38027   */\n      tag_113\n      jump\t// in\n    tag_1066:\n        /* \"#utility.yul\":38043:38132   */\n      tag_1067\n        /* \"#utility.yul\":38125:38131   */\n      dup2\n        /* \"#utility.yul\":38120:38123   */\n      dup7\n        /* \"#utility.yul\":38043:38132   */\n      tag_747\n      jump\t// in\n    tag_1067:\n        /* \"#utility.yul\":38036:38132   */\n      swap5\n      pop\n        /* \"#utility.yul\":38163:38164   */\n      0x01\n        /* \"#utility.yul\":38152:38161   */\n      dup3\n        /* \"#utility.yul\":38148:38165   */\n      and\n        /* \"#utility.yul\":38179:38180   */\n      0x00\n        /* \"#utility.yul\":38174:38340   */\n      dup2\n      eq\n      tag_1069\n      jumpi\n        /* \"#utility.yul\":38354:38355   */\n      0x01\n        /* \"#utility.yul\":38349:38690   */\n      dup2\n      eq\n      tag_1070\n      jumpi\n        /* \"#utility.yul\":38141:38690   */\n      jump(tag_1068)\n        /* \"#utility.yul\":38174:38340   */\n    tag_1069:\n        /* \"#utility.yul\":38258:38262   */\n      0xff\n        /* \"#utility.yul\":38254:38263   */\n      not\n        /* \"#utility.yul\":38243:38252   */\n      dup4\n        /* \"#utility.yul\":38239:38264   */\n      and\n        /* \"#utility.yul\":38234:38237   */\n      dup7\n        /* \"#utility.yul\":38227:38265   */\n      mstore\n        /* \"#utility.yul\":38320:38326   */\n      dup2\n        /* \"#utility.yul\":38313:38327   */\n      iszero\n        /* \"#utility.yul\":38306:38328   */\n      iszero\n        /* \"#utility.yul\":38298:38304   */\n      dup3\n        /* \"#utility.yul\":38294:38329   */\n      mul\n        /* \"#utility.yul\":38289:38292   */\n      dup7\n        /* \"#utility.yul\":38285:38330   */\n      add\n        /* \"#utility.yul\":38278:38330   */\n      swap4\n      pop\n        /* \"#utility.yul\":38174:38340   */\n      jump(tag_1068)\n        /* \"#utility.yul\":38349:38690   */\n    tag_1070:\n        /* \"#utility.yul\":38416:38454   */\n      tag_1071\n        /* \"#utility.yul\":38448:38453   */\n      dup6\n        /* \"#utility.yul\":38416:38454   */\n      tag_730\n      jump\t// in\n    tag_1071:\n        /* \"#utility.yul\":38476:38477   */\n      0x00\n        /* \"#utility.yul\":38490:38644   */\n    tag_1072:\n        /* \"#utility.yul\":38504:38510   */\n      dup4\n        /* \"#utility.yul\":38501:38502   */\n      dup2\n        /* \"#utility.yul\":38498:38511   */\n      lt\n        /* \"#utility.yul\":38490:38644   */\n      iszero\n      tag_1074\n      jumpi\n        /* \"#utility.yul\":38578:38585   */\n      dup2\n        /* \"#utility.yul\":38572:38586   */\n      sload\n        /* \"#utility.yul\":38568:38569   */\n      dup2\n        /* \"#utility.yul\":38563:38566   */\n      dup10\n        /* \"#utility.yul\":38559:38570   */\n      add\n        /* \"#utility.yul\":38552:38587   */\n      mstore\n        /* \"#utility.yul\":38628:38629   */\n      0x01\n        /* \"#utility.yul\":38619:38626   */\n      dup3\n        /* \"#utility.yul\":38615:38630   */\n      add\n        /* \"#utility.yul\":38604:38630   */\n      swap2\n      pop\n        /* \"#utility.yul\":38526:38530   */\n      0x20\n        /* \"#utility.yul\":38523:38524   */\n      dup2\n        /* \"#utility.yul\":38519:38531   */\n      add\n        /* \"#utility.yul\":38514:38531   */\n      swap1\n      pop\n        /* \"#utility.yul\":38490:38644   */\n      jump(tag_1072)\n    tag_1074:\n        /* \"#utility.yul\":38673:38679   */\n      dup4\n        /* \"#utility.yul\":38668:38671   */\n      dup9\n        /* \"#utility.yul\":38664:38680   */\n      add\n        /* \"#utility.yul\":38657:38680   */\n      swap6\n      pop\n        /* \"#utility.yul\":38356:38690   */\n      pop\n      pop\n        /* \"#utility.yul\":38141:38690   */\n    tag_1068:\n      pop\n        /* \"#utility.yul\":37929:38696   */\n      pop\n      pop\n        /* \"#utility.yul\":37822:38696   */\n      swap3\n      swap2\n      pop\n      pop\n      jump\t// out\n        /* \"#utility.yul\":38702:38971   */\n    tag_209:\n        /* \"#utility.yul\":38831:38834   */\n      0x00\n        /* \"#utility.yul\":38853:38945   */\n      tag_1076\n        /* \"#utility.yul\":38941:38944   */\n      dup3\n        /* \"#utility.yul\":38932:38938   */\n      dup5\n        /* \"#utility.yul\":38853:38945   */\n      tag_749\n      jump\t// in\n    tag_1076:\n        /* \"#utility.yul\":38846:38945   */\n      swap2\n      pop\n        /* \"#utility.yul\":38962:38965   */\n      dup2\n        /* \"#utility.yul\":38955:38965   */\n      swap1\n      pop\n        /* \"#utility.yul\":38702:38971   */\n      swap3\n      swap2\n      pop\n      pop\n      jump\t// out\n        /* \"#utility.yul\":38977:39171   */\n    tag_522:\n        /* \"#utility.yul\":39017:39021   */\n      0x00\n        /* \"#utility.yul\":39037:39057   */\n      tag_1078\n        /* \"#utility.yul\":39055:39056   */\n      dup3\n        /* \"#utility.yul\":39037:39057   */\n      tag_734\n      jump\t// in\n    tag_1078:\n        /* \"#utility.yul\":39032:39057   */\n      swap2\n      pop\n        /* \"#utility.yul\":39071:39091   */\n      tag_1079\n        /* \"#utility.yul\":39089:39090   */\n      dup4\n        /* \"#utility.yul\":39071:39091   */\n      tag_734\n      jump\t// in\n    tag_1079:\n        /* \"#utility.yul\":39066:39091   */\n      swap3\n      pop\n        /* \"#utility.yul\":39115:39116   */\n      dup3\n        /* \"#utility.yul\":39112:39113   */\n      dup3\n        /* \"#utility.yul\":39108:39117   */\n      sub\n        /* \"#utility.yul\":39100:39117   */\n      swap1\n      pop\n        /* \"#utility.yul\":39139:39140   */\n      dup2\n        /* \"#utility.yul\":39133:39137   */\n      dup2\n        /* \"#utility.yul\":39130:39141   */\n      gt\n        /* \"#utility.yul\":39127:39164   */\n      iszero\n      tag_1080\n      jumpi\n        /* \"#utility.yul\":39144:39162   */\n      tag_1081\n      tag_746\n      jump\t// in\n    tag_1081:\n        /* \"#utility.yul\":39127:39164   */\n    tag_1080:\n        /* \"#utility.yul\":38977:39171   */\n      swap3\n      swap2\n      pop\n      pop\n      jump\t// out\n        /* \"#utility.yul\":39177:39368   */\n    tag_524:\n        /* \"#utility.yul\":39217:39220   */\n      0x00\n        /* \"#utility.yul\":39236:39256   */\n      tag_1083\n        /* \"#utility.yul\":39254:39255   */\n      dup3\n        /* \"#utility.yul\":39236:39256   */\n      tag_734\n      jump\t// in\n    tag_1083:\n        /* \"#utility.yul\":39231:39256   */\n      swap2\n      pop\n        /* \"#utility.yul\":39270:39290   */\n      tag_1084\n        /* \"#utility.yul\":39288:39289   */\n      dup4\n        /* \"#utility.yul\":39270:39290   */\n      tag_734\n      jump\t// in\n    tag_1084:\n        /* \"#utility.yul\":39265:39290   */\n      swap3\n      pop\n        /* \"#utility.yul\":39313:39314   */\n      dup3\n        /* \"#utility.yul\":39310:39311   */\n      dup3\n        /* \"#utility.yul\":39306:39315   */\n      add\n        /* \"#utility.yul\":39299:39315   */\n      swap1\n      pop\n        /* \"#utility.yul\":39334:39337   */\n      dup1\n        /* \"#utility.yul\":39331:39332   */\n      dup3\n        /* \"#utility.yul\":39328:39338   */\n      gt\n        /* \"#utility.yul\":39325:39361   */\n      iszero\n      tag_1085\n      jumpi\n        /* \"#utility.yul\":39341:39359   */\n      tag_1086\n      tag_746\n      jump\t// in\n    tag_1086:\n        /* \"#utility.yul\":39325:39361   */\n    tag_1085:\n        /* \"#utility.yul\":39177:39368   */\n      swap3\n      swap2\n      pop\n      pop\n      jump\t// out\n        /* \"#utility.yul\":39374:39523   */\n    tag_750:\n        /* \"#utility.yul\":39423:39429   */\n      0x00\n        /* \"#utility.yul\":39457:39462   */\n      dup2\n        /* \"#utility.yul\":39451:39463   */\n      sload\n        /* \"#utility.yul\":39441:39463   */\n      swap1\n      pop\n        /* \"#utility.yul\":39483:39516   */\n      tag_1088\n        /* \"#utility.yul\":39509:39515   */\n      dup2\n        /* \"#utility.yul\":39483:39516   */\n      tag_113\n      jump\t// in\n    tag_1088:\n        /* \"#utility.yul\":39473:39516   */\n      swap1\n      pop\n        /* \"#utility.yul\":39374:39523   */\n      swap2\n      swap1\n      pop\n      jump\t// out\n        /* \"#utility.yul\":39529:40980   */\n    tag_532:\n        /* \"#utility.yul\":39640:39643   */\n      dup2\n        /* \"#utility.yul\":39634:39638   */\n      dup2\n        /* \"#utility.yul\":39631:39644   */\n      sub\n        /* \"#utility.yul\":39628:39654   */\n      tag_1090\n      jumpi\n        /* \"#utility.yul\":39647:39652   */\n      pop\n      pop\n      jump(tag_1089)\n        /* \"#utility.yul\":39628:39654   */\n    tag_1090:\n        /* \"#utility.yul\":39678:39712   */\n      tag_1091\n        /* \"#utility.yul\":39708:39711   */\n      dup3\n        /* \"#utility.yul\":39678:39712   */\n      tag_750\n      jump\t// in\n    tag_1091:\n        /* \"#utility.yul\":39777:39795   */\n      0xffffffffffffffff\n        /* \"#utility.yul\":39769:39775   */\n      dup2\n        /* \"#utility.yul\":39766:39796   */\n      gt\n        /* \"#utility.yul\":39763:39819   */\n      iszero\n      tag_1092\n      jumpi\n        /* \"#utility.yul\":39799:39817   */\n      tag_1093\n      tag_668\n      jump\t// in\n    tag_1093:\n        /* \"#utility.yul\":39763:39819   */\n    tag_1092:\n        /* \"#utility.yul\":39843:39881   */\n      tag_1094\n        /* \"#utility.yul\":39875:39879   */\n      dup3\n        /* \"#utility.yul\":39869:39880   */\n      sload\n        /* \"#utility.yul\":39843:39881   */\n      tag_113\n      jump\t// in\n    tag_1094:\n        /* \"#utility.yul\":39928:39995   */\n      tag_1095\n        /* \"#utility.yul\":39988:39994   */\n      dup3\n        /* \"#utility.yul\":39980:39986   */\n      dup3\n        /* \"#utility.yul\":39974:39978   */\n      dup6\n        /* \"#utility.yul\":39928:39995   */\n      tag_742\n      jump\t// in\n    tag_1095:\n        /* \"#utility.yul\":40022:40023   */\n      0x00\n        /* \"#utility.yul\":40051:40053   */\n      0x1f\n        /* \"#utility.yul\":40043:40049   */\n      dup4\n        /* \"#utility.yul\":40040:40054   */\n      gt\n        /* \"#utility.yul\":40068:40069   */\n      0x01\n        /* \"#utility.yul\":40063:40735   */\n      dup2\n      eq\n      tag_1097\n      jumpi\n        /* \"#utility.yul\":40779:40780   */\n      0x00\n        /* \"#utility.yul\":40796:40802   */\n      dup5\n        /* \"#utility.yul\":40793:40870   */\n      iszero\n      tag_1098\n      jumpi\n        /* \"#utility.yul\":40845:40854   */\n      dup3\n        /* \"#utility.yul\":40840:40843   */\n      dup8\n        /* \"#utility.yul\":40836:40855   */\n      add\n        /* \"#utility.yul\":40830:40856   */\n      sload\n        /* \"#utility.yul\":40821:40856   */\n      swap1\n      pop\n        /* \"#utility.yul\":40793:40870   */\n    tag_1098:\n        /* \"#utility.yul\":40896:40963   */\n      tag_1099\n        /* \"#utility.yul\":40956:40962   */\n      dup6\n        /* \"#utility.yul\":40949:40954   */\n      dup3\n        /* \"#utility.yul\":40896:40963   */\n      tag_745\n      jump\t// in\n    tag_1099:\n        /* \"#utility.yul\":40890:40894   */\n      dup7\n        /* \"#utility.yul\":40883:40964   */\n      sstore\n        /* \"#utility.yul\":40752:40974   */\n      pop\n        /* \"#utility.yul\":40033:40974   */\n      jump(tag_1096)\n        /* \"#utility.yul\":40063:40735   */\n    tag_1097:\n        /* \"#utility.yul\":40115:40119   */\n      0x1f\n        /* \"#utility.yul\":40111:40120   */\n      not\n        /* \"#utility.yul\":40103:40109   */\n      dup5\n        /* \"#utility.yul\":40099:40121   */\n      and\n        /* \"#utility.yul\":40141:40177   */\n      tag_1100\n        /* \"#utility.yul\":40173:40176   */\n      dup8\n        /* \"#utility.yul\":40141:40177   */\n      tag_730\n      jump\t// in\n    tag_1100:\n        /* \"#utility.yul\":40134:40177   */\n      swap7\n      pop\n        /* \"#utility.yul\":40204:40241   */\n      tag_1101\n        /* \"#utility.yul\":40236:40240   */\n      dup7\n        /* \"#utility.yul\":40204:40241   */\n      tag_730\n      jump\t// in\n    tag_1101:\n        /* \"#utility.yul\":40263:40264   */\n      0x00\n        /* \"#utility.yul\":40277:40484   */\n    tag_1102:\n        /* \"#utility.yul\":40291:40298   */\n      dup3\n        /* \"#utility.yul\":40288:40289   */\n      dup2\n        /* \"#utility.yul\":40285:40299   */\n      lt\n        /* \"#utility.yul\":40277:40484   */\n      iszero\n      tag_1104\n      jumpi\n        /* \"#utility.yul\":40370:40379   */\n      dup5\n        /* \"#utility.yul\":40365:40368   */\n      dup10\n        /* \"#utility.yul\":40361:40380   */\n      add\n        /* \"#utility.yul\":40355:40381   */\n      sload\n        /* \"#utility.yul\":40347:40353   */\n      dup3\n        /* \"#utility.yul\":40340:40382   */\n      sstore\n        /* \"#utility.yul\":40421:40422   */\n      0x01\n        /* \"#utility.yul\":40413:40419   */\n      dup3\n        /* \"#utility.yul\":40409:40423   */\n      add\n        /* \"#utility.yul\":40399:40423   */\n      swap2\n      pop\n        /* \"#utility.yul\":40468:40469   */\n      0x01\n        /* \"#utility.yul\":40457:40466   */\n      dup6\n        /* \"#utility.yul\":40453:40470   */\n      add\n        /* \"#utility.yul\":40440:40470   */\n      swap5\n      pop\n        /* \"#utility.yul\":40314:40318   */\n      0x20\n        /* \"#utility.yul\":40311:40312   */\n      dup2\n        /* \"#utility.yul\":40307:40319   */\n      add\n        /* \"#utility.yul\":40302:40319   */\n      swap1\n      pop\n        /* \"#utility.yul\":40277:40484   */\n      jump(tag_1102)\n    tag_1104:\n        /* \"#utility.yul\":40512:40518   */\n      dup7\n        /* \"#utility.yul\":40503:40510   */\n      dup4\n        /* \"#utility.yul\":40500:40519   */\n      lt\n        /* \"#utility.yul\":40497:40676   */\n      iszero\n      tag_1105\n      jumpi\n        /* \"#utility.yul\":40570:40579   */\n      dup5\n        /* \"#utility.yul\":40565:40568   */\n      dup10\n        /* \"#utility.yul\":40561:40580   */\n      add\n        /* \"#utility.yul\":40555:40581   */\n      sload\n        /* \"#utility.yul\":40613:40661   */\n      tag_1106\n        /* \"#utility.yul\":40655:40659   */\n      0x1f\n        /* \"#utility.yul\":40647:40653   */\n      dup10\n        /* \"#utility.yul\":40643:40660   */\n      and\n        /* \"#utility.yul\":40632:40641   */\n      dup3\n        /* \"#utility.yul\":40613:40661   */\n      tag_744\n      jump\t// in\n    tag_1106:\n        /* \"#utility.yul\":40605:40611   */\n      dup4\n        /* \"#utility.yul\":40598:40662   */\n      sstore\n        /* \"#utility.yul\":40520:40676   */\n      pop\n        /* \"#utility.yul\":40497:40676   */\n    tag_1105:\n        /* \"#utility.yul\":40722:40723   */\n      0x01\n        /* \"#utility.yul\":40718:40719   */\n      0x02\n        /* \"#utility.yul\":40710:40716   */\n      dup9\n        /* \"#utility.yul\":40706:40720   */\n      mul\n        /* \"#utility.yul\":40702:40724   */\n      add\n        /* \"#utility.yul\":40696:40700   */\n      dup9\n        /* \"#utility.yul\":40689:40725   */\n      sstore\n        /* \"#utility.yul\":40070:40735   */\n      pop\n      pop\n      pop\n        /* \"#utility.yul\":40033:40974   */\n    tag_1096:\n      pop\n        /* \"#utility.yul\":39618:40980   */\n      pop\n      pop\n      pop\n        /* \"#utility.yul\":39529:40980   */\n      pop\n      pop\n    tag_1089:\n      jump\t// out\n        /* \"#utility.yul\":40986:41166   */\n    tag_538:\n        /* \"#utility.yul\":41034:41111   */\n      0x4e487b7100000000000000000000000000000000000000000000000000000000\n        /* \"#utility.yul\":41031:41032   */\n      0x00\n        /* \"#utility.yul\":41024:41112   */\n      mstore\n        /* \"#utility.yul\":41131:41135   */\n      0x31\n        /* \"#utility.yul\":41128:41129   */\n      0x04\n        /* \"#utility.yul\":41121:41136   */\n      mstore\n        /* \"#utility.yul\":41155:41159   */\n      0x24\n        /* \"#utility.yul\":41152:41153   */\n      0x00\n        /* \"#utility.yul\":41145:41160   */\n      revert\n\n    auxdata: 0xa26469706673582212204c7f424e3975c07a03732579c112de9a96ba3ca1a915c1b4af0f96069060018a64736f6c63430008120033\n}\n",
				"bytecode": {
					"linkReferences": {},
					"object": "608060405234801561001057600080fd5b50614803806100206000396000f3fe608060405234801561001057600080fd5b50600436106100cf5760003560e01c80634f0d4dc41161008c578063893acf2d11610066578063893acf2d146101da578063a093271e146101f8578063a28486b614610214578063ff49a76414610232576100cf565b80634f0d4dc414610184578063633083f7146101a05780637dfcc71a146101bc576100cf565b8063038ddbb3146100d457806309c650ba146100f057806309f899b91461010e5780631ec407cc1461012c57806327dfb8fa14610148578063366982ca14610166575b600080fd5b6100ee60048036038101906100e991906137cd565b61024e565b005b6100f86104e4565b6040516101059190613bdd565b60405180910390f35b61011661096f565b6040516101239190613d39565b60405180910390f35b61014660048036038101906101419190613d5b565b610d32565b005b610150610fe4565b60405161015d9190613bdd565b60405180910390f35b61016e61146f565b60405161017b9190613bdd565b60405180910390f35b61019e60048036038101906101999190613e32565b6118fa565b005b6101ba60048036038101906101b59190613e32565b611aca565b005b6101c4611c9a565b6040516101d19190614059565b60405180910390f35b6101e2611eaf565b6040516101ef919061419b565b60405180910390f35b610212600480360381019061020d9190613e32565b6120c4565b005b61021c6123b6565b6040516102299190613bdd565b60405180910390f35b61024c60048036038101906102479190613e32565b612841565b005b60005b8251811015610396576001604051806060016040528085848151811061027a576102796141bd565b5b6020026020010151600081518110610295576102946141bd565b5b602002602001015181526020018584815181106102b5576102b46141bd565b5b60200260200101516001815181106102d0576102cf6141bd565b5b602002602001015181526020018584815181106102f0576102ef6141bd565b5b602002602001015160028151811061030b5761030a6141bd565b5b6020026020010151815250908060018154018082558091505060019003906000526020600020906003020160009091909190915060008201518160000190816103549190614402565b50602082015181600101908161036a9190614402565b5060408201518160020190816103809190614402565b505050808061038e90614503565b915050610251565b5060005b81518110156104df57600360405180606001604052808484815181106103c3576103c26141bd565b5b60200260200101516000815181106103de576103dd6141bd565b5b602002602001015181526020018484815181106103fe576103fd6141bd565b5b6020026020010151600181518110610419576104186141bd565b5b60200260200101518152602001848481518110610439576104386141bd565b5b6020026020010151600281518110610454576104536141bd565b5b60200260200101518152509080600181540180825580915050600190039060005260206000209060030201600090919091909150600082015181600001908161049d9190614402565b5060208201518160010190816104b39190614402565b5060408201518160020190816104c99190614402565b50505080806104d790614503565b91505061039a565b505050565b60606006805480602002602001604051908101604052809291908181526020016000905b8282101561096657838290600052602060002090600602016040518060e001604052908160008201805461053b9061421b565b80601f01602080910402602001604051908101604052809291908181526020018280546105679061421b565b80156105b45780601f10610589576101008083540402835291602001916105b4565b820191906000526020600020905b81548152906001019060200180831161059757829003601f168201915b505050505081526020016001820180546105cd9061421b565b80601f01602080910402602001604051908101604052809291908181526020018280546105f99061421b565b80156106465780601f1061061b57610100808354040283529160200191610646565b820191906000526020600020905b81548152906001019060200180831161062957829003601f168201915b5050505050815260200160028201805480602002602001604051908101604052809291908181526020016000905b8282101561076757838290600052602060002001805480602002602001604051908101604052809291908181526020016000905b828210156107545783829060005260206000200180546106c79061421b565b80601f01602080910402602001604051908101604052809291908181526020018280546106f39061421b565b80156107405780601f1061071557610100808354040283529160200191610740565b820191906000526020600020905b81548152906001019060200180831161072357829003601f168201915b5050505050815260200190600101906106a8565b5050505081526020019060010190610674565b50505050815260200160038201805480602002602001604051908101604052809291908181526020016000905b8282101561088757838290600052602060002001805480602002602001604051908101604052809291908181526020016000905b828210156108745783829060005260206000200180546107e79061421b565b80601f01602080910402602001604051908101604052809291908181526020018280546108139061421b565b80156108605780601f1061083557610100808354040283529160200191610860565b820191906000526020600020905b81548152906001019060200180831161084357829003601f168201915b5050505050815260200190600101906107c8565b5050505081526020019060010190610794565b50505050815260200160048201805461089f9061421b565b80601f01602080910402602001604051908101604052809291908181526020018280546108cb9061421b565b80156109185780601f106108ed57610100808354040283529160200191610918565b820191906000526020600020905b8154815290600101906020018083116108fb57829003601f168201915b505050505081526020016005820160009054906101000a900460ff161515151581526020016005820160019054906101000a900460ff16151515158152505081526020019060010190610508565b50505050905090565b60606004805480602002602001604051908101604052809291908181526020016000905b82821015610d2957838290600052602060002090600402016040518060800160405290816000820180546109c69061421b565b80601f01602080910402602001604051908101604052809291908181526020018280546109f29061421b565b8015610a3f5780601f10610a1457610100808354040283529160200191610a3f565b820191906000526020600020905b815481529060010190602001808311610a2257829003601f168201915b50505050508152602001600182018054610a589061421b565b80601f0160208091040260200160405190810160405280929190818152602001828054610a849061421b565b8015610ad15780601f10610aa657610100808354040283529160200191610ad1565b820191906000526020600020905b815481529060010190602001808311610ab457829003601f168201915b5050505050815260200160028201805480602002602001604051908101604052809291908181526020016000905b82821015610bf257838290600052602060002001805480602002602001604051908101604052809291908181526020016000905b82821015610bdf578382906000526020600020018054610b529061421b565b80601f0160208091040260200160405190810160405280929190818152602001828054610b7e9061421b565b8015610bcb5780601f10610ba057610100808354040283529160200191610bcb565b820191906000526020600020905b815481529060010190602001808311610bae57829003601f168201915b505050505081526020019060010190610b33565b5050505081526020019060010190610aff565b50505050815260200160038201805480602002602001604051908101604052809291908181526020016000905b82821015610d1257838290600052602060002001805480602002602001604051908101604052809291908181526020016000905b82821015610cff578382906000526020600020018054610c729061421b565b80601f0160208091040260200160405190810160405280929190818152602001828054610c9e9061421b565b8015610ceb5780601f10610cc057610100808354040283529160200191610ceb565b820191906000526020600020905b815481529060010190602001808311610cce57829003601f168201915b505050505081526020019060010190610c53565b5050505081526020019060010190610c1f565b505050508152505081526020019060010190610993565b50505050905090565b600460405180608001604052808681526020018581526020018481526020018381525090806001815401808255809150506001900390600052602060002090600402016000909190919091506000820151816000019081610d939190614402565b506020820151816001019081610da99190614402565b506040820151816002019080519060200190610dc6929190613250565b506060820151816003019080519060200190610de3929190613250565b50505060005b600180549050811015610ee15760005b8351811015610ecd57838181518110610e1557610e146141bd565b5b6020026020010151600081518110610e3057610e2f6141bd565b5b6020026020010151604051602001610e489190614587565b6040516020818303038152906040528051906020012060018381548110610e7257610e716141bd565b5b9060005260206000209060030201600001604051602001610e939190614621565b6040516020818303038152906040528051906020012003610eba57610eb9826001612ca3565b5b8080610ec590614503565b915050610df9565b508080610ed990614503565b915050610de9565b5060005b600380549050811015610fdd5760005b8251811015610fc957828181518110610f1157610f106141bd565b5b6020026020010151600081518110610f2c57610f2b6141bd565b5b6020026020010151604051602001610f449190614587565b6040516020818303038152906040528051906020012060038381548110610f6e57610f6d6141bd565b5b9060005260206000209060030201600001604051602001610f8f9190614621565b6040516020818303038152906040528051906020012003610fb657610fb5826003612dd0565b5b8080610fc190614503565b915050610ef5565b508080610fd590614503565b915050610ee5565b5050505050565b60606005805480602002602001604051908101604052809291908181526020016000905b8282101561146657838290600052602060002090600602016040518060e001604052908160008201805461103b9061421b565b80601f01602080910402602001604051908101604052809291908181526020018280546110679061421b565b80156110b45780601f10611089576101008083540402835291602001916110b4565b820191906000526020600020905b81548152906001019060200180831161109757829003601f168201915b505050505081526020016001820180546110cd9061421b565b80601f01602080910402602001604051908101604052809291908181526020018280546110f99061421b565b80156111465780601f1061111b57610100808354040283529160200191611146565b820191906000526020600020905b81548152906001019060200180831161112957829003601f168201915b5050505050815260200160028201805480602002602001604051908101604052809291908181526020016000905b8282101561126757838290600052602060002001805480602002602001604051908101604052809291908181526020016000905b828210156112545783829060005260206000200180546111c79061421b565b80601f01602080910402602001604051908101604052809291908181526020018280546111f39061421b565b80156112405780601f1061121557610100808354040283529160200191611240565b820191906000526020600020905b81548152906001019060200180831161122357829003601f168201915b5050505050815260200190600101906111a8565b5050505081526020019060010190611174565b50505050815260200160038201805480602002602001604051908101604052809291908181526020016000905b8282101561138757838290600052602060002001805480602002602001604051908101604052809291908181526020016000905b828210156113745783829060005260206000200180546112e79061421b565b80601f01602080910402602001604051908101604052809291908181526020018280546113139061421b565b80156113605780601f1061133557610100808354040283529160200191611360565b820191906000526020600020905b81548152906001019060200180831161134357829003601f168201915b5050505050815260200190600101906112c8565b5050505081526020019060010190611294565b50505050815260200160048201805461139f9061421b565b80601f01602080910402602001604051908101604052809291908181526020018280546113cb9061421b565b80156114185780601f106113ed57610100808354040283529160200191611418565b820191906000526020600020905b8154815290600101906020018083116113fb57829003601f168201915b505050505081526020016005820160009054906101000a900460ff161515151581526020016005820160019054906101000a900460ff16151515158152505081526020019060010190611008565b50505050905090565b60606007805480602002602001604051908101604052809291908181526020016000905b828210156118f157838290600052602060002090600602016040518060e00160405290816000820180546114c69061421b565b80601f01602080910402602001604051908101604052809291908181526020018280546114f29061421b565b801561153f5780601f106115145761010080835404028352916020019161153f565b820191906000526020600020905b81548152906001019060200180831161152257829003601f168201915b505050505081526020016001820180546115589061421b565b80601f01602080910402602001604051908101604052809291908181526020018280546115849061421b565b80156115d15780601f106115a6576101008083540402835291602001916115d1565b820191906000526020600020905b8154815290600101906020018083116115b457829003601f168201915b5050505050815260200160028201805480602002602001604051908101604052809291908181526020016000905b828210156116f257838290600052602060002001805480602002602001604051908101604052809291908181526020016000905b828210156116df5783829060005260206000200180546116529061421b565b80601f016020809104026020016040519081016040528092919081815260200182805461167e9061421b565b80156116cb5780601f106116a0576101008083540402835291602001916116cb565b820191906000526020600020905b8154815290600101906020018083116116ae57829003601f168201915b505050505081526020019060010190611633565b50505050815260200190600101906115ff565b50505050815260200160038201805480602002602001604051908101604052809291908181526020016000905b8282101561181257838290600052602060002001805480602002602001604051908101604052809291908181526020016000905b828210156117ff5783829060005260206000200180546117729061421b565b80601f016020809104026020016040519081016040528092919081815260200182805461179e9061421b565b80156117eb5780601f106117c0576101008083540402835291602001916117eb565b820191906000526020600020905b8154815290600101906020018083116117ce57829003601f168201915b505050505081526020019060010190611753565b505050508152602001906001019061171f565b50505050815260200160048201805461182a9061421b565b80601f01602080910402602001604051908101604052809291908181526020018280546118569061421b565b80156118a35780601f10611878576101008083540402835291602001916118a3565b820191906000526020600020905b81548152906001019060200180831161188657829003601f168201915b505050505081526020016005820160009054906101000a900460ff161515151581526020016005820160019054906101000a900460ff16151515158152505081526020019060010190611493565b50505050905090565b60066040518060e0016040528087815260200186815260200185815260200184815260200183815260200160011515815260200160001515815250908060018154018082558091505060019003906000526020600020906006020160009091909190915060008201518160000190816119739190614402565b5060208201518160010190816119899190614402565b5060408201518160020190805190602001906119a6929190613250565b5060608201518160030190805190602001906119c3929190613250565b5060808201518160040190816119d99190614402565b5060a08201518160050160006101000a81548160ff02191690831515021790555060c08201518160050160016101000a81548160ff021916908315150217905550505060005b600580549050811015611ac25760058181548110611a4057611a3f6141bd565b5b9060005260206000209060060201600001604051602001611a619190614621565b6040516020818303038152906040528051906020012086604051602001611a889190614587565b6040516020818303038152906040528051906020012003611aaf57611aae816005612efd565b5b8080611aba90614503565b915050611a1f565b505050505050565b60056040518060e001604052808781526020018681526020018581526020018481526020018381526020016000151581526020016000151581525090806001815401808255809150506001900390600052602060002090600602016000909190919091506000820151816000019081611b439190614402565b506020820151816001019081611b599190614402565b506040820151816002019080519060200190611b76929190613250565b506060820151816003019080519060200190611b93929190613250565b506080820151816004019081611ba99190614402565b5060a08201518160050160006101000a81548160ff02191690831515021790555060c08201518160050160016101000a81548160ff021916908315150217905550505060005b600480549050811015611c925760048181548110611c1057611c0f6141bd565b5b9060005260206000209060040201600001604051602001611c319190614621565b6040516020818303038152906040528051906020012086604051602001611c589190614587565b6040516020818303038152906040528051906020012003611c7f57611c7e8160046130fa565b5b8080611c8a90614503565b915050611bef565b505050505050565b60606003805480602002602001604051908101604052809291908181526020016000905b82821015611ea65783829060005260206000209060030201604051806060016040529081600082018054611cf19061421b565b80601f0160208091040260200160405190810160405280929190818152602001828054611d1d9061421b565b8015611d6a5780601f10611d3f57610100808354040283529160200191611d6a565b820191906000526020600020905b815481529060010190602001808311611d4d57829003601f168201915b50505050508152602001600182018054611d839061421b565b80601f0160208091040260200160405190810160405280929190818152602001828054611daf9061421b565b8015611dfc5780601f10611dd157610100808354040283529160200191611dfc565b820191906000526020600020905b815481529060010190602001808311611ddf57829003601f168201915b50505050508152602001600282018054611e159061421b565b80601f0160208091040260200160405190810160405280929190818152602001828054611e419061421b565b8015611e8e5780601f10611e6357610100808354040283529160200191611e8e565b820191906000526020600020905b815481529060010190602001808311611e7157829003601f168201915b50505050508152505081526020019060010190611cbe565b50505050905090565b60606001805480602002602001604051908101604052809291908181526020016000905b828210156120bb5783829060005260206000209060030201604051806060016040529081600082018054611f069061421b565b80601f0160208091040260200160405190810160405280929190818152602001828054611f329061421b565b8015611f7f5780601f10611f5457610100808354040283529160200191611f7f565b820191906000526020600020905b815481529060010190602001808311611f6257829003601f168201915b50505050508152602001600182018054611f989061421b565b80601f0160208091040260200160405190810160405280929190818152602001828054611fc49061421b565b80156120115780601f10611fe657610100808354040283529160200191612011565b820191906000526020600020905b815481529060010190602001808311611ff457829003601f168201915b5050505050815260200160028201805461202a9061421b565b80601f01602080910402602001604051908101604052809291908181526020018280546120569061421b565b80156120a35780601f10612078576101008083540402835291602001916120a3565b820191906000526020600020905b81548152906001019060200180831161208657829003601f168201915b50505050508152505081526020019060010190611ed3565b50505050905090565b60086040518060e00160405280878152602001868152602001858152602001848152602001838152602001600115158152602001600115158152509080600181540180825580915050600190039060005260206000209060060201600090919091909150600082015181600001908161213d9190614402565b5060208201518160010190816121539190614402565b506040820151816002019080519060200190612170929190613250565b50606082015181600301908051906020019061218d929190613250565b5060808201518160040190816121a39190614402565b5060a08201518160050160006101000a81548160ff02191690831515021790555060c08201518160050160016101000a81548160ff021916908315150217905550505060005b60068054905081101561228c576006818154811061220a576122096141bd565b5b906000526020600020906006020160000160405160200161222b9190614621565b60405160208183030381529060405280519060200120866040516020016122529190614587565b604051602081830303815290604052805190602001200361227957612278816006612efd565b5b808061228490614503565b9150506121e9565b5060066040518060e0016040528087815260200186815260200185815260200184815260200183815260200160011515815260200160011515815250908060018154018082558091505060019003906000526020600020906006020160009091909190915060008201518160000190816123069190614402565b50602082015181600101908161231c9190614402565b506040820151816002019080519060200190612339929190613250565b506060820151816003019080519060200190612356929190613250565b50608082015181600401908161236c9190614402565b5060a08201518160050160006101000a81548160ff02191690831515021790555060c08201518160050160016101000a81548160ff02191690831515021790555050505050505050565b60606008805480602002602001604051908101604052809291908181526020016000905b8282101561283857838290600052602060002090600602016040518060e001604052908160008201805461240d9061421b565b80601f01602080910402602001604051908101604052809291908181526020018280546124399061421b565b80156124865780601f1061245b57610100808354040283529160200191612486565b820191906000526020600020905b81548152906001019060200180831161246957829003601f168201915b5050505050815260200160018201805461249f9061421b565b80601f01602080910402602001604051908101604052809291908181526020018280546124cb9061421b565b80156125185780601f106124ed57610100808354040283529160200191612518565b820191906000526020600020905b8154815290600101906020018083116124fb57829003601f168201915b5050505050815260200160028201805480602002602001604051908101604052809291908181526020016000905b8282101561263957838290600052602060002001805480602002602001604051908101604052809291908181526020016000905b828210156126265783829060005260206000200180546125999061421b565b80601f01602080910402602001604051908101604052809291908181526020018280546125c59061421b565b80156126125780601f106125e757610100808354040283529160200191612612565b820191906000526020600020905b8154815290600101906020018083116125f557829003601f168201915b50505050508152602001906001019061257a565b5050505081526020019060010190612546565b50505050815260200160038201805480602002602001604051908101604052809291908181526020016000905b8282101561275957838290600052602060002001805480602002602001604051908101604052809291908181526020016000905b828210156127465783829060005260206000200180546126b99061421b565b80601f01602080910402602001604051908101604052809291908181526020018280546126e59061421b565b80156127325780601f1061270757610100808354040283529160200191612732565b820191906000526020600020905b81548152906001019060200180831161271557829003601f168201915b50505050508152602001906001019061269a565b5050505081526020019060010190612666565b5050505081526020016004820180546127719061421b565b80601f016020809104026020016040519081016040528092919081815260200182805461279d9061421b565b80156127ea5780601f106127bf576101008083540402835291602001916127ea565b820191906000526020600020905b8154815290600101906020018083116127cd57829003601f168201915b505050505081526020016005820160009054906101000a900460ff161515151581526020016005820160019054906101000a900460ff161515151581525050815260200190600101906123da565b50505050905090565b60076040518060e0016040528087815260200186815260200185815260200184815260200183815260200160001515815260200160001515815250908060018154018082558091505060019003906000526020600020906006020160009091909190915060008201518160000190816128ba9190614402565b5060208201518160010190816128d09190614402565b5060408201518160020190805190602001906128ed929190613250565b50606082015181600301908051906020019061290a929190613250565b5060808201518160040190816129209190614402565b5060a08201518160050160006101000a81548160ff02191690831515021790555060c08201518160050160016101000a81548160ff021916908315150217905550505060005b600580549050811015612a095760058181548110612987576129866141bd565b5b90600052602060002090600602016000016040516020016129a89190614621565b60405160208183030381529060405280519060200120866040516020016129cf9190614587565b60405160208183030381529060405280519060200120036129f6576129f5816005612efd565b5b8080612a0190614503565b915050612966565b5060005b8351811015612b525760016040518060600160405280868481518110612a3657612a356141bd565b5b6020026020010151600081518110612a5157612a506141bd565b5b60200260200101518152602001868481518110612a7157612a706141bd565b5b6020026020010151600181518110612a8c57612a8b6141bd565b5b60200260200101518152602001868481518110612aac57612aab6141bd565b5b6020026020010151600281518110612ac757612ac66141bd565b5b602002602001015181525090806001815401808255809150506001900390600052602060002090600302016000909190919091506000820151816000019081612b109190614402565b506020820151816001019081612b269190614402565b506040820151816002019081612b3c9190614402565b5050508080612b4a90614503565b915050612a0d565b5060005b8251811015612c9b5760036040518060600160405280858481518110612b7f57612b7e6141bd565b5b6020026020010151600081518110612b9a57612b996141bd565b5b60200260200101518152602001858481518110612bba57612bb96141bd565b5b6020026020010151600181518110612bd557612bd46141bd565b5b60200260200101518152602001858481518110612bf557612bf46141bd565b5b6020026020010151600281518110612c1057612c0f6141bd565b5b602002602001015181525090806001815401808255809150506001900390600052602060002090600302016000909190919091506000820151816000019081612c599190614402565b506020820151816001019081612c6f9190614402565b506040820151816002019081612c859190614402565b5050508080612c9390614503565b915050612b56565b505050505050565b8080549050821015612dcc5760008290505b60018280549050612cc69190614638565b811015612d705781600182612cdb919061466c565b81548110612cec57612ceb6141bd565b5b9060005260206000209060030201828281548110612d0d57612d0c6141bd565b5b906000526020600020906003020160008201816000019081612d2f91906146b6565b5060018201816001019081612d4491906146b6565b5060028201816002019081612d5991906146b6565b509050508080612d6890614503565b915050612cb5565b5080805480612d8257612d8161479e565b5b600190038181906000526020600020906003020160008082016000612da791906132b0565b600182016000612db791906132b0565b600282016000612dc791906132b0565b505090555b5050565b8080549050821015612ef95760008290505b60018280549050612df39190614638565b811015612e9d5781600182612e08919061466c565b81548110612e1957612e186141bd565b5b9060005260206000209060030201828281548110612e3a57612e396141bd565b5b906000526020600020906003020160008201816000019081612e5c91906146b6565b5060018201816001019081612e7191906146b6565b5060028201816002019081612e8691906146b6565b509050508080612e9590614503565b915050612de2565b5080805480612eaf57612eae61479e565b5b600190038181906000526020600020906003020160008082016000612ed491906132b0565b600182016000612ee491906132b0565b600282016000612ef491906132b0565b505090555b5050565b80805490508210156130f65760008290505b60018280549050612f209190614638565b8110156130525781600182612f35919061466c565b81548110612f4657612f456141bd565b5b9060005260206000209060060201828281548110612f6757612f666141bd565b5b906000526020600020906006020160008201816000019081612f8991906146b6565b5060018201816001019081612f9e91906146b6565b506002820181600201908054612fb59291906132f0565b506003820181600301908054612fcc9291906132f0565b5060048201816004019081612fe191906146b6565b506005820160009054906101000a900460ff168160050160006101000a81548160ff0219169083151502179055506005820160019054906101000a900460ff168160050160016101000a81548160ff021916908315150217905550905050808061304a90614503565b915050612f0f565b50808054806130645761306361479e565b5b60019003818190600052602060002090600602016000808201600061308991906132b0565b60018201600061309991906132b0565b6002820160006130a9919061334f565b6003820160006130b9919061334f565b6004820160006130c991906132b0565b6005820160006101000a81549060ff02191690556005820160016101000a81549060ff0219169055505090555b5050565b808054905082101561324c5760008290505b6001828054905061311d9190614638565b8110156131e05781600182613132919061466c565b81548110613143576131426141bd565b5b9060005260206000209060040201828281548110613164576131636141bd565b5b90600052602060002090600402016000820181600001908161318691906146b6565b506001820181600101908161319b91906146b6565b5060028201816002019080546131b29291906132f0565b5060038201816003019080546131c99291906132f0565b5090505080806131d890614503565b91505061310c565b50808054806131f2576131f161479e565b5b60019003818190600052602060002090600402016000808201600061321791906132b0565b60018201600061322791906132b0565b600282016000613237919061334f565b600382016000613247919061334f565b505090555b5050565b82805482825590600052602060002090810192821561329f579160200282015b8281111561329e57825182908051906020019061328e929190613370565b5091602001919060010190613270565b5b5090506132ac91906133c9565b5090565b5080546132bc9061421b565b6000825580601f106132ce57506132ed565b601f0160209004906000526020600020908101906132ec91906133ed565b5b50565b82805482825590600052602060002090810192821561333e5760005260206000209182015b8281111561333d57828290805461332d92919061340a565b5091600101919060010190613315565b5b50905061334b91906133c9565b5090565b508054600082559060005260206000209081019061336d91906133c9565b50565b8280548282559060005260206000209081019282156133b8579160200282015b828111156133b75782518290816133a79190614402565b5091602001919060010190613390565b5b5090506133c59190613467565b5090565b5b808211156133e957600081816133e0919061348b565b506001016133ca565b5090565b5b808211156134065760008160009055506001016133ee565b5090565b8280548282559060005260206000209081019282156134565760005260206000209182015b82811115613455578282908161344591906146b6565b509160010191906001019061342f565b5b5090506134639190613467565b5090565b5b80821115613487576000818161347e91906132b0565b50600101613468565b5090565b50805460008255906000526020600020908101906134a99190613467565b50565b6000604051905090565b600080fd5b600080fd5b600080fd5b6000601f19601f8301169050919050565b7f4e487b7100000000000000000000000000000000000000000000000000000000600052604160045260246000fd5b61350e826134c5565b810181811067ffffffffffffffff8211171561352d5761352c6134d6565b5b80604052505050565b60006135406134ac565b905061354c8282613505565b919050565b600067ffffffffffffffff82111561356c5761356b6134d6565b5b602082029050602081019050919050565b600080fd5b600067ffffffffffffffff82111561359d5761359c6134d6565b5b602082029050602081019050919050565b600080fd5b600067ffffffffffffffff8211156135ce576135cd6134d6565b5b6135d7826134c5565b9050602081019050919050565b82818337600083830152505050565b6000613606613601846135b3565b613536565b905082815260208101848484011115613622576136216135ae565b5b61362d8482856135e4565b509392505050565b600082601f83011261364a576136496134c0565b5b813561365a8482602086016135f3565b91505092915050565b600061367661367184613582565b613536565b905080838252602082019050602084028301858111156136995761369861357d565b5b835b818110156136e057803567ffffffffffffffff8111156136be576136bd6134c0565b5b8086016136cb8982613635565b8552602085019450505060208101905061369b565b5050509392505050565b600082601f8301126136ff576136fe6134c0565b5b813561370f848260208601613663565b91505092915050565b600061372b61372684613551565b613536565b9050808382526020820190506020840283018581111561374e5761374d61357d565b5b835b8181101561379557803567ffffffffffffffff811115613773576137726134c0565b5b80860161378089826136ea565b85526020850194505050602081019050613750565b5050509392505050565b600082601f8301126137b4576137b36134c0565b5b81356137c4848260208601613718565b91505092915050565b600080604083850312156137e4576137e36134b6565b5b600083013567ffffffffffffffff811115613802576138016134bb565b5b61380e8582860161379f565b925050602083013567ffffffffffffffff81111561382f5761382e6134bb565b5b61383b8582860161379f565b9150509250929050565b600081519050919050565b600082825260208201905092915050565b6000819050602082019050919050565b600081519050919050565b600082825260208201905092915050565b60005b838110156138ab578082015181840152602081019050613890565b60008484015250505050565b60006138c282613871565b6138cc818561387c565b93506138dc81856020860161388d565b6138e5816134c5565b840191505092915050565b600081519050919050565b600082825260208201905092915050565b6000819050602082019050919050565b600081519050919050565b600082825260208201905092915050565b6000819050602082019050919050565b600061395483836138b7565b905092915050565b6000602082019050919050565b60006139748261391c565b61397e8185613927565b93508360208202850161399085613938565b8060005b858110156139cc57848403895281516139ad8582613948565b94506139b88361395c565b925060208a01995050600181019050613994565b50829750879550505050505092915050565b60006139ea8383613969565b905092915050565b6000602082019050919050565b6000613a0a826138f0565b613a1481856138fb565b935083602082028501613a268561390c565b8060005b85811015613a625784840389528151613a4385826139de565b9450613a4e836139f2565b925060208a01995050600181019050613a2a565b50829750879550505050505092915050565b60008115159050919050565b613a8981613a74565b82525050565b600060e0830160008301518482036000860152613aac82826138b7565b91505060208301518482036020860152613ac682826138b7565b91505060408301518482036040860152613ae082826139ff565b91505060608301518482036060860152613afa82826139ff565b91505060808301518482036080860152613b1482826138b7565b91505060a0830151613b2960a0860182613a80565b5060c0830151613b3c60c0860182613a80565b508091505092915050565b6000613b538383613a8f565b905092915050565b6000602082019050919050565b6000613b7382613845565b613b7d8185613850565b935083602082028501613b8f85613861565b8060005b85811015613bcb5784840389528151613bac8582613b47565b9450613bb783613b5b565b925060208a01995050600181019050613b93565b50829750879550505050505092915050565b60006020820190508181036000830152613bf78184613b68565b905092915050565b600081519050919050565b600082825260208201905092915050565b6000819050602082019050919050565b60006080830160008301518482036000860152613c4882826138b7565b91505060208301518482036020860152613c6282826138b7565b91505060408301518482036040860152613c7c82826139ff565b91505060608301518482036060860152613c9682826139ff565b9150508091505092915050565b6000613caf8383613c2b565b905092915050565b6000602082019050919050565b6000613ccf82613bff565b613cd98185613c0a565b935083602082028501613ceb85613c1b565b8060005b85811015613d275784840389528151613d088582613ca3565b9450613d1383613cb7565b925060208a01995050600181019050613cef565b50829750879550505050505092915050565b60006020820190508181036000830152613d538184613cc4565b905092915050565b60008060008060808587031215613d7557613d746134b6565b5b600085013567ffffffffffffffff811115613d9357613d926134bb565b5b613d9f87828801613635565b945050602085013567ffffffffffffffff811115613dc057613dbf6134bb565b5b613dcc87828801613635565b935050604085013567ffffffffffffffff811115613ded57613dec6134bb565b5b613df98782880161379f565b925050606085013567ffffffffffffffff811115613e1a57613e196134bb565b5b613e268782880161379f565b91505092959194509250565b600080600080600060a08688031215613e4e57613e4d6134b6565b5b600086013567ffffffffffffffff811115613e6c57613e6b6134bb565b5b613e7888828901613635565b955050602086013567ffffffffffffffff811115613e9957613e986134bb565b5b613ea588828901613635565b945050604086013567ffffffffffffffff811115613ec657613ec56134bb565b5b613ed28882890161379f565b935050606086013567ffffffffffffffff811115613ef357613ef26134bb565b5b613eff8882890161379f565b925050608086013567ffffffffffffffff811115613f2057613f1f6134bb565b5b613f2c88828901613635565b9150509295509295909350565b600081519050919050565b600082825260208201905092915050565b6000819050602082019050919050565b60006060830160008301518482036000860152613f8282826138b7565b91505060208301518482036020860152613f9c82826138b7565b91505060408301518482036040860152613fb682826138b7565b9150508091505092915050565b6000613fcf8383613f65565b905092915050565b6000602082019050919050565b6000613fef82613f39565b613ff98185613f44565b93508360208202850161400b85613f55565b8060005b8581101561404757848403895281516140288582613fc3565b945061403383613fd7565b925060208a0199505060018101905061400f565b50829750879550505050505092915050565b600060208201905081810360008301526140738184613fe4565b905092915050565b600081519050919050565b600082825260208201905092915050565b6000819050602082019050919050565b600060608301600083015184820360008601526140c482826138b7565b915050602083015184820360208601526140de82826138b7565b915050604083015184820360408601526140f882826138b7565b9150508091505092915050565b600061411183836140a7565b905092915050565b6000602082019050919050565b60006141318261407b565b61413b8185614086565b93508360208202850161414d85614097565b8060005b85811015614189578484038952815161416a8582614105565b945061417583614119565b925060208a01995050600181019050614151565b50829750879550505050505092915050565b600060208201905081810360008301526141b58184614126565b905092915050565b7f4e487b7100000000000000000000000000000000000000000000000000000000600052603260045260246000fd5b7f4e487b7100000000000000000000000000000000000000000000000000000000600052602260045260246000fd5b6000600282049050600182168061423357607f821691505b602082108103614246576142456141ec565b5b50919050565b60008190508160005260206000209050919050565b60006020601f8301049050919050565b600082821b905092915050565b6000600883026142ae7fffffffffffffffffffffffffffffffffffffffffffffffffffffffffffffffff82614271565b6142b88683614271565b95508019841693508086168417925050509392505050565b6000819050919050565b6000819050919050565b60006142ff6142fa6142f5846142d0565b6142da565b6142d0565b9050919050565b6000819050919050565b614319836142e4565b61432d61432582614306565b84845461427e565b825550505050565b600090565b614342614335565b61434d818484614310565b505050565b5b818110156143715761436660008261433a565b600181019050614353565b5050565b601f8211156143b6576143878161424c565b61439084614261565b8101602085101561439f578190505b6143b36143ab85614261565b830182614352565b50505b505050565b600082821c905092915050565b60006143d9600019846008026143bb565b1980831691505092915050565b60006143f283836143c8565b9150826002028217905092915050565b61440b82613871565b67ffffffffffffffff811115614424576144236134d6565b5b61442e825461421b565b614439828285614375565b600060209050601f83116001811461446c576000841561445a578287015190505b61446485826143e6565b8655506144cc565b601f19841661447a8661424c565b60005b828110156144a25784890151825560018201915060208501945060208101905061447d565b868310156144bf57848901516144bb601f8916826143c8565b8355505b6001600288020188555050505b505050505050565b7f4e487b7100000000000000000000000000000000000000000000000000000000600052601160045260246000fd5b600061450e826142d0565b91507fffffffffffffffffffffffffffffffffffffffffffffffffffffffffffffffff82036145405761453f6144d4565b5b600182019050919050565b600081905092915050565b600061456182613871565b61456b818561454b565b935061457b81856020860161388d565b80840191505092915050565b60006145938284614556565b915081905092915050565b600081546145ab8161421b565b6145b5818661454b565b945060018216600081146145d057600181146145e557614618565b60ff1983168652811515820286019350614618565b6145ee8561424c565b60005b83811015614610578154818901526001820191506020810190506145f1565b838801955050505b50505092915050565b600061462d828461459e565b915081905092915050565b6000614643826142d0565b915061464e836142d0565b9250828203905081811115614666576146656144d4565b5b92915050565b6000614677826142d0565b9150614682836142d0565b925082820190508082111561469a576146996144d4565b5b92915050565b6000815490506146af8161421b565b9050919050565b8181036146c457505061479c565b6146cd826146a0565b67ffffffffffffffff8111156146e6576146e56134d6565b5b6146f0825461421b565b6146fb828285614375565b6000601f83116001811461472a5760008415614718578287015490505b61472285826143e6565b865550614795565b601f1984166147388761424c565b96506147438661424c565b60005b8281101561476b57848901548255600182019150600185019450602081019050614746565b868310156147885784890154614784601f8916826143c8565b8355505b6001600288020188555050505b5050505050505b565b7f4e487b7100000000000000000000000000000000000000000000000000000000600052603160045260246000fdfea26469706673582212204c7f424e3975c07a03732579c112de9a96ba3ca1a915c1b4af0f96069060018a64736f6c63430008120033",
					"opcodes": "PUSH1 0x80 PUSH1 0x40 MSTORE CALLVALUE DUP1 ISZERO PUSH2 0x10 JUMPI PUSH1 0x0 DUP1 REVERT JUMPDEST POP PUSH2 0x4803 DUP1 PUSH2 0x20 PUSH1 0x0 CODECOPY PUSH1 0x0 RETURN INVALID PUSH1 0x80 PUSH1 0x40 MSTORE CALLVALUE DUP1 ISZERO PUSH2 0x10 JUMPI PUSH1 0x0 DUP1 REVERT JUMPDEST POP PUSH1 0x4 CALLDATASIZE LT PUSH2 0xCF JUMPI PUSH1 0x0 CALLDATALOAD PUSH1 0xE0 SHR DUP1 PUSH4 0x4F0D4DC4 GT PUSH2 0x8C JUMPI DUP1 PUSH4 0x893ACF2D GT PUSH2 0x66 JUMPI DUP1 PUSH4 0x893ACF2D EQ PUSH2 0x1DA JUMPI DUP1 PUSH4 0xA093271E EQ PUSH2 0x1F8 JUMPI DUP1 PUSH4 0xA28486B6 EQ PUSH2 0x214 JUMPI DUP1 PUSH4 0xFF49A764 EQ PUSH2 0x232 JUMPI PUSH2 0xCF JUMP JUMPDEST DUP1 PUSH4 0x4F0D4DC4 EQ PUSH2 0x184 JUMPI DUP1 PUSH4 0x633083F7 EQ PUSH2 0x1A0 JUMPI DUP1 PUSH4 0x7DFCC71A EQ PUSH2 0x1BC JUMPI PUSH2 0xCF JUMP JUMPDEST DUP1 PUSH4 0x38DDBB3 EQ PUSH2 0xD4 JUMPI DUP1 PUSH4 0x9C650BA EQ PUSH2 0xF0 JUMPI DUP1 PUSH4 0x9F899B9 EQ PUSH2 0x10E JUMPI DUP1 PUSH4 0x1EC407CC EQ PUSH2 0x12C JUMPI DUP1 PUSH4 0x27DFB8FA EQ PUSH2 0x148 JUMPI DUP1 PUSH4 0x366982CA EQ PUSH2 0x166 JUMPI JUMPDEST PUSH1 0x0 DUP1 REVERT JUMPDEST PUSH2 0xEE PUSH1 0x4 DUP1 CALLDATASIZE SUB DUP2 ADD SWAP1 PUSH2 0xE9 SWAP2 SWAP1 PUSH2 0x37CD JUMP JUMPDEST PUSH2 0x24E JUMP JUMPDEST STOP JUMPDEST PUSH2 0xF8 PUSH2 0x4E4 JUMP JUMPDEST PUSH1 0x40 MLOAD PUSH2 0x105 SWAP2 SWAP1 PUSH2 0x3BDD JUMP JUMPDEST PUSH1 0x40 MLOAD DUP1 SWAP2 SUB SWAP1 RETURN JUMPDEST PUSH2 0x116 PUSH2 0x96F JUMP JUMPDEST PUSH1 0x40 MLOAD PUSH2 0x123 SWAP2 SWAP1 PUSH2 0x3D39 JUMP JUMPDEST PUSH1 0x40 MLOAD DUP1 SWAP2 SUB SWAP1 RETURN JUMPDEST PUSH2 0x146 PUSH1 0x4 DUP1 CALLDATASIZE SUB DUP2 ADD SWAP1 PUSH2 0x141 SWAP2 SWAP1 PUSH2 0x3D5B JUMP JUMPDEST PUSH2 0xD32 JUMP JUMPDEST STOP JUMPDEST PUSH2 0x150 PUSH2 0xFE4 JUMP JUMPDEST PUSH1 0x40 MLOAD PUSH2 0x15D SWAP2 SWAP1 PUSH2 0x3BDD JUMP JUMPDEST PUSH1 0x40 MLOAD DUP1 SWAP2 SUB SWAP1 RETURN JUMPDEST PUSH2 0x16E PUSH2 0x146F JUMP JUMPDEST PUSH1 0x40 MLOAD PUSH2 0x17B SWAP2 SWAP1 PUSH2 0x3BDD JUMP JUMPDEST PUSH1 0x40 MLOAD DUP1 SWAP2 SUB SWAP1 RETURN JUMPDEST PUSH2 0x19E PUSH1 0x4 DUP1 CALLDATASIZE SUB DUP2 ADD SWAP1 PUSH2 0x199 SWAP2 SWAP1 PUSH2 0x3E32 JUMP JUMPDEST PUSH2 0x18FA JUMP JUMPDEST STOP JUMPDEST PUSH2 0x1BA PUSH1 0x4 DUP1 CALLDATASIZE SUB DUP2 ADD SWAP1 PUSH2 0x1B5 SWAP2 SWAP1 PUSH2 0x3E32 JUMP JUMPDEST PUSH2 0x1ACA JUMP JUMPDEST STOP JUMPDEST PUSH2 0x1C4 PUSH2 0x1C9A JUMP JUMPDEST PUSH1 0x40 MLOAD PUSH2 0x1D1 SWAP2 SWAP1 PUSH2 0x4059 JUMP JUMPDEST PUSH1 0x40 MLOAD DUP1 SWAP2 SUB SWAP1 RETURN JUMPDEST PUSH2 0x1E2 PUSH2 0x1EAF JUMP JUMPDEST PUSH1 0x40 MLOAD PUSH2 0x1EF SWAP2 SWAP1 PUSH2 0x419B JUMP JUMPDEST PUSH1 0x40 MLOAD DUP1 SWAP2 SUB SWAP1 RETURN JUMPDEST PUSH2 0x212 PUSH1 0x4 DUP1 CALLDATASIZE SUB DUP2 ADD SWAP1 PUSH2 0x20D SWAP2 SWAP1 PUSH2 0x3E32 JUMP JUMPDEST PUSH2 0x20C4 JUMP JUMPDEST STOP JUMPDEST PUSH2 0x21C PUSH2 0x23B6 JUMP JUMPDEST PUSH1 0x40 MLOAD PUSH2 0x229 SWAP2 SWAP1 PUSH2 0x3BDD JUMP JUMPDEST PUSH1 0x40 MLOAD DUP1 SWAP2 SUB SWAP1 RETURN JUMPDEST PUSH2 0x24C PUSH1 0x4 DUP1 CALLDATASIZE SUB DUP2 ADD SWAP1 PUSH2 0x247 SWAP2 SWAP1 PUSH2 0x3E32 JUMP JUMPDEST PUSH2 0x2841 JUMP JUMPDEST STOP JUMPDEST PUSH1 0x0 JUMPDEST DUP3 MLOAD DUP2 LT ISZERO PUSH2 0x396 JUMPI PUSH1 0x1 PUSH1 0x40 MLOAD DUP1 PUSH1 0x60 ADD PUSH1 0x40 MSTORE DUP1 DUP6 DUP5 DUP2 MLOAD DUP2 LT PUSH2 0x27A JUMPI PUSH2 0x279 PUSH2 0x41BD JUMP JUMPDEST JUMPDEST PUSH1 0x20 MUL PUSH1 0x20 ADD ADD MLOAD PUSH1 0x0 DUP2 MLOAD DUP2 LT PUSH2 0x295 JUMPI PUSH2 0x294 PUSH2 0x41BD JUMP JUMPDEST JUMPDEST PUSH1 0x20 MUL PUSH1 0x20 ADD ADD MLOAD DUP2 MSTORE PUSH1 0x20 ADD DUP6 DUP5 DUP2 MLOAD DUP2 LT PUSH2 0x2B5 JUMPI PUSH2 0x2B4 PUSH2 0x41BD JUMP JUMPDEST JUMPDEST PUSH1 0x20 MUL PUSH1 0x20 ADD ADD MLOAD PUSH1 0x1 DUP2 MLOAD DUP2 LT PUSH2 0x2D0 JUMPI PUSH2 0x2CF PUSH2 0x41BD JUMP JUMPDEST JUMPDEST PUSH1 0x20 MUL PUSH1 0x20 ADD ADD MLOAD DUP2 MSTORE PUSH1 0x20 ADD DUP6 DUP5 DUP2 MLOAD DUP2 LT PUSH2 0x2F0 JUMPI PUSH2 0x2EF PUSH2 0x41BD JUMP JUMPDEST JUMPDEST PUSH1 0x20 MUL PUSH1 0x20 ADD ADD MLOAD PUSH1 0x2 DUP2 MLOAD DUP2 LT PUSH2 0x30B JUMPI PUSH2 0x30A PUSH2 0x41BD JUMP JUMPDEST JUMPDEST PUSH1 0x20 MUL PUSH1 0x20 ADD ADD MLOAD DUP2 MSTORE POP SWAP1 DUP1 PUSH1 0x1 DUP2 SLOAD ADD DUP1 DUP3 SSTORE DUP1 SWAP2 POP POP PUSH1 0x1 SWAP1 SUB SWAP1 PUSH1 0x0 MSTORE PUSH1 0x20 PUSH1 0x0 KECCAK256 SWAP1 PUSH1 0x3 MUL ADD PUSH1 0x0 SWAP1 SWAP2 SWAP1 SWAP2 SWAP1 SWAP2 POP PUSH1 0x0 DUP3 ADD MLOAD DUP2 PUSH1 0x0 ADD SWAP1 DUP2 PUSH2 0x354 SWAP2 SWAP1 PUSH2 0x4402 JUMP JUMPDEST POP PUSH1 0x20 DUP3 ADD MLOAD DUP2 PUSH1 0x1 ADD SWAP1 DUP2 PUSH2 0x36A SWAP2 SWAP1 PUSH2 0x4402 JUMP JUMPDEST POP PUSH1 0x40 DUP3 ADD MLOAD DUP2 PUSH1 0x2 ADD SWAP1 DUP2 PUSH2 0x380 SWAP2 SWAP1 PUSH2 0x4402 JUMP JUMPDEST POP POP POP DUP1 DUP1 PUSH2 0x38E SWAP1 PUSH2 0x4503 JUMP JUMPDEST SWAP2 POP POP PUSH2 0x251 JUMP JUMPDEST POP PUSH1 0x0 JUMPDEST DUP2 MLOAD DUP2 LT ISZERO PUSH2 0x4DF JUMPI PUSH1 0x3 PUSH1 0x40 MLOAD DUP1 PUSH1 0x60 ADD PUSH1 0x40 MSTORE DUP1 DUP5 DUP5 DUP2 MLOAD DUP2 LT PUSH2 0x3C3 JUMPI PUSH2 0x3C2 PUSH2 0x41BD JUMP JUMPDEST JUMPDEST PUSH1 0x20 MUL PUSH1 0x20 ADD ADD MLOAD PUSH1 0x0 DUP2 MLOAD DUP2 LT PUSH2 0x3DE JUMPI PUSH2 0x3DD PUSH2 0x41BD JUMP JUMPDEST JUMPDEST PUSH1 0x20 MUL PUSH1 0x20 ADD ADD MLOAD DUP2 MSTORE PUSH1 0x20 ADD DUP5 DUP5 DUP2 MLOAD DUP2 LT PUSH2 0x3FE JUMPI PUSH2 0x3FD PUSH2 0x41BD JUMP JUMPDEST JUMPDEST PUSH1 0x20 MUL PUSH1 0x20 ADD ADD MLOAD PUSH1 0x1 DUP2 MLOAD DUP2 LT PUSH2 0x419 JUMPI PUSH2 0x418 PUSH2 0x41BD JUMP JUMPDEST JUMPDEST PUSH1 0x20 MUL PUSH1 0x20 ADD ADD MLOAD DUP2 MSTORE PUSH1 0x20 ADD DUP5 DUP5 DUP2 MLOAD DUP2 LT PUSH2 0x439 JUMPI PUSH2 0x438 PUSH2 0x41BD JUMP JUMPDEST JUMPDEST PUSH1 0x20 MUL PUSH1 0x20 ADD ADD MLOAD PUSH1 0x2 DUP2 MLOAD DUP2 LT PUSH2 0x454 JUMPI PUSH2 0x453 PUSH2 0x41BD JUMP JUMPDEST JUMPDEST PUSH1 0x20 MUL PUSH1 0x20 ADD ADD MLOAD DUP2 MSTORE POP SWAP1 DUP1 PUSH1 0x1 DUP2 SLOAD ADD DUP1 DUP3 SSTORE DUP1 SWAP2 POP POP PUSH1 0x1 SWAP1 SUB SWAP1 PUSH1 0x0 MSTORE PUSH1 0x20 PUSH1 0x0 KECCAK256 SWAP1 PUSH1 0x3 MUL ADD PUSH1 0x0 SWAP1 SWAP2 SWAP1 SWAP2 SWAP1 SWAP2 POP PUSH1 0x0 DUP3 ADD MLOAD DUP2 PUSH1 0x0 ADD SWAP1 DUP2 PUSH2 0x49D SWAP2 SWAP1 PUSH2 0x4402 JUMP JUMPDEST POP PUSH1 0x20 DUP3 ADD MLOAD DUP2 PUSH1 0x1 ADD SWAP1 DUP2 PUSH2 0x4B3 SWAP2 SWAP1 PUSH2 0x4402 JUMP JUMPDEST POP PUSH1 0x40 DUP3 ADD MLOAD DUP2 PUSH1 0x2 ADD SWAP1 DUP2 PUSH2 0x4C9 SWAP2 SWAP1 PUSH2 0x4402 JUMP JUMPDEST POP POP POP DUP1 DUP1 PUSH2 0x4D7 SWAP1 PUSH2 0x4503 JUMP JUMPDEST SWAP2 POP POP PUSH2 0x39A JUMP JUMPDEST POP POP POP JUMP JUMPDEST PUSH1 0x60 PUSH1 0x6 DUP1 SLOAD DUP1 PUSH1 0x20 MUL PUSH1 0x20 ADD PUSH1 0x40 MLOAD SWAP1 DUP2 ADD PUSH1 0x40 MSTORE DUP1 SWAP3 SWAP2 SWAP1 DUP2 DUP2 MSTORE PUSH1 0x20 ADD PUSH1 0x0 SWAP1 JUMPDEST DUP3 DUP3 LT ISZERO PUSH2 0x966 JUMPI DUP4 DUP3 SWAP1 PUSH1 0x0 MSTORE PUSH1 0x20 PUSH1 0x0 KECCAK256 SWAP1 PUSH1 0x6 MUL ADD PUSH1 0x40 MLOAD DUP1 PUSH1 0xE0 ADD PUSH1 0x40 MSTORE SWAP1 DUP2 PUSH1 0x0 DUP3 ADD DUP1 SLOAD PUSH2 0x53B SWAP1 PUSH2 0x421B JUMP JUMPDEST DUP1 PUSH1 0x1F ADD PUSH1 0x20 DUP1 SWAP2 DIV MUL PUSH1 0x20 ADD PUSH1 0x40 MLOAD SWAP1 DUP2 ADD PUSH1 0x40 MSTORE DUP1 SWAP3 SWAP2 SWAP1 DUP2 DUP2 MSTORE PUSH1 0x20 ADD DUP3 DUP1 SLOAD PUSH2 0x567 SWAP1 PUSH2 0x421B JUMP JUMPDEST DUP1 ISZERO PUSH2 0x5B4 JUMPI DUP1 PUSH1 0x1F LT PUSH2 0x589 JUMPI PUSH2 0x100 DUP1 DUP4 SLOAD DIV MUL DUP4 MSTORE SWAP2 PUSH1 0x20 ADD SWAP2 PUSH2 0x5B4 JUMP JUMPDEST DUP3 ADD SWAP2 SWAP1 PUSH1 0x0 MSTORE PUSH1 0x20 PUSH1 0x0 KECCAK256 SWAP1 JUMPDEST DUP2 SLOAD DUP2 MSTORE SWAP1 PUSH1 0x1 ADD SWAP1 PUSH1 0x20 ADD DUP1 DUP4 GT PUSH2 0x597 JUMPI DUP3 SWAP1 SUB PUSH1 0x1F AND DUP3 ADD SWAP2 JUMPDEST POP POP POP POP POP DUP2 MSTORE PUSH1 0x20 ADD PUSH1 0x1 DUP3 ADD DUP1 SLOAD PUSH2 0x5CD SWAP1 PUSH2 0x421B JUMP JUMPDEST DUP1 PUSH1 0x1F ADD PUSH1 0x20 DUP1 SWAP2 DIV MUL PUSH1 0x20 ADD PUSH1 0x40 MLOAD SWAP1 DUP2 ADD PUSH1 0x40 MSTORE DUP1 SWAP3 SWAP2 SWAP1 DUP2 DUP2 MSTORE PUSH1 0x20 ADD DUP3 DUP1 SLOAD PUSH2 0x5F9 SWAP1 PUSH2 0x421B JUMP JUMPDEST DUP1 ISZERO PUSH2 0x646 JUMPI DUP1 PUSH1 0x1F LT PUSH2 0x61B JUMPI PUSH2 0x100 DUP1 DUP4 SLOAD DIV MUL DUP4 MSTORE SWAP2 PUSH1 0x20 ADD SWAP2 PUSH2 0x646 JUMP JUMPDEST DUP3 ADD SWAP2 SWAP1 PUSH1 0x0 MSTORE PUSH1 0x20 PUSH1 0x0 KECCAK256 SWAP1 JUMPDEST DUP2 SLOAD DUP2 MSTORE SWAP1 PUSH1 0x1 ADD SWAP1 PUSH1 0x20 ADD DUP1 DUP4 GT PUSH2 0x629 JUMPI DUP3 SWAP1 SUB PUSH1 0x1F AND DUP3 ADD SWAP2 JUMPDEST POP POP POP POP POP DUP2 MSTORE PUSH1 0x20 ADD PUSH1 0x2 DUP3 ADD DUP1 SLOAD DUP1 PUSH1 0x20 MUL PUSH1 0x20 ADD PUSH1 0x40 MLOAD SWAP1 DUP2 ADD PUSH1 0x40 MSTORE DUP1 SWAP3 SWAP2 SWAP1 DUP2 DUP2 MSTORE PUSH1 0x20 ADD PUSH1 0x0 SWAP1 JUMPDEST DUP3 DUP3 LT ISZERO PUSH2 0x767 JUMPI DUP4 DUP3 SWAP1 PUSH1 0x0 MSTORE PUSH1 0x20 PUSH1 0x0 KECCAK256 ADD DUP1 SLOAD DUP1 PUSH1 0x20 MUL PUSH1 0x20 ADD PUSH1 0x40 MLOAD SWAP1 DUP2 ADD PUSH1 0x40 MSTORE DUP1 SWAP3 SWAP2 SWAP1 DUP2 DUP2 MSTORE PUSH1 0x20 ADD PUSH1 0x0 SWAP1 JUMPDEST DUP3 DUP3 LT ISZERO PUSH2 0x754 JUMPI DUP4 DUP3 SWAP1 PUSH1 0x0 MSTORE PUSH1 0x20 PUSH1 0x0 KECCAK256 ADD DUP1 SLOAD PUSH2 0x6C7 SWAP1 PUSH2 0x421B JUMP JUMPDEST DUP1 PUSH1 0x1F ADD PUSH1 0x20 DUP1 SWAP2 DIV MUL PUSH1 0x20 ADD PUSH1 0x40 MLOAD SWAP1 DUP2 ADD PUSH1 0x40 MSTORE DUP1 SWAP3 SWAP2 SWAP1 DUP2 DUP2 MSTORE PUSH1 0x20 ADD DUP3 DUP1 SLOAD PUSH2 0x6F3 SWAP1 PUSH2 0x421B JUMP JUMPDEST DUP1 ISZERO PUSH2 0x740 JUMPI DUP1 PUSH1 0x1F LT PUSH2 0x715 JUMPI PUSH2 0x100 DUP1 DUP4 SLOAD DIV MUL DUP4 MSTORE SWAP2 PUSH1 0x20 ADD SWAP2 PUSH2 0x740 JUMP JUMPDEST DUP3 ADD SWAP2 SWAP1 PUSH1 0x0 MSTORE PUSH1 0x20 PUSH1 0x0 KECCAK256 SWAP1 JUMPDEST DUP2 SLOAD DUP2 MSTORE SWAP1 PUSH1 0x1 ADD SWAP1 PUSH1 0x20 ADD DUP1 DUP4 GT PUSH2 0x723 JUMPI DUP3 SWAP1 SUB PUSH1 0x1F AND DUP3 ADD SWAP2 JUMPDEST POP POP POP POP POP DUP2 MSTORE PUSH1 0x20 ADD SWAP1 PUSH1 0x1 ADD SWAP1 PUSH2 0x6A8 JUMP JUMPDEST POP POP POP POP DUP2 MSTORE PUSH1 0x20 ADD SWAP1 PUSH1 0x1 ADD SWAP1 PUSH2 0x674 JUMP JUMPDEST POP POP POP POP DUP2 MSTORE PUSH1 0x20 ADD PUSH1 0x3 DUP3 ADD DUP1 SLOAD DUP1 PUSH1 0x20 MUL PUSH1 0x20 ADD PUSH1 0x40 MLOAD SWAP1 DUP2 ADD PUSH1 0x40 MSTORE DUP1 SWAP3 SWAP2 SWAP1 DUP2 DUP2 MSTORE PUSH1 0x20 ADD PUSH1 0x0 SWAP1 JUMPDEST DUP3 DUP3 LT ISZERO PUSH2 0x887 JUMPI DUP4 DUP3 SWAP1 PUSH1 0x0 MSTORE PUSH1 0x20 PUSH1 0x0 KECCAK256 ADD DUP1 SLOAD DUP1 PUSH1 0x20 MUL PUSH1 0x20 ADD PUSH1 0x40 MLOAD SWAP1 DUP2 ADD PUSH1 0x40 MSTORE DUP1 SWAP3 SWAP2 SWAP1 DUP2 DUP2 MSTORE PUSH1 0x20 ADD PUSH1 0x0 SWAP1 JUMPDEST DUP3 DUP3 LT ISZERO PUSH2 0x874 JUMPI DUP4 DUP3 SWAP1 PUSH1 0x0 MSTORE PUSH1 0x20 PUSH1 0x0 KECCAK256 ADD DUP1 SLOAD PUSH2 0x7E7 SWAP1 PUSH2 0x421B JUMP JUMPDEST DUP1 PUSH1 0x1F ADD PUSH1 0x20 DUP1 SWAP2 DIV MUL PUSH1 0x20 ADD PUSH1 0x40 MLOAD SWAP1 DUP2 ADD PUSH1 0x40 MSTORE DUP1 SWAP3 SWAP2 SWAP1 DUP2 DUP2 MSTORE PUSH1 0x20 ADD DUP3 DUP1 SLOAD PUSH2 0x813 SWAP1 PUSH2 0x421B JUMP JUMPDEST DUP1 ISZERO PUSH2 0x860 JUMPI DUP1 PUSH1 0x1F LT PUSH2 0x835 JUMPI PUSH2 0x100 DUP1 DUP4 SLOAD DIV MUL DUP4 MSTORE SWAP2 PUSH1 0x20 ADD SWAP2 PUSH2 0x860 JUMP JUMPDEST DUP3 ADD SWAP2 SWAP1 PUSH1 0x0 MSTORE PUSH1 0x20 PUSH1 0x0 KECCAK256 SWAP1 JUMPDEST DUP2 SLOAD DUP2 MSTORE SWAP1 PUSH1 0x1 ADD SWAP1 PUSH1 0x20 ADD DUP1 DUP4 GT PUSH2 0x843 JUMPI DUP3 SWAP1 SUB PUSH1 0x1F AND DUP3 ADD SWAP2 JUMPDEST POP POP POP POP POP DUP2 MSTORE PUSH1 0x20 ADD SWAP1 PUSH1 0x1 ADD SWAP1 PUSH2 0x7C8 JUMP JUMPDEST POP POP POP POP DUP2 MSTORE PUSH1 0x20 ADD SWAP1 PUSH1 0x1 ADD SWAP1 PUSH2 0x794 JUMP JUMPDEST POP POP POP POP DUP2 MSTORE PUSH1 0x20 ADD PUSH1 0x4 DUP3 ADD DUP1 SLOAD PUSH2 0x89F SWAP1 PUSH2 0x421B JUMP JUMPDEST DUP1 PUSH1 0x1F ADD PUSH1 0x20 DUP1 SWAP2 DIV MUL PUSH1 0x20 ADD PUSH1 0x40 MLOAD SWAP1 DUP2 ADD PUSH1 0x40 MSTORE DUP1 SWAP3 SWAP2 SWAP1 DUP2 DUP2 MSTORE PUSH1 0x20 ADD DUP3 DUP1 SLOAD PUSH2 0x8CB SWAP1 PUSH2 0x421B JUMP JUMPDEST DUP1 ISZERO PUSH2 0x918 JUMPI DUP1 PUSH1 0x1F LT PUSH2 0x8ED JUMPI PUSH2 0x100 DUP1 DUP4 SLOAD DIV MUL DUP4 MSTORE SWAP2 PUSH1 0x20 ADD SWAP2 PUSH2 0x918 JUMP JUMPDEST DUP3 ADD SWAP2 SWAP1 PUSH1 0x0 MSTORE PUSH1 0x20 PUSH1 0x0 KECCAK256 SWAP1 JUMPDEST DUP2 SLOAD DUP2 MSTORE SWAP1 PUSH1 0x1 ADD SWAP1 PUSH1 0x20 ADD DUP1 DUP4 GT PUSH2 0x8FB JUMPI DUP3 SWAP1 SUB PUSH1 0x1F AND DUP3 ADD SWAP2 JUMPDEST POP POP POP POP POP DUP2 MSTORE PUSH1 0x20 ADD PUSH1 0x5 DUP3 ADD PUSH1 0x0 SWAP1 SLOAD SWAP1 PUSH2 0x100 EXP SWAP1 DIV PUSH1 0xFF AND ISZERO ISZERO ISZERO ISZERO DUP2 MSTORE PUSH1 0x20 ADD PUSH1 0x5 DUP3 ADD PUSH1 0x1 SWAP1 SLOAD SWAP1 PUSH2 0x100 EXP SWAP1 DIV PUSH1 0xFF AND ISZERO ISZERO ISZERO ISZERO DUP2 MSTORE POP POP DUP2 MSTORE PUSH1 0x20 ADD SWAP1 PUSH1 0x1 ADD SWAP1 PUSH2 0x508 JUMP JUMPDEST POP POP POP POP SWAP1 POP SWAP1 JUMP JUMPDEST PUSH1 0x60 PUSH1 0x4 DUP1 SLOAD DUP1 PUSH1 0x20 MUL PUSH1 0x20 ADD PUSH1 0x40 MLOAD SWAP1 DUP2 ADD PUSH1 0x40 MSTORE DUP1 SWAP3 SWAP2 SWAP1 DUP2 DUP2 MSTORE PUSH1 0x20 ADD PUSH1 0x0 SWAP1 JUMPDEST DUP3 DUP3 LT ISZERO PUSH2 0xD29 JUMPI DUP4 DUP3 SWAP1 PUSH1 0x0 MSTORE PUSH1 0x20 PUSH1 0x0 KECCAK256 SWAP1 PUSH1 0x4 MUL ADD PUSH1 0x40 MLOAD DUP1 PUSH1 0x80 ADD PUSH1 0x40 MSTORE SWAP1 DUP2 PUSH1 0x0 DUP3 ADD DUP1 SLOAD PUSH2 0x9C6 SWAP1 PUSH2 0x421B JUMP JUMPDEST DUP1 PUSH1 0x1F ADD PUSH1 0x20 DUP1 SWAP2 DIV MUL PUSH1 0x20 ADD PUSH1 0x40 MLOAD SWAP1 DUP2 ADD PUSH1 0x40 MSTORE DUP1 SWAP3 SWAP2 SWAP1 DUP2 DUP2 MSTORE PUSH1 0x20 ADD DUP3 DUP1 SLOAD PUSH2 0x9F2 SWAP1 PUSH2 0x421B JUMP JUMPDEST DUP1 ISZERO PUSH2 0xA3F JUMPI DUP1 PUSH1 0x1F LT PUSH2 0xA14 JUMPI PUSH2 0x100 DUP1 DUP4 SLOAD DIV MUL DUP4 MSTORE SWAP2 PUSH1 0x20 ADD SWAP2 PUSH2 0xA3F JUMP JUMPDEST DUP3 ADD SWAP2 SWAP1 PUSH1 0x0 MSTORE PUSH1 0x20 PUSH1 0x0 KECCAK256 SWAP1 JUMPDEST DUP2 SLOAD DUP2 MSTORE SWAP1 PUSH1 0x1 ADD SWAP1 PUSH1 0x20 ADD DUP1 DUP4 GT PUSH2 0xA22 JUMPI DUP3 SWAP1 SUB PUSH1 0x1F AND DUP3 ADD SWAP2 JUMPDEST POP POP POP POP POP DUP2 MSTORE PUSH1 0x20 ADD PUSH1 0x1 DUP3 ADD DUP1 SLOAD PUSH2 0xA58 SWAP1 PUSH2 0x421B JUMP JUMPDEST DUP1 PUSH1 0x1F ADD PUSH1 0x20 DUP1 SWAP2 DIV MUL PUSH1 0x20 ADD PUSH1 0x40 MLOAD SWAP1 DUP2 ADD PUSH1 0x40 MSTORE DUP1 SWAP3 SWAP2 SWAP1 DUP2 DUP2 MSTORE PUSH1 0x20 ADD DUP3 DUP1 SLOAD PUSH2 0xA84 SWAP1 PUSH2 0x421B JUMP JUMPDEST DUP1 ISZERO PUSH2 0xAD1 JUMPI DUP1 PUSH1 0x1F LT PUSH2 0xAA6 JUMPI PUSH2 0x100 DUP1 DUP4 SLOAD DIV MUL DUP4 MSTORE SWAP2 PUSH1 0x20 ADD SWAP2 PUSH2 0xAD1 JUMP JUMPDEST DUP3 ADD SWAP2 SWAP1 PUSH1 0x0 MSTORE PUSH1 0x20 PUSH1 0x0 KECCAK256 SWAP1 JUMPDEST DUP2 SLOAD DUP2 MSTORE SWAP1 PUSH1 0x1 ADD SWAP1 PUSH1 0x20 ADD DUP1 DUP4 GT PUSH2 0xAB4 JUMPI DUP3 SWAP1 SUB PUSH1 0x1F AND DUP3 ADD SWAP2 JUMPDEST POP POP POP POP POP DUP2 MSTORE PUSH1 0x20 ADD PUSH1 0x2 DUP3 ADD DUP1 SLOAD DUP1 PUSH1 0x20 MUL PUSH1 0x20 ADD PUSH1 0x40 MLOAD SWAP1 DUP2 ADD PUSH1 0x40 MSTORE DUP1 SWAP3 SWAP2 SWAP1 DUP2 DUP2 MSTORE PUSH1 0x20 ADD PUSH1 0x0 SWAP1 JUMPDEST DUP3 DUP3 LT ISZERO PUSH2 0xBF2 JUMPI DUP4 DUP3 SWAP1 PUSH1 0x0 MSTORE PUSH1 0x20 PUSH1 0x0 KECCAK256 ADD DUP1 SLOAD DUP1 PUSH1 0x20 MUL PUSH1 0x20 ADD PUSH1 0x40 MLOAD SWAP1 DUP2 ADD PUSH1 0x40 MSTORE DUP1 SWAP3 SWAP2 SWAP1 DUP2 DUP2 MSTORE PUSH1 0x20 ADD PUSH1 0x0 SWAP1 JUMPDEST DUP3 DUP3 LT ISZERO PUSH2 0xBDF JUMPI DUP4 DUP3 SWAP1 PUSH1 0x0 MSTORE PUSH1 0x20 PUSH1 0x0 KECCAK256 ADD DUP1 SLOAD PUSH2 0xB52 SWAP1 PUSH2 0x421B JUMP JUMPDEST DUP1 PUSH1 0x1F ADD PUSH1 0x20 DUP1 SWAP2 DIV MUL PUSH1 0x20 ADD PUSH1 0x40 MLOAD SWAP1 DUP2 ADD PUSH1 0x40 MSTORE DUP1 SWAP3 SWAP2 SWAP1 DUP2 DUP2 MSTORE PUSH1 0x20 ADD DUP3 DUP1 SLOAD PUSH2 0xB7E SWAP1 PUSH2 0x421B JUMP JUMPDEST DUP1 ISZERO PUSH2 0xBCB JUMPI DUP1 PUSH1 0x1F LT PUSH2 0xBA0 JUMPI PUSH2 0x100 DUP1 DUP4 SLOAD DIV MUL DUP4 MSTORE SWAP2 PUSH1 0x20 ADD SWAP2 PUSH2 0xBCB JUMP JUMPDEST DUP3 ADD SWAP2 SWAP1 PUSH1 0x0 MSTORE PUSH1 0x20 PUSH1 0x0 KECCAK256 SWAP1 JUMPDEST DUP2 SLOAD DUP2 MSTORE SWAP1 PUSH1 0x1 ADD SWAP1 PUSH1 0x20 ADD DUP1 DUP4 GT PUSH2 0xBAE JUMPI DUP3 SWAP1 SUB PUSH1 0x1F AND DUP3 ADD SWAP2 JUMPDEST POP POP POP POP POP DUP2 MSTORE PUSH1 0x20 ADD SWAP1 PUSH1 0x1 ADD SWAP1 PUSH2 0xB33 JUMP JUMPDEST POP POP POP POP DUP2 MSTORE PUSH1 0x20 ADD SWAP1 PUSH1 0x1 ADD SWAP1 PUSH2 0xAFF JUMP JUMPDEST POP POP POP POP DUP2 MSTORE PUSH1 0x20 ADD PUSH1 0x3 DUP3 ADD DUP1 SLOAD DUP1 PUSH1 0x20 MUL PUSH1 0x20 ADD PUSH1 0x40 MLOAD SWAP1 DUP2 ADD PUSH1 0x40 MSTORE DUP1 SWAP3 SWAP2 SWAP1 DUP2 DUP2 MSTORE PUSH1 0x20 ADD PUSH1 0x0 SWAP1 JUMPDEST DUP3 DUP3 LT ISZERO PUSH2 0xD12 JUMPI DUP4 DUP3 SWAP1 PUSH1 0x0 MSTORE PUSH1 0x20 PUSH1 0x0 KECCAK256 ADD DUP1 SLOAD DUP1 PUSH1 0x20 MUL PUSH1 0x20 ADD PUSH1 0x40 MLOAD SWAP1 DUP2 ADD PUSH1 0x40 MSTORE DUP1 SWAP3 SWAP2 SWAP1 DUP2 DUP2 MSTORE PUSH1 0x20 ADD PUSH1 0x0 SWAP1 JUMPDEST DUP3 DUP3 LT ISZERO PUSH2 0xCFF JUMPI DUP4 DUP3 SWAP1 PUSH1 0x0 MSTORE PUSH1 0x20 PUSH1 0x0 KECCAK256 ADD DUP1 SLOAD PUSH2 0xC72 SWAP1 PUSH2 0x421B JUMP JUMPDEST DUP1 PUSH1 0x1F ADD PUSH1 0x20 DUP1 SWAP2 DIV MUL PUSH1 0x20 ADD PUSH1 0x40 MLOAD SWAP1 DUP2 ADD PUSH1 0x40 MSTORE DUP1 SWAP3 SWAP2 SWAP1 DUP2 DUP2 MSTORE PUSH1 0x20 ADD DUP3 DUP1 SLOAD PUSH2 0xC9E SWAP1 PUSH2 0x421B JUMP JUMPDEST DUP1 ISZERO PUSH2 0xCEB JUMPI DUP1 PUSH1 0x1F LT PUSH2 0xCC0 JUMPI PUSH2 0x100 DUP1 DUP4 SLOAD DIV MUL DUP4 MSTORE SWAP2 PUSH1 0x20 ADD SWAP2 PUSH2 0xCEB JUMP JUMPDEST DUP3 ADD SWAP2 SWAP1 PUSH1 0x0 MSTORE PUSH1 0x20 PUSH1 0x0 KECCAK256 SWAP1 JUMPDEST DUP2 SLOAD DUP2 MSTORE SWAP1 PUSH1 0x1 ADD SWAP1 PUSH1 0x20 ADD DUP1 DUP4 GT PUSH2 0xCCE JUMPI DUP3 SWAP1 SUB PUSH1 0x1F AND DUP3 ADD SWAP2 JUMPDEST POP POP POP POP POP DUP2 MSTORE PUSH1 0x20 ADD SWAP1 PUSH1 0x1 ADD SWAP1 PUSH2 0xC53 JUMP JUMPDEST POP POP POP POP DUP2 MSTORE PUSH1 0x20 ADD SWAP1 PUSH1 0x1 ADD SWAP1 PUSH2 0xC1F JUMP JUMPDEST POP POP POP POP DUP2 MSTORE POP POP DUP2 MSTORE PUSH1 0x20 ADD SWAP1 PUSH1 0x1 ADD SWAP1 PUSH2 0x993 JUMP JUMPDEST POP POP POP POP SWAP1 POP SWAP1 JUMP JUMPDEST PUSH1 0x4 PUSH1 0x40 MLOAD DUP1 PUSH1 0x80 ADD PUSH1 0x40 MSTORE DUP1 DUP7 DUP2 MSTORE PUSH1 0x20 ADD DUP6 DUP2 MSTORE PUSH1 0x20 ADD DUP5 DUP2 MSTORE PUSH1 0x20 ADD DUP4 DUP2 MSTORE POP SWAP1 DUP1 PUSH1 0x1 DUP2 SLOAD ADD DUP1 DUP3 SSTORE DUP1 SWAP2 POP POP PUSH1 0x1 SWAP1 SUB SWAP1 PUSH1 0x0 MSTORE PUSH1 0x20 PUSH1 0x0 KECCAK256 SWAP1 PUSH1 0x4 MUL ADD PUSH1 0x0 SWAP1 SWAP2 SWAP1 SWAP2 SWAP1 SWAP2 POP PUSH1 0x0 DUP3 ADD MLOAD DUP2 PUSH1 0x0 ADD SWAP1 DUP2 PUSH2 0xD93 SWAP2 SWAP1 PUSH2 0x4402 JUMP JUMPDEST POP PUSH1 0x20 DUP3 ADD MLOAD DUP2 PUSH1 0x1 ADD SWAP1 DUP2 PUSH2 0xDA9 SWAP2 SWAP1 PUSH2 0x4402 JUMP JUMPDEST POP PUSH1 0x40 DUP3 ADD MLOAD DUP2 PUSH1 0x2 ADD SWAP1 DUP1 MLOAD SWAP1 PUSH1 0x20 ADD SWAP1 PUSH2 0xDC6 SWAP3 SWAP2 SWAP1 PUSH2 0x3250 JUMP JUMPDEST POP PUSH1 0x60 DUP3 ADD MLOAD DUP2 PUSH1 0x3 ADD SWAP1 DUP1 MLOAD SWAP1 PUSH1 0x20 ADD SWAP1 PUSH2 0xDE3 SWAP3 SWAP2 SWAP1 PUSH2 0x3250 JUMP JUMPDEST POP POP POP PUSH1 0x0 JUMPDEST PUSH1 0x1 DUP1 SLOAD SWAP1 POP DUP2 LT ISZERO PUSH2 0xEE1 JUMPI PUSH1 0x0 JUMPDEST DUP4 MLOAD DUP2 LT ISZERO PUSH2 0xECD JUMPI DUP4 DUP2 DUP2 MLOAD DUP2 LT PUSH2 0xE15 JUMPI PUSH2 0xE14 PUSH2 0x41BD JUMP JUMPDEST JUMPDEST PUSH1 0x20 MUL PUSH1 0x20 ADD ADD MLOAD PUSH1 0x0 DUP2 MLOAD DUP2 LT PUSH2 0xE30 JUMPI PUSH2 0xE2F PUSH2 0x41BD JUMP JUMPDEST JUMPDEST PUSH1 0x20 MUL PUSH1 0x20 ADD ADD MLOAD PUSH1 0x40 MLOAD PUSH1 0x20 ADD PUSH2 0xE48 SWAP2 SWAP1 PUSH2 0x4587 JUMP JUMPDEST PUSH1 0x40 MLOAD PUSH1 0x20 DUP2 DUP4 SUB SUB DUP2 MSTORE SWAP1 PUSH1 0x40 MSTORE DUP1 MLOAD SWAP1 PUSH1 0x20 ADD KECCAK256 PUSH1 0x1 DUP4 DUP2 SLOAD DUP2 LT PUSH2 0xE72 JUMPI PUSH2 0xE71 PUSH2 0x41BD JUMP JUMPDEST JUMPDEST SWAP1 PUSH1 0x0 MSTORE PUSH1 0x20 PUSH1 0x0 KECCAK256 SWAP1 PUSH1 0x3 MUL ADD PUSH1 0x0 ADD PUSH1 0x40 MLOAD PUSH1 0x20 ADD PUSH2 0xE93 SWAP2 SWAP1 PUSH2 0x4621 JUMP JUMPDEST PUSH1 0x40 MLOAD PUSH1 0x20 DUP2 DUP4 SUB SUB DUP2 MSTORE SWAP1 PUSH1 0x40 MSTORE DUP1 MLOAD SWAP1 PUSH1 0x20 ADD KECCAK256 SUB PUSH2 0xEBA JUMPI PUSH2 0xEB9 DUP3 PUSH1 0x1 PUSH2 0x2CA3 JUMP JUMPDEST JUMPDEST DUP1 DUP1 PUSH2 0xEC5 SWAP1 PUSH2 0x4503 JUMP JUMPDEST SWAP2 POP POP PUSH2 0xDF9 JUMP JUMPDEST POP DUP1 DUP1 PUSH2 0xED9 SWAP1 PUSH2 0x4503 JUMP JUMPDEST SWAP2 POP POP PUSH2 0xDE9 JUMP JUMPDEST POP PUSH1 0x0 JUMPDEST PUSH1 0x3 DUP1 SLOAD SWAP1 POP DUP2 LT ISZERO PUSH2 0xFDD JUMPI PUSH1 0x0 JUMPDEST DUP3 MLOAD DUP2 LT ISZERO PUSH2 0xFC9 JUMPI DUP3 DUP2 DUP2 MLOAD DUP2 LT PUSH2 0xF11 JUMPI PUSH2 0xF10 PUSH2 0x41BD JUMP JUMPDEST JUMPDEST PUSH1 0x20 MUL PUSH1 0x20 ADD ADD MLOAD PUSH1 0x0 DUP2 MLOAD DUP2 LT PUSH2 0xF2C JUMPI PUSH2 0xF2B PUSH2 0x41BD JUMP JUMPDEST JUMPDEST PUSH1 0x20 MUL PUSH1 0x20 ADD ADD MLOAD PUSH1 0x40 MLOAD PUSH1 0x20 ADD PUSH2 0xF44 SWAP2 SWAP1 PUSH2 0x4587 JUMP JUMPDEST PUSH1 0x40 MLOAD PUSH1 0x20 DUP2 DUP4 SUB SUB DUP2 MSTORE SWAP1 PUSH1 0x40 MSTORE DUP1 MLOAD SWAP1 PUSH1 0x20 ADD KECCAK256 PUSH1 0x3 DUP4 DUP2 SLOAD DUP2 LT PUSH2 0xF6E JUMPI PUSH2 0xF6D PUSH2 0x41BD JUMP JUMPDEST JUMPDEST SWAP1 PUSH1 0x0 MSTORE PUSH1 0x20 PUSH1 0x0 KECCAK256 SWAP1 PUSH1 0x3 MUL ADD PUSH1 0x0 ADD PUSH1 0x40 MLOAD PUSH1 0x20 ADD PUSH2 0xF8F SWAP2 SWAP1 PUSH2 0x4621 JUMP JUMPDEST PUSH1 0x40 MLOAD PUSH1 0x20 DUP2 DUP4 SUB SUB DUP2 MSTORE SWAP1 PUSH1 0x40 MSTORE DUP1 MLOAD SWAP1 PUSH1 0x20 ADD KECCAK256 SUB PUSH2 0xFB6 JUMPI PUSH2 0xFB5 DUP3 PUSH1 0x3 PUSH2 0x2DD0 JUMP JUMPDEST JUMPDEST DUP1 DUP1 PUSH2 0xFC1 SWAP1 PUSH2 0x4503 JUMP JUMPDEST SWAP2 POP POP PUSH2 0xEF5 JUMP JUMPDEST POP DUP1 DUP1 PUSH2 0xFD5 SWAP1 PUSH2 0x4503 JUMP JUMPDEST SWAP2 POP POP PUSH2 0xEE5 JUMP JUMPDEST POP POP POP POP POP JUMP JUMPDEST PUSH1 0x60 PUSH1 0x5 DUP1 SLOAD DUP1 PUSH1 0x20 MUL PUSH1 0x20 ADD PUSH1 0x40 MLOAD SWAP1 DUP2 ADD PUSH1 0x40 MSTORE DUP1 SWAP3 SWAP2 SWAP1 DUP2 DUP2 MSTORE PUSH1 0x20 ADD PUSH1 0x0 SWAP1 JUMPDEST DUP3 DUP3 LT ISZERO PUSH2 0x1466 JUMPI DUP4 DUP3 SWAP1 PUSH1 0x0 MSTORE PUSH1 0x20 PUSH1 0x0 KECCAK256 SWAP1 PUSH1 0x6 MUL ADD PUSH1 0x40 MLOAD DUP1 PUSH1 0xE0 ADD PUSH1 0x40 MSTORE SWAP1 DUP2 PUSH1 0x0 DUP3 ADD DUP1 SLOAD PUSH2 0x103B SWAP1 PUSH2 0x421B JUMP JUMPDEST DUP1 PUSH1 0x1F ADD PUSH1 0x20 DUP1 SWAP2 DIV MUL PUSH1 0x20 ADD PUSH1 0x40 MLOAD SWAP1 DUP2 ADD PUSH1 0x40 MSTORE DUP1 SWAP3 SWAP2 SWAP1 DUP2 DUP2 MSTORE PUSH1 0x20 ADD DUP3 DUP1 SLOAD PUSH2 0x1067 SWAP1 PUSH2 0x421B JUMP JUMPDEST DUP1 ISZERO PUSH2 0x10B4 JUMPI DUP1 PUSH1 0x1F LT PUSH2 0x1089 JUMPI PUSH2 0x100 DUP1 DUP4 SLOAD DIV MUL DUP4 MSTORE SWAP2 PUSH1 0x20 ADD SWAP2 PUSH2 0x10B4 JUMP JUMPDEST DUP3 ADD SWAP2 SWAP1 PUSH1 0x0 MSTORE PUSH1 0x20 PUSH1 0x0 KECCAK256 SWAP1 JUMPDEST DUP2 SLOAD DUP2 MSTORE SWAP1 PUSH1 0x1 ADD SWAP1 PUSH1 0x20 ADD DUP1 DUP4 GT PUSH2 0x1097 JUMPI DUP3 SWAP1 SUB PUSH1 0x1F AND DUP3 ADD SWAP2 JUMPDEST POP POP POP POP POP DUP2 MSTORE PUSH1 0x20 ADD PUSH1 0x1 DUP3 ADD DUP1 SLOAD PUSH2 0x10CD SWAP1 PUSH2 0x421B JUMP JUMPDEST DUP1 PUSH1 0x1F ADD PUSH1 0x20 DUP1 SWAP2 DIV MUL PUSH1 0x20 ADD PUSH1 0x40 MLOAD SWAP1 DUP2 ADD PUSH1 0x40 MSTORE DUP1 SWAP3 SWAP2 SWAP1 DUP2 DUP2 MSTORE PUSH1 0x20 ADD DUP3 DUP1 SLOAD PUSH2 0x10F9 SWAP1 PUSH2 0x421B JUMP JUMPDEST DUP1 ISZERO PUSH2 0x1146 JUMPI DUP1 PUSH1 0x1F LT PUSH2 0x111B JUMPI PUSH2 0x100 DUP1 DUP4 SLOAD DIV MUL DUP4 MSTORE SWAP2 PUSH1 0x20 ADD SWAP2 PUSH2 0x1146 JUMP JUMPDEST DUP3 ADD SWAP2 SWAP1 PUSH1 0x0 MSTORE PUSH1 0x20 PUSH1 0x0 KECCAK256 SWAP1 JUMPDEST DUP2 SLOAD DUP2 MSTORE SWAP1 PUSH1 0x1 ADD SWAP1 PUSH1 0x20 ADD DUP1 DUP4 GT PUSH2 0x1129 JUMPI DUP3 SWAP1 SUB PUSH1 0x1F AND DUP3 ADD SWAP2 JUMPDEST POP POP POP POP POP DUP2 MSTORE PUSH1 0x20 ADD PUSH1 0x2 DUP3 ADD DUP1 SLOAD DUP1 PUSH1 0x20 MUL PUSH1 0x20 ADD PUSH1 0x40 MLOAD SWAP1 DUP2 ADD PUSH1 0x40 MSTORE DUP1 SWAP3 SWAP2 SWAP1 DUP2 DUP2 MSTORE PUSH1 0x20 ADD PUSH1 0x0 SWAP1 JUMPDEST DUP3 DUP3 LT ISZERO PUSH2 0x1267 JUMPI DUP4 DUP3 SWAP1 PUSH1 0x0 MSTORE PUSH1 0x20 PUSH1 0x0 KECCAK256 ADD DUP1 SLOAD DUP1 PUSH1 0x20 MUL PUSH1 0x20 ADD PUSH1 0x40 MLOAD SWAP1 DUP2 ADD PUSH1 0x40 MSTORE DUP1 SWAP3 SWAP2 SWAP1 DUP2 DUP2 MSTORE PUSH1 0x20 ADD PUSH1 0x0 SWAP1 JUMPDEST DUP3 DUP3 LT ISZERO PUSH2 0x1254 JUMPI DUP4 DUP3 SWAP1 PUSH1 0x0 MSTORE PUSH1 0x20 PUSH1 0x0 KECCAK256 ADD DUP1 SLOAD PUSH2 0x11C7 SWAP1 PUSH2 0x421B JUMP JUMPDEST DUP1 PUSH1 0x1F ADD PUSH1 0x20 DUP1 SWAP2 DIV MUL PUSH1 0x20 ADD PUSH1 0x40 MLOAD SWAP1 DUP2 ADD PUSH1 0x40 MSTORE DUP1 SWAP3 SWAP2 SWAP1 DUP2 DUP2 MSTORE PUSH1 0x20 ADD DUP3 DUP1 SLOAD PUSH2 0x11F3 SWAP1 PUSH2 0x421B JUMP JUMPDEST DUP1 ISZERO PUSH2 0x1240 JUMPI DUP1 PUSH1 0x1F LT PUSH2 0x1215 JUMPI PUSH2 0x100 DUP1 DUP4 SLOAD DIV MUL DUP4 MSTORE SWAP2 PUSH1 0x20 ADD SWAP2 PUSH2 0x1240 JUMP JUMPDEST DUP3 ADD SWAP2 SWAP1 PUSH1 0x0 MSTORE PUSH1 0x20 PUSH1 0x0 KECCAK256 SWAP1 JUMPDEST DUP2 SLOAD DUP2 MSTORE SWAP1 PUSH1 0x1 ADD SWAP1 PUSH1 0x20 ADD DUP1 DUP4 GT PUSH2 0x1223 JUMPI DUP3 SWAP1 SUB PUSH1 0x1F AND DUP3 ADD SWAP2 JUMPDEST POP POP POP POP POP DUP2 MSTORE PUSH1 0x20 ADD SWAP1 PUSH1 0x1 ADD SWAP1 PUSH2 0x11A8 JUMP JUMPDEST POP POP POP POP DUP2 MSTORE PUSH1 0x20 ADD SWAP1 PUSH1 0x1 ADD SWAP1 PUSH2 0x1174 JUMP JUMPDEST POP POP POP POP DUP2 MSTORE PUSH1 0x20 ADD PUSH1 0x3 DUP3 ADD DUP1 SLOAD DUP1 PUSH1 0x20 MUL PUSH1 0x20 ADD PUSH1 0x40 MLOAD SWAP1 DUP2 ADD PUSH1 0x40 MSTORE DUP1 SWAP3 SWAP2 SWAP1 DUP2 DUP2 MSTORE PUSH1 0x20 ADD PUSH1 0x0 SWAP1 JUMPDEST DUP3 DUP3 LT ISZERO PUSH2 0x1387 JUMPI DUP4 DUP3 SWAP1 PUSH1 0x0 MSTORE PUSH1 0x20 PUSH1 0x0 KECCAK256 ADD DUP1 SLOAD DUP1 PUSH1 0x20 MUL PUSH1 0x20 ADD PUSH1 0x40 MLOAD SWAP1 DUP2 ADD PUSH1 0x40 MSTORE DUP1 SWAP3 SWAP2 SWAP1 DUP2 DUP2 MSTORE PUSH1 0x20 ADD PUSH1 0x0 SWAP1 JUMPDEST DUP3 DUP3 LT ISZERO PUSH2 0x1374 JUMPI DUP4 DUP3 SWAP1 PUSH1 0x0 MSTORE PUSH1 0x20 PUSH1 0x0 KECCAK256 ADD DUP1 SLOAD PUSH2 0x12E7 SWAP1 PUSH2 0x421B JUMP JUMPDEST DUP1 PUSH1 0x1F ADD PUSH1 0x20 DUP1 SWAP2 DIV MUL PUSH1 0x20 ADD PUSH1 0x40 MLOAD SWAP1 DUP2 ADD PUSH1 0x40 MSTORE DUP1 SWAP3 SWAP2 SWAP1 DUP2 DUP2 MSTORE PUSH1 0x20 ADD DUP3 DUP1 SLOAD PUSH2 0x1313 SWAP1 PUSH2 0x421B JUMP JUMPDEST DUP1 ISZERO PUSH2 0x1360 JUMPI DUP1 PUSH1 0x1F LT PUSH2 0x1335 JUMPI PUSH2 0x100 DUP1 DUP4 SLOAD DIV MUL DUP4 MSTORE SWAP2 PUSH1 0x20 ADD SWAP2 PUSH2 0x1360 JUMP JUMPDEST DUP3 ADD SWAP2 SWAP1 PUSH1 0x0 MSTORE PUSH1 0x20 PUSH1 0x0 KECCAK256 SWAP1 JUMPDEST DUP2 SLOAD DUP2 MSTORE SWAP1 PUSH1 0x1 ADD SWAP1 PUSH1 0x20 ADD DUP1 DUP4 GT PUSH2 0x1343 JUMPI DUP3 SWAP1 SUB PUSH1 0x1F AND DUP3 ADD SWAP2 JUMPDEST POP POP POP POP POP DUP2 MSTORE PUSH1 0x20 ADD SWAP1 PUSH1 0x1 ADD SWAP1 PUSH2 0x12C8 JUMP JUMPDEST POP POP POP POP DUP2 MSTORE PUSH1 0x20 ADD SWAP1 PUSH1 0x1 ADD SWAP1 PUSH2 0x1294 JUMP JUMPDEST POP POP POP POP DUP2 MSTORE PUSH1 0x20 ADD PUSH1 0x4 DUP3 ADD DUP1 SLOAD PUSH2 0x139F SWAP1 PUSH2 0x421B JUMP JUMPDEST DUP1 PUSH1 0x1F ADD PUSH1 0x20 DUP1 SWAP2 DIV MUL PUSH1 0x20 ADD PUSH1 0x40 MLOAD SWAP1 DUP2 ADD PUSH1 0x40 MSTORE DUP1 SWAP3 SWAP2 SWAP1 DUP2 DUP2 MSTORE PUSH1 0x20 ADD DUP3 DUP1 SLOAD PUSH2 0x13CB SWAP1 PUSH2 0x421B JUMP JUMPDEST DUP1 ISZERO PUSH2 0x1418 JUMPI DUP1 PUSH1 0x1F LT PUSH2 0x13ED JUMPI PUSH2 0x100 DUP1 DUP4 SLOAD DIV MUL DUP4 MSTORE SWAP2 PUSH1 0x20 ADD SWAP2 PUSH2 0x1418 JUMP JUMPDEST DUP3 ADD SWAP2 SWAP1 PUSH1 0x0 MSTORE PUSH1 0x20 PUSH1 0x0 KECCAK256 SWAP1 JUMPDEST DUP2 SLOAD DUP2 MSTORE SWAP1 PUSH1 0x1 ADD SWAP1 PUSH1 0x20 ADD DUP1 DUP4 GT PUSH2 0x13FB JUMPI DUP3 SWAP1 SUB PUSH1 0x1F AND DUP3 ADD SWAP2 JUMPDEST POP POP POP POP POP DUP2 MSTORE PUSH1 0x20 ADD PUSH1 0x5 DUP3 ADD PUSH1 0x0 SWAP1 SLOAD SWAP1 PUSH2 0x100 EXP SWAP1 DIV PUSH1 0xFF AND ISZERO ISZERO ISZERO ISZERO DUP2 MSTORE PUSH1 0x20 ADD PUSH1 0x5 DUP3 ADD PUSH1 0x1 SWAP1 SLOAD SWAP1 PUSH2 0x100 EXP SWAP1 DIV PUSH1 0xFF AND ISZERO ISZERO ISZERO ISZERO DUP2 MSTORE POP POP DUP2 MSTORE PUSH1 0x20 ADD SWAP1 PUSH1 0x1 ADD SWAP1 PUSH2 0x1008 JUMP JUMPDEST POP POP POP POP SWAP1 POP SWAP1 JUMP JUMPDEST PUSH1 0x60 PUSH1 0x7 DUP1 SLOAD DUP1 PUSH1 0x20 MUL PUSH1 0x20 ADD PUSH1 0x40 MLOAD SWAP1 DUP2 ADD PUSH1 0x40 MSTORE DUP1 SWAP3 SWAP2 SWAP1 DUP2 DUP2 MSTORE PUSH1 0x20 ADD PUSH1 0x0 SWAP1 JUMPDEST DUP3 DUP3 LT ISZERO PUSH2 0x18F1 JUMPI DUP4 DUP3 SWAP1 PUSH1 0x0 MSTORE PUSH1 0x20 PUSH1 0x0 KECCAK256 SWAP1 PUSH1 0x6 MUL ADD PUSH1 0x40 MLOAD DUP1 PUSH1 0xE0 ADD PUSH1 0x40 MSTORE SWAP1 DUP2 PUSH1 0x0 DUP3 ADD DUP1 SLOAD PUSH2 0x14C6 SWAP1 PUSH2 0x421B JUMP JUMPDEST DUP1 PUSH1 0x1F ADD PUSH1 0x20 DUP1 SWAP2 DIV MUL PUSH1 0x20 ADD PUSH1 0x40 MLOAD SWAP1 DUP2 ADD PUSH1 0x40 MSTORE DUP1 SWAP3 SWAP2 SWAP1 DUP2 DUP2 MSTORE PUSH1 0x20 ADD DUP3 DUP1 SLOAD PUSH2 0x14F2 SWAP1 PUSH2 0x421B JUMP JUMPDEST DUP1 ISZERO PUSH2 0x153F JUMPI DUP1 PUSH1 0x1F LT PUSH2 0x1514 JUMPI PUSH2 0x100 DUP1 DUP4 SLOAD DIV MUL DUP4 MSTORE SWAP2 PUSH1 0x20 ADD SWAP2 PUSH2 0x153F JUMP JUMPDEST DUP3 ADD SWAP2 SWAP1 PUSH1 0x0 MSTORE PUSH1 0x20 PUSH1 0x0 KECCAK256 SWAP1 JUMPDEST DUP2 SLOAD DUP2 MSTORE SWAP1 PUSH1 0x1 ADD SWAP1 PUSH1 0x20 ADD DUP1 DUP4 GT PUSH2 0x1522 JUMPI DUP3 SWAP1 SUB PUSH1 0x1F AND DUP3 ADD SWAP2 JUMPDEST POP POP POP POP POP DUP2 MSTORE PUSH1 0x20 ADD PUSH1 0x1 DUP3 ADD DUP1 SLOAD PUSH2 0x1558 SWAP1 PUSH2 0x421B JUMP JUMPDEST DUP1 PUSH1 0x1F ADD PUSH1 0x20 DUP1 SWAP2 DIV MUL PUSH1 0x20 ADD PUSH1 0x40 MLOAD SWAP1 DUP2 ADD PUSH1 0x40 MSTORE DUP1 SWAP3 SWAP2 SWAP1 DUP2 DUP2 MSTORE PUSH1 0x20 ADD DUP3 DUP1 SLOAD PUSH2 0x1584 SWAP1 PUSH2 0x421B JUMP JUMPDEST DUP1 ISZERO PUSH2 0x15D1 JUMPI DUP1 PUSH1 0x1F LT PUSH2 0x15A6 JUMPI PUSH2 0x100 DUP1 DUP4 SLOAD DIV MUL DUP4 MSTORE SWAP2 PUSH1 0x20 ADD SWAP2 PUSH2 0x15D1 JUMP JUMPDEST DUP3 ADD SWAP2 SWAP1 PUSH1 0x0 MSTORE PUSH1 0x20 PUSH1 0x0 KECCAK256 SWAP1 JUMPDEST DUP2 SLOAD DUP2 MSTORE SWAP1 PUSH1 0x1 ADD SWAP1 PUSH1 0x20 ADD DUP1 DUP4 GT PUSH2 0x15B4 JUMPI DUP3 SWAP1 SUB PUSH1 0x1F AND DUP3 ADD SWAP2 JUMPDEST POP POP POP POP POP DUP2 MSTORE PUSH1 0x20 ADD PUSH1 0x2 DUP3 ADD DUP1 SLOAD DUP1 PUSH1 0x20 MUL PUSH1 0x20 ADD PUSH1 0x40 MLOAD SWAP1 DUP2 ADD PUSH1 0x40 MSTORE DUP1 SWAP3 SWAP2 SWAP1 DUP2 DUP2 MSTORE PUSH1 0x20 ADD PUSH1 0x0 SWAP1 JUMPDEST DUP3 DUP3 LT ISZERO PUSH2 0x16F2 JUMPI DUP4 DUP3 SWAP1 PUSH1 0x0 MSTORE PUSH1 0x20 PUSH1 0x0 KECCAK256 ADD DUP1 SLOAD DUP1 PUSH1 0x20 MUL PUSH1 0x20 ADD PUSH1 0x40 MLOAD SWAP1 DUP2 ADD PUSH1 0x40 MSTORE DUP1 SWAP3 SWAP2 SWAP1 DUP2 DUP2 MSTORE PUSH1 0x20 ADD PUSH1 0x0 SWAP1 JUMPDEST DUP3 DUP3 LT ISZERO PUSH2 0x16DF JUMPI DUP4 DUP3 SWAP1 PUSH1 0x0 MSTORE PUSH1 0x20 PUSH1 0x0 KECCAK256 ADD DUP1 SLOAD PUSH2 0x1652 SWAP1 PUSH2 0x421B JUMP JUMPDEST DUP1 PUSH1 0x1F ADD PUSH1 0x20 DUP1 SWAP2 DIV MUL PUSH1 0x20 ADD PUSH1 0x40 MLOAD SWAP1 DUP2 ADD PUSH1 0x40 MSTORE DUP1 SWAP3 SWAP2 SWAP1 DUP2 DUP2 MSTORE PUSH1 0x20 ADD DUP3 DUP1 SLOAD PUSH2 0x167E SWAP1 PUSH2 0x421B JUMP JUMPDEST DUP1 ISZERO PUSH2 0x16CB JUMPI DUP1 PUSH1 0x1F LT PUSH2 0x16A0 JUMPI PUSH2 0x100 DUP1 DUP4 SLOAD DIV MUL DUP4 MSTORE SWAP2 PUSH1 0x20 ADD SWAP2 PUSH2 0x16CB JUMP JUMPDEST DUP3 ADD SWAP2 SWAP1 PUSH1 0x0 MSTORE PUSH1 0x20 PUSH1 0x0 KECCAK256 SWAP1 JUMPDEST DUP2 SLOAD DUP2 MSTORE SWAP1 PUSH1 0x1 ADD SWAP1 PUSH1 0x20 ADD DUP1 DUP4 GT PUSH2 0x16AE JUMPI DUP3 SWAP1 SUB PUSH1 0x1F AND DUP3 ADD SWAP2 JUMPDEST POP POP POP POP POP DUP2 MSTORE PUSH1 0x20 ADD SWAP1 PUSH1 0x1 ADD SWAP1 PUSH2 0x1633 JUMP JUMPDEST POP POP POP POP DUP2 MSTORE PUSH1 0x20 ADD SWAP1 PUSH1 0x1 ADD SWAP1 PUSH2 0x15FF JUMP JUMPDEST POP POP POP POP DUP2 MSTORE PUSH1 0x20 ADD PUSH1 0x3 DUP3 ADD DUP1 SLOAD DUP1 PUSH1 0x20 MUL PUSH1 0x20 ADD PUSH1 0x40 MLOAD SWAP1 DUP2 ADD PUSH1 0x40 MSTORE DUP1 SWAP3 SWAP2 SWAP1 DUP2 DUP2 MSTORE PUSH1 0x20 ADD PUSH1 0x0 SWAP1 JUMPDEST DUP3 DUP3 LT ISZERO PUSH2 0x1812 JUMPI DUP4 DUP3 SWAP1 PUSH1 0x0 MSTORE PUSH1 0x20 PUSH1 0x0 KECCAK256 ADD DUP1 SLOAD DUP1 PUSH1 0x20 MUL PUSH1 0x20 ADD PUSH1 0x40 MLOAD SWAP1 DUP2 ADD PUSH1 0x40 MSTORE DUP1 SWAP3 SWAP2 SWAP1 DUP2 DUP2 MSTORE PUSH1 0x20 ADD PUSH1 0x0 SWAP1 JUMPDEST DUP3 DUP3 LT ISZERO PUSH2 0x17FF JUMPI DUP4 DUP3 SWAP1 PUSH1 0x0 MSTORE PUSH1 0x20 PUSH1 0x0 KECCAK256 ADD DUP1 SLOAD PUSH2 0x1772 SWAP1 PUSH2 0x421B JUMP JUMPDEST DUP1 PUSH1 0x1F ADD PUSH1 0x20 DUP1 SWAP2 DIV MUL PUSH1 0x20 ADD PUSH1 0x40 MLOAD SWAP1 DUP2 ADD PUSH1 0x40 MSTORE DUP1 SWAP3 SWAP2 SWAP1 DUP2 DUP2 MSTORE PUSH1 0x20 ADD DUP3 DUP1 SLOAD PUSH2 0x179E SWAP1 PUSH2 0x421B JUMP JUMPDEST DUP1 ISZERO PUSH2 0x17EB JUMPI DUP1 PUSH1 0x1F LT PUSH2 0x17C0 JUMPI PUSH2 0x100 DUP1 DUP4 SLOAD DIV MUL DUP4 MSTORE SWAP2 PUSH1 0x20 ADD SWAP2 PUSH2 0x17EB JUMP JUMPDEST DUP3 ADD SWAP2 SWAP1 PUSH1 0x0 MSTORE PUSH1 0x20 PUSH1 0x0 KECCAK256 SWAP1 JUMPDEST DUP2 SLOAD DUP2 MSTORE SWAP1 PUSH1 0x1 ADD SWAP1 PUSH1 0x20 ADD DUP1 DUP4 GT PUSH2 0x17CE JUMPI DUP3 SWAP1 SUB PUSH1 0x1F AND DUP3 ADD SWAP2 JUMPDEST POP POP POP POP POP DUP2 MSTORE PUSH1 0x20 ADD SWAP1 PUSH1 0x1 ADD SWAP1 PUSH2 0x1753 JUMP JUMPDEST POP POP POP POP DUP2 MSTORE PUSH1 0x20 ADD SWAP1 PUSH1 0x1 ADD SWAP1 PUSH2 0x171F JUMP JUMPDEST POP POP POP POP DUP2 MSTORE PUSH1 0x20 ADD PUSH1 0x4 DUP3 ADD DUP1 SLOAD PUSH2 0x182A SWAP1 PUSH2 0x421B JUMP JUMPDEST DUP1 PUSH1 0x1F ADD PUSH1 0x20 DUP1 SWAP2 DIV MUL PUSH1 0x20 ADD PUSH1 0x40 MLOAD SWAP1 DUP2 ADD PUSH1 0x40 MSTORE DUP1 SWAP3 SWAP2 SWAP1 DUP2 DUP2 MSTORE PUSH1 0x20 ADD DUP3 DUP1 SLOAD PUSH2 0x1856 SWAP1 PUSH2 0x421B JUMP JUMPDEST DUP1 ISZERO PUSH2 0x18A3 JUMPI DUP1 PUSH1 0x1F LT PUSH2 0x1878 JUMPI PUSH2 0x100 DUP1 DUP4 SLOAD DIV MUL DUP4 MSTORE SWAP2 PUSH1 0x20 ADD SWAP2 PUSH2 0x18A3 JUMP JUMPDEST DUP3 ADD SWAP2 SWAP1 PUSH1 0x0 MSTORE PUSH1 0x20 PUSH1 0x0 KECCAK256 SWAP1 JUMPDEST DUP2 SLOAD DUP2 MSTORE SWAP1 PUSH1 0x1 ADD SWAP1 PUSH1 0x20 ADD DUP1 DUP4 GT PUSH2 0x1886 JUMPI DUP3 SWAP1 SUB PUSH1 0x1F AND DUP3 ADD SWAP2 JUMPDEST POP POP POP POP POP DUP2 MSTORE PUSH1 0x20 ADD PUSH1 0x5 DUP3 ADD PUSH1 0x0 SWAP1 SLOAD SWAP1 PUSH2 0x100 EXP SWAP1 DIV PUSH1 0xFF AND ISZERO ISZERO ISZERO ISZERO DUP2 MSTORE PUSH1 0x20 ADD PUSH1 0x5 DUP3 ADD PUSH1 0x1 SWAP1 SLOAD SWAP1 PUSH2 0x100 EXP SWAP1 DIV PUSH1 0xFF AND ISZERO ISZERO ISZERO ISZERO DUP2 MSTORE POP POP DUP2 MSTORE PUSH1 0x20 ADD SWAP1 PUSH1 0x1 ADD SWAP1 PUSH2 0x1493 JUMP JUMPDEST POP POP POP POP SWAP1 POP SWAP1 JUMP JUMPDEST PUSH1 0x6 PUSH1 0x40 MLOAD DUP1 PUSH1 0xE0 ADD PUSH1 0x40 MSTORE DUP1 DUP8 DUP2 MSTORE PUSH1 0x20 ADD DUP7 DUP2 MSTORE PUSH1 0x20 ADD DUP6 DUP2 MSTORE PUSH1 0x20 ADD DUP5 DUP2 MSTORE PUSH1 0x20 ADD DUP4 DUP2 MSTORE PUSH1 0x20 ADD PUSH1 0x1 ISZERO ISZERO DUP2 MSTORE PUSH1 0x20 ADD PUSH1 0x0 ISZERO ISZERO DUP2 MSTORE POP SWAP1 DUP1 PUSH1 0x1 DUP2 SLOAD ADD DUP1 DUP3 SSTORE DUP1 SWAP2 POP POP PUSH1 0x1 SWAP1 SUB SWAP1 PUSH1 0x0 MSTORE PUSH1 0x20 PUSH1 0x0 KECCAK256 SWAP1 PUSH1 0x6 MUL ADD PUSH1 0x0 SWAP1 SWAP2 SWAP1 SWAP2 SWAP1 SWAP2 POP PUSH1 0x0 DUP3 ADD MLOAD DUP2 PUSH1 0x0 ADD SWAP1 DUP2 PUSH2 0x1973 SWAP2 SWAP1 PUSH2 0x4402 JUMP JUMPDEST POP PUSH1 0x20 DUP3 ADD MLOAD DUP2 PUSH1 0x1 ADD SWAP1 DUP2 PUSH2 0x1989 SWAP2 SWAP1 PUSH2 0x4402 JUMP JUMPDEST POP PUSH1 0x40 DUP3 ADD MLOAD DUP2 PUSH1 0x2 ADD SWAP1 DUP1 MLOAD SWAP1 PUSH1 0x20 ADD SWAP1 PUSH2 0x19A6 SWAP3 SWAP2 SWAP1 PUSH2 0x3250 JUMP JUMPDEST POP PUSH1 0x60 DUP3 ADD MLOAD DUP2 PUSH1 0x3 ADD SWAP1 DUP1 MLOAD SWAP1 PUSH1 0x20 ADD SWAP1 PUSH2 0x19C3 SWAP3 SWAP2 SWAP1 PUSH2 0x3250 JUMP JUMPDEST POP PUSH1 0x80 DUP3 ADD MLOAD DUP2 PUSH1 0x4 ADD SWAP1 DUP2 PUSH2 0x19D9 SWAP2 SWAP1 PUSH2 0x4402 JUMP JUMPDEST POP PUSH1 0xA0 DUP3 ADD MLOAD DUP2 PUSH1 0x5 ADD PUSH1 0x0 PUSH2 0x100 EXP DUP2 SLOAD DUP2 PUSH1 0xFF MUL NOT AND SWAP1 DUP4 ISZERO ISZERO MUL OR SWAP1 SSTORE POP PUSH1 0xC0 DUP3 ADD MLOAD DUP2 PUSH1 0x5 ADD PUSH1 0x1 PUSH2 0x100 EXP DUP2 SLOAD DUP2 PUSH1 0xFF MUL NOT AND SWAP1 DUP4 ISZERO ISZERO MUL OR SWAP1 SSTORE POP POP POP PUSH1 0x0 JUMPDEST PUSH1 0x5 DUP1 SLOAD SWAP1 POP DUP2 LT ISZERO PUSH2 0x1AC2 JUMPI PUSH1 0x5 DUP2 DUP2 SLOAD DUP2 LT PUSH2 0x1A40 JUMPI PUSH2 0x1A3F PUSH2 0x41BD JUMP JUMPDEST JUMPDEST SWAP1 PUSH1 0x0 MSTORE PUSH1 0x20 PUSH1 0x0 KECCAK256 SWAP1 PUSH1 0x6 MUL ADD PUSH1 0x0 ADD PUSH1 0x40 MLOAD PUSH1 0x20 ADD PUSH2 0x1A61 SWAP2 SWAP1 PUSH2 0x4621 JUMP JUMPDEST PUSH1 0x40 MLOAD PUSH1 0x20 DUP2 DUP4 SUB SUB DUP2 MSTORE SWAP1 PUSH1 0x40 MSTORE DUP1 MLOAD SWAP1 PUSH1 0x20 ADD KECCAK256 DUP7 PUSH1 0x40 MLOAD PUSH1 0x20 ADD PUSH2 0x1A88 SWAP2 SWAP1 PUSH2 0x4587 JUMP JUMPDEST PUSH1 0x40 MLOAD PUSH1 0x20 DUP2 DUP4 SUB SUB DUP2 MSTORE SWAP1 PUSH1 0x40 MSTORE DUP1 MLOAD SWAP1 PUSH1 0x20 ADD KECCAK256 SUB PUSH2 0x1AAF JUMPI PUSH2 0x1AAE DUP2 PUSH1 0x5 PUSH2 0x2EFD JUMP JUMPDEST JUMPDEST DUP1 DUP1 PUSH2 0x1ABA SWAP1 PUSH2 0x4503 JUMP JUMPDEST SWAP2 POP POP PUSH2 0x1A1F JUMP JUMPDEST POP POP POP POP POP POP JUMP JUMPDEST PUSH1 0x5 PUSH1 0x40 MLOAD DUP1 PUSH1 0xE0 ADD PUSH1 0x40 MSTORE DUP1 DUP8 DUP2 MSTORE PUSH1 0x20 ADD DUP7 DUP2 MSTORE PUSH1 0x20 ADD DUP6 DUP2 MSTORE PUSH1 0x20 ADD DUP5 DUP2 MSTORE PUSH1 0x20 ADD DUP4 DUP2 MSTORE PUSH1 0x20 ADD PUSH1 0x0 ISZERO ISZERO DUP2 MSTORE PUSH1 0x20 ADD PUSH1 0x0 ISZERO ISZERO DUP2 MSTORE POP SWAP1 DUP1 PUSH1 0x1 DUP2 SLOAD ADD DUP1 DUP3 SSTORE DUP1 SWAP2 POP POP PUSH1 0x1 SWAP1 SUB SWAP1 PUSH1 0x0 MSTORE PUSH1 0x20 PUSH1 0x0 KECCAK256 SWAP1 PUSH1 0x6 MUL ADD PUSH1 0x0 SWAP1 SWAP2 SWAP1 SWAP2 SWAP1 SWAP2 POP PUSH1 0x0 DUP3 ADD MLOAD DUP2 PUSH1 0x0 ADD SWAP1 DUP2 PUSH2 0x1B43 SWAP2 SWAP1 PUSH2 0x4402 JUMP JUMPDEST POP PUSH1 0x20 DUP3 ADD MLOAD DUP2 PUSH1 0x1 ADD SWAP1 DUP2 PUSH2 0x1B59 SWAP2 SWAP1 PUSH2 0x4402 JUMP JUMPDEST POP PUSH1 0x40 DUP3 ADD MLOAD DUP2 PUSH1 0x2 ADD SWAP1 DUP1 MLOAD SWAP1 PUSH1 0x20 ADD SWAP1 PUSH2 0x1B76 SWAP3 SWAP2 SWAP1 PUSH2 0x3250 JUMP JUMPDEST POP PUSH1 0x60 DUP3 ADD MLOAD DUP2 PUSH1 0x3 ADD SWAP1 DUP1 MLOAD SWAP1 PUSH1 0x20 ADD SWAP1 PUSH2 0x1B93 SWAP3 SWAP2 SWAP1 PUSH2 0x3250 JUMP JUMPDEST POP PUSH1 0x80 DUP3 ADD MLOAD DUP2 PUSH1 0x4 ADD SWAP1 DUP2 PUSH2 0x1BA9 SWAP2 SWAP1 PUSH2 0x4402 JUMP JUMPDEST POP PUSH1 0xA0 DUP3 ADD MLOAD DUP2 PUSH1 0x5 ADD PUSH1 0x0 PUSH2 0x100 EXP DUP2 SLOAD DUP2 PUSH1 0xFF MUL NOT AND SWAP1 DUP4 ISZERO ISZERO MUL OR SWAP1 SSTORE POP PUSH1 0xC0 DUP3 ADD MLOAD DUP2 PUSH1 0x5 ADD PUSH1 0x1 PUSH2 0x100 EXP DUP2 SLOAD DUP2 PUSH1 0xFF MUL NOT AND SWAP1 DUP4 ISZERO ISZERO MUL OR SWAP1 SSTORE POP POP POP PUSH1 0x0 JUMPDEST PUSH1 0x4 DUP1 SLOAD SWAP1 POP DUP2 LT ISZERO PUSH2 0x1C92 JUMPI PUSH1 0x4 DUP2 DUP2 SLOAD DUP2 LT PUSH2 0x1C10 JUMPI PUSH2 0x1C0F PUSH2 0x41BD JUMP JUMPDEST JUMPDEST SWAP1 PUSH1 0x0 MSTORE PUSH1 0x20 PUSH1 0x0 KECCAK256 SWAP1 PUSH1 0x4 MUL ADD PUSH1 0x0 ADD PUSH1 0x40 MLOAD PUSH1 0x20 ADD PUSH2 0x1C31 SWAP2 SWAP1 PUSH2 0x4621 JUMP JUMPDEST PUSH1 0x40 MLOAD PUSH1 0x20 DUP2 DUP4 SUB SUB DUP2 MSTORE SWAP1 PUSH1 0x40 MSTORE DUP1 MLOAD SWAP1 PUSH1 0x20 ADD KECCAK256 DUP7 PUSH1 0x40 MLOAD PUSH1 0x20 ADD PUSH2 0x1C58 SWAP2 SWAP1 PUSH2 0x4587 JUMP JUMPDEST PUSH1 0x40 MLOAD PUSH1 0x20 DUP2 DUP4 SUB SUB DUP2 MSTORE SWAP1 PUSH1 0x40 MSTORE DUP1 MLOAD SWAP1 PUSH1 0x20 ADD KECCAK256 SUB PUSH2 0x1C7F JUMPI PUSH2 0x1C7E DUP2 PUSH1 0x4 PUSH2 0x30FA JUMP JUMPDEST JUMPDEST DUP1 DUP1 PUSH2 0x1C8A SWAP1 PUSH2 0x4503 JUMP JUMPDEST SWAP2 POP POP PUSH2 0x1BEF JUMP JUMPDEST POP POP POP POP POP POP JUMP JUMPDEST PUSH1 0x60 PUSH1 0x3 DUP1 SLOAD DUP1 PUSH1 0x20 MUL PUSH1 0x20 ADD PUSH1 0x40 MLOAD SWAP1 DUP2 ADD PUSH1 0x40 MSTORE DUP1 SWAP3 SWAP2 SWAP1 DUP2 DUP2 MSTORE PUSH1 0x20 ADD PUSH1 0x0 SWAP1 JUMPDEST DUP3 DUP3 LT ISZERO PUSH2 0x1EA6 JUMPI DUP4 DUP3 SWAP1 PUSH1 0x0 MSTORE PUSH1 0x20 PUSH1 0x0 KECCAK256 SWAP1 PUSH1 0x3 MUL ADD PUSH1 0x40 MLOAD DUP1 PUSH1 0x60 ADD PUSH1 0x40 MSTORE SWAP1 DUP2 PUSH1 0x0 DUP3 ADD DUP1 SLOAD PUSH2 0x1CF1 SWAP1 PUSH2 0x421B JUMP JUMPDEST DUP1 PUSH1 0x1F ADD PUSH1 0x20 DUP1 SWAP2 DIV MUL PUSH1 0x20 ADD PUSH1 0x40 MLOAD SWAP1 DUP2 ADD PUSH1 0x40 MSTORE DUP1 SWAP3 SWAP2 SWAP1 DUP2 DUP2 MSTORE PUSH1 0x20 ADD DUP3 DUP1 SLOAD PUSH2 0x1D1D SWAP1 PUSH2 0x421B JUMP JUMPDEST DUP1 ISZERO PUSH2 0x1D6A JUMPI DUP1 PUSH1 0x1F LT PUSH2 0x1D3F JUMPI PUSH2 0x100 DUP1 DUP4 SLOAD DIV MUL DUP4 MSTORE SWAP2 PUSH1 0x20 ADD SWAP2 PUSH2 0x1D6A JUMP JUMPDEST DUP3 ADD SWAP2 SWAP1 PUSH1 0x0 MSTORE PUSH1 0x20 PUSH1 0x0 KECCAK256 SWAP1 JUMPDEST DUP2 SLOAD DUP2 MSTORE SWAP1 PUSH1 0x1 ADD SWAP1 PUSH1 0x20 ADD DUP1 DUP4 GT PUSH2 0x1D4D JUMPI DUP3 SWAP1 SUB PUSH1 0x1F AND DUP3 ADD SWAP2 JUMPDEST POP POP POP POP POP DUP2 MSTORE PUSH1 0x20 ADD PUSH1 0x1 DUP3 ADD DUP1 SLOAD PUSH2 0x1D83 SWAP1 PUSH2 0x421B JUMP JUMPDEST DUP1 PUSH1 0x1F ADD PUSH1 0x20 DUP1 SWAP2 DIV MUL PUSH1 0x20 ADD PUSH1 0x40 MLOAD SWAP1 DUP2 ADD PUSH1 0x40 MSTORE DUP1 SWAP3 SWAP2 SWAP1 DUP2 DUP2 MSTORE PUSH1 0x20 ADD DUP3 DUP1 SLOAD PUSH2 0x1DAF SWAP1 PUSH2 0x421B JUMP JUMPDEST DUP1 ISZERO PUSH2 0x1DFC JUMPI DUP1 PUSH1 0x1F LT PUSH2 0x1DD1 JUMPI PUSH2 0x100 DUP1 DUP4 SLOAD DIV MUL DUP4 MSTORE SWAP2 PUSH1 0x20 ADD SWAP2 PUSH2 0x1DFC JUMP JUMPDEST DUP3 ADD SWAP2 SWAP1 PUSH1 0x0 MSTORE PUSH1 0x20 PUSH1 0x0 KECCAK256 SWAP1 JUMPDEST DUP2 SLOAD DUP2 MSTORE SWAP1 PUSH1 0x1 ADD SWAP1 PUSH1 0x20 ADD DUP1 DUP4 GT PUSH2 0x1DDF JUMPI DUP3 SWAP1 SUB PUSH1 0x1F AND DUP3 ADD SWAP2 JUMPDEST POP POP POP POP POP DUP2 MSTORE PUSH1 0x20 ADD PUSH1 0x2 DUP3 ADD DUP1 SLOAD PUSH2 0x1E15 SWAP1 PUSH2 0x421B JUMP JUMPDEST DUP1 PUSH1 0x1F ADD PUSH1 0x20 DUP1 SWAP2 DIV MUL PUSH1 0x20 ADD PUSH1 0x40 MLOAD SWAP1 DUP2 ADD PUSH1 0x40 MSTORE DUP1 SWAP3 SWAP2 SWAP1 DUP2 DUP2 MSTORE PUSH1 0x20 ADD DUP3 DUP1 SLOAD PUSH2 0x1E41 SWAP1 PUSH2 0x421B JUMP JUMPDEST DUP1 ISZERO PUSH2 0x1E8E JUMPI DUP1 PUSH1 0x1F LT PUSH2 0x1E63 JUMPI PUSH2 0x100 DUP1 DUP4 SLOAD DIV MUL DUP4 MSTORE SWAP2 PUSH1 0x20 ADD SWAP2 PUSH2 0x1E8E JUMP JUMPDEST DUP3 ADD SWAP2 SWAP1 PUSH1 0x0 MSTORE PUSH1 0x20 PUSH1 0x0 KECCAK256 SWAP1 JUMPDEST DUP2 SLOAD DUP2 MSTORE SWAP1 PUSH1 0x1 ADD SWAP1 PUSH1 0x20 ADD DUP1 DUP4 GT PUSH2 0x1E71 JUMPI DUP3 SWAP1 SUB PUSH1 0x1F AND DUP3 ADD SWAP2 JUMPDEST POP POP POP POP POP DUP2 MSTORE POP POP DUP2 MSTORE PUSH1 0x20 ADD SWAP1 PUSH1 0x1 ADD SWAP1 PUSH2 0x1CBE JUMP JUMPDEST POP POP POP POP SWAP1 POP SWAP1 JUMP JUMPDEST PUSH1 0x60 PUSH1 0x1 DUP1 SLOAD DUP1 PUSH1 0x20 MUL PUSH1 0x20 ADD PUSH1 0x40 MLOAD SWAP1 DUP2 ADD PUSH1 0x40 MSTORE DUP1 SWAP3 SWAP2 SWAP1 DUP2 DUP2 MSTORE PUSH1 0x20 ADD PUSH1 0x0 SWAP1 JUMPDEST DUP3 DUP3 LT ISZERO PUSH2 0x20BB JUMPI DUP4 DUP3 SWAP1 PUSH1 0x0 MSTORE PUSH1 0x20 PUSH1 0x0 KECCAK256 SWAP1 PUSH1 0x3 MUL ADD PUSH1 0x40 MLOAD DUP1 PUSH1 0x60 ADD PUSH1 0x40 MSTORE SWAP1 DUP2 PUSH1 0x0 DUP3 ADD DUP1 SLOAD PUSH2 0x1F06 SWAP1 PUSH2 0x421B JUMP JUMPDEST DUP1 PUSH1 0x1F ADD PUSH1 0x20 DUP1 SWAP2 DIV MUL PUSH1 0x20 ADD PUSH1 0x40 MLOAD SWAP1 DUP2 ADD PUSH1 0x40 MSTORE DUP1 SWAP3 SWAP2 SWAP1 DUP2 DUP2 MSTORE PUSH1 0x20 ADD DUP3 DUP1 SLOAD PUSH2 0x1F32 SWAP1 PUSH2 0x421B JUMP JUMPDEST DUP1 ISZERO PUSH2 0x1F7F JUMPI DUP1 PUSH1 0x1F LT PUSH2 0x1F54 JUMPI PUSH2 0x100 DUP1 DUP4 SLOAD DIV MUL DUP4 MSTORE SWAP2 PUSH1 0x20 ADD SWAP2 PUSH2 0x1F7F JUMP JUMPDEST DUP3 ADD SWAP2 SWAP1 PUSH1 0x0 MSTORE PUSH1 0x20 PUSH1 0x0 KECCAK256 SWAP1 JUMPDEST DUP2 SLOAD DUP2 MSTORE SWAP1 PUSH1 0x1 ADD SWAP1 PUSH1 0x20 ADD DUP1 DUP4 GT PUSH2 0x1F62 JUMPI DUP3 SWAP1 SUB PUSH1 0x1F AND DUP3 ADD SWAP2 JUMPDEST POP POP POP POP POP DUP2 MSTORE PUSH1 0x20 ADD PUSH1 0x1 DUP3 ADD DUP1 SLOAD PUSH2 0x1F98 SWAP1 PUSH2 0x421B JUMP JUMPDEST DUP1 PUSH1 0x1F ADD PUSH1 0x20 DUP1 SWAP2 DIV MUL PUSH1 0x20 ADD PUSH1 0x40 MLOAD SWAP1 DUP2 ADD PUSH1 0x40 MSTORE DUP1 SWAP3 SWAP2 SWAP1 DUP2 DUP2 MSTORE PUSH1 0x20 ADD DUP3 DUP1 SLOAD PUSH2 0x1FC4 SWAP1 PUSH2 0x421B JUMP JUMPDEST DUP1 ISZERO PUSH2 0x2011 JUMPI DUP1 PUSH1 0x1F LT PUSH2 0x1FE6 JUMPI PUSH2 0x100 DUP1 DUP4 SLOAD DIV MUL DUP4 MSTORE SWAP2 PUSH1 0x20 ADD SWAP2 PUSH2 0x2011 JUMP JUMPDEST DUP3 ADD SWAP2 SWAP1 PUSH1 0x0 MSTORE PUSH1 0x20 PUSH1 0x0 KECCAK256 SWAP1 JUMPDEST DUP2 SLOAD DUP2 MSTORE SWAP1 PUSH1 0x1 ADD SWAP1 PUSH1 0x20 ADD DUP1 DUP4 GT PUSH2 0x1FF4 JUMPI DUP3 SWAP1 SUB PUSH1 0x1F AND DUP3 ADD SWAP2 JUMPDEST POP POP POP POP POP DUP2 MSTORE PUSH1 0x20 ADD PUSH1 0x2 DUP3 ADD DUP1 SLOAD PUSH2 0x202A SWAP1 PUSH2 0x421B JUMP JUMPDEST DUP1 PUSH1 0x1F ADD PUSH1 0x20 DUP1 SWAP2 DIV MUL PUSH1 0x20 ADD PUSH1 0x40 MLOAD SWAP1 DUP2 ADD PUSH1 0x40 MSTORE DUP1 SWAP3 SWAP2 SWAP1 DUP2 DUP2 MSTORE PUSH1 0x20 ADD DUP3 DUP1 SLOAD PUSH2 0x2056 SWAP1 PUSH2 0x421B JUMP JUMPDEST DUP1 ISZERO PUSH2 0x20A3 JUMPI DUP1 PUSH1 0x1F LT PUSH2 0x2078 JUMPI PUSH2 0x100 DUP1 DUP4 SLOAD DIV MUL DUP4 MSTORE SWAP2 PUSH1 0x20 ADD SWAP2 PUSH2 0x20A3 JUMP JUMPDEST DUP3 ADD SWAP2 SWAP1 PUSH1 0x0 MSTORE PUSH1 0x20 PUSH1 0x0 KECCAK256 SWAP1 JUMPDEST DUP2 SLOAD DUP2 MSTORE SWAP1 PUSH1 0x1 ADD SWAP1 PUSH1 0x20 ADD DUP1 DUP4 GT PUSH2 0x2086 JUMPI DUP3 SWAP1 SUB PUSH1 0x1F AND DUP3 ADD SWAP2 JUMPDEST POP POP POP POP POP DUP2 MSTORE POP POP DUP2 MSTORE PUSH1 0x20 ADD SWAP1 PUSH1 0x1 ADD SWAP1 PUSH2 0x1ED3 JUMP JUMPDEST POP POP POP POP SWAP1 POP SWAP1 JUMP JUMPDEST PUSH1 0x8 PUSH1 0x40 MLOAD DUP1 PUSH1 0xE0 ADD PUSH1 0x40 MSTORE DUP1 DUP8 DUP2 MSTORE PUSH1 0x20 ADD DUP7 DUP2 MSTORE PUSH1 0x20 ADD DUP6 DUP2 MSTORE PUSH1 0x20 ADD DUP5 DUP2 MSTORE PUSH1 0x20 ADD DUP4 DUP2 MSTORE PUSH1 0x20 ADD PUSH1 0x1 ISZERO ISZERO DUP2 MSTORE PUSH1 0x20 ADD PUSH1 0x1 ISZERO ISZERO DUP2 MSTORE POP SWAP1 DUP1 PUSH1 0x1 DUP2 SLOAD ADD DUP1 DUP3 SSTORE DUP1 SWAP2 POP POP PUSH1 0x1 SWAP1 SUB SWAP1 PUSH1 0x0 MSTORE PUSH1 0x20 PUSH1 0x0 KECCAK256 SWAP1 PUSH1 0x6 MUL ADD PUSH1 0x0 SWAP1 SWAP2 SWAP1 SWAP2 SWAP1 SWAP2 POP PUSH1 0x0 DUP3 ADD MLOAD DUP2 PUSH1 0x0 ADD SWAP1 DUP2 PUSH2 0x213D SWAP2 SWAP1 PUSH2 0x4402 JUMP JUMPDEST POP PUSH1 0x20 DUP3 ADD MLOAD DUP2 PUSH1 0x1 ADD SWAP1 DUP2 PUSH2 0x2153 SWAP2 SWAP1 PUSH2 0x4402 JUMP JUMPDEST POP PUSH1 0x40 DUP3 ADD MLOAD DUP2 PUSH1 0x2 ADD SWAP1 DUP1 MLOAD SWAP1 PUSH1 0x20 ADD SWAP1 PUSH2 0x2170 SWAP3 SWAP2 SWAP1 PUSH2 0x3250 JUMP JUMPDEST POP PUSH1 0x60 DUP3 ADD MLOAD DUP2 PUSH1 0x3 ADD SWAP1 DUP1 MLOAD SWAP1 PUSH1 0x20 ADD SWAP1 PUSH2 0x218D SWAP3 SWAP2 SWAP1 PUSH2 0x3250 JUMP JUMPDEST POP PUSH1 0x80 DUP3 ADD MLOAD DUP2 PUSH1 0x4 ADD SWAP1 DUP2 PUSH2 0x21A3 SWAP2 SWAP1 PUSH2 0x4402 JUMP JUMPDEST POP PUSH1 0xA0 DUP3 ADD MLOAD DUP2 PUSH1 0x5 ADD PUSH1 0x0 PUSH2 0x100 EXP DUP2 SLOAD DUP2 PUSH1 0xFF MUL NOT AND SWAP1 DUP4 ISZERO ISZERO MUL OR SWAP1 SSTORE POP PUSH1 0xC0 DUP3 ADD MLOAD DUP2 PUSH1 0x5 ADD PUSH1 0x1 PUSH2 0x100 EXP DUP2 SLOAD DUP2 PUSH1 0xFF MUL NOT AND SWAP1 DUP4 ISZERO ISZERO MUL OR SWAP1 SSTORE POP POP POP PUSH1 0x0 JUMPDEST PUSH1 0x6 DUP1 SLOAD SWAP1 POP DUP2 LT ISZERO PUSH2 0x228C JUMPI PUSH1 0x6 DUP2 DUP2 SLOAD DUP2 LT PUSH2 0x220A JUMPI PUSH2 0x2209 PUSH2 0x41BD JUMP JUMPDEST JUMPDEST SWAP1 PUSH1 0x0 MSTORE PUSH1 0x20 PUSH1 0x0 KECCAK256 SWAP1 PUSH1 0x6 MUL ADD PUSH1 0x0 ADD PUSH1 0x40 MLOAD PUSH1 0x20 ADD PUSH2 0x222B SWAP2 SWAP1 PUSH2 0x4621 JUMP JUMPDEST PUSH1 0x40 MLOAD PUSH1 0x20 DUP2 DUP4 SUB SUB DUP2 MSTORE SWAP1 PUSH1 0x40 MSTORE DUP1 MLOAD SWAP1 PUSH1 0x20 ADD KECCAK256 DUP7 PUSH1 0x40 MLOAD PUSH1 0x20 ADD PUSH2 0x2252 SWAP2 SWAP1 PUSH2 0x4587 JUMP JUMPDEST PUSH1 0x40 MLOAD PUSH1 0x20 DUP2 DUP4 SUB SUB DUP2 MSTORE SWAP1 PUSH1 0x40 MSTORE DUP1 MLOAD SWAP1 PUSH1 0x20 ADD KECCAK256 SUB PUSH2 0x2279 JUMPI PUSH2 0x2278 DUP2 PUSH1 0x6 PUSH2 0x2EFD JUMP JUMPDEST JUMPDEST DUP1 DUP1 PUSH2 0x2284 SWAP1 PUSH2 0x4503 JUMP JUMPDEST SWAP2 POP POP PUSH2 0x21E9 JUMP JUMPDEST POP PUSH1 0x6 PUSH1 0x40 MLOAD DUP1 PUSH1 0xE0 ADD PUSH1 0x40 MSTORE DUP1 DUP8 DUP2 MSTORE PUSH1 0x20 ADD DUP7 DUP2 MSTORE PUSH1 0x20 ADD DUP6 DUP2 MSTORE PUSH1 0x20 ADD DUP5 DUP2 MSTORE PUSH1 0x20 ADD DUP4 DUP2 MSTORE PUSH1 0x20 ADD PUSH1 0x1 ISZERO ISZERO DUP2 MSTORE PUSH1 0x20 ADD PUSH1 0x1 ISZERO ISZERO DUP2 MSTORE POP SWAP1 DUP1 PUSH1 0x1 DUP2 SLOAD ADD DUP1 DUP3 SSTORE DUP1 SWAP2 POP POP PUSH1 0x1 SWAP1 SUB SWAP1 PUSH1 0x0 MSTORE PUSH1 0x20 PUSH1 0x0 KECCAK256 SWAP1 PUSH1 0x6 MUL ADD PUSH1 0x0 SWAP1 SWAP2 SWAP1 SWAP2 SWAP1 SWAP2 POP PUSH1 0x0 DUP3 ADD MLOAD DUP2 PUSH1 0x0 ADD SWAP1 DUP2 PUSH2 0x2306 SWAP2 SWAP1 PUSH2 0x4402 JUMP JUMPDEST POP PUSH1 0x20 DUP3 ADD MLOAD DUP2 PUSH1 0x1 ADD SWAP1 DUP2 PUSH2 0x231C SWAP2 SWAP1 PUSH2 0x4402 JUMP JUMPDEST POP PUSH1 0x40 DUP3 ADD MLOAD DUP2 PUSH1 0x2 ADD SWAP1 DUP1 MLOAD SWAP1 PUSH1 0x20 ADD SWAP1 PUSH2 0x2339 SWAP3 SWAP2 SWAP1 PUSH2 0x3250 JUMP JUMPDEST POP PUSH1 0x60 DUP3 ADD MLOAD DUP2 PUSH1 0x3 ADD SWAP1 DUP1 MLOAD SWAP1 PUSH1 0x20 ADD SWAP1 PUSH2 0x2356 SWAP3 SWAP2 SWAP1 PUSH2 0x3250 JUMP JUMPDEST POP PUSH1 0x80 DUP3 ADD MLOAD DUP2 PUSH1 0x4 ADD SWAP1 DUP2 PUSH2 0x236C SWAP2 SWAP1 PUSH2 0x4402 JUMP JUMPDEST POP PUSH1 0xA0 DUP3 ADD MLOAD DUP2 PUSH1 0x5 ADD PUSH1 0x0 PUSH2 0x100 EXP DUP2 SLOAD DUP2 PUSH1 0xFF MUL NOT AND SWAP1 DUP4 ISZERO ISZERO MUL OR SWAP1 SSTORE POP PUSH1 0xC0 DUP3 ADD MLOAD DUP2 PUSH1 0x5 ADD PUSH1 0x1 PUSH2 0x100 EXP DUP2 SLOAD DUP2 PUSH1 0xFF MUL NOT AND SWAP1 DUP4 ISZERO ISZERO MUL OR SWAP1 SSTORE POP POP POP POP POP POP POP POP JUMP JUMPDEST PUSH1 0x60 PUSH1 0x8 DUP1 SLOAD DUP1 PUSH1 0x20 MUL PUSH1 0x20 ADD PUSH1 0x40 MLOAD SWAP1 DUP2 ADD PUSH1 0x40 MSTORE DUP1 SWAP3 SWAP2 SWAP1 DUP2 DUP2 MSTORE PUSH1 0x20 ADD PUSH1 0x0 SWAP1 JUMPDEST DUP3 DUP3 LT ISZERO PUSH2 0x2838 JUMPI DUP4 DUP3 SWAP1 PUSH1 0x0 MSTORE PUSH1 0x20 PUSH1 0x0 KECCAK256 SWAP1 PUSH1 0x6 MUL ADD PUSH1 0x40 MLOAD DUP1 PUSH1 0xE0 ADD PUSH1 0x40 MSTORE SWAP1 DUP2 PUSH1 0x0 DUP3 ADD DUP1 SLOAD PUSH2 0x240D SWAP1 PUSH2 0x421B JUMP JUMPDEST DUP1 PUSH1 0x1F ADD PUSH1 0x20 DUP1 SWAP2 DIV MUL PUSH1 0x20 ADD PUSH1 0x40 MLOAD SWAP1 DUP2 ADD PUSH1 0x40 MSTORE DUP1 SWAP3 SWAP2 SWAP1 DUP2 DUP2 MSTORE PUSH1 0x20 ADD DUP3 DUP1 SLOAD PUSH2 0x2439 SWAP1 PUSH2 0x421B JUMP JUMPDEST DUP1 ISZERO PUSH2 0x2486 JUMPI DUP1 PUSH1 0x1F LT PUSH2 0x245B JUMPI PUSH2 0x100 DUP1 DUP4 SLOAD DIV MUL DUP4 MSTORE SWAP2 PUSH1 0x20 ADD SWAP2 PUSH2 0x2486 JUMP JUMPDEST DUP3 ADD SWAP2 SWAP1 PUSH1 0x0 MSTORE PUSH1 0x20 PUSH1 0x0 KECCAK256 SWAP1 JUMPDEST DUP2 SLOAD DUP2 MSTORE SWAP1 PUSH1 0x1 ADD SWAP1 PUSH1 0x20 ADD DUP1 DUP4 GT PUSH2 0x2469 JUMPI DUP3 SWAP1 SUB PUSH1 0x1F AND DUP3 ADD SWAP2 JUMPDEST POP POP POP POP POP DUP2 MSTORE PUSH1 0x20 ADD PUSH1 0x1 DUP3 ADD DUP1 SLOAD PUSH2 0x249F SWAP1 PUSH2 0x421B JUMP JUMPDEST DUP1 PUSH1 0x1F ADD PUSH1 0x20 DUP1 SWAP2 DIV MUL PUSH1 0x20 ADD PUSH1 0x40 MLOAD SWAP1 DUP2 ADD PUSH1 0x40 MSTORE DUP1 SWAP3 SWAP2 SWAP1 DUP2 DUP2 MSTORE PUSH1 0x20 ADD DUP3 DUP1 SLOAD PUSH2 0x24CB SWAP1 PUSH2 0x421B JUMP JUMPDEST DUP1 ISZERO PUSH2 0x2518 JUMPI DUP1 PUSH1 0x1F LT PUSH2 0x24ED JUMPI PUSH2 0x100 DUP1 DUP4 SLOAD DIV MUL DUP4 MSTORE SWAP2 PUSH1 0x20 ADD SWAP2 PUSH2 0x2518 JUMP JUMPDEST DUP3 ADD SWAP2 SWAP1 PUSH1 0x0 MSTORE PUSH1 0x20 PUSH1 0x0 KECCAK256 SWAP1 JUMPDEST DUP2 SLOAD DUP2 MSTORE SWAP1 PUSH1 0x1 ADD SWAP1 PUSH1 0x20 ADD DUP1 DUP4 GT PUSH2 0x24FB JUMPI DUP3 SWAP1 SUB PUSH1 0x1F AND DUP3 ADD SWAP2 JUMPDEST POP POP POP POP POP DUP2 MSTORE PUSH1 0x20 ADD PUSH1 0x2 DUP3 ADD DUP1 SLOAD DUP1 PUSH1 0x20 MUL PUSH1 0x20 ADD PUSH1 0x40 MLOAD SWAP1 DUP2 ADD PUSH1 0x40 MSTORE DUP1 SWAP3 SWAP2 SWAP1 DUP2 DUP2 MSTORE PUSH1 0x20 ADD PUSH1 0x0 SWAP1 JUMPDEST DUP3 DUP3 LT ISZERO PUSH2 0x2639 JUMPI DUP4 DUP3 SWAP1 PUSH1 0x0 MSTORE PUSH1 0x20 PUSH1 0x0 KECCAK256 ADD DUP1 SLOAD DUP1 PUSH1 0x20 MUL PUSH1 0x20 ADD PUSH1 0x40 MLOAD SWAP1 DUP2 ADD PUSH1 0x40 MSTORE DUP1 SWAP3 SWAP2 SWAP1 DUP2 DUP2 MSTORE PUSH1 0x20 ADD PUSH1 0x0 SWAP1 JUMPDEST DUP3 DUP3 LT ISZERO PUSH2 0x2626 JUMPI DUP4 DUP3 SWAP1 PUSH1 0x0 MSTORE PUSH1 0x20 PUSH1 0x0 KECCAK256 ADD DUP1 SLOAD PUSH2 0x2599 SWAP1 PUSH2 0x421B JUMP JUMPDEST DUP1 PUSH1 0x1F ADD PUSH1 0x20 DUP1 SWAP2 DIV MUL PUSH1 0x20 ADD PUSH1 0x40 MLOAD SWAP1 DUP2 ADD PUSH1 0x40 MSTORE DUP1 SWAP3 SWAP2 SWAP1 DUP2 DUP2 MSTORE PUSH1 0x20 ADD DUP3 DUP1 SLOAD PUSH2 0x25C5 SWAP1 PUSH2 0x421B JUMP JUMPDEST DUP1 ISZERO PUSH2 0x2612 JUMPI DUP1 PUSH1 0x1F LT PUSH2 0x25E7 JUMPI PUSH2 0x100 DUP1 DUP4 SLOAD DIV MUL DUP4 MSTORE SWAP2 PUSH1 0x20 ADD SWAP2 PUSH2 0x2612 JUMP JUMPDEST DUP3 ADD SWAP2 SWAP1 PUSH1 0x0 MSTORE PUSH1 0x20 PUSH1 0x0 KECCAK256 SWAP1 JUMPDEST DUP2 SLOAD DUP2 MSTORE SWAP1 PUSH1 0x1 ADD SWAP1 PUSH1 0x20 ADD DUP1 DUP4 GT PUSH2 0x25F5 JUMPI DUP3 SWAP1 SUB PUSH1 0x1F AND DUP3 ADD SWAP2 JUMPDEST POP POP POP POP POP DUP2 MSTORE PUSH1 0x20 ADD SWAP1 PUSH1 0x1 ADD SWAP1 PUSH2 0x257A JUMP JUMPDEST POP POP POP POP DUP2 MSTORE PUSH1 0x20 ADD SWAP1 PUSH1 0x1 ADD SWAP1 PUSH2 0x2546 JUMP JUMPDEST POP POP POP POP DUP2 MSTORE PUSH1 0x20 ADD PUSH1 0x3 DUP3 ADD DUP1 SLOAD DUP1 PUSH1 0x20 MUL PUSH1 0x20 ADD PUSH1 0x40 MLOAD SWAP1 DUP2 ADD PUSH1 0x40 MSTORE DUP1 SWAP3 SWAP2 SWAP1 DUP2 DUP2 MSTORE PUSH1 0x20 ADD PUSH1 0x0 SWAP1 JUMPDEST DUP3 DUP3 LT ISZERO PUSH2 0x2759 JUMPI DUP4 DUP3 SWAP1 PUSH1 0x0 MSTORE PUSH1 0x20 PUSH1 0x0 KECCAK256 ADD DUP1 SLOAD DUP1 PUSH1 0x20 MUL PUSH1 0x20 ADD PUSH1 0x40 MLOAD SWAP1 DUP2 ADD PUSH1 0x40 MSTORE DUP1 SWAP3 SWAP2 SWAP1 DUP2 DUP2 MSTORE PUSH1 0x20 ADD PUSH1 0x0 SWAP1 JUMPDEST DUP3 DUP3 LT ISZERO PUSH2 0x2746 JUMPI DUP4 DUP3 SWAP1 PUSH1 0x0 MSTORE PUSH1 0x20 PUSH1 0x0 KECCAK256 ADD DUP1 SLOAD PUSH2 0x26B9 SWAP1 PUSH2 0x421B JUMP JUMPDEST DUP1 PUSH1 0x1F ADD PUSH1 0x20 DUP1 SWAP2 DIV MUL PUSH1 0x20 ADD PUSH1 0x40 MLOAD SWAP1 DUP2 ADD PUSH1 0x40 MSTORE DUP1 SWAP3 SWAP2 SWAP1 DUP2 DUP2 MSTORE PUSH1 0x20 ADD DUP3 DUP1 SLOAD PUSH2 0x26E5 SWAP1 PUSH2 0x421B JUMP JUMPDEST DUP1 ISZERO PUSH2 0x2732 JUMPI DUP1 PUSH1 0x1F LT PUSH2 0x2707 JUMPI PUSH2 0x100 DUP1 DUP4 SLOAD DIV MUL DUP4 MSTORE SWAP2 PUSH1 0x20 ADD SWAP2 PUSH2 0x2732 JUMP JUMPDEST DUP3 ADD SWAP2 SWAP1 PUSH1 0x0 MSTORE PUSH1 0x20 PUSH1 0x0 KECCAK256 SWAP1 JUMPDEST DUP2 SLOAD DUP2 MSTORE SWAP1 PUSH1 0x1 ADD SWAP1 PUSH1 0x20 ADD DUP1 DUP4 GT PUSH2 0x2715 JUMPI DUP3 SWAP1 SUB PUSH1 0x1F AND DUP3 ADD SWAP2 JUMPDEST POP POP POP POP POP DUP2 MSTORE PUSH1 0x20 ADD SWAP1 PUSH1 0x1 ADD SWAP1 PUSH2 0x269A JUMP JUMPDEST POP POP POP POP DUP2 MSTORE PUSH1 0x20 ADD SWAP1 PUSH1 0x1 ADD SWAP1 PUSH2 0x2666 JUMP JUMPDEST POP POP POP POP DUP2 MSTORE PUSH1 0x20 ADD PUSH1 0x4 DUP3 ADD DUP1 SLOAD PUSH2 0x2771 SWAP1 PUSH2 0x421B JUMP JUMPDEST DUP1 PUSH1 0x1F ADD PUSH1 0x20 DUP1 SWAP2 DIV MUL PUSH1 0x20 ADD PUSH1 0x40 MLOAD SWAP1 DUP2 ADD PUSH1 0x40 MSTORE DUP1 SWAP3 SWAP2 SWAP1 DUP2 DUP2 MSTORE PUSH1 0x20 ADD DUP3 DUP1 SLOAD PUSH2 0x279D SWAP1 PUSH2 0x421B JUMP JUMPDEST DUP1 ISZERO PUSH2 0x27EA JUMPI DUP1 PUSH1 0x1F LT PUSH2 0x27BF JUMPI PUSH2 0x100 DUP1 DUP4 SLOAD DIV MUL DUP4 MSTORE SWAP2 PUSH1 0x20 ADD SWAP2 PUSH2 0x27EA JUMP JUMPDEST DUP3 ADD SWAP2 SWAP1 PUSH1 0x0 MSTORE PUSH1 0x20 PUSH1 0x0 KECCAK256 SWAP1 JUMPDEST DUP2 SLOAD DUP2 MSTORE SWAP1 PUSH1 0x1 ADD SWAP1 PUSH1 0x20 ADD DUP1 DUP4 GT PUSH2 0x27CD JUMPI DUP3 SWAP1 SUB PUSH1 0x1F AND DUP3 ADD SWAP2 JUMPDEST POP POP POP POP POP DUP2 MSTORE PUSH1 0x20 ADD PUSH1 0x5 DUP3 ADD PUSH1 0x0 SWAP1 SLOAD SWAP1 PUSH2 0x100 EXP SWAP1 DIV PUSH1 0xFF AND ISZERO ISZERO ISZERO ISZERO DUP2 MSTORE PUSH1 0x20 ADD PUSH1 0x5 DUP3 ADD PUSH1 0x1 SWAP1 SLOAD SWAP1 PUSH2 0x100 EXP SWAP1 DIV PUSH1 0xFF AND ISZERO ISZERO ISZERO ISZERO DUP2 MSTORE POP POP DUP2 MSTORE PUSH1 0x20 ADD SWAP1 PUSH1 0x1 ADD SWAP1 PUSH2 0x23DA JUMP JUMPDEST POP POP POP POP SWAP1 POP SWAP1 JUMP JUMPDEST PUSH1 0x7 PUSH1 0x40 MLOAD DUP1 PUSH1 0xE0 ADD PUSH1 0x40 MSTORE DUP1 DUP8 DUP2 MSTORE PUSH1 0x20 ADD DUP7 DUP2 MSTORE PUSH1 0x20 ADD DUP6 DUP2 MSTORE PUSH1 0x20 ADD DUP5 DUP2 MSTORE PUSH1 0x20 ADD DUP4 DUP2 MSTORE PUSH1 0x20 ADD PUSH1 0x0 ISZERO ISZERO DUP2 MSTORE PUSH1 0x20 ADD PUSH1 0x0 ISZERO ISZERO DUP2 MSTORE POP SWAP1 DUP1 PUSH1 0x1 DUP2 SLOAD ADD DUP1 DUP3 SSTORE DUP1 SWAP2 POP POP PUSH1 0x1 SWAP1 SUB SWAP1 PUSH1 0x0 MSTORE PUSH1 0x20 PUSH1 0x0 KECCAK256 SWAP1 PUSH1 0x6 MUL ADD PUSH1 0x0 SWAP1 SWAP2 SWAP1 SWAP2 SWAP1 SWAP2 POP PUSH1 0x0 DUP3 ADD MLOAD DUP2 PUSH1 0x0 ADD SWAP1 DUP2 PUSH2 0x28BA SWAP2 SWAP1 PUSH2 0x4402 JUMP JUMPDEST POP PUSH1 0x20 DUP3 ADD MLOAD DUP2 PUSH1 0x1 ADD SWAP1 DUP2 PUSH2 0x28D0 SWAP2 SWAP1 PUSH2 0x4402 JUMP JUMPDEST POP PUSH1 0x40 DUP3 ADD MLOAD DUP2 PUSH1 0x2 ADD SWAP1 DUP1 MLOAD SWAP1 PUSH1 0x20 ADD SWAP1 PUSH2 0x28ED SWAP3 SWAP2 SWAP1 PUSH2 0x3250 JUMP JUMPDEST POP PUSH1 0x60 DUP3 ADD MLOAD DUP2 PUSH1 0x3 ADD SWAP1 DUP1 MLOAD SWAP1 PUSH1 0x20 ADD SWAP1 PUSH2 0x290A SWAP3 SWAP2 SWAP1 PUSH2 0x3250 JUMP JUMPDEST POP PUSH1 0x80 DUP3 ADD MLOAD DUP2 PUSH1 0x4 ADD SWAP1 DUP2 PUSH2 0x2920 SWAP2 SWAP1 PUSH2 0x4402 JUMP JUMPDEST POP PUSH1 0xA0 DUP3 ADD MLOAD DUP2 PUSH1 0x5 ADD PUSH1 0x0 PUSH2 0x100 EXP DUP2 SLOAD DUP2 PUSH1 0xFF MUL NOT AND SWAP1 DUP4 ISZERO ISZERO MUL OR SWAP1 SSTORE POP PUSH1 0xC0 DUP3 ADD MLOAD DUP2 PUSH1 0x5 ADD PUSH1 0x1 PUSH2 0x100 EXP DUP2 SLOAD DUP2 PUSH1 0xFF MUL NOT AND SWAP1 DUP4 ISZERO ISZERO MUL OR SWAP1 SSTORE POP POP POP PUSH1 0x0 JUMPDEST PUSH1 0x5 DUP1 SLOAD SWAP1 POP DUP2 LT ISZERO PUSH2 0x2A09 JUMPI PUSH1 0x5 DUP2 DUP2 SLOAD DUP2 LT PUSH2 0x2987 JUMPI PUSH2 0x2986 PUSH2 0x41BD JUMP JUMPDEST JUMPDEST SWAP1 PUSH1 0x0 MSTORE PUSH1 0x20 PUSH1 0x0 KECCAK256 SWAP1 PUSH1 0x6 MUL ADD PUSH1 0x0 ADD PUSH1 0x40 MLOAD PUSH1 0x20 ADD PUSH2 0x29A8 SWAP2 SWAP1 PUSH2 0x4621 JUMP JUMPDEST PUSH1 0x40 MLOAD PUSH1 0x20 DUP2 DUP4 SUB SUB DUP2 MSTORE SWAP1 PUSH1 0x40 MSTORE DUP1 MLOAD SWAP1 PUSH1 0x20 ADD KECCAK256 DUP7 PUSH1 0x40 MLOAD PUSH1 0x20 ADD PUSH2 0x29CF SWAP2 SWAP1 PUSH2 0x4587 JUMP JUMPDEST PUSH1 0x40 MLOAD PUSH1 0x20 DUP2 DUP4 SUB SUB DUP2 MSTORE SWAP1 PUSH1 0x40 MSTORE DUP1 MLOAD SWAP1 PUSH1 0x20 ADD KECCAK256 SUB PUSH2 0x29F6 JUMPI PUSH2 0x29F5 DUP2 PUSH1 0x5 PUSH2 0x2EFD JUMP JUMPDEST JUMPDEST DUP1 DUP1 PUSH2 0x2A01 SWAP1 PUSH2 0x4503 JUMP JUMPDEST SWAP2 POP POP PUSH2 0x2966 JUMP JUMPDEST POP PUSH1 0x0 JUMPDEST DUP4 MLOAD DUP2 LT ISZERO PUSH2 0x2B52 JUMPI PUSH1 0x1 PUSH1 0x40 MLOAD DUP1 PUSH1 0x60 ADD PUSH1 0x40 MSTORE DUP1 DUP7 DUP5 DUP2 MLOAD DUP2 LT PUSH2 0x2A36 JUMPI PUSH2 0x2A35 PUSH2 0x41BD JUMP JUMPDEST JUMPDEST PUSH1 0x20 MUL PUSH1 0x20 ADD ADD MLOAD PUSH1 0x0 DUP2 MLOAD DUP2 LT PUSH2 0x2A51 JUMPI PUSH2 0x2A50 PUSH2 0x41BD JUMP JUMPDEST JUMPDEST PUSH1 0x20 MUL PUSH1 0x20 ADD ADD MLOAD DUP2 MSTORE PUSH1 0x20 ADD DUP7 DUP5 DUP2 MLOAD DUP2 LT PUSH2 0x2A71 JUMPI PUSH2 0x2A70 PUSH2 0x41BD JUMP JUMPDEST JUMPDEST PUSH1 0x20 MUL PUSH1 0x20 ADD ADD MLOAD PUSH1 0x1 DUP2 MLOAD DUP2 LT PUSH2 0x2A8C JUMPI PUSH2 0x2A8B PUSH2 0x41BD JUMP JUMPDEST JUMPDEST PUSH1 0x20 MUL PUSH1 0x20 ADD ADD MLOAD DUP2 MSTORE PUSH1 0x20 ADD DUP7 DUP5 DUP2 MLOAD DUP2 LT PUSH2 0x2AAC JUMPI PUSH2 0x2AAB PUSH2 0x41BD JUMP JUMPDEST JUMPDEST PUSH1 0x20 MUL PUSH1 0x20 ADD ADD MLOAD PUSH1 0x2 DUP2 MLOAD DUP2 LT PUSH2 0x2AC7 JUMPI PUSH2 0x2AC6 PUSH2 0x41BD JUMP JUMPDEST JUMPDEST PUSH1 0x20 MUL PUSH1 0x20 ADD ADD MLOAD DUP2 MSTORE POP SWAP1 DUP1 PUSH1 0x1 DUP2 SLOAD ADD DUP1 DUP3 SSTORE DUP1 SWAP2 POP POP PUSH1 0x1 SWAP1 SUB SWAP1 PUSH1 0x0 MSTORE PUSH1 0x20 PUSH1 0x0 KECCAK256 SWAP1 PUSH1 0x3 MUL ADD PUSH1 0x0 SWAP1 SWAP2 SWAP1 SWAP2 SWAP1 SWAP2 POP PUSH1 0x0 DUP3 ADD MLOAD DUP2 PUSH1 0x0 ADD SWAP1 DUP2 PUSH2 0x2B10 SWAP2 SWAP1 PUSH2 0x4402 JUMP JUMPDEST POP PUSH1 0x20 DUP3 ADD MLOAD DUP2 PUSH1 0x1 ADD SWAP1 DUP2 PUSH2 0x2B26 SWAP2 SWAP1 PUSH2 0x4402 JUMP JUMPDEST POP PUSH1 0x40 DUP3 ADD MLOAD DUP2 PUSH1 0x2 ADD SWAP1 DUP2 PUSH2 0x2B3C SWAP2 SWAP1 PUSH2 0x4402 JUMP JUMPDEST POP POP POP DUP1 DUP1 PUSH2 0x2B4A SWAP1 PUSH2 0x4503 JUMP JUMPDEST SWAP2 POP POP PUSH2 0x2A0D JUMP JUMPDEST POP PUSH1 0x0 JUMPDEST DUP3 MLOAD DUP2 LT ISZERO PUSH2 0x2C9B JUMPI PUSH1 0x3 PUSH1 0x40 MLOAD DUP1 PUSH1 0x60 ADD PUSH1 0x40 MSTORE DUP1 DUP6 DUP5 DUP2 MLOAD DUP2 LT PUSH2 0x2B7F JUMPI PUSH2 0x2B7E PUSH2 0x41BD JUMP JUMPDEST JUMPDEST PUSH1 0x20 MUL PUSH1 0x20 ADD ADD MLOAD PUSH1 0x0 DUP2 MLOAD DUP2 LT PUSH2 0x2B9A JUMPI PUSH2 0x2B99 PUSH2 0x41BD JUMP JUMPDEST JUMPDEST PUSH1 0x20 MUL PUSH1 0x20 ADD ADD MLOAD DUP2 MSTORE PUSH1 0x20 ADD DUP6 DUP5 DUP2 MLOAD DUP2 LT PUSH2 0x2BBA JUMPI PUSH2 0x2BB9 PUSH2 0x41BD JUMP JUMPDEST JUMPDEST PUSH1 0x20 MUL PUSH1 0x20 ADD ADD MLOAD PUSH1 0x1 DUP2 MLOAD DUP2 LT PUSH2 0x2BD5 JUMPI PUSH2 0x2BD4 PUSH2 0x41BD JUMP JUMPDEST JUMPDEST PUSH1 0x20 MUL PUSH1 0x20 ADD ADD MLOAD DUP2 MSTORE PUSH1 0x20 ADD DUP6 DUP5 DUP2 MLOAD DUP2 LT PUSH2 0x2BF5 JUMPI PUSH2 0x2BF4 PUSH2 0x41BD JUMP JUMPDEST JUMPDEST PUSH1 0x20 MUL PUSH1 0x20 ADD ADD MLOAD PUSH1 0x2 DUP2 MLOAD DUP2 LT PUSH2 0x2C10 JUMPI PUSH2 0x2C0F PUSH2 0x41BD JUMP JUMPDEST JUMPDEST PUSH1 0x20 MUL PUSH1 0x20 ADD ADD MLOAD DUP2 MSTORE POP SWAP1 DUP1 PUSH1 0x1 DUP2 SLOAD ADD DUP1 DUP3 SSTORE DUP1 SWAP2 POP POP PUSH1 0x1 SWAP1 SUB SWAP1 PUSH1 0x0 MSTORE PUSH1 0x20 PUSH1 0x0 KECCAK256 SWAP1 PUSH1 0x3 MUL ADD PUSH1 0x0 SWAP1 SWAP2 SWAP1 SWAP2 SWAP1 SWAP2 POP PUSH1 0x0 DUP3 ADD MLOAD DUP2 PUSH1 0x0 ADD SWAP1 DUP2 PUSH2 0x2C59 SWAP2 SWAP1 PUSH2 0x4402 JUMP JUMPDEST POP PUSH1 0x20 DUP3 ADD MLOAD DUP2 PUSH1 0x1 ADD SWAP1 DUP2 PUSH2 0x2C6F SWAP2 SWAP1 PUSH2 0x4402 JUMP JUMPDEST POP PUSH1 0x40 DUP3 ADD MLOAD DUP2 PUSH1 0x2 ADD SWAP1 DUP2 PUSH2 0x2C85 SWAP2 SWAP1 PUSH2 0x4402 JUMP JUMPDEST POP POP POP DUP1 DUP1 PUSH2 0x2C93 SWAP1 PUSH2 0x4503 JUMP JUMPDEST SWAP2 POP POP PUSH2 0x2B56 JUMP JUMPDEST POP POP POP POP POP POP JUMP JUMPDEST DUP1 DUP1 SLOAD SWAP1 POP DUP3 LT ISZERO PUSH2 0x2DCC JUMPI PUSH1 0x0 DUP3 SWAP1 POP JUMPDEST PUSH1 0x1 DUP3 DUP1 SLOAD SWAP1 POP PUSH2 0x2CC6 SWAP2 SWAP1 PUSH2 0x4638 JUMP JUMPDEST DUP2 LT ISZERO PUSH2 0x2D70 JUMPI DUP2 PUSH1 0x1 DUP3 PUSH2 0x2CDB SWAP2 SWAP1 PUSH2 0x466C JUMP JUMPDEST DUP2 SLOAD DUP2 LT PUSH2 0x2CEC JUMPI PUSH2 0x2CEB PUSH2 0x41BD JUMP JUMPDEST JUMPDEST SWAP1 PUSH1 0x0 MSTORE PUSH1 0x20 PUSH1 0x0 KECCAK256 SWAP1 PUSH1 0x3 MUL ADD DUP3 DUP3 DUP2 SLOAD DUP2 LT PUSH2 0x2D0D JUMPI PUSH2 0x2D0C PUSH2 0x41BD JUMP JUMPDEST JUMPDEST SWAP1 PUSH1 0x0 MSTORE PUSH1 0x20 PUSH1 0x0 KECCAK256 SWAP1 PUSH1 0x3 MUL ADD PUSH1 0x0 DUP3 ADD DUP2 PUSH1 0x0 ADD SWAP1 DUP2 PUSH2 0x2D2F SWAP2 SWAP1 PUSH2 0x46B6 JUMP JUMPDEST POP PUSH1 0x1 DUP3 ADD DUP2 PUSH1 0x1 ADD SWAP1 DUP2 PUSH2 0x2D44 SWAP2 SWAP1 PUSH2 0x46B6 JUMP JUMPDEST POP PUSH1 0x2 DUP3 ADD DUP2 PUSH1 0x2 ADD SWAP1 DUP2 PUSH2 0x2D59 SWAP2 SWAP1 PUSH2 0x46B6 JUMP JUMPDEST POP SWAP1 POP POP DUP1 DUP1 PUSH2 0x2D68 SWAP1 PUSH2 0x4503 JUMP JUMPDEST SWAP2 POP POP PUSH2 0x2CB5 JUMP JUMPDEST POP DUP1 DUP1 SLOAD DUP1 PUSH2 0x2D82 JUMPI PUSH2 0x2D81 PUSH2 0x479E JUMP JUMPDEST JUMPDEST PUSH1 0x1 SWAP1 SUB DUP2 DUP2 SWAP1 PUSH1 0x0 MSTORE PUSH1 0x20 PUSH1 0x0 KECCAK256 SWAP1 PUSH1 0x3 MUL ADD PUSH1 0x0 DUP1 DUP3 ADD PUSH1 0x0 PUSH2 0x2DA7 SWAP2 SWAP1 PUSH2 0x32B0 JUMP JUMPDEST PUSH1 0x1 DUP3 ADD PUSH1 0x0 PUSH2 0x2DB7 SWAP2 SWAP1 PUSH2 0x32B0 JUMP JUMPDEST PUSH1 0x2 DUP3 ADD PUSH1 0x0 PUSH2 0x2DC7 SWAP2 SWAP1 PUSH2 0x32B0 JUMP JUMPDEST POP POP SWAP1 SSTORE JUMPDEST POP POP JUMP JUMPDEST DUP1 DUP1 SLOAD SWAP1 POP DUP3 LT ISZERO PUSH2 0x2EF9 JUMPI PUSH1 0x0 DUP3 SWAP1 POP JUMPDEST PUSH1 0x1 DUP3 DUP1 SLOAD SWAP1 POP PUSH2 0x2DF3 SWAP2 SWAP1 PUSH2 0x4638 JUMP JUMPDEST DUP2 LT ISZERO PUSH2 0x2E9D JUMPI DUP2 PUSH1 0x1 DUP3 PUSH2 0x2E08 SWAP2 SWAP1 PUSH2 0x466C JUMP JUMPDEST DUP2 SLOAD DUP2 LT PUSH2 0x2E19 JUMPI PUSH2 0x2E18 PUSH2 0x41BD JUMP JUMPDEST JUMPDEST SWAP1 PUSH1 0x0 MSTORE PUSH1 0x20 PUSH1 0x0 KECCAK256 SWAP1 PUSH1 0x3 MUL ADD DUP3 DUP3 DUP2 SLOAD DUP2 LT PUSH2 0x2E3A JUMPI PUSH2 0x2E39 PUSH2 0x41BD JUMP JUMPDEST JUMPDEST SWAP1 PUSH1 0x0 MSTORE PUSH1 0x20 PUSH1 0x0 KECCAK256 SWAP1 PUSH1 0x3 MUL ADD PUSH1 0x0 DUP3 ADD DUP2 PUSH1 0x0 ADD SWAP1 DUP2 PUSH2 0x2E5C SWAP2 SWAP1 PUSH2 0x46B6 JUMP JUMPDEST POP PUSH1 0x1 DUP3 ADD DUP2 PUSH1 0x1 ADD SWAP1 DUP2 PUSH2 0x2E71 SWAP2 SWAP1 PUSH2 0x46B6 JUMP JUMPDEST POP PUSH1 0x2 DUP3 ADD DUP2 PUSH1 0x2 ADD SWAP1 DUP2 PUSH2 0x2E86 SWAP2 SWAP1 PUSH2 0x46B6 JUMP JUMPDEST POP SWAP1 POP POP DUP1 DUP1 PUSH2 0x2E95 SWAP1 PUSH2 0x4503 JUMP JUMPDEST SWAP2 POP POP PUSH2 0x2DE2 JUMP JUMPDEST POP DUP1 DUP1 SLOAD DUP1 PUSH2 0x2EAF JUMPI PUSH2 0x2EAE PUSH2 0x479E JUMP JUMPDEST JUMPDEST PUSH1 0x1 SWAP1 SUB DUP2 DUP2 SWAP1 PUSH1 0x0 MSTORE PUSH1 0x20 PUSH1 0x0 KECCAK256 SWAP1 PUSH1 0x3 MUL ADD PUSH1 0x0 DUP1 DUP3 ADD PUSH1 0x0 PUSH2 0x2ED4 SWAP2 SWAP1 PUSH2 0x32B0 JUMP JUMPDEST PUSH1 0x1 DUP3 ADD PUSH1 0x0 PUSH2 0x2EE4 SWAP2 SWAP1 PUSH2 0x32B0 JUMP JUMPDEST PUSH1 0x2 DUP3 ADD PUSH1 0x0 PUSH2 0x2EF4 SWAP2 SWAP1 PUSH2 0x32B0 JUMP JUMPDEST POP POP SWAP1 SSTORE JUMPDEST POP POP JUMP JUMPDEST DUP1 DUP1 SLOAD SWAP1 POP DUP3 LT ISZERO PUSH2 0x30F6 JUMPI PUSH1 0x0 DUP3 SWAP1 POP JUMPDEST PUSH1 0x1 DUP3 DUP1 SLOAD SWAP1 POP PUSH2 0x2F20 SWAP2 SWAP1 PUSH2 0x4638 JUMP JUMPDEST DUP2 LT ISZERO PUSH2 0x3052 JUMPI DUP2 PUSH1 0x1 DUP3 PUSH2 0x2F35 SWAP2 SWAP1 PUSH2 0x466C JUMP JUMPDEST DUP2 SLOAD DUP2 LT PUSH2 0x2F46 JUMPI PUSH2 0x2F45 PUSH2 0x41BD JUMP JUMPDEST JUMPDEST SWAP1 PUSH1 0x0 MSTORE PUSH1 0x20 PUSH1 0x0 KECCAK256 SWAP1 PUSH1 0x6 MUL ADD DUP3 DUP3 DUP2 SLOAD DUP2 LT PUSH2 0x2F67 JUMPI PUSH2 0x2F66 PUSH2 0x41BD JUMP JUMPDEST JUMPDEST SWAP1 PUSH1 0x0 MSTORE PUSH1 0x20 PUSH1 0x0 KECCAK256 SWAP1 PUSH1 0x6 MUL ADD PUSH1 0x0 DUP3 ADD DUP2 PUSH1 0x0 ADD SWAP1 DUP2 PUSH2 0x2F89 SWAP2 SWAP1 PUSH2 0x46B6 JUMP JUMPDEST POP PUSH1 0x1 DUP3 ADD DUP2 PUSH1 0x1 ADD SWAP1 DUP2 PUSH2 0x2F9E SWAP2 SWAP1 PUSH2 0x46B6 JUMP JUMPDEST POP PUSH1 0x2 DUP3 ADD DUP2 PUSH1 0x2 ADD SWAP1 DUP1 SLOAD PUSH2 0x2FB5 SWAP3 SWAP2 SWAP1 PUSH2 0x32F0 JUMP JUMPDEST POP PUSH1 0x3 DUP3 ADD DUP2 PUSH1 0x3 ADD SWAP1 DUP1 SLOAD PUSH2 0x2FCC SWAP3 SWAP2 SWAP1 PUSH2 0x32F0 JUMP JUMPDEST POP PUSH1 0x4 DUP3 ADD DUP2 PUSH1 0x4 ADD SWAP1 DUP2 PUSH2 0x2FE1 SWAP2 SWAP1 PUSH2 0x46B6 JUMP JUMPDEST POP PUSH1 0x5 DUP3 ADD PUSH1 0x0 SWAP1 SLOAD SWAP1 PUSH2 0x100 EXP SWAP1 DIV PUSH1 0xFF AND DUP2 PUSH1 0x5 ADD PUSH1 0x0 PUSH2 0x100 EXP DUP2 SLOAD DUP2 PUSH1 0xFF MUL NOT AND SWAP1 DUP4 ISZERO ISZERO MUL OR SWAP1 SSTORE POP PUSH1 0x5 DUP3 ADD PUSH1 0x1 SWAP1 SLOAD SWAP1 PUSH2 0x100 EXP SWAP1 DIV PUSH1 0xFF AND DUP2 PUSH1 0x5 ADD PUSH1 0x1 PUSH2 0x100 EXP DUP2 SLOAD DUP2 PUSH1 0xFF MUL NOT AND SWAP1 DUP4 ISZERO ISZERO MUL OR SWAP1 SSTORE POP SWAP1 POP POP DUP1 DUP1 PUSH2 0x304A SWAP1 PUSH2 0x4503 JUMP JUMPDEST SWAP2 POP POP PUSH2 0x2F0F JUMP JUMPDEST POP DUP1 DUP1 SLOAD DUP1 PUSH2 0x3064 JUMPI PUSH2 0x3063 PUSH2 0x479E JUMP JUMPDEST JUMPDEST PUSH1 0x1 SWAP1 SUB DUP2 DUP2 SWAP1 PUSH1 0x0 MSTORE PUSH1 0x20 PUSH1 0x0 KECCAK256 SWAP1 PUSH1 0x6 MUL ADD PUSH1 0x0 DUP1 DUP3 ADD PUSH1 0x0 PUSH2 0x3089 SWAP2 SWAP1 PUSH2 0x32B0 JUMP JUMPDEST PUSH1 0x1 DUP3 ADD PUSH1 0x0 PUSH2 0x3099 SWAP2 SWAP1 PUSH2 0x32B0 JUMP JUMPDEST PUSH1 0x2 DUP3 ADD PUSH1 0x0 PUSH2 0x30A9 SWAP2 SWAP1 PUSH2 0x334F JUMP JUMPDEST PUSH1 0x3 DUP3 ADD PUSH1 0x0 PUSH2 0x30B9 SWAP2 SWAP1 PUSH2 0x334F JUMP JUMPDEST PUSH1 0x4 DUP3 ADD PUSH1 0x0 PUSH2 0x30C9 SWAP2 SWAP1 PUSH2 0x32B0 JUMP JUMPDEST PUSH1 0x5 DUP3 ADD PUSH1 0x0 PUSH2 0x100 EXP DUP2 SLOAD SWAP1 PUSH1 0xFF MUL NOT AND SWAP1 SSTORE PUSH1 0x5 DUP3 ADD PUSH1 0x1 PUSH2 0x100 EXP DUP2 SLOAD SWAP1 PUSH1 0xFF MUL NOT AND SWAP1 SSTORE POP POP SWAP1 SSTORE JUMPDEST POP POP JUMP JUMPDEST DUP1 DUP1 SLOAD SWAP1 POP DUP3 LT ISZERO PUSH2 0x324C JUMPI PUSH1 0x0 DUP3 SWAP1 POP JUMPDEST PUSH1 0x1 DUP3 DUP1 SLOAD SWAP1 POP PUSH2 0x311D SWAP2 SWAP1 PUSH2 0x4638 JUMP JUMPDEST DUP2 LT ISZERO PUSH2 0x31E0 JUMPI DUP2 PUSH1 0x1 DUP3 PUSH2 0x3132 SWAP2 SWAP1 PUSH2 0x466C JUMP JUMPDEST DUP2 SLOAD DUP2 LT PUSH2 0x3143 JUMPI PUSH2 0x3142 PUSH2 0x41BD JUMP JUMPDEST JUMPDEST SWAP1 PUSH1 0x0 MSTORE PUSH1 0x20 PUSH1 0x0 KECCAK256 SWAP1 PUSH1 0x4 MUL ADD DUP3 DUP3 DUP2 SLOAD DUP2 LT PUSH2 0x3164 JUMPI PUSH2 0x3163 PUSH2 0x41BD JUMP JUMPDEST JUMPDEST SWAP1 PUSH1 0x0 MSTORE PUSH1 0x20 PUSH1 0x0 KECCAK256 SWAP1 PUSH1 0x4 MUL ADD PUSH1 0x0 DUP3 ADD DUP2 PUSH1 0x0 ADD SWAP1 DUP2 PUSH2 0x3186 SWAP2 SWAP1 PUSH2 0x46B6 JUMP JUMPDEST POP PUSH1 0x1 DUP3 ADD DUP2 PUSH1 0x1 ADD SWAP1 DUP2 PUSH2 0x319B SWAP2 SWAP1 PUSH2 0x46B6 JUMP JUMPDEST POP PUSH1 0x2 DUP3 ADD DUP2 PUSH1 0x2 ADD SWAP1 DUP1 SLOAD PUSH2 0x31B2 SWAP3 SWAP2 SWAP1 PUSH2 0x32F0 JUMP JUMPDEST POP PUSH1 0x3 DUP3 ADD DUP2 PUSH1 0x3 ADD SWAP1 DUP1 SLOAD PUSH2 0x31C9 SWAP3 SWAP2 SWAP1 PUSH2 0x32F0 JUMP JUMPDEST POP SWAP1 POP POP DUP1 DUP1 PUSH2 0x31D8 SWAP1 PUSH2 0x4503 JUMP JUMPDEST SWAP2 POP POP PUSH2 0x310C JUMP JUMPDEST POP DUP1 DUP1 SLOAD DUP1 PUSH2 0x31F2 JUMPI PUSH2 0x31F1 PUSH2 0x479E JUMP JUMPDEST JUMPDEST PUSH1 0x1 SWAP1 SUB DUP2 DUP2 SWAP1 PUSH1 0x0 MSTORE PUSH1 0x20 PUSH1 0x0 KECCAK256 SWAP1 PUSH1 0x4 MUL ADD PUSH1 0x0 DUP1 DUP3 ADD PUSH1 0x0 PUSH2 0x3217 SWAP2 SWAP1 PUSH2 0x32B0 JUMP JUMPDEST PUSH1 0x1 DUP3 ADD PUSH1 0x0 PUSH2 0x3227 SWAP2 SWAP1 PUSH2 0x32B0 JUMP JUMPDEST PUSH1 0x2 DUP3 ADD PUSH1 0x0 PUSH2 0x3237 SWAP2 SWAP1 PUSH2 0x334F JUMP JUMPDEST PUSH1 0x3 DUP3 ADD PUSH1 0x0 PUSH2 0x3247 SWAP2 SWAP1 PUSH2 0x334F JUMP JUMPDEST POP POP SWAP1 SSTORE JUMPDEST POP POP JUMP JUMPDEST DUP3 DUP1 SLOAD DUP3 DUP3 SSTORE SWAP1 PUSH1 0x0 MSTORE PUSH1 0x20 PUSH1 0x0 KECCAK256 SWAP1 DUP2 ADD SWAP3 DUP3 ISZERO PUSH2 0x329F JUMPI SWAP2 PUSH1 0x20 MUL DUP3 ADD JUMPDEST DUP3 DUP2 GT ISZERO PUSH2 0x329E JUMPI DUP3 MLOAD DUP3 SWAP1 DUP1 MLOAD SWAP1 PUSH1 0x20 ADD SWAP1 PUSH2 0x328E SWAP3 SWAP2 SWAP1 PUSH2 0x3370 JUMP JUMPDEST POP SWAP2 PUSH1 0x20 ADD SWAP2 SWAP1 PUSH1 0x1 ADD SWAP1 PUSH2 0x3270 JUMP JUMPDEST JUMPDEST POP SWAP1 POP PUSH2 0x32AC SWAP2 SWAP1 PUSH2 0x33C9 JUMP JUMPDEST POP SWAP1 JUMP JUMPDEST POP DUP1 SLOAD PUSH2 0x32BC SWAP1 PUSH2 0x421B JUMP JUMPDEST PUSH1 0x0 DUP3 SSTORE DUP1 PUSH1 0x1F LT PUSH2 0x32CE JUMPI POP PUSH2 0x32ED JUMP JUMPDEST PUSH1 0x1F ADD PUSH1 0x20 SWAP1 DIV SWAP1 PUSH1 0x0 MSTORE PUSH1 0x20 PUSH1 0x0 KECCAK256 SWAP1 DUP2 ADD SWAP1 PUSH2 0x32EC SWAP2 SWAP1 PUSH2 0x33ED JUMP JUMPDEST JUMPDEST POP JUMP JUMPDEST DUP3 DUP1 SLOAD DUP3 DUP3 SSTORE SWAP1 PUSH1 0x0 MSTORE PUSH1 0x20 PUSH1 0x0 KECCAK256 SWAP1 DUP2 ADD SWAP3 DUP3 ISZERO PUSH2 0x333E JUMPI PUSH1 0x0 MSTORE PUSH1 0x20 PUSH1 0x0 KECCAK256 SWAP2 DUP3 ADD JUMPDEST DUP3 DUP2 GT ISZERO PUSH2 0x333D JUMPI DUP3 DUP3 SWAP1 DUP1 SLOAD PUSH2 0x332D SWAP3 SWAP2 SWAP1 PUSH2 0x340A JUMP JUMPDEST POP SWAP2 PUSH1 0x1 ADD SWAP2 SWAP1 PUSH1 0x1 ADD SWAP1 PUSH2 0x3315 JUMP JUMPDEST JUMPDEST POP SWAP1 POP PUSH2 0x334B SWAP2 SWAP1 PUSH2 0x33C9 JUMP JUMPDEST POP SWAP1 JUMP JUMPDEST POP DUP1 SLOAD PUSH1 0x0 DUP3 SSTORE SWAP1 PUSH1 0x0 MSTORE PUSH1 0x20 PUSH1 0x0 KECCAK256 SWAP1 DUP2 ADD SWAP1 PUSH2 0x336D SWAP2 SWAP1 PUSH2 0x33C9 JUMP JUMPDEST POP JUMP JUMPDEST DUP3 DUP1 SLOAD DUP3 DUP3 SSTORE SWAP1 PUSH1 0x0 MSTORE PUSH1 0x20 PUSH1 0x0 KECCAK256 SWAP1 DUP2 ADD SWAP3 DUP3 ISZERO PUSH2 0x33B8 JUMPI SWAP2 PUSH1 0x20 MUL DUP3 ADD JUMPDEST DUP3 DUP2 GT ISZERO PUSH2 0x33B7 JUMPI DUP3 MLOAD DUP3 SWAP1 DUP2 PUSH2 0x33A7 SWAP2 SWAP1 PUSH2 0x4402 JUMP JUMPDEST POP SWAP2 PUSH1 0x20 ADD SWAP2 SWAP1 PUSH1 0x1 ADD SWAP1 PUSH2 0x3390 JUMP JUMPDEST JUMPDEST POP SWAP1 POP PUSH2 0x33C5 SWAP2 SWAP1 PUSH2 0x3467 JUMP JUMPDEST POP SWAP1 JUMP JUMPDEST JUMPDEST DUP1 DUP3 GT ISZERO PUSH2 0x33E9 JUMPI PUSH1 0x0 DUP2 DUP2 PUSH2 0x33E0 SWAP2 SWAP1 PUSH2 0x348B JUMP JUMPDEST POP PUSH1 0x1 ADD PUSH2 0x33CA JUMP JUMPDEST POP SWAP1 JUMP JUMPDEST JUMPDEST DUP1 DUP3 GT ISZERO PUSH2 0x3406 JUMPI PUSH1 0x0 DUP2 PUSH1 0x0 SWAP1 SSTORE POP PUSH1 0x1 ADD PUSH2 0x33EE JUMP JUMPDEST POP SWAP1 JUMP JUMPDEST DUP3 DUP1 SLOAD DUP3 DUP3 SSTORE SWAP1 PUSH1 0x0 MSTORE PUSH1 0x20 PUSH1 0x0 KECCAK256 SWAP1 DUP2 ADD SWAP3 DUP3 ISZERO PUSH2 0x3456 JUMPI PUSH1 0x0 MSTORE PUSH1 0x20 PUSH1 0x0 KECCAK256 SWAP2 DUP3 ADD JUMPDEST DUP3 DUP2 GT ISZERO PUSH2 0x3455 JUMPI DUP3 DUP3 SWAP1 DUP2 PUSH2 0x3445 SWAP2 SWAP1 PUSH2 0x46B6 JUMP JUMPDEST POP SWAP2 PUSH1 0x1 ADD SWAP2 SWAP1 PUSH1 0x1 ADD SWAP1 PUSH2 0x342F JUMP JUMPDEST JUMPDEST POP SWAP1 POP PUSH2 0x3463 SWAP2 SWAP1 PUSH2 0x3467 JUMP JUMPDEST POP SWAP1 JUMP JUMPDEST JUMPDEST DUP1 DUP3 GT ISZERO PUSH2 0x3487 JUMPI PUSH1 0x0 DUP2 DUP2 PUSH2 0x347E SWAP2 SWAP1 PUSH2 0x32B0 JUMP JUMPDEST POP PUSH1 0x1 ADD PUSH2 0x3468 JUMP JUMPDEST POP SWAP1 JUMP JUMPDEST POP DUP1 SLOAD PUSH1 0x0 DUP3 SSTORE SWAP1 PUSH1 0x0 MSTORE PUSH1 0x20 PUSH1 0x0 KECCAK256 SWAP1 DUP2 ADD SWAP1 PUSH2 0x34A9 SWAP2 SWAP1 PUSH2 0x3467 JUMP JUMPDEST POP JUMP JUMPDEST PUSH1 0x0 PUSH1 0x40 MLOAD SWAP1 POP SWAP1 JUMP JUMPDEST PUSH1 0x0 DUP1 REVERT JUMPDEST PUSH1 0x0 DUP1 REVERT JUMPDEST PUSH1 0x0 DUP1 REVERT JUMPDEST PUSH1 0x0 PUSH1 0x1F NOT PUSH1 0x1F DUP4 ADD AND SWAP1 POP SWAP2 SWAP1 POP JUMP JUMPDEST PUSH32 0x4E487B7100000000000000000000000000000000000000000000000000000000 PUSH1 0x0 MSTORE PUSH1 0x41 PUSH1 0x4 MSTORE PUSH1 0x24 PUSH1 0x0 REVERT JUMPDEST PUSH2 0x350E DUP3 PUSH2 0x34C5 JUMP JUMPDEST DUP2 ADD DUP2 DUP2 LT PUSH8 0xFFFFFFFFFFFFFFFF DUP3 GT OR ISZERO PUSH2 0x352D JUMPI PUSH2 0x352C PUSH2 0x34D6 JUMP JUMPDEST JUMPDEST DUP1 PUSH1 0x40 MSTORE POP POP POP JUMP JUMPDEST PUSH1 0x0 PUSH2 0x3540 PUSH2 0x34AC JUMP JUMPDEST SWAP1 POP PUSH2 0x354C DUP3 DUP3 PUSH2 0x3505 JUMP JUMPDEST SWAP2 SWAP1 POP JUMP JUMPDEST PUSH1 0x0 PUSH8 0xFFFFFFFFFFFFFFFF DUP3 GT ISZERO PUSH2 0x356C JUMPI PUSH2 0x356B PUSH2 0x34D6 JUMP JUMPDEST JUMPDEST PUSH1 0x20 DUP3 MUL SWAP1 POP PUSH1 0x20 DUP2 ADD SWAP1 POP SWAP2 SWAP1 POP JUMP JUMPDEST PUSH1 0x0 DUP1 REVERT JUMPDEST PUSH1 0x0 PUSH8 0xFFFFFFFFFFFFFFFF DUP3 GT ISZERO PUSH2 0x359D JUMPI PUSH2 0x359C PUSH2 0x34D6 JUMP JUMPDEST JUMPDEST PUSH1 0x20 DUP3 MUL SWAP1 POP PUSH1 0x20 DUP2 ADD SWAP1 POP SWAP2 SWAP1 POP JUMP JUMPDEST PUSH1 0x0 DUP1 REVERT JUMPDEST PUSH1 0x0 PUSH8 0xFFFFFFFFFFFFFFFF DUP3 GT ISZERO PUSH2 0x35CE JUMPI PUSH2 0x35CD PUSH2 0x34D6 JUMP JUMPDEST JUMPDEST PUSH2 0x35D7 DUP3 PUSH2 0x34C5 JUMP JUMPDEST SWAP1 POP PUSH1 0x20 DUP2 ADD SWAP1 POP SWAP2 SWAP1 POP JUMP JUMPDEST DUP3 DUP2 DUP4 CALLDATACOPY PUSH1 0x0 DUP4 DUP4 ADD MSTORE POP POP POP JUMP JUMPDEST PUSH1 0x0 PUSH2 0x3606 PUSH2 0x3601 DUP5 PUSH2 0x35B3 JUMP JUMPDEST PUSH2 0x3536 JUMP JUMPDEST SWAP1 POP DUP3 DUP2 MSTORE PUSH1 0x20 DUP2 ADD DUP5 DUP5 DUP5 ADD GT ISZERO PUSH2 0x3622 JUMPI PUSH2 0x3621 PUSH2 0x35AE JUMP JUMPDEST JUMPDEST PUSH2 0x362D DUP5 DUP3 DUP6 PUSH2 0x35E4 JUMP JUMPDEST POP SWAP4 SWAP3 POP POP POP JUMP JUMPDEST PUSH1 0x0 DUP3 PUSH1 0x1F DUP4 ADD SLT PUSH2 0x364A JUMPI PUSH2 0x3649 PUSH2 0x34C0 JUMP JUMPDEST JUMPDEST DUP2 CALLDATALOAD PUSH2 0x365A DUP5 DUP3 PUSH1 0x20 DUP7 ADD PUSH2 0x35F3 JUMP JUMPDEST SWAP2 POP POP SWAP3 SWAP2 POP POP JUMP JUMPDEST PUSH1 0x0 PUSH2 0x3676 PUSH2 0x3671 DUP5 PUSH2 0x3582 JUMP JUMPDEST PUSH2 0x3536 JUMP JUMPDEST SWAP1 POP DUP1 DUP4 DUP3 MSTORE PUSH1 0x20 DUP3 ADD SWAP1 POP PUSH1 0x20 DUP5 MUL DUP4 ADD DUP6 DUP2 GT ISZERO PUSH2 0x3699 JUMPI PUSH2 0x3698 PUSH2 0x357D JUMP JUMPDEST JUMPDEST DUP4 JUMPDEST DUP2 DUP2 LT ISZERO PUSH2 0x36E0 JUMPI DUP1 CALLDATALOAD PUSH8 0xFFFFFFFFFFFFFFFF DUP2 GT ISZERO PUSH2 0x36BE JUMPI PUSH2 0x36BD PUSH2 0x34C0 JUMP JUMPDEST JUMPDEST DUP1 DUP7 ADD PUSH2 0x36CB DUP10 DUP3 PUSH2 0x3635 JUMP JUMPDEST DUP6 MSTORE PUSH1 0x20 DUP6 ADD SWAP5 POP POP POP PUSH1 0x20 DUP2 ADD SWAP1 POP PUSH2 0x369B JUMP JUMPDEST POP POP POP SWAP4 SWAP3 POP POP POP JUMP JUMPDEST PUSH1 0x0 DUP3 PUSH1 0x1F DUP4 ADD SLT PUSH2 0x36FF JUMPI PUSH2 0x36FE PUSH2 0x34C0 JUMP JUMPDEST JUMPDEST DUP2 CALLDATALOAD PUSH2 0x370F DUP5 DUP3 PUSH1 0x20 DUP7 ADD PUSH2 0x3663 JUMP JUMPDEST SWAP2 POP POP SWAP3 SWAP2 POP POP JUMP JUMPDEST PUSH1 0x0 PUSH2 0x372B PUSH2 0x3726 DUP5 PUSH2 0x3551 JUMP JUMPDEST PUSH2 0x3536 JUMP JUMPDEST SWAP1 POP DUP1 DUP4 DUP3 MSTORE PUSH1 0x20 DUP3 ADD SWAP1 POP PUSH1 0x20 DUP5 MUL DUP4 ADD DUP6 DUP2 GT ISZERO PUSH2 0x374E JUMPI PUSH2 0x374D PUSH2 0x357D JUMP JUMPDEST JUMPDEST DUP4 JUMPDEST DUP2 DUP2 LT ISZERO PUSH2 0x3795 JUMPI DUP1 CALLDATALOAD PUSH8 0xFFFFFFFFFFFFFFFF DUP2 GT ISZERO PUSH2 0x3773 JUMPI PUSH2 0x3772 PUSH2 0x34C0 JUMP JUMPDEST JUMPDEST DUP1 DUP7 ADD PUSH2 0x3780 DUP10 DUP3 PUSH2 0x36EA JUMP JUMPDEST DUP6 MSTORE PUSH1 0x20 DUP6 ADD SWAP5 POP POP POP PUSH1 0x20 DUP2 ADD SWAP1 POP PUSH2 0x3750 JUMP JUMPDEST POP POP POP SWAP4 SWAP3 POP POP POP JUMP JUMPDEST PUSH1 0x0 DUP3 PUSH1 0x1F DUP4 ADD SLT PUSH2 0x37B4 JUMPI PUSH2 0x37B3 PUSH2 0x34C0 JUMP JUMPDEST JUMPDEST DUP2 CALLDATALOAD PUSH2 0x37C4 DUP5 DUP3 PUSH1 0x20 DUP7 ADD PUSH2 0x3718 JUMP JUMPDEST SWAP2 POP POP SWAP3 SWAP2 POP POP JUMP JUMPDEST PUSH1 0x0 DUP1 PUSH1 0x40 DUP4 DUP6 SUB SLT ISZERO PUSH2 0x37E4 JUMPI PUSH2 0x37E3 PUSH2 0x34B6 JUMP JUMPDEST JUMPDEST PUSH1 0x0 DUP4 ADD CALLDATALOAD PUSH8 0xFFFFFFFFFFFFFFFF DUP2 GT ISZERO PUSH2 0x3802 JUMPI PUSH2 0x3801 PUSH2 0x34BB JUMP JUMPDEST JUMPDEST PUSH2 0x380E DUP6 DUP3 DUP7 ADD PUSH2 0x379F JUMP JUMPDEST SWAP3 POP POP PUSH1 0x20 DUP4 ADD CALLDATALOAD PUSH8 0xFFFFFFFFFFFFFFFF DUP2 GT ISZERO PUSH2 0x382F JUMPI PUSH2 0x382E PUSH2 0x34BB JUMP JUMPDEST JUMPDEST PUSH2 0x383B DUP6 DUP3 DUP7 ADD PUSH2 0x379F JUMP JUMPDEST SWAP2 POP POP SWAP3 POP SWAP3 SWAP1 POP JUMP JUMPDEST PUSH1 0x0 DUP2 MLOAD SWAP1 POP SWAP2 SWAP1 POP JUMP JUMPDEST PUSH1 0x0 DUP3 DUP3 MSTORE PUSH1 0x20 DUP3 ADD SWAP1 POP SWAP3 SWAP2 POP POP JUMP JUMPDEST PUSH1 0x0 DUP2 SWAP1 POP PUSH1 0x20 DUP3 ADD SWAP1 POP SWAP2 SWAP1 POP JUMP JUMPDEST PUSH1 0x0 DUP2 MLOAD SWAP1 POP SWAP2 SWAP1 POP JUMP JUMPDEST PUSH1 0x0 DUP3 DUP3 MSTORE PUSH1 0x20 DUP3 ADD SWAP1 POP SWAP3 SWAP2 POP POP JUMP JUMPDEST PUSH1 0x0 JUMPDEST DUP4 DUP2 LT ISZERO PUSH2 0x38AB JUMPI DUP1 DUP3 ADD MLOAD DUP2 DUP5 ADD MSTORE PUSH1 0x20 DUP2 ADD SWAP1 POP PUSH2 0x3890 JUMP JUMPDEST PUSH1 0x0 DUP5 DUP5 ADD MSTORE POP POP POP POP JUMP JUMPDEST PUSH1 0x0 PUSH2 0x38C2 DUP3 PUSH2 0x3871 JUMP JUMPDEST PUSH2 0x38CC DUP2 DUP6 PUSH2 0x387C JUMP JUMPDEST SWAP4 POP PUSH2 0x38DC DUP2 DUP6 PUSH1 0x20 DUP7 ADD PUSH2 0x388D JUMP JUMPDEST PUSH2 0x38E5 DUP2 PUSH2 0x34C5 JUMP JUMPDEST DUP5 ADD SWAP2 POP POP SWAP3 SWAP2 POP POP JUMP JUMPDEST PUSH1 0x0 DUP2 MLOAD SWAP1 POP SWAP2 SWAP1 POP JUMP JUMPDEST PUSH1 0x0 DUP3 DUP3 MSTORE PUSH1 0x20 DUP3 ADD SWAP1 POP SWAP3 SWAP2 POP POP JUMP JUMPDEST PUSH1 0x0 DUP2 SWAP1 POP PUSH1 0x20 DUP3 ADD SWAP1 POP SWAP2 SWAP1 POP JUMP JUMPDEST PUSH1 0x0 DUP2 MLOAD SWAP1 POP SWAP2 SWAP1 POP JUMP JUMPDEST PUSH1 0x0 DUP3 DUP3 MSTORE PUSH1 0x20 DUP3 ADD SWAP1 POP SWAP3 SWAP2 POP POP JUMP JUMPDEST PUSH1 0x0 DUP2 SWAP1 POP PUSH1 0x20 DUP3 ADD SWAP1 POP SWAP2 SWAP1 POP JUMP JUMPDEST PUSH1 0x0 PUSH2 0x3954 DUP4 DUP4 PUSH2 0x38B7 JUMP JUMPDEST SWAP1 POP SWAP3 SWAP2 POP POP JUMP JUMPDEST PUSH1 0x0 PUSH1 0x20 DUP3 ADD SWAP1 POP SWAP2 SWAP1 POP JUMP JUMPDEST PUSH1 0x0 PUSH2 0x3974 DUP3 PUSH2 0x391C JUMP JUMPDEST PUSH2 0x397E DUP2 DUP6 PUSH2 0x3927 JUMP JUMPDEST SWAP4 POP DUP4 PUSH1 0x20 DUP3 MUL DUP6 ADD PUSH2 0x3990 DUP6 PUSH2 0x3938 JUMP JUMPDEST DUP1 PUSH1 0x0 JUMPDEST DUP6 DUP2 LT ISZERO PUSH2 0x39CC JUMPI DUP5 DUP5 SUB DUP10 MSTORE DUP2 MLOAD PUSH2 0x39AD DUP6 DUP3 PUSH2 0x3948 JUMP JUMPDEST SWAP5 POP PUSH2 0x39B8 DUP4 PUSH2 0x395C JUMP JUMPDEST SWAP3 POP PUSH1 0x20 DUP11 ADD SWAP10 POP POP PUSH1 0x1 DUP2 ADD SWAP1 POP PUSH2 0x3994 JUMP JUMPDEST POP DUP3 SWAP8 POP DUP8 SWAP6 POP POP POP POP POP POP SWAP3 SWAP2 POP POP JUMP JUMPDEST PUSH1 0x0 PUSH2 0x39EA DUP4 DUP4 PUSH2 0x3969 JUMP JUMPDEST SWAP1 POP SWAP3 SWAP2 POP POP JUMP JUMPDEST PUSH1 0x0 PUSH1 0x20 DUP3 ADD SWAP1 POP SWAP2 SWAP1 POP JUMP JUMPDEST PUSH1 0x0 PUSH2 0x3A0A DUP3 PUSH2 0x38F0 JUMP JUMPDEST PUSH2 0x3A14 DUP2 DUP6 PUSH2 0x38FB JUMP JUMPDEST SWAP4 POP DUP4 PUSH1 0x20 DUP3 MUL DUP6 ADD PUSH2 0x3A26 DUP6 PUSH2 0x390C JUMP JUMPDEST DUP1 PUSH1 0x0 JUMPDEST DUP6 DUP2 LT ISZERO PUSH2 0x3A62 JUMPI DUP5 DUP5 SUB DUP10 MSTORE DUP2 MLOAD PUSH2 0x3A43 DUP6 DUP3 PUSH2 0x39DE JUMP JUMPDEST SWAP5 POP PUSH2 0x3A4E DUP4 PUSH2 0x39F2 JUMP JUMPDEST SWAP3 POP PUSH1 0x20 DUP11 ADD SWAP10 POP POP PUSH1 0x1 DUP2 ADD SWAP1 POP PUSH2 0x3A2A JUMP JUMPDEST POP DUP3 SWAP8 POP DUP8 SWAP6 POP POP POP POP POP POP SWAP3 SWAP2 POP POP JUMP JUMPDEST PUSH1 0x0 DUP2 ISZERO ISZERO SWAP1 POP SWAP2 SWAP1 POP JUMP JUMPDEST PUSH2 0x3A89 DUP2 PUSH2 0x3A74 JUMP JUMPDEST DUP3 MSTORE POP POP JUMP JUMPDEST PUSH1 0x0 PUSH1 0xE0 DUP4 ADD PUSH1 0x0 DUP4 ADD MLOAD DUP5 DUP3 SUB PUSH1 0x0 DUP7 ADD MSTORE PUSH2 0x3AAC DUP3 DUP3 PUSH2 0x38B7 JUMP JUMPDEST SWAP2 POP POP PUSH1 0x20 DUP4 ADD MLOAD DUP5 DUP3 SUB PUSH1 0x20 DUP7 ADD MSTORE PUSH2 0x3AC6 DUP3 DUP3 PUSH2 0x38B7 JUMP JUMPDEST SWAP2 POP POP PUSH1 0x40 DUP4 ADD MLOAD DUP5 DUP3 SUB PUSH1 0x40 DUP7 ADD MSTORE PUSH2 0x3AE0 DUP3 DUP3 PUSH2 0x39FF JUMP JUMPDEST SWAP2 POP POP PUSH1 0x60 DUP4 ADD MLOAD DUP5 DUP3 SUB PUSH1 0x60 DUP7 ADD MSTORE PUSH2 0x3AFA DUP3 DUP3 PUSH2 0x39FF JUMP JUMPDEST SWAP2 POP POP PUSH1 0x80 DUP4 ADD MLOAD DUP5 DUP3 SUB PUSH1 0x80 DUP7 ADD MSTORE PUSH2 0x3B14 DUP3 DUP3 PUSH2 0x38B7 JUMP JUMPDEST SWAP2 POP POP PUSH1 0xA0 DUP4 ADD MLOAD PUSH2 0x3B29 PUSH1 0xA0 DUP7 ADD DUP3 PUSH2 0x3A80 JUMP JUMPDEST POP PUSH1 0xC0 DUP4 ADD MLOAD PUSH2 0x3B3C PUSH1 0xC0 DUP7 ADD DUP3 PUSH2 0x3A80 JUMP JUMPDEST POP DUP1 SWAP2 POP POP SWAP3 SWAP2 POP POP JUMP JUMPDEST PUSH1 0x0 PUSH2 0x3B53 DUP4 DUP4 PUSH2 0x3A8F JUMP JUMPDEST SWAP1 POP SWAP3 SWAP2 POP POP JUMP JUMPDEST PUSH1 0x0 PUSH1 0x20 DUP3 ADD SWAP1 POP SWAP2 SWAP1 POP JUMP JUMPDEST PUSH1 0x0 PUSH2 0x3B73 DUP3 PUSH2 0x3845 JUMP JUMPDEST PUSH2 0x3B7D DUP2 DUP6 PUSH2 0x3850 JUMP JUMPDEST SWAP4 POP DUP4 PUSH1 0x20 DUP3 MUL DUP6 ADD PUSH2 0x3B8F DUP6 PUSH2 0x3861 JUMP JUMPDEST DUP1 PUSH1 0x0 JUMPDEST DUP6 DUP2 LT ISZERO PUSH2 0x3BCB JUMPI DUP5 DUP5 SUB DUP10 MSTORE DUP2 MLOAD PUSH2 0x3BAC DUP6 DUP3 PUSH2 0x3B47 JUMP JUMPDEST SWAP5 POP PUSH2 0x3BB7 DUP4 PUSH2 0x3B5B JUMP JUMPDEST SWAP3 POP PUSH1 0x20 DUP11 ADD SWAP10 POP POP PUSH1 0x1 DUP2 ADD SWAP1 POP PUSH2 0x3B93 JUMP JUMPDEST POP DUP3 SWAP8 POP DUP8 SWAP6 POP POP POP POP POP POP SWAP3 SWAP2 POP POP JUMP JUMPDEST PUSH1 0x0 PUSH1 0x20 DUP3 ADD SWAP1 POP DUP2 DUP2 SUB PUSH1 0x0 DUP4 ADD MSTORE PUSH2 0x3BF7 DUP2 DUP5 PUSH2 0x3B68 JUMP JUMPDEST SWAP1 POP SWAP3 SWAP2 POP POP JUMP JUMPDEST PUSH1 0x0 DUP2 MLOAD SWAP1 POP SWAP2 SWAP1 POP JUMP JUMPDEST PUSH1 0x0 DUP3 DUP3 MSTORE PUSH1 0x20 DUP3 ADD SWAP1 POP SWAP3 SWAP2 POP POP JUMP JUMPDEST PUSH1 0x0 DUP2 SWAP1 POP PUSH1 0x20 DUP3 ADD SWAP1 POP SWAP2 SWAP1 POP JUMP JUMPDEST PUSH1 0x0 PUSH1 0x80 DUP4 ADD PUSH1 0x0 DUP4 ADD MLOAD DUP5 DUP3 SUB PUSH1 0x0 DUP7 ADD MSTORE PUSH2 0x3C48 DUP3 DUP3 PUSH2 0x38B7 JUMP JUMPDEST SWAP2 POP POP PUSH1 0x20 DUP4 ADD MLOAD DUP5 DUP3 SUB PUSH1 0x20 DUP7 ADD MSTORE PUSH2 0x3C62 DUP3 DUP3 PUSH2 0x38B7 JUMP JUMPDEST SWAP2 POP POP PUSH1 0x40 DUP4 ADD MLOAD DUP5 DUP3 SUB PUSH1 0x40 DUP7 ADD MSTORE PUSH2 0x3C7C DUP3 DUP3 PUSH2 0x39FF JUMP JUMPDEST SWAP2 POP POP PUSH1 0x60 DUP4 ADD MLOAD DUP5 DUP3 SUB PUSH1 0x60 DUP7 ADD MSTORE PUSH2 0x3C96 DUP3 DUP3 PUSH2 0x39FF JUMP JUMPDEST SWAP2 POP POP DUP1 SWAP2 POP POP SWAP3 SWAP2 POP POP JUMP JUMPDEST PUSH1 0x0 PUSH2 0x3CAF DUP4 DUP4 PUSH2 0x3C2B JUMP JUMPDEST SWAP1 POP SWAP3 SWAP2 POP POP JUMP JUMPDEST PUSH1 0x0 PUSH1 0x20 DUP3 ADD SWAP1 POP SWAP2 SWAP1 POP JUMP JUMPDEST PUSH1 0x0 PUSH2 0x3CCF DUP3 PUSH2 0x3BFF JUMP JUMPDEST PUSH2 0x3CD9 DUP2 DUP6 PUSH2 0x3C0A JUMP JUMPDEST SWAP4 POP DUP4 PUSH1 0x20 DUP3 MUL DUP6 ADD PUSH2 0x3CEB DUP6 PUSH2 0x3C1B JUMP JUMPDEST DUP1 PUSH1 0x0 JUMPDEST DUP6 DUP2 LT ISZERO PUSH2 0x3D27 JUMPI DUP5 DUP5 SUB DUP10 MSTORE DUP2 MLOAD PUSH2 0x3D08 DUP6 DUP3 PUSH2 0x3CA3 JUMP JUMPDEST SWAP5 POP PUSH2 0x3D13 DUP4 PUSH2 0x3CB7 JUMP JUMPDEST SWAP3 POP PUSH1 0x20 DUP11 ADD SWAP10 POP POP PUSH1 0x1 DUP2 ADD SWAP1 POP PUSH2 0x3CEF JUMP JUMPDEST POP DUP3 SWAP8 POP DUP8 SWAP6 POP POP POP POP POP POP SWAP3 SWAP2 POP POP JUMP JUMPDEST PUSH1 0x0 PUSH1 0x20 DUP3 ADD SWAP1 POP DUP2 DUP2 SUB PUSH1 0x0 DUP4 ADD MSTORE PUSH2 0x3D53 DUP2 DUP5 PUSH2 0x3CC4 JUMP JUMPDEST SWAP1 POP SWAP3 SWAP2 POP POP JUMP JUMPDEST PUSH1 0x0 DUP1 PUSH1 0x0 DUP1 PUSH1 0x80 DUP6 DUP8 SUB SLT ISZERO PUSH2 0x3D75 JUMPI PUSH2 0x3D74 PUSH2 0x34B6 JUMP JUMPDEST JUMPDEST PUSH1 0x0 DUP6 ADD CALLDATALOAD PUSH8 0xFFFFFFFFFFFFFFFF DUP2 GT ISZERO PUSH2 0x3D93 JUMPI PUSH2 0x3D92 PUSH2 0x34BB JUMP JUMPDEST JUMPDEST PUSH2 0x3D9F DUP8 DUP3 DUP9 ADD PUSH2 0x3635 JUMP JUMPDEST SWAP5 POP POP PUSH1 0x20 DUP6 ADD CALLDATALOAD PUSH8 0xFFFFFFFFFFFFFFFF DUP2 GT ISZERO PUSH2 0x3DC0 JUMPI PUSH2 0x3DBF PUSH2 0x34BB JUMP JUMPDEST JUMPDEST PUSH2 0x3DCC DUP8 DUP3 DUP9 ADD PUSH2 0x3635 JUMP JUMPDEST SWAP4 POP POP PUSH1 0x40 DUP6 ADD CALLDATALOAD PUSH8 0xFFFFFFFFFFFFFFFF DUP2 GT ISZERO PUSH2 0x3DED JUMPI PUSH2 0x3DEC PUSH2 0x34BB JUMP JUMPDEST JUMPDEST PUSH2 0x3DF9 DUP8 DUP3 DUP9 ADD PUSH2 0x379F JUMP JUMPDEST SWAP3 POP POP PUSH1 0x60 DUP6 ADD CALLDATALOAD PUSH8 0xFFFFFFFFFFFFFFFF DUP2 GT ISZERO PUSH2 0x3E1A JUMPI PUSH2 0x3E19 PUSH2 0x34BB JUMP JUMPDEST JUMPDEST PUSH2 0x3E26 DUP8 DUP3 DUP9 ADD PUSH2 0x379F JUMP JUMPDEST SWAP2 POP POP SWAP3 SWAP6 SWAP2 SWAP5 POP SWAP3 POP JUMP JUMPDEST PUSH1 0x0 DUP1 PUSH1 0x0 DUP1 PUSH1 0x0 PUSH1 0xA0 DUP7 DUP9 SUB SLT ISZERO PUSH2 0x3E4E JUMPI PUSH2 0x3E4D PUSH2 0x34B6 JUMP JUMPDEST JUMPDEST PUSH1 0x0 DUP7 ADD CALLDATALOAD PUSH8 0xFFFFFFFFFFFFFFFF DUP2 GT ISZERO PUSH2 0x3E6C JUMPI PUSH2 0x3E6B PUSH2 0x34BB JUMP JUMPDEST JUMPDEST PUSH2 0x3E78 DUP9 DUP3 DUP10 ADD PUSH2 0x3635 JUMP JUMPDEST SWAP6 POP POP PUSH1 0x20 DUP7 ADD CALLDATALOAD PUSH8 0xFFFFFFFFFFFFFFFF DUP2 GT ISZERO PUSH2 0x3E99 JUMPI PUSH2 0x3E98 PUSH2 0x34BB JUMP JUMPDEST JUMPDEST PUSH2 0x3EA5 DUP9 DUP3 DUP10 ADD PUSH2 0x3635 JUMP JUMPDEST SWAP5 POP POP PUSH1 0x40 DUP7 ADD CALLDATALOAD PUSH8 0xFFFFFFFFFFFFFFFF DUP2 GT ISZERO PUSH2 0x3EC6 JUMPI PUSH2 0x3EC5 PUSH2 0x34BB JUMP JUMPDEST JUMPDEST PUSH2 0x3ED2 DUP9 DUP3 DUP10 ADD PUSH2 0x379F JUMP JUMPDEST SWAP4 POP POP PUSH1 0x60 DUP7 ADD CALLDATALOAD PUSH8 0xFFFFFFFFFFFFFFFF DUP2 GT ISZERO PUSH2 0x3EF3 JUMPI PUSH2 0x3EF2 PUSH2 0x34BB JUMP JUMPDEST JUMPDEST PUSH2 0x3EFF DUP9 DUP3 DUP10 ADD PUSH2 0x379F JUMP JUMPDEST SWAP3 POP POP PUSH1 0x80 DUP7 ADD CALLDATALOAD PUSH8 0xFFFFFFFFFFFFFFFF DUP2 GT ISZERO PUSH2 0x3F20 JUMPI PUSH2 0x3F1F PUSH2 0x34BB JUMP JUMPDEST JUMPDEST PUSH2 0x3F2C DUP9 DUP3 DUP10 ADD PUSH2 0x3635 JUMP JUMPDEST SWAP2 POP POP SWAP3 SWAP6 POP SWAP3 SWAP6 SWAP1 SWAP4 POP JUMP JUMPDEST PUSH1 0x0 DUP2 MLOAD SWAP1 POP SWAP2 SWAP1 POP JUMP JUMPDEST PUSH1 0x0 DUP3 DUP3 MSTORE PUSH1 0x20 DUP3 ADD SWAP1 POP SWAP3 SWAP2 POP POP JUMP JUMPDEST PUSH1 0x0 DUP2 SWAP1 POP PUSH1 0x20 DUP3 ADD SWAP1 POP SWAP2 SWAP1 POP JUMP JUMPDEST PUSH1 0x0 PUSH1 0x60 DUP4 ADD PUSH1 0x0 DUP4 ADD MLOAD DUP5 DUP3 SUB PUSH1 0x0 DUP7 ADD MSTORE PUSH2 0x3F82 DUP3 DUP3 PUSH2 0x38B7 JUMP JUMPDEST SWAP2 POP POP PUSH1 0x20 DUP4 ADD MLOAD DUP5 DUP3 SUB PUSH1 0x20 DUP7 ADD MSTORE PUSH2 0x3F9C DUP3 DUP3 PUSH2 0x38B7 JUMP JUMPDEST SWAP2 POP POP PUSH1 0x40 DUP4 ADD MLOAD DUP5 DUP3 SUB PUSH1 0x40 DUP7 ADD MSTORE PUSH2 0x3FB6 DUP3 DUP3 PUSH2 0x38B7 JUMP JUMPDEST SWAP2 POP POP DUP1 SWAP2 POP POP SWAP3 SWAP2 POP POP JUMP JUMPDEST PUSH1 0x0 PUSH2 0x3FCF DUP4 DUP4 PUSH2 0x3F65 JUMP JUMPDEST SWAP1 POP SWAP3 SWAP2 POP POP JUMP JUMPDEST PUSH1 0x0 PUSH1 0x20 DUP3 ADD SWAP1 POP SWAP2 SWAP1 POP JUMP JUMPDEST PUSH1 0x0 PUSH2 0x3FEF DUP3 PUSH2 0x3F39 JUMP JUMPDEST PUSH2 0x3FF9 DUP2 DUP6 PUSH2 0x3F44 JUMP JUMPDEST SWAP4 POP DUP4 PUSH1 0x20 DUP3 MUL DUP6 ADD PUSH2 0x400B DUP6 PUSH2 0x3F55 JUMP JUMPDEST DUP1 PUSH1 0x0 JUMPDEST DUP6 DUP2 LT ISZERO PUSH2 0x4047 JUMPI DUP5 DUP5 SUB DUP10 MSTORE DUP2 MLOAD PUSH2 0x4028 DUP6 DUP3 PUSH2 0x3FC3 JUMP JUMPDEST SWAP5 POP PUSH2 0x4033 DUP4 PUSH2 0x3FD7 JUMP JUMPDEST SWAP3 POP PUSH1 0x20 DUP11 ADD SWAP10 POP POP PUSH1 0x1 DUP2 ADD SWAP1 POP PUSH2 0x400F JUMP JUMPDEST POP DUP3 SWAP8 POP DUP8 SWAP6 POP POP POP POP POP POP SWAP3 SWAP2 POP POP JUMP JUMPDEST PUSH1 0x0 PUSH1 0x20 DUP3 ADD SWAP1 POP DUP2 DUP2 SUB PUSH1 0x0 DUP4 ADD MSTORE PUSH2 0x4073 DUP2 DUP5 PUSH2 0x3FE4 JUMP JUMPDEST SWAP1 POP SWAP3 SWAP2 POP POP JUMP JUMPDEST PUSH1 0x0 DUP2 MLOAD SWAP1 POP SWAP2 SWAP1 POP JUMP JUMPDEST PUSH1 0x0 DUP3 DUP3 MSTORE PUSH1 0x20 DUP3 ADD SWAP1 POP SWAP3 SWAP2 POP POP JUMP JUMPDEST PUSH1 0x0 DUP2 SWAP1 POP PUSH1 0x20 DUP3 ADD SWAP1 POP SWAP2 SWAP1 POP JUMP JUMPDEST PUSH1 0x0 PUSH1 0x60 DUP4 ADD PUSH1 0x0 DUP4 ADD MLOAD DUP5 DUP3 SUB PUSH1 0x0 DUP7 ADD MSTORE PUSH2 0x40C4 DUP3 DUP3 PUSH2 0x38B7 JUMP JUMPDEST SWAP2 POP POP PUSH1 0x20 DUP4 ADD MLOAD DUP5 DUP3 SUB PUSH1 0x20 DUP7 ADD MSTORE PUSH2 0x40DE DUP3 DUP3 PUSH2 0x38B7 JUMP JUMPDEST SWAP2 POP POP PUSH1 0x40 DUP4 ADD MLOAD DUP5 DUP3 SUB PUSH1 0x40 DUP7 ADD MSTORE PUSH2 0x40F8 DUP3 DUP3 PUSH2 0x38B7 JUMP JUMPDEST SWAP2 POP POP DUP1 SWAP2 POP POP SWAP3 SWAP2 POP POP JUMP JUMPDEST PUSH1 0x0 PUSH2 0x4111 DUP4 DUP4 PUSH2 0x40A7 JUMP JUMPDEST SWAP1 POP SWAP3 SWAP2 POP POP JUMP JUMPDEST PUSH1 0x0 PUSH1 0x20 DUP3 ADD SWAP1 POP SWAP2 SWAP1 POP JUMP JUMPDEST PUSH1 0x0 PUSH2 0x4131 DUP3 PUSH2 0x407B JUMP JUMPDEST PUSH2 0x413B DUP2 DUP6 PUSH2 0x4086 JUMP JUMPDEST SWAP4 POP DUP4 PUSH1 0x20 DUP3 MUL DUP6 ADD PUSH2 0x414D DUP6 PUSH2 0x4097 JUMP JUMPDEST DUP1 PUSH1 0x0 JUMPDEST DUP6 DUP2 LT ISZERO PUSH2 0x4189 JUMPI DUP5 DUP5 SUB DUP10 MSTORE DUP2 MLOAD PUSH2 0x416A DUP6 DUP3 PUSH2 0x4105 JUMP JUMPDEST SWAP5 POP PUSH2 0x4175 DUP4 PUSH2 0x4119 JUMP JUMPDEST SWAP3 POP PUSH1 0x20 DUP11 ADD SWAP10 POP POP PUSH1 0x1 DUP2 ADD SWAP1 POP PUSH2 0x4151 JUMP JUMPDEST POP DUP3 SWAP8 POP DUP8 SWAP6 POP POP POP POP POP POP SWAP3 SWAP2 POP POP JUMP JUMPDEST PUSH1 0x0 PUSH1 0x20 DUP3 ADD SWAP1 POP DUP2 DUP2 SUB PUSH1 0x0 DUP4 ADD MSTORE PUSH2 0x41B5 DUP2 DUP5 PUSH2 0x4126 JUMP JUMPDEST SWAP1 POP SWAP3 SWAP2 POP POP JUMP JUMPDEST PUSH32 0x4E487B7100000000000000000000000000000000000000000000000000000000 PUSH1 0x0 MSTORE PUSH1 0x32 PUSH1 0x4 MSTORE PUSH1 0x24 PUSH1 0x0 REVERT JUMPDEST PUSH32 0x4E487B7100000000000000000000000000000000000000000000000000000000 PUSH1 0x0 MSTORE PUSH1 0x22 PUSH1 0x4 MSTORE PUSH1 0x24 PUSH1 0x0 REVERT JUMPDEST PUSH1 0x0 PUSH1 0x2 DUP3 DIV SWAP1 POP PUSH1 0x1 DUP3 AND DUP1 PUSH2 0x4233 JUMPI PUSH1 0x7F DUP3 AND SWAP2 POP JUMPDEST PUSH1 0x20 DUP3 LT DUP2 SUB PUSH2 0x4246 JUMPI PUSH2 0x4245 PUSH2 0x41EC JUMP JUMPDEST JUMPDEST POP SWAP2 SWAP1 POP JUMP JUMPDEST PUSH1 0x0 DUP2 SWAP1 POP DUP2 PUSH1 0x0 MSTORE PUSH1 0x20 PUSH1 0x0 KECCAK256 SWAP1 POP SWAP2 SWAP1 POP JUMP JUMPDEST PUSH1 0x0 PUSH1 0x20 PUSH1 0x1F DUP4 ADD DIV SWAP1 POP SWAP2 SWAP1 POP JUMP JUMPDEST PUSH1 0x0 DUP3 DUP3 SHL SWAP1 POP SWAP3 SWAP2 POP POP JUMP JUMPDEST PUSH1 0x0 PUSH1 0x8 DUP4 MUL PUSH2 0x42AE PUSH32 0xFFFFFFFFFFFFFFFFFFFFFFFFFFFFFFFFFFFFFFFFFFFFFFFFFFFFFFFFFFFFFFFF DUP3 PUSH2 0x4271 JUMP JUMPDEST PUSH2 0x42B8 DUP7 DUP4 PUSH2 0x4271 JUMP JUMPDEST SWAP6 POP DUP1 NOT DUP5 AND SWAP4 POP DUP1 DUP7 AND DUP5 OR SWAP3 POP POP POP SWAP4 SWAP3 POP POP POP JUMP JUMPDEST PUSH1 0x0 DUP2 SWAP1 POP SWAP2 SWAP1 POP JUMP JUMPDEST PUSH1 0x0 DUP2 SWAP1 POP SWAP2 SWAP1 POP JUMP JUMPDEST PUSH1 0x0 PUSH2 0x42FF PUSH2 0x42FA PUSH2 0x42F5 DUP5 PUSH2 0x42D0 JUMP JUMPDEST PUSH2 0x42DA JUMP JUMPDEST PUSH2 0x42D0 JUMP JUMPDEST SWAP1 POP SWAP2 SWAP1 POP JUMP JUMPDEST PUSH1 0x0 DUP2 SWAP1 POP SWAP2 SWAP1 POP JUMP JUMPDEST PUSH2 0x4319 DUP4 PUSH2 0x42E4 JUMP JUMPDEST PUSH2 0x432D PUSH2 0x4325 DUP3 PUSH2 0x4306 JUMP JUMPDEST DUP5 DUP5 SLOAD PUSH2 0x427E JUMP JUMPDEST DUP3 SSTORE POP POP POP POP JUMP JUMPDEST PUSH1 0x0 SWAP1 JUMP JUMPDEST PUSH2 0x4342 PUSH2 0x4335 JUMP JUMPDEST PUSH2 0x434D DUP2 DUP5 DUP5 PUSH2 0x4310 JUMP JUMPDEST POP POP POP JUMP JUMPDEST JUMPDEST DUP2 DUP2 LT ISZERO PUSH2 0x4371 JUMPI PUSH2 0x4366 PUSH1 0x0 DUP3 PUSH2 0x433A JUMP JUMPDEST PUSH1 0x1 DUP2 ADD SWAP1 POP PUSH2 0x4353 JUMP JUMPDEST POP POP JUMP JUMPDEST PUSH1 0x1F DUP3 GT ISZERO PUSH2 0x43B6 JUMPI PUSH2 0x4387 DUP2 PUSH2 0x424C JUMP JUMPDEST PUSH2 0x4390 DUP5 PUSH2 0x4261 JUMP JUMPDEST DUP2 ADD PUSH1 0x20 DUP6 LT ISZERO PUSH2 0x439F JUMPI DUP2 SWAP1 POP JUMPDEST PUSH2 0x43B3 PUSH2 0x43AB DUP6 PUSH2 0x4261 JUMP JUMPDEST DUP4 ADD DUP3 PUSH2 0x4352 JUMP JUMPDEST POP POP JUMPDEST POP POP POP JUMP JUMPDEST PUSH1 0x0 DUP3 DUP3 SHR SWAP1 POP SWAP3 SWAP2 POP POP JUMP JUMPDEST PUSH1 0x0 PUSH2 0x43D9 PUSH1 0x0 NOT DUP5 PUSH1 0x8 MUL PUSH2 0x43BB JUMP JUMPDEST NOT DUP1 DUP4 AND SWAP2 POP POP SWAP3 SWAP2 POP POP JUMP JUMPDEST PUSH1 0x0 PUSH2 0x43F2 DUP4 DUP4 PUSH2 0x43C8 JUMP JUMPDEST SWAP2 POP DUP3 PUSH1 0x2 MUL DUP3 OR SWAP1 POP SWAP3 SWAP2 POP POP JUMP JUMPDEST PUSH2 0x440B DUP3 PUSH2 0x3871 JUMP JUMPDEST PUSH8 0xFFFFFFFFFFFFFFFF DUP2 GT ISZERO PUSH2 0x4424 JUMPI PUSH2 0x4423 PUSH2 0x34D6 JUMP JUMPDEST JUMPDEST PUSH2 0x442E DUP3 SLOAD PUSH2 0x421B JUMP JUMPDEST PUSH2 0x4439 DUP3 DUP3 DUP6 PUSH2 0x4375 JUMP JUMPDEST PUSH1 0x0 PUSH1 0x20 SWAP1 POP PUSH1 0x1F DUP4 GT PUSH1 0x1 DUP2 EQ PUSH2 0x446C JUMPI PUSH1 0x0 DUP5 ISZERO PUSH2 0x445A JUMPI DUP3 DUP8 ADD MLOAD SWAP1 POP JUMPDEST PUSH2 0x4464 DUP6 DUP3 PUSH2 0x43E6 JUMP JUMPDEST DUP7 SSTORE POP PUSH2 0x44CC JUMP JUMPDEST PUSH1 0x1F NOT DUP5 AND PUSH2 0x447A DUP7 PUSH2 0x424C JUMP JUMPDEST PUSH1 0x0 JUMPDEST DUP3 DUP2 LT ISZERO PUSH2 0x44A2 JUMPI DUP5 DUP10 ADD MLOAD DUP3 SSTORE PUSH1 0x1 DUP3 ADD SWAP2 POP PUSH1 0x20 DUP6 ADD SWAP5 POP PUSH1 0x20 DUP2 ADD SWAP1 POP PUSH2 0x447D JUMP JUMPDEST DUP7 DUP4 LT ISZERO PUSH2 0x44BF JUMPI DUP5 DUP10 ADD MLOAD PUSH2 0x44BB PUSH1 0x1F DUP10 AND DUP3 PUSH2 0x43C8 JUMP JUMPDEST DUP4 SSTORE POP JUMPDEST PUSH1 0x1 PUSH1 0x2 DUP9 MUL ADD DUP9 SSTORE POP POP POP JUMPDEST POP POP POP POP POP POP JUMP JUMPDEST PUSH32 0x4E487B7100000000000000000000000000000000000000000000000000000000 PUSH1 0x0 MSTORE PUSH1 0x11 PUSH1 0x4 MSTORE PUSH1 0x24 PUSH1 0x0 REVERT JUMPDEST PUSH1 0x0 PUSH2 0x450E DUP3 PUSH2 0x42D0 JUMP JUMPDEST SWAP2 POP PUSH32 0xFFFFFFFFFFFFFFFFFFFFFFFFFFFFFFFFFFFFFFFFFFFFFFFFFFFFFFFFFFFFFFFF DUP3 SUB PUSH2 0x4540 JUMPI PUSH2 0x453F PUSH2 0x44D4 JUMP JUMPDEST JUMPDEST PUSH1 0x1 DUP3 ADD SWAP1 POP SWAP2 SWAP1 POP JUMP JUMPDEST PUSH1 0x0 DUP2 SWAP1 POP SWAP3 SWAP2 POP POP JUMP JUMPDEST PUSH1 0x0 PUSH2 0x4561 DUP3 PUSH2 0x3871 JUMP JUMPDEST PUSH2 0x456B DUP2 DUP6 PUSH2 0x454B JUMP JUMPDEST SWAP4 POP PUSH2 0x457B DUP2 DUP6 PUSH1 0x20 DUP7 ADD PUSH2 0x388D JUMP JUMPDEST DUP1 DUP5 ADD SWAP2 POP POP SWAP3 SWAP2 POP POP JUMP JUMPDEST PUSH1 0x0 PUSH2 0x4593 DUP3 DUP5 PUSH2 0x4556 JUMP JUMPDEST SWAP2 POP DUP2 SWAP1 POP SWAP3 SWAP2 POP POP JUMP JUMPDEST PUSH1 0x0 DUP2 SLOAD PUSH2 0x45AB DUP2 PUSH2 0x421B JUMP JUMPDEST PUSH2 0x45B5 DUP2 DUP7 PUSH2 0x454B JUMP JUMPDEST SWAP5 POP PUSH1 0x1 DUP3 AND PUSH1 0x0 DUP2 EQ PUSH2 0x45D0 JUMPI PUSH1 0x1 DUP2 EQ PUSH2 0x45E5 JUMPI PUSH2 0x4618 JUMP JUMPDEST PUSH1 0xFF NOT DUP4 AND DUP7 MSTORE DUP2 ISZERO ISZERO DUP3 MUL DUP7 ADD SWAP4 POP PUSH2 0x4618 JUMP JUMPDEST PUSH2 0x45EE DUP6 PUSH2 0x424C JUMP JUMPDEST PUSH1 0x0 JUMPDEST DUP4 DUP2 LT ISZERO PUSH2 0x4610 JUMPI DUP2 SLOAD DUP2 DUP10 ADD MSTORE PUSH1 0x1 DUP3 ADD SWAP2 POP PUSH1 0x20 DUP2 ADD SWAP1 POP PUSH2 0x45F1 JUMP JUMPDEST DUP4 DUP9 ADD SWAP6 POP POP POP JUMPDEST POP POP POP SWAP3 SWAP2 POP POP JUMP JUMPDEST PUSH1 0x0 PUSH2 0x462D DUP3 DUP5 PUSH2 0x459E JUMP JUMPDEST SWAP2 POP DUP2 SWAP1 POP SWAP3 SWAP2 POP POP JUMP JUMPDEST PUSH1 0x0 PUSH2 0x4643 DUP3 PUSH2 0x42D0 JUMP JUMPDEST SWAP2 POP PUSH2 0x464E DUP4 PUSH2 0x42D0 JUMP JUMPDEST SWAP3 POP DUP3 DUP3 SUB SWAP1 POP DUP2 DUP2 GT ISZERO PUSH2 0x4666 JUMPI PUSH2 0x4665 PUSH2 0x44D4 JUMP JUMPDEST JUMPDEST SWAP3 SWAP2 POP POP JUMP JUMPDEST PUSH1 0x0 PUSH2 0x4677 DUP3 PUSH2 0x42D0 JUMP JUMPDEST SWAP2 POP PUSH2 0x4682 DUP4 PUSH2 0x42D0 JUMP JUMPDEST SWAP3 POP DUP3 DUP3 ADD SWAP1 POP DUP1 DUP3 GT ISZERO PUSH2 0x469A JUMPI PUSH2 0x4699 PUSH2 0x44D4 JUMP JUMPDEST JUMPDEST SWAP3 SWAP2 POP POP JUMP JUMPDEST PUSH1 0x0 DUP2 SLOAD SWAP1 POP PUSH2 0x46AF DUP2 PUSH2 0x421B JUMP JUMPDEST SWAP1 POP SWAP2 SWAP1 POP JUMP JUMPDEST DUP2 DUP2 SUB PUSH2 0x46C4 JUMPI POP POP PUSH2 0x479C JUMP JUMPDEST PUSH2 0x46CD DUP3 PUSH2 0x46A0 JUMP JUMPDEST PUSH8 0xFFFFFFFFFFFFFFFF DUP2 GT ISZERO PUSH2 0x46E6 JUMPI PUSH2 0x46E5 PUSH2 0x34D6 JUMP JUMPDEST JUMPDEST PUSH2 0x46F0 DUP3 SLOAD PUSH2 0x421B JUMP JUMPDEST PUSH2 0x46FB DUP3 DUP3 DUP6 PUSH2 0x4375 JUMP JUMPDEST PUSH1 0x0 PUSH1 0x1F DUP4 GT PUSH1 0x1 DUP2 EQ PUSH2 0x472A JUMPI PUSH1 0x0 DUP5 ISZERO PUSH2 0x4718 JUMPI DUP3 DUP8 ADD SLOAD SWAP1 POP JUMPDEST PUSH2 0x4722 DUP6 DUP3 PUSH2 0x43E6 JUMP JUMPDEST DUP7 SSTORE POP PUSH2 0x4795 JUMP JUMPDEST PUSH1 0x1F NOT DUP5 AND PUSH2 0x4738 DUP8 PUSH2 0x424C JUMP JUMPDEST SWAP7 POP PUSH2 0x4743 DUP7 PUSH2 0x424C JUMP JUMPDEST PUSH1 0x0 JUMPDEST DUP3 DUP2 LT ISZERO PUSH2 0x476B JUMPI DUP5 DUP10 ADD SLOAD DUP3 SSTORE PUSH1 0x1 DUP3 ADD SWAP2 POP PUSH1 0x1 DUP6 ADD SWAP5 POP PUSH1 0x20 DUP2 ADD SWAP1 POP PUSH2 0x4746 JUMP JUMPDEST DUP7 DUP4 LT ISZERO PUSH2 0x4788 JUMPI DUP5 DUP10 ADD SLOAD PUSH2 0x4784 PUSH1 0x1F DUP10 AND DUP3 PUSH2 0x43C8 JUMP JUMPDEST DUP4 SSTORE POP JUMPDEST PUSH1 0x1 PUSH1 0x2 DUP9 MUL ADD DUP9 SSTORE POP POP POP JUMPDEST POP POP POP POP POP POP JUMPDEST JUMP JUMPDEST PUSH32 0x4E487B7100000000000000000000000000000000000000000000000000000000 PUSH1 0x0 MSTORE PUSH1 0x31 PUSH1 0x4 MSTORE PUSH1 0x24 PUSH1 0x0 REVERT INVALID LOG2 PUSH5 0x6970667358 0x22 SLT KECCAK256 0x4C PUSH32 0x424E3975C07A03732579C112DE9A96BA3CA1A915C1B4AF0F96069060018A6473 PUSH16 0x6C634300081200330000000000000000 "
				},
				"gasEstimates": {
					"creation": {
						"codeDepositCost": "3687000",
						"executionCost": "4163",
						"totalCost": "3691163"
					},
					"external": {
						"addBugandFeature(string[][],string[][])": "infinite",
						"approvePatch(string,string,string[][],string[][],string)": "infinite",
						"approvedPatches()": "infinite",
						"deployedPatches()": "infinite",
						"getBugs()": "infinite",
						"getFeatures()": "infinite",
						"patchDetails()": "infinite",
						"rejectPatch(string,string,string[][],string[][],string)": "infinite",
						"rejectedPatches()": "infinite",
						"requestDeploy(string,string,string[][],string[][],string)": "infinite",
						"requestPatch(string,string,string[][],string[][])": "infinite",
						"requestQA(string,string,string[][],string[][],string)": "infinite",
						"requestedPatches()": "infinite"
					},
					"internal": {
						"removeBug(uint256,struct Bug storage ref[] storage pointer)": "infinite",
						"removeFeature(uint256,struct Feature storage ref[] storage pointer)": "infinite",
						"removePatch(uint256,struct Patch storage ref[] storage pointer)": "infinite",
						"removePatchFile(uint256,struct PatchFile storage ref[] storage pointer)": "infinite"
					}
				},
				"methodIdentifiers": {
					"addBugandFeature(string[][],string[][])": "038ddbb3",
					"approvePatch(string,string,string[][],string[][],string)": "4f0d4dc4",
					"approvedPatches()": "09c650ba",
					"deployedPatches()": "a28486b6",
					"getBugs()": "893acf2d",
					"getFeatures()": "7dfcc71a",
					"patchDetails()": "09f899b9",
					"rejectPatch(string,string,string[][],string[][],string)": "ff49a764",
					"rejectedPatches()": "366982ca",
					"requestDeploy(string,string,string[][],string[][],string)": "a093271e",
					"requestPatch(string,string,string[][],string[][])": "1ec407cc",
					"requestQA(string,string,string[][],string[][],string)": "633083f7",
					"requestedPatches()": "27dfb8fa"
				}
			},
			"storageLayout": {
				"storage": [
					{
						"astId": 51,
						"contract": "blc.sol:PatchManagement",
						"label": "select_bugs",
						"offset": 0,
						"slot": "0",
						"type": "t_array(t_struct(Bug)8_storage)dyn_storage"
					},
					{
						"astId": 55,
						"contract": "blc.sol:PatchManagement",
						"label": "Unassigned_bugs",
						"offset": 0,
						"slot": "1",
						"type": "t_array(t_struct(Bug)8_storage)dyn_storage"
					},
					{
						"astId": 59,
						"contract": "blc.sol:PatchManagement",
						"label": "select_features",
						"offset": 0,
						"slot": "2",
						"type": "t_array(t_struct(Feature)15_storage)dyn_storage"
					},
					{
						"astId": 63,
						"contract": "blc.sol:PatchManagement",
						"label": "Unassigned_features",
						"offset": 0,
						"slot": "3",
						"type": "t_array(t_struct(Feature)15_storage)dyn_storage"
					},
					{
						"astId": 67,
						"contract": "blc.sol:PatchManagement",
						"label": "patches",
						"offset": 0,
						"slot": "4",
						"type": "t_array(t_struct(Patch)28_storage)dyn_storage"
					},
					{
						"astId": 71,
						"contract": "blc.sol:PatchManagement",
						"label": "check_patches",
						"offset": 0,
						"slot": "5",
						"type": "t_array(t_struct(PatchFile)47_storage)dyn_storage"
					},
					{
						"astId": 75,
						"contract": "blc.sol:PatchManagement",
						"label": "approved_patches",
						"offset": 0,
						"slot": "6",
						"type": "t_array(t_struct(PatchFile)47_storage)dyn_storage"
					},
					{
						"astId": 79,
						"contract": "blc.sol:PatchManagement",
						"label": "rejected_patches",
						"offset": 0,
						"slot": "7",
						"type": "t_array(t_struct(PatchFile)47_storage)dyn_storage"
					},
					{
						"astId": 83,
						"contract": "blc.sol:PatchManagement",
						"label": "deployed_patches",
						"offset": 0,
						"slot": "8",
						"type": "t_array(t_struct(PatchFile)47_storage)dyn_storage"
					}
				],
				"types": {
					"t_array(t_array(t_string_storage)dyn_storage)dyn_storage": {
						"base": "t_array(t_string_storage)dyn_storage",
						"encoding": "dynamic_array",
						"label": "string[][]",
						"numberOfBytes": "32"
					},
					"t_array(t_string_storage)dyn_storage": {
						"base": "t_string_storage",
						"encoding": "dynamic_array",
						"label": "string[]",
						"numberOfBytes": "32"
					},
					"t_array(t_struct(Bug)8_storage)dyn_storage": {
						"base": "t_struct(Bug)8_storage",
						"encoding": "dynamic_array",
						"label": "struct Bug[]",
						"numberOfBytes": "32"
					},
					"t_array(t_struct(Feature)15_storage)dyn_storage": {
						"base": "t_struct(Feature)15_storage",
						"encoding": "dynamic_array",
						"label": "struct Feature[]",
						"numberOfBytes": "32"
					},
					"t_array(t_struct(Patch)28_storage)dyn_storage": {
						"base": "t_struct(Patch)28_storage",
						"encoding": "dynamic_array",
						"label": "struct Patch[]",
						"numberOfBytes": "32"
					},
					"t_array(t_struct(PatchFile)47_storage)dyn_storage": {
						"base": "t_struct(PatchFile)47_storage",
						"encoding": "dynamic_array",
						"label": "struct PatchFile[]",
						"numberOfBytes": "32"
					},
					"t_bool": {
						"encoding": "inplace",
						"label": "bool",
						"numberOfBytes": "1"
					},
					"t_string_storage": {
						"encoding": "bytes",
						"label": "string",
						"numberOfBytes": "32"
					},
					"t_struct(Bug)8_storage": {
						"encoding": "inplace",
						"label": "struct Bug",
						"members": [
							{
								"astId": 3,
								"contract": "blc.sol:PatchManagement",
								"label": "name",
								"offset": 0,
								"slot": "0",
								"type": "t_string_storage"
							},
							{
								"astId": 5,
								"contract": "blc.sol:PatchManagement",
								"label": "description",
								"offset": 0,
								"slot": "1",
								"type": "t_string_storage"
							},
							{
								"astId": 7,
								"contract": "blc.sol:PatchManagement",
								"label": "priority",
								"offset": 0,
								"slot": "2",
								"type": "t_string_storage"
							}
						],
						"numberOfBytes": "96"
					},
					"t_struct(Feature)15_storage": {
						"encoding": "inplace",
						"label": "struct Feature",
						"members": [
							{
								"astId": 10,
								"contract": "blc.sol:PatchManagement",
								"label": "name",
								"offset": 0,
								"slot": "0",
								"type": "t_string_storage"
							},
							{
								"astId": 12,
								"contract": "blc.sol:PatchManagement",
								"label": "description",
								"offset": 0,
								"slot": "1",
								"type": "t_string_storage"
							},
							{
								"astId": 14,
								"contract": "blc.sol:PatchManagement",
								"label": "priority",
								"offset": 0,
								"slot": "2",
								"type": "t_string_storage"
							}
						],
						"numberOfBytes": "96"
					},
					"t_struct(Patch)28_storage": {
						"encoding": "inplace",
						"label": "struct Patch",
						"members": [
							{
								"astId": 17,
								"contract": "blc.sol:PatchManagement",
								"label": "name",
								"offset": 0,
								"slot": "0",
								"type": "t_string_storage"
							},
							{
								"astId": 19,
								"contract": "blc.sol:PatchManagement",
								"label": "description",
								"offset": 0,
								"slot": "1",
								"type": "t_string_storage"
							},
							{
								"astId": 23,
								"contract": "blc.sol:PatchManagement",
								"label": "bugs",
								"offset": 0,
								"slot": "2",
								"type": "t_array(t_array(t_string_storage)dyn_storage)dyn_storage"
							},
							{
								"astId": 27,
								"contract": "blc.sol:PatchManagement",
								"label": "features",
								"offset": 0,
								"slot": "3",
								"type": "t_array(t_array(t_string_storage)dyn_storage)dyn_storage"
							}
						],
						"numberOfBytes": "128"
					},
					"t_struct(PatchFile)47_storage": {
						"encoding": "inplace",
						"label": "struct PatchFile",
						"members": [
							{
								"astId": 30,
								"contract": "blc.sol:PatchManagement",
								"label": "name",
								"offset": 0,
								"slot": "0",
								"type": "t_string_storage"
							},
							{
								"astId": 32,
								"contract": "blc.sol:PatchManagement",
								"label": "description",
								"offset": 0,
								"slot": "1",
								"type": "t_string_storage"
							},
							{
								"astId": 36,
								"contract": "blc.sol:PatchManagement",
								"label": "bugs",
								"offset": 0,
								"slot": "2",
								"type": "t_array(t_array(t_string_storage)dyn_storage)dyn_storage"
							},
							{
								"astId": 40,
								"contract": "blc.sol:PatchManagement",
								"label": "features",
								"offset": 0,
								"slot": "3",
								"type": "t_array(t_array(t_string_storage)dyn_storage)dyn_storage"
							},
							{
								"astId": 42,
								"contract": "blc.sol:PatchManagement",
								"label": "version",
								"offset": 0,
								"slot": "4",
								"type": "t_string_storage"
							},
							{
								"astId": 44,
								"contract": "blc.sol:PatchManagement",
								"label": "approved",
								"offset": 0,
								"slot": "5",
								"type": "t_bool"
							},
							{
								"astId": 46,
								"contract": "blc.sol:PatchManagement",
								"label": "deployed",
								"offset": 1,
								"slot": "5",
								"type": "t_bool"
							}
						],
						"numberOfBytes": "192"
					}
				}
			},
			"userdoc": {
				"kind": "user",
				"methods": {},
				"version": 1
			}
		}
	}
}