{
	"sumofnumbers.sol": {
		"SolidtyTest": {
			"abi": [
				{
					"inputs": [],
					"payable": false,
					"stateMutability": "nonpayable",
					"type": "constructor"
				},
				{
					"constant": true,
					"inputs": [],
					"name": "sum",
					"outputs": [
						{
							"internalType": "uint256",
							"name": "",
							"type": "uint256"
						}
					],
					"payable": false,
					"stateMutability": "view",
					"type": "function"
				}
			],
			"devdoc": {
				"methods": {}
			},
			"evm": {
				"assembly": "    /* \"sumofnumbers.sol\":63:262  contract SolidtyTest {\r... */\n  mstore(0x40, 0x80)\n    /* \"sumofnumbers.sol\":119:177  constructor() public{\r... */\n  callvalue\n    /* \"--CODEGEN--\":8:17   */\n  dup1\n    /* \"--CODEGEN--\":5:7   */\n  iszero\n  tag_1\n  jumpi\n    /* \"--CODEGEN--\":30:31   */\n  0x00\n    /* \"--CODEGEN--\":27:28   */\n  dup1\n    /* \"--CODEGEN--\":20:32   */\n  revert\n    /* \"--CODEGEN--\":5:7   */\ntag_1:\n    /* \"sumofnumbers.sol\":119:177  constructor() public{\r... */\n  pop\n    /* \"sumofnumbers.sol\":152:154  10 */\n  0x0a\n    /* \"sumofnumbers.sol\":150:151  a */\n  0x00\n    /* \"sumofnumbers.sol\":150:154  a=10 */\n  dup2\n  swap1\n  sstore\n  pop\n    /* \"sumofnumbers.sol\":167:169  45 */\n  0x2d\n    /* \"sumofnumbers.sol\":165:166  b */\n  0x01\n    /* \"sumofnumbers.sol\":165:169  b=45 */\n  dup2\n  swap1\n  sstore\n  pop\n    /* \"sumofnumbers.sol\":63:262  contract SolidtyTest {\r... */\n  dataSize(sub_0)\n  dup1\n  dataOffset(sub_0)\n  0x00\n  codecopy\n  0x00\n  return\nstop\n\nsub_0: assembly {\n        /* \"sumofnumbers.sol\":63:262  contract SolidtyTest {\r... */\n      mstore(0x40, 0x80)\n      callvalue\n        /* \"--CODEGEN--\":8:17   */\n      dup1\n        /* \"--CODEGEN--\":5:7   */\n      iszero\n      tag_1\n      jumpi\n        /* \"--CODEGEN--\":30:31   */\n      0x00\n        /* \"--CODEGEN--\":27:28   */\n      dup1\n        /* \"--CODEGEN--\":20:32   */\n      revert\n        /* \"--CODEGEN--\":5:7   */\n    tag_1:\n        /* \"sumofnumbers.sol\":63:262  contract SolidtyTest {\r... */\n      pop\n      jumpi(tag_2, lt(calldatasize, 0x04))\n      shr(0xe0, calldataload(0x00))\n      dup1\n      0x853255cc\n      eq\n      tag_3\n      jumpi\n    tag_2:\n      0x00\n      dup1\n      revert\n        /* \"sumofnumbers.sol\":189:258  function sum() view public returns(uint){\r... */\n    tag_3:\n      tag_4\n      tag_5\n      jump\t// in\n    tag_4:\n      mload(0x40)\n      dup1\n      dup3\n      dup2\n      mstore\n      0x20\n      add\n      swap2\n      pop\n      pop\n      mload(0x40)\n      dup1\n      swap2\n      sub\n      swap1\n      return\n    tag_5:\n        /* \"sumofnumbers.sol\":224:228  uint */\n      0x00\n        /* \"sumofnumbers.sol\":249:250  b */\n      sload(0x01)\n        /* \"sumofnumbers.sol\":247:248  a */\n      sload(0x00)\n        /* \"sumofnumbers.sol\":247:250  a+b */\n      add\n        /* \"sumofnumbers.sol\":240:250  return a+b */\n      swap1\n      pop\n        /* \"sumofnumbers.sol\":189:258  function sum() view public returns(uint){\r... */\n      swap1\n      jump\t// out\n\n    auxdata: 0xa265627a7a723158208340d38aa80e93304d31826711034ed0eec3d8156f22e95c3801d33ed26bcf0a64736f6c63430005110032\n}\n",
				"bytecode": {
					"linkReferences": {},
					"object": "6080604052348015600f57600080fd5b50600a600081905550602d600181905550608c8061002e6000396000f3fe6080604052348015600f57600080fd5b506004361060285760003560e01c8063853255cc14602d575b600080fd5b60336049565b6040518082815260200191505060405180910390f35b60006001546000540190509056fea265627a7a723158208340d38aa80e93304d31826711034ed0eec3d8156f22e95c3801d33ed26bcf0a64736f6c63430005110032",
					"opcodes": "PUSH1 0x80 PUSH1 0x40 MSTORE CALLVALUE DUP1 ISZERO PUSH1 0xF JUMPI PUSH1 0x0 DUP1 REVERT JUMPDEST POP PUSH1 0xA PUSH1 0x0 DUP2 SWAP1 SSTORE POP PUSH1 0x2D PUSH1 0x1 DUP2 SWAP1 SSTORE POP PUSH1 0x8C DUP1 PUSH2 0x2E PUSH1 0x0 CODECOPY PUSH1 0x0 RETURN INVALID PUSH1 0x80 PUSH1 0x40 MSTORE CALLVALUE DUP1 ISZERO PUSH1 0xF JUMPI PUSH1 0x0 DUP1 REVERT JUMPDEST POP PUSH1 0x4 CALLDATASIZE LT PUSH1 0x28 JUMPI PUSH1 0x0 CALLDATALOAD PUSH1 0xE0 SHR DUP1 PUSH4 0x853255CC EQ PUSH1 0x2D JUMPI JUMPDEST PUSH1 0x0 DUP1 REVERT JUMPDEST PUSH1 0x33 PUSH1 0x49 JUMP JUMPDEST PUSH1 0x40 MLOAD DUP1 DUP3 DUP2 MSTORE PUSH1 0x20 ADD SWAP2 POP POP PUSH1 0x40 MLOAD DUP1 SWAP2 SUB SWAP1 RETURN JUMPDEST PUSH1 0x0 PUSH1 0x1 SLOAD PUSH1 0x0 SLOAD ADD SWAP1 POP SWAP1 JUMP INVALID LOG2 PUSH6 0x627A7A723158 KECCAK256 DUP4 BLOCKHASH 0xD3 DUP11 0xA8 0xE SWAP4 ADDRESS 0x4D BALANCE DUP3 PUSH8 0x11034ED0EEC3D815 PUSH16 0x22E95C3801D33ED26BCF0A64736F6C63 NUMBER STOP SDIV GT STOP ORIGIN "
				},
				"gasEstimates": {
					"creation": {
						"codeDepositCost": "28000",
						"executionCost": "40109",
						"totalCost": "68109"
					},
					"external": {
						"sum()": "1797"
					}
				},
				"methodIdentifiers": {
					"sum()": "853255cc"
				}
			},
			"storageLayout": {
				"storage": [
					{
						"astId": 3,
						"contract": "sumofnumbers.sol:SolidtyTest",
						"label": "a",
						"offset": 0,
						"slot": "0",
						"type": "t_uint256"
					},
					{
						"astId": 5,
						"contract": "sumofnumbers.sol:SolidtyTest",
						"label": "b",
						"offset": 0,
						"slot": "1",
						"type": "t_uint256"
					}
				],
				"types": {
					"t_uint256": {
						"encoding": "inplace",
						"label": "uint256",
						"numberOfBytes": "32"
					}
				}
			},
			"userdoc": {
				"methods": {}
			}
		}
	}
}