{
	"Documents/project/Project School 2/sumofnumbers.sol": {
		"SolidtyTest": {
			"abi": [
				{
					"inputs": [
						{
							"internalType": "string",
							"name": "_patchName",
							"type": "string"
						},
						{
							"internalType": "string[]",
							"name": "_bugs",
							"type": "string[]"
						},
						{
							"internalType": "string[]",
							"name": "_features",
							"type": "string[]"
						}
					],
					"name": "addPatch",
					"outputs": [],
					"stateMutability": "nonpayable",
					"type": "function"
				},
				{
					"inputs": [],
					"name": "allPatches",
					"outputs": [
						{
							"components": [
								{
									"internalType": "string[]",
									"name": "patches",
									"type": "string[]"
								}
							],
							"internalType": "struct SolidtyTest.AllPatch",
							"name": "",
							"type": "tuple"
						}
					],
					"stateMutability": "view",
					"type": "function"
				},
				{
					"inputs": [
						{
							"internalType": "string",
							"name": "_patchName",
							"type": "string"
						}
					],
					"name": "getPatchDetails",
					"outputs": [
						{
							"components": [
								{
									"internalType": "string[]",
									"name": "bugs",
									"type": "string[]"
								},
								{
									"internalType": "string[]",
									"name": "features",
									"type": "string[]"
								}
							],
							"internalType": "struct SolidtyTest.Patch",
							"name": "",
							"type": "tuple"
						}
					],
					"stateMutability": "view",
					"type": "function"
				}
			],
			"devdoc": {
				"kind": "dev",
				"methods": {},
				"version": 1
			},
			"evm": {
				"assembly": "    /* \"Documents/project/Project School 2/sumofnumbers.sol\":64:716  contract SolidtyTest {... */\n  mstore(0x40, 0x80)\n  callvalue\n  dup1\n  iszero\n  tag_1\n  jumpi\n  0x00\n  dup1\n  revert\ntag_1:\n  pop\n  dataSize(sub_0)\n  dup1\n  dataOffset(sub_0)\n  0x00\n  codecopy\n  0x00\n  return\nstop\n\nsub_0: assembly {\n        /* \"Documents/project/Project School 2/sumofnumbers.sol\":64:716  contract SolidtyTest {... */\n      mstore(0x40, 0x80)\n      callvalue\n      dup1\n      iszero\n      tag_1\n      jumpi\n      0x00\n      dup1\n      revert\n    tag_1:\n      pop\n      jumpi(tag_2, lt(calldatasize, 0x04))\n      shr(0xe0, calldataload(0x00))\n      dup1\n      0x2a208761\n      eq\n      tag_3\n      jumpi\n      dup1\n      0x4c26da56\n      eq\n      tag_4\n      jumpi\n      dup1\n      0x73eb92e8\n      eq\n      tag_5\n      jumpi\n    tag_2:\n      0x00\n      dup1\n      revert\n        /* \"Documents/project/Project School 2/sumofnumbers.sol\":481:607  function getPatchDetails(string memory _patchName)public view returns(Patch memory){... */\n    tag_3:\n      tag_6\n      0x04\n      dup1\n      calldatasize\n      sub\n      dup2\n      add\n      swap1\n      tag_7\n      swap2\n      swap1\n      tag_8\n      jump\t// in\n    tag_7:\n      tag_9\n      jump\t// in\n    tag_6:\n      mload(0x40)\n      tag_10\n      swap2\n      swap1\n      tag_11\n      jump\t// in\n    tag_10:\n      mload(0x40)\n      dup1\n      swap2\n      sub\n      swap1\n      return\n        /* \"Documents/project/Project School 2/sumofnumbers.sol\":612:714  function allPatches()public view returns(AllPatch memory){... */\n    tag_4:\n      tag_12\n      tag_13\n      jump\t// in\n    tag_12:\n      mload(0x40)\n      tag_14\n      swap2\n      swap1\n      tag_15\n      jump\t// in\n    tag_14:\n      mload(0x40)\n      dup1\n      swap2\n      sub\n      swap1\n      return\n        /* \"Documents/project/Project School 2/sumofnumbers.sol\":280:476  function addPatch(string memory _patchName,string[] memory _bugs,string[] memory _features)public{... */\n    tag_5:\n      tag_16\n      0x04\n      dup1\n      calldatasize\n      sub\n      dup2\n      add\n      swap1\n      tag_17\n      swap2\n      swap1\n      tag_18\n      jump\t// in\n    tag_17:\n      tag_19\n      jump\t// in\n    tag_16:\n      stop\n        /* \"Documents/project/Project School 2/sumofnumbers.sol\":481:607  function getPatchDetails(string memory _patchName)public view returns(Patch memory){... */\n    tag_9:\n        /* \"Documents/project/Project School 2/sumofnumbers.sol\":551:563  Patch memory */\n      tag_20\n      tag_21\n      jump\t// in\n    tag_20:\n        /* \"Documents/project/Project School 2/sumofnumbers.sol\":581:588  patches */\n      0x01\n        /* \"Documents/project/Project School 2/sumofnumbers.sol\":589:599  _patchName */\n      dup3\n        /* \"Documents/project/Project School 2/sumofnumbers.sol\":581:600  patches[_patchName] */\n      mload(0x40)\n      tag_23\n      swap2\n      swap1\n      tag_24\n      jump\t// in\n    tag_23:\n      swap1\n      dup2\n      mstore\n      0x20\n      add\n      mload(0x40)\n      dup1\n      swap2\n      sub\n      swap1\n      keccak256\n        /* \"Documents/project/Project School 2/sumofnumbers.sol\":574:600  return patches[_patchName] */\n      mload(0x40)\n      dup1\n      0x40\n      add\n      0x40\n      mstore\n      swap1\n      dup2\n      0x00\n      dup3\n      add\n      dup1\n      sload\n      dup1\n      0x20\n      mul\n      0x20\n      add\n      mload(0x40)\n      swap1\n      dup2\n      add\n      0x40\n      mstore\n      dup1\n      swap3\n      swap2\n      swap1\n      dup2\n      dup2\n      mstore\n      0x20\n      add\n      0x00\n      swap1\n    tag_25:\n      dup3\n      dup3\n      lt\n      iszero\n      tag_26\n      jumpi\n      dup4\n      dup3\n      swap1\n      0x00\n      mstore\n      keccak256(0x00, 0x20)\n      add\n      dup1\n      sload\n      tag_28\n      swap1\n      tag_29\n      jump\t// in\n    tag_28:\n      dup1\n      0x1f\n      add\n      0x20\n      dup1\n      swap2\n      div\n      mul\n      0x20\n      add\n      mload(0x40)\n      swap1\n      dup2\n      add\n      0x40\n      mstore\n      dup1\n      swap3\n      swap2\n      swap1\n      dup2\n      dup2\n      mstore\n      0x20\n      add\n      dup3\n      dup1\n      sload\n      tag_30\n      swap1\n      tag_29\n      jump\t// in\n    tag_30:\n      dup1\n      iszero\n      tag_31\n      jumpi\n      dup1\n      0x1f\n      lt\n      tag_32\n      jumpi\n      0x0100\n      dup1\n      dup4\n      sload\n      div\n      mul\n      dup4\n      mstore\n      swap2\n      0x20\n      add\n      swap2\n      jump(tag_31)\n    tag_32:\n      dup3\n      add\n      swap2\n      swap1\n      0x00\n      mstore\n      keccak256(0x00, 0x20)\n      swap1\n    tag_33:\n      dup2\n      sload\n      dup2\n      mstore\n      swap1\n      0x01\n      add\n      swap1\n      0x20\n      add\n      dup1\n      dup4\n      gt\n      tag_33\n      jumpi\n      dup3\n      swap1\n      sub\n      0x1f\n      and\n      dup3\n      add\n      swap2\n    tag_31:\n      pop\n      pop\n      pop\n      pop\n      pop\n      dup2\n      mstore\n      0x20\n      add\n      swap1\n      0x01\n      add\n      swap1\n      jump(tag_25)\n    tag_26:\n      pop\n      pop\n      pop\n      pop\n      dup2\n      mstore\n      0x20\n      add\n      0x01\n      dup3\n      add\n      dup1\n      sload\n      dup1\n      0x20\n      mul\n      0x20\n      add\n      mload(0x40)\n      swap1\n      dup2\n      add\n      0x40\n      mstore\n      dup1\n      swap3\n      swap2\n      swap1\n      dup2\n      dup2\n      mstore\n      0x20\n      add\n      0x00\n      swap1\n    tag_34:\n      dup3\n      dup3\n      lt\n      iszero\n      tag_35\n      jumpi\n      dup4\n      dup3\n      swap1\n      0x00\n      mstore\n      keccak256(0x00, 0x20)\n      add\n      dup1\n      sload\n      tag_37\n      swap1\n      tag_29\n      jump\t// in\n    tag_37:\n      dup1\n      0x1f\n      add\n      0x20\n      dup1\n      swap2\n      div\n      mul\n      0x20\n      add\n      mload(0x40)\n      swap1\n      dup2\n      add\n      0x40\n      mstore\n      dup1\n      swap3\n      swap2\n      swap1\n      dup2\n      dup2\n      mstore\n      0x20\n      add\n      dup3\n      dup1\n      sload\n      tag_38\n      swap1\n      tag_29\n      jump\t// in\n    tag_38:\n      dup1\n      iszero\n      tag_39\n      jumpi\n      dup1\n      0x1f\n      lt\n      tag_40\n      jumpi\n      0x0100\n      dup1\n      dup4\n      sload\n      div\n      mul\n      dup4\n      mstore\n      swap2\n      0x20\n      add\n      swap2\n      jump(tag_39)\n    tag_40:\n      dup3\n      add\n      swap2\n      swap1\n      0x00\n      mstore\n      keccak256(0x00, 0x20)\n      swap1\n    tag_41:\n      dup2\n      sload\n      dup2\n      mstore\n      swap1\n      0x01\n      add\n      swap1\n      0x20\n      add\n      dup1\n      dup4\n      gt\n      tag_41\n      jumpi\n      dup3\n      swap1\n      sub\n      0x1f\n      and\n      dup3\n      add\n      swap2\n    tag_39:\n      pop\n      pop\n      pop\n      pop\n      pop\n      dup2\n      mstore\n      0x20\n      add\n      swap1\n      0x01\n      add\n      swap1\n      jump(tag_34)\n    tag_35:\n      pop\n      pop\n      pop\n      pop\n      dup2\n      mstore\n      pop\n      pop\n      swap1\n      pop\n        /* \"Documents/project/Project School 2/sumofnumbers.sol\":481:607  function getPatchDetails(string memory _patchName)public view returns(Patch memory){... */\n      swap2\n      swap1\n      pop\n      jump\t// out\n        /* \"Documents/project/Project School 2/sumofnumbers.sol\":612:714  function allPatches()public view returns(AllPatch memory){... */\n    tag_13:\n        /* \"Documents/project/Project School 2/sumofnumbers.sol\":653:668  AllPatch memory */\n      tag_42\n      tag_43\n      jump\t// in\n    tag_42:\n        /* \"Documents/project/Project School 2/sumofnumbers.sol\":686:707  AllPatch(all_patches) */\n      mload(0x40)\n      dup1\n      0x20\n      add\n      0x40\n      mstore\n      dup1\n        /* \"Documents/project/Project School 2/sumofnumbers.sol\":695:706  all_patches */\n      0x00\n        /* \"Documents/project/Project School 2/sumofnumbers.sol\":686:707  AllPatch(all_patches) */\n      dup1\n      sload\n      dup1\n      0x20\n      mul\n      0x20\n      add\n      mload(0x40)\n      swap1\n      dup2\n      add\n      0x40\n      mstore\n      dup1\n      swap3\n      swap2\n      swap1\n      dup2\n      dup2\n      mstore\n      0x20\n      add\n      0x00\n      swap1\n    tag_45:\n      dup3\n      dup3\n      lt\n      iszero\n      tag_46\n      jumpi\n      dup4\n      dup3\n      swap1\n      0x00\n      mstore\n      keccak256(0x00, 0x20)\n      add\n      dup1\n      sload\n      tag_48\n      swap1\n      tag_29\n      jump\t// in\n    tag_48:\n      dup1\n      0x1f\n      add\n      0x20\n      dup1\n      swap2\n      div\n      mul\n      0x20\n      add\n      mload(0x40)\n      swap1\n      dup2\n      add\n      0x40\n      mstore\n      dup1\n      swap3\n      swap2\n      swap1\n      dup2\n      dup2\n      mstore\n      0x20\n      add\n      dup3\n      dup1\n      sload\n      tag_49\n      swap1\n      tag_29\n      jump\t// in\n    tag_49:\n      dup1\n      iszero\n      tag_50\n      jumpi\n      dup1\n      0x1f\n      lt\n      tag_51\n      jumpi\n      0x0100\n      dup1\n      dup4\n      sload\n      div\n      mul\n      dup4\n      mstore\n      swap2\n      0x20\n      add\n      swap2\n      jump(tag_50)\n    tag_51:\n      dup3\n      add\n      swap2\n      swap1\n      0x00\n      mstore\n      keccak256(0x00, 0x20)\n      swap1\n    tag_52:\n      dup2\n      sload\n      dup2\n      mstore\n      swap1\n      0x01\n      add\n      swap1\n      0x20\n      add\n      dup1\n      dup4\n      gt\n      tag_52\n      jumpi\n      dup3\n      swap1\n      sub\n      0x1f\n      and\n      dup3\n      add\n      swap2\n    tag_50:\n      pop\n      pop\n      pop\n      pop\n      pop\n      dup2\n      mstore\n      0x20\n      add\n      swap1\n      0x01\n      add\n      swap1\n      jump(tag_45)\n    tag_46:\n      pop\n      pop\n      pop\n      pop\n      dup2\n      mstore\n      pop\n        /* \"Documents/project/Project School 2/sumofnumbers.sol\":679:707  return AllPatch(all_patches) */\n      swap1\n      pop\n        /* \"Documents/project/Project School 2/sumofnumbers.sol\":612:714  function allPatches()public view returns(AllPatch memory){... */\n      swap1\n      jump\t// out\n        /* \"Documents/project/Project School 2/sumofnumbers.sol\":280:476  function addPatch(string memory _patchName,string[] memory _bugs,string[] memory _features)public{... */\n    tag_19:\n        /* \"Documents/project/Project School 2/sumofnumbers.sol\":387:398  all_patches */\n      0x00\n        /* \"Documents/project/Project School 2/sumofnumbers.sol\":404:414  _patchName */\n      dup4\n        /* \"Documents/project/Project School 2/sumofnumbers.sol\":387:415  all_patches.push(_patchName) */\n      swap1\n      dup1\n      0x01\n      dup2\n      sload\n      add\n      dup1\n      dup3\n      sstore\n      dup1\n      swap2\n      pop\n      pop\n      0x01\n      swap1\n      sub\n      swap1\n      0x00\n      mstore\n      keccak256(0x00, 0x20)\n      add\n      0x00\n      swap1\n      swap2\n      swap1\n      swap2\n      swap1\n      swap2\n      pop\n      swap1\n      dup2\n      tag_55\n      swap2\n      swap1\n      tag_56\n      jump\t// in\n    tag_55:\n      pop\n        /* \"Documents/project/Project School 2/sumofnumbers.sol\":447:469  Patch(_bugs,_features) */\n      mload(0x40)\n      dup1\n      0x40\n      add\n      0x40\n      mstore\n      dup1\n        /* \"Documents/project/Project School 2/sumofnumbers.sol\":453:458  _bugs */\n      dup4\n        /* \"Documents/project/Project School 2/sumofnumbers.sol\":447:469  Patch(_bugs,_features) */\n      dup2\n      mstore\n      0x20\n      add\n        /* \"Documents/project/Project School 2/sumofnumbers.sol\":459:468  _features */\n      dup3\n        /* \"Documents/project/Project School 2/sumofnumbers.sol\":447:469  Patch(_bugs,_features) */\n      dup2\n      mstore\n      pop\n        /* \"Documents/project/Project School 2/sumofnumbers.sol\":425:432  patches */\n      0x01\n        /* \"Documents/project/Project School 2/sumofnumbers.sol\":433:443  _patchName */\n      dup5\n        /* \"Documents/project/Project School 2/sumofnumbers.sol\":425:444  patches[_patchName] */\n      mload(0x40)\n      tag_57\n      swap2\n      swap1\n      tag_24\n      jump\t// in\n    tag_57:\n      swap1\n      dup2\n      mstore\n      0x20\n      add\n      mload(0x40)\n      dup1\n      swap2\n      sub\n      swap1\n      keccak256\n        /* \"Documents/project/Project School 2/sumofnumbers.sol\":425:469  patches[_patchName] = Patch(_bugs,_features) */\n      0x00\n      dup3\n      add\n      mload\n      dup2\n      0x00\n      add\n      swap1\n      dup1\n      mload\n      swap1\n      0x20\n      add\n      swap1\n      tag_58\n      swap3\n      swap2\n      swap1\n      tag_59\n      jump\t// in\n    tag_58:\n      pop\n      0x20\n      dup3\n      add\n      mload\n      dup2\n      0x01\n      add\n      swap1\n      dup1\n      mload\n      swap1\n      0x20\n      add\n      swap1\n      tag_60\n      swap3\n      swap2\n      swap1\n      tag_59\n      jump\t// in\n    tag_60:\n      pop\n      swap1\n      pop\n      pop\n        /* \"Documents/project/Project School 2/sumofnumbers.sol\":280:476  function addPatch(string memory _patchName,string[] memory _bugs,string[] memory _features)public{... */\n      pop\n      pop\n      pop\n      jump\t// out\n    tag_21:\n      mload(0x40)\n      dup1\n      0x40\n      add\n      0x40\n      mstore\n      dup1\n      0x60\n      dup2\n      mstore\n      0x20\n      add\n      0x60\n      dup2\n      mstore\n      pop\n      swap1\n      jump\t// out\n    tag_43:\n      mload(0x40)\n      dup1\n      0x20\n      add\n      0x40\n      mstore\n      dup1\n      0x60\n      dup2\n      mstore\n      pop\n      swap1\n      jump\t// out\n    tag_59:\n      dup3\n      dup1\n      sload\n      dup3\n      dup3\n      sstore\n      swap1\n      0x00\n      mstore\n      keccak256(0x00, 0x20)\n      swap1\n      dup2\n      add\n      swap3\n      dup3\n      iszero\n      tag_61\n      jumpi\n      swap2\n      0x20\n      mul\n      dup3\n      add\n    tag_62:\n      dup3\n      dup2\n      gt\n      iszero\n      tag_63\n      jumpi\n      dup3\n      mload\n      dup3\n      swap1\n      dup2\n      tag_64\n      swap2\n      swap1\n      tag_56\n      jump\t// in\n    tag_64:\n      pop\n      swap2\n      0x20\n      add\n      swap2\n      swap1\n      0x01\n      add\n      swap1\n      jump(tag_62)\n    tag_63:\n    tag_61:\n      pop\n      swap1\n      pop\n      tag_65\n      swap2\n      swap1\n      tag_66\n      jump\t// in\n    tag_65:\n      pop\n      swap1\n      jump\t// out\n    tag_66:\n    tag_67:\n      dup1\n      dup3\n      gt\n      iszero\n      tag_68\n      jumpi\n      0x00\n      dup2\n      dup2\n      tag_69\n      swap2\n      swap1\n      tag_70\n      jump\t// in\n    tag_69:\n      pop\n      0x01\n      add\n      jump(tag_67)\n    tag_68:\n      pop\n      swap1\n      jump\t// out\n    tag_70:\n      pop\n      dup1\n      sload\n      tag_71\n      swap1\n      tag_29\n      jump\t// in\n    tag_71:\n      0x00\n      dup3\n      sstore\n      dup1\n      0x1f\n      lt\n      tag_73\n      jumpi\n      pop\n      jump(tag_72)\n    tag_73:\n      0x1f\n      add\n      0x20\n      swap1\n      div\n      swap1\n      0x00\n      mstore\n      keccak256(0x00, 0x20)\n      swap1\n      dup2\n      add\n      swap1\n      tag_74\n      swap2\n      swap1\n      tag_75\n      jump\t// in\n    tag_74:\n    tag_72:\n      pop\n      jump\t// out\n    tag_75:\n    tag_76:\n      dup1\n      dup3\n      gt\n      iszero\n      tag_77\n      jumpi\n      0x00\n      dup2\n      0x00\n      swap1\n      sstore\n      pop\n      0x01\n      add\n      jump(tag_76)\n    tag_77:\n      pop\n      swap1\n      jump\t// out\n        /* \"#utility.yul\":7:82   */\n    tag_78:\n        /* \"#utility.yul\":40:46   */\n      0x00\n        /* \"#utility.yul\":73:75   */\n      0x40\n        /* \"#utility.yul\":67:76   */\n      mload\n        /* \"#utility.yul\":57:76   */\n      swap1\n      pop\n        /* \"#utility.yul\":7:82   */\n      swap1\n      jump\t// out\n        /* \"#utility.yul\":88:205   */\n    tag_79:\n        /* \"#utility.yul\":197:198   */\n      0x00\n        /* \"#utility.yul\":194:195   */\n      dup1\n        /* \"#utility.yul\":187:199   */\n      revert\n        /* \"#utility.yul\":211:328   */\n    tag_80:\n        /* \"#utility.yul\":320:321   */\n      0x00\n        /* \"#utility.yul\":317:318   */\n      dup1\n        /* \"#utility.yul\":310:322   */\n      revert\n        /* \"#utility.yul\":334:451   */\n    tag_81:\n        /* \"#utility.yul\":443:444   */\n      0x00\n        /* \"#utility.yul\":440:441   */\n      dup1\n        /* \"#utility.yul\":433:445   */\n      revert\n        /* \"#utility.yul\":457:574   */\n    tag_82:\n        /* \"#utility.yul\":566:567   */\n      0x00\n        /* \"#utility.yul\":563:564   */\n      dup1\n        /* \"#utility.yul\":556:568   */\n      revert\n        /* \"#utility.yul\":580:682   */\n    tag_83:\n        /* \"#utility.yul\":621:627   */\n      0x00\n        /* \"#utility.yul\":672:674   */\n      0x1f\n        /* \"#utility.yul\":668:675   */\n      not\n        /* \"#utility.yul\":663:665   */\n      0x1f\n        /* \"#utility.yul\":656:661   */\n      dup4\n        /* \"#utility.yul\":652:666   */\n      add\n        /* \"#utility.yul\":648:676   */\n      and\n        /* \"#utility.yul\":638:676   */\n      swap1\n      pop\n        /* \"#utility.yul\":580:682   */\n      swap2\n      swap1\n      pop\n      jump\t// out\n        /* \"#utility.yul\":688:868   */\n    tag_84:\n        /* \"#utility.yul\":736:813   */\n      0x4e487b7100000000000000000000000000000000000000000000000000000000\n        /* \"#utility.yul\":733:734   */\n      0x00\n        /* \"#utility.yul\":726:814   */\n      mstore\n        /* \"#utility.yul\":833:837   */\n      0x41\n        /* \"#utility.yul\":830:831   */\n      0x04\n        /* \"#utility.yul\":823:838   */\n      mstore\n        /* \"#utility.yul\":857:861   */\n      0x24\n        /* \"#utility.yul\":854:855   */\n      0x00\n        /* \"#utility.yul\":847:862   */\n      revert\n        /* \"#utility.yul\":874:1155   */\n    tag_85:\n        /* \"#utility.yul\":957:984   */\n      tag_135\n        /* \"#utility.yul\":979:983   */\n      dup3\n        /* \"#utility.yul\":957:984   */\n      tag_83\n      jump\t// in\n    tag_135:\n        /* \"#utility.yul\":949:955   */\n      dup2\n        /* \"#utility.yul\":945:985   */\n      add\n        /* \"#utility.yul\":1087:1093   */\n      dup2\n        /* \"#utility.yul\":1075:1085   */\n      dup2\n        /* \"#utility.yul\":1072:1094   */\n      lt\n        /* \"#utility.yul\":1051:1069   */\n      0xffffffffffffffff\n        /* \"#utility.yul\":1039:1049   */\n      dup3\n        /* \"#utility.yul\":1036:1070   */\n      gt\n        /* \"#utility.yul\":1033:1095   */\n      or\n        /* \"#utility.yul\":1030:1118   */\n      iszero\n      tag_136\n      jumpi\n        /* \"#utility.yul\":1098:1116   */\n      tag_137\n      tag_84\n      jump\t// in\n    tag_137:\n        /* \"#utility.yul\":1030:1118   */\n    tag_136:\n        /* \"#utility.yul\":1138:1148   */\n      dup1\n        /* \"#utility.yul\":1134:1136   */\n      0x40\n        /* \"#utility.yul\":1127:1149   */\n      mstore\n        /* \"#utility.yul\":917:1155   */\n      pop\n        /* \"#utility.yul\":874:1155   */\n      pop\n      pop\n      jump\t// out\n        /* \"#utility.yul\":1161:1290   */\n    tag_86:\n        /* \"#utility.yul\":1195:1201   */\n      0x00\n        /* \"#utility.yul\":1222:1242   */\n      tag_139\n      tag_78\n      jump\t// in\n    tag_139:\n        /* \"#utility.yul\":1212:1242   */\n      swap1\n      pop\n        /* \"#utility.yul\":1251:1284   */\n      tag_140\n        /* \"#utility.yul\":1279:1283   */\n      dup3\n        /* \"#utility.yul\":1271:1277   */\n      dup3\n        /* \"#utility.yul\":1251:1284   */\n      tag_85\n      jump\t// in\n    tag_140:\n        /* \"#utility.yul\":1161:1290   */\n      swap2\n      swap1\n      pop\n      jump\t// out\n        /* \"#utility.yul\":1296:1604   */\n    tag_87:\n        /* \"#utility.yul\":1358:1362   */\n      0x00\n        /* \"#utility.yul\":1448:1466   */\n      0xffffffffffffffff\n        /* \"#utility.yul\":1440:1446   */\n      dup3\n        /* \"#utility.yul\":1437:1467   */\n      gt\n        /* \"#utility.yul\":1434:1490   */\n      iszero\n      tag_142\n      jumpi\n        /* \"#utility.yul\":1470:1488   */\n      tag_143\n      tag_84\n      jump\t// in\n    tag_143:\n        /* \"#utility.yul\":1434:1490   */\n    tag_142:\n        /* \"#utility.yul\":1508:1537   */\n      tag_144\n        /* \"#utility.yul\":1530:1536   */\n      dup3\n        /* \"#utility.yul\":1508:1537   */\n      tag_83\n      jump\t// in\n    tag_144:\n        /* \"#utility.yul\":1500:1537   */\n      swap1\n      pop\n        /* \"#utility.yul\":1592:1596   */\n      0x20\n        /* \"#utility.yul\":1586:1590   */\n      dup2\n        /* \"#utility.yul\":1582:1597   */\n      add\n        /* \"#utility.yul\":1574:1597   */\n      swap1\n      pop\n        /* \"#utility.yul\":1296:1604   */\n      swap2\n      swap1\n      pop\n      jump\t// out\n        /* \"#utility.yul\":1610:1756   */\n    tag_88:\n        /* \"#utility.yul\":1707:1713   */\n      dup3\n        /* \"#utility.yul\":1702:1705   */\n      dup2\n        /* \"#utility.yul\":1697:1700   */\n      dup4\n        /* \"#utility.yul\":1684:1714   */\n      calldatacopy\n        /* \"#utility.yul\":1748:1749   */\n      0x00\n        /* \"#utility.yul\":1739:1745   */\n      dup4\n        /* \"#utility.yul\":1734:1737   */\n      dup4\n        /* \"#utility.yul\":1730:1746   */\n      add\n        /* \"#utility.yul\":1723:1750   */\n      mstore\n        /* \"#utility.yul\":1610:1756   */\n      pop\n      pop\n      pop\n      jump\t// out\n        /* \"#utility.yul\":1762:2187   */\n    tag_89:\n        /* \"#utility.yul\":1840:1845   */\n      0x00\n        /* \"#utility.yul\":1865:1931   */\n      tag_147\n        /* \"#utility.yul\":1881:1930   */\n      tag_148\n        /* \"#utility.yul\":1923:1929   */\n      dup5\n        /* \"#utility.yul\":1881:1930   */\n      tag_87\n      jump\t// in\n    tag_148:\n        /* \"#utility.yul\":1865:1931   */\n      tag_86\n      jump\t// in\n    tag_147:\n        /* \"#utility.yul\":1856:1931   */\n      swap1\n      pop\n        /* \"#utility.yul\":1954:1960   */\n      dup3\n        /* \"#utility.yul\":1947:1952   */\n      dup2\n        /* \"#utility.yul\":1940:1961   */\n      mstore\n        /* \"#utility.yul\":1992:1996   */\n      0x20\n        /* \"#utility.yul\":1985:1990   */\n      dup2\n        /* \"#utility.yul\":1981:1997   */\n      add\n        /* \"#utility.yul\":2030:2033   */\n      dup5\n        /* \"#utility.yul\":2021:2027   */\n      dup5\n        /* \"#utility.yul\":2016:2019   */\n      dup5\n        /* \"#utility.yul\":2012:2028   */\n      add\n        /* \"#utility.yul\":2009:2034   */\n      gt\n        /* \"#utility.yul\":2006:2118   */\n      iszero\n      tag_149\n      jumpi\n        /* \"#utility.yul\":2037:2116   */\n      tag_150\n      tag_82\n      jump\t// in\n    tag_150:\n        /* \"#utility.yul\":2006:2118   */\n    tag_149:\n        /* \"#utility.yul\":2127:2181   */\n      tag_151\n        /* \"#utility.yul\":2174:2180   */\n      dup5\n        /* \"#utility.yul\":2169:2172   */\n      dup3\n        /* \"#utility.yul\":2164:2167   */\n      dup6\n        /* \"#utility.yul\":2127:2181   */\n      tag_88\n      jump\t// in\n    tag_151:\n        /* \"#utility.yul\":1846:2187   */\n      pop\n        /* \"#utility.yul\":1762:2187   */\n      swap4\n      swap3\n      pop\n      pop\n      pop\n      jump\t// out\n        /* \"#utility.yul\":2207:2547   */\n    tag_90:\n        /* \"#utility.yul\":2263:2268   */\n      0x00\n        /* \"#utility.yul\":2312:2315   */\n      dup3\n        /* \"#utility.yul\":2305:2309   */\n      0x1f\n        /* \"#utility.yul\":2297:2303   */\n      dup4\n        /* \"#utility.yul\":2293:2310   */\n      add\n        /* \"#utility.yul\":2289:2316   */\n      slt\n        /* \"#utility.yul\":2279:2401   */\n      tag_153\n      jumpi\n        /* \"#utility.yul\":2320:2399   */\n      tag_154\n      tag_81\n      jump\t// in\n    tag_154:\n        /* \"#utility.yul\":2279:2401   */\n    tag_153:\n        /* \"#utility.yul\":2437:2443   */\n      dup2\n        /* \"#utility.yul\":2424:2444   */\n      calldataload\n        /* \"#utility.yul\":2462:2541   */\n      tag_155\n        /* \"#utility.yul\":2537:2540   */\n      dup5\n        /* \"#utility.yul\":2529:2535   */\n      dup3\n        /* \"#utility.yul\":2522:2526   */\n      0x20\n        /* \"#utility.yul\":2514:2520   */\n      dup7\n        /* \"#utility.yul\":2510:2527   */\n      add\n        /* \"#utility.yul\":2462:2541   */\n      tag_89\n      jump\t// in\n    tag_155:\n        /* \"#utility.yul\":2453:2541   */\n      swap2\n      pop\n        /* \"#utility.yul\":2269:2547   */\n      pop\n        /* \"#utility.yul\":2207:2547   */\n      swap3\n      swap2\n      pop\n      pop\n      jump\t// out\n        /* \"#utility.yul\":2553:3062   */\n    tag_8:\n        /* \"#utility.yul\":2622:2628   */\n      0x00\n        /* \"#utility.yul\":2671:2673   */\n      0x20\n        /* \"#utility.yul\":2659:2668   */\n      dup3\n        /* \"#utility.yul\":2650:2657   */\n      dup5\n        /* \"#utility.yul\":2646:2669   */\n      sub\n        /* \"#utility.yul\":2642:2674   */\n      slt\n        /* \"#utility.yul\":2639:2758   */\n      iszero\n      tag_157\n      jumpi\n        /* \"#utility.yul\":2677:2756   */\n      tag_158\n      tag_79\n      jump\t// in\n    tag_158:\n        /* \"#utility.yul\":2639:2758   */\n    tag_157:\n        /* \"#utility.yul\":2825:2826   */\n      0x00\n        /* \"#utility.yul\":2814:2823   */\n      dup3\n        /* \"#utility.yul\":2810:2827   */\n      add\n        /* \"#utility.yul\":2797:2828   */\n      calldataload\n        /* \"#utility.yul\":2855:2873   */\n      0xffffffffffffffff\n        /* \"#utility.yul\":2847:2853   */\n      dup2\n        /* \"#utility.yul\":2844:2874   */\n      gt\n        /* \"#utility.yul\":2841:2958   */\n      iszero\n      tag_159\n      jumpi\n        /* \"#utility.yul\":2877:2956   */\n      tag_160\n      tag_80\n      jump\t// in\n    tag_160:\n        /* \"#utility.yul\":2841:2958   */\n    tag_159:\n        /* \"#utility.yul\":2982:3045   */\n      tag_161\n        /* \"#utility.yul\":3037:3044   */\n      dup5\n        /* \"#utility.yul\":3028:3034   */\n      dup3\n        /* \"#utility.yul\":3017:3026   */\n      dup6\n        /* \"#utility.yul\":3013:3035   */\n      add\n        /* \"#utility.yul\":2982:3045   */\n      tag_90\n      jump\t// in\n    tag_161:\n        /* \"#utility.yul\":2972:3045   */\n      swap2\n      pop\n        /* \"#utility.yul\":2768:3055   */\n      pop\n        /* \"#utility.yul\":2553:3062   */\n      swap3\n      swap2\n      pop\n      pop\n      jump\t// out\n        /* \"#utility.yul\":3068:3192   */\n    tag_91:\n        /* \"#utility.yul\":3145:3151   */\n      0x00\n        /* \"#utility.yul\":3179:3184   */\n      dup2\n        /* \"#utility.yul\":3173:3185   */\n      mload\n        /* \"#utility.yul\":3163:3185   */\n      swap1\n      pop\n        /* \"#utility.yul\":3068:3192   */\n      swap2\n      swap1\n      pop\n      jump\t// out\n        /* \"#utility.yul\":3198:3382   */\n    tag_92:\n        /* \"#utility.yul\":3297:3308   */\n      0x00\n        /* \"#utility.yul\":3331:3337   */\n      dup3\n        /* \"#utility.yul\":3326:3329   */\n      dup3\n        /* \"#utility.yul\":3319:3338   */\n      mstore\n        /* \"#utility.yul\":3371:3375   */\n      0x20\n        /* \"#utility.yul\":3366:3369   */\n      dup3\n        /* \"#utility.yul\":3362:3376   */\n      add\n        /* \"#utility.yul\":3347:3376   */\n      swap1\n      pop\n        /* \"#utility.yul\":3198:3382   */\n      swap3\n      swap2\n      pop\n      pop\n      jump\t// out\n        /* \"#utility.yul\":3388:3530   */\n    tag_93:\n        /* \"#utility.yul\":3465:3469   */\n      0x00\n        /* \"#utility.yul\":3488:3491   */\n      dup2\n        /* \"#utility.yul\":3480:3491   */\n      swap1\n      pop\n        /* \"#utility.yul\":3518:3522   */\n      0x20\n        /* \"#utility.yul\":3513:3516   */\n      dup3\n        /* \"#utility.yul\":3509:3523   */\n      add\n        /* \"#utility.yul\":3501:3523   */\n      swap1\n      pop\n        /* \"#utility.yul\":3388:3530   */\n      swap2\n      swap1\n      pop\n      jump\t// out\n        /* \"#utility.yul\":3536:3635   */\n    tag_94:\n        /* \"#utility.yul\":3588:3594   */\n      0x00\n        /* \"#utility.yul\":3622:3627   */\n      dup2\n        /* \"#utility.yul\":3616:3628   */\n      mload\n        /* \"#utility.yul\":3606:3628   */\n      swap1\n      pop\n        /* \"#utility.yul\":3536:3635   */\n      swap2\n      swap1\n      pop\n      jump\t// out\n        /* \"#utility.yul\":3641:3800   */\n    tag_95:\n        /* \"#utility.yul\":3715:3726   */\n      0x00\n        /* \"#utility.yul\":3749:3755   */\n      dup3\n        /* \"#utility.yul\":3744:3747   */\n      dup3\n        /* \"#utility.yul\":3737:3756   */\n      mstore\n        /* \"#utility.yul\":3789:3793   */\n      0x20\n        /* \"#utility.yul\":3784:3787   */\n      dup3\n        /* \"#utility.yul\":3780:3794   */\n      add\n        /* \"#utility.yul\":3765:3794   */\n      swap1\n      pop\n        /* \"#utility.yul\":3641:3800   */\n      swap3\n      swap2\n      pop\n      pop\n      jump\t// out\n        /* \"#utility.yul\":3806:4052   */\n    tag_96:\n        /* \"#utility.yul\":3887:3888   */\n      0x00\n        /* \"#utility.yul\":3897:4010   */\n    tag_168:\n        /* \"#utility.yul\":3911:3917   */\n      dup4\n        /* \"#utility.yul\":3908:3909   */\n      dup2\n        /* \"#utility.yul\":3905:3918   */\n      lt\n        /* \"#utility.yul\":3897:4010   */\n      iszero\n      tag_170\n      jumpi\n        /* \"#utility.yul\":3996:3997   */\n      dup1\n        /* \"#utility.yul\":3991:3994   */\n      dup3\n        /* \"#utility.yul\":3987:3998   */\n      add\n        /* \"#utility.yul\":3981:3999   */\n      mload\n        /* \"#utility.yul\":3977:3978   */\n      dup2\n        /* \"#utility.yul\":3972:3975   */\n      dup5\n        /* \"#utility.yul\":3968:3979   */\n      add\n        /* \"#utility.yul\":3961:4000   */\n      mstore\n        /* \"#utility.yul\":3933:3935   */\n      0x20\n        /* \"#utility.yul\":3930:3931   */\n      dup2\n        /* \"#utility.yul\":3926:3936   */\n      add\n        /* \"#utility.yul\":3921:3936   */\n      swap1\n      pop\n        /* \"#utility.yul\":3897:4010   */\n      jump(tag_168)\n    tag_170:\n        /* \"#utility.yul\":4044:4045   */\n      0x00\n        /* \"#utility.yul\":4035:4041   */\n      dup5\n        /* \"#utility.yul\":4030:4033   */\n      dup5\n        /* \"#utility.yul\":4026:4042   */\n      add\n        /* \"#utility.yul\":4019:4046   */\n      mstore\n        /* \"#utility.yul\":3868:4052   */\n      pop\n        /* \"#utility.yul\":3806:4052   */\n      pop\n      pop\n      pop\n      jump\t// out\n        /* \"#utility.yul\":4058:4415   */\n    tag_97:\n        /* \"#utility.yul\":4136:4139   */\n      0x00\n        /* \"#utility.yul\":4164:4203   */\n      tag_172\n        /* \"#utility.yul\":4197:4202   */\n      dup3\n        /* \"#utility.yul\":4164:4203   */\n      tag_94\n      jump\t// in\n    tag_172:\n        /* \"#utility.yul\":4219:4280   */\n      tag_173\n        /* \"#utility.yul\":4273:4279   */\n      dup2\n        /* \"#utility.yul\":4268:4271   */\n      dup6\n        /* \"#utility.yul\":4219:4280   */\n      tag_95\n      jump\t// in\n    tag_173:\n        /* \"#utility.yul\":4212:4280   */\n      swap4\n      pop\n        /* \"#utility.yul\":4289:4354   */\n      tag_174\n        /* \"#utility.yul\":4347:4353   */\n      dup2\n        /* \"#utility.yul\":4342:4345   */\n      dup6\n        /* \"#utility.yul\":4335:4339   */\n      0x20\n        /* \"#utility.yul\":4328:4333   */\n      dup7\n        /* \"#utility.yul\":4324:4340   */\n      add\n        /* \"#utility.yul\":4289:4354   */\n      tag_96\n      jump\t// in\n    tag_174:\n        /* \"#utility.yul\":4379:4408   */\n      tag_175\n        /* \"#utility.yul\":4401:4407   */\n      dup2\n        /* \"#utility.yul\":4379:4408   */\n      tag_83\n      jump\t// in\n    tag_175:\n        /* \"#utility.yul\":4374:4377   */\n      dup5\n        /* \"#utility.yul\":4370:4409   */\n      add\n        /* \"#utility.yul\":4363:4409   */\n      swap2\n      pop\n        /* \"#utility.yul\":4140:4415   */\n      pop\n        /* \"#utility.yul\":4058:4415   */\n      swap3\n      swap2\n      pop\n      pop\n      jump\t// out\n        /* \"#utility.yul\":4421:4617   */\n    tag_98:\n        /* \"#utility.yul\":4510:4520   */\n      0x00\n        /* \"#utility.yul\":4545:4611   */\n      tag_177\n        /* \"#utility.yul\":4607:4610   */\n      dup4\n        /* \"#utility.yul\":4599:4605   */\n      dup4\n        /* \"#utility.yul\":4545:4611   */\n      tag_97\n      jump\t// in\n    tag_177:\n        /* \"#utility.yul\":4531:4611   */\n      swap1\n      pop\n        /* \"#utility.yul\":4421:4617   */\n      swap3\n      swap2\n      pop\n      pop\n      jump\t// out\n        /* \"#utility.yul\":4623:4746   */\n    tag_99:\n        /* \"#utility.yul\":4703:4707   */\n      0x00\n        /* \"#utility.yul\":4735:4739   */\n      0x20\n        /* \"#utility.yul\":4730:4733   */\n      dup3\n        /* \"#utility.yul\":4726:4740   */\n      add\n        /* \"#utility.yul\":4718:4740   */\n      swap1\n      pop\n        /* \"#utility.yul\":4623:4746   */\n      swap2\n      swap1\n      pop\n      jump\t// out\n        /* \"#utility.yul\":4780:5751   */\n    tag_100:\n        /* \"#utility.yul\":4909:4912   */\n      0x00\n        /* \"#utility.yul\":4938:5002   */\n      tag_180\n        /* \"#utility.yul\":4996:5001   */\n      dup3\n        /* \"#utility.yul\":4938:5002   */\n      tag_91\n      jump\t// in\n    tag_180:\n        /* \"#utility.yul\":5018:5104   */\n      tag_181\n        /* \"#utility.yul\":5097:5103   */\n      dup2\n        /* \"#utility.yul\":5092:5095   */\n      dup6\n        /* \"#utility.yul\":5018:5104   */\n      tag_92\n      jump\t// in\n    tag_181:\n        /* \"#utility.yul\":5011:5104   */\n      swap4\n      pop\n        /* \"#utility.yul\":5130:5133   */\n      dup4\n        /* \"#utility.yul\":5175:5179   */\n      0x20\n        /* \"#utility.yul\":5167:5173   */\n      dup3\n        /* \"#utility.yul\":5163:5180   */\n      mul\n        /* \"#utility.yul\":5158:5161   */\n      dup6\n        /* \"#utility.yul\":5154:5181   */\n      add\n        /* \"#utility.yul\":5205:5271   */\n      tag_182\n        /* \"#utility.yul\":5265:5270   */\n      dup6\n        /* \"#utility.yul\":5205:5271   */\n      tag_93\n      jump\t// in\n    tag_182:\n        /* \"#utility.yul\":5294:5301   */\n      dup1\n        /* \"#utility.yul\":5325:5326   */\n      0x00\n        /* \"#utility.yul\":5310:5706   */\n    tag_183:\n        /* \"#utility.yul\":5335:5341   */\n      dup6\n        /* \"#utility.yul\":5332:5333   */\n      dup2\n        /* \"#utility.yul\":5329:5342   */\n      lt\n        /* \"#utility.yul\":5310:5706   */\n      iszero\n      tag_185\n      jumpi\n        /* \"#utility.yul\":5406:5415   */\n      dup5\n        /* \"#utility.yul\":5400:5404   */\n      dup5\n        /* \"#utility.yul\":5396:5416   */\n      sub\n        /* \"#utility.yul\":5391:5394   */\n      dup10\n        /* \"#utility.yul\":5384:5417   */\n      mstore\n        /* \"#utility.yul\":5457:5463   */\n      dup2\n        /* \"#utility.yul\":5451:5464   */\n      mload\n        /* \"#utility.yul\":5485:5569   */\n      tag_186\n        /* \"#utility.yul\":5564:5568   */\n      dup6\n        /* \"#utility.yul\":5549:5562   */\n      dup3\n        /* \"#utility.yul\":5485:5569   */\n      tag_98\n      jump\t// in\n    tag_186:\n        /* \"#utility.yul\":5477:5569   */\n      swap5\n      pop\n        /* \"#utility.yul\":5592:5662   */\n      tag_187\n        /* \"#utility.yul\":5655:5661   */\n      dup4\n        /* \"#utility.yul\":5592:5662   */\n      tag_99\n      jump\t// in\n    tag_187:\n        /* \"#utility.yul\":5582:5662   */\n      swap3\n      pop\n        /* \"#utility.yul\":5691:5695   */\n      0x20\n        /* \"#utility.yul\":5686:5689   */\n      dup11\n        /* \"#utility.yul\":5682:5696   */\n      add\n        /* \"#utility.yul\":5675:5696   */\n      swap10\n      pop\n        /* \"#utility.yul\":5370:5706   */\n      pop\n        /* \"#utility.yul\":5357:5358   */\n      0x01\n        /* \"#utility.yul\":5354:5355   */\n      dup2\n        /* \"#utility.yul\":5350:5359   */\n      add\n        /* \"#utility.yul\":5345:5359   */\n      swap1\n      pop\n        /* \"#utility.yul\":5310:5706   */\n      jump(tag_183)\n    tag_185:\n        /* \"#utility.yul\":5314:5328   */\n      pop\n        /* \"#utility.yul\":5722:5726   */\n      dup3\n        /* \"#utility.yul\":5715:5726   */\n      swap8\n      pop\n        /* \"#utility.yul\":5742:5745   */\n      dup8\n        /* \"#utility.yul\":5735:5745   */\n      swap6\n      pop\n        /* \"#utility.yul\":4914:5751   */\n      pop\n      pop\n      pop\n      pop\n      pop\n        /* \"#utility.yul\":4780:5751   */\n      swap3\n      swap2\n      pop\n      pop\n      jump\t// out\n        /* \"#utility.yul\":5817:6588   */\n    tag_101:\n        /* \"#utility.yul\":5926:5929   */\n      0x00\n        /* \"#utility.yul\":5962:5966   */\n      0x40\n        /* \"#utility.yul\":5957:5960   */\n      dup4\n        /* \"#utility.yul\":5953:5967   */\n      add\n        /* \"#utility.yul\":6049:6053   */\n      0x00\n        /* \"#utility.yul\":6042:6047   */\n      dup4\n        /* \"#utility.yul\":6038:6054   */\n      add\n        /* \"#utility.yul\":6032:6055   */\n      mload\n        /* \"#utility.yul\":6102:6105   */\n      dup5\n        /* \"#utility.yul\":6096:6100   */\n      dup3\n        /* \"#utility.yul\":6092:6106   */\n      sub\n        /* \"#utility.yul\":6085:6089   */\n      0x00\n        /* \"#utility.yul\":6080:6083   */\n      dup7\n        /* \"#utility.yul\":6076:6090   */\n      add\n        /* \"#utility.yul\":6069:6107   */\n      mstore\n        /* \"#utility.yul\":6128:6251   */\n      tag_189\n        /* \"#utility.yul\":6246:6250   */\n      dup3\n        /* \"#utility.yul\":6232:6244   */\n      dup3\n        /* \"#utility.yul\":6128:6251   */\n      tag_100\n      jump\t// in\n    tag_189:\n        /* \"#utility.yul\":6120:6251   */\n      swap2\n      pop\n        /* \"#utility.yul\":5977:6262   */\n      pop\n        /* \"#utility.yul\":6348:6352   */\n      0x20\n        /* \"#utility.yul\":6341:6346   */\n      dup4\n        /* \"#utility.yul\":6337:6353   */\n      add\n        /* \"#utility.yul\":6331:6354   */\n      mload\n        /* \"#utility.yul\":6401:6404   */\n      dup5\n        /* \"#utility.yul\":6395:6399   */\n      dup3\n        /* \"#utility.yul\":6391:6405   */\n      sub\n        /* \"#utility.yul\":6384:6388   */\n      0x20\n        /* \"#utility.yul\":6379:6382   */\n      dup7\n        /* \"#utility.yul\":6375:6389   */\n      add\n        /* \"#utility.yul\":6368:6406   */\n      mstore\n        /* \"#utility.yul\":6427:6550   */\n      tag_190\n        /* \"#utility.yul\":6545:6549   */\n      dup3\n        /* \"#utility.yul\":6531:6543   */\n      dup3\n        /* \"#utility.yul\":6427:6550   */\n      tag_100\n      jump\t// in\n    tag_190:\n        /* \"#utility.yul\":6419:6550   */\n      swap2\n      pop\n        /* \"#utility.yul\":6272:6561   */\n      pop\n        /* \"#utility.yul\":6578:6582   */\n      dup1\n        /* \"#utility.yul\":6571:6582   */\n      swap2\n      pop\n        /* \"#utility.yul\":5931:6588   */\n      pop\n        /* \"#utility.yul\":5817:6588   */\n      swap3\n      swap2\n      pop\n      pop\n      jump\t// out\n        /* \"#utility.yul\":6594:6947   */\n    tag_11:\n        /* \"#utility.yul\":6727:6731   */\n      0x00\n        /* \"#utility.yul\":6765:6767   */\n      0x20\n        /* \"#utility.yul\":6754:6763   */\n      dup3\n        /* \"#utility.yul\":6750:6768   */\n      add\n        /* \"#utility.yul\":6742:6768   */\n      swap1\n      pop\n        /* \"#utility.yul\":6814:6823   */\n      dup2\n        /* \"#utility.yul\":6808:6812   */\n      dup2\n        /* \"#utility.yul\":6804:6824   */\n      sub\n        /* \"#utility.yul\":6800:6801   */\n      0x00\n        /* \"#utility.yul\":6789:6798   */\n      dup4\n        /* \"#utility.yul\":6785:6802   */\n      add\n        /* \"#utility.yul\":6778:6825   */\n      mstore\n        /* \"#utility.yul\":6842:6940   */\n      tag_192\n        /* \"#utility.yul\":6935:6939   */\n      dup2\n        /* \"#utility.yul\":6926:6932   */\n      dup5\n        /* \"#utility.yul\":6842:6940   */\n      tag_101\n      jump\t// in\n    tag_192:\n        /* \"#utility.yul\":6834:6940   */\n      swap1\n      pop\n        /* \"#utility.yul\":6594:6947   */\n      swap3\n      swap2\n      pop\n      pop\n      jump\t// out\n        /* \"#utility.yul\":7019:7502   */\n    tag_102:\n        /* \"#utility.yul\":7136:7139   */\n      0x00\n        /* \"#utility.yul\":7172:7176   */\n      0x20\n        /* \"#utility.yul\":7167:7170   */\n      dup4\n        /* \"#utility.yul\":7163:7177   */\n      add\n        /* \"#utility.yul\":7262:7266   */\n      0x00\n        /* \"#utility.yul\":7255:7260   */\n      dup4\n        /* \"#utility.yul\":7251:7267   */\n      add\n        /* \"#utility.yul\":7245:7268   */\n      mload\n        /* \"#utility.yul\":7315:7318   */\n      dup5\n        /* \"#utility.yul\":7309:7313   */\n      dup3\n        /* \"#utility.yul\":7305:7319   */\n      sub\n        /* \"#utility.yul\":7298:7302   */\n      0x00\n        /* \"#utility.yul\":7293:7296   */\n      dup7\n        /* \"#utility.yul\":7289:7303   */\n      add\n        /* \"#utility.yul\":7282:7320   */\n      mstore\n        /* \"#utility.yul\":7341:7464   */\n      tag_194\n        /* \"#utility.yul\":7459:7463   */\n      dup3\n        /* \"#utility.yul\":7445:7457   */\n      dup3\n        /* \"#utility.yul\":7341:7464   */\n      tag_100\n      jump\t// in\n    tag_194:\n        /* \"#utility.yul\":7333:7464   */\n      swap2\n      pop\n        /* \"#utility.yul\":7187:7475   */\n      pop\n        /* \"#utility.yul\":7492:7496   */\n      dup1\n        /* \"#utility.yul\":7485:7496   */\n      swap2\n      pop\n        /* \"#utility.yul\":7141:7502   */\n      pop\n        /* \"#utility.yul\":7019:7502   */\n      swap3\n      swap2\n      pop\n      pop\n      jump\t// out\n        /* \"#utility.yul\":7508:7877   */\n    tag_15:\n        /* \"#utility.yul\":7649:7653   */\n      0x00\n        /* \"#utility.yul\":7687:7689   */\n      0x20\n        /* \"#utility.yul\":7676:7685   */\n      dup3\n        /* \"#utility.yul\":7672:7690   */\n      add\n        /* \"#utility.yul\":7664:7690   */\n      swap1\n      pop\n        /* \"#utility.yul\":7736:7745   */\n      dup2\n        /* \"#utility.yul\":7730:7734   */\n      dup2\n        /* \"#utility.yul\":7726:7746   */\n      sub\n        /* \"#utility.yul\":7722:7723   */\n      0x00\n        /* \"#utility.yul\":7711:7720   */\n      dup4\n        /* \"#utility.yul\":7707:7724   */\n      add\n        /* \"#utility.yul\":7700:7747   */\n      mstore\n        /* \"#utility.yul\":7764:7870   */\n      tag_196\n        /* \"#utility.yul\":7865:7869   */\n      dup2\n        /* \"#utility.yul\":7856:7862   */\n      dup5\n        /* \"#utility.yul\":7764:7870   */\n      tag_102\n      jump\t// in\n    tag_196:\n        /* \"#utility.yul\":7756:7870   */\n      swap1\n      pop\n        /* \"#utility.yul\":7508:7877   */\n      swap3\n      swap2\n      pop\n      pop\n      jump\t// out\n        /* \"#utility.yul\":7883:8204   */\n    tag_103:\n        /* \"#utility.yul\":7970:7974   */\n      0x00\n        /* \"#utility.yul\":8060:8078   */\n      0xffffffffffffffff\n        /* \"#utility.yul\":8052:8058   */\n      dup3\n        /* \"#utility.yul\":8049:8079   */\n      gt\n        /* \"#utility.yul\":8046:8102   */\n      iszero\n      tag_198\n      jumpi\n        /* \"#utility.yul\":8082:8100   */\n      tag_199\n      tag_84\n      jump\t// in\n    tag_199:\n        /* \"#utility.yul\":8046:8102   */\n    tag_198:\n        /* \"#utility.yul\":8132:8136   */\n      0x20\n        /* \"#utility.yul\":8124:8130   */\n      dup3\n        /* \"#utility.yul\":8120:8137   */\n      mul\n        /* \"#utility.yul\":8112:8137   */\n      swap1\n      pop\n        /* \"#utility.yul\":8192:8196   */\n      0x20\n        /* \"#utility.yul\":8186:8190   */\n      dup2\n        /* \"#utility.yul\":8182:8197   */\n      add\n        /* \"#utility.yul\":8174:8197   */\n      swap1\n      pop\n        /* \"#utility.yul\":7883:8204   */\n      swap2\n      swap1\n      pop\n      jump\t// out\n        /* \"#utility.yul\":8210:8327   */\n    tag_104:\n        /* \"#utility.yul\":8319:8320   */\n      0x00\n        /* \"#utility.yul\":8316:8317   */\n      dup1\n        /* \"#utility.yul\":8309:8321   */\n      revert\n        /* \"#utility.yul\":8349:9294   */\n    tag_105:\n        /* \"#utility.yul\":8455:8460   */\n      0x00\n        /* \"#utility.yul\":8480:8571   */\n      tag_202\n        /* \"#utility.yul\":8496:8570   */\n      tag_203\n        /* \"#utility.yul\":8563:8569   */\n      dup5\n        /* \"#utility.yul\":8496:8570   */\n      tag_103\n      jump\t// in\n    tag_203:\n        /* \"#utility.yul\":8480:8571   */\n      tag_86\n      jump\t// in\n    tag_202:\n        /* \"#utility.yul\":8471:8571   */\n      swap1\n      pop\n        /* \"#utility.yul\":8591:8596   */\n      dup1\n        /* \"#utility.yul\":8620:8626   */\n      dup4\n        /* \"#utility.yul\":8613:8618   */\n      dup3\n        /* \"#utility.yul\":8606:8627   */\n      mstore\n        /* \"#utility.yul\":8654:8658   */\n      0x20\n        /* \"#utility.yul\":8647:8652   */\n      dup3\n        /* \"#utility.yul\":8643:8659   */\n      add\n        /* \"#utility.yul\":8636:8659   */\n      swap1\n      pop\n        /* \"#utility.yul\":8707:8711   */\n      0x20\n        /* \"#utility.yul\":8699:8705   */\n      dup5\n        /* \"#utility.yul\":8695:8712   */\n      mul\n        /* \"#utility.yul\":8687:8693   */\n      dup4\n        /* \"#utility.yul\":8683:8713   */\n      add\n        /* \"#utility.yul\":8736:8739   */\n      dup6\n        /* \"#utility.yul\":8728:8734   */\n      dup2\n        /* \"#utility.yul\":8725:8740   */\n      gt\n        /* \"#utility.yul\":8722:8844   */\n      iszero\n      tag_204\n      jumpi\n        /* \"#utility.yul\":8755:8834   */\n      tag_205\n      tag_104\n      jump\t// in\n    tag_205:\n        /* \"#utility.yul\":8722:8844   */\n    tag_204:\n        /* \"#utility.yul\":8870:8876   */\n      dup4\n        /* \"#utility.yul\":8853:9288   */\n    tag_206:\n        /* \"#utility.yul\":8887:8893   */\n      dup2\n        /* \"#utility.yul\":8882:8885   */\n      dup2\n        /* \"#utility.yul\":8879:8894   */\n      lt\n        /* \"#utility.yul\":8853:9288   */\n      iszero\n      tag_208\n      jumpi\n        /* \"#utility.yul\":8976:8979   */\n      dup1\n        /* \"#utility.yul\":8963:8980   */\n      calldataload\n        /* \"#utility.yul\":9012:9030   */\n      0xffffffffffffffff\n        /* \"#utility.yul\":8999:9010   */\n      dup2\n        /* \"#utility.yul\":8996:9031   */\n      gt\n        /* \"#utility.yul\":8993:9115   */\n      iszero\n      tag_209\n      jumpi\n        /* \"#utility.yul\":9034:9113   */\n      tag_210\n      tag_81\n      jump\t// in\n    tag_210:\n        /* \"#utility.yul\":8993:9115   */\n    tag_209:\n        /* \"#utility.yul\":9158:9169   */\n      dup1\n        /* \"#utility.yul\":9150:9156   */\n      dup7\n        /* \"#utility.yul\":9146:9170   */\n      add\n        /* \"#utility.yul\":9196:9243   */\n      tag_211\n        /* \"#utility.yul\":9239:9242   */\n      dup10\n        /* \"#utility.yul\":9227:9237   */\n      dup3\n        /* \"#utility.yul\":9196:9243   */\n      tag_90\n      jump\t// in\n    tag_211:\n        /* \"#utility.yul\":9191:9194   */\n      dup6\n        /* \"#utility.yul\":9184:9244   */\n      mstore\n        /* \"#utility.yul\":9273:9277   */\n      0x20\n        /* \"#utility.yul\":9268:9271   */\n      dup6\n        /* \"#utility.yul\":9264:9278   */\n      add\n        /* \"#utility.yul\":9257:9278   */\n      swap5\n      pop\n        /* \"#utility.yul\":8929:9288   */\n      pop\n      pop\n        /* \"#utility.yul\":8913:8917   */\n      0x20\n        /* \"#utility.yul\":8908:8911   */\n      dup2\n        /* \"#utility.yul\":8904:8918   */\n      add\n        /* \"#utility.yul\":8897:8918   */\n      swap1\n      pop\n        /* \"#utility.yul\":8853:9288   */\n      jump(tag_206)\n    tag_208:\n        /* \"#utility.yul\":8857:8878   */\n      pop\n        /* \"#utility.yul\":8461:9294   */\n      pop\n      pop\n        /* \"#utility.yul\":8349:9294   */\n      swap4\n      swap3\n      pop\n      pop\n      pop\n      jump\t// out\n        /* \"#utility.yul\":9316:9706   */\n    tag_106:\n        /* \"#utility.yul\":9397:9402   */\n      0x00\n        /* \"#utility.yul\":9446:9449   */\n      dup3\n        /* \"#utility.yul\":9439:9443   */\n      0x1f\n        /* \"#utility.yul\":9431:9437   */\n      dup4\n        /* \"#utility.yul\":9427:9444   */\n      add\n        /* \"#utility.yul\":9423:9450   */\n      slt\n        /* \"#utility.yul\":9413:9535   */\n      tag_213\n      jumpi\n        /* \"#utility.yul\":9454:9533   */\n      tag_214\n      tag_81\n      jump\t// in\n    tag_214:\n        /* \"#utility.yul\":9413:9535   */\n    tag_213:\n        /* \"#utility.yul\":9571:9577   */\n      dup2\n        /* \"#utility.yul\":9558:9578   */\n      calldataload\n        /* \"#utility.yul\":9596:9700   */\n      tag_215\n        /* \"#utility.yul\":9696:9699   */\n      dup5\n        /* \"#utility.yul\":9688:9694   */\n      dup3\n        /* \"#utility.yul\":9681:9685   */\n      0x20\n        /* \"#utility.yul\":9673:9679   */\n      dup7\n        /* \"#utility.yul\":9669:9686   */\n      add\n        /* \"#utility.yul\":9596:9700   */\n      tag_105\n      jump\t// in\n    tag_215:\n        /* \"#utility.yul\":9587:9700   */\n      swap2\n      pop\n        /* \"#utility.yul\":9403:9706   */\n      pop\n        /* \"#utility.yul\":9316:9706   */\n      swap3\n      swap2\n      pop\n      pop\n      jump\t// out\n        /* \"#utility.yul\":9712:10971   */\n    tag_18:\n        /* \"#utility.yul\":9869:9875   */\n      0x00\n        /* \"#utility.yul\":9877:9883   */\n      dup1\n        /* \"#utility.yul\":9885:9891   */\n      0x00\n        /* \"#utility.yul\":9934:9936   */\n      0x60\n        /* \"#utility.yul\":9922:9931   */\n      dup5\n        /* \"#utility.yul\":9913:9920   */\n      dup7\n        /* \"#utility.yul\":9909:9932   */\n      sub\n        /* \"#utility.yul\":9905:9937   */\n      slt\n        /* \"#utility.yul\":9902:10021   */\n      iszero\n      tag_217\n      jumpi\n        /* \"#utility.yul\":9940:10019   */\n      tag_218\n      tag_79\n      jump\t// in\n    tag_218:\n        /* \"#utility.yul\":9902:10021   */\n    tag_217:\n        /* \"#utility.yul\":10088:10089   */\n      0x00\n        /* \"#utility.yul\":10077:10086   */\n      dup5\n        /* \"#utility.yul\":10073:10090   */\n      add\n        /* \"#utility.yul\":10060:10091   */\n      calldataload\n        /* \"#utility.yul\":10118:10136   */\n      0xffffffffffffffff\n        /* \"#utility.yul\":10110:10116   */\n      dup2\n        /* \"#utility.yul\":10107:10137   */\n      gt\n        /* \"#utility.yul\":10104:10221   */\n      iszero\n      tag_219\n      jumpi\n        /* \"#utility.yul\":10140:10219   */\n      tag_220\n      tag_80\n      jump\t// in\n    tag_220:\n        /* \"#utility.yul\":10104:10221   */\n    tag_219:\n        /* \"#utility.yul\":10245:10308   */\n      tag_221\n        /* \"#utility.yul\":10300:10307   */\n      dup7\n        /* \"#utility.yul\":10291:10297   */\n      dup3\n        /* \"#utility.yul\":10280:10289   */\n      dup8\n        /* \"#utility.yul\":10276:10298   */\n      add\n        /* \"#utility.yul\":10245:10308   */\n      tag_90\n      jump\t// in\n    tag_221:\n        /* \"#utility.yul\":10235:10308   */\n      swap4\n      pop\n        /* \"#utility.yul\":10031:10318   */\n      pop\n        /* \"#utility.yul\":10385:10387   */\n      0x20\n        /* \"#utility.yul\":10374:10383   */\n      dup5\n        /* \"#utility.yul\":10370:10388   */\n      add\n        /* \"#utility.yul\":10357:10389   */\n      calldataload\n        /* \"#utility.yul\":10416:10434   */\n      0xffffffffffffffff\n        /* \"#utility.yul\":10408:10414   */\n      dup2\n        /* \"#utility.yul\":10405:10435   */\n      gt\n        /* \"#utility.yul\":10402:10519   */\n      iszero\n      tag_222\n      jumpi\n        /* \"#utility.yul\":10438:10517   */\n      tag_223\n      tag_80\n      jump\t// in\n    tag_223:\n        /* \"#utility.yul\":10402:10519   */\n    tag_222:\n        /* \"#utility.yul\":10543:10631   */\n      tag_224\n        /* \"#utility.yul\":10623:10630   */\n      dup7\n        /* \"#utility.yul\":10614:10620   */\n      dup3\n        /* \"#utility.yul\":10603:10612   */\n      dup8\n        /* \"#utility.yul\":10599:10621   */\n      add\n        /* \"#utility.yul\":10543:10631   */\n      tag_106\n      jump\t// in\n    tag_224:\n        /* \"#utility.yul\":10533:10631   */\n      swap3\n      pop\n        /* \"#utility.yul\":10328:10641   */\n      pop\n        /* \"#utility.yul\":10708:10710   */\n      0x40\n        /* \"#utility.yul\":10697:10706   */\n      dup5\n        /* \"#utility.yul\":10693:10711   */\n      add\n        /* \"#utility.yul\":10680:10712   */\n      calldataload\n        /* \"#utility.yul\":10739:10757   */\n      0xffffffffffffffff\n        /* \"#utility.yul\":10731:10737   */\n      dup2\n        /* \"#utility.yul\":10728:10758   */\n      gt\n        /* \"#utility.yul\":10725:10842   */\n      iszero\n      tag_225\n      jumpi\n        /* \"#utility.yul\":10761:10840   */\n      tag_226\n      tag_80\n      jump\t// in\n    tag_226:\n        /* \"#utility.yul\":10725:10842   */\n    tag_225:\n        /* \"#utility.yul\":10866:10954   */\n      tag_227\n        /* \"#utility.yul\":10946:10953   */\n      dup7\n        /* \"#utility.yul\":10937:10943   */\n      dup3\n        /* \"#utility.yul\":10926:10935   */\n      dup8\n        /* \"#utility.yul\":10922:10944   */\n      add\n        /* \"#utility.yul\":10866:10954   */\n      tag_106\n      jump\t// in\n    tag_227:\n        /* \"#utility.yul\":10856:10954   */\n      swap2\n      pop\n        /* \"#utility.yul\":10651:10964   */\n      pop\n        /* \"#utility.yul\":9712:10971   */\n      swap3\n      pop\n      swap3\n      pop\n      swap3\n      jump\t// out\n        /* \"#utility.yul\":10977:11125   */\n    tag_107:\n        /* \"#utility.yul\":11079:11090   */\n      0x00\n        /* \"#utility.yul\":11116:11119   */\n      dup2\n        /* \"#utility.yul\":11101:11119   */\n      swap1\n      pop\n        /* \"#utility.yul\":10977:11125   */\n      swap3\n      swap2\n      pop\n      pop\n      jump\t// out\n        /* \"#utility.yul\":11131:11521   */\n    tag_108:\n        /* \"#utility.yul\":11237:11240   */\n      0x00\n        /* \"#utility.yul\":11265:11304   */\n      tag_230\n        /* \"#utility.yul\":11298:11303   */\n      dup3\n        /* \"#utility.yul\":11265:11304   */\n      tag_94\n      jump\t// in\n    tag_230:\n        /* \"#utility.yul\":11320:11409   */\n      tag_231\n        /* \"#utility.yul\":11402:11408   */\n      dup2\n        /* \"#utility.yul\":11397:11400   */\n      dup6\n        /* \"#utility.yul\":11320:11409   */\n      tag_107\n      jump\t// in\n    tag_231:\n        /* \"#utility.yul\":11313:11409   */\n      swap4\n      pop\n        /* \"#utility.yul\":11418:11483   */\n      tag_232\n        /* \"#utility.yul\":11476:11482   */\n      dup2\n        /* \"#utility.yul\":11471:11474   */\n      dup6\n        /* \"#utility.yul\":11464:11468   */\n      0x20\n        /* \"#utility.yul\":11457:11462   */\n      dup7\n        /* \"#utility.yul\":11453:11469   */\n      add\n        /* \"#utility.yul\":11418:11483   */\n      tag_96\n      jump\t// in\n    tag_232:\n        /* \"#utility.yul\":11508:11514   */\n      dup1\n        /* \"#utility.yul\":11503:11506   */\n      dup5\n        /* \"#utility.yul\":11499:11515   */\n      add\n        /* \"#utility.yul\":11492:11515   */\n      swap2\n      pop\n        /* \"#utility.yul\":11241:11521   */\n      pop\n        /* \"#utility.yul\":11131:11521   */\n      swap3\n      swap2\n      pop\n      pop\n      jump\t// out\n        /* \"#utility.yul\":11527:11802   */\n    tag_24:\n        /* \"#utility.yul\":11659:11662   */\n      0x00\n        /* \"#utility.yul\":11681:11776   */\n      tag_234\n        /* \"#utility.yul\":11772:11775   */\n      dup3\n        /* \"#utility.yul\":11763:11769   */\n      dup5\n        /* \"#utility.yul\":11681:11776   */\n      tag_108\n      jump\t// in\n    tag_234:\n        /* \"#utility.yul\":11674:11776   */\n      swap2\n      pop\n        /* \"#utility.yul\":11793:11796   */\n      dup2\n        /* \"#utility.yul\":11786:11796   */\n      swap1\n      pop\n        /* \"#utility.yul\":11527:11802   */\n      swap3\n      swap2\n      pop\n      pop\n      jump\t// out\n        /* \"#utility.yul\":11808:11988   */\n    tag_109:\n        /* \"#utility.yul\":11856:11933   */\n      0x4e487b7100000000000000000000000000000000000000000000000000000000\n        /* \"#utility.yul\":11853:11854   */\n      0x00\n        /* \"#utility.yul\":11846:11934   */\n      mstore\n        /* \"#utility.yul\":11953:11957   */\n      0x22\n        /* \"#utility.yul\":11950:11951   */\n      0x04\n        /* \"#utility.yul\":11943:11958   */\n      mstore\n        /* \"#utility.yul\":11977:11981   */\n      0x24\n        /* \"#utility.yul\":11974:11975   */\n      0x00\n        /* \"#utility.yul\":11967:11982   */\n      revert\n        /* \"#utility.yul\":11994:12314   */\n    tag_29:\n        /* \"#utility.yul\":12038:12044   */\n      0x00\n        /* \"#utility.yul\":12075:12076   */\n      0x02\n        /* \"#utility.yul\":12069:12073   */\n      dup3\n        /* \"#utility.yul\":12065:12077   */\n      div\n        /* \"#utility.yul\":12055:12077   */\n      swap1\n      pop\n        /* \"#utility.yul\":12122:12123   */\n      0x01\n        /* \"#utility.yul\":12116:12120   */\n      dup3\n        /* \"#utility.yul\":12112:12124   */\n      and\n        /* \"#utility.yul\":12143:12161   */\n      dup1\n        /* \"#utility.yul\":12133:12214   */\n      tag_237\n      jumpi\n        /* \"#utility.yul\":12199:12203   */\n      0x7f\n        /* \"#utility.yul\":12191:12197   */\n      dup3\n        /* \"#utility.yul\":12187:12204   */\n      and\n        /* \"#utility.yul\":12177:12204   */\n      swap2\n      pop\n        /* \"#utility.yul\":12133:12214   */\n    tag_237:\n        /* \"#utility.yul\":12261:12263   */\n      0x20\n        /* \"#utility.yul\":12253:12259   */\n      dup3\n        /* \"#utility.yul\":12250:12264   */\n      lt\n        /* \"#utility.yul\":12230:12248   */\n      dup2\n        /* \"#utility.yul\":12227:12265   */\n      sub\n        /* \"#utility.yul\":12224:12308   */\n      tag_238\n      jumpi\n        /* \"#utility.yul\":12280:12298   */\n      tag_239\n      tag_109\n      jump\t// in\n    tag_239:\n        /* \"#utility.yul\":12224:12308   */\n    tag_238:\n        /* \"#utility.yul\":12045:12314   */\n      pop\n        /* \"#utility.yul\":11994:12314   */\n      swap2\n      swap1\n      pop\n      jump\t// out\n        /* \"#utility.yul\":12320:12461   */\n    tag_110:\n        /* \"#utility.yul\":12369:12373   */\n      0x00\n        /* \"#utility.yul\":12392:12395   */\n      dup2\n        /* \"#utility.yul\":12384:12395   */\n      swap1\n      pop\n        /* \"#utility.yul\":12415:12418   */\n      dup2\n        /* \"#utility.yul\":12412:12413   */\n      0x00\n        /* \"#utility.yul\":12405:12419   */\n      mstore\n        /* \"#utility.yul\":12449:12453   */\n      0x20\n        /* \"#utility.yul\":12446:12447   */\n      0x00\n        /* \"#utility.yul\":12436:12454   */\n      keccak256\n        /* \"#utility.yul\":12428:12454   */\n      swap1\n      pop\n        /* \"#utility.yul\":12320:12461   */\n      swap2\n      swap1\n      pop\n      jump\t// out\n        /* \"#utility.yul\":12467:12560   */\n    tag_111:\n        /* \"#utility.yul\":12504:12510   */\n      0x00\n        /* \"#utility.yul\":12551:12553   */\n      0x20\n        /* \"#utility.yul\":12546:12548   */\n      0x1f\n        /* \"#utility.yul\":12539:12544   */\n      dup4\n        /* \"#utility.yul\":12535:12549   */\n      add\n        /* \"#utility.yul\":12531:12554   */\n      div\n        /* \"#utility.yul\":12521:12554   */\n      swap1\n      pop\n        /* \"#utility.yul\":12467:12560   */\n      swap2\n      swap1\n      pop\n      jump\t// out\n        /* \"#utility.yul\":12566:12673   */\n    tag_112:\n        /* \"#utility.yul\":12610:12618   */\n      0x00\n        /* \"#utility.yul\":12660:12665   */\n      dup3\n        /* \"#utility.yul\":12654:12658   */\n      dup3\n        /* \"#utility.yul\":12650:12666   */\n      shl\n        /* \"#utility.yul\":12629:12666   */\n      swap1\n      pop\n        /* \"#utility.yul\":12566:12673   */\n      swap3\n      swap2\n      pop\n      pop\n      jump\t// out\n        /* \"#utility.yul\":12679:13072   */\n    tag_113:\n        /* \"#utility.yul\":12748:12754   */\n      0x00\n        /* \"#utility.yul\":12798:12799   */\n      0x08\n        /* \"#utility.yul\":12786:12796   */\n      dup4\n        /* \"#utility.yul\":12782:12800   */\n      mul\n        /* \"#utility.yul\":12821:12918   */\n      tag_244\n        /* \"#utility.yul\":12851:12917   */\n      0xffffffffffffffffffffffffffffffffffffffffffffffffffffffffffffffff\n        /* \"#utility.yul\":12840:12849   */\n      dup3\n        /* \"#utility.yul\":12821:12918   */\n      tag_112\n      jump\t// in\n    tag_244:\n        /* \"#utility.yul\":12939:12978   */\n      tag_245\n        /* \"#utility.yul\":12969:12977   */\n      dup7\n        /* \"#utility.yul\":12958:12967   */\n      dup4\n        /* \"#utility.yul\":12939:12978   */\n      tag_112\n      jump\t// in\n    tag_245:\n        /* \"#utility.yul\":12927:12978   */\n      swap6\n      pop\n        /* \"#utility.yul\":13011:13015   */\n      dup1\n        /* \"#utility.yul\":13007:13016   */\n      not\n        /* \"#utility.yul\":13000:13005   */\n      dup5\n        /* \"#utility.yul\":12996:13017   */\n      and\n        /* \"#utility.yul\":12987:13017   */\n      swap4\n      pop\n        /* \"#utility.yul\":13060:13064   */\n      dup1\n        /* \"#utility.yul\":13050:13058   */\n      dup7\n        /* \"#utility.yul\":13046:13065   */\n      and\n        /* \"#utility.yul\":13039:13044   */\n      dup5\n        /* \"#utility.yul\":13036:13066   */\n      or\n        /* \"#utility.yul\":13026:13066   */\n      swap3\n      pop\n        /* \"#utility.yul\":12755:13072   */\n      pop\n      pop\n        /* \"#utility.yul\":12679:13072   */\n      swap4\n      swap3\n      pop\n      pop\n      pop\n      jump\t// out\n        /* \"#utility.yul\":13078:13155   */\n    tag_114:\n        /* \"#utility.yul\":13115:13122   */\n      0x00\n        /* \"#utility.yul\":13144:13149   */\n      dup2\n        /* \"#utility.yul\":13133:13149   */\n      swap1\n      pop\n        /* \"#utility.yul\":13078:13155   */\n      swap2\n      swap1\n      pop\n      jump\t// out\n        /* \"#utility.yul\":13161:13221   */\n    tag_115:\n        /* \"#utility.yul\":13189:13192   */\n      0x00\n        /* \"#utility.yul\":13210:13215   */\n      dup2\n        /* \"#utility.yul\":13203:13215   */\n      swap1\n      pop\n        /* \"#utility.yul\":13161:13221   */\n      swap2\n      swap1\n      pop\n      jump\t// out\n        /* \"#utility.yul\":13227:13369   */\n    tag_116:\n        /* \"#utility.yul\":13277:13286   */\n      0x00\n        /* \"#utility.yul\":13310:13363   */\n      tag_249\n        /* \"#utility.yul\":13328:13362   */\n      tag_250\n        /* \"#utility.yul\":13337:13361   */\n      tag_251\n        /* \"#utility.yul\":13355:13360   */\n      dup5\n        /* \"#utility.yul\":13337:13361   */\n      tag_114\n      jump\t// in\n    tag_251:\n        /* \"#utility.yul\":13328:13362   */\n      tag_115\n      jump\t// in\n    tag_250:\n        /* \"#utility.yul\":13310:13363   */\n      tag_114\n      jump\t// in\n    tag_249:\n        /* \"#utility.yul\":13297:13363   */\n      swap1\n      pop\n        /* \"#utility.yul\":13227:13369   */\n      swap2\n      swap1\n      pop\n      jump\t// out\n        /* \"#utility.yul\":13375:13450   */\n    tag_117:\n        /* \"#utility.yul\":13418:13421   */\n      0x00\n        /* \"#utility.yul\":13439:13444   */\n      dup2\n        /* \"#utility.yul\":13432:13444   */\n      swap1\n      pop\n        /* \"#utility.yul\":13375:13450   */\n      swap2\n      swap1\n      pop\n      jump\t// out\n        /* \"#utility.yul\":13456:13725   */\n    tag_118:\n        /* \"#utility.yul\":13566:13605   */\n      tag_254\n        /* \"#utility.yul\":13597:13604   */\n      dup4\n        /* \"#utility.yul\":13566:13605   */\n      tag_116\n      jump\t// in\n    tag_254:\n        /* \"#utility.yul\":13627:13718   */\n      tag_255\n        /* \"#utility.yul\":13676:13717   */\n      tag_256\n        /* \"#utility.yul\":13700:13716   */\n      dup3\n        /* \"#utility.yul\":13676:13717   */\n      tag_117\n      jump\t// in\n    tag_256:\n        /* \"#utility.yul\":13668:13674   */\n      dup5\n        /* \"#utility.yul\":13661:13665   */\n      dup5\n        /* \"#utility.yul\":13655:13666   */\n      sload\n        /* \"#utility.yul\":13627:13718   */\n      tag_113\n      jump\t// in\n    tag_255:\n        /* \"#utility.yul\":13621:13625   */\n      dup3\n        /* \"#utility.yul\":13614:13719   */\n      sstore\n        /* \"#utility.yul\":13532:13725   */\n      pop\n        /* \"#utility.yul\":13456:13725   */\n      pop\n      pop\n      pop\n      jump\t// out\n        /* \"#utility.yul\":13731:13804   */\n    tag_119:\n        /* \"#utility.yul\":13776:13779   */\n      0x00\n        /* \"#utility.yul\":13731:13804   */\n      swap1\n      jump\t// out\n        /* \"#utility.yul\":13810:13999   */\n    tag_120:\n        /* \"#utility.yul\":13887:13919   */\n      tag_259\n      tag_119\n      jump\t// in\n    tag_259:\n        /* \"#utility.yul\":13928:13993   */\n      tag_260\n        /* \"#utility.yul\":13986:13992   */\n      dup2\n        /* \"#utility.yul\":13978:13984   */\n      dup5\n        /* \"#utility.yul\":13972:13976   */\n      dup5\n        /* \"#utility.yul\":13928:13993   */\n      tag_118\n      jump\t// in\n    tag_260:\n        /* \"#utility.yul\":13863:13999   */\n      pop\n        /* \"#utility.yul\":13810:13999   */\n      pop\n      pop\n      jump\t// out\n        /* \"#utility.yul\":14005:14191   */\n    tag_121:\n        /* \"#utility.yul\":14065:14185   */\n    tag_262:\n        /* \"#utility.yul\":14082:14085   */\n      dup2\n        /* \"#utility.yul\":14075:14080   */\n      dup2\n        /* \"#utility.yul\":14072:14086   */\n      lt\n        /* \"#utility.yul\":14065:14185   */\n      iszero\n      tag_264\n      jumpi\n        /* \"#utility.yul\":14136:14175   */\n      tag_265\n        /* \"#utility.yul\":14173:14174   */\n      0x00\n        /* \"#utility.yul\":14166:14171   */\n      dup3\n        /* \"#utility.yul\":14136:14175   */\n      tag_120\n      jump\t// in\n    tag_265:\n        /* \"#utility.yul\":14109:14110   */\n      0x01\n        /* \"#utility.yul\":14102:14107   */\n      dup2\n        /* \"#utility.yul\":14098:14111   */\n      add\n        /* \"#utility.yul\":14089:14111   */\n      swap1\n      pop\n        /* \"#utility.yul\":14065:14185   */\n      jump(tag_262)\n    tag_264:\n        /* \"#utility.yul\":14005:14191   */\n      pop\n      pop\n      jump\t// out\n        /* \"#utility.yul\":14197:14740   */\n    tag_122:\n        /* \"#utility.yul\":14298:14300   */\n      0x1f\n        /* \"#utility.yul\":14293:14296   */\n      dup3\n        /* \"#utility.yul\":14290:14301   */\n      gt\n        /* \"#utility.yul\":14287:14733   */\n      iszero\n      tag_267\n      jumpi\n        /* \"#utility.yul\":14332:14370   */\n      tag_268\n        /* \"#utility.yul\":14364:14369   */\n      dup2\n        /* \"#utility.yul\":14332:14370   */\n      tag_110\n      jump\t// in\n    tag_268:\n        /* \"#utility.yul\":14416:14445   */\n      tag_269\n        /* \"#utility.yul\":14434:14444   */\n      dup5\n        /* \"#utility.yul\":14416:14445   */\n      tag_111\n      jump\t// in\n    tag_269:\n        /* \"#utility.yul\":14406:14414   */\n      dup2\n        /* \"#utility.yul\":14402:14446   */\n      add\n        /* \"#utility.yul\":14599:14601   */\n      0x20\n        /* \"#utility.yul\":14587:14597   */\n      dup6\n        /* \"#utility.yul\":14584:14602   */\n      lt\n        /* \"#utility.yul\":14581:14630   */\n      iszero\n      tag_270\n      jumpi\n        /* \"#utility.yul\":14620:14628   */\n      dup2\n        /* \"#utility.yul\":14605:14628   */\n      swap1\n      pop\n        /* \"#utility.yul\":14581:14630   */\n    tag_270:\n        /* \"#utility.yul\":14643:14723   */\n      tag_271\n        /* \"#utility.yul\":14699:14721   */\n      tag_272\n        /* \"#utility.yul\":14717:14720   */\n      dup6\n        /* \"#utility.yul\":14699:14721   */\n      tag_111\n      jump\t// in\n    tag_272:\n        /* \"#utility.yul\":14689:14697   */\n      dup4\n        /* \"#utility.yul\":14685:14722   */\n      add\n        /* \"#utility.yul\":14672:14683   */\n      dup3\n        /* \"#utility.yul\":14643:14723   */\n      tag_121\n      jump\t// in\n    tag_271:\n        /* \"#utility.yul\":14302:14733   */\n      pop\n      pop\n        /* \"#utility.yul\":14287:14733   */\n    tag_267:\n        /* \"#utility.yul\":14197:14740   */\n      pop\n      pop\n      pop\n      jump\t// out\n        /* \"#utility.yul\":14746:14863   */\n    tag_123:\n        /* \"#utility.yul\":14800:14808   */\n      0x00\n        /* \"#utility.yul\":14850:14855   */\n      dup3\n        /* \"#utility.yul\":14844:14848   */\n      dup3\n        /* \"#utility.yul\":14840:14856   */\n      shr\n        /* \"#utility.yul\":14819:14856   */\n      swap1\n      pop\n        /* \"#utility.yul\":14746:14863   */\n      swap3\n      swap2\n      pop\n      pop\n      jump\t// out\n        /* \"#utility.yul\":14869:15038   */\n    tag_124:\n        /* \"#utility.yul\":14913:14919   */\n      0x00\n        /* \"#utility.yul\":14946:14997   */\n      tag_275\n        /* \"#utility.yul\":14994:14995   */\n      0x00\n        /* \"#utility.yul\":14990:14996   */\n      not\n        /* \"#utility.yul\":14982:14987   */\n      dup5\n        /* \"#utility.yul\":14979:14980   */\n      0x08\n        /* \"#utility.yul\":14975:14988   */\n      mul\n        /* \"#utility.yul\":14946:14997   */\n      tag_123\n      jump\t// in\n    tag_275:\n        /* \"#utility.yul\":14942:14998   */\n      not\n        /* \"#utility.yul\":15027:15031   */\n      dup1\n        /* \"#utility.yul\":15021:15025   */\n      dup4\n        /* \"#utility.yul\":15017:15032   */\n      and\n        /* \"#utility.yul\":15007:15032   */\n      swap2\n      pop\n        /* \"#utility.yul\":14920:15038   */\n      pop\n        /* \"#utility.yul\":14869:15038   */\n      swap3\n      swap2\n      pop\n      pop\n      jump\t// out\n        /* \"#utility.yul\":15043:15338   */\n    tag_125:\n        /* \"#utility.yul\":15119:15123   */\n      0x00\n        /* \"#utility.yul\":15265:15294   */\n      tag_277\n        /* \"#utility.yul\":15290:15293   */\n      dup4\n        /* \"#utility.yul\":15284:15288   */\n      dup4\n        /* \"#utility.yul\":15265:15294   */\n      tag_124\n      jump\t// in\n    tag_277:\n        /* \"#utility.yul\":15257:15294   */\n      swap2\n      pop\n        /* \"#utility.yul\":15327:15330   */\n      dup3\n        /* \"#utility.yul\":15324:15325   */\n      0x02\n        /* \"#utility.yul\":15320:15331   */\n      mul\n        /* \"#utility.yul\":15314:15318   */\n      dup3\n        /* \"#utility.yul\":15311:15332   */\n      or\n        /* \"#utility.yul\":15303:15332   */\n      swap1\n      pop\n        /* \"#utility.yul\":15043:15338   */\n      swap3\n      swap2\n      pop\n      pop\n      jump\t// out\n        /* \"#utility.yul\":15343:16738   */\n    tag_56:\n        /* \"#utility.yul\":15460:15497   */\n      tag_279\n        /* \"#utility.yul\":15493:15496   */\n      dup3\n        /* \"#utility.yul\":15460:15497   */\n      tag_94\n      jump\t// in\n    tag_279:\n        /* \"#utility.yul\":15562:15580   */\n      0xffffffffffffffff\n        /* \"#utility.yul\":15554:15560   */\n      dup2\n        /* \"#utility.yul\":15551:15581   */\n      gt\n        /* \"#utility.yul\":15548:15604   */\n      iszero\n      tag_280\n      jumpi\n        /* \"#utility.yul\":15584:15602   */\n      tag_281\n      tag_84\n      jump\t// in\n    tag_281:\n        /* \"#utility.yul\":15548:15604   */\n    tag_280:\n        /* \"#utility.yul\":15628:15666   */\n      tag_282\n        /* \"#utility.yul\":15660:15664   */\n      dup3\n        /* \"#utility.yul\":15654:15665   */\n      sload\n        /* \"#utility.yul\":15628:15666   */\n      tag_29\n      jump\t// in\n    tag_282:\n        /* \"#utility.yul\":15713:15780   */\n      tag_283\n        /* \"#utility.yul\":15773:15779   */\n      dup3\n        /* \"#utility.yul\":15765:15771   */\n      dup3\n        /* \"#utility.yul\":15759:15763   */\n      dup6\n        /* \"#utility.yul\":15713:15780   */\n      tag_122\n      jump\t// in\n    tag_283:\n        /* \"#utility.yul\":15807:15808   */\n      0x00\n        /* \"#utility.yul\":15831:15835   */\n      0x20\n        /* \"#utility.yul\":15818:15835   */\n      swap1\n      pop\n        /* \"#utility.yul\":15863:15865   */\n      0x1f\n        /* \"#utility.yul\":15855:15861   */\n      dup4\n        /* \"#utility.yul\":15852:15866   */\n      gt\n        /* \"#utility.yul\":15880:15881   */\n      0x01\n        /* \"#utility.yul\":15875:16493   */\n      dup2\n      eq\n      tag_285\n      jumpi\n        /* \"#utility.yul\":16537:16538   */\n      0x00\n        /* \"#utility.yul\":16554:16560   */\n      dup5\n        /* \"#utility.yul\":16551:16628   */\n      iszero\n      tag_286\n      jumpi\n        /* \"#utility.yul\":16603:16612   */\n      dup3\n        /* \"#utility.yul\":16598:16601   */\n      dup8\n        /* \"#utility.yul\":16594:16613   */\n      add\n        /* \"#utility.yul\":16588:16614   */\n      mload\n        /* \"#utility.yul\":16579:16614   */\n      swap1\n      pop\n        /* \"#utility.yul\":16551:16628   */\n    tag_286:\n        /* \"#utility.yul\":16654:16721   */\n      tag_287\n        /* \"#utility.yul\":16714:16720   */\n      dup6\n        /* \"#utility.yul\":16707:16712   */\n      dup3\n        /* \"#utility.yul\":16654:16721   */\n      tag_125\n      jump\t// in\n    tag_287:\n        /* \"#utility.yul\":16648:16652   */\n      dup7\n        /* \"#utility.yul\":16641:16722   */\n      sstore\n        /* \"#utility.yul\":16510:16732   */\n      pop\n        /* \"#utility.yul\":15845:16732   */\n      jump(tag_284)\n        /* \"#utility.yul\":15875:16493   */\n    tag_285:\n        /* \"#utility.yul\":15927:15931   */\n      0x1f\n        /* \"#utility.yul\":15923:15932   */\n      not\n        /* \"#utility.yul\":15915:15921   */\n      dup5\n        /* \"#utility.yul\":15911:15933   */\n      and\n        /* \"#utility.yul\":15961:15998   */\n      tag_288\n        /* \"#utility.yul\":15993:15997   */\n      dup7\n        /* \"#utility.yul\":15961:15998   */\n      tag_110\n      jump\t// in\n    tag_288:\n        /* \"#utility.yul\":16020:16021   */\n      0x00\n        /* \"#utility.yul\":16034:16242   */\n    tag_289:\n        /* \"#utility.yul\":16048:16055   */\n      dup3\n        /* \"#utility.yul\":16045:16046   */\n      dup2\n        /* \"#utility.yul\":16042:16056   */\n      lt\n        /* \"#utility.yul\":16034:16242   */\n      iszero\n      tag_291\n      jumpi\n        /* \"#utility.yul\":16127:16136   */\n      dup5\n        /* \"#utility.yul\":16122:16125   */\n      dup10\n        /* \"#utility.yul\":16118:16137   */\n      add\n        /* \"#utility.yul\":16112:16138   */\n      mload\n        /* \"#utility.yul\":16104:16110   */\n      dup3\n        /* \"#utility.yul\":16097:16139   */\n      sstore\n        /* \"#utility.yul\":16178:16179   */\n      0x01\n        /* \"#utility.yul\":16170:16176   */\n      dup3\n        /* \"#utility.yul\":16166:16180   */\n      add\n        /* \"#utility.yul\":16156:16180   */\n      swap2\n      pop\n        /* \"#utility.yul\":16225:16227   */\n      0x20\n        /* \"#utility.yul\":16214:16223   */\n      dup6\n        /* \"#utility.yul\":16210:16228   */\n      add\n        /* \"#utility.yul\":16197:16228   */\n      swap5\n      pop\n        /* \"#utility.yul\":16071:16075   */\n      0x20\n        /* \"#utility.yul\":16068:16069   */\n      dup2\n        /* \"#utility.yul\":16064:16076   */\n      add\n        /* \"#utility.yul\":16059:16076   */\n      swap1\n      pop\n        /* \"#utility.yul\":16034:16242   */\n      jump(tag_289)\n    tag_291:\n        /* \"#utility.yul\":16270:16276   */\n      dup7\n        /* \"#utility.yul\":16261:16268   */\n      dup4\n        /* \"#utility.yul\":16258:16277   */\n      lt\n        /* \"#utility.yul\":16255:16434   */\n      iszero\n      tag_292\n      jumpi\n        /* \"#utility.yul\":16328:16337   */\n      dup5\n        /* \"#utility.yul\":16323:16326   */\n      dup10\n        /* \"#utility.yul\":16319:16338   */\n      add\n        /* \"#utility.yul\":16313:16339   */\n      mload\n        /* \"#utility.yul\":16371:16419   */\n      tag_293\n        /* \"#utility.yul\":16413:16417   */\n      0x1f\n        /* \"#utility.yul\":16405:16411   */\n      dup10\n        /* \"#utility.yul\":16401:16418   */\n      and\n        /* \"#utility.yul\":16390:16399   */\n      dup3\n        /* \"#utility.yul\":16371:16419   */\n      tag_124\n      jump\t// in\n    tag_293:\n        /* \"#utility.yul\":16363:16369   */\n      dup4\n        /* \"#utility.yul\":16356:16420   */\n      sstore\n        /* \"#utility.yul\":16278:16434   */\n      pop\n        /* \"#utility.yul\":16255:16434   */\n    tag_292:\n        /* \"#utility.yul\":16480:16481   */\n      0x01\n        /* \"#utility.yul\":16476:16477   */\n      0x02\n        /* \"#utility.yul\":16468:16474   */\n      dup9\n        /* \"#utility.yul\":16464:16478   */\n      mul\n        /* \"#utility.yul\":16460:16482   */\n      add\n        /* \"#utility.yul\":16454:16458   */\n      dup9\n        /* \"#utility.yul\":16447:16483   */\n      sstore\n        /* \"#utility.yul\":15882:16493   */\n      pop\n      pop\n      pop\n        /* \"#utility.yul\":15845:16732   */\n    tag_284:\n      pop\n        /* \"#utility.yul\":15435:16738   */\n      pop\n      pop\n      pop\n        /* \"#utility.yul\":15343:16738   */\n      pop\n      pop\n      jump\t// out\n\n    auxdata: 0xa264697066735822122039097560627c858cf9e401790134478438c455d704b713513847cd65c7751ae764736f6c63430008120033\n}\n",
				"bytecode": {
					"linkReferences": {},
					"object": "608060405234801561001057600080fd5b50610dcc806100206000396000f3fe608060405234801561001057600080fd5b50600436106100415760003560e01c80632a208761146100465780634c26da561461007657806373eb92e814610094575b600080fd5b610060600480360381019061005b9190610692565b6100b0565b60405161006d9190610860565b60405180910390f35b61007e61029a565b60405161008b91906108ac565b60405180910390f35b6100ae60048036038101906100a991906109b4565b610387565b005b6100b8610431565b6001826040516100c89190610a97565b908152602001604051809103902060405180604001604052908160008201805480602002602001604051908101604052809291908181526020016000905b828210156101b257838290600052602060002001805461012590610add565b80601f016020809104026020016040519081016040528092919081815260200182805461015190610add565b801561019e5780601f106101735761010080835404028352916020019161019e565b820191906000526020600020905b81548152906001019060200180831161018157829003601f168201915b505050505081526020019060010190610106565b50505050815260200160018201805480602002602001604051908101604052809291908181526020016000905b8282101561028b5783829060005260206000200180546101fe90610add565b80601f016020809104026020016040519081016040528092919081815260200182805461022a90610add565b80156102775780601f1061024c57610100808354040283529160200191610277565b820191906000526020600020905b81548152906001019060200180831161025a57829003601f168201915b5050505050815260200190600101906101df565b50505050815250509050919050565b6102a261044b565b60405180602001604052806000805480602002602001604051908101604052809291908181526020016000905b8282101561037b5783829060005260206000200180546102ee90610add565b80601f016020809104026020016040519081016040528092919081815260200182805461031a90610add565b80156103675780601f1061033c57610100808354040283529160200191610367565b820191906000526020600020905b81548152906001019060200180831161034a57829003601f168201915b5050505050815260200190600101906102cf565b50505050815250905090565b6000839080600181540180825580915050600190039060005260206000200160009091909190915090816103bb9190610cc4565b506040518060400160405280838152602001828152506001846040516103e19190610a97565b9081526020016040518091039020600082015181600001908051906020019061040b92919061045e565b50602082015181600101908051906020019061042892919061045e565b50905050505050565b604051806040016040528060608152602001606081525090565b6040518060200160405280606081525090565b8280548282559060005260206000209081019282156104a6579160200282015b828111156104a55782518290816104959190610cc4565b509160200191906001019061047e565b5b5090506104b391906104b7565b5090565b5b808211156104d757600081816104ce91906104db565b506001016104b8565b5090565b5080546104e790610add565b6000825580601f106104f95750610518565b601f016020900490600052602060002090810190610517919061051b565b5b50565b5b8082111561053457600081600090555060010161051c565b5090565b6000604051905090565b600080fd5b600080fd5b600080fd5b600080fd5b6000601f19601f8301169050919050565b7f4e487b7100000000000000000000000000000000000000000000000000000000600052604160045260246000fd5b61059f82610556565b810181811067ffffffffffffffff821117156105be576105bd610567565b5b80604052505050565b60006105d1610538565b90506105dd8282610596565b919050565b600067ffffffffffffffff8211156105fd576105fc610567565b5b61060682610556565b9050602081019050919050565b82818337600083830152505050565b6000610635610630846105e2565b6105c7565b90508281526020810184848401111561065157610650610551565b5b61065c848285610613565b509392505050565b600082601f8301126106795761067861054c565b5b8135610689848260208601610622565b91505092915050565b6000602082840312156106a8576106a7610542565b5b600082013567ffffffffffffffff8111156106c6576106c5610547565b5b6106d284828501610664565b91505092915050565b600081519050919050565b600082825260208201905092915050565b6000819050602082019050919050565b600081519050919050565b600082825260208201905092915050565b60005b83811015610741578082015181840152602081019050610726565b60008484015250505050565b600061075882610707565b6107628185610712565b9350610772818560208601610723565b61077b81610556565b840191505092915050565b6000610792838361074d565b905092915050565b6000602082019050919050565b60006107b2826106db565b6107bc81856106e6565b9350836020820285016107ce856106f7565b8060005b8581101561080a57848403895281516107eb8582610786565b94506107f68361079a565b925060208a019950506001810190506107d2565b50829750879550505050505092915050565b6000604083016000830151848203600086015261083982826107a7565b9150506020830151848203602086015261085382826107a7565b9150508091505092915050565b6000602082019050818103600083015261087a818461081c565b905092915050565b6000602083016000830151848203600086015261089f82826107a7565b9150508091505092915050565b600060208201905081810360008301526108c68184610882565b905092915050565b600067ffffffffffffffff8211156108e9576108e8610567565b5b602082029050602081019050919050565b600080fd5b600061091261090d846108ce565b6105c7565b90508083825260208201905060208402830185811115610935576109346108fa565b5b835b8181101561097c57803567ffffffffffffffff81111561095a5761095961054c565b5b8086016109678982610664565b85526020850194505050602081019050610937565b5050509392505050565b600082601f83011261099b5761099a61054c565b5b81356109ab8482602086016108ff565b91505092915050565b6000806000606084860312156109cd576109cc610542565b5b600084013567ffffffffffffffff8111156109eb576109ea610547565b5b6109f786828701610664565b935050602084013567ffffffffffffffff811115610a1857610a17610547565b5b610a2486828701610986565b925050604084013567ffffffffffffffff811115610a4557610a44610547565b5b610a5186828701610986565b9150509250925092565b600081905092915050565b6000610a7182610707565b610a7b8185610a5b565b9350610a8b818560208601610723565b80840191505092915050565b6000610aa38284610a66565b915081905092915050565b7f4e487b7100000000000000000000000000000000000000000000000000000000600052602260045260246000fd5b60006002820490506001821680610af557607f821691505b602082108103610b0857610b07610aae565b5b50919050565b60008190508160005260206000209050919050565b60006020601f8301049050919050565b600082821b905092915050565b600060088302610b707fffffffffffffffffffffffffffffffffffffffffffffffffffffffffffffffff82610b33565b610b7a8683610b33565b95508019841693508086168417925050509392505050565b6000819050919050565b6000819050919050565b6000610bc1610bbc610bb784610b92565b610b9c565b610b92565b9050919050565b6000819050919050565b610bdb83610ba6565b610bef610be782610bc8565b848454610b40565b825550505050565b600090565b610c04610bf7565b610c0f818484610bd2565b505050565b5b81811015610c3357610c28600082610bfc565b600181019050610c15565b5050565b601f821115610c7857610c4981610b0e565b610c5284610b23565b81016020851015610c61578190505b610c75610c6d85610b23565b830182610c14565b50505b505050565b600082821c905092915050565b6000610c9b60001984600802610c7d565b1980831691505092915050565b6000610cb48383610c8a565b9150826002028217905092915050565b610ccd82610707565b67ffffffffffffffff811115610ce657610ce5610567565b5b610cf08254610add565b610cfb828285610c37565b600060209050601f831160018114610d2e5760008415610d1c578287015190505b610d268582610ca8565b865550610d8e565b601f198416610d3c86610b0e565b60005b82811015610d6457848901518255600182019150602085019450602081019050610d3f565b86831015610d815784890151610d7d601f891682610c8a565b8355505b6001600288020188555050505b50505050505056fea264697066735822122039097560627c858cf9e401790134478438c455d704b713513847cd65c7751ae764736f6c63430008120033",
					"opcodes": "PUSH1 0x80 PUSH1 0x40 MSTORE CALLVALUE DUP1 ISZERO PUSH2 0x10 JUMPI PUSH1 0x0 DUP1 REVERT JUMPDEST POP PUSH2 0xDCC DUP1 PUSH2 0x20 PUSH1 0x0 CODECOPY PUSH1 0x0 RETURN INVALID PUSH1 0x80 PUSH1 0x40 MSTORE CALLVALUE DUP1 ISZERO PUSH2 0x10 JUMPI PUSH1 0x0 DUP1 REVERT JUMPDEST POP PUSH1 0x4 CALLDATASIZE LT PUSH2 0x41 JUMPI PUSH1 0x0 CALLDATALOAD PUSH1 0xE0 SHR DUP1 PUSH4 0x2A208761 EQ PUSH2 0x46 JUMPI DUP1 PUSH4 0x4C26DA56 EQ PUSH2 0x76 JUMPI DUP1 PUSH4 0x73EB92E8 EQ PUSH2 0x94 JUMPI JUMPDEST PUSH1 0x0 DUP1 REVERT JUMPDEST PUSH2 0x60 PUSH1 0x4 DUP1 CALLDATASIZE SUB DUP2 ADD SWAP1 PUSH2 0x5B SWAP2 SWAP1 PUSH2 0x692 JUMP JUMPDEST PUSH2 0xB0 JUMP JUMPDEST PUSH1 0x40 MLOAD PUSH2 0x6D SWAP2 SWAP1 PUSH2 0x860 JUMP JUMPDEST PUSH1 0x40 MLOAD DUP1 SWAP2 SUB SWAP1 RETURN JUMPDEST PUSH2 0x7E PUSH2 0x29A JUMP JUMPDEST PUSH1 0x40 MLOAD PUSH2 0x8B SWAP2 SWAP1 PUSH2 0x8AC JUMP JUMPDEST PUSH1 0x40 MLOAD DUP1 SWAP2 SUB SWAP1 RETURN JUMPDEST PUSH2 0xAE PUSH1 0x4 DUP1 CALLDATASIZE SUB DUP2 ADD SWAP1 PUSH2 0xA9 SWAP2 SWAP1 PUSH2 0x9B4 JUMP JUMPDEST PUSH2 0x387 JUMP JUMPDEST STOP JUMPDEST PUSH2 0xB8 PUSH2 0x431 JUMP JUMPDEST PUSH1 0x1 DUP3 PUSH1 0x40 MLOAD PUSH2 0xC8 SWAP2 SWAP1 PUSH2 0xA97 JUMP JUMPDEST SWAP1 DUP2 MSTORE PUSH1 0x20 ADD PUSH1 0x40 MLOAD DUP1 SWAP2 SUB SWAP1 KECCAK256 PUSH1 0x40 MLOAD DUP1 PUSH1 0x40 ADD PUSH1 0x40 MSTORE SWAP1 DUP2 PUSH1 0x0 DUP3 ADD DUP1 SLOAD DUP1 PUSH1 0x20 MUL PUSH1 0x20 ADD PUSH1 0x40 MLOAD SWAP1 DUP2 ADD PUSH1 0x40 MSTORE DUP1 SWAP3 SWAP2 SWAP1 DUP2 DUP2 MSTORE PUSH1 0x20 ADD PUSH1 0x0 SWAP1 JUMPDEST DUP3 DUP3 LT ISZERO PUSH2 0x1B2 JUMPI DUP4 DUP3 SWAP1 PUSH1 0x0 MSTORE PUSH1 0x20 PUSH1 0x0 KECCAK256 ADD DUP1 SLOAD PUSH2 0x125 SWAP1 PUSH2 0xADD JUMP JUMPDEST DUP1 PUSH1 0x1F ADD PUSH1 0x20 DUP1 SWAP2 DIV MUL PUSH1 0x20 ADD PUSH1 0x40 MLOAD SWAP1 DUP2 ADD PUSH1 0x40 MSTORE DUP1 SWAP3 SWAP2 SWAP1 DUP2 DUP2 MSTORE PUSH1 0x20 ADD DUP3 DUP1 SLOAD PUSH2 0x151 SWAP1 PUSH2 0xADD JUMP JUMPDEST DUP1 ISZERO PUSH2 0x19E JUMPI DUP1 PUSH1 0x1F LT PUSH2 0x173 JUMPI PUSH2 0x100 DUP1 DUP4 SLOAD DIV MUL DUP4 MSTORE SWAP2 PUSH1 0x20 ADD SWAP2 PUSH2 0x19E JUMP JUMPDEST DUP3 ADD SWAP2 SWAP1 PUSH1 0x0 MSTORE PUSH1 0x20 PUSH1 0x0 KECCAK256 SWAP1 JUMPDEST DUP2 SLOAD DUP2 MSTORE SWAP1 PUSH1 0x1 ADD SWAP1 PUSH1 0x20 ADD DUP1 DUP4 GT PUSH2 0x181 JUMPI DUP3 SWAP1 SUB PUSH1 0x1F AND DUP3 ADD SWAP2 JUMPDEST POP POP POP POP POP DUP2 MSTORE PUSH1 0x20 ADD SWAP1 PUSH1 0x1 ADD SWAP1 PUSH2 0x106 JUMP JUMPDEST POP POP POP POP DUP2 MSTORE PUSH1 0x20 ADD PUSH1 0x1 DUP3 ADD DUP1 SLOAD DUP1 PUSH1 0x20 MUL PUSH1 0x20 ADD PUSH1 0x40 MLOAD SWAP1 DUP2 ADD PUSH1 0x40 MSTORE DUP1 SWAP3 SWAP2 SWAP1 DUP2 DUP2 MSTORE PUSH1 0x20 ADD PUSH1 0x0 SWAP1 JUMPDEST DUP3 DUP3 LT ISZERO PUSH2 0x28B JUMPI DUP4 DUP3 SWAP1 PUSH1 0x0 MSTORE PUSH1 0x20 PUSH1 0x0 KECCAK256 ADD DUP1 SLOAD PUSH2 0x1FE SWAP1 PUSH2 0xADD JUMP JUMPDEST DUP1 PUSH1 0x1F ADD PUSH1 0x20 DUP1 SWAP2 DIV MUL PUSH1 0x20 ADD PUSH1 0x40 MLOAD SWAP1 DUP2 ADD PUSH1 0x40 MSTORE DUP1 SWAP3 SWAP2 SWAP1 DUP2 DUP2 MSTORE PUSH1 0x20 ADD DUP3 DUP1 SLOAD PUSH2 0x22A SWAP1 PUSH2 0xADD JUMP JUMPDEST DUP1 ISZERO PUSH2 0x277 JUMPI DUP1 PUSH1 0x1F LT PUSH2 0x24C JUMPI PUSH2 0x100 DUP1 DUP4 SLOAD DIV MUL DUP4 MSTORE SWAP2 PUSH1 0x20 ADD SWAP2 PUSH2 0x277 JUMP JUMPDEST DUP3 ADD SWAP2 SWAP1 PUSH1 0x0 MSTORE PUSH1 0x20 PUSH1 0x0 KECCAK256 SWAP1 JUMPDEST DUP2 SLOAD DUP2 MSTORE SWAP1 PUSH1 0x1 ADD SWAP1 PUSH1 0x20 ADD DUP1 DUP4 GT PUSH2 0x25A JUMPI DUP3 SWAP1 SUB PUSH1 0x1F AND DUP3 ADD SWAP2 JUMPDEST POP POP POP POP POP DUP2 MSTORE PUSH1 0x20 ADD SWAP1 PUSH1 0x1 ADD SWAP1 PUSH2 0x1DF JUMP JUMPDEST POP POP POP POP DUP2 MSTORE POP POP SWAP1 POP SWAP2 SWAP1 POP JUMP JUMPDEST PUSH2 0x2A2 PUSH2 0x44B JUMP JUMPDEST PUSH1 0x40 MLOAD DUP1 PUSH1 0x20 ADD PUSH1 0x40 MSTORE DUP1 PUSH1 0x0 DUP1 SLOAD DUP1 PUSH1 0x20 MUL PUSH1 0x20 ADD PUSH1 0x40 MLOAD SWAP1 DUP2 ADD PUSH1 0x40 MSTORE DUP1 SWAP3 SWAP2 SWAP1 DUP2 DUP2 MSTORE PUSH1 0x20 ADD PUSH1 0x0 SWAP1 JUMPDEST DUP3 DUP3 LT ISZERO PUSH2 0x37B JUMPI DUP4 DUP3 SWAP1 PUSH1 0x0 MSTORE PUSH1 0x20 PUSH1 0x0 KECCAK256 ADD DUP1 SLOAD PUSH2 0x2EE SWAP1 PUSH2 0xADD JUMP JUMPDEST DUP1 PUSH1 0x1F ADD PUSH1 0x20 DUP1 SWAP2 DIV MUL PUSH1 0x20 ADD PUSH1 0x40 MLOAD SWAP1 DUP2 ADD PUSH1 0x40 MSTORE DUP1 SWAP3 SWAP2 SWAP1 DUP2 DUP2 MSTORE PUSH1 0x20 ADD DUP3 DUP1 SLOAD PUSH2 0x31A SWAP1 PUSH2 0xADD JUMP JUMPDEST DUP1 ISZERO PUSH2 0x367 JUMPI DUP1 PUSH1 0x1F LT PUSH2 0x33C JUMPI PUSH2 0x100 DUP1 DUP4 SLOAD DIV MUL DUP4 MSTORE SWAP2 PUSH1 0x20 ADD SWAP2 PUSH2 0x367 JUMP JUMPDEST DUP3 ADD SWAP2 SWAP1 PUSH1 0x0 MSTORE PUSH1 0x20 PUSH1 0x0 KECCAK256 SWAP1 JUMPDEST DUP2 SLOAD DUP2 MSTORE SWAP1 PUSH1 0x1 ADD SWAP1 PUSH1 0x20 ADD DUP1 DUP4 GT PUSH2 0x34A JUMPI DUP3 SWAP1 SUB PUSH1 0x1F AND DUP3 ADD SWAP2 JUMPDEST POP POP POP POP POP DUP2 MSTORE PUSH1 0x20 ADD SWAP1 PUSH1 0x1 ADD SWAP1 PUSH2 0x2CF JUMP JUMPDEST POP POP POP POP DUP2 MSTORE POP SWAP1 POP SWAP1 JUMP JUMPDEST PUSH1 0x0 DUP4 SWAP1 DUP1 PUSH1 0x1 DUP2 SLOAD ADD DUP1 DUP3 SSTORE DUP1 SWAP2 POP POP PUSH1 0x1 SWAP1 SUB SWAP1 PUSH1 0x0 MSTORE PUSH1 0x20 PUSH1 0x0 KECCAK256 ADD PUSH1 0x0 SWAP1 SWAP2 SWAP1 SWAP2 SWAP1 SWAP2 POP SWAP1 DUP2 PUSH2 0x3BB SWAP2 SWAP1 PUSH2 0xCC4 JUMP JUMPDEST POP PUSH1 0x40 MLOAD DUP1 PUSH1 0x40 ADD PUSH1 0x40 MSTORE DUP1 DUP4 DUP2 MSTORE PUSH1 0x20 ADD DUP3 DUP2 MSTORE POP PUSH1 0x1 DUP5 PUSH1 0x40 MLOAD PUSH2 0x3E1 SWAP2 SWAP1 PUSH2 0xA97 JUMP JUMPDEST SWAP1 DUP2 MSTORE PUSH1 0x20 ADD PUSH1 0x40 MLOAD DUP1 SWAP2 SUB SWAP1 KECCAK256 PUSH1 0x0 DUP3 ADD MLOAD DUP2 PUSH1 0x0 ADD SWAP1 DUP1 MLOAD SWAP1 PUSH1 0x20 ADD SWAP1 PUSH2 0x40B SWAP3 SWAP2 SWAP1 PUSH2 0x45E JUMP JUMPDEST POP PUSH1 0x20 DUP3 ADD MLOAD DUP2 PUSH1 0x1 ADD SWAP1 DUP1 MLOAD SWAP1 PUSH1 0x20 ADD SWAP1 PUSH2 0x428 SWAP3 SWAP2 SWAP1 PUSH2 0x45E JUMP JUMPDEST POP SWAP1 POP POP POP POP POP JUMP JUMPDEST PUSH1 0x40 MLOAD DUP1 PUSH1 0x40 ADD PUSH1 0x40 MSTORE DUP1 PUSH1 0x60 DUP2 MSTORE PUSH1 0x20 ADD PUSH1 0x60 DUP2 MSTORE POP SWAP1 JUMP JUMPDEST PUSH1 0x40 MLOAD DUP1 PUSH1 0x20 ADD PUSH1 0x40 MSTORE DUP1 PUSH1 0x60 DUP2 MSTORE POP SWAP1 JUMP JUMPDEST DUP3 DUP1 SLOAD DUP3 DUP3 SSTORE SWAP1 PUSH1 0x0 MSTORE PUSH1 0x20 PUSH1 0x0 KECCAK256 SWAP1 DUP2 ADD SWAP3 DUP3 ISZERO PUSH2 0x4A6 JUMPI SWAP2 PUSH1 0x20 MUL DUP3 ADD JUMPDEST DUP3 DUP2 GT ISZERO PUSH2 0x4A5 JUMPI DUP3 MLOAD DUP3 SWAP1 DUP2 PUSH2 0x495 SWAP2 SWAP1 PUSH2 0xCC4 JUMP JUMPDEST POP SWAP2 PUSH1 0x20 ADD SWAP2 SWAP1 PUSH1 0x1 ADD SWAP1 PUSH2 0x47E JUMP JUMPDEST JUMPDEST POP SWAP1 POP PUSH2 0x4B3 SWAP2 SWAP1 PUSH2 0x4B7 JUMP JUMPDEST POP SWAP1 JUMP JUMPDEST JUMPDEST DUP1 DUP3 GT ISZERO PUSH2 0x4D7 JUMPI PUSH1 0x0 DUP2 DUP2 PUSH2 0x4CE SWAP2 SWAP1 PUSH2 0x4DB JUMP JUMPDEST POP PUSH1 0x1 ADD PUSH2 0x4B8 JUMP JUMPDEST POP SWAP1 JUMP JUMPDEST POP DUP1 SLOAD PUSH2 0x4E7 SWAP1 PUSH2 0xADD JUMP JUMPDEST PUSH1 0x0 DUP3 SSTORE DUP1 PUSH1 0x1F LT PUSH2 0x4F9 JUMPI POP PUSH2 0x518 JUMP JUMPDEST PUSH1 0x1F ADD PUSH1 0x20 SWAP1 DIV SWAP1 PUSH1 0x0 MSTORE PUSH1 0x20 PUSH1 0x0 KECCAK256 SWAP1 DUP2 ADD SWAP1 PUSH2 0x517 SWAP2 SWAP1 PUSH2 0x51B JUMP JUMPDEST JUMPDEST POP JUMP JUMPDEST JUMPDEST DUP1 DUP3 GT ISZERO PUSH2 0x534 JUMPI PUSH1 0x0 DUP2 PUSH1 0x0 SWAP1 SSTORE POP PUSH1 0x1 ADD PUSH2 0x51C JUMP JUMPDEST POP SWAP1 JUMP JUMPDEST PUSH1 0x0 PUSH1 0x40 MLOAD SWAP1 POP SWAP1 JUMP JUMPDEST PUSH1 0x0 DUP1 REVERT JUMPDEST PUSH1 0x0 DUP1 REVERT JUMPDEST PUSH1 0x0 DUP1 REVERT JUMPDEST PUSH1 0x0 DUP1 REVERT JUMPDEST PUSH1 0x0 PUSH1 0x1F NOT PUSH1 0x1F DUP4 ADD AND SWAP1 POP SWAP2 SWAP1 POP JUMP JUMPDEST PUSH32 0x4E487B7100000000000000000000000000000000000000000000000000000000 PUSH1 0x0 MSTORE PUSH1 0x41 PUSH1 0x4 MSTORE PUSH1 0x24 PUSH1 0x0 REVERT JUMPDEST PUSH2 0x59F DUP3 PUSH2 0x556 JUMP JUMPDEST DUP2 ADD DUP2 DUP2 LT PUSH8 0xFFFFFFFFFFFFFFFF DUP3 GT OR ISZERO PUSH2 0x5BE JUMPI PUSH2 0x5BD PUSH2 0x567 JUMP JUMPDEST JUMPDEST DUP1 PUSH1 0x40 MSTORE POP POP POP JUMP JUMPDEST PUSH1 0x0 PUSH2 0x5D1 PUSH2 0x538 JUMP JUMPDEST SWAP1 POP PUSH2 0x5DD DUP3 DUP3 PUSH2 0x596 JUMP JUMPDEST SWAP2 SWAP1 POP JUMP JUMPDEST PUSH1 0x0 PUSH8 0xFFFFFFFFFFFFFFFF DUP3 GT ISZERO PUSH2 0x5FD JUMPI PUSH2 0x5FC PUSH2 0x567 JUMP JUMPDEST JUMPDEST PUSH2 0x606 DUP3 PUSH2 0x556 JUMP JUMPDEST SWAP1 POP PUSH1 0x20 DUP2 ADD SWAP1 POP SWAP2 SWAP1 POP JUMP JUMPDEST DUP3 DUP2 DUP4 CALLDATACOPY PUSH1 0x0 DUP4 DUP4 ADD MSTORE POP POP POP JUMP JUMPDEST PUSH1 0x0 PUSH2 0x635 PUSH2 0x630 DUP5 PUSH2 0x5E2 JUMP JUMPDEST PUSH2 0x5C7 JUMP JUMPDEST SWAP1 POP DUP3 DUP2 MSTORE PUSH1 0x20 DUP2 ADD DUP5 DUP5 DUP5 ADD GT ISZERO PUSH2 0x651 JUMPI PUSH2 0x650 PUSH2 0x551 JUMP JUMPDEST JUMPDEST PUSH2 0x65C DUP5 DUP3 DUP6 PUSH2 0x613 JUMP JUMPDEST POP SWAP4 SWAP3 POP POP POP JUMP JUMPDEST PUSH1 0x0 DUP3 PUSH1 0x1F DUP4 ADD SLT PUSH2 0x679 JUMPI PUSH2 0x678 PUSH2 0x54C JUMP JUMPDEST JUMPDEST DUP2 CALLDATALOAD PUSH2 0x689 DUP5 DUP3 PUSH1 0x20 DUP7 ADD PUSH2 0x622 JUMP JUMPDEST SWAP2 POP POP SWAP3 SWAP2 POP POP JUMP JUMPDEST PUSH1 0x0 PUSH1 0x20 DUP3 DUP5 SUB SLT ISZERO PUSH2 0x6A8 JUMPI PUSH2 0x6A7 PUSH2 0x542 JUMP JUMPDEST JUMPDEST PUSH1 0x0 DUP3 ADD CALLDATALOAD PUSH8 0xFFFFFFFFFFFFFFFF DUP2 GT ISZERO PUSH2 0x6C6 JUMPI PUSH2 0x6C5 PUSH2 0x547 JUMP JUMPDEST JUMPDEST PUSH2 0x6D2 DUP5 DUP3 DUP6 ADD PUSH2 0x664 JUMP JUMPDEST SWAP2 POP POP SWAP3 SWAP2 POP POP JUMP JUMPDEST PUSH1 0x0 DUP2 MLOAD SWAP1 POP SWAP2 SWAP1 POP JUMP JUMPDEST PUSH1 0x0 DUP3 DUP3 MSTORE PUSH1 0x20 DUP3 ADD SWAP1 POP SWAP3 SWAP2 POP POP JUMP JUMPDEST PUSH1 0x0 DUP2 SWAP1 POP PUSH1 0x20 DUP3 ADD SWAP1 POP SWAP2 SWAP1 POP JUMP JUMPDEST PUSH1 0x0 DUP2 MLOAD SWAP1 POP SWAP2 SWAP1 POP JUMP JUMPDEST PUSH1 0x0 DUP3 DUP3 MSTORE PUSH1 0x20 DUP3 ADD SWAP1 POP SWAP3 SWAP2 POP POP JUMP JUMPDEST PUSH1 0x0 JUMPDEST DUP4 DUP2 LT ISZERO PUSH2 0x741 JUMPI DUP1 DUP3 ADD MLOAD DUP2 DUP5 ADD MSTORE PUSH1 0x20 DUP2 ADD SWAP1 POP PUSH2 0x726 JUMP JUMPDEST PUSH1 0x0 DUP5 DUP5 ADD MSTORE POP POP POP POP JUMP JUMPDEST PUSH1 0x0 PUSH2 0x758 DUP3 PUSH2 0x707 JUMP JUMPDEST PUSH2 0x762 DUP2 DUP6 PUSH2 0x712 JUMP JUMPDEST SWAP4 POP PUSH2 0x772 DUP2 DUP6 PUSH1 0x20 DUP7 ADD PUSH2 0x723 JUMP JUMPDEST PUSH2 0x77B DUP2 PUSH2 0x556 JUMP JUMPDEST DUP5 ADD SWAP2 POP POP SWAP3 SWAP2 POP POP JUMP JUMPDEST PUSH1 0x0 PUSH2 0x792 DUP4 DUP4 PUSH2 0x74D JUMP JUMPDEST SWAP1 POP SWAP3 SWAP2 POP POP JUMP JUMPDEST PUSH1 0x0 PUSH1 0x20 DUP3 ADD SWAP1 POP SWAP2 SWAP1 POP JUMP JUMPDEST PUSH1 0x0 PUSH2 0x7B2 DUP3 PUSH2 0x6DB JUMP JUMPDEST PUSH2 0x7BC DUP2 DUP6 PUSH2 0x6E6 JUMP JUMPDEST SWAP4 POP DUP4 PUSH1 0x20 DUP3 MUL DUP6 ADD PUSH2 0x7CE DUP6 PUSH2 0x6F7 JUMP JUMPDEST DUP1 PUSH1 0x0 JUMPDEST DUP6 DUP2 LT ISZERO PUSH2 0x80A JUMPI DUP5 DUP5 SUB DUP10 MSTORE DUP2 MLOAD PUSH2 0x7EB DUP6 DUP3 PUSH2 0x786 JUMP JUMPDEST SWAP5 POP PUSH2 0x7F6 DUP4 PUSH2 0x79A JUMP JUMPDEST SWAP3 POP PUSH1 0x20 DUP11 ADD SWAP10 POP POP PUSH1 0x1 DUP2 ADD SWAP1 POP PUSH2 0x7D2 JUMP JUMPDEST POP DUP3 SWAP8 POP DUP8 SWAP6 POP POP POP POP POP POP SWAP3 SWAP2 POP POP JUMP JUMPDEST PUSH1 0x0 PUSH1 0x40 DUP4 ADD PUSH1 0x0 DUP4 ADD MLOAD DUP5 DUP3 SUB PUSH1 0x0 DUP7 ADD MSTORE PUSH2 0x839 DUP3 DUP3 PUSH2 0x7A7 JUMP JUMPDEST SWAP2 POP POP PUSH1 0x20 DUP4 ADD MLOAD DUP5 DUP3 SUB PUSH1 0x20 DUP7 ADD MSTORE PUSH2 0x853 DUP3 DUP3 PUSH2 0x7A7 JUMP JUMPDEST SWAP2 POP POP DUP1 SWAP2 POP POP SWAP3 SWAP2 POP POP JUMP JUMPDEST PUSH1 0x0 PUSH1 0x20 DUP3 ADD SWAP1 POP DUP2 DUP2 SUB PUSH1 0x0 DUP4 ADD MSTORE PUSH2 0x87A DUP2 DUP5 PUSH2 0x81C JUMP JUMPDEST SWAP1 POP SWAP3 SWAP2 POP POP JUMP JUMPDEST PUSH1 0x0 PUSH1 0x20 DUP4 ADD PUSH1 0x0 DUP4 ADD MLOAD DUP5 DUP3 SUB PUSH1 0x0 DUP7 ADD MSTORE PUSH2 0x89F DUP3 DUP3 PUSH2 0x7A7 JUMP JUMPDEST SWAP2 POP POP DUP1 SWAP2 POP POP SWAP3 SWAP2 POP POP JUMP JUMPDEST PUSH1 0x0 PUSH1 0x20 DUP3 ADD SWAP1 POP DUP2 DUP2 SUB PUSH1 0x0 DUP4 ADD MSTORE PUSH2 0x8C6 DUP2 DUP5 PUSH2 0x882 JUMP JUMPDEST SWAP1 POP SWAP3 SWAP2 POP POP JUMP JUMPDEST PUSH1 0x0 PUSH8 0xFFFFFFFFFFFFFFFF DUP3 GT ISZERO PUSH2 0x8E9 JUMPI PUSH2 0x8E8 PUSH2 0x567 JUMP JUMPDEST JUMPDEST PUSH1 0x20 DUP3 MUL SWAP1 POP PUSH1 0x20 DUP2 ADD SWAP1 POP SWAP2 SWAP1 POP JUMP JUMPDEST PUSH1 0x0 DUP1 REVERT JUMPDEST PUSH1 0x0 PUSH2 0x912 PUSH2 0x90D DUP5 PUSH2 0x8CE JUMP JUMPDEST PUSH2 0x5C7 JUMP JUMPDEST SWAP1 POP DUP1 DUP4 DUP3 MSTORE PUSH1 0x20 DUP3 ADD SWAP1 POP PUSH1 0x20 DUP5 MUL DUP4 ADD DUP6 DUP2 GT ISZERO PUSH2 0x935 JUMPI PUSH2 0x934 PUSH2 0x8FA JUMP JUMPDEST JUMPDEST DUP4 JUMPDEST DUP2 DUP2 LT ISZERO PUSH2 0x97C JUMPI DUP1 CALLDATALOAD PUSH8 0xFFFFFFFFFFFFFFFF DUP2 GT ISZERO PUSH2 0x95A JUMPI PUSH2 0x959 PUSH2 0x54C JUMP JUMPDEST JUMPDEST DUP1 DUP7 ADD PUSH2 0x967 DUP10 DUP3 PUSH2 0x664 JUMP JUMPDEST DUP6 MSTORE PUSH1 0x20 DUP6 ADD SWAP5 POP POP POP PUSH1 0x20 DUP2 ADD SWAP1 POP PUSH2 0x937 JUMP JUMPDEST POP POP POP SWAP4 SWAP3 POP POP POP JUMP JUMPDEST PUSH1 0x0 DUP3 PUSH1 0x1F DUP4 ADD SLT PUSH2 0x99B JUMPI PUSH2 0x99A PUSH2 0x54C JUMP JUMPDEST JUMPDEST DUP2 CALLDATALOAD PUSH2 0x9AB DUP5 DUP3 PUSH1 0x20 DUP7 ADD PUSH2 0x8FF JUMP JUMPDEST SWAP2 POP POP SWAP3 SWAP2 POP POP JUMP JUMPDEST PUSH1 0x0 DUP1 PUSH1 0x0 PUSH1 0x60 DUP5 DUP7 SUB SLT ISZERO PUSH2 0x9CD JUMPI PUSH2 0x9CC PUSH2 0x542 JUMP JUMPDEST JUMPDEST PUSH1 0x0 DUP5 ADD CALLDATALOAD PUSH8 0xFFFFFFFFFFFFFFFF DUP2 GT ISZERO PUSH2 0x9EB JUMPI PUSH2 0x9EA PUSH2 0x547 JUMP JUMPDEST JUMPDEST PUSH2 0x9F7 DUP7 DUP3 DUP8 ADD PUSH2 0x664 JUMP JUMPDEST SWAP4 POP POP PUSH1 0x20 DUP5 ADD CALLDATALOAD PUSH8 0xFFFFFFFFFFFFFFFF DUP2 GT ISZERO PUSH2 0xA18 JUMPI PUSH2 0xA17 PUSH2 0x547 JUMP JUMPDEST JUMPDEST PUSH2 0xA24 DUP7 DUP3 DUP8 ADD PUSH2 0x986 JUMP JUMPDEST SWAP3 POP POP PUSH1 0x40 DUP5 ADD CALLDATALOAD PUSH8 0xFFFFFFFFFFFFFFFF DUP2 GT ISZERO PUSH2 0xA45 JUMPI PUSH2 0xA44 PUSH2 0x547 JUMP JUMPDEST JUMPDEST PUSH2 0xA51 DUP7 DUP3 DUP8 ADD PUSH2 0x986 JUMP JUMPDEST SWAP2 POP POP SWAP3 POP SWAP3 POP SWAP3 JUMP JUMPDEST PUSH1 0x0 DUP2 SWAP1 POP SWAP3 SWAP2 POP POP JUMP JUMPDEST PUSH1 0x0 PUSH2 0xA71 DUP3 PUSH2 0x707 JUMP JUMPDEST PUSH2 0xA7B DUP2 DUP6 PUSH2 0xA5B JUMP JUMPDEST SWAP4 POP PUSH2 0xA8B DUP2 DUP6 PUSH1 0x20 DUP7 ADD PUSH2 0x723 JUMP JUMPDEST DUP1 DUP5 ADD SWAP2 POP POP SWAP3 SWAP2 POP POP JUMP JUMPDEST PUSH1 0x0 PUSH2 0xAA3 DUP3 DUP5 PUSH2 0xA66 JUMP JUMPDEST SWAP2 POP DUP2 SWAP1 POP SWAP3 SWAP2 POP POP JUMP JUMPDEST PUSH32 0x4E487B7100000000000000000000000000000000000000000000000000000000 PUSH1 0x0 MSTORE PUSH1 0x22 PUSH1 0x4 MSTORE PUSH1 0x24 PUSH1 0x0 REVERT JUMPDEST PUSH1 0x0 PUSH1 0x2 DUP3 DIV SWAP1 POP PUSH1 0x1 DUP3 AND DUP1 PUSH2 0xAF5 JUMPI PUSH1 0x7F DUP3 AND SWAP2 POP JUMPDEST PUSH1 0x20 DUP3 LT DUP2 SUB PUSH2 0xB08 JUMPI PUSH2 0xB07 PUSH2 0xAAE JUMP JUMPDEST JUMPDEST POP SWAP2 SWAP1 POP JUMP JUMPDEST PUSH1 0x0 DUP2 SWAP1 POP DUP2 PUSH1 0x0 MSTORE PUSH1 0x20 PUSH1 0x0 KECCAK256 SWAP1 POP SWAP2 SWAP1 POP JUMP JUMPDEST PUSH1 0x0 PUSH1 0x20 PUSH1 0x1F DUP4 ADD DIV SWAP1 POP SWAP2 SWAP1 POP JUMP JUMPDEST PUSH1 0x0 DUP3 DUP3 SHL SWAP1 POP SWAP3 SWAP2 POP POP JUMP JUMPDEST PUSH1 0x0 PUSH1 0x8 DUP4 MUL PUSH2 0xB70 PUSH32 0xFFFFFFFFFFFFFFFFFFFFFFFFFFFFFFFFFFFFFFFFFFFFFFFFFFFFFFFFFFFFFFFF DUP3 PUSH2 0xB33 JUMP JUMPDEST PUSH2 0xB7A DUP7 DUP4 PUSH2 0xB33 JUMP JUMPDEST SWAP6 POP DUP1 NOT DUP5 AND SWAP4 POP DUP1 DUP7 AND DUP5 OR SWAP3 POP POP POP SWAP4 SWAP3 POP POP POP JUMP JUMPDEST PUSH1 0x0 DUP2 SWAP1 POP SWAP2 SWAP1 POP JUMP JUMPDEST PUSH1 0x0 DUP2 SWAP1 POP SWAP2 SWAP1 POP JUMP JUMPDEST PUSH1 0x0 PUSH2 0xBC1 PUSH2 0xBBC PUSH2 0xBB7 DUP5 PUSH2 0xB92 JUMP JUMPDEST PUSH2 0xB9C JUMP JUMPDEST PUSH2 0xB92 JUMP JUMPDEST SWAP1 POP SWAP2 SWAP1 POP JUMP JUMPDEST PUSH1 0x0 DUP2 SWAP1 POP SWAP2 SWAP1 POP JUMP JUMPDEST PUSH2 0xBDB DUP4 PUSH2 0xBA6 JUMP JUMPDEST PUSH2 0xBEF PUSH2 0xBE7 DUP3 PUSH2 0xBC8 JUMP JUMPDEST DUP5 DUP5 SLOAD PUSH2 0xB40 JUMP JUMPDEST DUP3 SSTORE POP POP POP POP JUMP JUMPDEST PUSH1 0x0 SWAP1 JUMP JUMPDEST PUSH2 0xC04 PUSH2 0xBF7 JUMP JUMPDEST PUSH2 0xC0F DUP2 DUP5 DUP5 PUSH2 0xBD2 JUMP JUMPDEST POP POP POP JUMP JUMPDEST JUMPDEST DUP2 DUP2 LT ISZERO PUSH2 0xC33 JUMPI PUSH2 0xC28 PUSH1 0x0 DUP3 PUSH2 0xBFC JUMP JUMPDEST PUSH1 0x1 DUP2 ADD SWAP1 POP PUSH2 0xC15 JUMP JUMPDEST POP POP JUMP JUMPDEST PUSH1 0x1F DUP3 GT ISZERO PUSH2 0xC78 JUMPI PUSH2 0xC49 DUP2 PUSH2 0xB0E JUMP JUMPDEST PUSH2 0xC52 DUP5 PUSH2 0xB23 JUMP JUMPDEST DUP2 ADD PUSH1 0x20 DUP6 LT ISZERO PUSH2 0xC61 JUMPI DUP2 SWAP1 POP JUMPDEST PUSH2 0xC75 PUSH2 0xC6D DUP6 PUSH2 0xB23 JUMP JUMPDEST DUP4 ADD DUP3 PUSH2 0xC14 JUMP JUMPDEST POP POP JUMPDEST POP POP POP JUMP JUMPDEST PUSH1 0x0 DUP3 DUP3 SHR SWAP1 POP SWAP3 SWAP2 POP POP JUMP JUMPDEST PUSH1 0x0 PUSH2 0xC9B PUSH1 0x0 NOT DUP5 PUSH1 0x8 MUL PUSH2 0xC7D JUMP JUMPDEST NOT DUP1 DUP4 AND SWAP2 POP POP SWAP3 SWAP2 POP POP JUMP JUMPDEST PUSH1 0x0 PUSH2 0xCB4 DUP4 DUP4 PUSH2 0xC8A JUMP JUMPDEST SWAP2 POP DUP3 PUSH1 0x2 MUL DUP3 OR SWAP1 POP SWAP3 SWAP2 POP POP JUMP JUMPDEST PUSH2 0xCCD DUP3 PUSH2 0x707 JUMP JUMPDEST PUSH8 0xFFFFFFFFFFFFFFFF DUP2 GT ISZERO PUSH2 0xCE6 JUMPI PUSH2 0xCE5 PUSH2 0x567 JUMP JUMPDEST JUMPDEST PUSH2 0xCF0 DUP3 SLOAD PUSH2 0xADD JUMP JUMPDEST PUSH2 0xCFB DUP3 DUP3 DUP6 PUSH2 0xC37 JUMP JUMPDEST PUSH1 0x0 PUSH1 0x20 SWAP1 POP PUSH1 0x1F DUP4 GT PUSH1 0x1 DUP2 EQ PUSH2 0xD2E JUMPI PUSH1 0x0 DUP5 ISZERO PUSH2 0xD1C JUMPI DUP3 DUP8 ADD MLOAD SWAP1 POP JUMPDEST PUSH2 0xD26 DUP6 DUP3 PUSH2 0xCA8 JUMP JUMPDEST DUP7 SSTORE POP PUSH2 0xD8E JUMP JUMPDEST PUSH1 0x1F NOT DUP5 AND PUSH2 0xD3C DUP7 PUSH2 0xB0E JUMP JUMPDEST PUSH1 0x0 JUMPDEST DUP3 DUP2 LT ISZERO PUSH2 0xD64 JUMPI DUP5 DUP10 ADD MLOAD DUP3 SSTORE PUSH1 0x1 DUP3 ADD SWAP2 POP PUSH1 0x20 DUP6 ADD SWAP5 POP PUSH1 0x20 DUP2 ADD SWAP1 POP PUSH2 0xD3F JUMP JUMPDEST DUP7 DUP4 LT ISZERO PUSH2 0xD81 JUMPI DUP5 DUP10 ADD MLOAD PUSH2 0xD7D PUSH1 0x1F DUP10 AND DUP3 PUSH2 0xC8A JUMP JUMPDEST DUP4 SSTORE POP JUMPDEST PUSH1 0x1 PUSH1 0x2 DUP9 MUL ADD DUP9 SSTORE POP POP POP JUMPDEST POP POP POP POP POP POP JUMP INVALID LOG2 PUSH5 0x6970667358 0x22 SLT KECCAK256 CODECOPY MULMOD PUSH22 0x60627C858CF9E401790134478438C455D704B7135138 SELFBALANCE 0xCD PUSH6 0xC7751AE76473 PUSH16 0x6C634300081200330000000000000000 "
				},
				"gasEstimates": {
					"creation": {
						"codeDepositCost": "706400",
						"executionCost": "741",
						"totalCost": "707141"
					},
					"external": {
						"addPatch(string,string[],string[])": "infinite",
						"allPatches()": "infinite",
						"getPatchDetails(string)": "infinite"
					}
				},
				"methodIdentifiers": {
					"addPatch(string,string[],string[])": "73eb92e8",
					"allPatches()": "4c26da56",
					"getPatchDetails(string)": "2a208761"
				}
			},
			"storageLayout": {
				"storage": [
					{
						"astId": 15,
						"contract": "Documents/project/Project School 2/sumofnumbers.sol:SolidtyTest",
						"label": "all_patches",
						"offset": 0,
						"slot": "0",
						"type": "t_array(t_string_storage)dyn_storage"
					},
					{
						"astId": 20,
						"contract": "Documents/project/Project School 2/sumofnumbers.sol:SolidtyTest",
						"label": "patches",
						"offset": 0,
						"slot": "1",
						"type": "t_mapping(t_string_memory_ptr,t_struct(Patch)8_storage)"
					}
				],
				"types": {
					"t_array(t_string_storage)dyn_storage": {
						"base": "t_string_storage",
						"encoding": "dynamic_array",
						"label": "string[]",
						"numberOfBytes": "32"
					},
					"t_mapping(t_string_memory_ptr,t_struct(Patch)8_storage)": {
						"encoding": "mapping",
						"key": "t_string_memory_ptr",
						"label": "mapping(string => struct SolidtyTest.Patch)",
						"numberOfBytes": "32",
						"value": "t_struct(Patch)8_storage"
					},
					"t_string_memory_ptr": {
						"encoding": "bytes",
						"label": "string",
						"numberOfBytes": "32"
					},
					"t_string_storage": {
						"encoding": "bytes",
						"label": "string",
						"numberOfBytes": "32"
					},
					"t_struct(Patch)8_storage": {
						"encoding": "inplace",
						"label": "struct SolidtyTest.Patch",
						"members": [
							{
								"astId": 4,
								"contract": "Documents/project/Project School 2/sumofnumbers.sol:SolidtyTest",
								"label": "bugs",
								"offset": 0,
								"slot": "0",
								"type": "t_array(t_string_storage)dyn_storage"
							},
							{
								"astId": 7,
								"contract": "Documents/project/Project School 2/sumofnumbers.sol:SolidtyTest",
								"label": "features",
								"offset": 0,
								"slot": "1",
								"type": "t_array(t_string_storage)dyn_storage"
							}
						],
						"numberOfBytes": "64"
					}
				}
			},
			"userdoc": {
				"kind": "user",
				"methods": {},
				"version": 1
			}
		}
	}
}