{
	"data": {
		"bytecode": {
			"linkReferences": {},
			"object": "608060405234801561001057600080fd5b50610c57806100206000396000f3fe608060405234801561001057600080fd5b50600436106100365760003560e01c80632a2087611461003b57806373eb92e81461006b575b600080fd5b61005560048036038101906100509190610569565b610087565b6040516100629190610737565b60405180910390f35b6100856004803603810190610080919061083f565b610271565b005b61008f61031b565b60018260405161009f9190610922565b908152602001604051809103902060405180604001604052908160008201805480602002602001604051908101604052809291908181526020016000905b828210156101895783829060005260206000200180546100fc90610968565b80601f016020809104026020016040519081016040528092919081815260200182805461012890610968565b80156101755780601f1061014a57610100808354040283529160200191610175565b820191906000526020600020905b81548152906001019060200180831161015857829003601f168201915b5050505050815260200190600101906100dd565b50505050815260200160018201805480602002602001604051908101604052809291908181526020016000905b828210156102625783829060005260206000200180546101d590610968565b80601f016020809104026020016040519081016040528092919081815260200182805461020190610968565b801561024e5780601f106102235761010080835404028352916020019161024e565b820191906000526020600020905b81548152906001019060200180831161023157829003601f168201915b5050505050815260200190600101906101b6565b50505050815250509050919050565b6000839080600181540180825580915050600190039060005260206000200160009091909190915090816102a59190610b4f565b506040518060400160405280838152602001828152506001846040516102cb9190610922565b908152602001604051809103902060008201518160000190805190602001906102f5929190610335565b506020820151816001019080519060200190610312929190610335565b50905050505050565b604051806040016040528060608152602001606081525090565b82805482825590600052602060002090810192821561037d579160200282015b8281111561037c57825182908161036c9190610b4f565b5091602001919060010190610355565b5b50905061038a919061038e565b5090565b5b808211156103ae57600081816103a591906103b2565b5060010161038f565b5090565b5080546103be90610968565b6000825580601f106103d057506103ef565b601f0160209004906000526020600020908101906103ee91906103f2565b5b50565b5b8082111561040b5760008160009055506001016103f3565b5090565b6000604051905090565b600080fd5b600080fd5b600080fd5b600080fd5b6000601f19601f8301169050919050565b7f4e487b7100000000000000000000000000000000000000000000000000000000600052604160045260246000fd5b6104768261042d565b810181811067ffffffffffffffff821117156104955761049461043e565b5b80604052505050565b60006104a861040f565b90506104b4828261046d565b919050565b600067ffffffffffffffff8211156104d4576104d361043e565b5b6104dd8261042d565b9050602081019050919050565b82818337600083830152505050565b600061050c610507846104b9565b61049e565b90508281526020810184848401111561052857610527610428565b5b6105338482856104ea565b509392505050565b600082601f8301126105505761054f610423565b5b81356105608482602086016104f9565b91505092915050565b60006020828403121561057f5761057e610419565b5b600082013567ffffffffffffffff81111561059d5761059c61041e565b5b6105a98482850161053b565b91505092915050565b600081519050919050565b600082825260208201905092915050565b6000819050602082019050919050565b600081519050919050565b600082825260208201905092915050565b60005b838110156106185780820151818401526020810190506105fd565b60008484015250505050565b600061062f826105de565b61063981856105e9565b93506106498185602086016105fa565b6106528161042d565b840191505092915050565b60006106698383610624565b905092915050565b6000602082019050919050565b6000610689826105b2565b61069381856105bd565b9350836020820285016106a5856105ce565b8060005b858110156106e157848403895281516106c2858261065d565b94506106cd83610671565b925060208a019950506001810190506106a9565b50829750879550505050505092915050565b60006040830160008301518482036000860152610710828261067e565b9150506020830151848203602086015261072a828261067e565b9150508091505092915050565b6000602082019050818103600083015261075181846106f3565b905092915050565b600067ffffffffffffffff8211156107745761077361043e565b5b602082029050602081019050919050565b600080fd5b600061079d61079884610759565b61049e565b905080838252602082019050602084028301858111156107c0576107bf610785565b5b835b8181101561080757803567ffffffffffffffff8111156107e5576107e4610423565b5b8086016107f2898261053b565b855260208501945050506020810190506107c2565b5050509392505050565b600082601f83011261082657610825610423565b5b813561083684826020860161078a565b91505092915050565b60008060006060848603121561085857610857610419565b5b600084013567ffffffffffffffff8111156108765761087561041e565b5b6108828682870161053b565b935050602084013567ffffffffffffffff8111156108a3576108a261041e565b5b6108af86828701610811565b925050604084013567ffffffffffffffff8111156108d0576108cf61041e565b5b6108dc86828701610811565b9150509250925092565b600081905092915050565b60006108fc826105de565b61090681856108e6565b93506109168185602086016105fa565b80840191505092915050565b600061092e82846108f1565b915081905092915050565b7f4e487b7100000000000000000000000000000000000000000000000000000000600052602260045260246000fd5b6000600282049050600182168061098057607f821691505b60208210810361099357610992610939565b5b50919050565b60008190508160005260206000209050919050565b60006020601f8301049050919050565b600082821b905092915050565b6000600883026109fb7fffffffffffffffffffffffffffffffffffffffffffffffffffffffffffffffff826109be565b610a0586836109be565b95508019841693508086168417925050509392505050565b6000819050919050565b6000819050919050565b6000610a4c610a47610a4284610a1d565b610a27565b610a1d565b9050919050565b6000819050919050565b610a6683610a31565b610a7a610a7282610a53565b8484546109cb565b825550505050565b600090565b610a8f610a82565b610a9a818484610a5d565b505050565b5b81811015610abe57610ab3600082610a87565b600181019050610aa0565b5050565b601f821115610b0357610ad481610999565b610add846109ae565b81016020851015610aec578190505b610b00610af8856109ae565b830182610a9f565b50505b505050565b600082821c905092915050565b6000610b2660001984600802610b08565b1980831691505092915050565b6000610b3f8383610b15565b9150826002028217905092915050565b610b58826105de565b67ffffffffffffffff811115610b7157610b7061043e565b5b610b7b8254610968565b610b86828285610ac2565b600060209050601f831160018114610bb95760008415610ba7578287015190505b610bb18582610b33565b865550610c19565b601f198416610bc786610999565b60005b82811015610bef57848901518255600182019150602085019450602081019050610bca565b86831015610c0c5784890151610c08601f891682610b15565b8355505b6001600288020188555050505b50505050505056fea2646970667358221220e75aece50cbd75275f7693490bdbf33fb6ce965218b3b4226a6324425482cc9a64736f6c63430008130033",
			"opcodes": "PUSH1 0x80 PUSH1 0x40 MSTORE CALLVALUE DUP1 ISZERO PUSH2 0x10 JUMPI PUSH1 0x0 DUP1 REVERT JUMPDEST POP PUSH2 0xC57 DUP1 PUSH2 0x20 PUSH1 0x0 CODECOPY PUSH1 0x0 RETURN INVALID PUSH1 0x80 PUSH1 0x40 MSTORE CALLVALUE DUP1 ISZERO PUSH2 0x10 JUMPI PUSH1 0x0 DUP1 REVERT JUMPDEST POP PUSH1 0x4 CALLDATASIZE LT PUSH2 0x36 JUMPI PUSH1 0x0 CALLDATALOAD PUSH1 0xE0 SHR DUP1 PUSH4 0x2A208761 EQ PUSH2 0x3B JUMPI DUP1 PUSH4 0x73EB92E8 EQ PUSH2 0x6B JUMPI JUMPDEST PUSH1 0x0 DUP1 REVERT JUMPDEST PUSH2 0x55 PUSH1 0x4 DUP1 CALLDATASIZE SUB DUP2 ADD SWAP1 PUSH2 0x50 SWAP2 SWAP1 PUSH2 0x569 JUMP JUMPDEST PUSH2 0x87 JUMP JUMPDEST PUSH1 0x40 MLOAD PUSH2 0x62 SWAP2 SWAP1 PUSH2 0x737 JUMP JUMPDEST PUSH1 0x40 MLOAD DUP1 SWAP2 SUB SWAP1 RETURN JUMPDEST PUSH2 0x85 PUSH1 0x4 DUP1 CALLDATASIZE SUB DUP2 ADD SWAP1 PUSH2 0x80 SWAP2 SWAP1 PUSH2 0x83F JUMP JUMPDEST PUSH2 0x271 JUMP JUMPDEST STOP JUMPDEST PUSH2 0x8F PUSH2 0x31B JUMP JUMPDEST PUSH1 0x1 DUP3 PUSH1 0x40 MLOAD PUSH2 0x9F SWAP2 SWAP1 PUSH2 0x922 JUMP JUMPDEST SWAP1 DUP2 MSTORE PUSH1 0x20 ADD PUSH1 0x40 MLOAD DUP1 SWAP2 SUB SWAP1 KECCAK256 PUSH1 0x40 MLOAD DUP1 PUSH1 0x40 ADD PUSH1 0x40 MSTORE SWAP1 DUP2 PUSH1 0x0 DUP3 ADD DUP1 SLOAD DUP1 PUSH1 0x20 MUL PUSH1 0x20 ADD PUSH1 0x40 MLOAD SWAP1 DUP2 ADD PUSH1 0x40 MSTORE DUP1 SWAP3 SWAP2 SWAP1 DUP2 DUP2 MSTORE PUSH1 0x20 ADD PUSH1 0x0 SWAP1 JUMPDEST DUP3 DUP3 LT ISZERO PUSH2 0x189 JUMPI DUP4 DUP3 SWAP1 PUSH1 0x0 MSTORE PUSH1 0x20 PUSH1 0x0 KECCAK256 ADD DUP1 SLOAD PUSH2 0xFC SWAP1 PUSH2 0x968 JUMP JUMPDEST DUP1 PUSH1 0x1F ADD PUSH1 0x20 DUP1 SWAP2 DIV MUL PUSH1 0x20 ADD PUSH1 0x40 MLOAD SWAP1 DUP2 ADD PUSH1 0x40 MSTORE DUP1 SWAP3 SWAP2 SWAP1 DUP2 DUP2 MSTORE PUSH1 0x20 ADD DUP3 DUP1 SLOAD PUSH2 0x128 SWAP1 PUSH2 0x968 JUMP JUMPDEST DUP1 ISZERO PUSH2 0x175 JUMPI DUP1 PUSH1 0x1F LT PUSH2 0x14A JUMPI PUSH2 0x100 DUP1 DUP4 SLOAD DIV MUL DUP4 MSTORE SWAP2 PUSH1 0x20 ADD SWAP2 PUSH2 0x175 JUMP JUMPDEST DUP3 ADD SWAP2 SWAP1 PUSH1 0x0 MSTORE PUSH1 0x20 PUSH1 0x0 KECCAK256 SWAP1 JUMPDEST DUP2 SLOAD DUP2 MSTORE SWAP1 PUSH1 0x1 ADD SWAP1 PUSH1 0x20 ADD DUP1 DUP4 GT PUSH2 0x158 JUMPI DUP3 SWAP1 SUB PUSH1 0x1F AND DUP3 ADD SWAP2 JUMPDEST POP POP POP POP POP DUP2 MSTORE PUSH1 0x20 ADD SWAP1 PUSH1 0x1 ADD SWAP1 PUSH2 0xDD JUMP JUMPDEST POP POP POP POP DUP2 MSTORE PUSH1 0x20 ADD PUSH1 0x1 DUP3 ADD DUP1 SLOAD DUP1 PUSH1 0x20 MUL PUSH1 0x20 ADD PUSH1 0x40 MLOAD SWAP1 DUP2 ADD PUSH1 0x40 MSTORE DUP1 SWAP3 SWAP2 SWAP1 DUP2 DUP2 MSTORE PUSH1 0x20 ADD PUSH1 0x0 SWAP1 JUMPDEST DUP3 DUP3 LT ISZERO PUSH2 0x262 JUMPI DUP4 DUP3 SWAP1 PUSH1 0x0 MSTORE PUSH1 0x20 PUSH1 0x0 KECCAK256 ADD DUP1 SLOAD PUSH2 0x1D5 SWAP1 PUSH2 0x968 JUMP JUMPDEST DUP1 PUSH1 0x1F ADD PUSH1 0x20 DUP1 SWAP2 DIV MUL PUSH1 0x20 ADD PUSH1 0x40 MLOAD SWAP1 DUP2 ADD PUSH1 0x40 MSTORE DUP1 SWAP3 SWAP2 SWAP1 DUP2 DUP2 MSTORE PUSH1 0x20 ADD DUP3 DUP1 SLOAD PUSH2 0x201 SWAP1 PUSH2 0x968 JUMP JUMPDEST DUP1 ISZERO PUSH2 0x24E JUMPI DUP1 PUSH1 0x1F LT PUSH2 0x223 JUMPI PUSH2 0x100 DUP1 DUP4 SLOAD DIV MUL DUP4 MSTORE SWAP2 PUSH1 0x20 ADD SWAP2 PUSH2 0x24E JUMP JUMPDEST DUP3 ADD SWAP2 SWAP1 PUSH1 0x0 MSTORE PUSH1 0x20 PUSH1 0x0 KECCAK256 SWAP1 JUMPDEST DUP2 SLOAD DUP2 MSTORE SWAP1 PUSH1 0x1 ADD SWAP1 PUSH1 0x20 ADD DUP1 DUP4 GT PUSH2 0x231 JUMPI DUP3 SWAP1 SUB PUSH1 0x1F AND DUP3 ADD SWAP2 JUMPDEST POP POP POP POP POP DUP2 MSTORE PUSH1 0x20 ADD SWAP1 PUSH1 0x1 ADD SWAP1 PUSH2 0x1B6 JUMP JUMPDEST POP POP POP POP DUP2 MSTORE POP POP SWAP1 POP SWAP2 SWAP1 POP JUMP JUMPDEST PUSH1 0x0 DUP4 SWAP1 DUP1 PUSH1 0x1 DUP2 SLOAD ADD DUP1 DUP3 SSTORE DUP1 SWAP2 POP POP PUSH1 0x1 SWAP1 SUB SWAP1 PUSH1 0x0 MSTORE PUSH1 0x20 PUSH1 0x0 KECCAK256 ADD PUSH1 0x0 SWAP1 SWAP2 SWAP1 SWAP2 SWAP1 SWAP2 POP SWAP1 DUP2 PUSH2 0x2A5 SWAP2 SWAP1 PUSH2 0xB4F JUMP JUMPDEST POP PUSH1 0x40 MLOAD DUP1 PUSH1 0x40 ADD PUSH1 0x40 MSTORE DUP1 DUP4 DUP2 MSTORE PUSH1 0x20 ADD DUP3 DUP2 MSTORE POP PUSH1 0x1 DUP5 PUSH1 0x40 MLOAD PUSH2 0x2CB SWAP2 SWAP1 PUSH2 0x922 JUMP JUMPDEST SWAP1 DUP2 MSTORE PUSH1 0x20 ADD PUSH1 0x40 MLOAD DUP1 SWAP2 SUB SWAP1 KECCAK256 PUSH1 0x0 DUP3 ADD MLOAD DUP2 PUSH1 0x0 ADD SWAP1 DUP1 MLOAD SWAP1 PUSH1 0x20 ADD SWAP1 PUSH2 0x2F5 SWAP3 SWAP2 SWAP1 PUSH2 0x335 JUMP JUMPDEST POP PUSH1 0x20 DUP3 ADD MLOAD DUP2 PUSH1 0x1 ADD SWAP1 DUP1 MLOAD SWAP1 PUSH1 0x20 ADD SWAP1 PUSH2 0x312 SWAP3 SWAP2 SWAP1 PUSH2 0x335 JUMP JUMPDEST POP SWAP1 POP POP POP POP POP JUMP JUMPDEST PUSH1 0x40 MLOAD DUP1 PUSH1 0x40 ADD PUSH1 0x40 MSTORE DUP1 PUSH1 0x60 DUP2 MSTORE PUSH1 0x20 ADD PUSH1 0x60 DUP2 MSTORE POP SWAP1 JUMP JUMPDEST DUP3 DUP1 SLOAD DUP3 DUP3 SSTORE SWAP1 PUSH1 0x0 MSTORE PUSH1 0x20 PUSH1 0x0 KECCAK256 SWAP1 DUP2 ADD SWAP3 DUP3 ISZERO PUSH2 0x37D JUMPI SWAP2 PUSH1 0x20 MUL DUP3 ADD JUMPDEST DUP3 DUP2 GT ISZERO PUSH2 0x37C JUMPI DUP3 MLOAD DUP3 SWAP1 DUP2 PUSH2 0x36C SWAP2 SWAP1 PUSH2 0xB4F JUMP JUMPDEST POP SWAP2 PUSH1 0x20 ADD SWAP2 SWAP1 PUSH1 0x1 ADD SWAP1 PUSH2 0x355 JUMP JUMPDEST JUMPDEST POP SWAP1 POP PUSH2 0x38A SWAP2 SWAP1 PUSH2 0x38E JUMP JUMPDEST POP SWAP1 JUMP JUMPDEST JUMPDEST DUP1 DUP3 GT ISZERO PUSH2 0x3AE JUMPI PUSH1 0x0 DUP2 DUP2 PUSH2 0x3A5 SWAP2 SWAP1 PUSH2 0x3B2 JUMP JUMPDEST POP PUSH1 0x1 ADD PUSH2 0x38F JUMP JUMPDEST POP SWAP1 JUMP JUMPDEST POP DUP1 SLOAD PUSH2 0x3BE SWAP1 PUSH2 0x968 JUMP JUMPDEST PUSH1 0x0 DUP3 SSTORE DUP1 PUSH1 0x1F LT PUSH2 0x3D0 JUMPI POP PUSH2 0x3EF JUMP JUMPDEST PUSH1 0x1F ADD PUSH1 0x20 SWAP1 DIV SWAP1 PUSH1 0x0 MSTORE PUSH1 0x20 PUSH1 0x0 KECCAK256 SWAP1 DUP2 ADD SWAP1 PUSH2 0x3EE SWAP2 SWAP1 PUSH2 0x3F2 JUMP JUMPDEST JUMPDEST POP JUMP JUMPDEST JUMPDEST DUP1 DUP3 GT ISZERO PUSH2 0x40B JUMPI PUSH1 0x0 DUP2 PUSH1 0x0 SWAP1 SSTORE POP PUSH1 0x1 ADD PUSH2 0x3F3 JUMP JUMPDEST POP SWAP1 JUMP JUMPDEST PUSH1 0x0 PUSH1 0x40 MLOAD SWAP1 POP SWAP1 JUMP JUMPDEST PUSH1 0x0 DUP1 REVERT JUMPDEST PUSH1 0x0 DUP1 REVERT JUMPDEST PUSH1 0x0 DUP1 REVERT JUMPDEST PUSH1 0x0 DUP1 REVERT JUMPDEST PUSH1 0x0 PUSH1 0x1F NOT PUSH1 0x1F DUP4 ADD AND SWAP1 POP SWAP2 SWAP1 POP JUMP JUMPDEST PUSH32 0x4E487B7100000000000000000000000000000000000000000000000000000000 PUSH1 0x0 MSTORE PUSH1 0x41 PUSH1 0x4 MSTORE PUSH1 0x24 PUSH1 0x0 REVERT JUMPDEST PUSH2 0x476 DUP3 PUSH2 0x42D JUMP JUMPDEST DUP2 ADD DUP2 DUP2 LT PUSH8 0xFFFFFFFFFFFFFFFF DUP3 GT OR ISZERO PUSH2 0x495 JUMPI PUSH2 0x494 PUSH2 0x43E JUMP JUMPDEST JUMPDEST DUP1 PUSH1 0x40 MSTORE POP POP POP JUMP JUMPDEST PUSH1 0x0 PUSH2 0x4A8 PUSH2 0x40F JUMP JUMPDEST SWAP1 POP PUSH2 0x4B4 DUP3 DUP3 PUSH2 0x46D JUMP JUMPDEST SWAP2 SWAP1 POP JUMP JUMPDEST PUSH1 0x0 PUSH8 0xFFFFFFFFFFFFFFFF DUP3 GT ISZERO PUSH2 0x4D4 JUMPI PUSH2 0x4D3 PUSH2 0x43E JUMP JUMPDEST JUMPDEST PUSH2 0x4DD DUP3 PUSH2 0x42D JUMP JUMPDEST SWAP1 POP PUSH1 0x20 DUP2 ADD SWAP1 POP SWAP2 SWAP1 POP JUMP JUMPDEST DUP3 DUP2 DUP4 CALLDATACOPY PUSH1 0x0 DUP4 DUP4 ADD MSTORE POP POP POP JUMP JUMPDEST PUSH1 0x0 PUSH2 0x50C PUSH2 0x507 DUP5 PUSH2 0x4B9 JUMP JUMPDEST PUSH2 0x49E JUMP JUMPDEST SWAP1 POP DUP3 DUP2 MSTORE PUSH1 0x20 DUP2 ADD DUP5 DUP5 DUP5 ADD GT ISZERO PUSH2 0x528 JUMPI PUSH2 0x527 PUSH2 0x428 JUMP JUMPDEST JUMPDEST PUSH2 0x533 DUP5 DUP3 DUP6 PUSH2 0x4EA JUMP JUMPDEST POP SWAP4 SWAP3 POP POP POP JUMP JUMPDEST PUSH1 0x0 DUP3 PUSH1 0x1F DUP4 ADD SLT PUSH2 0x550 JUMPI PUSH2 0x54F PUSH2 0x423 JUMP JUMPDEST JUMPDEST DUP2 CALLDATALOAD PUSH2 0x560 DUP5 DUP3 PUSH1 0x20 DUP7 ADD PUSH2 0x4F9 JUMP JUMPDEST SWAP2 POP POP SWAP3 SWAP2 POP POP JUMP JUMPDEST PUSH1 0x0 PUSH1 0x20 DUP3 DUP5 SUB SLT ISZERO PUSH2 0x57F JUMPI PUSH2 0x57E PUSH2 0x419 JUMP JUMPDEST JUMPDEST PUSH1 0x0 DUP3 ADD CALLDATALOAD PUSH8 0xFFFFFFFFFFFFFFFF DUP2 GT ISZERO PUSH2 0x59D JUMPI PUSH2 0x59C PUSH2 0x41E JUMP JUMPDEST JUMPDEST PUSH2 0x5A9 DUP5 DUP3 DUP6 ADD PUSH2 0x53B JUMP JUMPDEST SWAP2 POP POP SWAP3 SWAP2 POP POP JUMP JUMPDEST PUSH1 0x0 DUP2 MLOAD SWAP1 POP SWAP2 SWAP1 POP JUMP JUMPDEST PUSH1 0x0 DUP3 DUP3 MSTORE PUSH1 0x20 DUP3 ADD SWAP1 POP SWAP3 SWAP2 POP POP JUMP JUMPDEST PUSH1 0x0 DUP2 SWAP1 POP PUSH1 0x20 DUP3 ADD SWAP1 POP SWAP2 SWAP1 POP JUMP JUMPDEST PUSH1 0x0 DUP2 MLOAD SWAP1 POP SWAP2 SWAP1 POP JUMP JUMPDEST PUSH1 0x0 DUP3 DUP3 MSTORE PUSH1 0x20 DUP3 ADD SWAP1 POP SWAP3 SWAP2 POP POP JUMP JUMPDEST PUSH1 0x0 JUMPDEST DUP4 DUP2 LT ISZERO PUSH2 0x618 JUMPI DUP1 DUP3 ADD MLOAD DUP2 DUP5 ADD MSTORE PUSH1 0x20 DUP2 ADD SWAP1 POP PUSH2 0x5FD JUMP JUMPDEST PUSH1 0x0 DUP5 DUP5 ADD MSTORE POP POP POP POP JUMP JUMPDEST PUSH1 0x0 PUSH2 0x62F DUP3 PUSH2 0x5DE JUMP JUMPDEST PUSH2 0x639 DUP2 DUP6 PUSH2 0x5E9 JUMP JUMPDEST SWAP4 POP PUSH2 0x649 DUP2 DUP6 PUSH1 0x20 DUP7 ADD PUSH2 0x5FA JUMP JUMPDEST PUSH2 0x652 DUP2 PUSH2 0x42D JUMP JUMPDEST DUP5 ADD SWAP2 POP POP SWAP3 SWAP2 POP POP JUMP JUMPDEST PUSH1 0x0 PUSH2 0x669 DUP4 DUP4 PUSH2 0x624 JUMP JUMPDEST SWAP1 POP SWAP3 SWAP2 POP POP JUMP JUMPDEST PUSH1 0x0 PUSH1 0x20 DUP3 ADD SWAP1 POP SWAP2 SWAP1 POP JUMP JUMPDEST PUSH1 0x0 PUSH2 0x689 DUP3 PUSH2 0x5B2 JUMP JUMPDEST PUSH2 0x693 DUP2 DUP6 PUSH2 0x5BD JUMP JUMPDEST SWAP4 POP DUP4 PUSH1 0x20 DUP3 MUL DUP6 ADD PUSH2 0x6A5 DUP6 PUSH2 0x5CE JUMP JUMPDEST DUP1 PUSH1 0x0 JUMPDEST DUP6 DUP2 LT ISZERO PUSH2 0x6E1 JUMPI DUP5 DUP5 SUB DUP10 MSTORE DUP2 MLOAD PUSH2 0x6C2 DUP6 DUP3 PUSH2 0x65D JUMP JUMPDEST SWAP5 POP PUSH2 0x6CD DUP4 PUSH2 0x671 JUMP JUMPDEST SWAP3 POP PUSH1 0x20 DUP11 ADD SWAP10 POP POP PUSH1 0x1 DUP2 ADD SWAP1 POP PUSH2 0x6A9 JUMP JUMPDEST POP DUP3 SWAP8 POP DUP8 SWAP6 POP POP POP POP POP POP SWAP3 SWAP2 POP POP JUMP JUMPDEST PUSH1 0x0 PUSH1 0x40 DUP4 ADD PUSH1 0x0 DUP4 ADD MLOAD DUP5 DUP3 SUB PUSH1 0x0 DUP7 ADD MSTORE PUSH2 0x710 DUP3 DUP3 PUSH2 0x67E JUMP JUMPDEST SWAP2 POP POP PUSH1 0x20 DUP4 ADD MLOAD DUP5 DUP3 SUB PUSH1 0x20 DUP7 ADD MSTORE PUSH2 0x72A DUP3 DUP3 PUSH2 0x67E JUMP JUMPDEST SWAP2 POP POP DUP1 SWAP2 POP POP SWAP3 SWAP2 POP POP JUMP JUMPDEST PUSH1 0x0 PUSH1 0x20 DUP3 ADD SWAP1 POP DUP2 DUP2 SUB PUSH1 0x0 DUP4 ADD MSTORE PUSH2 0x751 DUP2 DUP5 PUSH2 0x6F3 JUMP JUMPDEST SWAP1 POP SWAP3 SWAP2 POP POP JUMP JUMPDEST PUSH1 0x0 PUSH8 0xFFFFFFFFFFFFFFFF DUP3 GT ISZERO PUSH2 0x774 JUMPI PUSH2 0x773 PUSH2 0x43E JUMP JUMPDEST JUMPDEST PUSH1 0x20 DUP3 MUL SWAP1 POP PUSH1 0x20 DUP2 ADD SWAP1 POP SWAP2 SWAP1 POP JUMP JUMPDEST PUSH1 0x0 DUP1 REVERT JUMPDEST PUSH1 0x0 PUSH2 0x79D PUSH2 0x798 DUP5 PUSH2 0x759 JUMP JUMPDEST PUSH2 0x49E JUMP JUMPDEST SWAP1 POP DUP1 DUP4 DUP3 MSTORE PUSH1 0x20 DUP3 ADD SWAP1 POP PUSH1 0x20 DUP5 MUL DUP4 ADD DUP6 DUP2 GT ISZERO PUSH2 0x7C0 JUMPI PUSH2 0x7BF PUSH2 0x785 JUMP JUMPDEST JUMPDEST DUP4 JUMPDEST DUP2 DUP2 LT ISZERO PUSH2 0x807 JUMPI DUP1 CALLDATALOAD PUSH8 0xFFFFFFFFFFFFFFFF DUP2 GT ISZERO PUSH2 0x7E5 JUMPI PUSH2 0x7E4 PUSH2 0x423 JUMP JUMPDEST JUMPDEST DUP1 DUP7 ADD PUSH2 0x7F2 DUP10 DUP3 PUSH2 0x53B JUMP JUMPDEST DUP6 MSTORE PUSH1 0x20 DUP6 ADD SWAP5 POP POP POP PUSH1 0x20 DUP2 ADD SWAP1 POP PUSH2 0x7C2 JUMP JUMPDEST POP POP POP SWAP4 SWAP3 POP POP POP JUMP JUMPDEST PUSH1 0x0 DUP3 PUSH1 0x1F DUP4 ADD SLT PUSH2 0x826 JUMPI PUSH2 0x825 PUSH2 0x423 JUMP JUMPDEST JUMPDEST DUP2 CALLDATALOAD PUSH2 0x836 DUP5 DUP3 PUSH1 0x20 DUP7 ADD PUSH2 0x78A JUMP JUMPDEST SWAP2 POP POP SWAP3 SWAP2 POP POP JUMP JUMPDEST PUSH1 0x0 DUP1 PUSH1 0x0 PUSH1 0x60 DUP5 DUP7 SUB SLT ISZERO PUSH2 0x858 JUMPI PUSH2 0x857 PUSH2 0x419 JUMP JUMPDEST JUMPDEST PUSH1 0x0 DUP5 ADD CALLDATALOAD PUSH8 0xFFFFFFFFFFFFFFFF DUP2 GT ISZERO PUSH2 0x876 JUMPI PUSH2 0x875 PUSH2 0x41E JUMP JUMPDEST JUMPDEST PUSH2 0x882 DUP7 DUP3 DUP8 ADD PUSH2 0x53B JUMP JUMPDEST SWAP4 POP POP PUSH1 0x20 DUP5 ADD CALLDATALOAD PUSH8 0xFFFFFFFFFFFFFFFF DUP2 GT ISZERO PUSH2 0x8A3 JUMPI PUSH2 0x8A2 PUSH2 0x41E JUMP JUMPDEST JUMPDEST PUSH2 0x8AF DUP7 DUP3 DUP8 ADD PUSH2 0x811 JUMP JUMPDEST SWAP3 POP POP PUSH1 0x40 DUP5 ADD CALLDATALOAD PUSH8 0xFFFFFFFFFFFFFFFF DUP2 GT ISZERO PUSH2 0x8D0 JUMPI PUSH2 0x8CF PUSH2 0x41E JUMP JUMPDEST JUMPDEST PUSH2 0x8DC DUP7 DUP3 DUP8 ADD PUSH2 0x811 JUMP JUMPDEST SWAP2 POP POP SWAP3 POP SWAP3 POP SWAP3 JUMP JUMPDEST PUSH1 0x0 DUP2 SWAP1 POP SWAP3 SWAP2 POP POP JUMP JUMPDEST PUSH1 0x0 PUSH2 0x8FC DUP3 PUSH2 0x5DE JUMP JUMPDEST PUSH2 0x906 DUP2 DUP6 PUSH2 0x8E6 JUMP JUMPDEST SWAP4 POP PUSH2 0x916 DUP2 DUP6 PUSH1 0x20 DUP7 ADD PUSH2 0x5FA JUMP JUMPDEST DUP1 DUP5 ADD SWAP2 POP POP SWAP3 SWAP2 POP POP JUMP JUMPDEST PUSH1 0x0 PUSH2 0x92E DUP3 DUP5 PUSH2 0x8F1 JUMP JUMPDEST SWAP2 POP DUP2 SWAP1 POP SWAP3 SWAP2 POP POP JUMP JUMPDEST PUSH32 0x4E487B7100000000000000000000000000000000000000000000000000000000 PUSH1 0x0 MSTORE PUSH1 0x22 PUSH1 0x4 MSTORE PUSH1 0x24 PUSH1 0x0 REVERT JUMPDEST PUSH1 0x0 PUSH1 0x2 DUP3 DIV SWAP1 POP PUSH1 0x1 DUP3 AND DUP1 PUSH2 0x980 JUMPI PUSH1 0x7F DUP3 AND SWAP2 POP JUMPDEST PUSH1 0x20 DUP3 LT DUP2 SUB PUSH2 0x993 JUMPI PUSH2 0x992 PUSH2 0x939 JUMP JUMPDEST JUMPDEST POP SWAP2 SWAP1 POP JUMP JUMPDEST PUSH1 0x0 DUP2 SWAP1 POP DUP2 PUSH1 0x0 MSTORE PUSH1 0x20 PUSH1 0x0 KECCAK256 SWAP1 POP SWAP2 SWAP1 POP JUMP JUMPDEST PUSH1 0x0 PUSH1 0x20 PUSH1 0x1F DUP4 ADD DIV SWAP1 POP SWAP2 SWAP1 POP JUMP JUMPDEST PUSH1 0x0 DUP3 DUP3 SHL SWAP1 POP SWAP3 SWAP2 POP POP JUMP JUMPDEST PUSH1 0x0 PUSH1 0x8 DUP4 MUL PUSH2 0x9FB PUSH32 0xFFFFFFFFFFFFFFFFFFFFFFFFFFFFFFFFFFFFFFFFFFFFFFFFFFFFFFFFFFFFFFFF DUP3 PUSH2 0x9BE JUMP JUMPDEST PUSH2 0xA05 DUP7 DUP4 PUSH2 0x9BE JUMP JUMPDEST SWAP6 POP DUP1 NOT DUP5 AND SWAP4 POP DUP1 DUP7 AND DUP5 OR SWAP3 POP POP POP SWAP4 SWAP3 POP POP POP JUMP JUMPDEST PUSH1 0x0 DUP2 SWAP1 POP SWAP2 SWAP1 POP JUMP JUMPDEST PUSH1 0x0 DUP2 SWAP1 POP SWAP2 SWAP1 POP JUMP JUMPDEST PUSH1 0x0 PUSH2 0xA4C PUSH2 0xA47 PUSH2 0xA42 DUP5 PUSH2 0xA1D JUMP JUMPDEST PUSH2 0xA27 JUMP JUMPDEST PUSH2 0xA1D JUMP JUMPDEST SWAP1 POP SWAP2 SWAP1 POP JUMP JUMPDEST PUSH1 0x0 DUP2 SWAP1 POP SWAP2 SWAP1 POP JUMP JUMPDEST PUSH2 0xA66 DUP4 PUSH2 0xA31 JUMP JUMPDEST PUSH2 0xA7A PUSH2 0xA72 DUP3 PUSH2 0xA53 JUMP JUMPDEST DUP5 DUP5 SLOAD PUSH2 0x9CB JUMP JUMPDEST DUP3 SSTORE POP POP POP POP JUMP JUMPDEST PUSH1 0x0 SWAP1 JUMP JUMPDEST PUSH2 0xA8F PUSH2 0xA82 JUMP JUMPDEST PUSH2 0xA9A DUP2 DUP5 DUP5 PUSH2 0xA5D JUMP JUMPDEST POP POP POP JUMP JUMPDEST JUMPDEST DUP2 DUP2 LT ISZERO PUSH2 0xABE JUMPI PUSH2 0xAB3 PUSH1 0x0 DUP3 PUSH2 0xA87 JUMP JUMPDEST PUSH1 0x1 DUP2 ADD SWAP1 POP PUSH2 0xAA0 JUMP JUMPDEST POP POP JUMP JUMPDEST PUSH1 0x1F DUP3 GT ISZERO PUSH2 0xB03 JUMPI PUSH2 0xAD4 DUP2 PUSH2 0x999 JUMP JUMPDEST PUSH2 0xADD DUP5 PUSH2 0x9AE JUMP JUMPDEST DUP2 ADD PUSH1 0x20 DUP6 LT ISZERO PUSH2 0xAEC JUMPI DUP2 SWAP1 POP JUMPDEST PUSH2 0xB00 PUSH2 0xAF8 DUP6 PUSH2 0x9AE JUMP JUMPDEST DUP4 ADD DUP3 PUSH2 0xA9F JUMP JUMPDEST POP POP JUMPDEST POP POP POP JUMP JUMPDEST PUSH1 0x0 DUP3 DUP3 SHR SWAP1 POP SWAP3 SWAP2 POP POP JUMP JUMPDEST PUSH1 0x0 PUSH2 0xB26 PUSH1 0x0 NOT DUP5 PUSH1 0x8 MUL PUSH2 0xB08 JUMP JUMPDEST NOT DUP1 DUP4 AND SWAP2 POP POP SWAP3 SWAP2 POP POP JUMP JUMPDEST PUSH1 0x0 PUSH2 0xB3F DUP4 DUP4 PUSH2 0xB15 JUMP JUMPDEST SWAP2 POP DUP3 PUSH1 0x2 MUL DUP3 OR SWAP1 POP SWAP3 SWAP2 POP POP JUMP JUMPDEST PUSH2 0xB58 DUP3 PUSH2 0x5DE JUMP JUMPDEST PUSH8 0xFFFFFFFFFFFFFFFF DUP2 GT ISZERO PUSH2 0xB71 JUMPI PUSH2 0xB70 PUSH2 0x43E JUMP JUMPDEST JUMPDEST PUSH2 0xB7B DUP3 SLOAD PUSH2 0x968 JUMP JUMPDEST PUSH2 0xB86 DUP3 DUP3 DUP6 PUSH2 0xAC2 JUMP JUMPDEST PUSH1 0x0 PUSH1 0x20 SWAP1 POP PUSH1 0x1F DUP4 GT PUSH1 0x1 DUP2 EQ PUSH2 0xBB9 JUMPI PUSH1 0x0 DUP5 ISZERO PUSH2 0xBA7 JUMPI DUP3 DUP8 ADD MLOAD SWAP1 POP JUMPDEST PUSH2 0xBB1 DUP6 DUP3 PUSH2 0xB33 JUMP JUMPDEST DUP7 SSTORE POP PUSH2 0xC19 JUMP JUMPDEST PUSH1 0x1F NOT DUP5 AND PUSH2 0xBC7 DUP7 PUSH2 0x999 JUMP JUMPDEST PUSH1 0x0 JUMPDEST DUP3 DUP2 LT ISZERO PUSH2 0xBEF JUMPI DUP5 DUP10 ADD MLOAD DUP3 SSTORE PUSH1 0x1 DUP3 ADD SWAP2 POP PUSH1 0x20 DUP6 ADD SWAP5 POP PUSH1 0x20 DUP2 ADD SWAP1 POP PUSH2 0xBCA JUMP JUMPDEST DUP7 DUP4 LT ISZERO PUSH2 0xC0C JUMPI DUP5 DUP10 ADD MLOAD PUSH2 0xC08 PUSH1 0x1F DUP10 AND DUP3 PUSH2 0xB15 JUMP JUMPDEST DUP4 SSTORE POP JUMPDEST PUSH1 0x1 PUSH1 0x2 DUP9 MUL ADD DUP9 SSTORE POP POP POP JUMPDEST POP POP POP POP POP POP JUMP INVALID LOG2 PUSH5 0x6970667358 0x22 SLT KECCAK256 0xE7 GAS 0xEC 0xE5 0xC 0xBD PUSH22 0x275F7693490BDBF33FB6CE965218B3B4226A63244254 DUP3 0xCC SWAP11 PUSH5 0x736F6C6343 STOP ADDMOD SGT STOP CALLER "
		},
		"gasEstimates": {
			"creation": {
				"codeDepositCost": "631800",
				"executionCost": "664",
				"totalCost": "632464"
			},
			"external": {
				"addPatch(string,string[],string[])": "infinite",
				"getPatchDetails(string)": "infinite"
			}
		},
		"methodIdentifiers": {
			"addPatch(string,string[],string[])": "73eb92e8",
			"getPatchDetails(string)": "2a208761"
		}
	},
	"abi": [
		{
			"inputs": [
				{
					"internalType": "string",
					"name": "_patchName",
					"type": "string"
				},
				{
					"internalType": "string[]",
					"name": "_bugs",
					"type": "string[]"
				},
				{
					"internalType": "string[]",
					"name": "_features",
					"type": "string[]"
				}
			],
			"name": "addPatch",
			"outputs": [],
			"stateMutability": "nonpayable",
			"type": "function"
		},
		{
			"inputs": [
				{
					"internalType": "string",
					"name": "_patchName",
					"type": "string"
				}
			],
			"name": "getPatchDetails",
			"outputs": [
				{
					"components": [
						{
							"internalType": "string[]",
							"name": "bugs",
							"type": "string[]"
						},
						{
							"internalType": "string[]",
							"name": "features",
							"type": "string[]"
						}
					],
					"internalType": "struct SolidtyTest.Patch",
					"name": "",
					"type": "tuple"
				}
			],
			"stateMutability": "view",
			"type": "function"
		}
	]
}